:100000000C944B130C947C130C947C130C947C1365
:100010000C947C130C947C130C947C130C947C1324
:100020000C947C130C947C130C947C130C947C1314
:100030000C947C130C947C130C947C130C947C1304
:100040000C947C130C94105D0C947C130C947C1316
:100050000C947C130C947C130C9407B70C94C26E14
:100060000C947C130C94484F0C947C130C947C13CC
:100070000C947C130C947C130C947C130C947C13C4
:100080000C947C130C947C130C947C130C947C13B4
:100090000C947C130C947C130C947C130C947C13A4
:1000A0000C947C130C947C130C947C130C947C1394
:1000B0000C947C130C947C130C947C130C947C1384
:1000C0000C947C130C947C130C947C130C947C1374
:1000D0000C947C130C947C130C947C130C947C1364
:1000E0000C947C137E4F854F994FA64FB04FCA4F4B
:1000F000B54FCA4FBA4FBF4FCA4FC74F955F9E5FAC
:10010000B05FC15FD45FF25FD95FF25FDE5FE35F34
:10011000F25FEF5F076E0A6EF96DFD6D036E416E63
:100120000E6E126E186E1C6E206E266E2A6E2E6E6D
:10013000416E346E386E3C6E78847D8482848C840B
:1001400096840F85A084A884B084BA84C484CE84A5
:10015000DD84E7840F85F184FB84058564B774B77B
:1001600093B798B79BB7A0B7A3B7A8B7ABB7B0B7CB
:10017000B3B7B8B7C2B7084AD73B3BCE016E84BC11
:10018000BFFDC12F3D6C74319ABD56833DDA3D00F1
:10019000C77F11BED9E4BB4C3E916BAAAABE00003A
:1001A00000803F05A84CCDB2D44EB93836A9020C18
:1001B00050B9918688083CA6AAAA2ABE00000080F1
:1001C0003F00434F4D4D554E49434154494F4E001A
:1001D00044525952554E004552524F525300494EC7
:1001E000464F004543484F00536C6565702E2E2ED8
:1001F00000205A3A200020593A20004265642058D5
:100200003A20005344207072696E74696E672062F0
:1002100079746520004E6F74205344207072696EAB
:1002200074696E670A0046696C652064656C657464
:1002300065643A0044656C6574696F6E2066616937
:100240006C65642C2046696C653A20006F70656EA1
:10025000206661696C65642C2046696C653A2000F3
:100260005374616E64617264204465766961746977
:100270006F6E3A20004D65616E3A20002020207399
:1002800069676D613A2000206D65616E3A2000203B
:1002900020207A3A2000206F662000205A00205942
:1002A00000205800476F696E6720746F3A00436CF6
:1002B0006F636B776973650A00436F756E7465725F
:1002C0002D0020446972656374696F6E3A200020C6
:1002D0002020616E676C653A200053746172746906
:1002E0006E67207261646975733A2000506F73699C
:1002F00074696F6E696E67207468652070726F62D2
:10030000652E2E2E0A003F4E756D626572206F6657
:10031000206C65677320696E206D6F76656D656E04
:1003200074206E6F7420706C61757369626C6520E7
:1003300028302D3135292E0A00590058003F5361CD
:100340006D706C652073697A65206E6F7420706CB7
:1003500061757369626C652028342D3530292E0A49
:10036000004D3438205A2D50726F626520526570EE
:100370006561746162696C69747920746573740A6B
:10038000003F566572626F7365204C6576656C2020
:100390006E6F7420706C61757369626C65202830B3
:1003A0002D34292E0A006D0046696C616D656E74EE
:1003B00020757365643A200053746174733A2000A9
:1003C0002C204C6F6E67657374206A6F623A200050
:1003D000546F74616C2074696D653A2000537461C8
:1003E00074733A20002C204661696C65643A2000E1
:1003F0002C2046696E69736865643A200050726902
:100400006E74733A200053746174733A2000486527
:100410006174696E672E2E2E00526F626F43322018
:1004200072656164792E00E301DE01D701D001C25B
:10043000016F66660044454255473A004D313133FD
:100440002053006F6B0048656174696E6720646FAC
:100450006E652E003F0A0020573A004865617469B6
:100460006E672E2E2E00526F626F433220726561CE
:1004700064792E00526F626F433220726561647935
:100480002E00526F626F4332204F66662E0046493F
:10049000524D574152455F4E414D453A4D61726C48
:1004A000696E20312E312E372D4332202847697452
:1004B0006875622920534F555243455F434F444569
:1004C0005F55524C3A68747470733A2F2F67697491
:1004D0006875622E636F6D2F526F626F33442F4DBC
:1004E00061726C696E2D43322050524F544F434F0E
:1004F0004C5F56455253494F4E3A4332204D41438B
:1005000048494E455F545950453A526F626F4332E5
:100510002045585452554445525F434F554E543A26
:100520003120555549443A63656465326132662D20
:10053000343161322D343734382D396231322D6304
:10054000353563363266333637666620454D45525B
:1005500047454E43595F434F4445533A4D31303838
:100560002C4D3131322C4D3431300A004D3134357F
:1005700020533C696E6465783E206F7574206F6609
:100580002072616E67652028302D31290A0053657D
:100590007474696E672054726176656C2041636380
:1005A000656C65726174696F6E3A2000536574748E
:1005B000696E67205265747261637420416363657C
:1005C0006C65726174696F6E3A200053657474696A
:1005D0006E67205072696E7420416363656C65724A
:1005E0006174696F6E3A200053657474696E672098
:1005F0005072696E7420616E642054726176656C0D
:1006000020416363656C65726174696F6E3A2000A6
:10061000205A00205900580020204D61783A2000CF
:10062000205A00205900580020204D696E3A2000C1
:100630004F6E20004F666600536F667420656E64CF
:1006400073746F70733A200020643A0020693A0096
:1006500020703A0043290A0061626C656420286DAD
:10066000696E2074656D702000436F6C642065783E
:100670007472756465732061726520004F666673DD
:10068000657473206170706C696564004572723ABC
:1006900020546F6F206661722100546F6F20666175
:1006A000722066726F6D207265666572656E636535
:1006B00020706F696E740A003A20007A5F6D61786D
:1006C0003A20007A5F6D696E3A20005A204F6666C4
:1006D000736574004163746976652045787472753A
:1006E0006465723A2000220A00556E6B6E6F776E59
:1006F00020636F6D6D616E643A202200202B000A2A
:10070000436F727265637465642042656420486556
:10071000696768742076732E2042656420546F7078
:100720006F6C6F67793A0A00202B000A42656420DB
:1007300048656967687420546F706F67726170688C
:10074000793A0A2020202B2D2D2D204241434B2089
:100750002D2D2B0A2020207C20202020202020202E
:100760002020207C0A204C207C20202020282B299F
:10077000202020207C20520A2045207C2020202080
:10078000202020202020207C20490A2046207C2078
:10079000282D29204E20282B29207C20470A205450
:1007A000207C20202020202020202020207C204869
:1007B0000A2020207C20202020282D2920202020D5
:1007C0007C20540A2020207C202020202020202053
:1007D0002020207C0A2020204F2D2D2046524F4ED5
:1007E00054202D2D2B0A2028302C30290A004D654D
:1007F000616E206F662073616D706C656420706F30
:10080000696E74733A200020643A200020623A2016
:100810000045716E20636F656666696369656E7415
:10082000733A20613A200028422961636B00284610
:1008300029726F6E74002852296967687400284C09
:1008400029656674003F4E756D626572206F662083
:1008500070726F626564202850296F696E7473200E
:10086000697320696D706C61757369626C652028AD
:1008700032206D696E696D756D292E0A0052756E94
:100880006E696E6720696E204452592D52554E2074
:100890006D6F64650A00473239204175746F2042DC
:1008A0006564204C6576656C696E670A003F285662
:1008B000296572626F7365204C6576656C2069737B
:1008C00020696D706C61757369626C652028302DCC
:1008D00034292E0A002569730025696D2025697366
:1008E000002569682025696D2025697300256964E4
:1008F000202569682025696D20256973002569799F
:1009000020256964202569682025696D2025697383
:10091000004E6F204C696E65204E756D62657220C9
:100920007769746820636865636B73756D2C204C00
:10093000617374204C696E653A200053544F5050D7
:1009400045442E20005072696E7465722073746F76
:10095000707065642064756520746F206572726FB5
:1009600072732E2046697820746865206572726FF4
:100970007220616E6420757365204D393939207499
:100980006F20726573746172742E202854656D70C7
:100990006572617475726520697320726573657420
:1009A0002E2053657420697420616674657220720C
:1009B000657374617274696E67290A004E6F204313
:1009C0006865636B73756D2077697468206C696EF8
:1009D00065206E756D6265722C204C617374204CBD
:1009E000696E653A2000636865636B73756D206D91
:1009F00069736D617463682C204C617374204C6959
:100A00006E653A20004C696E65204E756D626572A8
:100A1000206973206E6F74204C617374204C696E72
:100A200065204E756D6265722B312C204C6173749C
:100A3000204C696E653A20004D313130004D333124
:100A4000004D383420582059205A20450053442066
:100A500072656164206572726F720A00446F6E6520
:100A6000207072696E74696E672066696C650A0031
:100A700020496E76616C696420657874727564656E
:100A80007220000000FE420000FE420000204300F1
:100A90000000000000000000000000205A3A200082
:100AA00020593A200042656420583A200020746F93
:100AB0006F206C6F6E6720657874727573696F6EE6
:100AC0002070726576656E7465640A0020636F6CD1
:100AD0006420657874727573696F6E2070726576C4
:100AE000656E7465640A0020706F736974696F6E57
:100AF000206F7574206F662072616E67652E0A0024
:100B00003F50726F626520004573746570732F6D7E
:100B10006D004573746570732F6D6D005A73746545
:100B200070732F6D6D005A73746570732F6D6D0047
:100B30005973746570732F6D6D005973746570739C
:100B40002F6D6D005873746570732F6D6D00587341
:100B5000746570732F6D6D00412D74726176656CD4
:100B600000412D74726176656C00412D726574725E
:100B700061637400412D7265747261637400416D2C
:100B80006178204500416D6178204500416D6178B4
:100B9000205A00416D6178205A00416D61782059DA
:100BA00000416D6178205900416D61782058004105
:100BB0006D61782058005654726176206D696E0020
:100BC0005654726176206D696E00566D696E0056DE
:100BD0006D696E00566D6178204500566D61782014
:100BE0004500566D6178205A00566D6178205A0094
:100BF000566D6178205900566D6178205900566D08
:100C00006178205800566D617820580056652D6A2D
:100C100065726B0056652D6A65726B00567A2D6A97
:100C200065726B00567A2D6A65726B005678792D65
:100C30006A65726B005678792D6A65726B00416344
:100C400063656C00416363656C005A204F66667390
:100C50006574005A204F666673657400436F6E7446
:100C6000726F6C0046696C2E204469612E004669E3
:100C70006C2E204469612E004F6666004F6E200086
:100C80004520696E206D6D3300436F6E74726F6C1A
:100C90000043616E6E6F7420656E746572207375AB
:100CA000626469723A2000052E2E004D61696E0063
:100CB0004B494C4C45442E200024F4D43050C38E74
:100CC00020C2A24017828B7011127A910D816CD9CB
:100CD0000AA861E108C7586607615143061E4B5DCB
:100CE00005C145A7041A411104093D980371393122
:100CF000034036DB0265339102D4305402802E1D4E
:100D000002632CEE01752AC501B028A001102781CD
:100D1000018F2564012B244B01E0223401AC211FFB
:100D2000018D200D01801FFC00841EED00971DDF4A
:100D300000B81CD200E61BC600201BBC00641AB21F
:100D400000B219A8000A19A0006A189900D11791D9
:100D50000040178B00B516840031167E00B315795C
:100D6000003A157300C7146F0058146A00EE13663A
:100D7000008813630025135E00C7125B006C1257D6
:100D80000015125400C111510070114F0021114B78
:100D900000D61049008D1047004610440002104252
:100DA00000C00F4000800F3E00420F3C00060F3B8A
:100DB00000CB0E3800930E37005C0E3500270E3442
:100DC00000F30D3200C10D3100900D3000600D2E8A
:100DD00000320D2D00050D2C00D90C2B00AE0C2976
:100DE00000850C29005C0C2700350C27000E0C2612
:100DF00000E80B2400C40B2400A00B23007D0B2370
:100E0000005A0B2100390B2100180B2000F80A1F93
:100E100000D90A1E00BB0A1E009D0A1D00800A1D83
:100E200000630A1C00470A1B002C0A1B00110A1A47
:100E300000F7091A00DD091900C4091900AB0919E6
:100E400000920917007B091800630917004C091666
:100E50000036091600200916000A091500F50815C4
:100E600000E0081400CC081400B8081400A408140A
:100E700000900813007D0812006B08130058081238
:100E8000004608120034081100230811001208114E
:100E90000001081100F0071000E0071000D0071053
:100EA00000C0071000B0070F00A107100091070E47
:100EB0000083070F0074070F0065070E0057070E29
:100EC0000049070E003B070D002E070E0020070DFE
:100ED0000013070D0006070D00F9060C00ED060DC6
:100EE00000E0060C00D4060C00C8060C00BC060C82
:100EF00000B0060C00A4060B0099060C008D060B32
:100F00000082060B0077060B006C060B0061060AD8
:100F10000057060B004C060A0042060A0038060A73
:100F2000002E060A0024060A001A060A0010060906
:100F30000007060A00FD050900F4050900EB050994
:100F400000E2050900D9050900D0050900C7050917
:100F500000BE050900B5050800AD050800A5050996
:100F6000009C050800940508008C0508008405080D
:100F7000007C050800740508006C0507006505087D
:100F8000005D050700560508004E050700470507E8
:100F9000004005080038050700310507002A05074D
:100FA00000230507001C050600160507000F0507AE
:100FB000000805060002050700FB040600F504070B
:100FC00000EE040600E8040600E2040700DB040665
:100FD00000D5040600CF040600C9040600C30406B9
:100FE00000BD040600B7040600B1040500AC040609
:100FF00000A6040600A00405009B04060095040555
:1010000000900406008A040500850405008004069B
:10101000007A04050075040500700405006B0405E2
:101020000066040500610405005C04050057040522
:1010300000520405004D0405004804050043040562
:10104000003E0404003A04050035040500300404A1
:10105000002C04050027040400230405001E0404DA
:10106000001A04040016040500110404000D040411
:1010700000090405000404040000040400FC030447
:1010800000F8030400F4030400F0030400EC03047C
:1010900000E8030400E4030400E0030400DC0304AC
:1010A00000D8030400D4030400D0030400CC0304DC
:1010B00000C8030300C503030024F404D9201BC4A3
:1010C0000C5C0E9804C4095F0265077101F405F910
:1010D00000FB04B30048048700C1036900580355AE
:1010E0000003034500BE023A008402310053022A85
:1010F000002902250004022000E4011C00C8011997
:1011000000AF011700980114008401130071011051
:10111000006101100051010E0043010D0036010B6A
:10112000002B010B0020010B00150109000C010927
:101130000003010800FB000800F3000800EB0007B3
:1011400000E4000600DE000600D8000600D200061B
:1011500000CC000500C7000500C2000500BD00046A
:1011600000B9000400B5000400B1000400AD0004A3
:1011700000A9000400A5000300A20003009F0004D2
:10118000009B0003009800030095000200930003F9
:1011900000900003008D0002008B00030088000215
:1011A000008600020084000300810002007F00022C
:1011B000007D0002007B0002007900020077000140
:1011C000007600020074000200720001007100024B
:1011D000006F0002006D0001006C0002006A000157
:1011E000006900020067000100660001006500015F
:1011F0000064000200620001006100010060000163
:10120000005F0002005D0001005C0001005B000166
:10121000005A000100590001005800010057000168
:101220000056000100550001005400010053000069
:101230000053000100520001005100010050000164
:10124000004F0001004E0000004E0001004D000163
:10125000004C0001004B0000004B0001004A00015F
:10126000004900010048000000480001004700015B
:101270000046000000460001004500000045000156
:101280000044000100430000004300010042000050
:101290000042000100410000004100010040000147
:1012A000003F0000003F0001003E0000003E000142
:1012B000003D0000003D0001003C0000003C00003B
:1012C000003C0001003B0000003B0001003A000030
:1012D000003A000100390000003900010038000028
:1012E000003800000038000100370000003700011E
:1012F0000036000000360000003600010035000016
:10130000003500000035000100340000003400000A
:1013100000340001003300000033000000330001FE
:1013200000320000003200000032000100310000F5
:1013300000310000003100010030000000300000EA
:1013400000300001002F0000002F0000002F0000DF
:10135000002F0001002E0000002E0000002E0001D2
:10136000002D0000002D0000002D0000002D0001C8
:10137000002C0000002C0000002C0000002C0001BC
:10138000002B0000002B0000002B0000002B0001B0
:10139000002A0000002A0000002A0000002A0001A4
:1013A0000029000000290000002900000029000099
:1013B000002900010028000000280000002800008B
:1013C000002800000028000100270000002700007E
:1013D0000027000000270000002700010026000071
:1013E0000026000000260000002600000026000164
:1013F0000025000000250000002500000025000059
:101400000025000000250001002400000024000049
:10141000002400000024000000240001002300003C
:101420000023000000230000002300000023000030
:101430000023000000230001002200000022000021
:101440000022000000220000002200000022000113
:101450000021000000210000002100000021000008
:1014600000210000002100000021000100200000F8
:1014700000200000002000000020000000200000EC
:10148000002000000020000000200001001F0000DC
:10149000001F0000001F0000001F0000001F0000D0
:1014A000001F0000001F0001001E0000001E0000C1
:1014B000001E0000001E0000004D38342058205946
:1014C000205A2045006265640A002C2073797374E9
:1014D000656D2073746F7070656421204865617458
:1014E00065725F49443A2000544845524D414C20B2
:1014F00052554E4157415900546865726D616C20D8
:1015000052756E617761790048656174696E672014
:101510006661696C65640048656174696E67206620
:1015200061696C65640048656174696E6720666115
:10153000696C65640048656174696E6720666169FD
:101540006C6564004D6F76652058004D6F766520A0
:1015500059004D6F7665205A004578747275646540
:1015600072004578747275646572004D6F766520FF
:101570005A004D6F76652059004D6F7665205800F2
:101580004D6F76652061786973004D6F7665203008
:101590002E316D6D004D6F766520316D6D004D6F94
:1015A00076652031306D6D00507265706172650036
:1015B000526573746F7265206661696C73616665EC
:1015C000004C6F6164206D656D6F72790053746FAC
:1015D0007265206D656D6F72790046696C616D652D
:1015E0006E74004D6F74696F6E0054656D70657236
:1015F0006174757265004D61696E00507265686551
:1016000061742041425320636F6E660050726568BA
:1016100065617420504C4120636F6E6600504944F0
:101620002D44005049442D44005049442D49005058
:1016300049442D49005049442D50005049442D50F3
:10164000002002204661637400200220466163741A
:10165000002002204D6178002002204D617800209A
:1016600002204D696E002002204D696E004F6666B3
:10167000004F6E20004175746F74656D7000466197
:101680006E2073706565640046616E2073706565D9
:1016900064004E6F7A7A6C65004E6F7A7A6C6500E2
:1016A000436F6E74726F6C0053746F7265206D655A
:1016B0006D6F7279004E6F7A7A6C65004E6F7A7A30
:1016C0006C650046616E2073706565640046616EEE
:1016D0002073706565640054656D70657261747522
:1016E00072650053746F7265206D656D6F7279005D
:1016F0004E6F7A7A6C65004E6F7A7A6C650046613F
:101700006E2073706565640046616E207370656558
:10171000640054656D706572617475726500436133
:1017200072642072656D6F76656400436172642037
:10173000696E7365727465640000002100240027DF
:10174000002A002D003000330001010000040107D1
:10175000010A0100002200250028002B002E003184
:1017600000340002010000050108010B0100002007
:10177000002300260029002C002F00320000010069
:10178000000301060109010505050507050808080C
:1017900008020202020A0A08080404040401010102
:1017A000010101010103030303030303030407070A
:1017B000070C0C0C0C0C0C0C0C02020202060606A8
:1017C00006060606060B0B0B0B0B0B0B0B01021090
:1017D000202008081020401020408002010201084B
:1017E00004020101020408102040808040201008FB
:1017F0000402018004020180402010080402010854
:1018000004020101020408102040800102040810B3
:1018100020408000000A0B02090C0D0E080703048B
:1018200001000000000000000000000000000000B7
:101830000000000000000000000000000000001296
:101840001110000000000000000000000000000077
:101850000000000000000000004B494C4C45442EA5
:101860002000202D20496E76616C696420657874B3
:101870007275646572206E756D62657220210A0052
:101880002D2D2D2D2D2D007C4D61726C696E7C00EF
:101890002D2D2D2D2D2D00687474703A2F2F6D6114
:1018A000726C696E66772E6F726700687474703A36
:1018B0002F2F6D61726C696E66772E6F72670020D4
:1018C000312E312E372D4332002020506C616E6E48
:1018D000657242756666657242797465733A200076
:1018E0002046726565204D656D6F72793A20004D16
:1018F000617220323420323031370A00436F6D700C
:10190000696C65643A200028726F626F290A0020B2
:101910007C20417574686F723A2000323031372D67
:10192000332D32342031363A303000204C6173741C
:1019300020557064617465643A200020312E312E88
:10194000372D43320A004D61726C696E0020536F6F
:101950006674776172652052657365740A0020575A
:1019600061746368646F672052657365740A002050
:1019700042726F776E206F75742052657365740ABA
:10198000002045787465726E616C205265736574D1
:101990000A00506F77657255700A00737461727433
:1019A0000A006572726F722077726974696E6720BF
:1019B000746F2066696C650A00456E6473746F709D
:1019C0007320256320256320256320256300205A8A
:1019D0003A0020593A0020583A00656E6473746FDB
:1019E0007073206869743A2000446F6E65207361DB
:1019F00076696E672066696C652E0A004D32390083
:101A0000206669727374005A0059005800486F6D5F
:101A10006520002066697273740A005A00590058E4
:101A200000486F6D65200053442063617264206F2D
:101A30006B0A006F70656E526F6F74206661696C1F
:101A400065640A00766F6C756D652E696E69742029
:101A50006661696C65640A00534420696E6974208C
:101A60006661696C0A006175746F25692E67004DA7
:101A70003234004D32332025730057726974696E19
:101A80006720746F2066696C653A20006F70656E20
:101A9000206661696C65642C2046696C653A20009B
:101AA0006F70656E206661696C65642C2046696C98
:101AB000653A200046696C652073656C65637465E2
:101AC000640A002053697A653A200046696C6520F3
:101AD0006F70656E65643A20006F70656E20666198
:101AE000696C65642C2046696C653A200020666943
:101AF0006C653A20004E6F7720002220706F7300D3
:101B00002220706172656E743A2200535542524F22
:101B10005554494E452043414C4C207461726765D1
:101B2000743A22004B494C4C45442E200074727983
:101B3000696E6720746F2063616C6C207375622D11
:101B400067636F64652066696C6573207769746884
:101B500020746F6F206D616E79206C6576656C7393
:101B60002E204D4158206C6576656C2069733A00D3
:101B70004572726F723A00526573756D696E6720B7
:101B80007072696E7400526F626F433220726561C9
:101B900064792E005761697420666F7220757365D1
:101BA000722E2E2E004E6F206D6F76652E00456EC4
:101BB000642066696C65206C6973740A004265670D
:101BC000696E2066696C65206C6973740A005072D6
:101BD000696E742074696D653A200020403A0020D7
:101BE0002F0020543A00205A3A0020593A0020434E
:101BF0006F756E7420583A200020453A00205A3AFA
:101C00000020593A00583A0023646566696E6520E1
:101C10002044454641554C545F4B64200023646585
:101C200066696E65202044454641554C545F4B69BA
:101C3000200023646566696E652020444546415551
:101C40004C545F4B702000504944204175746F74B0
:101C5000756E652066696E697368656421205075CC
:101C60007420746865206C617374204B702C204B59
:101C70006920616E64204B6420636F6E7374616EC3
:101C800074732066726F6D2062656C6F7720696E69
:101C9000746F20436F6E66696775726174696F6EE9
:101CA0002E680A00504944204175746F74756E6542
:101CB000206661696C6564212074696D656F757457
:101CC0000A00504944204175746F74756E65206632
:101CD00061696C6564212054656D7065726174750D
:101CE000726520746F6F20686967680A00204B6412
:101CF0003A2000204B693A2000204B703A20000A1D
:101D000020436C617373696320504944200A0020AA
:101D100054753A2000204B753A2000206D61783AC6
:101D20002000206D696E3A200020643A2000206275
:101D30006961733A20007C3C3E5E2B3D3F2F5B5D2A
:101D40003B2C2A225C0070012C0190012701B0017C
:101D50002201C0011D01F00118011002130130021F
:101D60000E016002090190020401C002FF0000039D
:101D7000FA004003F5008003F000D003EB002004DC
:101D8000E6007004E100E004DC004005D700C00577
:101D9000D2004006CD00D006C8008007C30030083E
:101DA000BE00F008B900C009B400B00AAF00B00B23
:101DB000AA00D00CA500000EA000500F9B00C01080
:101DC00096005012910000148C00C0158700B017C7
:101DD0008200B0197D00D01B7800001E73004020E7
:101DE0006E0090226900F024640040275F00902973
:101DF0005A00E02B5500102E500020304B001032BE
:101E00004600E033410090353C0010373700703811
:101E10003200A0392D00B03A2800A03B2300603CDE
:101E20001E00103D1900903D1400103E0F00703E42
:101E30000A00C03E0500003F000043616E6E6F74F3
:101E4000206F70656E20737562646972200065632F
:101E5000686F3A0020746F6F206C6F6E6720657832
:101E600074727573696F6E2070726576656E7465D5
:101E7000640A0020636F6C642065787472757369FE
:101E80006F6E2070726576656E7465640A005072BC
:101E9000696E742066726F6D205344004E6F20533C
:101EA0004420636172640053746F70207072696EB5
:101EB0007400526573756D65207072696E740050A0
:101EC00061757365207072696E7400436F6E747211
:101ED0006F6C00507265706172650054756E6500BC
:101EE000496E666F2073637265656E00466C6F772E
:101EF00000466C6F770046616E2073706565640004
:101F000046616E207370656564004E6F7A7A6C6509
:101F1000004E6F7A7A6C650053706565640053708B
:101F2000656564004D61696E004D343238004D388E
:101F3000310053776974636820706F776572206F22
:101F4000666600436F6F6C646F776E0053776974D9
:101F5000636820706F776572206F6E0050726568DD
:101F600065617420414253004D38300050726568FD
:101F700065617420504C41004D38340044697361F0
:101F8000626C65207374657070657273004D6F7656
:101F9000652061786973004732380A473239004753
:101FA0003239004C6576656C206265640053657457
:101FB00020686F6D65206F666673657473004732C5
:101FC00038004175746F20686F6D65004D61696EF2
:101FD000004572726F722077726974696E6720743F
:101FE0006F20454550524F4D210A0020627974659B
:101FF00073290A0053657474696E67732053746F94
:10200000726564202800454550524F4D2063686535
:10201000636B73756D206D69736D617463680A001D
:10202000206279746573290A002073746F72656485
:102030002073657474696E67732072657472696564
:1020400076656420280048617264636F646564206B
:1020500044656661756C742053657474696E67734A
:10206000204C6F616465640A004572723A204D41EC
:102070005854454D50004D415854454D50207472B0
:1020800069676765726564004572723A204D494E12
:1020900054454D50004D494E54454D502074726981
:1020A0006767657265640025753A253032750025CD
:1020B0003032753A25303275002D2D2D00534400F5
:1020C0005A005900580001200020204D3835312099
:1020D0005A005A2D50726F6265204F6666736574A0
:1020E00020286D6D293A0A0020204D3230302044DE
:1020F000300A0020204D32303020440020446973E3
:1021000061626C65640A0046696C616D656E74207D
:1021100073657474696E67733A0020440020490047
:1021200020204D33303120500050494420736574D5
:1021300074696E67733A0A0020460020420020202E
:102140004D313435205331204800204600204200D4
:1021500020204D3134352053302048004D617465C6
:102160007269616C2068656174757020706172615C
:102170006D65746572733A0A00205A002059002078
:10218000204D323036205800486F6D65206F6666EE
:1021900073657420286D6D290A00204500205A00BF
:1021A00020580020420020540020204D323035209D
:1021B0005300416476616E63656420766172696183
:1021C000626C65733A20533D4D696E2066656564A7
:1021D0007261746520286D6D2F73292C20543D4D3C
:1021E000696E2074726176656C20666565647261E3
:1021F000746520286D6D2F73292C20423D6D696E0A
:10220000696D756D207365676D656E742074696D99
:102210006520286D73292C20583D6D6178696D7596
:102220006D205859206A65726B20286D6D2F7329B7
:102230002C20205A3D6D6178696D756D205A206A99
:1022400065726B20286D6D2F73292C2020453D6D04
:102250006178696D756D2045206A65726B20286D07
:102260006D2F73290A0020540020520020204D3287
:102270003034205000416363656C65726174696F2E
:102280006E733A20503D7072696E74696E672C20CF
:10229000523D7265747261637420616E6420543DB6
:1022A00074726176656C0A00204500205A0020593E
:1022B0000020204D3230312058004D6178696D7515
:1022C0006D20416363656C65726174696F6E20286F
:1022D0006D6D2F7332293A0A00204500205A0020E4
:1022E000590020204D3230332058004D6178696DFF
:1022F000756D2066656564726174657320286D6D07
:102300002F73293A0A00204500205A002059002046
:10231000204D3932205800537465707320706572F7
:1023200020756E69743A0A007A5F6D61783A200010
:102330007A5F6D696E3A2000795F6D61783A2000AE
:10234000785F6D696E3A20005265706F7274696EC5
:102350006720656E6473746F702073746174757335
:102360000A00506C65617365207265736574005076
:1023700052494E5445522048414C544544005072F5
:10238000696E7465722068616C7465642E206B6977
:102390006C6C28292063616C6C6564210A00220A38
:1023A00000656E7175657565696E672022000000B5
:1023B00000000000FE42000020435761726E696E0B
:1023C000673A20486F6D696E672042756D702044D2
:1023D000697669736F72203C20310A000000A040CA
:1023E0000000A040000000400000FE420000FE424D
:1023F00000002043FF0101000021104220633084CF
:1024000040A550C660E770088129914AA16BB18C44
:10241000C1ADD1CEE1EFF13112100273325222B5CB
:10242000529442F772D662399318837BB35AA3BD94
:10243000D39CC3FFF3DEE36224433420040114E69B
:1024400064C774A44485546AA54BB528850995EEE4
:10245000E5CFF5ACC58DD55336722611163006D7AB
:1024600076F6669556B4465BB77AA719973887DF34
:10247000F7FEE79DD7BCC7C448E5588668A77840F3
:1024800008611802282338CCC9EDD98EE9AFF94884
:102490008969990AA92BB9F55AD44AB77A966A710B
:1024A0001A500A333A122AFDDBDCCBBFFB9EEB79D4
:1024B0009B588B3BBB1AABA66C877CE44CC55C225B
:1024C0002C033C600C411CAEED8FFDECCDCDDD2A24
:1024D000AD0BBD688D499D977EB66ED55EF44E13EB
:1024E0003E322E511E700E9FFFBEEFDDDFFCCF1B74
:1024F000BF3AAF599F788F8891A981CAB1EBA10CDF
:10250000D12DC14EF16FE18010A100C230E3200453
:1025100050254046706760B9839893FBA3DAB33DBA
:10252000C31CD37FE35EF3B1029012F322D23235A3
:1025300042145277625672EAB5CBA5A89589856E8A
:10254000F54FE52CD50DC5E234C324A014810466F3
:1025500074476424540544DBA7FAB79987B8975F9A
:10256000E77EF71DC73CD7D326F2369106B0165743
:10257000667676154634564CD96DC90EF92FE9C8E2
:1025800099E9898AB9ABA94458654806782768C093
:1025900018E1088238A3287DCB5CDB3FEB1EFBF9FA
:1025A0008BD89BBBAB9ABB754A545A376A167AF1E3
:1025B0000AD01AB32A923A2EFD0FED6CDD4DCDAA4A
:1025C000BD8BADE89DC98D267C076C645C454CA233
:1025D0003C832CE01CC10C1FEF3EFF5DCF7CDF9BDA
:1025E000AFBABFD98FF89F176E367E554E745E9383
:1025F0002EB23ED10EF01E526573656E643A200015
:102600006F6B00627573793A207061757365642031
:10261000666F7220696E7075740A00627573793A1C
:102620002070617573656420666F722075736572C2
:102630000A00627573793A2070726F63657373690B
:102640006E670A004B494C4C45442E20004B494CC8
:102650004C45442E20004E414E494E495459494E56
:1026600046CDCCCC3D0AD7233C17B7D13877CC2BFD
:10267000329595E6241FB14F0A000020410000C8A2
:102680004200401C4620BCBE4CCA1B0E5AAEC59D23
:102690007400D8D192D411241FBECFEFD1E2DEBF97
:1026A000CDBF00E00CBF14E0A0E0B2E0E2E3FAEC42
:1026B00001E00BBF02C007900D92AC37B107D9F70C
:1026C00023E1ACE7B4E001C01D92AE38B207E1F7F8
:1026D00013E1CAE4D3E100E006C021970109802F8D
:1026E000FE010E949CD8C934D10780E00807A9F7F1
:1026F0000E948DCC0C9407E50C9400002F923F9221
:102700004F925F926F927F928F929F92AF92BF9201
:10271000CF92DF92EF92FF920F931F93CF93DF93AD
:10272000CDB7DEB7CE57D1090FB6F894DEBF0FBED6
:10273000CDBFCDB6DEB6E996DFAECEAEE99700915D
:10274000EA0C20E6029F800111240659144F1093D1
:102750008C0400938B0480918B1280FF18C0EEE4F0
:10276000FEE184917F013FEFE31AF30A882321F011
:102770000E947E48F701F5CFD8018D918D01882305
:1027800019F00E947E48F8CF8AE00E947E4820918E
:102790008B0430918C04F90180812F5F3F4F803290
:1027A000D1F3F0938C04E0938B048E3469F0109194
:1027B0008B0400918C046AE270E0812F902F0E94BC
:1027C000D1DB0097D1F420C0818190ED980F9A3031
:1027D00010F08D3261F73296DF0131962C91205343
:1027E0002A30D0F3CD01FC01019620812032D9F3AB
:1027F000F0938C04E0938B04DACFFC013196829144
:10280000803231F08A3221F0A12FB02F2D9102C0F9
:102810001082F5CFFD01808111968032D9F380536B
:102820008A3020F0EEE4FEE10C946D2D00E010E023
:102830003AE0309FC001319F900D11248C0100536C
:1028400011098191080F111D87FD1A958081805310
:102850008A3078F3CF013196DC013C913032D1F3EC
:1028600090938A048093890441E050E050932813A8
:10287000409327132D3409F409C6243511F40C9420
:102880003A2D273411F00C945F2D0C31110509F409
:102890008FC488F40430110540F40230110508F0AB
:1028A00051C00E94BB480C94642D0430110509F4FA
:1028B00041C40C94642D0A35110509F4DEC5A8F550
:1028C0000D31110509F472C50E31110511F00C948A
:1028D000642D0E945F4820E030E040EF51E46091B9
:1028E000280F7091290F80912A0F90912B0F0E9431
:1028F000A5D84B015C0120E030E0A9016091240FD4
:102900007091250F8091260F9091270F0E94A5D8D6
:10291000EE24E394F12C01E0A50194010E94204EE5
:102920006B017C01EBEFF1E045C50B35110509F4B6
:10293000A8C50C35110511F00C94642D0E949C86DD
:102940000C94642D80911202882311F40C94642D50
:102950000E94914589E40E940345882329F00E9442
:1029600068456B017C0103C0C12CD12C76018AE43F
:102970000E940345882349F00E94684527966CAF62
:102980007DAF8EAF9FAF279706C027961CAE1DAEBA
:102990001EAE1FAE2797A7019601C701B6010E9480
:1029A00003E14B015C0127962CAD3DAD4EAD5FAD13
:1029B0002797CA01B9010E9403E19B01AC01C5013F
:1029C000B4010E94A5D80E9436DBE3966CAF7DAFC0
:1029D0008EAF9FAFE3972091240F3091250F409148
:1029E000260F5091270F2B962CAF3DAF4EAF5FAF08
:1029F0002B97A70196012B966CAD7DAD8EAD9FAD4B
:102A00002B970E94A5D86B966CAF7DAF8EAF9FAF12
:102A10006B978091280F9091290FA0912A0FB09168
:102A20002B0F67968CAF9DAFAEAFBFAF6797279662
:102A30002CAD3DAD4EAD5FAD2797BC01CD010E94E1
:102A4000A5D86F966CAF7DAF8EAF9FAF6F9720917B
:102A50002C0F30912D0F40912E0F50912F0FA396D8
:102A60002CAF3DAF4EAF5FAFA39760911B1370913A
:102A70001C1380911D1390911E130E94A4D863967D
:102A80006CAF7DAF8EAF9FAF639780911F13909116
:102A90002013A0912113B0912213E7968CAF9DAF24
:102AA000AEAFBFAFE7972091300F3091310F40911B
:102AB000320F5091330FA7962CAF3DAF4EAF5FAFA3
:102AC000A797D701C601B05823968CAF9DAFAEAF84
:102AD000BFAF239727962CAD3DAD4EAD5FAD279789
:102AE00050582F962CAF3DAF4EAF5FAF2F97C09091
:102AF0001313D0901413E0901513F0901613AB96A7
:102B0000CCAEDDAEEEAEFFAEAB976B962CAD3DAD71
:102B10004EAD5FAD6B97C701B6010E94A4D86B01A3
:102B20007C01209117133091181340911913509183
:102B30001A13AF962CAF3DAF4EAF5FAFAF976F9606
:102B40002CAD3DAD4EAD5FAD6F97AF966CAD7DAD2D
:102B50008EAD9FADAF970E94A4D84B015C01A70139
:102B6000960123966CAD7DAD8EAD9FAD23970E94EF
:102B700003E12B013C01A50194012F966CAD7DADC5
:102B80008EAD9FAD2F970E9403E19B01AC01C30165
:102B9000B2010E94A5D82B013C01A5019401239606
:102BA0006CAD7DAD8EAD9FAD23970E9403E14B01CF
:102BB0005C01A70196012F966CAD7DAD8EAD9FADEA
:102BC0002F970E9403E19B01AC01C501B4010E9453
:102BD000A4D8A30192010E9423D96B017C0120E0BB
:102BE00030E0A9010E949EE087FF0AC02BED3FE084
:102BF00049EC50E4C701B6010E94A5D86B017C01E5
:102C00000230110551F42BED3FE049EC50E4C701CF
:102C1000B6010E94A4D86B017C0120E030E0A9013C
:102C2000C701B6010E949EE081112AC0AB962CAD6F
:102C30003DAD4EAD5FADAB972B966CAD7DAD8EAD22
:102C40009FAD2B970E949EE081111AC0AF962CADCC
:102C50003DAD4EAD5FADAF9767966CAD7DAD8EADC2
:102C60009FAD67970E949EE081110AC02BED3FE067
:102C700049EC50E4C701B6010E94A5D86B017C0164
:102C8000E3962CAD3DAD4EAD5FADE397C701B60108
:102C90000E9403E19B01AC010E9403E14B015C0136
:102CA00063962CAD3DAD4EAD5FAD6397CA01B901E2
:102CB0000E9403E19B01AC01C501B4010E94A5D8AB
:102CC0000E9436DB4B015C012FE632E143E85AE318
:102CD0000E949EE087FD2AC2C501B4010E9437DA36
:102CE0000E9408DA1B01672B19F422242394312C4B
:102CF000B10180E090E00E94A2E04B015C019B01E9
:102D0000AC01C701B6010E9491D92B966CAF7DAF83
:102D10008EAF9FAF2B97A501940163966CAD7DADEF
:102D20008EAD9FAD63970E9491D9AF966CAF7DAF8A
:102D30008EAF9FAFAF97A7962CAD3DAD4EAD5FADBB
:102D4000A797E7966CAD7DAD8EAD9FADE7970E94DE
:102D5000A4D8A50194010E9491D9E3966CAF7DAFF0
:102D60008EAF9FAFE3972B962CAD3DAD4EAD5FADD3
:102D70002B97CA01B9010E9403E120E030E040E056
:102D80005FE30E9403E19B01AC0160E070E080E83A
:102D90009FE30E94A4D8AB966CAF7DAF8EAF9FAF80
:102DA000AB97A396CCACDDACEEACFFACA397C986D9
:102DB000DA86EB86FC86A796CCACDDACEEACFFAC3D
:102DC000A797CD86DE86EF86F88A60917A027091A9
:102DD0007B02072E000C880B990B0E94A4E0209127
:102DE00000023091010240910202509103020E94C0
:102DF00003E12AE037ED43E25CE30E9403E1A3969E
:102E00006CAF7DAF8EAF9FAFA3970E94B66E9B0154
:102E1000AC0128533F4F4F4F5F4FA7962CAF3DAFAC
:102E20004EAF5FAFA7974FAC21965FAC219722962C
:102E30006FAC229723967FAC239760961FAE609766
:102E400041E050E065965FAF4EAF65976596CEACBA
:102E5000DFAC6597C214D30409F43EC10E94A259A5
:102E60000E94B66E8B019C01A796CCACDDACEEAC9B
:102E7000FFACA7970C191D092E093F0937FD0EC09D
:102E80009B01AC0128533F4F4F4F5F4FA7962CAF8C
:102E90003DAF4EAF5FAFA7970E9474C160963FAD44
:102EA00060973F5F60963FAF609739310CF04BC041
:102EB000AB962CAD3DAD4EAD5FADAB972F966CADE7
:102EC0007DAD8EAD9FAD2F970E9403E16B017C011C
:102ED0002B962CAD3DAD4EAD5FAD2B97B201C3012E
:102EE0000E9403E1A70196010E94A5D87B018C01F5
:102EF000AB962CAD3DAD4EAD5FADAB97B201C3010E
:102F00000E9403E14B015C012B962CAD3DAD4EAD13
:102F10005FAD2B972F966CAD7DAD8EAD9FAD2F978E
:102F20000E9403E19B01AC01C501B4010E94A4D839
:102F30002B013C01A701B8012F964CAF5DAF6EAFDE
:102F40007FAF2F9760C065964EAD5FAD6597BA01B4
:102F500080E090E00E94A2E02B962CAD3DAD4EADFE
:102F60005FAD2B970E9403E14B015C010E948ED95B
:102F70006B017C01C501B4010E942BDB4B015C019C
:102F8000A701960123966CAD7DAD8EAD9FAD2397C5
:102F90000E9403E12B013C01A501940127966CAD31
:102FA0007DAD8EAD9FAD27970E9403E19B01AC01E3
:102FB000C301B2010E94A5D82B013C01A5019401D7
:102FC00023966CAD7DAD8EAD9FAD23970E9403E13E
:102FD0004B015C01A701960127966CAD7DAD8EADCE
:102FE0009FAD27970E9403E19B01AC01C501B4018D
:102FF0000E94A4D82F966CAF7DAF8EAF9FAF2F9756
:1030000060961FAE60979201A3016B966CAD7DAD8B
:103010008EAD9FAD6B970E94A5D869837A838B8311
:103020009C832F962CAD3DAD4EAD5FAD2F976F9627
:103030006CAD7DAD8EAD9FAD6F970E94A5D86D83B1
:103040007E838F839887AF962CAD3DAD4EAD5FAD3F
:10305000AF9769857A858B859C850E94A5D86987FD
:103060007A878B879C87E3962CAD3DAD4EAD5FADE7
:10307000E3976D857E858F8598890E94A5D86D8799
:103080007E878F87988BCE0101960E94DFC4E984EA
:10309000FA840B851C852D813E814F81588569817D
:1030A0007A818B819C81E0918304EF93A3968CAC11
:1030B0009DACAEACBFACA397DE011D966D010E9426
:1030C0002D986596EEADFFAD659731966596FFAF8D
:1030D000EEAF65970F90BACEE0901B13F0901C13E3
:1030E00000911D1310911E13209117133091181386
:1030F0004091191350911A13609113137091141386
:103100008091151390911613E0918304EF93A39689
:103110008CAC9DACAEACBFACA397EFE1CE2EE3E19F
:10312000DE2E0E942D980E94A8440F900E943B48DA
:103130000C94642D80E50E940345882329F00E94A9
:103140005D456B017C0103C0C12CD12C760183E568
:103150000E940345882321F00E9430466B017C01C8
:103160000E94065D0E943B488091291390912A138A
:10317000A0912B13B0912C13C80ED91EEA1EFB1E72
:1031800080913202811105C060E088EE91E00E94DA
:103190008F740E94B66EDC01CB018C199D09AE09BB
:1031A000BF09B7FD02C00C94642D0E9474C1F1CF19
:1031B0000E94065D0E94917E0E945F4811E010937C
:1031C000310288E50E940345A82E89E50E94034547
:1031D000B82E8AE50E940345A11005C0B11005C0B4
:1031E000982F912705C0B11002C090E001C0982F20
:1031F0009093040220E1E4E2FFE0A3E1B3E1019057
:103200000D922A95E1F7911102C0882321F082E006
:1032100090E00E94E7BF80910402811106C0AA20BD
:1032200009F4A4C0BB2009F4A1C01092280F109289
:10323000290F10922A0F10922B0F1092240F109228
:10324000250F1092260F1092270F0E94B846E4EF28
:10325000F3E2149188EE93E20E94B2442B013C0108
:103260008CEE93E20E94B2446B017C019B01AC01A5
:10327000C301B2010E94EDDA18162CF4A3019201E9
:10328000C701B60104C0A7019601C301B2010E94A3
:1032900091D99B01AC010E9403E120E030E040E8BD
:1032A0005FE30E94A5D80E9436DB20E030E048E4CE
:1032B00052E40E9403E16BAF7CAF8DAF9EAFE5EFB0
:1032C000F3E2049120E030E040EC5FE3C701B60197
:1032D0000E9403E16B017C01602F000F770B880BCC
:1032E000990B0E94A4E09B01AC01C701B6010E94AA
:1032F00003E169837A838B839C8320E030E040EC98
:103300005FE3C301B2010E9403E16B017C01612F05
:10331000110F770B880B990B0E94A4E09B01AC0165
:10332000C701B6010E9403E168A379A38AA39BA306
:103330009E01255C3F4F4CE25FE0BE016F5F7F4F17
:10334000CE0180960E947043109287131092280F2E
:103350001092290F10922A0F10922B0F1092240F07
:103360001092250F1092260F1092270F80910402C1
:10337000811102C0AA2021F080E090E00E94E7BF06
:1033800080910402811102C0BB2021F081E090E015
:103390000E94E7BF0E94B84680918A028093310262
:1033A0000E9446480E947D7F0C94642D0E94062F47
:1033B0000C94642D84918F010F5F1F4F882321F09F
:1033C0000E947E48F801F6CF20E030E0A90160912C
:1033D000240F7091250F8091260F9091270F0E9446
:1033E000A5D827E137EB41ED58E30E94A5D842E08C
:1033F0000E94944DE6EFF1E084918F010F5F1F4F23
:10340000882321F00E947E48F801F6CF20E030E0CA
:1034100040EF51E46091280F7091290F80912A0F9D
:1034200090912B0F0E94A5D827E137EB41ED58E38F
:103430000E94A5D842E00E94944DE1EFF1E0849112
:103440008F010F5F1F4F882321F00E947E48F801F3
:10345000F6CF27E137EB41ED58E3C701B6010E94F3
:10346000A5D842E00E94944D8AE00E947E480E94C6
:1034700046480E947D7F0C94642D109288040C9421
:10348000642D81E0809388040C94652D0E3611051F
:1034900011F40C941B2308F0BFC00A32110509F483
:1034A00073C308F04DC00731110509F4AEC110F522
:1034B0000231110511F40C94602668F402301105F4
:1034C00008F495C10131110511F00C94642D0E948E
:1034D000EB850C94642D0531110509F48CC108F0BD
:1034E0008EC10431110511F00C94642D0E94928557
:1034F0000C94642D0B31110509F4A0C138F4093185
:10350000110509F493C108F486C194C10E31110567
:1035100009F4D0C158F40C31110511F00C94642D4C
:1035200040E060E00E94ED780C94642D0F311105AD
:1035300009F426C30032110509F4D3C20C94642D9A
:103540000335110511F40C945C2668F50D34110552
:1035500011F40C94C12260F40B34110509F4F3C783
:1035600008F0F5C70033110509F412C30C94642D5B
:103570000035110511F40C94332638F40E3411057E
:1035800011F40C94C5220C94642D0135110511F42D
:103590000C9440260235110511F00C94642D109204
:1035A00087040C94642D0836110509F4FEC700F554
:1035B0000535110511F40C948D2610F40C94602639
:1035C0000C35110511F00C94642DB0EE8B2EB2E089
:1035D0009B2E04E31FE089E1A82E85E0B82EACE81D
:1035E000B2E12196BFAFAEAF2197312C0C949E264D
:1035F0000A36110511F40C94FF2510F40C941024D4
:103600000B36110511F40C9423260D36110511F417
:103610000C942D240C94642D0C3D110511F40C9484
:10362000E62908F068C00C38110511F40C94F72352
:10363000A8F50337110511F40C941F2778F401370E
:10364000110511F40C94CB2310F00C942C270F3699
:10365000110511F40C942E230C94642D07371105D9
:1036600011F40C94352750F40537110511F00C9422
:10367000642D60E00E94A4740C94642D0837110539
:1036800011F40C942F270937110511F00C94642DB7
:103690001092310210928A020C94642D0B3C110599
:1036A00011F40C94222888F4083C110511F40C94B0
:1036B000B827093C110511F40C94012801391105B2
:1036C00011F00C94642D0C9438270D3C110511F465
:1036D0000C94A92810F40C943F280E3C110511F409
:1036E0000C940529033D110511F00C94642DEEE4B2
:1036F000FEE10C944C29023921E0120711F40C94DC
:10370000BA2B90F50D3241E0140711F40C94822A83
:1037100090F4023E110511F40C940C2A0C3281E055
:10372000180711F40C945C2A0D3D110511F00C944E
:10373000642D0C94F3290F3291E0190711F40C94C5
:10374000B42B10F40C94402B0039B1E01B0711F49A
:103750000C94B72B0139114011F00C94642D81E0C9
:103760000E9462440C94642D063FF1E01F0711F49F
:103770000C94C72C10F5043F31E0130711F40C949E
:10378000C12C10F00C94C42C0C3A114011F00C9484
:10379000642D84E2282E8FE0382EE8EFFCE021969D
:1037A000FFAFEEAF219724E03DE025963FAF2EAF6F
:1037B000259700E010E00C94BE2B0335A3E01A0718
:1037C00011F40C94D92C38F4073F114011F40C94E7
:1037D000CA2C0C94642D003AF3E01F0709F4C7C10A
:1037E000073E134011F40C942A2D0C94642D0E9472
:1037F000FC850C94642D0E94207C0C94642D109206
:10380000FB0F1092FC0F0C94642D40E061E00E94CD
:10381000ED780C94642D8091FC0F882319F081E0E1
:103820008093FB0F0E94BC7E0C94642D1092FB0FC2
:103830000C94642D0E9479850C94642D8091FC0F6A
:10384000882351F1E3E0F2E084918F010F5F1F4F75
:10385000882321F00E947E48F801F6CF609177120C
:10386000709178128091791290917A124AE00E94B8
:10387000E4498FE20E947E48609173127091741245
:1038800080917512909176124AE00E94E4498AE094
:103890000E947E480C94642DE5E1F2E084918F0152
:1038A0000F5F1F4F882311F40C94642D0E947E48F3
:1038B000F801F4CF8091FC0F882311F40C94642D4F
:1038C00086EC91E10E94658886EC91E10E94EA8E87
:1038D0001092FA0F1092F90FE0908904F0908A0488
:1038E0008091FC0F882311F40C94642D0E94E278DF
:1038F0001D8218861C821B8286E793E09A83898347
:1039000088E290E19093481080934710D7018C9102
:103910008F3209F067C06FE270E0C7010E94D1DB0F
:103920008C010F5F1F4FFE0131965F0101151105DC
:1039300009F45EC06FE270E0C8010E94D1DB6C0147
:10394000009709F456C00817190708F052C04C0137
:10395000801A910AA401B801CE0180960E94F1DB81
:10396000E0E2F0E0EC0FFD1FE80DF91D10828E0182
:10397000005E1F4FD8018D918D01882319F00E94A0
:103980007E48F8CF8AE00E947E486091471070918F
:1039900048106115710511F06C5F7F4F21E0AE0199
:1039A000405E5F4FCE0105960E94F28E811112C0DB
:1039B000BE01605E7F4F8CE492E00E94BE498EE2C1
:1039C0000E947E488AE00E947E48C5010E9425C16F
:1039D0000C94642DB0924810A092471086010F5F9E
:1039E0001F4FA4CF89E490E1909348108093471033
:1039F000870160914710709148106115710511F0B1
:103A00006C5F7F4F18A21BA222E0A801CE01809616
:103A10000E94F28E811102C0F12C1EC0CE01809650
:103A20000E946C938823C1F36CA57DA58EA59FA5EC
:103A300041E00E9476B1882379F3E8A9B0E2EB9FD8
:103A4000F0011124E95FF24F309731F385EE808366
:103A50001BA20E9436B1F82ECE0180960E94124819
:103A6000FF2009F1E6E2F2E084917F012FEFE21AF4
:103A7000F20A882321F00E947E48F701F5CFD80191
:103A80008D918D01882319F00E947E48F8CF8AE03D
:103A90000E947E481092771210927812109279123A
:103AA00010927A1218C0E4E3F2E084917F01BFEF34
:103AB000EB1AFB0A882321F00E947E48F701F5CF1C
:103AC000F80181918F01882319F00E947E48F8CF78
:103AD0008EE20E947E48CE0101960E9425C10C9480
:103AE000642D8091FB0F81110E94065D0091890475
:103AF00010918A0461E270E0C8010E94D1DB009756
:103B000019F08C010F5F1F4F80E50E940345882349
:103B100049F0FF24F39480917C0490917D048017F8
:103B2000910708F0F12C8091FC0F882311F40C947C
:103B3000642D4F2D61E0C8010E94ED7883E50E945D
:103B40000345882349F080917C0490917D0480177F
:103B5000910710F40C949E2D8091FC0F882319F08E
:103B600081E08093FB0FF1100C94642D5BCE21E07B
:103B70002093FA0F40E060E00E94ED780C94642DF1
:103B80000E9425850C94642D0E9422840C94642D3F
:103B9000CDB6DEB66D96DFAECEAE6D970E94817D5E
:103BA0008111C6C486E50E940345882351F00E9416
:103BB0001645382EB4E0DB2ED81688F4E1E8F3E0A1
:103BC00003C0332433940DC084918F010F5F1F4FC6
:103BD000882309F4ADC40E947E48F801F5CF8823FC
:103BE00061F0E1E6F3E084918F010F5F1F4F8823BE
:103BF00021F00E947E48F801F6CF80E50E9403453F
:103C0000882321F00E941645182F01C01AE08CEF7E
:103C1000810F8F3260F00DE313E0F8018491882367
:103C200009F486C40F5F1F4F0E947E48F6CF809133
:103C3000240F9091250FA091260FB091270F8BAFE5
:103C40009CAFADAFBEAF8091280F9091290FA0918E
:103C50002A0FB0912B0F88A399A3AAA3BBA385E435
:103C60000E940345A0968FAFA09788E50E94034568
:103C7000882319F00E94684509C020E030E0A901BE
:103C80006BAD7CAD8DAD9EAD0E94A5D827966CAF77
:103C90007DAF8EAF9FAF27978090F80C9090F90C76
:103CA000A090FA0CB090FB0CC090EC0CD090ED0CF6
:103CB000E090EE0CF090EF0C20E030E0A901C5019F
:103CC000B4010E94A5D8A70196010E94A5D89B0126
:103CD000AC0127966CAD7DAD8EAD9FAD27970E9450
:103CE0009EE087FD18C020E030E04EEF52E4C501B1
:103CF000B4010E94A5D8A70196010E94A5D89B01F6
:103D0000AC0127966CAD7DAD8EAD9FAD27970E941F
:103D1000EDDA18161CF48BE393E05AC089E50E9493
:103D20000345882319F00E9468450AC020E030E06E
:103D300040EF51E468A179A18AA19BA10E94A5D876
:103D40002F966CAF7DAF8EAF9FAF2F978090FC0CFE
:103D50009090FD0CA090FE0CB090FF0CC090F00C69
:103D6000D090F10CE090F20CF090F30C20E030E0F9
:103D700040EF51E4C501B4010E94A5D8A701960106
:103D80000E94A5D89B01AC012F966CAD7DAD8EAD88
:103D90009FAD2F970E949EE087FD18C020E030E085
:103DA0004EEF52E4C501B4010E94A5D8A7019601C7
:103DB0000E94A5D89B01AC012F966CAD7DAD8EAD58
:103DC0009FAD2F970E94EDDA18162CF489E393E04B
:103DD0000E948548ADC38CE40E940345082F8823C8
:103DE000C1F00E9416458FAF803168F0E6E0F3E045
:103DF00084918F010F5F1F4F882309F499C30E949C
:103E00007E48F801F5CFFFADF13021F422E02FAF6D
:103E100001C01FAE83E50E940345A4968FAFA4970F
:103E2000882321F0011102C037E03FAF42E0431583
:103E30006CF4ECEEF2E084917F015FEFE51AF50A95
:103E4000882321F00E947E48F701F5CF0E94917EE1
:103E50000E945F48C32C032C000CDD08A996DFAE3E
:103E6000CEAEA9977601A0960FADA0972F962CAD58
:103E70003DAD4EAD5FAD2F9727966CAD7DAD8EAD50
:103E80009FAD27970E94204E0E94B66E6115710566
:103E90008105910511F00E944FDCC12E012E000C0E
:103EA000DD08E196DFAECEAEE197EDB6FEB624E0DA
:103EB0001202E018F10811240FB6F894FEBE0FBEEE
:103EC000EDBE4DB75EB74F5F5F4F69965FAF4EAFC8
:103ED0006997212C812C912C5401750164015FADEF
:103EE000852F90E0DC011197EB96BFAFAEAFEB975B
:103EF000212F110F330B440B550BEF962CAF3DAF19
:103F00004EAF5FAFEF97A22DB0E06596BFAFAEAFFB
:103F10006597E196EEADFFADE197AE17BF070CF0E8
:103F2000C6C2CFACC1102CC0A996EEACFFACA9970D
:103F3000A0960FADA0972F962CAD3DAD4EAD5FADC9
:103F40002F9727966CAD7DAD8EAD9FAD27970E94C4
:103F5000204E6596EEADFFAD6597EE0FFF1FEE0F9D
:103F6000FF1F6996CEACDFAC6997EC0DFD1D608339
:103F7000718382839383812C912C540110E0D4C1EE
:103F80000E944CDC2AE030E040E050E00E94CCE4AB
:103F90000E94A4E020E030E040EA50E40E94EDDA24
:103FA00018161CF001E010E002C00FEF1FEF0E9496
:103FB0004CDC28E631E040E050E00E94CCE40E9476
:103FC000A4E02B013C010E944CDC2AE030E040E000
:103FD00050E00E94CCE46B5F7F4F8F4F9F4F0E9459
:103FE000A4E02B966CAF7DAF8EAF9FAF2B9774E0A4
:103FF000D72E3D1471F060961FAE60976801110FC7
:10400000EE08FF08AF96CCAEDDAEEEAEFFAEAF97DA
:1040100072C02B964CAD5DAD6EAD7FAD2B978AED2A
:1040200092E00E942D4FB301A2018FEC92E00E941A
:104030002D4FE2ECF2E084917F012FEFE21AF20AB9
:10404000882321F00E947E48F701F5CF0130110549
:1040500019F0EEEAF2E00DC0E9EBF2E084917F01A5
:104060003FEFE31AF30A8823A1F30E947E48F70189
:10407000F5CF84917F014FEFE41AF40A882309F405
:10408000BACF0E947E48F701F4CF4BAD5CAD6DAD69
:104090007EAD81EA92E00E942D4F48A159A16AA10C
:1040A0007BA18EE992E00E942D4F40912C0F509100
:1040B0002D0F60912E0F70912F0F8BE992E00E94CF
:1040C0002D4F8AE00E947E4819821A821B821C8230
:1040D0009E012F5F3F4F4CE25FE0BE01605E7F4F6D
:1040E000CE01CB960E94704360962FAD60972F5FF4
:1040F00060962FAF60976096CFAC60978C2D90E064
:10410000EB96CEACDFACEB978C159D050CF00CCF8D
:10411000A496CFACA497CC2089F0AF966CAD7DADC2
:104120008EAD9FADAF970E94A4E09B01AC010E94B1
:10413000A5D820E030E040E952E420C00E944CDCE9
:104140004B015C01AF966CAD7DAD8EAD9FADAF9771
:104150000E94A4E06B017C01C501B40124E130E0C0
:1041600040E050E00E94CCE4675E7F4F8F4F9F4F4E
:104170000E94A4E09B01AC01C701B6010E9403E1CB
:104180009B01AC01C301B2010E94A5D82B013C01E7
:1041900020E030E044EB53E40E94EDDA18164CF4D2
:1041A00020E030E044EB53E4C301B2010E94A4D804
:1041B000EDCF20E030E0A901C301B2010E949EE0F2
:1041C00087FF0BC020E030E044EB53E4C301B201B1
:1041D0000E94A5D82B013C01ECCF2BED3FE049E438
:1041E00050E4C301B2010E9403E120E030E044E367
:1041F00053E40E9491D94B015C010E948ED92B9609
:104200002CAD3DAD4EAD5FAD2B970E9403E19B0100
:10421000AC0127966CAD7DAD8EAD9FAD27970E940A
:10422000A5D86B017C01C501B4010E942BDBE79688
:104230006CAF7DAF8EAF9FAFE79720E030E040EFEF
:1042400051E42F966CAD7DAD8EAD9FAD2F970E9442
:10425000A4D84B015C012B962CAD3DAD4EAD5FADAE
:104260002B97E7966CAD7DAD8EAD9FADE7970E9425
:1042700003E19B01AC01C501B4010E94A5D84B012B
:104280005C0120E030E0A901C701B6010E949EE078
:1042900087FD11C020E030E04EEF52E4C701B601C7
:1042A0000E94EDDA181654F4C12CD12C6EEFE62ED4
:1042B00062E4F62E03C0C12CD12C7601CBAEDCAE6D
:1042C000EDAEFEAE20E030E0A901C501B4010E94D0
:1042D0009EE087FD11C020E030E04EEF52E4C501C2
:1042E000B4010E94EDDA181654F4812C912C5EEF83
:1042F000A52E52E4B52E03C0812C912C540188A226
:1043000099A2AAA2BBA244E0D42E3D10DDCEE4EADD
:10431000F2E084918F010F5F1F4F882309F4B5CE1F
:104320000E947E48F801F5CF6996EEADFFAD699722
:1043300024E0129FE00DF11D112420813181428182
:104340005381C501B4010E94A5D84B015C011F5FD8
:10435000211650F76596CEACDFAC65973FEFC31AD8
:10436000D30A2601DD0C66087708C301B2010E945A
:10437000A4E02B966CAF7DAF8EAF9FAF2B979B01C8
:10438000AC01C501B4010E9491D96B017C01812C63
:10439000912C540110E06996EEADFFAD699744E0B1
:1043A000149FE00DF11D1124A70196016081718118
:1043B000828193810E94A4D89B01AC010E9403E1F9
:1043C0009B01AC01C501B4010E94A5D84B015C0161
:1043D0001F5F211600F72B962CAD3DAD4EAD5FADA6
:1043E0002B970E9491D90E9436DB4B015C01332050
:1043F00009F45BC051E0351609F454C0C301B201A1
:104400000E94654AE6E9F2E084918F010F5F1F4F39
:10441000882321F00E947E48F801F6CFEF966CAD1C
:104420007DAD8EAD9FADEF970E94654AEFE8F2E05B
:1044300084918F010F5F1F4F882321F00E947E48D7
:10444000F801F6CF60912C0F70912D0F80912E0FF7
:1044500090912F0F46E00E94944D82E0381611F1A2
:10446000E7E8F2E084918F010F5F1F4F882321F06E
:104470000E947E48F801F6CF46E0C701B6010E94CF
:10448000944DECE7F2E084918F010F5F1F4F88237A
:1044900021F00E947E48F801F6CF46E0C501B40144
:1044A0000E94944D8AE00E947E4823942CCD80E0A7
:1044B0000E94624481113CC03320A1F0E5E7F2E0A4
:1044C00084918F010F5F1F4F882321F00E947E4847
:1044D000F801F6CF46E0C701B6010E94944D8AE08C
:1044E0000E947E48E0E6F2E084918F010F5F1F4F4B
:1044F000882321F00E947E48F801F6CF46E0C501EE
:10450000B4010E94944D8AE00E947E488AE00E9495
:104510007E480E9446480E947D7F6D96CEACDFACFF
:104520006D970FB6F894DEBE0FBECDBE0C94642D11
:104530006D96CEACDFAC6D970FB6F894DEBE0FBEB5
:10454000CDBE0C94642D0E94BC7E0C94642D809191
:10455000D00F9091D10F019711F00C94642D82E04F
:1045600090E09093D10F8093D00F0E94B66E60932D
:10457000DA0F7093DB0F8093DC0F9093DD0F0C94B8
:10458000642D0E9433900C94642D83E50E940345B2
:10459000882311F40C94B02D0E9445458E3491056A
:1045A00011F00C94B02D0C94AE2E88E690E00E9491
:1045B000584D81110C94642D80918B1283FF02C0A1
:1045C0000C94642D83E50E940345882311F40C9418
:1045D000642D0E9468450E9402DA70934B0F60932D
:1045E0004A0F0E94E38F0E94684520E030E04AEACB
:1045F00052E40E949EE018163CF00E94339060E066
:1046000089E194E00E948F740E94684520914C0FCC
:1046100030914D0F40914E0F50914F0F0E94EDDAA7
:10462000181614F00C94642D60E08EE094E00E9463
:104630008F740C94642D8EE40E940345882311F43A
:104640000C94642D0E94524560937E0470937F0405
:1046500080938004909381040C94642D83E50E94E0
:104660000345882319F00E94164501C080E080931D
:104670008B12EEE4FEE184918F010F5F1F4F8823C0
:1046800021F00E947E48F801F6CFE5E3F4E0849142
:104690008F010F5F1F4F882321F00E947E48F80191
:1046A000F6CF80918B128823A1F137E2C32E34E03C
:1046B000D32EE12CF12C20E080918B1290E00E2C77
:1046C00002C0959587950A94E2F780FF17C0BB2436
:1046D000B394B20E222319F08CE20E947E48F601B8
:1046E00025913491F901849189010F5F1F4F88232F
:1046F00021F00E947E489801F5CF2B2DFFEFEF1A95
:10470000FF0A32E0C30ED11C45E0E416F104A1F625
:104710003DC0E1E3F4E084918F010F5F1F4F8823D8
:10472000A9F10E947E48F801F6CF80E20E947E48FF
:104730008AE50E940345882311F40C941C2D0E94E5
:1047400068456B017C0120E030E040EA51EC0E94BA
:10475000EDDA87FF02C00C94F32C20E030E040EA51
:1047600051E4C701B6010E949EE0181614F40C949F
:10477000F32CC0923905D0923A05E0923B05F092B5
:104780003C0542E0C701B6010E94944D8AE00E94B8
:104790007E480C94642D83E50E940345882369F0CC
:1047A0000E9416458093CE028D3310F40C94642D34
:1047B0008CE38093CE020C94642DEEE4FEE18491B0
:1047C0008F010F5F1F4F882321F00E947E48F80160
:1047D000F6CF4091CE0250E060E070E08CE394E0D0
:1047E0000E944A4A8AE00E947E480C94642D80917F
:1047F0008B1283FF02C00C94642D83E50E94034555
:10480000882311F40C94642D0E9468450E9402DAFA
:1048100070939C0A60939B0A0E94B1580C94642D7B
:1048200089E690E00E94584D811111C0E3E4F4E064
:1048300084918F010F5F1F4F882321F00E947E48D3
:10484000F801F6CF0E943C808AE00E947E481092D8
:104850002813109227130C94E32E8DE690E00E940B
:10486000584D81110C94642D80918B1283FF02C0EE
:104870000C94642D83E50E9403452C968FAF2C97F2
:10488000811105C082E50E9403458823C1F10E9481
:1048900068450E9402DA70934B0F60934A0F0E94A2
:1048A000E38F0E94684520E030E04AEA52E40E942B
:1048B0009EE0181614F40C94B32E0E94339060E01E
:1048C00086E694E00E948F7460914A0F70914B0FBE
:1048D000072E000C880B990B0E94A4E020914C0F2E
:1048E00030914D0F40914E0F50914F0F0E94EDDAD5
:1048F00018162CF460E08BE594E00E948F7486E437
:104900000E9403458093FB0A882351F00E9468456A
:1049100060931B0270931C0280931D0290931E02F1
:1049200083E50E940345882351F00E946845609307
:10493000230270932402809325029093260282E43E
:104940000E940345882351F00E94684560931F022E
:1049500070932002809321029093220281E0809341
:104960007702109228131092271327961CAE1DAEC3
:104970001EAE1FAE27972B961CAE1DAE1EAE1FAEF1
:104980002B971FAE60961FAE60975CE364965FAF97
:1049900064978CE168968FAF689796E46C969FAFAA
:1049A0006C97C12CD12C90E8E92E2FEBF22E812CA4
:1049B000912C540160914A0F70914B0F072E000CFF
:1049C000880B990B0E94A4E0162F072F782E692ED2
:1049D000262F372F482F592FB601C7010E949EE07E
:1049E000882301F120914C0F30914D0F40914E0FD3
:1049F00050914F0F612F702F872D962D0E949EE0B2
:104A0000881F8827881F8FAF2C96CFAC2C97CC207F
:104A100069F0882359F060E086E494E00E948F7486
:104A20000C94642D1C2D0D2D7E2C6F2C0E94B66EC7
:104A30006B017C01DC01CB012B962CAD3DAD4EAD65
:104A40005FAD2B97821B930BA40BB50BB7FD47C033
:104A5000D701C60188519C4FAF4FBF4F2B968CAFEB
:104A60009DAFAEAFBFAF2B970E943C80E7E5F4E06F
:104A700084912F019FEF491A590A882321F00E943F
:104A80007E48F201F5CF81149104A104B104D1F064
:104A9000D501C401805F984DAF4FBF4FBC01CD0120
:104AA0006C197D098E099F0928EE33E040E050E043
:104AB0000E94AAE4CA01B9010E94654A8AE00E94E4
:104AC0007E480DC0E4E5F4E084912F01AFEF4A1A6F
:104AD0005A0A882321F00E947E48F201F5CF0E94F5
:104AE00074C10E943B4820904C0F30904D0F409075
:104AF0004E0F50904F0F9101A201612F702F872D03
:104B0000962D0E94A4D89F7781149104A104B1042A
:104B100049F420E030E040E85FE30E949EE087FF38
:104B20000BC008C020E030E040E450E40E94EDDA21
:104B3000181614F446015701BFADBB2309F443C056
:104B400027962CAD3DAD4EAD5FAD279721153105B4
:104B50004105510541F0D701C601821B930BA40BFF
:104B6000B50BB7FD30C09101A20160966FAD6097A3
:104B700064967FAD649768968FAD68976C969FAD8D
:104B80006C970E94A4D820E030E040EC5FE30E94E4
:104B90009EE087FD40CFD701C601805A9541AF4FB7
:104BA000BF4F27968CAF9DAFAEAFBFAF2797609634
:104BB0002FAE609764963FAE649768964FAE689745
:104BC0006C965FAE6C9780917702882309F423CFAF
:104BD00081149104A104B10429F4C12ED02EE72C34
:104BE000F62CE8CE90E1C91A97E2D90AE108F1085B
:104BF000C818D908EA08FB08F7FE0DCFEECF83E509
:104C00000E940345882321F00E9457CB8C0102C0EB
:104C10000FEF10E080E50E940345882319F00E9401
:104C200057CB02C080E090E098010F3F110519F0CA
:104C300010F02FEF30E0892B09F046C73093FD0AC2
:104C40002093FC0A41C780E50E940345811105C0FD
:104C50001092FD0A1092FC0A37C70E9457CB892B8D
:104C600009F032C7F5CF269A2E9881E080937C0216
:104C700060E084E794E00E948F740E94B57424C7BA
:104C80000E9401590E94065D0E94CEC41092FD0A46
:104C90001092FC0A68EE73E080E090E00E947E6E65
:104CA000269A2E9A10927C0260E082E894E00E949C
:104CB0008F740E94B57408C781E08093870405C78C
:104CC00083E50E940345882359F00E943046609393
:104CD000CF027093D0028093D1029093D202F4C697
:104CE00088E50E94034581110C94B72E89E50E9446
:104CF000034581110C94B72E8AE50E94034581116A
:104D00000C94B72E85E40E94034581110C94B72EB4
:104D10000E94065D0E94CEC4D7C683E50E9403456B
:104D2000882309F4D1C60E94304660932D137093F6
:104D30002E1380932F1390933013C6C6F4018191E4
:104D40004F010E940345882309F464C0F3E03F1239
:104D500059C00E9468452B013C0120E030E040EA48
:104D600051E40E949EE087FF47C0A3019201D80151
:104D70006D917D918D919C910E9491D96B017C01E7
:104D80009B01AC016091290570912A0580912B054A
:104D900090912C050E9403E16093290570932A05E8
:104DA00080932B0590932C05A7019601F501608156
:104DB0007181828193810E9403E1D5016D937D937E
:104DC0008D939C9313972196EEADFFAD2197608153
:104DD0007181828193810E94A2E0A70196010E94C5
:104DE00003E10E9408DA2196AEADBFAD21976D9325
:104DF0007D938D939C931397F80140825182628238
:104E0000738208C00E946845D8016D937D938D938D
:104E10009C93139733940C5F1F4FB4E0AB0EB11CFF
:104E20002196EEADFFAD219734962196FFAFEEAF00
:104E30002197F4E03F1282CF0E94FC9645C6EEE82F
:104E4000F4E084918F010F5F1F4F882309F43CC663
:104E50000E947E48F801F5CF0E947D7F35C681E033
:104E60008093310280938A0230C60E942BBA2CC6EE
:104E700083E50E9403458823F9F00E94454582306E
:104E8000C8F0E0E7FBE184918F010F5F1F4F88239B
:104E900021F00E947E48F801F6CFECE6F5E084911F
:104EA0008F010F5F1F4F882309F40EC60E947E48B2
:104EB000F801F5CF813071F188E40E940345882321
:104EC00091F00E9445458A3A91053CF0843121E0F9
:104ED00092072CF083E191E002C08AEA90E090937F
:104EE000FF0A8093FE0A86E40E940345882309F4A2
:104EF000EBC50E9445458F3F910519F014F08FEFE7
:104F000090E097FF02C080E090E09093010B8093C7
:104F1000000BDAC588E40E940345882391F00E94C3
:104F200045458A3A91053CF0843131E093072CF0F5
:104F300083E191E002C08AEA90E09093030B8093B2
:104F4000020B86E40E940345882309F4BDC50E9434
:104F500045458F3F910519F014F08FEF90E097FFD2
:104F600002C080E090E09093050B8093040BACC5E9
:104F700088EC90E00E94584D8111A6C584E40E94FF
:104F80000345882309F4A0C50E94684511E020E08C
:104F900030E0A9010E949EE0811101C010E0109351
:104FA0003D05112359F10091820410E00E946845EB
:104FB000000F111F000F111FF801E75FFD4F608305
:104FC00071838283938320E030E0A901609109021C
:104FD00070910A0280910B0290910C020E949EE057
:104FE00081110CC080E090E0A0EEBFE38093090245
:104FF00090930A02A0930B02B0930C020E9429BE68
:1050000063C5E1E0EE2EE5E0FE2E00EE12E0F4E0F6
:10501000DF2ED00ED8018D918D010E94034588238B
:1050200049F00E9468450E9408DAF70160837183A5
:1050300082839383F4E0EF0EF11CD012EBCF0E9439
:10504000B49642C569E1E62E65E0F62E00EE12E068
:1050500074E0D72ED00ED8018D918D010E940345AA
:10506000882339F00E946845F70160837183828349
:105070009383F4E0EF0EF11CD012EDCF25C583E54C
:105080000E9403458823D9F00E946845AB01BC010A
:105090004093350550933605609337057093380576
:1050A0004093F9045093FA046093FB047093FC045A
:1050B00088EE95E00E942D4F8AE00E947E4880E5B0
:1050C0000E940345882399F00E946845AB01BC010A
:1050D0004093350550933605609337057093380536
:1050E0008BEC95E00E942D4F8AE00E947E4882E57D
:1050F0000E940345882399F00E946845AB01BC01DA
:105100004093FD045093FE046093FF0470930005E8
:105110008CEA95E00E942D4F8AE00E947E4884E54B
:105120000E940345882309F4CFC40E946845AB015F
:10513000BC014093F9045093FA046093FB0470930C
:10514000FC048EE895E00E942D4F8AE00E947E4884
:10515000BBC483E50E940345882351F00E94684543
:1051600060931505709316058093170590931805A5
:1051700084E50E940345882351F00E9468456093AE
:10518000110570931205809313059093140582E422
:105190000E940345882351F00E945D456093871269
:1051A000709388128093891290938A1288E50E94E6
:1051B0000345882351F00E94684560933105709340
:1051C000320580933305909334058AE50E940345A8
:1051D000882351F00E94684560932D0570932E0539
:1051E00080932F059093300585E40E940345882322
:1051F00009F46AC40E9468456093290570932A05E2
:1052000080932B0590932C055FC430EEA32E32E0E3
:10521000B32E44E2C42E4FE0D42E58EFE52E5CE0CE
:10522000F52E00E010E0D5018D915D010E9403454F
:10523000882311F10E9468452B013C01F701208170
:105240003181428153810E94A4D89B01AC01D601D7
:105250006D917D918D919C910E94A5D8F6016083FE
:10526000718382839383D7014D925D926D927C927C
:105270001397C8010E94B8440F5F1F4FB4E0CB0ED4
:10528000D11CE4E0EE0EF11C0330110561F60E9422
:10529000B8460E947D7F18C484918F010F5F1F4F15
:1052A000882321F00E947E48F801F6CF83E50E9412
:1052B0000345882341F00E94164591E0811101C009
:1052C00090E090938902E8E3F6E084918F010F5F0C
:1052D0001F4F882321F00E947E48F801F6CF80916D
:1052E0008902811103C0E4E3F6E002C0E0E3F6E0E6
:1052F00084918F010F5F1F4F882321F00E947E4809
:10530000F801F6CFE8E2F6E084918F010F5F1F4FBE
:10531000882321F00E947E48F801F6CF4091A21226
:105320005091A3126091A4127091A51286E296E0AA
:105330000E942D4F4091A6125091A7126091A81281
:105340007091A91283E296E00E942D4F4091AA121B
:105350005091AB126091AC127091AD1280E296E068
:105360000E942D4FE8E1F6E084918F010F5F1F4FFF
:10537000882321F00E947E48F801F6CF40917D02FB
:1053800050917E0260917F027091800286E196E0EA
:105390000E942D4F409181025091820260918302C0
:1053A0007091840283E196E00E942D4F4091850226
:1053B00050918602609187027091880280E196E0A8
:1053C0000E942D4F8AE00E947E487EC383E50E94A2
:1053D0000345882309F478C30E94454590937B02D6
:1053E00080937A0271C38DED90E00E94584D811137
:1053F0006BC383E50E940345882309F465C30091CC
:10540000820410E00E944545000F111FF801E85882
:10541000FD4F9183808358C380E50E940345882314
:1054200009F452C30E9445458C0183E50E9403455F
:10543000882321F00E9445457C0103C0EE24EA94B4
:10544000FE2CC7010196039708F03EC3E4EEF2E09C
:10545000819191918017910709F436C323E0E433D9
:10546000F207B1F717FD30C30E94065DD02E60E051
:10547000802F0E94426E3FEFE316F30631F0EA946C
:10548000EF2871F401E010E00DC0802F0E94AFD131
:1054900031E020E0892B09F030E0032F122F02C009
:1054A00000E010E08D2D0E94AFD18017910709F424
:1054B0000BC30E9474C1F6CF83E50E940345882385
:1054C00019F00E9457CB02C084E091E099A388A311
:1054D00080E50E940345882349F00E9457CB893814
:1054E00053E1950728F088E893E102C088EE93E045
:1054F0009A838983BE01605E7F4FCE0101960E9430
:105500004F92E2C285E40E940345811110C080E5FC
:105510000E940345882399F00E9468456093130216
:1055200070931402809315029093160208C00E9493
:105530004545181619065CF7E0E7FBE190C089E4E1
:105540000E940345882381F00E9468452CE933E5D9
:1055500049E45EE30E9403E160932D0270932E0202
:1055600080932F029093300284E40E9403458823A5
:1055700081F00E9468452CE933E549E45EE30E942E
:1055800091D9609317027093180280931902909337
:105590001A020E94A45CEEE4FEE184918F010F5F89
:1055A0001F4F882321F00E947E48F801F6CFE0E5E6
:1055B000F6E084918F010F5F1F4F882321F00E9436
:1055C0007E48F801F6CF6091130270911402809129
:1055D00015029091160242E00E94944DECE4F6E030
:1055E00084918F010F5F1F4F882321F00E947E4816
:1055F000F801F6CF2CE933E549E45EE360912D0232
:1056000070912E0280912F02909130020E9491D9C8
:1056100042E00E94944DE8E4F6E084918F010F5F30
:105620001F4F882321F00E947E48F801F6CF2CE915
:1056300033E549E45EE360911702709118028091AE
:10564000190290911A020E9403E142E00E94944DD7
:105650008AE00E947E4838C20E947E48F801849108
:105660008F010F5F1F4F8111F7CF00ED13E0D801BD
:105670008D918D01882309F489C80E947E48F7CF57
:1056800083E50E940345082F8823A1F00E94684506
:1056900060936F0270937002809371029093720214
:1056A00011E020E030E0A9010E949EE0811110E0AD
:1056B0001093861280E50E940345182F8823C1F0BD
:1056C00020E030E0A90160916F027091700280913A
:1056D0007102909172020E949EE0882331F00E9434
:1056E000164511E0811101C010E010938612ECC143
:1056F0000111EAC1EEE4FEE184918F010F5F1F4FBB
:10570000882321F00E947E48F801F6CF809186120E
:10571000811103C06CEC73E002C06EE674E089E6B0
:1057200096E00E94BE4920E030E040E05FE36091F7
:105730006F027091700280917102909172020E94CA
:10574000A5D80E9402DA88E596E00E94414DE4E582
:10575000F6E084918F010F5F1F4F882309F4B4C1D5
:105760000E947E48F801F5CF0E948480ADC10E945E
:10577000065DAAC180E00E946244A6C125964EAD96
:105780005FAD259744505D402D965FAF4EAF2D978E
:105790002596AEADBFAD25978D912596BFAFAEAF27
:1057A0002597882309F4B4C0F801E358FD4F208100
:1057B000318142815381F801EE55FD4E6081718146
:1057C000828193810E94A5D820E030E040E05FE331
:1057D0000E9403E19B01AC01F10160817181828132
:1057E00093810E94EDDA181634F4C80182559C4D5D
:1057F0000E94B24403C060E070E0CB01D101CD90C3
:10580000DD90ED90FC902196EEADFFAD219780806C
:105810009180A280B380A50194010E94A5D8F801CF
:10582000E451F34F20813181428153810E94A5D8F8
:105830009B01AC01C701B6010E94A4D82B013C0119
:1058400020E030E040EA51EC0E94EDDA18168CF5C9
:1058500020E030E040EA51E4C301B2010E949EE042
:1058600087FF27C0A3019201C501B4010E94A4D8FB
:105870002B013C01A50194010E94A4D89B01AC011D
:10588000C701B6010E94A5D8D1016D937D938D9378
:105890009C9313972196EEADFFAD219740825182E4
:1058A000628273822D968EAD9FAD2D970E94B84473
:1058B0002FC0E0E7FBE184918F010F5F1F4F88232A
:1058C00021F00E947E48F801F6CFEAE9F6E08491E3
:1058D0008F010F5F1F4F882321F00E947E48F8013F
:1058E000F6CF61E08CE896E00E948F740E944BB383
:1058F00088E290E09A83898388EC90E099A388A35A
:10590000BE016F5F7F4FCE0180960E944F92DCC038
:10591000F4E02F0E311C0C5F1F4F21962EAD3FADD2
:1059200021972C5F3F4F21963FAF2EAF21970C3030
:10593000110509F023CF0E94B8460E947D7F60E0E8
:105940008CE796E00E948F7483E992E099A388A384
:1059500008EC10E01A830983BE01605E7F4FCE0120
:1059600001960E944F928AEB92E099A388A31A8332
:105970000983BE01605E7F4FCE0101960E944F9267
:10598000A3C00E9445AFA0C00E947CAD9DC00E94F4
:1059900018AC9AC083E50E940345982F882329F00C
:1059A0000E94164591E0811190E0892F0E94A8BACB
:1059B0008BC0EEE4FEE184918F010F5F1F4F8823BF
:1059C00021F00E947E48F801F6CFEBECF6E08491DE
:1059D0008F010F5F1F4F882311F40C9495230E94B1
:1059E0007E48F801F4CFE3ECF6E084918F010F5F7D
:1059F0001F4F882321F00E947E48F801F6CF6CEEFD
:105A00007FEF8FEF9FEF0E94654A80E20E947E4801
:105A1000EBEBF6E084918F010F5F1F4F882321F09D
:105A20000E947E48F801F6CF64E170E080E090E0EB
:105A30000E94654A0C94C6234091390550913A055D
:105A400060913B0570913C0588EB96E00E942D4FDC
:105A50000C94C62381E08093120210921E0B83E502
:105A60000E940345882309F4ABC10E9416458111A9
:105A70002BC0A6C1F02E00938304EEE4FEE18491D6
:105A80008F010F5F1F4F882321F00E947E48F8018D
:105A9000F6CFE4EDF6E084918F010F5F1F4F88236E
:105AA00021F00E947E48F801F6CF6F2D70E080E073
:105AB00090E00E94654A8AE00E947E4805C080E02E
:105AC00004C08AE00E947E4881E010922813109260
:105AD0002713811130C00C94121484918F010F5F31
