:100000000C94052E0C94362E0C94362E0C94362E11
:100010000C94362E0C94362E0C94362E0C94362ED0
:100020000C94362E0C94362E0C94362E0C94362EC0
:100030000C94362E0C94362E0C94362E0C94362EB0
:100040000C94362E0D94F3060C94362E0C94362E0A
:100050000C94362E0C94362E0C94DAF30C946DE03E
:100060000C94362E0C9482D90C9478D90C94362E9C
:100070000C94362E0C94362E0C94362E0C94362E70
:100080000C94DC9B0C94362E0C94362E0C94362E4D
:100090000C94362E0C94362E0C94362E0C94362E50
:1000A0000C94362E0C94362E0C94AE9B0C94362E5B
:1000B0000C94362E0C94362E0C94362E0C94362E30
:1000C0000C94362E0C94362E0C94362E0C94919C57
:1000D0000C945B9C0C94362E0C94362E0C94362E7D
:1000E0000C94362E084AD73B3BCE016E84BCBFFD34
:1000F000C12F3D6C74319ABD56833DDA3D00C77FF8
:1001000011BED9E4BB4C3E916BAAAABE0000008090
:100110003F05A84CCDB2D44EB93836A9020C50B91F
:10012000918688083CA6AAAA2ABE000000803F0744
:10013000634236B79BD8A71A39685618AEBAAB5582
:100140008C1D3CB7CC5763BD6DEDFD753EF6177247
:1001500031BF000000803F08000000BE9224491219
:100160003EABAAAA2ABECDCCCC4C3E00000080BE3D
:10017000ABAAAAAA3E00000000BF000000803F001A
:1001800000000000084178D3BB4387D1133D190E0E
:100190003CC3BD4282AD2B3E68EC8276BED98FE176
:1001A000A93E4C80EFFFBE01C4FF7F3F000000006E
:1001B00000000D94B0310D94D8300C9414DA0D94E5
:1001C0009E310C94B4830D94F1310C9428DA0C9484
:1001D0001CDA0D9490440C944AE00D94FC400D946C
:1001E00009540C94F45B0D94DD300C94379D0D9400
:1001F00024310C94F05B0D945E440D94353E0C94C8
:10020000F7D50D94E43F0D94E8400C94559D0C9463
:100210003EDA0C942F9D0D94B1400C940DDA0C94A1
:10022000A8DE0D948C310D9473310D94A4440C947C
:10023000429D0D94C4310C945DD40C94E85D0D94F2
:1002400077440D9486440D9470410C9441DF0D94D5
:100250009F450D94F7300D94F3300D94FB300D94C1
:1002600012310D94EF3C0D9488400C94CF9C0C946B
:10027000FE9C0D94843E0C94BC5D0D948E450C94B4
:10028000AEDD0D949E360D94EF300D942A310C9412
:1002900018DA0D9482310D9408310D9474360C9453
:1002A000EBD50C9424DA0C94F0D50D94BA310D945E
:1002B0001C310C94239D0C940D9D0D94683E0C9460
:1002C000615E0D94FE300D9478310D9462460C946D
:1002D00033DA0D9496310D94B83E0D94DD310C94C3
:1002E0003B9D0D9455440C94AFD40D940E310C9459
:1002F000279D0C9446DA0C9480DF0C94CBDD0C9493
:1003000061DB0D942E440D9420310C94AF960D9426
:1003100004310C94295E0D9421420C94A15B0C9441
:10032000FED90D945D410C94339D0D942E310C94A7
:10033000C3DE0C9462DB0C944D9D0D94D3310D946F
:1003400005320C941C9D0C9464DE0C94EFD90D9432
:1003500042490D946E340D945B440C9464D40D9416
:10036000FB310C94C0D90D94E7310D94A6310D9456
:100370001B410D94C5400D94543F0D948F350D9441
:100380006B310D94B1440C94B4D40D941A400C9478
:1003900043DE0C942B9D0C9420DA0D9406380D94BA
:1003A000EB530C9453DF0D9416310C94DFDA0D945B
:1003B000D7380C942CDA0D94553A4E414E494E499B
:1003C0005459494E46CDCCCC3D0AD7233C17B7D122
:1003D0003877CC2B329595E6241FB14F0A000020C8
:1003E000410000C84200401C4620BCBE4CCA1B0E47
:1003F0005AAEC59D7400407A10F35A00A0724E1890
:10040000090010A5D4E80000E87648170000E40BC6
:1004100054020000CA9A3B000000E1F5050000808C
:10042000969800000040420F000000A086010000E6
:1004300000102700000000E8030000000064000036
:100440000000000A00000000000100000000002C75
:1004500076D888DC674F0823DFC1DFAE59E1B1B73A
:1004600096E5E3E453C63AE651997696E8E6C28407
:1004700026EB898C9B62ED407C6FFCEFBC9C9F401F
:10048000F2BAA56FA5F490055A2AF75C936B6CF944
:10049000676DC11BFCE0E40D47FEF520E6B500D01A
:1004A000ED902E0300943577050080841E0800002F
:1004B000204E0A000000C80C333333330F986E12FD
:1004C000831141EF8D2114893BE65516CFFEE6DB03
:1004D00018D1844B381BF77C1D901DA4BBE424204D
:1004E0003284725E228100C9F124ECA1E53D2743EC
:1004F0004F4D4D554E49434154494F4E004452597A
:1005000052554E004552524F525300494E464F00ED
:100510004543484F0020496E76616C6964206578D8
:10052000747275646572200047322F473320626110
:100530006420706172616D65746572730A00536C3A
:100540006565702E2E2E005A2050726F6265205005
:10055000617374204265640A005A2050726F6265AC
:1005600020506173742042656400205A3A200020B4
:10057000593A200042656420583A20004D6573685E
:1005800020706F696E74206F7574206F66207261C1
:100590006E67650A004D302053746F70004D312036
:1005A00053746F7000436F6E74696E756500436CB1
:1005B00069636B20746F20526573756D652E2E2EE6
:1005C000004E6F204D6F76652E00456E6420666983
:1005D0006C65206C6973740A00426567696E2066F9
:1005E000696C65206C6973740A004E6F206D6564D8
:1005F00069610A00526573756D696E672053440026
:10060000286E6F2066696C65290043757272656E8D
:10061000742066696C653A20005072696E742074AB
:10062000696D653A20000A53746174733A20466913
:100630006C616D656E7420757365643A20002C20C2
:100640004C6F6E67657374206A6F623A2000546F56
:1006500074616C2074696D653A2000537461747321
:100660003A20002C204661696C65643A20002C20F9
:1006700046696E69736865643A20005072696E74E9
:10068000733A200053746174733A2000436F6F6CA7
:10069000696E672E2E2E0048656174696E672E2E76
:1006A0002E0045202553006F6B006F666600100515
:1006B0000B050405FD04EF0444454255473A004D3F
:1006C00031313320530042656420436F6F6C696E93
:1006D000672E2E2E004265642048656174696E673E
:1006E0002E2E2E00544D3344203130532050726F43
:1006F000204F46462E002F2F002052004163636595
:100700006C65726174696F6E3A2050004D323036FC
:1007100020580046523A0020466C6F773A20003A43
:10072000200020536572766F2000206F7574206F53
:10073000662072616E67650A00536572766F2000ED
:1007400020643A0020693A0020703A00496E7661D0
:100750006C69642065787472756465720A0020643F
:100760003A0020693A0020703A0064697300656EAF
:100770000043290A0061626C656420286D696E205F
:1007800074656D702000436F6C64206578747275B9
:10079000646573206172652000504944204175747E
:1007A0006F74756E6500504944204175746F74759F
:1007B0006E65206661696C65642120426164206811
:1007C00065617465722069640A0046696C616D65D3
:1007D0006E742072756E6F75742064697374616EC7
:1007E000636520286D6D293A200046696C616D654E
:1007F0006E742072756E6F757420004D657368207D
:10080000706F696E74206F7574206F662072616EF0
:1008100067650A004D34323120696E636F7272650C
:10082000637420706172616D6574657220757361A7
:1008300067650A004F666673657473204170706C5B
:10084000696564004572723A20546F6F2066617268
:100850002100546F6F206661722066726F6D207286
:1008600065666572656E636520706F696E740A00F7
:10087000454550524F4D204F4B0A00506F776572DF
:100880002D6C6F7373207265636F766572792000CB
:100890004D383400446F6E65207072696E74696EF5
:1008A000672066696C650A004D3737004D333100AB
:1008B0004361703A004D4541545041434B00434F12
:1008C0004F4C45525F54454D504552415455524549
:1008D000004348414D4245525F54454D50455241B9
:1008E0005455524500424142595354455050494E87
:1008F000470041524353004D4F54494F4E5F4D4FB7
:1009000044455300544845524D414C5F50524F545A
:10091000454354494F4E004C4F4E475F46494C4566
:100920004E414D45004155544F5245504F52545F32
:1009300053445F5354415455530053445F575249F5
:10094000544500524550454154005344434152449C
:100950000050524F4D50545F535550504F52540019
:10096000454D455247454E43595F504152534552BC
:1009700000434153455F4C494748545F4252494701
:1009800048544E45535300544F47474C455F4C49DC
:100990004748545300534F4654574152455F504FB8
:1009A000574552004255494C445F50455243454ECD
:1009B00054004C4556454C494E475F444154410014
:1009C0005A5F50524F42450052554E4F55540041C8
:1009D00055544F4C4556454C005052494E545F4A71
:1009E0004F420050524F4752455353004155544FC8
:1009F0005245504F52545F54454D5000564F4C5540
:100A00004D455452494300454550524F4D004249CF
:100A10004E4152595F46494C455F5452414E5346F0
:100A200045520053455249414C5F584F4E5F584F15
:100A30004646004649524D574152455F4E414D454D
:100A40003A4D61726C696E20322E302E375F4457FA
:100A5000372E3320544D33442053534D44425520B8
:100A60002841707220323420323032312031363A0F
:100A700031303A33392920534F555243455F434F64
:100A800044455F55524C3A68747470733A2F2F671F
:100A900069746875622E636F6D2F496E73616E693C
:100AA00074794175746F6D6174696F6E2F4D6172E9
:100AB0006C696E2F747265652F437265616C697421
:100AC000794477696E5F322E302050524F544F4335
:100AD0004F4C5F56455253494F4E3A312E30204DC0
:100AE000414348494E455F545950453A544D33446B
:100AF000203130532050726F204558545255444590
:100B0000525F434F554E543A3120555549443A634C
:100B1000656465326132662D343161322D3437348B
:100B2000382D396231322D633535633632663336CE
:100B30003766660A0050726F6265204F666673659D
:100B400074205A0050726F6265204F666673657438
:100B5000205A00290A0020746F20003F5A206F7528
:100B600074206F662072616E6765202800290A0074
:100B700020746F20003F59206F7574206F662072BB
:100B8000616E676520282D00290A0020746F2000FF
:100B90003F58206F7574206F662072616E67652004
:100BA000282D0050726F6265204F66667365742051
:100BB000580043616E6E6F74206F70656E207375A0
:100BC0006264697220002569730025696D202569BA
:100BD00073002569682025696D20256973002569E2
:100BE00064202569682025696D20256973002569C1
:100BF0007920256964202569682025696D2025698B
:100C000073003D3D4477696E20496E697420436FDF
:100C10006D706C6574653D3D002A2A2A4E6F7A7AA4
:100C20006C6554656D705374617475735B325D20CF
:100C30003D003D3D48656174696E6720446F6E6597
:100C4000204368616E67652046696C616D656E74EE
:100C50003D3D002020737461727470726F6772651D
:100C6000737320003D3D7761697477617920353D6C
:100C70003D003D3D7761697477617920343D3D00E9
:100C80003D3D7761697477617920333D3D003D3D9D
:100C90007761697477617920313D3D003D3D6F6E2C
:100CA0005072696E7454696D657253746F707065BB
:100CB000643D3D003D3D6F6E466163746F727952D5
:100CC000657365743D3D00270A0A00002720270050
:100CD0002027002D006E6F74696669636174696F07
:100CE0006E200063616E63656C005072696E7420E3
:100CF00041626F72746564004469736D6973730057
:100D000055492041626F7274656400726573756D38
:100D100065004D3234002A2A2A43506C61792054F0
:100D20006F6E652A2A2A003D3D6F6E5072696E749F
:100D300054696D65725061757365643D3D00486F1F
:100D40006D696E67204661696C6564006F70656EE1
:100D500000545249474745524544003A20006669CD
:100D60006C616D656E74007A5F6D696E00795F6DA0
:100D7000696E00785F6D696E005265706F7274699C
:100D80006E6720656E6473746F7020737461747520
:100D9000730A0020746F6F206C6F6E672065787423
:100DA000727573696F6E2070726576656E746564B6
:100DB0000A0020636F6C6420657874727573696FC4
:100DC0006E2070726576656E7465640A00486F6D9A
:100DD0006520257325732573204669727374005747
:100DE00061726E696E673A20486F6D696E67204266
:100DF000756D702044697669736F72203C20310AEA
:100E000000020204000000000000000000000000DA
:100E100000809D4300009B430000C8430000004148
:100E20000000004100000040FFFFFF000000010043
:100E300000000100008000555555000000400033BF
:100E4000333300AAAA2A004992240000002000C7D8
:100E5000711C0099991900D1451700555515003B93
:100E6000B113002449120011111100000010000FED
:100E70000F0F00E3380E0043790D00CCCC0C00C3FB
:100E8000300C00E8A20B0064210B00AAAA0A007033
:100E90003D0A009DD80900427B090092240900DC2C
:100EA000D30800888808001042080000000800F0FD
:100EB000C107008787070075500700711C07003EB7
:100EC000EB0600A1BC06006990060066660600708D
:100ED0003E06006118060017F4050074D105005B9A
:100EE000B00500B290050062720500555505007806
:100EF000390500B81E0500050505004EEC04008705
:100F0000D40400A1BD040090A7040049920400C1CC
:100F10007D0400EE690400C7560400444404005CEC
:100F20003204000821040041100400000004003FC6
:100F3000F00300F8E0030026D20300C3C30300CC93
:100F4000B503003AA803000A9B0300388E0300C0D3
:100F50008103009F750300D0690300505E03001DEC
:100F600053030034480300913D030033330300165C
:100F7000290300381F030097150300300C030003FA
:100F80000303000BFA020049F10200BAE802005C18
:100F9000E002002DD802002DD0020059C80200B096
:100FA000C0020031B90200DAB10200AAAA0200A010
:100FB000A30200BC9C0200FA9502005C8F0200DFD5
:100FC00088020082820200457C0200277602002708
:100FD000700200436A02007C640200D05E02003F9F
:100FE000590200C8530200FFFDFCFAF8F6F4F2F0D3
:100FF000EEECEAE9E7E5E3E1E0DEDCDAD9D7D5D4E7
:10100000D2D0CFCDCBCAC8C7C5C3C2C0BFBDBCBA82
:10101000B9B7B6B4B3B2B0AFADACAAA9A8A6A5A4EF
:10102000A2A1A09E9D9C9A99989795949392908F37
:101030008E8D8B8A8988878684838281807F7E7D5E
:101040007B7A797877767574737271706F6E6D6C68
:101050006B6A696867666564636261605F5E5D5C58
:101060005B5A5958585756555453525150504F4E39
:101070004D4C4B4A4A494847464645444342424103
:10108000403F3E3E3D3C3B3B3A39383837363535BC
:10109000343332323130302F2E2E2D2C2B2B2A2967
:1010A0002928272726252524232322212120201F04
:1010B0001E1E1D1C1C1B1B1A191918181716161595
:1010C0001514131312121111100F0F0E0E0D0D0C1B
:1010D0000C0B0A0A09090808070706060505040497
:1010E000030302020100003D3D6F6E5072696E7491
:1010F00054696D6572537461727465643D3D00009E
:10110000809D4300009B430000C843000000000096
:10111000000000000000003D3D6F6E53746F72656B
:1011200053657474696E67733D3D003D3D6F6E435A
:101130006F6E66696775726174696F6E53746F72F2
:10114000655772697474656E3D3D005365747469CA
:101150006E67732053746F72656400363726033CE4
:101160003D380E2E303E121A1C180AFF430907089C
:1011700044000124F404D9201BC40C5C0E9804C460
:10118000095F0265077101F405F900FB04B300482B
:10119000048700C10369005803550003034500BEDE
:1011A000023A008402310053022A00290225000479
:1011B000022000E4011C00C8011900AF01170098CB
:1011C000011400840113007101100061011000512D
:1011D000010E0043010D0036010B002B010B002016
:1011E000010B00150109000C01090003010800FBB7
:1011F000000800F3000800EB000700E4000600DE32
:10120000000600D8000600D2000600CC000500C78A
:10121000000500C2000500BD000400B9000400B5CF
:10122000000400B1000400AD000400A9000400A502
:10123000000300A20003009F0004009B000300982D
:101240000003009500020093000300900003008D4E
:101250000002008B00030088000200860002008468
:10126000000300810002007F0002007D0002007B7D
:10127000000200790002007700010076000200748D
:1012800000020072000100710002006F0002006D98
:101290000001006C0002006A0001006900020067A2
:1012A00000010066000100650001006400020062A8
:1012B00000010061000100600001005F0002005DAC
:1012C0000001005C0001005B0001005A00010059B0
:1012D00000010058000100570001005600010055B0
:1012E00000010054000100530000005300010052AF
:1012F00000010051000100500001004F0001004EAC
:101300000000004E0001004D0001004C0001004BA8
:101310000000004B0001004A0001004900010048A4
:1013200000000048000100470001004600000046A0
:101330000001004500000045000100440001004399
:101340000000004300010042000000420001004193
:1013500000000041000100400001003F0000003F8C
:101360000001003E0000003E0001003D0000003D85
:101370000001003C0000003C0000003C0001003B7C
:101380000000003B0001003A0000003A0001003973
:10139000000000390001003800000038000000386B
:1013A0000001003700000037000100360000003661
:1013B0000000003600010035000000350000003557
:1013C000000100340000003400000034000100334C
:1013D0000000003300000033000100320000003242
:1013E0000000003200010031000000310000003137
:1013F0000001003000000030000000300001002F2C
:101400000000002F0000002F0000002F0001002E20
:101410000000002E0000002E0001002D0000002D15
:101420000000002D0000002D0001002C0000002C09
:101430000000002C0000002C0001002B0000002BFD
:101440000000002B0000002B0001002A0000002AF1
:101450000000002A0000002A0001002900000029E5
:1014600000000029000000290000002900010028D8
:1014700000000028000000280000002800000028CC
:1014800000010027000000270000002700000027BF
:1014900000000027000100260000002600000026B2
:1014A00000000026000000260001002500000025A5
:1014B0000000002500000025000000250000002598
:1014C000000100240000002400000024000000248B
:1014D000000000240001002300000023000000237E
:1014E0000000002300000023000000230000002370
:1014F0000001002200000022000000220000002263
:101500000000002200000022000100210000002154
:101510000000002100000021000000210000002147
:101520000000002100010020000000200000002039
:10153000000000200000002000000020000000202B
:10154000000000200001001F0000001F0000001F1D
:101550000000001F0000001F0000001F0000001F0F
:101560000001001E0000001E0000001E0000001E02
:1015700000000024F4D43050C38E20C2A240178251
:101580008B7011127A910D816CD90AA861E108C79C
:10159000586607615143061E4B5D05C145A7041AF5
:1015A000411104093D9803713931034036DB02656E
:1015B000339102D4305402802E1D02632CEE01754B
:1015C0002AC501B028A001102781018F2564012BB5
:1015D000244B01E0223401AC211F018D200D01803C
:1015E0001FFC00841EED00971DDF00B81CD200E632
:1015F0001BC600201BBC00641AB200B219A8000A66
:1016000019A0006A189900D117910040178B00B5F6
:1016100016840031167E00B31579003A157300C7A1
:10162000146F0058146A00EE1366008813630025D7
:10163000135E00C7125B006C12570015125400C1F4
:1016400011510070114F0021114B00D61049008D2F
:101650001047004610440002104200C00F400080B6
:101660000F3E00420F3C00060F3B00CB0E380093AC
:101670000E37005C0E3500270E3400F30D3200C12A
:101680000D3100900D3000600D2E00320D2D000543
:101690000D2C00D90C2B00AE0C2900850C29005C08
:1016A0000C2700350C27000E0C2600E80B2400C484
:1016B0000B2400A00B23007D0B23005A0B210039C3
:1016C0000B2100180B2000F80A1F00D90A1E00BBCE
:1016D0000A1E009D0A1D00800A1D00630A1C0047A7
:1016E0000A1B002C0A1B00110A1A00F7091A00DD58
:1016F000091900C4091900AB091900920917007BE8
:10170000091800630917004C091600360916002055
:101710000916000A091500F5081500E0081400CCA8
:10172000081400B8081400A4081400900813007DE1
:101730000812006B08130058081200460812003403
:10174000081100230811001208110001081100F00F
:10175000071000E0071000D0071000C0071000B00D
:10176000070F00A107100091070E0083070F0074F8
:10177000070F0065070E0057070E0049070E003BD4
:10178000070D002E070E0020070D0013070D0006A1
:10179000070D00F9060C00ED060D00E0060C00D464
:1017A000060C00C8060C00BC060C00B0060C00A419
:1017B000060B0099060C008D060B0082060B0077C5
:1017C000060B006C060B0061060A0057060B004C66
:1017D000060A0042060A0038060A002E060A0024FD
:1017E000060A001A060A001006090007060A00FD8C
:1017F000050900F4050900EB050900E2050900D917
:10180000050900D0050900C7050900BE050900B596
:10181000050800AD050800A50509009C0508009411
:101820000508008C050800840508007C0508007484
:101830000508006C050700650508005D05070056F2
:101840000508004E05070047050700400508003859
:10185000050700310507002A050700230507001CBE
:10186000050600160507000F05070008050600021B
:10187000050700FB040600F5040700EE040600E877
:10188000040600E2040700DB040600D5040600CFCE
:10189000040600C9040600C3040600BD040600B720
:1018A000040600B1040500AC040600A6040600A06E
:1018B0000405009B04060095040500900406008AB8
:1018C00004050085040500800406007A04050075FF
:1018D000040500700405006B040500660405006142
:1018E0000405005C04050057040500520405004D82
:1018F00004050048040500430405003E0404003AC2
:1019000004050035040500300404002C04050027FC
:10191000040400230405001E0404001A0404001635
:10192000040500110404000D04040009040500046A
:1019300004040000040400FC030400F8030400F4A1
:10194000030400F0030400EC030400E8030400E4D3
:10195000030400E0030400DC030400D8030400D403
:10196000030400D0030400CC030400C8030300C533
:10197000030300726F746174696F6E206D6174721D
:1019800069783A0A0024F404D9201BC40C5C0E9830
:1019900004C4095F0265077101F405F900FB04B393
:1019A0000048048700C1036900580355000303453C
:1019B00000BE023A008402310053022A00290225A7
:1019C0000004022000E4011C00C8011900AF011747
:1019D00000980114008401130071011000610110CE
:1019E0000051010E0043010D0036010B002B010BCD
:1019F0000020010B00150109000C0109000301087A
:101A000000FB000800F3000800EB000700E40006FC
:101A100000DE000600D8000600D2000600CC00055B
:101A200000C7000500C2000500BD000400B90004A5
:101A300000B5000400B1000400AD000400A90004DA
:101A400000A5000300A20003009F0004009B000308
:101A5000009800030095000200930003009000032B
:101A6000008D0002008B0003008800020086000247
:101A70000084000300810002007F0002007D00025C
:101A8000007B00020079000200770001007600026E
:101A9000007400020072000100710002006F000279
:101AA000006D0001006C0002006A00010069000284
:101AB000006700010066000100650001006400028B
:101AC000006200010061000100600001005F00028F
:101AD000005D0001005C0001005B0001005A000194
:101AE0000059000100580001005700010056000194
:101AF0000055000100540001005300000053000194
:101B0000005200010051000100500001004F00018F
:101B1000004E0000004E0001004D0001004C00018D
:101B2000004B0000004B0001004A00010049000189
:101B30000048000000480001004700010046000086
:101B4000004600010045000000450001004400017E
:101B50000043000000430001004200000042000179
:101B6000004100000041000100400001003F000072
:101B7000003F0001003E0000003E0001003D00006B
:101B8000003D0001003C0000003C0000003C000162
:101B9000003B0000003B0001003A0000003A000159
:101BA0000039000000390001003800000038000052
:101BB0000038000100370000003700010036000047
:101BC000003600000036000100350000003500003E
:101BD0000035000100340000003400000034000132
:101BE0000033000000330000003300010032000029
:101BF000003200000032000100310000003100001E
:101C00000031000100300000003000000030000111
:101C1000002F0000002F0000002F0000002F000107
:101C2000002E0000002E0000002E0001002D0000FC
:101C3000002D0000002D0000002D0001002C0000F0
:101C4000002C0000002C0000002C0001002B0000E4
:101C5000002B0000002B0000002B0001002A0000D8
:101C6000002A0000002A0000002A000100290000CC
:101C700000290000002900000029000000290001BF
:101C800000280000002800000028000000280000B4
:101C900000280001002700000027000000270000A6
:101CA0000027000000270001002600000026000099
:101CB000002600000026000000260001002500008C
:101CC0000025000000250000002500000025000080
:101CD0000025000100240000002400000024000072
:101CE0000024000000240001002300000023000065
:101CF0000023000000230000002300000023000058
:101D00000023000100220000002200000022000049
:101D1000002200000022000000220001002100003B
:101D2000002100000021000000210000002100002F
:101D30000021000000210001002000000020000020
:101D40000020000000200000002000000020000013
:101D50000020000000200001001F0000001F000004
:101D6000001F0000001F0000001F0000001F0000F7
:101D7000001F0001001E0000001E0000001E0000E9
:101D8000001E00000024F4D43050C38E20C2A240B4
:101D900017828B7011127A910D816CD90AA861E1BA
:101DA00008C7586607615143061E4B5D05C145A72C
:101DB000041A411104093D9803713931034036DB9F
:101DC0000265339102D4305402802E1D02632CEE42
:101DD00001752AC501B028A001102781018F256453
:101DE000012B244B01E0223401AC211F018D200D79
:101DF00001801FFC00841EED00971DDF00B81CD27F
:101E000000E61BC600201BBC00641AB200B219A871
:101E1000000A19A0006A189900D117910040178B89
:101E200000B516840031167E00B31579003A15739B
:101E300000C7146F0058146A00EE1366008813631D
:101E40000025135E00C7125B006C12570015125478
:101E500000C111510070114F0021114B00D61049E3
:101E6000008D1047004610440002104200C00F4091
:101E700000800F3E00420F3C00060F3B00CB0E38A7
:101E800000930E37005C0E3500270E3400F30D3240
:101E900000C10D3100900D3000600D2E00320D2D6F
:101EA00000050D2C00D90C2B00AE0C2900850C2947
:101EB000005C0C2700350C27000E0C2600E80B24D4
:101EC00000C40B2400A00B23007D0B23005A0B2120
:101ED00000390B2100180B2000F80A1F00D90A1E38
:101EE00000BB0A1E009D0A1D00800A1D00630A1C1B
:101EF00000470A1B002C0A1B00110A1A00F7091AD6
:101F000000DD091900C4091900AB0919009209176D
:101F1000007B091800630917004C091600360916E2
:101F200000200916000A091500F5081500E008143C
:101F300000CC081400B8081400A40814009008137A
:101F4000007D0812006B08130058081200460812A2
:101F500000340811002308110012081100010811B3
:101F600000F0071000E0071000D0071000C00710B5
:101F700000B0070F00A107100091070E0083070FA4
:101F80000074070F0065070E0057070E0049070E83
:101F9000003B070D002E070E0020070D0013070D54
:101FA0000006070D00F9060C00ED060D00E0060C1A
:101FB00000D4060C00C8060C00BC060C00B0060CD1
:101FC00000A4060B0099060C008D060B0082060B80
:101FD0000077060B006C060B0061060A0057060B23
:101FE000004C060A0042060A0038060A002E060ABD
:101FF0000024060A001A060A001006090007060A4D
:1020000000FD050900F4050900EB050900E20509DA
:1020100000D9050900D0050900C7050900BE05095A
:1020200000B5050800AD050800A50509009C0508D8
:1020300000940508008C050800840508007C05084C
:1020400000740508006C050700650508005D0507BC
:1020500000560508004E0507004705070040050823
:102060000038050700310507002A0507002305078A
:10207000001C050600160507000F050700080506E9
:102080000002050700FB040600F5040700EE040645
:1020900000E8040600E2040700DB040600D504069D
:1020A00000CF040600C9040600C3040600BD0406F0
:1020B00000B7040600B1040500AC040600A604063F
:1020C00000A00405009B040600950405009004068A
:1020D000008A04050085040500800406007A0405D2
:1020E0000075040500700405006B04050066040516
:1020F00000610405005C0405005704050052040556
:10210000004D04050048040500430405003E040496
:10211000003A04050035040500300404002C0405D1
:102120000027040400230405001E0404001A04040C
:102130000016040500110404000D04040009040540
:10214000000404040000040400FC030400F8030479
:1021500000F4030400F0030400EC030400E80304AB
:1021600000E4030400E0030400DC030400D80304DB
:1021700000D4030400D0030400CC030400C803030C
:1021800000C503030024F404D9201BC40C5C0E9882
:1021900004C4095F0265077101F405F900FB04B38B
:1021A0000048048700C10369005803550003034534
:1021B00000BE023A008402310053022A002902259F
:1021C0000004022000E4011C00C8011900AF01173F
:1021D00000980114008401130071011000610110C6
:1021E0000051010E0043010D0036010B002B010BC5
:1021F0000020010B00150109000C01090003010872
:1022000000FB000800F3000800EB000700E40006F4
:1022100000DE000600D8000600D2000600CC000553
:1022200000C7000500C2000500BD000400B900049D
:1022300000B5000400B1000400AD000400A90004D2
:1022400000A5000300A20003009F0004009B000300
:102250000098000300950002009300030090000323
:10226000008D0002008B000300880002008600023F
:102270000084000300810002007F0002007D000254
:10228000007B000200790002007700010076000266
:10229000007400020072000100710002006F000271
:1022A000006D0001006C0002006A0001006900027C
:1022B0000067000100660001006500010064000283
:1022C000006200010061000100600001005F000287
:1022D000005D0001005C0001005B0001005A00018C
:1022E000005900010058000100570001005600018C
:1022F000005500010054000100530000005300018C
:10230000005200010051000100500001004F000187
:10231000004E0000004E0001004D0001004C000185
:10232000004B0000004B0001004A00010049000181
:10233000004800000048000100470001004600007E
:102340000046000100450000004500010044000176
:102350000043000000430001004200000042000171
:10236000004100000041000100400001003F00006A
:10237000003F0001003E0000003E0001003D000063
:10238000003D0001003C0000003C0000003C00015A
:10239000003B0000003B0001003A0000003A000151
:1023A000003900000039000100380000003800004A
:1023B000003800010037000000370001003600003F
:1023C0000036000000360001003500000035000036
:1023D000003500010034000000340000003400012A
:1023E0000033000000330000003300010032000021
:1023F0000032000000320001003100000031000016
:102400000031000100300000003000000030000109
:10241000002F0000002F0000002F0000002F0001FF
:10242000002E0000002E0000002E0001002D0000F4
:10243000002D0000002D0000002D0001002C0000E8
:10244000002C0000002C0000002C0001002B0000DC
:10245000002B0000002B0000002B0001002A0000D0
:10246000002A0000002A0000002A000100290000C4
:1024700000290000002900000029000000290001B7
:1024800000280000002800000028000000280000AC
:10249000002800010027000000270000002700009E
:1024A0000027000000270001002600000026000091
:1024B0000026000000260000002600010025000084
:1024C0000025000000250000002500000025000078
:1024D000002500010024000000240000002400006A
:1024E000002400000024000100230000002300005D
:1024F0000023000000230000002300000023000050
:102500000023000100220000002200000022000041
:102510000022000000220000002200010021000033
:102520000021000000210000002100000021000027
:102530000021000000210001002000000020000018
:10254000002000000020000000200000002000000B
:102550000020000000200001001F0000001F0000FC
:10256000001F0000001F0000001F0000001F0000EF
:10257000001F0001001E0000001E0000001E0000E1
:10258000001E00000024F4D43050C38E20C2A240AC
:1025900017828B7011127A910D816CD90AA861E1B2
:1025A00008C7586607615143061E4B5D05C145A724
:1025B000041A411104093D9803713931034036DB97
:1025C0000265339102D4305402802E1D02632CEE3A
:1025D00001752AC501B028A001102781018F25644B
:1025E000012B244B01E0223401AC211F018D200D71
:1025F00001801FFC00841EED00971DDF00B81CD277
:1026000000E61BC600201BBC00641AB200B219A869
:10261000000A19A0006A189900D117910040178B81
:1026200000B516840031167E00B31579003A157393
:1026300000C7146F0058146A00EE13660088136315
:102640000025135E00C7125B006C12570015125470
:1026500000C111510070114F0021114B00D61049DB
:10266000008D1047004610440002104200C00F4089
:1026700000800F3E00420F3C00060F3B00CB0E389F
:1026800000930E37005C0E3500270E3400F30D3238
:1026900000C10D3100900D3000600D2E00320D2D67
:1026A00000050D2C00D90C2B00AE0C2900850C293F
:1026B000005C0C2700350C27000E0C2600E80B24CC
:1026C00000C40B2400A00B23007D0B23005A0B2118
:1026D00000390B2100180B2000F80A1F00D90A1E30
:1026E00000BB0A1E009D0A1D00800A1D00630A1C13
:1026F00000470A1B002C0A1B00110A1A00F7091ACE
:1027000000DD091900C4091900AB09190092091765
:10271000007B091800630917004C091600360916DA
:1027200000200916000A091500F5081500E0081434
:1027300000CC081400B8081400A408140090081372
:10274000007D0812006B081300580812004608129A
:1027500000340811002308110012081100010811AB
:1027600000F0071000E0071000D0071000C00710AD
:1027700000B0070F00A107100091070E0083070F9C
:102780000074070F0065070E0057070E0049070E7B
:10279000003B070D002E070E0020070D0013070D4C
:1027A0000006070D00F9060C00ED060D00E0060C12
:1027B00000D4060C00C8060C00BC060C00B0060CC9
:1027C00000A4060B0099060C008D060B0082060B78
:1027D0000077060B006C060B0061060A0057060B1B
:1027E000004C060A0042060A0038060A002E060AB5
:1027F0000024060A001A060A001006090007060A45
:1028000000FD050900F4050900EB050900E20509D2
:1028100000D9050900D0050900C7050900BE050952
:1028200000B5050800AD050800A50509009C0508D0
:1028300000940508008C050800840508007C050844
:1028400000740508006C050700650508005D0507B4
:1028500000560508004E050700470507004005081B
:102860000038050700310507002A05070023050782
:10287000001C050600160507000F050700080506E1
:102880000002050700FB040600F5040700EE04063D
:1028900000E8040600E2040700DB040600D5040695
:1028A00000CF040600C9040600C3040600BD0406E8
:1028B00000B7040600B1040500AC040600A6040637
:1028C00000A00405009B0406009504050090040682
:1028D000008A04050085040500800406007A0405CA
:1028E0000075040500700405006B0405006604050E
:1028F00000610405005C040500570405005204054E
:10290000004D04050048040500430405003E04048E
:10291000003A04050035040500300404002C0405C9
:102920000027040400230405001E0404001A040404
:102930000016040500110404000D04040009040538
:10294000000404040000040400FC030400F8030471
:1029500000F4030400F0030400EC030400E80304A3
:1029600000E4030400E0030400DC030400D80304D3
:1029700000D4030400D0030400CC030400C8030304
:1029800000C50303001000C90210012C0140012200
:102990000170011801B0010E01F00104015002FAAA
:1029A00000B002F0003003E600D003DC009004D257
:1029B000007005C800A006BE000008B400B009AA57
:1029C00000D00BA000600E960060118C00001582F4
:1029D0000020197800C01D6E00A0226400B0275AA4
:1029E00000902C500000314600E0343C001038329A
:1029F00000903A2800603C1E00A03D1400803E0A72
:102A000000203F00006001F4017001EA019001E044
:102A100001B001D601D001CC010002C2013002B8E0
:102A2000016002AE019002A401D0029A012003903D
:102A30000170038601C0037C0130047201A00468A8
:102A40000120055E01B005540160064A01200740DF
:102A500001F0073601F0082C01100A2201500B1872
:102A600001C00C0E01500E04013010FA002012F0CB
:102A7000005014E600C016DC007019D200501CC8CB
:102A800000501FBE007022B400B025AA00F028A09C
:102A900000202C9600302F8C0010328200A0347859
:102AA00000F0366E00E0386400803A5A00403B5532
:102AB00000E03B5000F03C4600C03D3C00603E3230
:102AC00000E03E2800303F1E00503F1900703F14C8
:102AD00000A03F0A00C03F0000D03FF6FFE03FECFF
:102AE000FF5A5F6D6F76655F636F6D700A0024F447
:102AF00004D9201BC40C5C0E9804C4095F0265074E
:102B00007101F405F900FB04B30048048700C10318
:102B100069005803550003034500BE023A008402D1
:102B2000310053022A002902250004022000E4019A
:102B30001C00C8011900AF0117009801140084019E
:102B40001300710110006101100051010E004301DA
:102B50000D0036010B002B010B0020010B001501AD
:102B600009000C01090003010800FB000800F30044
:102B70000800EB000700E4000600DE000600D800B5
:102B80000600D2000600CC000500C7000500C20008
:102B90000500BD000400B9000400B5000400B10048
:102BA0000400AD000400A9000400A5000300A20079
:102BB00003009F0004009B000300980003009500A1
:102BC000020093000300900003008D0002008B00C0
:102BD00003008800020086000200840003008100D8
:102BE00002007F0002007D0002007B0002007900ED
:102BF00002007700010076000200740002007200FB
:102C00000100710002006F0002006D0001006C0005
:102C100002006A000100690002006700010066000E
:102C20000100650001006400020062000100610013
:102C30000100600001005F0002005D0001005C0017
:102C400001005B0001005A0001005900010058001A
:102C5000010057000100560001005500010054001A
:102C60000100530000005300010052000100510018
:102C70000100500001004F0001004E0000004E0016
:102C800001004D0001004C0001004B0000004B0012
:102C900001004A000100490001004800000048000E
:102CA0000100470001004600000046000100450009
:102CB0000000450001004400010043000000430003
:102CC00001004200000042000100410000004100FC
:102CD0000100400001003F0000003F0001003E00F5
:102CE00000003E0001003D0000003D0001003C00EE
:102CF00000003C0000003C0001003B0000003B00E5
:102D000001003A0000003A000100390000003900DB
:102D100001003800000038000000380001003700D2
:102D200000003700010036000000360000003600C9
:102D300001003500000035000000350001003400BE
:102D400000003400000034000100330000003300B4
:102D500000003300010032000000320000003200A9
:102D6000010031000000310000003100010030009E
:102D7000000030000000300001002F0000002F0094
:102D800000002F0000002F0001002E0000002E0088
:102D900000002E0001002D0000002D0000002D007D
:102DA00000002D0001002C0000002C0000002C0071
:102DB00000002C0001002B0000002B0000002B0065
:102DC00000002B0001002A0000002A0000002A0059
:102DD00000002A000100290000002900000029004D
:102DE0000000290000002900010028000000280040
:102DF0000000280000002800000028000100270033
:102E00000000270000002700000027000000270026
:102E10000100260000002600000026000000260019
:102E2000000026000100250000002500000025000C
:102E300000002500000025000000250001002400FE
:102E400000002400000024000000240000002400F2
:102E500001002300000023000000230000002300E5
:102E600000002300000023000000230001002200D6
:102E700000002200000022000000220000002200CA
:102E800000002200010021000000210000002100BC
:102E900000002100000021000000210000002100AE
:102EA00001002000000020000000200000002000A1
:102EB0000000200000002000000020000000200092
:102EC00001001F0000001F0000001F0000001F0085
:102ED00000001F0000001F0000001F0001001E0076
:102EE00000001E0000001E0000001E00000024F470
:102EF000D43050C38E20C2A24017828B7011127A38
:102F0000910D816CD90AA861E108C7586607615123
:102F100043061E4B5D05C145A7041A411104093D36
:102F20009803713931034036DB0265339102D430A6
:102F30005402802E1D02632CEE01752AC501B028B3
:102F4000A001102781018F2564012B244B01E02271
:102F50003401AC211F018D200D01801FFC00841E57
:102F6000ED00971DDF00B81CD200E61BC600201B39
:102F7000BC00641AB200B219A8000A19A0006A18AD
:102F80009900D117910040178B00B51684003116B7
:102F90007E00B31579003A157300C7146F005814FA
:102FA0006A00EE1366008813630025135E00C712E3
:102FB0005B006C12570015125400C11151007011C2
:102FC0004F0021114B00D61049008D1047004610CC
:102FD000440002104200C00F4000800F3E00420F2C
:102FE0003C00060F3B00CB0E3800930E37005C0E02
:102FF0003500270E3400F30D3200C10D3100900D65
:103000003000600D2E00320D2D00050D2C00D90C66
:103010002B00AE0C2900850C29005C0C2700350C18
:1030200027000E0C2600E80B2400C40B2400A00B84
:1030300023007D0B23005A0B2100390B2100180BB4
:103040002000F80A1F00D90A1E00BB0A1E009D0AB4
:103050001D00800A1D00630A1C00470A1B002C0A81
:103060001B00110A1A00F7091A00DD091900C4092A
:103070001900AB091900920917007B0918006309B0
:1030800017004C09160036091600200916000A0917
:103090001500F5081500E0081400CC081400B80865
:1030A0001400A4081400900813007D0812006B0897
:1030B00013005808120046081200340811002308B3
:1030C00011001208110001081100F0071000E007BC
:1030D0001000D0071000C0071000B0070F00A107B4
:1030E000100091070E0083070F0074070F0065079B
:1030F0000E0057070E0049070E003B070D002E0774
:103100000E0020070D0013070D0006070D00F9063D
:103110000C00ED060D00E0060C00D4060C00C806FD
:103120000C00BC060C00B0060C00A4060B009906AF
:103130000C008D060B0082060B0077060B006C0658
:103140000B0061060A0057060B004C060A004206F7
:103150000A0038060A002E060A0024060A001A068B
:103160000A001006090007060A00FD050900F4051B
:103170000900EB050900E2050900D9050900D005A1
:103180000900C7050900BE050900B5050800AD0521
:103190000800A50509009C050800940508008C0599
:1031A0000800840508007C050800740508006C050B
:1031B0000700650508005D050700560508004E0577
:1031C00007004705070040050800380507003105DE
:1031D00007002A050700230507001C050600160541
:1031E00007000F0507000805060002050700FB049D
:1031F0000600F5040700EE040600E8040600E204F9
:103200000700DB040600D5040600CF040600C9044D
:103210000600C3040600BD040600B7040600B1049E
:103220000500AC040600A6040600A00405009B04EB
:10323000060095040500900406008A040500850434
:103240000500800406007A0405007504050070047A
:1032500005006B04050066040500610405005C04BC
:10326000050057040500520405004D0405004804FC
:103270000500430405003E0404003A04050035043B
:103280000500300404002C04050027040400230476
:1032900005001E0404001A040400160405001104AD
:1032A00004000D04040009040500040404000004E3
:1032B0000400FC030400F8030400F4030400F0031A
:1032C0000400EC030400E8030400E4030400E0034A
:1032D0000400DC030400D8030400D4030400D0037A
:1032E0000400CC030400C8030300C5030300256CDD
:1032F000642E25696D004D61726C696E20322E302E
:103300002E375F4457372E330041786973200020F1
:103310006D696E3A00206D61783A00464153540061
:10332000534C4F5700050000060100040006010041
:103330000605000000060004004572726F722077D7
:10334000726974696E6720746F20454550524F4D05
:10335000210A0053544F505045442E2000507269AA
:103360006E7465722073746F707065642064756527
:1033700020746F206572726F72732E2046697820F8
:10338000746865206572726F7220616E6420757357
:1033900065204D39393920746F20726573746172FC
:1033A000742E202854656D70657261747572652085
:1033B00069732072657365742E2053657420697477
:1033C0002061667465722072657374617274696ECF
:1033D00067290A004E6F20436865636B73756D2023
:1033E00077697468206C696E65206E756D626572B0
:1033F0002C204C617374204C696E653A20004E6F2E
:1034000020436865636B73756D2077697468206C01
:10341000696E65206E756D6265722C204C617374E7
:10342000204C696E653A2000636865636B73756D47
:10343000206D69736D617463682C204C6173742016
:103440004C696E653A20004C696E65204E756D6260
:103450006572206973206E6F74204C617374204C08
:10346000696E65204E756D6265722B312C204C6142
:103470007374204C696E653A20004D313130005331
:10348000657269616C20737461747573206D697302
:103490006D617463680A00776169740A005344209F
:1034A00072656164206572726F720A002121204B7F
:1034B000494C4C2063617573656420627920746F98
:1034C0006F206D75636820696E616374697665202D
:1034D00074696D65202D2063757272656E7420634A
:1034E0006F6D6D616E643A2000486F74656E642084
:1034F00049646C652054696D656F757400486F741C
:10350000656E642049646C652054696D656F7574DF
:103510000A003D3D6F6E46696C616D656E74527553
:103520006E6F75743D3D007061757365004D36308A
:1035300030002066696C616D656E745F72756E6FC8
:103540007574200066696C616D656E745F72756E6E
:103550006F757420540046696C616D656E745275A8
:103560006E6F75742054002A2A2A496E6974696E38
:10357000672063617264206973204F4B2A2A2A00F6
:103580004D6564696120496E736572746564004DB0
:10359000656469612052656D6F766564004D3130F8
:1035A00030305300627573793A20706175736564C9
:1035B00020666F7220696E7075740A006275737987
:1035C0003A2070617573656420666F72207573654B
:1035D000720A00627573793A2070726F6365737353
:1035E000696E670A002A2A2A6B696C6C2A2A2A00EB
:1035F000706F7765726F6666004B494C4C45442E80
:1036000020005072696E7465722068616C74656424
:103610002E206B696C6C28292063616C6C656421B9
:103620000A0053544F505045442E20005072696E8A
:103630007465722073746F707065642064756520A2
:10364000746F206572726F72732E204669782074D1
:103650006865206572726F7220616E642075736593
:10366000204D39393920746F20726573746172741A
:103670002E202854656D70657261747572652069BD
:10368000732072657365742E2053657420697420ED
:1036900061667465722072657374617274696E67B5
:1036A000290A006563686F3A004572726F723A00CA
:1036B000204A0020204D343231204900202047325A
:1036C0003920493939390A006163746976650A001D
:1036D000696E00002053797374656D2076312E3049
:1036E0003120002020207C0A004E414E0020202E58
:1036F00020202000207C004C43443A0A00435356CB
:103700003A0A0020666F7220003A0A0A000A4265EF
:103710006420546F706F67726170687920526570B1
:103720006F72740050726F62696E67204661696CD7
:1037300065640A0050726F62696E67204661696C49
:10374000656400205A3A200020593A2000426564FE
:1037500020583A20004732384C3000473238004475
:103760006F6E652E0A003F496E76616C6964207346
:10377000746F7261676520736C6F742E0A3F5573A6
:1037800065203020746F20003F454550524F4D203A
:1037900073746F72616765206E6F74206176616902
:1037A0006C61626C652E0A00446F6E652E0A003FE4
:1037B000496E76616C69642073746F72616765200D
:1037C000736C6F742E0A3F557365203020746F2020
:1037D000003F454550524F4D2073746F72616765CD
:1037E000206E6F7420617661696C61626C652E0A6F
:1037F000003F5034206973206F6E6C7920617661D0
:10380000696C61626C65207768656E20616E204C22
:1038100043442069732070726573656E742E0A00CC
:103820003F5032206973206F6E6C79206176616938
:103830006C61626C65207768656E20616E204C4318
:10384000442069732070726573656E742E0A0029B6
:103850002E0A0A0050726F62696E672061726F757E
:103860006E642028004D65736820696E76616C690E
:1038700064617465642E2050726F62696E67206D9A
:103880006573682E0A004D657368207A65726F65EE
:10389000642E0A0044656661756C742073746F72DF
:1038A00061676520736C6F7420302073656C65638D
:1038B0007465642E0A004C6F6164696E67207465DC
:1038C00073745F7061747465726E2076616C756577
:1038D000732E0A0A00496E76616C69642074657300
:1038E000745F7061747465726E2076616C75652E9C
:1038F00020282D3120746F2032290A0A0020696E99
:1039000076616C6964617465642E0A0A004C6F63A9
:103910006174696F6E7300456E74697265204D65E0
:103920007368005374616E646172642044657669E3
:103930006174696F6E3A20004D65616E204D65734C
:1039400068204865696768743A200023206F662004
:1039500073616D706C65733A200050726F62696EAE
:103960006720506F696E740025532025692F2569E3
:10397000002E0A002F0050726F62696E67206D651D
:10398000736820706F696E742000496E76616C698F
:1039900064206D617020747970652E0A0A003F28DA
:1039A00046296164652068656967687420666F727E
:1039B00020426564204C6576656C20436F727265A9
:1039C0006374696F6E206E6F7420706C61757369BB
:1039D000626C652E0A0A003F43616E2774206163A2
:1039E00074697661746520616E64206465616374D6
:1039F0006976617465206174207468652073616DF7
:103A0000652074696D652E0A0A00426F746820583B
:103A100020262059206C6F636174696F6E73206D6E
:103A20007573742062652073706563696669656487
:103A30002E0A0A003F496E76616C696420677269DC
:103A4000642073697A6520284A2920737065636948
:103A5000666965642028322D39292E0A0A003F281C
:103A60005029686173652076616C756520696E7692
:103A7000616C69642028302D36292E0A0A003F28FF
:103A800056296572626F7365206C6576656C206976
:103A90006D706C61757369626C652028302D3429F6
:103AA0002E0A0A003F285229657065746974696F8F
:103AB0006E20636F756E7420696E76616C69642028
:103AC00028312B292E0A0A0034332F332A33253389
:103AD0005D0A0062656420706C616E65206E6F72B5
:103AE0006D616C203D205B00436F756C64206E6FD0
:103AF0007420636F6D706C657465204C53462100B3
:103B0000436F727265637465645F5A3D002553208C
:103B100025692F2569000A0A002F0054696C746911
:103B20006E67206D65736820706F696E7420003F4A
:103B30004572726F722070726F62696E6720706F6B
:103B4000696E742E2041626F7274696E67206F70A7
:103B500065726174696F6E2E0A00436F72726563DD
:103B60007465645F5A3D00255320332F3300546938
:103B70006C74696E67206D6573682028332F332954
:103B80000A00436F727265637465645F5A3D002575
:103B90005320322F330054696C74696E67206D6551
:103BA00073682028322F33290A00436F72726563CD
:103BB0007465645F5A3D0054696C74696E67205087
:103BC0006F696E7400255320312F330054696C7473
:103BD000696E67206D6573682028312F33290A00CC
:103BE000646F6E650A00496E737566666963696520
:103BF0006E7420646174610A000000803F66667222
:103C0000426666F042CCCC334366666F43008095D3
:103C1000430000803F666672426666F042CCCC3359
:103C20004366666F43008095434578747261706F98
:103C30006C6174696E67206D6573682E2E2E00218D
:103C4000212053544F502063616C6C656420626581
:103C50006361757365206F6620424C546F756368AD
:103C6000206572726F72202D207265737461727498
:103C70002077697468204D3939390A002121205391
:103C8000544F502063616C6C65642062656361759C
:103C90007365206F6620424C546F756368206572AF
:103CA000726F72202D20726573746172742077694F
:103CB0007468204D3939390A002F2F616374696F98
:103CC0006E3A0070726F6D70745F00656E640053C1
:103CD000656E64204D31303820746F2072657375C5
:103CE0006D650A00496E736572742066696C616D5A
:103CF000656E7420616E642073656E64204D313092
:103D0000380A005265686561742066696E69736877
:103D100065642E0052656865617420446F6E6500AD
:103D2000526568656174696E672E2E2E0052656853
:103D3000656174004865617465722054696D656FD2
:103D400075740053656E64204D31303820746F20D7
:103D500068656174206E6F7A7A6C650A004E6F7ABE
:103D60007A6C65205061726B656400486F74656E93
:103D70006420746F6F20636F6C640A0070617573E8
:103D800065640050617573650044697361626C65B8
:103D900052756E6F75740050757267654D6F726500
:103DA000005061757365640073686F7700627574A5
:103DB000746F6E00626567696E004C6F61642046C7
:103DC000696C616D656E74004C6F61642046696C4E
:103DD000616D656E74205400496E7365727420665F
:103DE000696C616D656E7420616E642073656E64CC
:103DF000204D3130380A00726573756D656400526C
:103E00006573756D696E670057616974696E6720C7
:103E1000666F72206865617475702E0A004C65616A
:103E200076696E6720473236003F53706563696676
:103E300069656420582C5920636F6F7264696E61E4
:103E40007465206F7574206F6620626F756E647381
:103E50002E0A003F28522965706561742076616CD6
:103E60007565206E6F7420706C61757369626C6526
:103E70003B206D757374206265206174206C6561F0
:103E8000737420312E0A003F2852296570656174D1
:103E9000206D75737420626520737065636966694F
:103EA0006564207768656E206E6F74207573696E27
:103EB0006720616E204C43442E0A003F53706563B7
:103EC0006966696564206E6F7A7A6C652074656DC9
:103ED0007065726174757265206E6F7420706C61AC
:103EE000757369626C652E0A003F5370656369667D
:103EF0006965642066696C616D656E742073697AAA
:103F000065206E6F7420706C61757369626C652ECC
:103F10000A003F5370656369666965642070726961
:103F20006D65206C656E677468206E6F7420706CB0
:103F300061757369626C652E0A003F5072696D6528
:103F4000206C656E677468206D75737420626520DF
:103F5000737065636966696564207768656E206E55
:103F60006F74207573696E6720616E204C43442E18
:103F70000A003F537065636966696564206E6F7AF5
:103F80007A6C652073697A65206E6F7420706C613D
:103F9000757369626C652E0A003F526574726163C5
:103FA00074696F6E204D756C7469706C69657220F0
:103FB0006D757374206265207370656369666965E9
:103FC000642E0A003F537065636966696564205218
:103FD000657472616374696F6E204D756C7469707D
:103FE0006C696572206E6F7420706C6175736962A4
:103FF0006C652E0A003F53706563696669656420CD
:104000006C6179657220686569676874206E6F7489
:1040100020706C61757369626C652E0A0043292EED
:104020000A003F5370656369666965642062656470
:104030002074656D7065726174757265206E6F7441
:1040400020706C61757369626C65202834302D00B6
:10405000473236207374617274696E672E2E2E0A91
:10406000004F46460A0046616465204865696768F6
:10407000742000426564204C6576656C696E67202B
:10408000004661696C656420746F20656E61626CC6
:104090006520426564204C6576656C696E670A0030
:1040A000496E76616C6964206D6573682E0A0076CE
:1040B000616C69640A53746F7261676520736C6F19
:1040C000743A2000696E004D6573682069732000A2
:1040D0003F557365203020746F20003F496E766134
:1040E0006C69642073746F7261676520736C6F74A0
:1040F0002E0A003F454550524F4D2073746F726138
:104100006765206E6F7420617661696C61626C65B1
:104110002E0A00446576696174696F6E0025533A12
:104120002025730046696E6973686564210A003A48
:10413000207A3A2000206F662000476F696E672062
:10414000746F3A20580043570A00206469723A009D
:1041500020616E676C653A005374617274207261FD
:10416000646975733A004D343820506F696E74007D
:1041700025533A2025642F256400506F73697469B4
:104180006F6E696E67207468652070726F62652E4D
:104190002E2E0A003F4C656773206F66206D6F7688
:1041A000656D656E7420696D706C61757369626CA4
:1041B000652028302D3135292E0A003F2028582C23
:1041C0005929206F7574206F6620626F756E647355
:1041D0002E0A0050726F6265206F7574206F662022
:1041E000626F756E6473003F53616D706C65207310
:1041F000697A65206E6F7420706C61757369626C8A
:10420000652028342D3530292E0A004D3438205AA7
:104210002D50726F626520526570656174616269CC
:104220006C69747920546573740A003F28562965B7
:1042300072626F7365206C6576656C20696D706C59
:1042400061757369626C652028302D34292E0A004F
:104250005374616E64617264204465766961746947
:104260006F6E3A20002052616E67653A2000204D43
:1042700061783A2000204D696E3A2000205369672A
:104280006D613A20004D65616E3A20005741524EF3
:10429000494E4721204C6F77205A204A65726B2087
:1042A0006D6179206C65616420746F20756E776133
:1042B0006E746564207061757365732E0A004F46D5
:1042C00046004F4E0020204D61783A20002000200B
:1042D000204D696E3A2000536F667420656E6473DA
:1042E000746F70733A20003D3D4F6E506F7765726A
:1042F0004C6F7373526573756D653D3D004D32347F
:104300002053256C642054256C64004739322E39C3
:104310002045257300473120462564004739322E59
:1043200039205A2573004731205A30204632303028
:1043300000473120582573205925732046333030EB
:1043400030004D34323020532569205A2573004DFA
:104350003130362050256920532569004D323030E8
:1043600020442573004732385230585900473932BB
:104370002E39204530205A300A47315A2573004DD6
:1043800031303920532569004D31393020532569AA
:10439000004D343230205330205A30000A20696EEC
:1043A0006974207A70726F62655F7A6F6666736592
:1043B00074203D20003D3D6F6E436F6E66696775EA
:1043C000726174696F6E53746F7265526561643D9A
:1043D0003D00454550524F4D20496E697469616CEE
:1043E000697A65640A003F556E61626C6520746F7E
:1043F0002073617665206D65736820646174612E39
:104400000A003F556E61626C6520746F206C6F61AD
:1044100064206D65736820646174612E0A00556EB6
:10442000696669656420426564204C6576656C69DF
:104430006E67003B20003A0A0020204D36303320C2
:104440000020440020204D34313220530046696C56
:10445000616D656E742072756E6F75742073656E14
:10446000736F723A002055004C0046696C616D65AF
:104470006E74206C6F61642F756E6C6F6164206C5C
:10448000656E677468733A0020204D3835312058C6
:10449000005A2D50726F6265204F66667365740016
:1044A00020204D343133205300506F7765722D4CEE
:1044B0006F7373205265636F766572793A0020449A
:1044C0000020490020204D3330342050002044008B
:1044D00020490020204D33303120500050494420E5
:1044E00073657474696E67733A00206D65736865EF
:1044F000732E0A0A00454550524F4D2063616E20CD
:10450000686F6C642000416374697665204D657343
:104510006820536C6F743A200020204D34323020D4
:10452000530020204D323036205800486F6D6520F2
:104530006F66667365743A0020580020530020208F
:104540004D323035204200416476616E6365643AD5
:1045500020423C6D696E5F7365676D656E745F7454
:10456000696D655F75733E20533C6D696E5F66656E
:104570006564726174653E20543C6D696E5F74724F
:104580006176656C5F66656564726174653E20582E
:104590003C6D61785F785F6A65726B3E20593C6D57
:1045A00061785F795F6A65726B3E205A3C6D617815
:1045B0005F7A5F6A65726B3E20453C6D61785F652E
:1045C0005F6A65726B3E0020540020520020204D2F
:1045D000323034205000416363656C6572617469E8
:1045E0006F6E2028756E6974732F7332293A2050CC
:1045F0003C7072696E745F616363656C3E20523C0F
:10460000726574726163745F616363656C3E2054AC
:104610003C74726176656C5F616363656C3E00201B
:10462000204D3230312058004D6178696D756D2014
:10463000416363656C65726174696F6E2028756E85
:104640006974732F7332293A0020204D32303320A1
:1046500058004D6178696D756D206665656472619D
:104660007465732028756E6974732F73293A00532B
:10467000746570732070657220756E69743A0020DD
:10468000440020204D3230302053002044697361B3
:10469000626C65640A0046696C616D656E742073B6
:1046A000657474696E67733A0020286D6D29002067
:1046B00020473231202020203B20556E6974732022
:1046C000696E206D6D003F4D65736820746F6F20BB
:1046D00062696720666F7220454550524F4D2E0A21
:1046E000003D3D6F6E4C6F616453657474696E6715
:1046F000733D3D000000FA430000FA4300002041F2
:1047000000008C420000A0420000A0420000C8430C
:1047100000000C43EE020000EE0200006400000006
:104720003C00000024F4D43050C38E20C2A24017B5
:10473000828B7011127A910D816CD90AA861E108FF
:10474000C7586607615143061E4B5D05C145A70466
:104750001A411104093D9803713931034036DB02D7
:1047600065339102D4305402802E1D02632CEE0179
:10477000752AC501B028A001102781018F25640189
:104780002B244B01E0223401AC211F018D200D01AF
:10479000801FFC00841EED00971DDF00B81CD200B6
:1047A000E61BC600201BBC00641AB200B219A800A8
:1047B0000A19A0006A189900D117910040178B00C0
:1047C000B516840031167E00B31579003A157300D2
:1047D000C7146F0058146A00EE1366008813630054
:1047E00025135E00C7125B006C12570015125400AF
:1047F000C111510070114F0021114B00D61049001A
:104800008D1047004610440002104200C00F4000C7
:10481000800F3E00420F3C00060F3B00CB0E3800DD
:10482000930E37005C0E3500270E3400F30D320076
:10483000C10D3100900D3000600D2E00320D2D00A5
:10484000050D2C00D90C2B00AE0C2900850C29007D
:104850005C0C2700350C27000E0C2600E80B24000A
:10486000C40B2400A00B23007D0B23005A0B210056
:10487000390B2100180B2000F80A1F00D90A1E006E
:10488000BB0A1E009D0A1D00800A1D00630A1C0051
:10489000470A1B002C0A1B00110A1A00F7091A000C
:1048A000DD091900C4091900AB09190092091700A4
:1048B0007B091800630917004C0916003609160019
:1048C000200916000A091500F5081500E008140073
:1048D000CC081400B8081400A408140090081300B1
:1048E0007D0812006B0813005808120046081200D9
:1048F00034081100230811001208110001081100EA
:10490000F0071000E0071000D0071000C0071000EB
:10491000B0070F00A107100091070E0083070F00DA
:1049200074070F0065070E0057070E0049070E00B9
:104930003B070D002E070E0020070D0013070D008A
:1049400006070D00F9060C00ED060D00E0060C0050
:10495000D4060C00C8060C00BC060C00B0060C0007
:10496000A4060B0099060C008D060B0082060B00B6
:1049700077060B006C060B0061060A0057060B0059
:104980004C060A0042060A0038060A002E060A00F3
:1049900024060A001A060A001006090007060A0083
:1049A000FD050900F4050900EB050900E205090011
:1049B000D9050900D0050900C7050900BE05090091
:1049C000B5050800AD050800A50509009C0508000F
:1049D000940508008C050800840508007C05080083
:1049E000740508006C050700650508005D050700F3
:1049F000560508004E05070047050700400508005A
:104A000038050700310507002A05070023050700C0
:104A10001C050600160507000F050700080506001F
:104A200002050700FB040600F5040700EE0406007B
:104A3000E8040600E2040700DB040600D5040600D3
:104A4000CF040600C9040600C3040600BD04060026
:104A5000B7040600B1040500AC040600A604060075
:104A6000A00405009B0406009504050090040600C0
:104A70008A04050085040500800406007A04050008
:104A800075040500700405006B040500660405004C
:104A9000610405005C04050057040500520405008C
:104AA0004D04050048040500430405003E040400CD
:104AB0003A04050035040500300404002C04050008
:104AC00027040400230405001E0404001A04040043
:104AD00016040500110404000D0404000904050077
:104AE0000404040000040400FC030400F8030400B0
:104AF000F4030400F0030400EC030400E8030400E2
:104B0000E4030400E0030400DC030400D803040011
:104B1000D4030400D0030400CC030400C803030042
:104B2000C503030024F404D9201BC40C5C0E9804B4
:104B3000C4095F0265077101F405F900FB04B300C5
:104B400048048700C103690058035500030345006A
:104B5000BE023A008402310053022A0029022500D5
:104B600004022000E4011C00C8011900AF01170075
:104B700098011400840113007101100061011000FC
:104B800051010E0043010D0036010B002B010B00FB
:104B900020010B00150109000C01090003010800A8
:104BA000FB000800F3000800EB000700E40006002B
:104BB000DE000600D8000600D2000600CC0005008A
:104BC000C7000500C2000500BD000400B9000400D4
:104BD000B5000400B1000400AD000400A900040009
:104BE000A5000300A20003009F0004009B00030037
:104BF000980003009500020093000300900003005A
:104C00008D0002008B000300880002008600020075
:104C100084000300810002007F0002007D0002008A
:104C20007B0002007900020077000100760002009C
:104C30007400020072000100710002006F000200A7
:104C40006D0001006C0002006A00010069000200B2
:104C500067000100660001006500010064000200B9
:104C60006200010061000100600001005F000200BD
:104C70005D0001005C0001005B0001005A000100C2
:104C800059000100580001005700010056000100C2
:104C900055000100540001005300000053000100C2
:104CA0005200010051000100500001004F000100BE
:104CB0004E0000004E0001004D0001004C000100BC
:104CC0004B0000004B0001004A00010049000100B8
:104CD00048000000480001004700010046000000B5
:104CE00046000100450000004500010044000100AD
:104CF00043000000430001004200000042000100A8
:104D00004100000041000100400001003F000000A0
:104D10003F0001003E0000003E0001003D00000099
:104D20003D0001003C0000003C0000003C00010090
:104D30003B0000003B0001003A0000003A00010087
:104D40003900000039000100380000003800000080
:104D50003800010037000000370001003600000075
:104D6000360000003600010035000000350000006C
:104D70003500010034000000340000003400010060
:104D80003300000033000000330001003200000057
:104D9000320000003200010031000000310000004C
:104DA0003100010030000000300000003000010040
:104DB0002F0000002F0000002F0000002F00010036
:104DC0002E0000002E0000002E0001002D0000002B
:104DD0002D0000002D0000002D0001002C0000001F
:104DE0002C0000002C0000002C0001002B00000013
:104DF0002B0000002B0000002B0001002A00000007
:104E00002A0000002A0000002A00010029000000FA
:104E100029000000290000002900000029000100ED
:104E200028000000280000002800000028000000E2
:104E300028000100270000002700000027000000D4
:104E400027000000270001002600000026000000C7
:104E500026000000260000002600010025000000BA
:104E600025000000250000002500000025000000AE
:104E700025000100240000002400000024000000A0
:104E80002400000024000100230000002300000093
:104E90002300000023000000230000002300000086
:104EA0002300010022000000220000002200000078
:104EB000220000002200000022000100210000006A
:104EC000210000002100000021000000210000005E
:104ED000210000002100010020000000200000004F
:104EE0002000000020000000200000002000000042
:104EF00020000000200001001F0000001F00000033
:104F00001F0000001F0000001F0000001F00000025
:104F10001F0001001E0000001E0000001E00000017
:104F20001E00000039300000332500008719000002
:104F3000B00F0000DB080000BD0400007402000098
:104F40003F01000020436F756E7420583A002364BF
:104F50006566696E652044454641554C545F0000C6
:104F6000626564004B6420004B6920004B70200098
:104F7000504944204175746F74756E652066696E82
:104F80006973686564212050757420746865206CAD
:104F9000617374204B702C204B6920616E64204B30
:104FA0006420636F6E7374616E74732066726F6DCC
:104FB0002062656C6F7720696E746F20436F6E6638
:104FC000696775726174696F6E2E680A0050494492
:104FD000204175746F74756E65206661696C6564D7
:104FE000212074696D656F75740A00504944204131
:104FF00075746F74756E65206661696C65642120D7
:1050000054656D706572617475726520746F6F2080
:10501000686967680A00204B643A2000204B693AAF
:105020002000204B703A200020436C617373696349
:1050300020504944200A00204E6F206F766572731D
:10504000686F6F740A002054753A2000204B753A3F
:105050002000206D61783A2000206D696E3A2000B2
:1050600020643A200020626961733A20005049446C
:10507000204175746F74756E652073746172740A63
:1050800000504944204175746F74756E65206661E7
:10509000696C6564212054656D7065726174757208
:1050A0006520746F6F20686967680A004265640054
:1050B000453100626564002C2073797374656D203E
:1050C00073746F7070656421204865617465725FE8
:1050D00049443A200048656174696E6720466169F9
:1050E0006C65640048656174696E67206661696C0F
:1050F0006564004D3131322053687574646F776E8A
:10510000001000C90210012C014001220170011899
:1051100001B0010E01F00104015002FA00B002F0EA
:10512000003003E600D003DC009004D2007005C814
:1051300000A006BE000008B400B009AA00D00BA071
:1051400000600E960060118C000015820020197816
:1051500000C01D6E00A0226400B0275A00902C50A1
:105160000000314600E0343C0010383200903A280C
:1051700000603C1E00A03D1400803E0A00203F005D
:1051800000544845524D414C2052554E41574159CB
:1051900000546865726D616C2052756E617761793B
:1051A000004572723A204D415854454D50004D41D2
:1051B0005854454D50207472696767657265640084
:1051C0004572723A204D494E54454D50004D494E5E
:1051D00054454D502074726967676572656400209C
:1051E0002F002042403A0020403A0020573A002049
:1051F000573A00496E76616C6964206578747275FF
:105200006465720A007C3C3E5E2B3D3F2F5B5D3B3C
:105210002C2A225C0043616E6E6F74206F70656E85
:10522000207375626469722000534420496E69746A
:10523000204661696C0053442063617264206F6B87
:105240000A006F70656E526F6F74206661696C65DD
:10525000640A00766F6C756D652E696E69742066E0
:1052600061696C65640A004E6F205344206361726B
:10527000640A000A4D3234004D3233202573002E6B
:105280000A006F70656E206661696C65642C20464B
:10529000696C653A200046696C652073656C6563CE
:1052A0007465640A002053697A653A200046696C87
:1052B00065206F70656E65643A2000454E4420534A
:1052C0005542524F5554494E450A002220706F7383
:1052D000002220706172656E743A2200535542526A
:1052E0004F5554494E452043414C4C2074617267E0
:1052F00065743A220053756263616C6C204F766569
:1053000072666C6F77004578636565646564206DCF
:10531000617820535542524F5554494E452064659B
:105320007074683A002E0A0044656C6574696F6E8B
:10533000206661696C65642C2046696C653A2000C2
:1053400046696C652064656C657465643A00534415
:10535000207072696E74696E6720627974652000CE
:105360004E6F74205344207072696E74696E670AC0
:105370000057726974696E6720746F2066696C6586
:105380003A2000667265736800646F696E6700207A
:1053900066696C653A20004E6F7720002F61757446
:1053A0006F25632E67002020506C616E6E6572421F
:1053B000756666657242797465733A20002046729C
:1053C0006565204D656D6F72793A2000436F6D7091
:1053D000696C65643A204170722032342032303278
:1053E000310A00204C6173742055706461746564E7
:1053F0003A20323032312D30342D3138207C20416A
:105400007574686F723A2054696E794D616368698A
:105410006E657333440A00322E302E375F4457379F
:105420002E330A004D61726C696E0020536F6674F2
:10543000776172652052657365740A002057617444
:105440006368646F672052657365740A0020427256
:105450006F776E206F75742052657365740A002033
:1054600045787465726E616C2052657365740A00CC
:10547000506F77657255700A0073746172740A0018
:105480004732385859004D31303031006572726FF3
:10549000722077726974696E6720746F2066696C18
:1054A000650A00446F6E6520736176696E672066D9
:1054B000696C652E0A004D323900456E6473746F55
:1054C0007073002553202563202563202563202544
:1054D0006300205A3A0020593A0020583A00656E7D
:1054E0006473746F7073206869743A20006001F40B
:1054F000017001EA019001E001B001D601D001CCB8
:10550000010002C2013002B8016002AE019002A4A3
:1055100001D0029A012003900170038601C0037C30
:105520000130047201A004680120055E01B0055439
:105530000160064A0120074001F0073601F0082CFF
:1055400001100A2201500B1801C00C0E01500E046C
:10555000013010FA002012F0005014E600C016DCF2
:10556000007019D200501CC800501FBE007022B439
:1055700000B025AA00F028A000202C9600302F8C27
:105580000010328200A0347800F0366E00E03864FB
:1055900000803A5A00403B5500E03B5000F03C464A
:1055A00000C03D3C00603E3200E03E2800303F1E1F
:1055B00000503F1900703F1400A03F0A00C03F0098
:1055C00000D03FF6FFE03FECFF00000A0B02090CA1
:1055D0000D0E080703040100000000000000000099
:1055E00000000000000000000000000000000000BB
:1055F0000000000000121110000000000000000078
:105600000000000000000000000000000000003D5D
:105610003D6F6E55736572436F6E6669726D52654C
:105620007175697265643D3D00220A00556E6B6EAE
:105630006F776E20636F6D6D616E643A202200207B
:1056400042002050006F6B00204500205A00205976
:1056500000204D393220580020453A00205A3A00A7
:1056600020593A00583A0020746F6F206C6F6E67B3
:1056700020657874727573696F6E207072657665D7
:105680006E7465640A0020636F6C642065787472C0
:105690007573696F6E2070726576656E7465640AE5
:1056A0000043616E6E6F7420656E74657220737551
:1056B000626469723A20004D323520500A4D32340E
:1056C00000526573756D65005549205061757365AD
:1056D000004E6F204D61746368203A00506755702A
:1056E000005067446F776E0049732046696C6520EF
:1056F000004973204469722000476F5570446972F5
:1057000000486173204D656469610046696C656E8F
:10571000616D652053656C6563746564004D31305F
:10572000303043004D313030300046696C616D657A
:105730006E7420537461742030202D20330046692C
:105740006C616D656E7420537461742030202D205F
:10575000320046696C616D656E742053746174200B
:1057600030202D2031002046696C616D656E7420FB
:10577000526573706F6E7365204E6F00526573755E
:105780006D652059657320647572696E672070724B
:10579000696E74000A204E6F2046696C616D656EFB
:1057A0007400496E76616C6964204F7074696F6E25
:1057B000004D3530300053746F726520536574743A
:1057C000696E6773004265642050494420537461D8
:1057D00072746564004D3939390A4D3238305030B1
:1057E0005331363000424C546F75636820526573F4
:1057F0006574004D3530320A4D35303000496E69E0
:105800007420454550524F4D00486F74656E6420BA
:10581000504944205374617274656400456E676C2E
:1058200069736820416C7265616479205365740006
:105830004368696E657365204E6F74205375707090
:105840006F7274656400496E4C616E6743686F697E
:105850006365000A202A2A2A7265636461742E64D3
:105860006174615B305D203D004732380A4731206A
:105870004631303030205A313000556E73757070BB
:105880006F72746564204F7074696F6E2053656C1D
:1058900065637465640047323652323535004D31E8
:1058A00039305335350A4732380A47323950310AD0
:1058B00047323950330A47323953310A4732395364
:1058C000300A47323946302E300A473239410A4DC4
:1058D000313034533231350A4732380A4D3130399C
:1058E000533231350A473158313530593135304628
:1058F000353030300A47315A300A4D3530300A4D94
:105900003430300A4D31313720536574205A204FDE
:105910006666736574004731204631303030205A56
:10592000302E30004732380A47312046313030308F
:10593000205A302E30004D353030005A204F6666E8
:10594000736574203A202573004D353030005A209D
:105950004F6666736574203A202573004732380A13
:10596000473146313530305A302E30004732385AC0
:105970000A473146313530305A302E30004D3834F8
:1059800000473146313030305A302E3000473238FF
:105990000A473146313030305A302E30004D616E7A
:1059A00075616C53657454656D70005A204F66665E
:1059B000736574203A2025730053746F70205472FD
:1059C000696767657265640053746F70204E6F007D
:1059D00053746F705072696E740048616E646C65C8
:1059E00020446174612041646A75737420322053CD
:1059F000657474696E672053637265656E20004834
:105A0000616E646C652044617461205072696E74CB
:105A100046696C6520332053657474696E67205342
:105A2000637265656E200048616E646C6520446138
:105A30007461205072696E7446696C65203220531F
:105A4000657474696E672053637265656E20004DDE
:105A500038340048616E646C652044617461205084
:105A600072696E7446696C6520506F73740048618A
:105A70006E646C652044617461205072696E744676
:105A8000696C652050726500426567696E5377697D
:105A9000746368003D3D20436865636B6B65793DC9
:105AA0003D007265636461742E61646472203D3DE3
:105AB000007265636461742E646174615B305D20A3
:105AC0003D3D0077616974776179203D3D0020207C
:105AD0002A2A2A2A2A2A2A5254535F48616E646C61
