:100000000C94B01A0C94E11A0C94E11A0C94E11AB5
:100010000C94E11A0C94E11A0C94E11A0C94E11A74
:100020000C94E11A0C94E11A0C94E11A0C94E11A64
:100030000C94E11A0C94E11A0C94E11A0C94E11A54
:100040000C94E11A0C9488D10C94E11A0C94E11AE6
:100050000C94E11A0C94E11A0C9485BE0C9425AA18
:100060000C94E11A0C9452560C9448560C94E11AD4
:100070000C94E11A0C94E11A0C94E11A0C94E11A14
:100080000C9438340C94E11A0C94E11A0C94E11A93
:100090000C94E11A0C94E11A0C94E11A0C94E11AF4
:1000A0000C94E11A0C94E11A0C940A340C94E11AA1
:1000B0000C94E11A0C94E11A0C94E11A0C94E11AD4
:1000C0000C94E11A0C94E11A0C94E11A0C94463742
:1000D0000C9410370C94E11A0C94E11A0C94E11A68
:1000E0000C94E11A084AD73B3BCE016E84BCBFFD9D
:1000F000C12F3D6C74319ABD56833DDA3D00C77FF8
:1001000011BED9E4BB4C3E916BAAAABE0000008090
:100110003F05A84CCDB2D44EB93836A9020C50B91F
:10012000918688083CA6AAAA2ABE000000803F004B
:100130000C94E0FC0C9497A40C948E420C94DFFB7E
:100140000C94FBFB0C9481FC0C94F9A80C94E3FB3D
:100150000C94F7FB0D94FB000C94E4560C94D837E8
:100160000D942E0F0C94CAFB0D945F0B0D94081484
:100170000C9416570C94DD560C9409FC0D94260132
:100180000D94431F0C94DC370C9453FC0C9446FCE8
:100190000D946E100C94FFFB0C94F4560C9438A93B
:1001A0000C94D6FC0C940E570C9405FC0C94E03780
:1001B0000D94340C0C94F0560D94880B0C94F0377D
:1001C0000D94570F0D94BF0B0C94D9FB0C9479FC34
:1001D0000C94FBA70C94E9FB0D94470C0D94D30BE6
:1001E0000D945B090C94B8FC0C949FFC0C94CEFB12
:1001F0000C9467FC0D94A2030D9423050C94C74442
:100200000C94E4370C947BA80C94BF560C94D13713
:100210000C941AA50D94C6070C94D6FB0C94E7FE1B
:100220000C94B8FB0C94FC560D942B0A0C94C2371A
:100230000D943F090C940BA90C94B3370C94CE5633
:100240000D94280F0C94EC370C943F420D94110040
:100250000C94B3FB0C940A380C9484370C94023839
:100260000D94611F0C9460A80C94EC560D949C0B9B
:100270000C9492420D9491020D948F090C9402AA51
:100280000C94F7370C94E8370C9419A50C94F85695
:100290000D94750F0C941CA80C9490560D94F10AB3
:1002A0000C9471FC0D940C090C94AEFC0C94EDFBB9
:1002B0000C948BFC0C944EFC0D94F20B0C94C2FC31
:1002C0000D94BB0A0C945A440C94E8560D94310FCB
:1002D0000C9466A70C9403570C94CCFC0C9495FCDE
:1002E0000C94FF440D94610F0D945E100C9483A741
:1002F0000D94F70C0C9486440D94820F0D94490FC5
:100300000D9431110D94010F0C94F1FB0C945DFCD4
:100310000C94D2FB4E414E494E495459494E46CD5C
:10032000CCCC3D0AD7233C17B7D13877CC2B3295AC
:1003300095E6241FB14F0A000020410000C842008A
:10034000401C4620BCBE4CCA1B0E5AAEC59D740054
:10035000407A10F35A00A0724E18090010A5D4E894
:100360000000E87648170000E40B54020000CA9A27
:100370003B000000E1F50500008096980000004079
:10038000420F000000A086010000001027000000BE
:1003900000E803000000006400000000000A000004
:1003A0000000000100000000002C76D888DC674FB8
:1003B0000823DFC1DFAE59E1B1B796E5E3E453C6E8
:1003C0003AE651997696E8E6C28426EB898C9B62E0
:1003D000ED407C6FFCEFBC9C9F40F2BAA56FA5F48A
:1003E00090055A2AF75C936B6CF9676DC11BFCE0B2
:1003F000E40D47FEF520E6B500D0ED902E03009405
:100400003577050080841E080000204E0A00000099
:10041000C80C333333330F986E12831141EF8D21A3
:1004200014893BE65516CFFEE6DB18D1844B381B0A
:10043000F77C1D901DA4BBE424203284725E2281CF
:1004400000C9F124ECA1E53D27434F4D4D554E49E0
:10045000434154494F4E0044525952554E00455263
:10046000524F525300494E464F004543484F0045B6
:1004700072726F722077726974696E6720746F2070
:10048000454550524F4D210A0053544F505045445A
:100490002E20005072696E7465722073746F7070D4
:1004A00065642064756520746F206572726F727365
:1004B0002E2046697820746865206572726F7220FC
:1004C000616E6420757365204D39393920746F2051
:1004D000726573746172742E202854656D70657234
:1004E00061747572652069732072657365742E205E
:1004F0005365742069742061667465722072657337
:1005000074617274696E67290A004E6F20436865D2
:10051000636B73756D2077697468206C696E6520F4
:100520006E756D6265722C204C617374204C696E1F
:10053000653A20004E6F20436865636B73756D20CC
:1005400077697468206C696E65206E756D6265727E
:100550002C204C617374204C696E653A20006368EE
:1005600065636B73756D206D69736D617463682C61
:10057000204C617374204C696E653A20004C696EA2
:1005800065204E756D626572206973206E6F7420F0
:100590004C617374204C696E65204E756D62657296
:1005A0002B312C204C617374204C696E653A20000D
:1005B0004D3131300053657269616C207374617420
:1005C0007573206D69736D617463680A0077616982
:1005D000740A0053442072656164206572726F7200
:1005E0000A002121204B494C4C20636175736564DE
:1005F00020627920746F6F206D75636820696E6169
:1006000063746976652074696D65202D2063757249
:1006100072656E7420636F6D6D616E643A20004880
:100620006F74656E642049646C652054696D656FF4
:10063000757400486F74656E642049646C6520545D
:10064000696D656F75740A003D3D6F6E46696C613A
:100650006D656E7452756E6F75743D3D0070617599
:100660007365004D363030002066696C616D656ED3
:10067000745F72756E6F7574200066696C616D656C
:100680006E745F72756E6F757420540046696C618C
:100690006D656E7452756E6F75742054002A2A2A27
:1006A000496E6974696E67206361726420697320A2
:1006B0004F4B2A2A2A004D6564696120496E736593
:1006C00072746564004D656469612052656D6F7672
:1006D0006564004D313030305300627573793A20D3
:1006E00070617573656420666F7220696E707574D1
:1006F0000A00627573793A207061757365642066CB
:100700006F7220757365720A00627573793A207092
:10071000726F63657373696E670A002A2A2A6B69B0
:100720006C6C2A2A2A00706F7765726F6666004BC0
:10073000494C4C45442E20005072696E74657220FD
:1007400068616C7465642E206B696C6C2829206369
:10075000616C6C6564210A0053544F505045442E1F
:1007600020005072696E7465722073746F707065CA
:10077000642064756520746F206572726F72732EC9
:100780002046697820746865206572726F722061F6
:100790006E6420757365204D39393920746F20726D
:1007A0006573746172742E202854656D7065726172
:1007B000747572652069732072657365742E205399
:1007C0006574206974206166746572207265737443
:1007D000617274696E67290A006563686F3A004543
:1007E00072726F723A0042696C696E656172204C78
:1007F0006576656C696E6720477269643A0A002104
:10080000212053544F502063616C6C6564206265F5
:100810006361757365206F6620424C546F75636821
:10082000206572726F72202D20726573746172740C
:100830002077697468204D3939390A002121205305
:10084000544F502063616C6C656420626563617510
:100850007365206F6620424C546F75636820657223
:10086000726F72202D2072657374617274207769C3
:100870007468204D3939390A002F2F616374696F0C
:100880006E3A0070726F6D70745F00656E64005335
:10089000656E64204D31303820746F207265737539
:1008A0006D650A00496E736572742066696C616DCE
:1008B000656E7420616E642073656E64204D313006
:1008C000380A005265686561742066696E697368EC
:1008D00065642E0052656865617420446F6E650022
:1008E000526568656174696E672E2E2E00526568C8
:1008F000656174004865617465722054696D656F47
:1009000075740053656E64204D31303820746F204B
:1009100068656174206E6F7A7A6C650A004E6F7A32
:100920007A6C65205061726B656400486F74656E07
:100930006420746F6F20636F6C640A00706175735C
:1009400065640050617573650044697361626C652C
:1009500052756E6F75740050757267654D6F726574
:10096000005061757365640073686F770062757419
:10097000746F6E00626567696E004C6F616420463B
:10098000696C616D656E74004C6F61642046696CC2
:10099000616D656E74205400496E736572742066D3
:1009A000696C616D656E7420616E642073656E6440
:1009B000204D3130380A00726573756D65640052E0
:1009C0006573756D696E670057616974696E67203C
:1009D000666F72206865617475702E0A004C6561DF
:1009E00076696E6720473236003F537065636966EB
:1009F00069656420582C5920636F6F7264696E6159
:100A00007465206F7574206F6620626F756E6473F5
:100A10002E0A003F28522965706561742076616C4A
:100A20007565206E6F7420706C61757369626C659A
:100A30003B206D757374206265206174206C656164
:100A4000737420312E0A003F285229657065617445
:100A5000206D7573742062652073706563696669C3
:100A60006564207768656E206E6F74207573696E9B
:100A70006720616E204C43442E0A003F537065632B
:100A80006966696564206E6F7A7A6C652074656D3D
:100A90007065726174757265206E6F7420706C6120
:100AA000757369626C652E0A003F537065636966F1
:100AB0006965642066696C616D656E742073697A1E
:100AC00065206E6F7420706C61757369626C652E41
:100AD0000A003F53706563696669656420707269D6
:100AE0006D65206C656E677468206E6F7420706C25
:100AF00061757369626C652E0A003F5072696D659D
:100B0000206C656E677468206D7573742062652053
:100B1000737065636966696564207768656E206EC9
:100B20006F74207573696E6720616E204C43442E8C
:100B30000A003F537065636966696564206E6F7A69
:100B40007A6C652073697A65206E6F7420706C61B1
:100B5000757369626C652E0A003F52657472616339
:100B600074696F6E204D756C7469706C6965722064
:100B70006D7573742062652073706563696669655D
:100B8000642E0A003F53706563696669656420528C
:100B9000657472616374696F6E204D756C746970F1
:100BA0006C696572206E6F7420706C617573696218
:100BB0006C652E0A003F5370656369666965642041
:100BC0006C6179657220686569676874206E6F74FE
:100BD00020706C61757369626C652E0A0043292E62
:100BE0000A003F53706563696669656420626564E5
:100BF0002074656D7065726174757265206E6F74B6
:100C000020706C61757369626C65202834302D002A
:100C1000473236207374617274696E672E2E2E0A05
:100C2000004F46460A00466164652048656967686A
:100C3000742000426564204C6576656C696E67209F
:100C4000004661696C656420746F20656E61626C3A
:100C50006520426564204C6576656C696E670A00A4
:100C6000496E76616C6964206D6573682E0A005068
:100C7000726F62696E6720506F696E740025532031
:100C800025692F2569002E0A002F0050726F6269B6
:100C90006E67206D65736820706F696E7420002028
:100CA0002844525952554E29004732392041757413
:100CB0006F20426564204C6576656C696E67003F05
:100CC00020284C2C522C462C4229206F7574206F02
:100CD0006620626F756E64732E0A003F2856296580
:100CE00072626F7365206C6576656C20696D706CDF
:100CF00061757369626C652028302D34292E0A00D5
:100D0000426164205A2076616C75650A004E6F203E
:100D100062696C696E65617220677269640A004479
:100D20006576696174696F6E0025533A20257300FA
:100D300046696E6973686564210A003A207A3A2030
:100D400000206F662000476F696E6720746F3A203D
:100D5000580043570A00206469723A0020616E67A8
:100D60006C653A00537461727420726164697573C2
:100D70003A004D343820506F696E740025533A2084
:100D800025642F256400506F736974696F6E696EF6
:100D900067207468652070726F62652E2E2E0A00BF
:100DA0003F4C656773206F66206D6F76656D656E6D
:100DB0007420696D706C61757369626C6520283090
:100DC0002D3135292E0A003F2028582C5929206F13
:100DD0007574206F6620626F756E64732E0A005002
:100DE000726F6265206F7574206F6620626F756E1A
:100DF0006473003F53616D706C652073697A652080
:100E00006E6F7420706C61757369626C6520283434
:100E10002D3530292E0A004D3438205A2D50726F4E
:100E20006265205265706561746162696C6974798C
:100E300020546573740A003F2856296572626F73E7
:100E400065206C6576656C20696D706C6175736981
:100E5000626C652028302D34292E0A005374616E8F
:100E60006461726420446576696174696F6E3A20CA
:100E7000002052616E67653A2000204D61783A206B
:100E800000204D696E3A2000205369676D613A2059
:100E9000004D65616E3A20005741524E494E472140
:100EA000204C6F77205A204A65726B206D61792043
:100EB0006C65616420746F20756E77616E74656413
:100EC000207061757365732E0A004F4646004F4EC1
:100ED0000020204D61783A2000200020204D696ECE
:100EE0003A2000536F667420656E6473746F70737C
:100EF0003A20003D3D4F6E506F7765724C6F7373B3
:100F0000526573756D653D3D004D32342053256C3F
:100F1000642054256C64004739322E3920452573EE
:100F200000473120462564004739322E39205A25A2
:100F300073004731205A302046323030004731208C
:100F400058257320592573204633303030004D34F6
:100F5000323020532569205A2573004D3130362018
:100F600050256920532569004D32303020442573C7
:100F70000047323852305859004739322E3920450F
:100F800030205A300A47315A2573004D313039200C
:100F9000532569004D31393020532569004D3432D5
:100FA00030205330205A300020496E76616C6964DD
:100FB000206578747275646572200047322F47335C
:100FC0002062616420706172616D65746572730A7C
:100FD00000536C6565702E2E2E005A2050726F6281
:100FE000652050617374204265640A005A20507273
:100FF0006F62652050617374204265640047323827
:101000004C30004D3131372050726F62652066617F
:10101000696C65642E0A4732380A0070726F626527
:101020005F72657769706500473239205265747266
:1010300079696E670050726F62696E6720466169F8
:101040006C6564004D31313720426564206C6576F3
:10105000656C696E67206661696C65642E0A47304D
:10106000205A31300A4D3330302050323520533839
:1010700038300A4D333030205035302053300A4D4F
:101080003330302050323520533838300A4D333029
:1010900030205035302053300A4D3330302050321C
:1010A0003520533838300A4D333030205035302019
:1010B00053300A47342053310070726F62655F66A7
:1010C00061696C6564004D31313720426564206C84
:1010D0006576656C696E6720646F6E652E00205AB8
:1010E0003A200020593A200042656420583A2000F6
:1010F0004D65736820706F696E74206F7574206F12
:10110000662072616E67650A004D302053746F70FF
:10111000004D312053746F7000436F6E74696E75AB
:101120006500436C69636B20746F20526573756D45
:10113000652E2E2E004E6F204D6F76652E00456E6B
:10114000642066696C65206C6973740A0042656787
:10115000696E2066696C65206C6973740A004E6F55
:10116000206D656469610A00526573756D696E670B
:1011700020534400286E6F2066696C652900437512
:101180007272656E742066696C653A2000507269EF
:101190006E742074696D653A20000A53746174732B
:1011A0003A2046696C616D656E7420757365643AAA
:1011B00020002C204C6F6E67657374206A6F623A52
:1011C0002000546F74616C2074696D653A2000537F
:1011D000746174733A20002C204661696C65643A2E
:1011E00020002C2046696E69736865643A200050BF
:1011F00072696E74733A200053746174733A2000FC
:10120000436F6F6C696E672E2E2E0048656174699E
:101210006E672E2E2E0045202553006F6B006F66E3
:1012200066006A0465045E04570449044445425557
:10123000473A004D31313320530042656420436FFB
:101240006F6C696E672E2E2E0042656420486561C2
:1012500074696E672E2E2E00544D33442031305366
:101260002050726F204F46462E002F2F0020520034
:10127000416363656C65726174696F6E3A205000FA
:101280004D32303620580046523A0020466C6F7777
:101290003A20003A200020536572766F2000206FBC
:1012A0007574206F662072616E67650A00536572FF
:1012B000766F200020643A0020693A0020703A00DE
:1012C000496E76616C6964206578747275646572C4
:1012D0000A0020643A0020693A0020703A006469EC
:1012E0007300656E0043290A0061626C6564202802
:1012F0006D696E2074656D702000436F6C642065AD
:101300007874727564657320617265200050494479
:10131000204175746F74756E6500504944204175A5
:10132000746F74756E65206661696C656421204216
:101330006164206865617465722069640A004669A9
:101340006C616D656E742072756E6F757420646962
:101350007374616E636520286D6D293A20004669BB
:101360006C616D656E742072756E6F757420004DC2
:1013700034323120696E636F7272656374207061FC
:1013800072616D657465722075736167650A004DE1
:1013900065736820706F696E74206F7574206F6656
:1013A0002072616E67650A004F666673657473200C
:1013B0004170706C696564004572723A20546F6FB9
:1013C000206661722100546F6F2066617220667220
:1013D0006F6D207265666572656E636520706F69FA
:1013E0006E740A00454550524F4D204F4B0A005035
:1013F0006F7765722D6C6F7373207265636F76659E
:10140000727920004D383400446F6E652070726927
:101410006E74696E672066696C650A004D37370027
:101420004D3331004361703A004D454154504143C2
:101430004B00434F4F4C45525F54454D5045524130
:1014400054555245004348414D4245525F54454D25
:10145000504552415455524500424142595354451A
:101460005050494E470041524353004D4F54494F4D
:101470004E5F4D4F44455300544845524D414C5FDB
:1014800050524F54454354494F4E004C4F4E475FC6
:1014900046494C454E414D45004155544F524550EB
:1014A0004F52545F53445F53544154555300534477
:1014B0005F575249544500524550454154005344EA
:1014C000434152440050524F4D50545F5355505079
:1014D0004F525400454D455247454E43595F504188
:1014E0005253455200434153455F4C494748545F6E
:1014F0004252494748544E45535300544F47474C76
:10150000455F4C494748545300534F465457415246
:10151000455F504F574552004255494C445F504536
:101520005243454E54004C4556454C494E475F4446
:10153000415441005A5F50524F42450052554E4F60
:101540005554004155544F4C4556454C0050524956
:101550004E545F4A4F420050524F4752455353003A
:101560004155544F5245504F52545F54454D5000D1
:10157000564F4C554D455452494300454550524FE6
:101580004D0042494E4152595F46494C455F5452C5
:10159000414E534645520053455249414C5F584FC6
:1015A0004E5F584F4646004649524D574152455F9F
:1015B0004E414D453A4D61726C696E20322E302E8F
:1015C000375F4457372E332E3120544D3344205348
:1015D000534D44424220284170722032392032302B
:1015E00032312031333A34333A35362920534F558E
:1015F0005243455F434F44455F55524C3A687474BB
:1016000070733A2F2F6769746875622E636F6D2F40
:10161000496E73616E6974794175746F6D61746937
:101620006F6E2F4D61726C696E2F747265652F43FA
:101630007265616C6974794477696E5F322E30200F
:1016400050524F544F434F4C5F56455253494F4EA3
:101650003A312E30204D414348494E455F54595050
:10166000453A544D3344203130532050726F204559
:10167000585452554445525F434F554E543A3120C9
:10168000555549443A63656465326132662D34319B
:1016900061322D343734382D396231322D6335358E
:1016A0006336326633363766660A0050726F62659B
:1016B000204F6666736574205A0050726F62652011
:1016C0004F6666736574205A00290A0020746F20E3
:1016D000003F5A206F7574206F662072616E6765D7
:1016E000202800290A0020746F20003F59206F75C0
:1016F00074206F662072616E676520282D00290AAC
:101700000020746F20003F58206F7574206F662092
:1017100072616E676520282D0050726F6265204FE0
:10172000666673657420580043616E6E6F74206F37
:1017300070656E207375626469722000256973009C
:1017400025696D20256973002569682025696D204C
:1017500025697300256964202569682025696D2045
:101760002569730025697920256964202569682029
:1017700025696D20256973003D3D4477696E2049D8
:101780006E697420436F6D706C6574653D3D002A11
:101790002A2A4E6F7A7A6C6554656D705374617441
:1017A00075735B325D203D003D3D48656174696E37
:1017B0006720446F6E65204368616E6765204669E7
:1017C0006C616D656E743D3D0020207374617274B0
:1017D00070726F677265737320003D3D7761697445
:1017E00077617920353D3D003D3D776169747761D2
:1017F0007920343D3D003D3D776169747761792002
:10180000333D3D003D3D7761697477617920313D1D
:101810003D003D3D6F6E5072696E7454696D657226
:1018200053746F707065643D3D003D3D6F6E466161
:1018300063746F727952657365743D3D00270A0ABF
:101840000000272027002027002D006E6F74696696
:1018500069636174696F6E200063616E63656C001B
:101860005072696E742041626F72746564004469DD
:10187000736D6973730055492041626F72746564BA
:1018800000726573756D65004D3234002A2A2A4353
:10189000506C617920546F6E652A2A2A003D3D6F95
:1018A0006E5072696E7454696D65725061757365BE
:1018B000643D3D00486F6D696E67204661696C65E7
:1018C00064006F70656E0054524947474552454465
:1018D000003A200066696C616D656E74007A5F6D18
:1018E000696E00795F6D696E00785F6D696E005298
:1018F00065706F7274696E6720656E6473746F7063
:10190000207374617475730A0020746F6F206C6F9C
:101910006E6720657874727573696F6E207072657A
:1019200076656E7465640A0020636F6C6420657868
:1019300074727573696F6E2070726576656E74650A
:10194000640A00486F6D6520257325732573204652
:1019500069727374005761726E696E673A20486FDE
:101960006D696E672042756D702044697669736F8A
:1019700072203C20310A0002020400000000000036
:1019800000000000000000809D4300009B43000019
:10199000C843000000410000004100000040FFFF7C
:1019A000FF000000010000000100008000555555B7
:1019B000000000400033333300AAAA2A00499224D1
:1019C0000000002000C7711C0099991900D145172B
:1019D00000555515003BB113002449120011111197
:1019E00000000010000F0F0F00E3380E0043790DC8
:1019F00000CCCC0C00C3300C00E8A20B0064210B1F
:101A000000AAAA0A00703D0A009DD80900427B097D
:101A10000092240900DCD3080088880800104208DE
:101A20000000000800F0C107008787070075500715
:101A300000711C07003EEB0600A1BC060069900681
:101A40000066660600703E06006118060017F40581
:101A50000074D105005BB00500B29005006272050C
:101A6000005555050078390500B81E050005050527
:101A7000004EEC040087D40400A1BD040090A7042C
:101A80000049920400C17D0400EE690400C75604B9
:101A900000444404005C32040008210400411004A6
:101AA00000000004003FF00300F8E0030026D2032A
:101AB00000C3C30300CCB503003AA803000A9B038C
:101AC00000388E0300C08103009F750300D06903B6
:101AD00000505E03001D53030034480300913D0392
:101AE000003333030016290300381F030097150342
:101AF00000300C0300030303000BFA020049F1025B
:101B000000BAE802005CE002002DD802002DD002ED
:101B10000059C80200B0C0020031B90200DAB102B7
:101B200000AAAA0200A0A30200BC9C0200FA95022F
:101B3000005C8F0200DF88020082820200457C0286
:101B4000002776020027700200436A02007C6402CC
:101B500000D05E02003F590200C8530200FFFDFCA6
:101B6000FAF8F6F4F2F0EEECEAE9E7E5E3E1E0DEBC
:101B7000DCDAD9D7D5D4D2D0CFCDCBCAC8C7C5C36C
:101B8000C2C0BFBDBCBAB9B7B6B4B3B2B0AFADACEA
:101B9000AAA9A8A6A5A4A2A1A09E9D9C9A9998973F
:101BA00095949392908F8E8D8B8A89888786848373
:101BB0008281807F7E7D7B7A797877767574737287
:101BC00071706F6E6D6C6B6A69686766656463627D
:101BD00061605F5E5D5C5B5A595858575655545367
:101BE000525150504F4E4D4C4B4A4A494847464639
:101BF000454443424241403F3E3E3D3C3B3B3A39F7
:101C0000383837363535343332323130302F2E2EA6
:101C10002D2C2B2B2A292928272726252524232349
:101C200022212120201F1E1E1D1C1C1B1B1A1919DE
:101C30001818171616151514131312121111100F68
:101C40000F0E0E0D0D0C0C0B0A0A090908080707E8
:101C5000060605050404030302020100003D3D6F72
:101C60006E5072696E7454696D65725374617274EA
:101C700065643D3D0000809D4300009B430000C81B
:101C8000430000000000000000000000003D3D6F28
:101C90006E53746F726553657474696E67733D3DFE
:101CA000003D3D6F6E436F6E666967757261746962
:101CB0006F6E53746F72655772697474656E3D3DD3
:101CC0000053657474696E67732053746F72656432
:101CD000000A20696E6974207A70726F62655F7A9B
:101CE0006F6666736574203D20003D3D6F6E436FE7
:101CF0006E66696775726174696F6E53746F726531
:101D0000526561643D3D00454550524F4D20496E3E
:101D1000697469616C697A65640A003B20003A0A5B
:101D20000020204D363033200020440020204D3448
:101D3000313220530046696C616D656E7420727596
:101D40006E6F75742073656E736F723A0020550064
:101D50004C0046696C616D656E74206C6F61642F18
:101D6000756E6C6F6164206C656E677468733A00A1
:101D700020204D3835312058005A2D50726F626541
:101D8000204F66667365740020204D343133205334
:101D900000506F7765722D4C6F7373205265636FBF
:101DA000766572793A0020440020490020204D33A6
:101DB000303420500020440020490020204D333092
:101DC000312050005049442073657474696E677304
:101DD0003A00204A0020204732392057204900206D
:101DE000204D3432302053004175746F20426564B9
:101DF000204C6576656C696E673A0020204D323064
:101E000036205800486F6D65206F66667365743ABA
:101E10000020580020530020204D32303520420051
:101E2000416476616E6365643A20423C6D696E5F21
:101E30007365676D656E745F74696D655F75733E1C
:101E400020533C6D696E5F66656564726174653EC2
:101E500020543C6D696E5F74726176656C5F666577
:101E60006564726174653E20583C6D61785F785F8F
:101E70006A65726B3E20593C6D61785F795F6A6577
:101E8000726B3E205A3C6D61785F7A5F6A65726B57
:101E90003E20453C6D61785F655F6A65726B3E0010
:101EA00020540020520020204D3230342050004178
:101EB0006363656C65726174696F6E2028756E6905
:101EC00074732F7332293A20503C7072696E745FBC
:101ED000616363656C3E20523C7265747261637429
:101EE0005F616363656C3E20543C74726176656C1F
:101EF0005F616363656C3E0020204D3230312058B5
:101F0000004D6178696D756D20416363656C657224
:101F10006174696F6E2028756E6974732F7332292E
:101F20003A0020204D3230332058004D6178696DE1
:101F3000756D206665656472617465732028756EC1
:101F40006974732F73293A00537465707320706538
:101F50007220756E69743A0020440020204D3230A2
:101F6000302053002044697361626C65640A004646
:101F7000696C616D656E742073657474696E6773E6
:101F80003A0020286D6D2900202047323120202082
:101F9000203B20556E69747320696E206D6D003D85
:101FA0003D6F6E4C6F616453657474696E67733D09
:101FB0003D000000FA430000FA4300002041000009
:101FC0008C420000A0420000A0420000C843000074
:101FD0000C43EE020000EE020000640000003C0032
:101FE000000024F4D43050C38E20C2A24017828B4C
:101FF0007011127A910D816CD90AA861E108C75855
:102000006607615143061E4B5D05C145A7041A4191
:102010001104093D9803713931034036DB02653301
:102020009102D4305402802E1D02632CEE01752AD9
:10203000C501B028A001102781018F2564012B2440
:102040004B01E0223401AC211F018D200D01801FC6
:10205000FC00841EED00971DDF00B81CD200E61BBB
:10206000C600201BBC00641AB200B219A8000A19ED
:10207000A0006A189900D117910040178B00B5167F
:10208000840031167E00B31579003A157300C71429
:102090006F0058146A00EE1366008813630025135E
:1020A0005E00C7125B006C12570015125400C1117C
:1020B000510070114F0021114B00D61049008D10B6
:1020C00047004610440002104200C00F4000800F3D
:1020D0003E00420F3C00060F3B00CB0E3800930E33
:1020E00037005C0E3500270E3400F30D3200C10DB1
:1020F0003100900D3000600D2E00320D2D00050DC9
:102100002C00D90C2B00AE0C2900850C29005C0C8E
:102110002700350C27000E0C2600E80B2400C40B0A
:102120002400A00B23007D0B23005A0B2100390B48
:102130002100180B2000F80A1F00D90A1E00BB0A54
:102140001E009D0A1D00800A1D00630A1C00470A2C
:102150001B002C0A1B00110A1A00F7091A00DD09DE
:102160001900C4091900AB091900920917007B096D
:102170001800630917004C091600360916002009DB
:1021800016000A091500F5081500E0081400CC082F
:102190001400B8081400A4081400900813007D0867
:1021A00012006B0813005808120046081200340889
:1021B0001100230811001208110001081100F00796
:1021C0001000E0071000D0071000C0071000B00793
:1021D0000F00A107100091070E0083070F0074077E
:1021E0000F0065070E0057070E0049070E003B075A
:1021F0000D002E070E0020070D0013070D00060727
:102200000D00F9060C00ED060D00E0060C00D406EA
:102210000C00C8060C00BC060C00B0060C00A4069E
:102220000B0099060C008D060B0082060B0077064A
:102230000B006C060B0061060A0057060B004C06EB
:102240000A0042060A0038060A002E060A00240682
:102250000A001A060A001006090007060A00FD0512
:102260000900F4050900EB050900E2050900D9059C
:102270000900D0050900C7050900BE050900B5051C
:102280000800AD050800A50509009C050800940597
:1022900008008C050800840508007C05080074050A
:1022A00008006C050700650508005D050700560578
:1022B00008004E05070047050700400508003805DF
:1022C0000700310507002A050700230507001C0544
:1022D0000600160507000F050700080506000205A1
:1022E0000700FB040600F5040700EE040600E804FE
:1022F0000600E2040700DB040600D5040600CF0454
:102300000600C9040600C3040600BD040600B704A5
:102310000600B1040500AC040600A6040600A004F3
:1023200005009B04060095040500900406008A043D
:10233000050085040500800406007A040500750484
:102340000500700405006B040500660405006104C7
:1023500005005C04050057040500520405004D0407
:10236000050048040500430405003E0404003A0447
:10237000050035040500300404002C040500270482
:102380000400230405001E0404001A0404001604BB
:102390000500110404000D040400090405000404F0
:1023A000040000040400FC030400F8030400F40328
:1023B0000400F0030400EC030400E8030400E40359
:1023C0000400E0030400DC030400D8030400D40389
:1023D0000400D0030400CC030400C8030300C503B9
:1023E000030024F404D9201BC40C5C0E9804C40917
:1023F0005F0265077101F405F900FB04B3004804AE
:102400008700C10369005803550003034500BE025D
:102410003A008402310053022A00290225000402F6
:102420002000E4011C00C8011900AF011700980149
:1024300014008401130071011000610110005101AA
:102440000E0043010D0036010B002B010B00200193
:102450000B00150109000C01090003010800FB0035
:102460000800F3000800EB000700E4000600DE00AF
:102470000600D8000600D2000600CC000500C70008
:102480000500C2000500BD000400B9000400B5004D
:102490000400B1000400AD000400A9000400A50080
:1024A0000300A20003009F0004009B0003009800AB
:1024B00003009500020093000300900003008D00CC
:1024C00002008B00030088000200860002008400E6
:1024D0000300810002007F0002007D0002007B00FB
:1024E000020079000200770001007600020074000B
:1024F000020072000100710002006F0002006D0016
:1025000001006C0002006A0001006900020067001F
:102510000100660001006500010064000200620025
:10252000010061000100600001005F0002005D0029
:1025300001005C0001005B0001005A00010059002D
:10254000010058000100570001005600010055002D
:10255000010054000100530000005300010052002C
:10256000010051000100500001004F0001004E0029
:1025700000004E0001004D0001004C0001004B0026
:1025800000004B0001004A00010049000100480022
:10259000000048000100470001004600000046001E
:1025A0000100450000004500010044000100430017
:1025B0000000430001004200000042000100410011
:1025C000000041000100400001003F0000003F000A
:1025D00001003E0000003E0001003D0000003D0003
:1025E00001003C0000003C0000003C0001003B00FA
:1025F00000003B0001003A0000003A0001003900F1
:1026000000003900010038000000380000003800E8
:1026100001003700000037000100360000003600DE
:1026200000003600010035000000350000003500D4
:1026300001003400000034000000340001003300C9
:1026400000003300000033000100320000003200BF
:1026500000003200010031000000310000003100B4
:1026600001003000000030000000300001002F00A9
:1026700000002F0000002F0000002F0001002E009E
:1026800000002E0000002E0001002D0000002D0093
:1026900000002D0000002D0001002C0000002C0087
:1026A00000002C0000002C0001002B0000002B007B
:1026B00000002B0000002B0001002A0000002A006F
:1026C00000002A0000002A00010029000000290063
:1026D0000000290000002900000029000100280056
:1026E000000028000000280000002800000028004A
:1026F000010027000000270000002700000027003D
:10270000000027000100260000002600000026002F
:102710000000260000002600010025000000250022
:102720000000250000002500000025000000250015
:102730000100240000002400000024000000240008
:1027400000002400010023000000230000002300FB
:1027500000002300000023000000230000002300ED
:1027600001002200000022000000220000002200E0
:1027700000002200000022000100210000002100D2
:1027800000002100000021000000210000002100C5
:1027900000002100010020000000200000002000B7
:1027A00000002000000020000000200000002000A9
:1027B0000000200001001F0000001F0000001F009B
:1027C00000001F0000001F0000001F0000001F008D
:1027D00001001E0000001E0000001E0000001E0080
:1027E0000000393000003325000087190000B00FC9
:1027F0000000DB080000BD040000740200003F017F
:10280000000020436F756E7420583A00236465669B
:10281000696E652044454641554C545F0000626531
:1028200064004B6420004B6920004B70200050492D
:1028300044204175746F74756E652066696E6973A6
:10284000686564212050757420746865206C61731C
:1028500074204B702C204B6920616E64204B6420E7
:10286000636F6E7374616E74732066726F6D206235
:10287000656C6F7720696E746F20436F6E66696751
:1028800075726174696F6E2E680A00504944204168
:1028900075746F74756E65206661696C656421205E
:1028A00074696D656F75740A0050494420417574F0
:1028B0006F74756E65206661696C6564212054656E
:1028C0006D706572617475726520746F6F206869D0
:1028D00067680A00204B643A2000204B693A2000C8
:1028E000204B703A200020436C6173736963205061
:1028F0004944200A00204E6F206F76657273686F1E
:102900006F740A002054753A2000204B753A20005D
:10291000206D61783A2000206D696E3A20002064B5
:102920003A200020626961733A20005049442041F6
:1029300075746F74756E652073746172740A0050DB
:102940004944204175746F74756E65206661696CC9
:102950006564212054656D706572617475726520BF
:10296000746F6F20686967680A00426564004531CA
:1029700000626564002C2073797374656D20737434
:102980006F7070656421204865617465725F4944A9
:102990003A200048656174696E67204661696C651C
:1029A000640048656174696E67206661696C65647E
:1029B000004D3131322053687574646F776E0010AA
:1029C00000C90210012C014001220170011801B060
:1029D000010E01F00104015002FA00B002F00030D3
:1029E00003E600D003DC009004D2007005C800A00C
:1029F00006BE000008B400B009AA00D00BA0006019
:102A00000E960060118C000015820020197800C01D
:102A10001D6E00A0226400B0275A00902C500000C8
:102A2000314600E0343C0010383200903A28006013
:102A30003C1E00A03D1400803E0A00203F000054D0
:102A40004845524D414C2052554E41574159005432
:102A50006865726D616C2052756E617761790045B1
:102A600072723A204D415854454D50004D415854D2
:102A7000454D5020747269676765726564004572E0
:102A8000723A204D494E54454D50004D494E5445E3
:102A90004D502074726967676572656400202F006D
:102AA0002042403A0020403A0020573A0020573A4E
:102AB00000496E76616C696420657874727564652E
:102AC000720A007C3C3E5E2B3D3F2F5B5D3B2C2A17
:102AD000225C0043616E6E6F74206F70656E2073B0
:102AE00075626469722000534420496E69742046FF
:102AF00061696C0053442063617264206F6B0A004B
:102B00006F70656E526F6F74206661696C65640AE0
:102B100000766F6C756D652E696E697420666169EB
:102B20006C65640A004E6F20534420636172640A2E
:102B3000000A4D3234004D3233202573002E0A0036
:102B40006F70656E206661696C65642C2046696CE7
:102B5000653A200046696C652073656C6563746531
:102B6000640A002053697A653A200046696C652042
:102B70006F70656E65643A2000454E44205355429F
:102B8000524F5554494E450A002220706F7300225F
:102B900020706172656E743A2200535542524F554F
:102BA00054494E452043414C4C2074617267657412
:102BB0003A220053756263616C6C204F76657266D1
:102BC0006C6F77004578636565646564206D617836
:102BD00020535542524F5554494E452064657074F8
:102BE000683A002E0A0044656C6574696F6E206651
:102BF00061696C65642C2046696C653A2000466901
:102C00006C652064656C657465643A00534420709B
:102C100072696E74696E67206279746520004E6F08
:102C200074205344207072696E74696E670A00578D
:102C3000726974696E6720746F2066696C653A20EA
:102C400000667265736800646F696E67002066696C
:102C50006C653A20004E6F7720002F6175746F25E8
:102C6000632E67002020506C616E6E65724275663F
:102C700066657242797465733A2000204672656514
:102C8000204D656D6F72793A2000436F6D70696CED
:102C900065643A2041707220323920323032310A74
:102CA00000204C61737420557064617465643A202F
:102CB000323032312D30342D3138207C2041757442
:102CC000686F723A2054696E794D616368696E6508
:102CD0007333440A00322E302E375F4457372E3379
:102CE0002E310A004D61726C696E0020536F66745C
:102CF000776172652052657365740A0020576174AC
:102D00006368646F672052657365740A00204272BD
:102D10006F776E206F75742052657365740A00209A
:102D200045787465726E616C2052657365740A0033
:102D3000506F77657255700A0073746172740A007F
:102D40004739310A47315A350A4739300A4D383444
:102D50000A4D31303453300A4D3134305330004D48
:102D600031303031006572726F7220777269746928
:102D70006E6720746F2066696C650A00446F6E652B
:102D800020736176696E672066696C652E0A004D56
:102D9000323900456E6473746F70730025532025BB
:102DA0006320256320256320256300205A3A0020F4
:102DB000593A0020583A00656E6473746F7073203E
:102DC0006869743A200070012C0190012701B0015C
:102DD0002201C0011D01F00118011002130130028F
:102DE0000E016002090190020401C002FF0000030D
:102DF000FA004003F5008003F000D003EB0020044C
:102E0000E6007004E100E004DC004005D700C005E6
:102E1000D2004006CD00D006C8008007C3003008AD
:102E2000BE00F008B900C009B400B00AAF00B00B92
:102E3000AA00D00CA500000EA000500F9B00C010EF
:102E400096005012910000148C00C0158700B01736
:102E50008200B0197D00D01B7800001E7300402056
:102E60006E0090226900F024640040275F009029E2
:102E70005A00E02B5500102E500020304B0010322D
:102E80004600E033410090353C0010373700703881
:102E90003200A0392D00B03A2800A03B2300603C4E
:102EA0001E00103D1900903D1400103E0F00703EB2
:102EB0000A00C03E0500003F0000403FFBFF803F8E
:102EC000F6FFC03FF1FF00000A0B02090C0D0E08CF
:102ED00007030401000000000000000000000000E3
:102EE00000000000000000000000000000000000E2
:102EF000000012111000000000000000000000009F
:102F000000000000000000000000000050726F622E
:102F1000696E67204661696C656400205A3A20003A
:102F200020593A200042656420583A20003D3D6F08
:102F30006E55736572436F6E6669726D5265717519
:102F4000697265643D3D00220A00556E6B6E6F77B5
:102F50006E20636F6D6D616E643A20220020420026
:102F60002050006F6B00204500205A00205900209F
:102F70004D393220580020453A00205A3A00205955
:102F80003A00583A0020746F6F206C6F6E672065AE
:102F90007874727573696F6E2070726576656E7481
:102FA00065640A0020636F6C6420657874727573C1
:102FB000696F6E2070726576656E7465640A004391
:102FC000616E6E6F7420656E7465722073756264D5
:102FD00069723A20004D323520500A4D3234005289
:102FE0006573756D65005549205061757365004EB8
:102FF0006F204D61746368203A004D32320A4D32C1
:1030000031005265667265736800506755700050F4
:1030100067446F776E0049732046696C65200049EC
:1030200073204469722000476F55704469720048EC
:103030006173204D656469610046696C656E616D00
:10304000652053656C6563746564004D31303030C4
:1030500043004D313030300046696C616D656E74EF
:1030600020537461742030202D20330046696C6138
:103070006D656E7420537461742030202D203200F1
:1030800046696C616D656E742053746174203020E4
:103090002D2031002046696C616D656E742052658B
:1030A00073706F6E7365204E6F00526573756D653A
:1030B0002059657320647572696E67207072696E3D
:1030C00074000A204E6F2046696C616D656E740055
:1030D000496E76616C6964204F7074696F6E004D43
:1030E0003530300053746F72652053657474696EA7
:1030F00067730042656420504944205374617274C0
:103100006564004D3939390A4D3238305030533109
:10311000363000424C546F75636820526573657495
:10312000004D3530320A4D35303000496E6974201B
:10313000454550524F4D00486F74656E64205049AC
:1031400044205374617274656400456E676C6973E2
:103150006820416C7265616479205365740043682E
:10316000696E657365204E6F7420537570706F7251
:1031700074656400496E4C616E6743686F6963658E
:10318000000A202A2A2A7265636461742E646174BD
:10319000615B305D203D004732380A4731204631BF
:1031A000303030205A313000556E737570706F7248
:1031B000746564204F7074696F6E2053656C65632D
:1031C0007465640047323652323535004D3139303E
:1031D0005335350A4732380A4732390A4D343030D0
:1031E0000A4D313034533231350A4732380A4D31C5
:1031F0003039533231350A4D34323053310A473188
:10320000583130305931303046353030300A47315E
:103210005A300A4D3530300A4D31313720536574FC
:10322000205A204F6666736574004731204631305E
:103230003030205A302E30004732380A473120468D
:1032400031303030205A302E30004D353030005A79
:10325000204F6666736574203A202573004D353023
:1032600030005A204F6666736574203A202573003B
:103270004732380A473146313530305A302E300027
:103280004732385A0A473146313530305A302E30BD
:10329000004D383400473146313030305A302E300E
:1032A000004732380A473146313030305A302E30FC
:1032B000004D616E75616C53657454656D7000529C
:1032C0006571756573746564204F666673657420F7
:1032D0004265796F6E64204C696D697473005A2081
:1032E0004F6666736574203A20257300526F756EC1
:1032F00064696E6720746F20737465700052657125
:10330000756573746564204F666673657420005339
:10331000746F7020547269676765726564005374D6
:103320006F70204E6F0053746F705072696E74002E
:1033300048616E646C6520446174612041646A7503
:10334000737420322053657474696E6720536372FE
:1033500065656E200048616E646C6520446174612F
:10336000205072696E7446696C6520332053657411
:1033700074696E672053637265656E200048616EE4
:10338000646C652044617461205072696E74466992
:103390006C6520322053657474696E6720536372C4
:1033A00065656E20004D38340048616E646C6520A0
:1033B00044617461205072696E7446696C65205076
:1033C0006F73740048616E646C65204461746120A1
:1033D0005072696E7446696C652050726500426572
:1033E00067696E537769746368003D3D2043686583
:1033F000636B6B65793D3D007265636461742E613A
:10340000646472203D3D007265636461742E646182
:1034100074615B305D203D3D00776169747761794F
:10342000203D3D0020202A2A2A2A2A2A2A525453A3
:103430005F48616E646C65446174612A2A2A2A2A95
:103440002A2A2A2000526573656E643A2000000023
:103450002200250028002B002E003100340002013C
:103460000000050108010B010000210024002700D5
:103470002A002D0030003300010100000401070183
:103480000A010505050507050808080802020202E9
:103490000A0A0808040404040101010101010101F0
:1034A0000303030303030303040707070C0C0C0CBB
:1034B0000C0C0C0C020202020606060606060606A4
:1034C0000B0B0B0B0B0B0B0B010210202008081031
:1034D0002040102040800201020108040201010284
:1034E000040810204080804020100804020180045D
:1034F00002018040201008040201080402010102B8
:103500000408102040800102040810204080544D1F
:103510003344203130532050726F205265616479FA
:103520002E005072696E74696E672E2E2E005072D6
:10353000696E7420506175736564006E6F7469669E
:1035400069636174696F6E20005049442054756E40
:10355000652046696E697368656400003001C000CB
:1035600011241FBECFEFD1E2DEBFCDBF00E00CBF04
:1035700013E0A0E0B2E0E8EAF0E602E00BBF02C030
:1035800007900D92AC3FB107D9F726E1ACEFB3E05D
:1035900001C01D92A832B207E1F71AE1CFEADAE1E1
:1035A00000E006C021970109802FFE010F94812CB5
:1035B000CE3AD10780E00807A9F70F94F8190D94C7
:1035C00042300C9400009F92AF92BF92CF92DF9254
:1035D000EF92FF920F931F93CF93DF9300D01F9230
:1035E0001F92CDB7DEB7EDE5FBE10027BB27462FE5
:1035F000572FA82FAA2341F4A52F542FB85FAA2331
:1036000019F4A52F5527B85FA03138F45295A2952B
:10361000452F4F70507FA42BBC5FA03428F4550F6A
:10362000AA1F550FAA1FBE5FA03818F4550FAA1F76
:10363000B395550FAA1FEA0FF01F449151E0AA2736
:10364000B85081F1C8F0B0FF02C0440F551FB1FF60
:1036500004C0440F551F440F551FB2FF06C05295BA
:103660004295142F1F70407F512BB3FF1BC0A52F15
:10367000542F44270C94521BB195B0FF02C05595AE
:103680004795B1FF04C05595479555954795B2FFAD
:1036900005C05295407F4295452B5F70B3FF02C035
:1036A000452F5527DD24CC24BB24B2E0649FD018DD
:1036B000C108B00AB00B749FC018B108B00B849F4A
:1036C000B018B109659FC018B108B00B759FB0184C
:1036D000B109859FB0196A9FB018B1097A9FB019D6
:1036E0004D9DA12C99243327992722275D9DA00C5D
:1036F000911C301F901F201FAD9D900C311D901FFD
:10370000201F4C9DA00C911C301F901F201F5C9D02
:10371000900C311D901F201FAC9D300D911D201F5E
:103720004B9D900C311D901F201F5B9D300D911DF6
:10373000201FAB9D900D211D4B9F300D911D201F13
:103740005B9F900D211DAB9F200DB1E0BB24CC24CD
:10375000DD24639FD018C108B00AB00B739FC01856
:10376000B108B00B839FB018B109699FC018B108A8
:10377000B00B799FB018B109899FB019629FB0183A
:10378000B109729FB019D61AC70AB80A20F0B1E081
:103790003B0F901F201F1124792F632F90E0822F61
:1037A0000F900F900F900F900F90DF91CF911F917E
:1037B0000F91FF90EF90DF90CF90BF90AF909F90D0
:1037C0000895AF92BF92CF92DF92EF92FF920F9344
:1037D0001F93CF93DF93C2E3DCE005EE18E082E4B1
:1037E000A82E8CE0B82EC12CD12C7601C3946991FF
:1037F0007991899199910F94BF25288939894A89AE
:103800005B890F9420260F94FD2DF801619371932D
:10381000819391938F01C616D706E806F90610F436
:103820006B017C01AC16BD0611F76FEF7FEFCB018A
:10383000A70196010F94FE2B2093F5083093F6080C
:103840004093F7085093F808DF91CF911F910F91A3
:10385000FF90EF90DF90CF90BF90AF900895CF9200
:10386000DF92EF92FF928091F107882309F457C00D
:10387000C090ED07D090EE07E090EF07F090F007D2
:1038800020E030E0A901C701B6010F94BA258823D2
:1038900009F445C020E030E040E05FE3C701B60135
:1038A0000F9420269B01AC010F9420262BED3FE0C6
:1038B00049E450E40F9420269B01AC0160E070E0E5
:1038C00080E89FE30F94842D6B017C01C0927A0CF9
:1038D000D0927B0CE0927C0CF0927D0C60916502A2
:1038E00070916602072E000C880B990B0F94C1256E
:1038F0002AE037ED43E25CE30F942026A70196010E
:103900000F94202660936102709362028093630299
:1039100090936402FF90EF90DF90CF900895C12CB8
:10392000D12C80E8E82E8FE3F82ED0CF0F931F9391
:10393000CF93DF9350E0FC01E40FF51F8081440F2B
:10394000551F440F551F49565A4FEA01882329F144
:1039500088819981AA81BB81EB01088119812A8123
:103960003B810097A105B10569F40C591F4F2F4FFA
:103970003F4FDA010D931D932D933C9313978FEFD7
:10398000808306C0081B190B2A0B3B0B37FDF7CFB2
:10399000DF91CF911F910F910895188219821A8299
:1039A0001B82F6CFCF93DF9324E0829FC0011124C6
:1039B000EC01C853D74FFC01E250F84F8E50984F9E
:1039C000DC012D913D914D915C91608171818281ED
:1039D00093810F948A2C688379838A839B83DF91F8
:1039E000CF9108958091920590919305A0919405AF
:1039F000B09195058093410290934202A0934302B7
:103A0000B093440280919005909191059093680243
:103A10008093670208958091410290914202A091A3
:103A20004302B09144028093920590939305A09332
:103A30009405B093950580916702909168029093E8
:103A400091058093900584E690E0909368028093BE
:103A5000670208958091821290918312891B87706A
:103A600089F480918A0D81110DC080917E0C909116
:103A70007F0C892B39F481E09091A006911103C04D
:103A800080E0089581E00895CF93DF93DB01F90191
:103A90009C919130C1F0943080F094509C93883088
:103AA000D1F480819181009771F001979183808397
:103AB000480F591FEA01188206C08C3539F49C5F03
:103AC0009C93943041F4DF91CF9108958B3339F773
:103AD00081E08C93F8CF20813181B9016F5F7F4FF6
:103AE00071836083420F531FEA0188838081918133
:103AF0008F3591056CF7E7CF0F931F9381E000910D
:103B000026141091271420912814309129144091E3
:103B100022145091231460912414709125140417D9
:103B200015072607370708F480E01F910F910895C5
:103B300090E080E00895282F9091EC07833021F4E5
:103B400095FD0FC094FD0FC0892F90E0B0E0A0E07C
:103B500004C0B695A795979587952A95D2F7817059
:103B6000089581E0089580E00895FC0165917591C4
:103B70008591949108958F929F92AF92BF92CF9228
:103B8000DF92EF92FF92CF93DF93EC018090C40815
:103B90009090C508A090C608B090C70820E030E01B
:103BA000A901C501B4010F94BA25882309F454C0B2
:103BB000C880D980EA80FB80A7019601C501B401C5
:103BC0000F94BA2518160CF04CC02091BC08309107
:103BD000BD084091BE085091BF08C701B6010F94BF
:103BE000BA25882331F1C092BC08D092BD08E0927A
:103BF000BE08F092BF082091C0083091C1084091E2
:103C0000C2085091C308688179818A819B810F9491
:103C100020269B01AC0160E070E080E89FE30F94F8
:103C2000892C60930F02709310028093110290937D
:103C3000120260910F027091100280911102909116
:103C40001202DF91CF91FF90EF90DF90CF90BF9065
:103C5000AF909F908F90089560E070E080E89FE3C0
:103C6000F0CF60E070E0CB01ECCFCF92DF92EF922B
:103C7000FF92CF93DF93EC01CC80DD80EE80FF805C
:103C800027E137EB41ED58EBC701B6010F94EA2E5F
:103C900087FD23C023E030E04BE953E4C701B601C0
:103CA0000F94BA251816CCF0C880D980EA80FB8022
:103CB00027E137EB41ED58EBC701B6010F94EA2E2F
:103CC00087FD0BC0C1E023E030E84DE953E4C701B4
:103CD000B6010F94BA2518160CF4C0E08C2FDF91B2
:103CE000CF91FF90EF90DF90CF9008952FEB280FAA
:103CF0002A3108F047C0E22FF0E080912F05909123
:103D00003005A0913105B091320504C0B695A79554
:103D1000979587952A95D2F780FD02C08170089506
:103D2000EF5EFA4FE081EE2341F180917E079091A2
:103D30007F07E80FF92FF11D808190ED980F9A30E1
:103D400030F08E3251F4818180538A3098F4F093B0
:103D50000005E093FF0481E008958D3211F08B326D
:103D600049F4818190ED980F9A3088F38E3211F4E6
:103D70008281EACFF0E0E0E0EACF109200051092F5
:103D8000FF04E9CF80E008950E94761E882341F069
:103D900081E02091FF0430910005232B09F480E09D
:103DA00008958F929F92AF92BF92CF92DF92EF923F
:103DB000FF92C090CE05D090CF05E090D005F09056
:103DC000D10520E030E0A901C701B6010F94BA2562
:103DD0008823E1F1A701960160E070E080E89FE3AD
:103DE0000F94842D6B017C018090D2059090D305B7
:103DF000A090D405B090D50520E030E0A901C50120
:103E0000B4010F94BA25882329F1A501940160E03B
:103E100070E080E89FE30F94842DC092D804D09284
:103E2000D904E092DA04F092DB046093DC0470932E
:103E3000DD048093DE049093DF04FF90EF90DF9029
:103E4000CF90BF90AF909F908F900895C12CD12CB0
:103E50007601CACF60E070E0CB01DFCF129A0895FF
:103E60005F9A8091300C8E7F8093300C8A9A80917B
:103E7000300C8D7F8093300C80910801809581708B
:103E8000809306018091300C8B7F8093300C0C94D2
:103E90002E1F269A2E9A08958C3221E0920714F054
:103EA0008CE291E09093E7118093E6110C9424FD4D
:103EB000EAE0F6E0108211821282138214820C94DE
:103EC00024FD4F925F926F927F928F929F92AF925A
:103ED000BF92CF92DF92EF92FF920F931F93CF93F7
:103EE000DF93EC012091C6053091C7054091C805CC
:103EF0005091C905688179818A819B810F94892CB1
:103F00006B017C012091CA053091CB054091CC0515
:103F10005091CD056C817D818E819F810F94892C7C
:103F20004B015C01A70196016091030270910402AC
:103F300080910502909106020F94BA25882309F416
:103F400050C0C0920302D0920402E0920502F092A7
:103F500006022091D8043091D9044091DA0450919E
:103F6000DB04C701B6010F9420262B013C010F94FE
:103F70002C2E6B017C0120E030E0A9010F94BA25C2
:103F800087FD70C020E030E040E450E4C701B60196
:103F90000F94EA2E18162CF4C12CD12CC0E4EC2E70
:103FA000FE2CA7019601C301B2010F94892C6093E6
:103FB000D0047093D1048093D2049093D304C701AA
:103FC000B6010F94F62D6093CE04062E000C770BED
:103FD0006F5F7F4F6430710514F064E070E06093B0
:103FE000CC04D09101021091CE04A50194016091FE
:103FF0000702709108028091090290910A020F94C1
:10400000BA25811133C0D11381C02091B4043091FD
:10401000B5044091B6045091B7046091D0047091FA
:10402000D1048091D2049091D3040F942026209142
:10403000B8043091B9044091BA045091BB040F9474
:104040008A2CDF91CF911F910F91FF90EF90DF901D
:10405000CF90BF90AF909F908F907F906F905F9028
:104060004F900895C12CD12C76019BCF80920702EE
:1040700090920802A0920902B0920A022091DC04F8
:104080003091DD044091DE045091DF04C501B4019C
:104090000F9420264B015C010F942C2E6B017C01A8
:1040A00020E030E0A9010F94BA2587FDF3C020E09D
:1040B00030E040E450E4C701B6010F94EA2E181630
:1040C0002CF4C12CD12CB0E4EB2EFE2CA7019601D0
:1040D000C501B4010F94892C6093D4047093D50466
:1040E0008093D6049093D704C701B6010F94F62DA0
:1040F0006093CF04062E000C770B6F5F7F4F643008
:10410000710514F064E070E06093CD04C091CF04B9
:10411000D11305C0809102028C1709F470C0809100
:10412000CE049091CF0490930202809301020C2E52
:10413000000CDD0B25E01203C0011124FC01EC0F83
:10414000FD1FEE0FFF1FEE0FFF1FE857F84F2081F6
:104150003181428153812093C8043093C904409334
:10416000CA045093CB040091CD04002E000C110B17
:10417000FC01E00FF11FEE0FFF1FEE0FFF1FE857CE
:10418000F84F60817181828193810F94892C6093B3
:10419000C4047093C5048093C6049093C70420910F
:1041A000CC0435E02303F0011124CE0FDF1FCC0F28
:1041B000DD1FCC0FDD1FC857D84F288139814A81B8
:1041C0005B812093C0043093C1044093C204509398
:1041D000C304E00FF11FEE0FFF1FEE0FFF1FE857A4
:1041E000F84F60817181828193810F94892C609353
:1041F000BC047093BD048093BE049093BF04809070
:10420000D4049090D504A090D604B090D704209107
:10421000C4043091C5044091C6045091C704C5013F
:10422000B4010F9420262091C8043091C904409114
:10423000CA045091CB040F948A2C6B017C01C0926C
:10424000B804D092B904E092BA04F092BB04209171
:10425000BC043091BD044091BE045091BF04C5011F
:10426000B4010F9420262091C0043091C1044091E4
:10427000C2045091C3040F948A2CA70196010F9495
:10428000892C6093B4047093B5048093B604909322
:10429000B704BBCEC12CD12C760118CFCF92DF92C0
:1042A000EF92FF92CF93DF93EC0108960E94BB1D23
:1042B0006B017C0120E030E0A9010F94BA2520E0D9
:1042C00030E0A901882359F0CE010E94611F9B01B3
:1042D000AC01C701B6010F9420269B01AC01688593
:1042E00079858A859B850F94892C688779878A8749
:1042F0009B87DF91CF91FF90EF90DF90CF90089553
:104300002F923F924F925F926F927F928F929F92E5
:10431000AF92BF92CF92DF92EF92FF920F931F93D3
:10432000CF93DF93D62FC72FFC0180809180A2808E
:10433000B380C501B40120E831E541E050E00F94BD
:10434000FE2BC9016DE671E00F946D2C6B017C01B1
:10435000C501B40120E13EE040E050E00F94FE2BA7
:10436000CA01B90128E130E040E050E00F94FE2B93
:10437000362E272E062F172F8CE3482E512C612C1A
:10438000712CC501B401A30192010F94FE2BB62E2E
:10439000A72ECA01B901A30192010F94FE2BCB01F4
:1043A000C114D10479F1AF92BF927F936F932F9292
:1043B0003F92FF92EF92DF92CF9284E697E19F9334
:1043C0008F93CF93DF930F9451258DB79EB70E96A1
:1043D0000FB6F8949EBF0FBE8DBF8D2F9C2FDF911F
:1043E000CF911F910F91FF90EF90DF90CF90BF90F2
:1043F000AF909F908F907F906F905F904F903F9085
:104400002F900895E114F104C9F0AF92BF927F9309
:104410006F932F923F92FF92EF9284E597E19F93E3
:104420008F93CF93DF930F945125EDB7FEB73C9652
:104430000FB6F894FEBF0FBEEDBFCFCF012BB9F082
:10444000AF92BF927F936F932F923F9288E497E150
:104450009F938F93CF93DF930F9451258DB79EB782
:104460000A960FB6F8949EBF0FBE8DBFB6CF892BAC
:10447000A9F0AF92BF927F936F9380E497E19F93EF
:104480008F93CF93DF930F945125EDB7FEB73896F6
:104490000FB6F894FEBF0FBEEDBF9FCFAF92BF9295
:1044A0008CE397E19F938F93CF93DF930F945125E4
:1044B0000F900F900F900F900F900F908ECFEF9264
:1044C000FF920F931F93CF93DF93CDB7DEB78C018D
:1044D000EDB6FEB60F94072501962DB73EB7281B03
:1044E000390B0FB6F8943EBF0FBE2DBF8DB79EB7E8
:1044F0000196B8010F9400250E9447F90FB6F89471
:10450000FEBE0FBEEDBEDF91CF911F910F91FF90C8
:10451000EF9008958C38910514F08CE890E090931A
:104520007C1180937B110C94BDBEAB01BC01409308
:1045300026145093271460932814709329148EE83E
:1045400095E10C9475AF2F923F924F925F926F92CC
:104550007F928F929F92AF92BF92CF92DF92EF9213
:10456000FF920F931F93CF93DF93CDB7DEB7609782
:104570000FB6F894DEBF0FBECDBF8B876C87042FBC
:10458000122F282F30E03E872D87462F50E05A8784
:10459000498785E0982E929EC001939E900D11242C
:1045A000988B8F87FA01E80FF91FEE0FFF1FEE0FB0
:1045B000FF1FE857F84F60817181828193819B01D1
:1045C000AC010F947C2F882309F445C14B85400F23
:1045D0006C85610F949EC0011124E985FA85E80F6E
:1045E000F91FEE0FFF1FEE0FFF1FE857F84FC080B7
:1045F000D180E280F380040F909EA0011124E98510
:10460000FA85E40FF51FEE0FFF1FEE0FFF1FE857AF
:10461000F84F0081918082807380262F30E0EF85F3
:10462000F889E20FF31FEE0FFF1FEE0FFF1FE85791
:10463000F84F20807181798372817A8373817B83C3
:10464000610F70E0EF85F889E60FF71FEE0FFF1F8F
:10465000EE0FFF1FE857F84FF88BEF87F081FC83D0
:10466000EF85F889F181FD83EF85F889F281FE837A
:10467000EF85F889F381FF83FC01E20FF31FEE0F52
:10468000FF1FEE0FFF1FE857F84F20812887A180FA
:10469000B2806380FA01E60FF71FEE0FFF1FEE0FE7
:1046A000FF1FE857F84F4080518032801381202F40
:1046B000392D482D572D602F792D882D972D0F944A
:1046C0007C2F882321F000E0912C812C712C960105
:1046D000A701B601C7010F947C2F882321F0C02EBB
:1046E000D92CE82CF72C2C813D814E815F816C8187
:1046F0007D818E819F810F947C2F882321F01C82E5
:104700001D821E821F82222D39814A815B81622D8A
:1047100079818A819B810F947C2F882339F02C80AA
:104720003D8139834E814A835F815B839201432DB2
:10473000512FB201832D912F0F947C2F882321F0CC
:10474000412C512C312C10E028853A2D4B2D562D23
:1047500068857A2D8B2D962D0F947C2F882321F040
:104760004886A52CB32C612E85E02D853E85829F41
:10477000F001839FF00D112449855A85E40FF51F40
:10478000EE0FFF1FEE0FFF1FE857F84FFA87E9877C
:104790009601A701B601C7010F948A2C202F392D4D
:1047A000482D572D0F94892C6B017C01222D3981C6
:1047B0004A815B81622D79818A819B810F948A2C49
:1047C0002C813D814E815F810F94892C9B01AC012E
:1047D000C701B6010F948A2C6B017C0128853A2D04
:1047E0004B2D562D68857A2D8B2D962D0F948A2C66
:1047F0009201432D512F0F94892C9B01AC01C701CD
:10480000B6010F948A2C20E030E040E450E40F948D
:10481000842DE985FA8560837183828393836C8517
:104820008B8560960FB6F894DEBF0FBECDBFDF91CB
:10483000CF911F910F91FF90EF90DF90CF90BF909D
:10484000AF909F908F907F906F905F904F903F9030
:104850002F900C94DAF760960FB6F894DEBF0FBE77
:10486000CDBFDF91CF911F910F91FF90EF90DF901F
:10487000CF90BF90AF909F908F907F906F905F9000
:104880004F903F902F9008958091FF0490910005E4
:10489000009731F04AE050E070E060E00D94D523DD
:1048A00060E070E0CB0108958091FF0490910005D5
:1048B000009731F04AE050E070E060E00D94A722EC
:1048C00060E070E0CB010895CF93DF93EB010E948D
:1048D000C41E882319F00E945424EB01CE01DF91FD
:1048E000CF9108950E94542497FD0CC00E94542437
:1048F0006F3F71058105910509F034F40E9454243D
:10490000862F089580E008958FEF0895CF93C62FE6
:104910000E94C41E882319F0CF910C9472248C2F0E
:10492000CF9108958091FF0490910005892B41F06B
:104930000E94722491E0811101C090E0892F0895B6
:1049400091E0FCCFCF93DF93C82FD62F0E94C41ED7
:10495000882321F0DF91CF910C9492248C2F0E9418
:10496000761E811101C08D2FDF91CF9108950E9495
:104970005424CB010895CF93DF93EB010E94C41E12
:10498000882321F0DF91CF910C94B724CE01DF91E1
:10499000CF9108950F931F93CF938091FF0490912F
:1049A00000050097E9F0FC018F01C1912C2F2F7DAC
:1049B00081F0C53411F0C536B9F7F801108270E006
:1049C00060E00F944921F801C083CF911F910F91AE
:1049D000089570E060E0CF911F910F910D944921EF
:1049E00060E070E0CB01F1CFCF92DF92EF92FF92C7
:1049F0006A017B010E94C41E882331F0FF90EF9072
:104A0000DF90CF900C94CA24C701B601FF90EF90BD
:104A1000DF90CF9008954F925F926F927F928F9226
:104A20009F92AF92BF92CF92DF92EF92FF921F932D
:104A3000CF93DF9300D01F92CDB7DEB719821A82D1
:104A40001B821C82CE0101964C018CE6C82E87E0A9
:104A5000D82E90E2E92E9CE0F92E28ECA22E28E038
:104A6000B22E10E088E5810F0E94C41EF4018193EC
:104A70004F01882309F4E0C00E94CA242B013C01A5
:104A8000812F0E949B1D882309F4CCC0F70120814F
:104A9000318142815381C301B2010F948A2CF60106
:104AA00060837183828393831F5FF4E0CF0ED11CF8
:104AB00084E0E80EF11C94E0A90EB11C133091F6CD
:104AC00085E40E94C41E8C83882309F4C0C00E9420
:104AD000CA246B017C0183E00E949B1D882371F036
:104AE00020912C0C30912D0C40912E0C50912F0CBC
:104AF000C701B6010F948A2C6B017C01C092780724
:104B0000D0927907E0927A07F0927B078091C505F1
:104B1000882359F180912A1482FF27C08C81882331
:104B200021F18981811103C08A818823F1F02DEC64
:104B30003CEC4CE45DE360911308709114088091A3
:104B40001508909116080F948A2C9B01AC01609176
:104B5000280C7091290C80912A0C90912B0C0F94A9
:104B6000EA2E181614F40E9420F740E050E0BA0133
:104B700086E40E94F42420E030E0A9010F94EA2E9C
:104B8000181684F40E94CA2420E030E040E752E482
:104B90000F94842D609341027093420280934302EC
:104BA000909344028091DE0B83FD28C080918B0698
:104BB000882321F120912C0C30912D0C40912E0C4A
:104BC00050912F0C609178077091790780917A0746
:104BD00090917B070F94892C20919806309199062B
:104BE00040919A0650919B060F948A2C60939806E8
:104BF0007093990680939A0690939B060F900F905E
:104C00000F900F90DF91CF911F91FF90EF90DF9069
:104C1000CF90BF90AF909F908F907F906F905F905C
:104C20004F900895F5012081318142815381C30164
:104C3000B2010F94892C33CFF70180819181A28139
:104C4000B381F60180839183A283B3832DCF8091BA
:104C50002C0C90912D0CA0912E0CB0912F0C8093C8
:104C6000780790937907A0937A07B0937B074ECF8C
:104C7000CF92DF92EF92FF926B017C0183E3C81623
:104C8000D104E104F10470F082E3C81AD108E1080C
:104C9000F10862E370E080E090E00E94E5FC0E9491
:104CA00037C2ECCFC701B6010E94E5FCFF90EF9040
:104CB000DF90CF900C9437C2CF92DF92EF92FF92A9
:104CC0000F931F93CF93DF936B017A01EC01CC56C6
:104CD000DB4F28813CE0389F8001399F100D112463
:104CE00027FF24C0FB011182108288818F5F888397
:104CF00088819801280F311D87FD3A95C9012091BF
:104D00006D12F6012817190629F024F088818C30DD
:104D10000CF43CC080819181049680349C4908F455
:104D200075C0F60180819181049672C088819801D6
:104D3000280F311D87FD3A95C90120916D12281762
:104D4000190699F294F28881A801480F511D87FD38
:104D50005A95FA01EE0FFF1FE40FF51FEB5DFD4EB4
:104D6000808187FFC2CF8881F801E80FF11D87FDA0
:104D7000FA95CF01EE0FFF1FE80FF91FEB5DFD4E17
:104D8000808160E08F770E9483FBAFCF808191812B
:104D90002881A801420F511D27FD5A959A01FA0159
:104DA000EE0FFF1FE20FF31FEB5DFD4E21813281FD
:104DB000820F931FF7019183808388819801280FC8
:104DC000311D87FD3A95F901EE0FFF1FE20FF31F2A
:104DD000EB5DFD4E808187FF20C08881080F111D8B
:104DE00087FD1A95F801EE0FFF1FE00FF11FEB5D35
:104DF000FD4E808161E08F77DF91CF911F910F9100
:104E0000FF90EF90DF90CF900C9483FB80E49CE9BF
:104E1000F701918380838FEF8883DF91CF911F917A
:104E20000F91FF90EF90DF90CF9008950F931F9315
:104E3000CF93DF9306E41CE0CFE5D1E1F8012191A7
:104E40003191419151918F0160E070E080E89FE3E2
:104E50000F94842D6993799389939993F1E1CF36D7
:104E6000DF0761F70E945FF5DF91CF911F910F91EE
:104E70000C94E11BCF92DF92EF92FF92CF93DF93DE
:104E80002091310C222329F1EC0108960E94BB1DD0
:104E90006B017C0120E030E0A9010F94BA2520E0ED
:104EA00030E0A901882359F0CE010E94611F9B01C7
:104EB000AC01C701B6010F9420269B01AC016885A7
:104EC00079858A859B850F948A2C688779878A875C
:104ED0009B87DF91CF91FF90EF90DF90CF90089567
:104EE0002F923F924F925F926F927F928F929F92FA
:104EF000AF92BF92CF92DF92EF92FF920F931F93E8
:104F0000CF93DF93CDB7DEB76C970FB6F894DEBFC3
:104F10000FBECDBF8C015B015A834983FC01EA5B64
:104F2000FF4F208131814281538129873A874B8706
:104F30005C87CA01B9010F94BF256B017C01D501C3
:104F40002D913D914D915C910F9420260F94682DE9
:104F50002B013C01E981FA81208131814281538119
:104F6000C701B6010F9420260F94682D4B015C01F8
:104F7000C301B2010F94FD2D698B7A8B8B8B9C8BB7
:104F8000683771058105910540F428E730E040E07D
:104F900050E0298B3A8B4B8B5C8BC501B4010F948D
:104FA000FD2D6D877E878F87988B6837710581050A
:104FB000910540F448E750E060E070E04D875E877F
:104FC0006F87788BF801EE5AFF4F408051806280E6
:104FD0007380C301B2010F94C12569837A838B83E7
:104FE0009C8369897A898B899C890F94BF256D8BF5
:104FF0007E8B8F8B988F20E030E0A90169817A81C8
:105000008B819C810F94BA25882309F4E1C1A70103
:105010009601C701B6010F9420264B015C012D8932
:105020003E894F89588DCA01B9010F9420269B01F2
:10503000AC01C501B4010F94892C4B015C0129819D
:105040003A814B815C81CA01B9010F948A2C9B0182
:10505000AC01C501B4010F94842D0F94682D0F94F9
:10506000FD2D6D837E838F83988766277727CB01FD
:1050700064197509860997090F94C1254B015C01D4
:105080006D857E858F8598890F94BF252B013C0106
:1050900020E030E0A901C501B4010F94BA258823AE
:1050A00009F49AC1A3019201C301B2010F94202611
:1050B000698F7A8F8B8F9C8FA7019601C701B601EC
:1050C0000F9420269B01AC01698D7A8D8B8D9C8D70
:1050D0000F94892C6B017C01A5019401C501B401D9
:1050E0000F948A2C9B01AC01C701B6010F94842D4B
:1050F0000F942C2ED80195968D909D90AD90BC90DC
:105100009897750164012D813E814F815885C21A9F
:10511000D30AE40AF50A0F94FD2DC61AD70AE80A45
:10512000F90AF7FE8EC02D893E894F89588DCA0134
:10513000B9010F9420266B017C0129813A814B81B2
:105140005C81CA01B9010F948A2C69877A878B87A1
:105150009C8720E030E0A90169817A818B819C8164
:105160000F94BA25882309F43BC1C501B4010F94FB
:10517000BF2529853A854B855C850F942026A7019C
:1051800096010F94892C6D837E838F839887A3016A
:105190009201C301B2010F9420269B01AC016D81E5
:1051A0007E818F8198850F948A2C2B013C0120E011
:1051B00030E040E850E469817A818B819C810F94D2
:1051C00020269B01AC01C301B2010F94842D0F94E2
:1051D000682D2B013C0120E030E0A9010F94EA2E5C
:1051E00018161CF0412C512C3201C301B2010F944E
:1051F000FD2D6D837E838F83988786169706A8067C
:10520000B90620F48D829E82AF82B8866D817E8140
:105210008F8198850F94BF2529853A854B855C85BC
:105220000F942026A70196010F948A2C0F94382FF3
:105230000F94FD2D69877A878B879C87C12CD12C91
:10524000760169857A858B859C8529893A894B8980
:105250005C89621B730B840B950B0F94BF2529810E
:105260003A814B815C810F94842D20E034E244EF3D
:1052700059E40F9420260F94FD2D4B015C016985A4
:105280007A858B859C852D853E854F855889621B47
:10529000730B840B950B0F94BF2529813A814B81A9
:1052A0005C810F94842D20E034E244EF59E40F94A4
:1052B00020260F94FD2D2B013C013FE6831691041F
:1052C000A104B10408F090C0F401EE0FFF1FEE0F2F
:1052D000FF1FEF55F64E85919591A591B491898365
:1052E000292E3A2EBD8B4FE64416510461047104F9
:1052F00008F083C0F201EE0FFF1FEE0FFF1FEF5506
:10530000F64E45915591659174919A01CB014D816D
:105310005E816F817885D80199964D935D936D93E9
:105320007C939C974C0D5D1D6E1D7F1DF80145A75C
:1053300056A767A770ABE65BFF4F49895A896B890F
:105340007C894083518362837383D5968D929D922D
:10535000AD92BC92D897F80141AE52AE63AE74AE36
:10536000FD9649814083218232825D895383349640
:10537000208331838283938369857A858B859C859D
:10538000D1966D937D938D939C93D4973D962D8567
:105390003E854F85588920833183428353836C96A1
:1053A0000FB6F894DEBF0FBECDBFDF91CF911F9136
:1053B0000F91FF90EF90DF90CF90BF90AF909F90B4
:1053C0008F907F906F905F904F903F902F900895B7
:1053D00060E070E0CB0141CE60E070E0CB0188CEB0
:1053E00060E070E0CB01F3CEC501B4010E94E31A86
:1053F0006983272E382E9D8B76CFC301B2010E9480
:10540000E31A9B0184CF8091821290918312891BB1
:10541000877019F490E080E0089590917F129923AD
:1054200051F0833030F48FEF890F19F080937F12A1
:10543000F1CF10927F12809183122CE5829FC001E0
:1054400011248250974FFC01208120FDE3CF209151
:1054500083122F5F27702093801230918312209146
:105460008112321304C0209180122093811208957A
:1054700090916F0081E091FD02C080E008959091CD
:105480006F009D7F90936F00089580FF04C09091FE
:10549000960590FD8E7F81FF05C0909196059695AB
:1054A00090FD8D7F82FF06C090919605969596950A
:1054B00090FD8B7F08958F929F92AF92BF92CF9273
:1054C000DF92EF92FF92CF93DF9320914502222348
:1054D00009F49EC0EC0180919605C82ED12CF12CC8
:1054E000E12C80FF2CC08090470290904802A09051
:1054F0004902B0904A02288139814A815B81C50105
:10550000B4010F94EA2E181624F488829982AA8294
:10551000BB828090530290905402A0905502B090AC
:105520005602288139814A815B81C501B4010F94FB
:10553000BA2587FF04C088829982AA82BB82D701DC
:10554000C601B695A7959795879580FF2CC080904A
:105550004B0290904C02A0904D02B0904E022C81D4
:105560003D814E815F81C501B4010F94EA2E18166A
:1055700024F48C829D82AE82BF82809057029090EC
:105580005802A0905902B0905A022C813D814E8160
:105590005F81C501B4010F94BA2587FF04C08C82D6
:1055A0009D82AE82BF8282E0F694E794D794C7943E
:1055B0008A95D1F7C0FE2CC0C0904F02D090500207
:1055C000E0905102F0905202288539854A855B852A
:1055D000C701B6010F94EA2E181624F4C886D9869E
:1055E000EA86FB86C0905B02D0905C02E0905D0290
:1055F000F0905E02288539854A855B85C701B60132
:105600000F94BA2587FF04C0C886D986EA86FB8630
:10561000DF91CF91FF90EF90DF90CF90BF90AF9050
:105620009F908F900895CF92DF92EF92FF920F9309
:105630001F93C12CD12C76018C012CE23CE048E276
:105640005CE064E27CE080E29CE00E945BF41F91FD
:105650000F91FF90EF90DF90CF9008950C945FF53D
:1056600080919D06811105C080917C07882309F4F3
:1056700063C080918305659B59C0816080938305D9
:10568000909103018091830591FF52C082608093C5
:105690008305809183054B9B4DC084608093830577
:1056A0008091EA0580FF10C080919E0680FF0CC0AB
:1056B0008091830580FF08C08091E006816080931F
:1056C000E00680E00E9497C68091EA05869580FFFB
:1056D00011C080919E06869580FF0CC08091830545
:1056E00081FF08C08091E00682608093E00681E03F
:1056F0000E9497C68091EA058695869580FF1CC01A
:1057000080919E068695869580FF16C080917C07C5
:10571000882391F08091830582FF0EC08091E0067E
:1057200084608093E00682E00C9497C68E7FA6CFBB
:105730008D7FADCF8B7FB2CF089580919D06811173
:1057400004C080917C07882331F062E070E080E043
:1057500090E00C94382608950F931F9380911D11AB
:10576000813019F50E9418FD00919F051091A00548
:105770002091A1053091A205601B710B820B930B48
:1057800028EE33E040E050E00F94FE2B6091A3053B
:105790007091A4058091A5059091A605620F731FD5
:1057A000841F951F1F910F9108956091A705709117
:1057B000A8058091A9059091AA05D6CF10921D1138
:1057C00010929F051092A0051092A1051092A205BB
:1057D0001092A7051092A8051092A9051092AA058B
:1057E0001092A3051092A4051092A5051092A6058B
:1057F0000895CF92DF92EF92FF92CF93DF93C62F5F
:10580000FC01C080D180E280F38020E030E0A9017B
:10581000C701B6010F94BA2520E030E0A90187FD49
:1058200014C020E030E048EC52E4C701B6010F9408
:10583000EA2E24E630E040E050E0181634F0C701CC
:10584000B6010F94F62D9B01AC01C230A0F4D0E05C
:10585000C750D74FAFEFB0E00F943F2C24E630E0B5
:1058600040E050E00F94202C2F3F310519F010F04C
:105870002FEF30E02883DF91CF91FF90EF90DF9002
:10588000CF9008958091090180FD06C080912A146F
:1058900083FB882780F9089580E00895CF92DF92F6
:1058A000EF92FF92FC01C080D180E280F3806630ED
:1058B00019F510920F061092100610921106109210
:1058C0001206109213060E94BDBE20E030E0A9012E
:1058D000C701B6010F94BA2587FF1DC0C12CD12C7A
:1058E0007601C701B6010F94F72ECB01FF90EF9020
:1058F000DF90CF900C948A220E94581F20E030E065
:10590000A901C701B6010F94BA2587FF15C0C12CA4
:10591000D12C760121C020E030E04CE053E4C701F7
:10592000B6010F94EA2E1816E4F6C12CD12C9CE097
:10593000E92E93E4F92ED5CF20E030E046E953E498
:10594000C701B6010F94EA2E181634F4C12CD12CDD
:1059500086E9E82E83E4F82EC701B6010F94F72EEE
:10596000CB01FF90EF90DF90CF900C944C1F909163
:10597000300C977081E0973009F080E00895209115
:10598000810520FF14C020E83EE3629FA001639FD1
:10599000500D729F500D1124CA01969587959695CA
:1059A0008795009731F08A950000E9F708950C94E7
:1059B00038260895CF93DF931092DF0B1092800C5E
:1059C0001092820C1092810C1092800510927F052B
:1059D000CFEFDFEF80912A1485FD07C00E94D6AA81
:1059E000D093A912C093A812F5CF8FEF9FEF909399
:1059F000A9128093A812DF91CF9108958F929F9260
:105A0000AF92BF92CF92DF92EF92FF920F931F93CC
:105A1000CF93DF9310923405109233052FE3209338
:105A20002E0510922D0510922C0510922B05109228
:105A30002F051092300510923105109232059C010D
:105A4000F90190812F5F3F4F9032D1F39E34C9F41A
:105A5000818190ED980F9A3020F08D3211F08B32C9
:105A600081F432969F012F5F3F4F808180538A30AF
:105A700008F47BC09F012F5F3F4F8081803209F483
:105A800076C0F0937F07E0937E078F010F5F1F4F73
:105A9000C0816AE270E0C8010F94D82F009731F0FE
:105AA000FC01319780818032E1F31182CD3429F0FD
:105AB000C43519F0C73409F04BC0F80180810F5F7D
:105AC0001F4F8032D1F380538A3008F041C0C09319
:105AD0002E0530E020E04AE0DF011196429FC00130
