:100000000C947A130C94A4130C94A4130C94A413BE
:100010000C94A4130C94A4130C94A4130C94A41384
:100020000C94A4130C94A4130C94A4130C94A41374
:100030000C94A4130C9486250C94A4130C94A41370
:100040000C94A4130C9465230C9441C20C94A41337
:100050000C94437E0C94397E0C94A4130C94A4133A
:100060000C94A4130C94A4130C94A4130C94A41334
:100070000C94A4130C94A4130C94A4130C94A41324
:100080000C9493790C94A4130C94A4134E414E49F0
:100090004E495459494E46CDCCCC3D0AD7233C1746
:1000A000B7D13877CC2B329595E6241FB14F0A0093
:1000B0000020410000C84200401C4620BCBE4CCA83
:1000C0001B0E5AAEC59D7400407A10F35A00A07200
:1000D0004E18090010A5D4E80000E8764817000083
:1000E000E40B54020000CA9A3B000000E1F5050051
:1000F0000080969800000040420F000000A086019A
:10010000000000102700000000E803000000006469
:1001100000000000000A00000000000100000000D4
:10012000002C76D888DC674F0823DFC1DFAE59E1A9
:10013000B1B796E5E3E453C63AE651997696E8E618
:10014000C28426EB898C9B62ED407C6FFCEFBC9CEB
:100150009F40F2BAA56FA5F490055A2AF75C936BFD
:100160006CF9676DC11BFCE0E40D47FEF520E6B5B8
:1001700000D0ED902E0300943577050080841E0892
:100180000000204E0A000000C80C333333330F98B0
:100190006E12831141EF8D2114893BE65516CFFE77
:1001A000E6DB18D1844B381BF77C1D901DA4BBE403
:1001B00024203284725E228100C9F124ECA1E53D45
:1001C0002741425300504C410042656400456E6334
:1001D0006C6F73757265002568753A2530326875E5
:1001E0000025303268753A253032687500202020AD
:1001F000202020200020202020003FFFF038007029
:1002000030FC3020FC102078102030102C00D02E34
:1002100031D02F7BD02F7BD02E31D02C00D020306E
:100220001020781020FC1030FC303800703FFFF0B8
:100230003FFFF03800703186302387102787902FDA
:1002400087D02F03D0203010207810207810203055
:10025000102F03D02F87D027879023871031863027
:100260003800703FFFF0041040020820020820040C
:100270001040082080104100104100082080041028
:10028000400000001FFFF81FFFF863616E63656C9C
:10029000005072696E742041626F72746564004D23
:1002A00032350050617573696E672E2E2E007265AF
:1002B00073756D65004D32340050726F6265205A5F
:1002C000204F66667365740046696C2E2044696130
:1002D0002E004F6666004F6E004520696E206D6DE2
:1002E0005E3300452073746570732F6D6D005A2066
:1002F00053746570732F6D6D00592053746570735E
:100300002F6D6D00582053746570732F6D6D004113
:100310006476616E6365642053657474696E677397
:100320000046696C616D656E740053746570732F5F
:100330006D6D00436F6E66696775726174696F6E8B
:100340000053746F77004465706C6F790053572DBC
:100350004D6F64650053656C662D5465737400526F
:100360006573657400436F6E666967757261746961
:100370006F6E00526573746F7265204465666175B7
:100380006C7473004C6F61642053657474696E679C
:10039000730053746F72652053657474696E67736C
:1003A00000424C546F7563680050726F6265205A4A
:1003B000204F666673657400416476616E636564A0
:1003C0002053657474696E6773004D61696E004DEA
:1003D0003139305335350A4732380A4732390A4DF8
:1003E0003430300A4D313034533231350A473238E7
:1003F0000A4D313039533231350A4D3432305331B0
:100400000A4731583130305931303046353030308C
:100410000A47315A300A4D3530300A4D31313720D4
:10042000536574205A204F6666736574004D3130F1
:1004300036533132380A4D33303343385332313545
:100440004530550A4D3530300A4D3131372050494D
:10045000442054756E6520446F6E65004D3139300F
:100460005335350A4D313034533231350A4732383D
:100470000A4732394C310A4731205831303059312E
:10048000303046353030300A47315A30004D353043
:10049000300A4D3131372053657474696E677320AB
:1004A00053746F726564005072657020666F7220BD
:1004B0005A2041646A7573740053746F72652053D7
:1004C000657474696E6773005049442054756E6595
:1004D000005365747570004D61696E003F004261A4
:1004E000636B0053746F70004D3231005072696E4F
:1004F000742066726F6D204D656469610052656C91
:1005000065617365204D65646961004D3232004C50
:100510006576656C696E6720546F6F6C7300436F0E
:100520006E66696775726174696F6E0054656D708F
:1005300065726174757265004D6F74696F6E0052FB
:100540006573756D65205072696E740041747461D5
:100550006368204D656469610054756E650053746D
:100560006F70205072696E74005061757365205011
:1005700072696E7400496E666F2053637265656EB2
:100580000043616E6E6F7420656E746572207375C2
:10059000626469723A2000022E2E00015265667272
:1005A000657368004D61696E002100486F74656E67
:1005B0006420746F6F20636F6C64004261636B0032
:1005C00050726F63656564004D6F74696F6E0044AF
:1005D000697361626C652053746570706572730035
:1005E0004D3834004175746F20486F6D6500473297
:1005F00038004D61696E0050726568656174202431
:1006000020456E6400507265686561742024204244
:1006100065640054656D706572617475726500C5BE
:1006200001C101436F6F6C646F776E005072656833
:1006300065617420240046616E2053706565640016
:10064000426564004E6F7A7A6C65004D61696E0098
:1006500050726F6265205A204F666673657400465B
:100660006C6F770046616E2053706565640042656B
:1006700064004E6F7A7A6C65005370656564004D56
:1006800061696E00486F6D696E67204661696C65CF
:1006900064006F70656E00545249474745524544A7
:1006A000003A20007A5F6D696E00795F6D696E00B7
:1006B000785F6D696E005265706F7274696E672045
:1006C000656E6473746F70207374617475730A005F
:1006D00020746F6F206C6F6E67206578747275730D
:1006E000696F6E2070726576656E7465640A0020AD
:1006F000636F6C6420657874727573696F6E2070B7
:10070000726576656E7465640A00486F6D652025B4
:100710007325732573204669727374005761726E76
:10072000696E673A20486F6D696E672042756D701B
:100730002044697669736F72203C20310A000202FE
:100740000400000000000000000000000000809D88
:100750004300009B430000C843000000410000002C
:10076000410000004000809D4300009B430000C802
:10077000430000000000000000000000005365740A
:1007800074696E67732053746F72656400454550D9
:10079000524F4D20496E697469616C697A65640ACB
:1007A000000000FA430000FA4300002041000096D8
:1007B000420000A0420000A0420000C8430000BE6A
:1007C00042DC050000DC050000640000004B000076
:1007D0000024F4D43050C38E20C2A24017828B7004
:1007E00011127A910D816CD90AA861E108C7586687
:1007F00007615143061E4B5D05C145A7041A41110F
:1008000004093D9803713931034036DB02653391A9
:1008100002D4305402802E1D02632CEE01752AC5CD
:1008200001B028A001102781018F2564012B244BE2
:1008300001E0223401AC211F018D200D01801FFC3D
:1008400000841EED00971DDF00B81CD200E61BC619
:1008500000201BBC00641AB200B219A8000A19A03B
:10086000006A189900D117910040178B00B51684C3
:100870000031167E00B31579003A157300C7146F66
:100880000058146A00EE1366008813630025135E97
:1008900000C7125B006C12570015125400C11151B1
:1008A0000070114F0021114B00D61049008D1047E8
:1008B000004610440002104200C00F4000800F3E6E
:1008C00000420F3C00060F3B00CB0E3800930E3762
:1008D000005C0E3500270E3400F30D3200C10D31DF
:1008E00000900D3000600D2E00320D2D00050D2CF6
:1008F00000D90C2B00AE0C2900850C29005C0C27BC
:1009000000350C27000E0C2600E80B2400C40B2435
:1009100000A00B23007D0B23005A0B2100390B2173
:1009200000180B2000F80A1F00D90A1E00BB0A1E7F
:10093000009D0A1D00800A1D00630A1C00470A1B57
:10094000002C0A1B00110A1A00F7091A00DD091908
:1009500000C4091900AB091900920917007B091896
:1009600000630917004C0916003609160020091605
:10097000000A091500F5081500E0081400CC081459
:1009800000B8081400A4081400900813007D081291
:10099000006B0813005808120046081200340811B2
:1009A00000230811001208110001081100F00710BF
:1009B00000E0071000D0071000C0071000B0070FBC
:1009C00000A107100091070E0083070F0074070FA6
:1009D0000065070E0057070E0049070E003B070D84
:1009E000002E070E0020070D0013070D0006070D4F
:1009F00000F9060C00ED060D00E0060C00D4060C14
:100A000000C8060C00BC060C00B0060C00A4060BC7
:100A10000099060C008D060B0082060B0077060B72
:100A2000006C060B0061060A0057060B004C060A14
:100A30000042060A0038060A002E060A0024060AAA
:100A4000001A060A001006090007060A00FD05093B
:100A500000F4050900EB050900E2050900D90509C4
:100A600000D0050900C7050900BE050900B5050845
:100A700000AD050800A50509009C050800940508BF
:100A8000008C050800840508007C05080074050832
:100A9000006C050700650508005D050700560508A0
:100AA000004E050700470507004005080038050708
:100AB00000310507002A050700230507001C05066D
:100AC00000160507000F05070008050600020507C8
:100AD00000FB040600F5040700EE040600E8040627
:100AE00000E2040700DB040600D5040600CF04067C
:100AF00000C9040600C3040600BD040600B70406CE
:100B000000B1040500AC040600A6040600A004051C
:100B1000009B04060095040500900406008A040565
:100B20000085040500800406007A040500750405AC
:100B300000700405006B04050066040500610405EF
:100B4000005C04050057040500520405004D04052F
:100B50000048040500430405003E0404003A04056F
:100B60000035040500300404002C040500270404AB
:100B700000230405001E0404001A040400160405E2
:100B800000110404000D0404000904050004040419
:100B90000000040400FC030400F8030400F4030450
:100BA00000F0030400EC030400E8030400E4030481
:100BB00000E0030400DC030400D8030400D40304B1
:100BC00000D0030400CC030400C8030300C50303E2
:100BD0000024F404D9201BC40C5C0E9804C4095FE3
:100BE0000265077101F405F900FB04B300480487AE
:100BF00000C10369005803550003034500BE023AD3
:100C0000008402310053022A002902250004022038
:100C100000E4011C00C8011900AF0117009801147D
:100C20000084011300710110006101100051010ED8
:100C30000043010D0036010B002B010B0020010BBE
:100C400000150109000C01090003010800FB000860
:100C500000F3000800EB000700E4000600DE0006D9
:100C600000D8000600D2000600CC000500C7000531
:100C700000C2000500BD000400B9000400B5000476
:100C800000B1000400AD000400A9000400A50003A9
:100C900000A20003009F0004009B000300980003D3
:100CA000009500020093000300900003008D0002F5
:100CB000008B00030088000200860002008400030D
:100CC00000810002007F0002007D0002007B000224
:100CD0000079000200770001007600020074000233
:100CE0000072000100710002006F0002006D00013F
:100CF000006C0002006A0001006900020067000148
:100D0000006600010065000100640002006200014D
:100D10000061000100600001005F0002005D000151
:100D2000005C0001005B0001005A00010059000155
:100D30000058000100570001005600010055000155
:100D40000054000100530000005300010052000154
:100D50000051000100500001004F0001004E000052
:100D6000004E0001004D0001004C0001004B00004E
:100D7000004B0001004A000100490001004800004A
:100D80000048000100470001004600000046000145
:100D90000045000000450001004400010043000040
:100DA0000043000100420000004200010041000039
:100DB0000041000100400001003F0000003F000131
:100DC000003E0000003E0001003D0000003D00012B
:100DD000003C0000003C0000003C0001003B000023
:100DE000003B0001003A0000003A00010039000019
:100DF0000039000100380000003800000038000110
:100E00000037000000370001003600000036000007
:100E100000360001003500000035000000350001FB
:100E200000340000003400000034000100330000F2
:100E300000330000003300010032000000320000E7
:100E400000320001003100000031000000310001DB
:100E5000003000000030000000300001002F0000D2
:100E6000002F0000002F0000002F0001002E0000C6
:100E7000002E0000002E0001002D0000002D0000BB
:100E8000002D0000002D0001002C0000002C0000AF
:100E9000002C0000002C0001002B0000002B0000A3
:100EA000002B0000002B0001002A0000002A000097
:100EB000002A0000002A000100290000002900008B
:100EC000002900000029000000290001002800007E
:100ED0000028000000280000002800000028000171
:100EE0000027000000270000002700000027000066
:100EF0000027000100260000002600000026000058
:100F0000002600000026000100250000002500004A
:100F1000002500000025000000250000002500013C
:100F20000024000000240000002400000024000031
:100F30000024000100230000002300000023000023
:100F40000023000000230000002300000023000114
:100F50000022000000220000002200000022000009
:100F600000220000002200010021000000210000FA
:100F700000210000002100000021000000210000ED
:100F800000210001002000000020000000200000DF
:100F900000200000002000000020000000200000D1
:100FA00000200001001F0000001F0000001F0000C3
:100FB000001F0000001F0000001F0000001F0001B4
:100FC000001E0000001E0000001E0000001E0000A9
:100FD00000043700001E290000511B0000581000BB
:100FE0000010090000CC040000780200004101005C
:100FF0000020436F756E7420583A004265640045C6
:101000003100626564002C2073797374656D207300
:10101000746F7070656421204865617465725F4902
:10102000443A200048656174696E67204661696CC6
:1010300065640048656174696E67206661696C6506
:1010400064004D3131322053687574646F776E00DF
:101050001000C90210012C01400122017001180189
:10106000B0010E01F00104015002FA00B002F000DC
:101070003003E600D003DC009004D2007005C80005
:10108000A006BE000008B400B009AA00D00BA00062
:10109000600E960060118C00001582002019780007
:1010A000C01D6E00A0226400B0275A00902C500092
:1010B00000314600E0343C0010383200903A2800FD
:1010C000603C1E00A03D1400803E0A00203F00004E
:1010D000544845524D414C2052554E4157415900BC
:1010E000546865726D616C2052756E61776179002C
:1010F0004572723A204D415854454D50004D41586B
:1011000054454D5020747269676765726564004587
:1011100072723A204D494E54454D50004D494E543F
:10112000454D502074726967676572656400202FB1
:10113000002042403A0020403A007C3C3E5E2B3D7D
:101140003F2F5B5D3B2C2A225C00434F4D4D554E9B
:1011500049434154494F4E0044525952554E00455F
:1011600052524F525300494E464F004543484F009C
:10117000486F74656E642049646C652054696D65C0
:101180006F757400486F74656E642049646C6520E7
:1011900054696D656F75740A002121204B494C4CD0
:1011A0002063617573656420627920746F6F206DB0
:1011B00075636820696E6163746976652074696D12
:1011C00065202D2063757272656E7420636F6D6D7E
:1011D000616E643A200053544F505045442E200015
:1011E0005072696E7465722073746F7070656420DC
:1011F00064756520746F206572726F72732E20465D
:10120000697820746865206572726F7220616E64FF
:1012100020757365204D39393920746F20726573DC
:10122000746172742E202854656D706572617475D6
:1012300072652069732072657365742E205365741E
:1012400020697420616674657220726573746172BE
:1012500074696E67290A004E6F20436865636B737B
:10126000756D2077697468206C696E65206E756D88
:101270006265722C204C617374204C696E653A2053
:10128000004E6F20436865636B73756D20776974DA
:1012900068206C696E65206E756D6265722C204CDD
:1012A000617374204C696E653A2000636865636BF6
:1012B00073756D206D69736D617463682C204C616A
:1012C0007374204C696E653A20004C696E65204E3F
:1012D000756D626572206973206E6F74204C617346
:1012E00074204C696E65204E756D6265722B312CD1
:1012F000204C617374204C696E653A20004D313189
:10130000300053657269616C207374617475732069
:101310006D69736D617463680A005344207265617E
:1013200064206572726F720A004D656469612049BC
:101330006E73657274656400506C656173652052EC
:1013400065736574005052494E5445522048414CD3
:101350005445440025533A20255300706F77657239
:101360006F6666004B494C4C45442E200050726914
:101370006E7465722068616C7465642E206B696C94
:101380006C28292063616C6C6564210A0053544FFA
:10139000505045442E20005072696E74657220735F
:1013A000746F707065642064756520746F20657259
:1013B000726F72732E20466978207468652065729A
:1013C000726F7220616E6420757365204D393939F2
:1013D00020746F20726573746172742E20285465B6
:1013E0006D706572617475726520697320726573C2
:1013F00065742E205365742069742061667465726B
:101400002072657374617274696E67290A0065637E
:10141000686F3A004572726F723A0042696C696E89
:10142000656172204C6576656C696E6720477269EC
:10143000643A0A0021212053544F502063616C6CA0
:1014400065642062656361757365206F6620424C38
:10145000546F756368206572726F72202D207265FB
:1014600073746172742077697468204D3939390A50
:101470000021212053544F502063616C6C6564201F
:1014800062656361757365206F6620424C546F75A9
:101490006368206572726F72202D207265737461AB
:1014A00072742077697468204D3939390A004265B1
:1014B00064204C6576656C696E6720004661696CD6
:1014C000656420746F20656E61626C65204265649E
:1014D000204C6576656C696E670A00496E76616CB2
:1014E0006964206D6573682E0A0050726F62696EC0
:1014F0006720506F696E740025532025692F256978
:10150000002E0A002F0050726F62696E67206D65B1
:10151000736820706F696E742000202844525952FD
:10152000554E2900473239204175746F2042656459
:10153000204C6576656C696E67003F20284C2C5204
:101540002C462C4229206F7574206F6620626F75BF
:101550006E64732E0A003F2856296572626F7365A8
:10156000206C6576656C20696D706C61757369625D
:101570006C652028302D34292E0A00426164205ADF
:101580002076616C75650A004E6F2062696C696E29
:1015900065617220677269640A0020496E76616C29
:1015A00069642065787472756465722000536C6597
:1015B00065702E2E2E005A2050726F626520506189
:1015C0007374204265640A005A2050726F6265206D
:1015D0005061737420426564004732384C300020FB
:1015E0005A3A200020593A200042656420583A2097
:1015F000004D65736820706F696E74206F7574207C
:101600006F662072616E67650A00436C69636B20C8
:10161000746F20526573756D652E2E2E004E6F20EF
:101620004D6F76652E00456E642066696C65206C92
:101630006973740A00426567696E2066696C65208B
:101640006C6973740A004E6F206D656469610A00ED
:10165000706175736500286E6F2066696C6529007E
:1016600043757272656E742066696C653A2000532A
:1016700044207072696E74696E67206279746520A7
:10168000004E6F74205344207072696E74696E67E7
:101690000A002E0A0044656C6574696F6E206661ED
:1016A000696C65642C2046696C653A200046696C5B
:1016B000652064656C657465643A0025697300256E
:1016C000696D20256973002569682025696D2025CD
:1016D000697300256964202569682025696D2025C6
:1016E00069730025697920256964202569682025AA
:1016F000696D20256973005072696E742074696D7C
:10170000653A20006F6B006F6666006B1166115FB3
:101710001158114A1144454255473A0053755065D6
:10172000522043522D3130204F46462E0020450096
:10173000204D39322058004649524D574152455F9D
:101740004E414D453A4D61726C696E20322E302EFD
:10175000375F4457372E3320544D3344204F454D87
:1017600044424220284170722032342032303231DB
:101770002031373A34353A32392920534F555243C4
:10178000455F434F44455F55524C3A6874747073DB
:101790003A2F2F6769746875622E636F6D2F496EDB
:1017A00073616E6974794175746F6D6174696F6E80
:1017B0002F4D61726C696E2F747265652F4372656F
:1017C000616C6974794477696E5F322E30205052B3
:1017D0004F544F434F4C5F56455253494F4E3A3149
:1017E0002E30204D414348494E455F545950453AAB
:1017F00053755065522043522D3130204558545274
:10180000554445525F434F554E543A312055554942
:10181000443A63656465326132662D343161322D3C
:10182000343734382D396231322D633535633632F1
:101830006633363766660A002F2F004D3134352067
:10184000533C696E6465783E206F7574206F662026
:1018500072616E67652028302D31290A00205400FE
:10186000205200416363656C65726174696F6E3A02
:101870002050005741524E494E4721204C6F77204F
:101880005A204A65726B206D6179206C6561642015
:10189000746F20756E77616E746564207061757306
:1018A00065732E0A004D3230362058004F464600F0
:1018B0004F4E0020580020204D61783A2000200033
:1018C00020204D696E3A2000536F667420656E6467
:1018D00073746F70733A200046523A0020466C6F62
:1018E000773A20003A200020536572766F2000205E
:1018F0006F7574206F662072616E67650A005365AC
:1019000072766F200050726F6265204F6666736555
:1019100074205A0050726F6265204F66667365745A
:10192000205A0020643A0020693A0020703A0049A9
:101930006E76616C69642065787472756465720A8C
:101940000064697300656E0043290A0061626C657A
:101950006420286D696E2074656D702000436F6C83
:101960006420657874727564657320617265200007
:101970004D34323120696E636F727265637420700A
:101980006172616D657465722075736167650A00C7
:101990004D65736820706F696E74206F7574206F69
:1019A000662072616E67650A004F666673657473C0
:1019B000204170706C696564004572723A20546F02
:1019C0006F206661722100546F6F2066617220661D
:1019D000726F6D207265666572656E636520706FEB
:1019E000696E740A00454550524F4D204F4B0A0016
:1019F000290A0020746F20003F5A206F7574206FF1
:101A0000662072616E6765202800290A0020746FC5
:101A100020003F59206F7574206F662072616E67D9
:101A20006520282D00290A0020746F20003F5820CF
:101A30006F7574206F662072616E676520282D00B7
:101A4000205A0020590050726F6265204F666673FD
:101A500065742058004D383400446F6E65207072F4
:101A6000696E74696E672066696C650A004D373768
:101A7000004D333100496E76616C6964206578747D
:101A800072756465720A0020573A00436F6F6C6983
:101A90006E672E2E2E0048656174696E672E2E2E9D
:101AA00000452025530020573A0042656420436FCB
:101AB0006F6C696E672E2E2E00426564204865614A
:101AC00074696E672E2E2E0023646566696E65202C
:101AD00044454641554C545F004B6420004B6920FF
:101AE000004B702000504944204175746F74756E2E
:101AF000652066696E69736865642120507574207D
:101B0000746865206C617374204B702C204B6920C5
:101B1000616E64204B6420636F6E7374616E7473C6
:101B20002066726F6D2062656C6F7720696E746FCE
:101B300020436F6E66696775726174696F6E2E6897
:101B40000A00504944204175746F74756E652066B3
:101B500061696C6564212074696D656F75740A0034
:101B6000504944204175746F74756E6520666169D3
:101B70006C6564212054656D706572617475726561
:101B800020746F6F20686967680A00204B643A20F0
:101B900000204B693A2000204B703A200020436C13
:101BA000617373696320504944200A002054753AD8
:101BB0002000204B753A2000206D61783A200020EB
:101BC0006D696E3A200020643A20002062696173DA
:101BD0003A2000504944204175746F74756E652039
:101BE00073746172740A00504944204175746F74B3
:101BF000756E65206661696C6564212054656D7041
:101C00006572617475726520746F6F2068696768AA
:101C10000A00504944204175746F74756E652066E2
:101C200061696C6564212042616420686561746546
:101C3000722069640A00504944204175746F7475BC
:101C40006E65004572723A207574663820666F6E54
:101C500074206E6F7420696E697469616C697A654D
:101C6000642E004572723A207574663820666F6E75
:101C700074206E6F7420696E697469616C697A652D
:101C8000642E004572723A207574663820666F6E55
:101C900074206E6F7420696E697469616C697A650D
:101CA000642E00000C0F00FE07022503BB017FFE1F
:101CB00008FE08FE05080806000040F0C88888985D
:101CC0007810050808060000C0F88888888888F819
:101CD0000505050600012030F8302005080806003B
:101CE000002070F820202020E00509090600FF20D0
:101CF00070A8A8B888887020070505070001D86C6F
:101D0000366CD80509090600FFF8A88888888888F5
:101D1000A8F8050A0A0600FE205050505088A8A8CE
:101D2000887003030306000340A040FFFFFFFFFF8E
:101D3000FFFFFFFFFFFFFFFFFFFFFFFFFFFFFFFFB3
:101D4000FF0000000605FF010707060200808080F3
:101D500080800080030303060105A0A0A0050606FD
:101D600006000050F85050F8500509090600FF2001
:101D700070A8A07028A87020050707060000C8C832
:101D8000102040989805070706000040A0A040A832
:101D9000906801030306020580808003090906019B
:101DA000FF2040408080804040200309090601FF59
:101DB000804040202020404080050707060000208A
:101DC000A8702070A8200505050600012020F82035
:101DD000200203030601FFC0408005010106000345
:101DE000F8020202060100C0C0050707060000084D
:101DF000101020404080050707060000708898A852
:101E0000C8887003070706010040C040404040E01A
:101E1000050707060000708808102040F80507072E
:101E2000060000F808103008887005070706000053
:101E300010305090F81010050707060000F880F0E9
:101E400008088870050707060000304080F0888881
:101E500070050707060000F808101020202005076D
:101E600007060000708888708888700507070600DC
:101E70000070888878081060020505060100C0C05F
:101E800000C0C00206060601FFC0C000C0408003BB
:101E900005050601012040804020050303060002DD
:101EA000F800F80305050601018040204080050781
:101EB0000706000070881020200020050707060094
:101EC000007088B8A8B88070050707060000708801
:101ED00088F8888888050707060000F04848704899
:101EE00048F005070706000070888080808870052C
:101EF0000707060000F04848484848F0050707066D
:101F00000000F88080F08080F8050707060000F8E0
:101F10008080F08080800507070600007088808040
:101F2000988870050707060000888888F8888888E0
:101F3000030707060100E04040404040E005070776
:101F4000060000381010101090600507070600000A
:101F50008890A0C0A09088050707060000808080B8
:101F6000808080F805070706000088D8A888888840
:101F7000880507070600008888C8A898888805078C
:101F800007060000708888888888700507070600A3
:101F900000F08888F08080800507070600007088C0
:101FA0008888A89068050707060000F08888F0A0D8
:101FB0009088050707060000708880700888700503
:101FC0000707060000F8202020202020050707062C
:101FD00000008888888888887005070706000088C0
:101FE0008888885050200507070600008888888860
:101FF000A8A8500507070600008888502050888848
:1020000005070706000088885020202020050707C4
:10201000060000F80810204080F80309090601FFB7
:10202000E080808080808080E005070706000080D7
:102030004040201010080309090601FFE02020207D
:1020400020202020E005030306000520508805011C
:10205000010600FEF8030303060105804020050584
:1020600005060000700878887805070706000080DC
:1020700080F0888888F0050505060000708080885B
:102080007005070706000008087888888878050525
:10209000050600007088F080700507070600003014
:1020A0004840E04040400507070600FE70888888E9
:1020B0007808700507070600008080F08888888807
:1020C0000307070601004000C0404040E004090942
:1020D0000601FE1000301010101090600507070672
:1020E000000080808890E09088030707060100C008
:1020F0004040404040E0050505060000D0A8A8A8E3
:10210000A8050505060000B0C888888805050506ED
:10211000000070888888700507070600FEF0888830
:1021200088F080800507070600FE78888888780890
:1021300008050505060000B0C88080800505050675
:10214000000078807008F00507070600002020F8DE
:102150002020201805050506000088888898680555
:102160000505060000888888502005050506000042
:102170008888A8A8500505050600008850205088CA
:102180000507070600FE8888885020408005050561
:10219000060000F8102040F80309090601FF20405E
:1021A000404080404040200109090602FF808080B5
:1021B0008080808080800309090601FF80404040C4
:1021C000204040408005030306000248A890FF43DA
:1021D000616E6E6F74206F70656E207375626469D6
:1021E00072200053442063617264206F6B0A006F99
:1021F00070656E526F6F74206661696C65640A0069
:10220000766F6C756D652E696E6974206661696C98
:1022100065640A004E6F20534420636172640A00B3
:102220000A4D3234004D3233202573002E0A006FE0
:1022300070656E206661696C65642C2046696C650A
:102240003A200046696C652073656C65637465644B
:102250000A002053697A653A200046696C65206F50
:1022600070656E65643A2000454E442053554252D5
:102270004F5554494E450A002220706F73002220AA
:10228000706172656E743A2200535542524F555434
:10229000494E452043414C4C207461726765743A45
:1022A000220053756263616C6C204F766572666CB8
:1022B0006F77004578636565646564206D6178209B
:1022C000535542524F5554494E45206465707468C9
:1022D0003A0057726974696E6720746F2066696C82
:1022E000653A2000667265736800646F696E670006
:1022F0002066696C653A20004E6F7720002F61756B
:10230000746F25632E67006001F4017001EA01908B
:1023100001E001B001D601D001CC010002C20130C0
:1023200002B8016002AE019002A401D0029A01201D
:1023300003900170038601C0037C0130047201A088
:1023400004680120055E01B005540160064A0120C1
:10235000074001F0073601F0082C01100A22015055
:102360000B1801C00C0E01500E04013010FA0020B1
:1023700012F0005014E600C016DC007019D20050B4
:102380001CC800501FBE007022B400B025AA00F087
:1023900028A000202C9600302F8C0010328200A044
:1023A000347800F0366E00E0386400803A5A00401D
:1023B0003B5500E03B5000F03C4600C03D3C006017
:1023C0003E3200E03E2800303F1E00503F190070B2
:1023D0003F1400A03F0A00C03F0000D03FF6FFE0DE
:1023E0003FECFF2020506C616E6E65724275666630
:1023F000657242797465733A2000204672656520E3
:102400004D656D6F72793A2000436F6D70696C6530
:10241000643A2041707220323420323032310A0066
:10242000204C61737420557064617465643A203285
:102430003032312D30342D3138207C204175746894
:102440006F723A2054696E794D616368696E657385
:1024500033440A00322E302E375F4457372E330A6A
:10246000004D61726C696E0020536F667477617203
:10247000652052657365740A00205761746368644F
:102480006F672052657365740A002042726F776E21
:10249000206F75742052657365740A002045787446
:1024A00065726E616C2052657365740A00506F77B7
:1024B000657255700A0073746172740A004732388D
:1024C0005859004D31303031006F6B006572726FBA
:1024D000722077726974696E6720746F2066696C08
:1024E000650A00446F6E6520736176696E672066C9
:1024F000696C652E0A004D323900456E6473746F45
:102500007073002553202563202563202563202533
:102510006300205A3A0020593A0020583A00656E6C
:102520006473746F7073206869743A20000000004F
:10253000010200090A00000000040308070000006F
:1025400000000000000000000000000000004D6FCF
:1025500076652025736D6D004D6F766520302E31C8
:102560006D6D004D6F766520316D6D004D6F766538
:102570002031306D6D004D6F7665204178697300B4
:102580004578747275646572004D6F7665205A00E7
:102590004D6F76652059004D6F766520580050725A
:1025A000696E742066726F6D204D6564696100FF0D
:1025B000FFFF50726F62696E67204661696C6564E7
:1025C0000A0050726F62696E67204661696C6564CB
:1025D00000205A3A200020593A20004265642058D1
:1025E0003A2000220A00556E6B6E6F776E20636F83
:1025F0006D6D616E643A2022005375506552204320
:10260000522D31302052656164792E005072696E0E
:1026100074696E672E2E2E005072696E74205061A0
:10262000757365640020453A00205A3A0020593AF3
:1026300000583A004572726F722077726974696E41
:102640006720746F20454550524F4D210A00207479
:102650006F6F206C6F6E6720657874727573696F29
:102660006E2070726576656E7465640A0020636F13
:102670006C6420657874727573696F6E2070726512
:1026800076656E7465640A00526573656E643A20FF
:102690000000002200250028002B0000002100245B
:1026A0000027002A000202020202020202040404BD
:1026B00004040404040303030303030303010101EB
:1026C00001010101010102040810204080010204FF
:1026D0000810204080010204081020408080402023
:1026E00010080402012F2F616374696F6E3A0000B5
:1026F000DCD4FBDB11241FBECFEFD0E4DEBFCDBFA7
:1027000012E0A0E0B1E0E6E5F4ED01E00BBF02C0AD
:1027100007900D92A034B107D9F728E1A0E4B2E008
:1027200001C01D92A630B207E1F713E1C9E7D3E17A
:1027300004C02197FE010E948AE7C837D107C9F774
:102740000E94CBD50C941EEA0C9400000F931F93AB
:10275000CF93DF93CDB7DEB760970FB6F894DEBFA7
:102760000FBECDBF8C01DC01ED91FC910280F381A5
:10277000E02DBE016F5F7F4F0995882309F464C087
:102780008981807CC9F56F81637070E0762F662740
:10279000770F770F8885B4E08B9FC0011124682BD9
:1027A000792B89858295869586958370682B6F5FD6
:1027B0007F4F90E080E02A852370220F3B8537FB16
:1027C000332730F9232B3E813F70230F3327331FEC
:1027D0002750310904C0660F771F881F991F2A955B
:1027E000D2F760960FB6F894DEBF0FBECDBFDF9173
:1027F000CF911F910F910895803419F568856695E2
:10280000669570E090E080E0CB01772766272A8507
:10281000622B098510E0102F0027012E000C220BDF
:10282000330B602B712B822B932B6F5F7F4F8F4F5E
:102830009F4F4AE0660F771F881F991F4A95D1F76F
:10284000D0CF8BE0F801848360E070E0CB01C9CF8A
:102850000895FC0182810895CF92DF92EF92FF925A
:1028600080917002882309F457C0C0906C02D09008
:102870006D02E0906E02F0906F0220E030E0A9015E
:10288000C701B6010E949DE0882309F445C020E0FD
:1028900030E040E05FE3C701B6010E9403E19B0125
:1028A000AC010E9403E12BED3FE049E450E40E94BB
:1028B00003E19B01AC0160E070E080E89FE30E94CF
:1028C00017E86B017C01C0926702D0926802E09227
:1028D0006902F0926A0260911C0170911D01072E3D
:1028E000000C880B990B0E94A4E02AE037ED43E22C
:1028F0005CE30E9403E1A70196010E9403E160935B
:102900006401709365018093660190936701FF9065
:10291000EF90DF90CF900895C12CD12C80E8E82E65
:102920008FE3F82ED0CF8F929F92AF92BF92CF922B
:10293000DF92EF92FF92FC01C080D180E280F380B1
:1029400020E030E040E251E4C701B6010E9403E11B
:1029500020E030E040E251E40E9403E14B015C01E1
:1029600020E030E0A901C701B6010E949DE020E00F
:1029700030E040EA50E487FF04C020E030E040EA65
:1029800050ECC501B4010E9494E720E030E040E241
:1029900051E40E9417E80E9489E89B018BE237FF0F
:1029A00005C022273327261B370B8DE2809335067F
:1029B000C90168EE73E00E9476E7CB01EAE0F0E03F
:1029C000BF010E9476E7805D80933606C90164E608
:1029D00070E00E9476E7CB01BF010E9476E7805D40
:1029E00080933706C901BF010E9476E7282FCB01EB
:1029F000BF010E9476E7805D809338068EE2809367
:102A00003906205D20933A0685E396E0FF90EF902B
:102A1000DF90CF90BF90AF909F908F9008959C01D2
:102A200097FF26C0EE27FF27E81BF90B2D398FEF04
:102A300038070CF05DC08DE280933706CF0164E665
:102A400070E00E9476E7CB012AE030E0B9010E94F5
:102A500076E7805D80933806CF01B9010E9476E762
:102A6000CB01B9010E9476E7805D809339062AC0C8
:102A7000283E83E03807B4F1C90168EE73E00E9494
:102A800076E7CB01EAE0F0E0BF010E9476E7805DE7
:102A900080933706C90164E670E00E9476E7CB01B7
:102AA000BF010E9476E7805D80933806C901BF01AF
:102AB0000E9476E7CB01BF010E9476E7805D80939C
:102AC0003906F901CF016AE070E00E9476E7805D87
:102AD00080933A0687E396E008958DE237FDC5CFEF
:102AE00080E2C3CFF90180E2243631050CF0A4CF97
:102AF00080E28093370680933806EA30F1056CF364
:102B00008DE237FF80E280933806CF016AE070E003
:102B10000E9476E7605D60933906D4CF9C0197FDF3
:102B20002DC080E2243631055CF0C90164E670E016
:102B30000E9476E7CB016AE070E00E9476E7805D54
:102B40008093380680E22A3031055CF0EAE0F0E05C
:102B5000C901BF010E9476E7CB01BF010E9476E761
:102B6000805D80933906C9016AE070E00E9476E7D3
:102B7000805D80933A0688E396E00895319521952B
:102B800031098DE2DDCF282F81E3243609F080E280
:102B90008093370690E22A3040F03AE0822F632F8C
:102BA0000E9448E70E9448E7905D90933806822F84
:102BB0006AE00E9448E7905D9093390685E2809331
:102BC0003A0687E396E0089560911C0170911D011B
:102BD000072E000C880B990B0E94A4E02AE037ED29
:102BE00043E25CE30E9403E12091670230916802B6
:102BF0004091690250916A020E9403E1609364016E
:102C00007093650180936601909367010895CF9357
:102C1000DF93EC01CB01BA010E94A4E029EC38EC6F
:102C200048EC5EE30E9417E820E030E040E05FE31C
:102C30000E9494E70E9490E86883DF91CF91089505
:102C40000E94A4E029EC38EC48EC5EE30E9417E80F
:102C500020E030E040E05FE30E9494E70E9490E8CB
:102C600024E6629FC001112481589F4F6FEF70E0EE
:102C70000E9476E7862F0C94C315CF93DF93EC0167
:102C8000CB01BA010E94A4E020E030E0A9010E943B
:102C900094E70E9489E879836883DF91CF91089552
:102CA0000E94A4E020E030E0A9010E9494E70E9485
:102CB00089E8CB010C948E1580914206811104C0E5
:102CC0008091FA058093A4060895809119178823AE
:102CD000C1F0815080931917E2E5F5E1882351F0A6
:102CE0008150990B2BE1289FF001299FF00D1124B1
:102CF000E55FF94E8BE1A7E3B5E101900D928A956E
:102D0000E1F720911917211105C0809124178062E5
:102D10008093241781E090E0A0E0B0E0211103C08F
:102D200080E090E0DC018093300690933106A09320
:102D30003206B093330610922B0681E080932D0665
:102D400083E080935B0108958F929F92AF92BF9230
:102D5000CF92DF92EF92FF92CF936B017C0120E044
:102D600030E0A9010E949DE087FDAAC06DEB77E3EA
:102D700086E095E3A70196010E9494E76B017C0130
:102D800020E030E0A9010E949DE087FF9EC0C701BE
:102D9000B601905820E030E040E251E40E9403E1A7
:102DA00020E030E040E251E40E9403E120E030E026
:102DB00040EA50E40E9494E720E030E040E251E431
:102DC0000E9417E80E9489E86B017C0180E28093F1
:102DD000340660E280E1C81687E2D806E104F10417
:102DE0008CF0C701B60120E137E240E050E00E94DC
:102DF00007E7CA01B9012AE030E040E050E00E9454
:102E000007E7605D6093350660E288EEC81683E0F0
:102E1000D806E104F1048CF0C701B60128EE33E0D6
:102E200040E050E00E9407E7CA01B9012AE030E023
:102E300040E050E00E9407E7605D6093360660E284
:102E400084E6C816D104E104F1048CF0C701B60190
:102E500024E630E040E050E00E9407E7CA01B901F3
:102E60002AE030E040E050E00E9407E7605D6093B8
:102E700037068AE0882E912CA12CB12CC701B6010F
:102E8000A50194010E9407E7C62FCA01B901A50157
:102E900094010E9407E7605D609338068EE280939C
:102EA0003906C05DC0933A0684E396E0CF91FF9067
:102EB000EF90DF90CF90BF90AF909F908F9008954C
:102EC0006DEB77E386E095EB55CF20E030E040E214
:102ED00051E4C701B60162CFCF93DF93EC01CB0180
:102EE000BA010E94A4E020E030E040E251E40E94F8
:102EF00017E820E030E0A9010E9494E76883798315
:102F00008A839B83DF91CF9108950E94A4E020E003
:102F100030E040E251E40E9417E820E030E0A901EF
:102F20000E9494E70C94A416CF93DF93EC01CB019D
:102F3000BA010E94A4E020E030E04AE754E40E9495
:102F400017E820E030E0A9010E9494E768837983C4
:102F50008A839B83DF91CF9108958091B8159091DA
:102F6000B915891B8F7051F480915D06813031F065
:102F70008091241782FB882780F9089581E00895C5
:102F8000FC0184910895FC0180810895209104063C
:102F90003091050621153105E9F0809102069091E6
:102FA0000306029624503109821793079CF49093EC
:102FB0001A05809319050E94A0C1605E70448D4F70
:102FC0009F4F60931B0570931C0580931D05909384
:102FD0001E05089510921B0510921C0510921D05E8
:102FE00010921E0508958F929F92AF92BF92EF921A
:102FF000FF920F931F93CF93DF93EC018B01E42E8D
:10300000F22E8091CA159091CB158C179D0709F46B
:103010003EC02091460227FD109246022CE5C333A4
:10302000D20709F03FC08D51924671F40E94A0C1B1
:103030006E517B4F8F4F9F4F609364047093650474
:103040008093660490936704D093CB15C093CA1500
:1030500030E020E0009330061093310620933206D2
:1030600030933306E0922B06F0922C06CD51D246D7
:1030700021F410922A061092630482E080935B018F
:1030800081E080932D0610926A0410922906DF9148
:10309000CF911F910F91FF90EF90BF90AF909F90B5
:1030A0008F90089522E6CD31D20771F683539C4567
:1030B00019F0CDE1D2E6C8CF0E94A0C1809064048F
:1030C00090906504A0906604B0906704681979092F
:1030D0008A099B0997FFEDCF80914506877087305D
:1030E00041F7C4E0D6E5B0CF20E040E070E060E01A
:1030F00080EB9DE10C94F3178091B506811114C00B
:103100008091680190916901019720910915309192
:103110000A152817390744F420E040E070E060E029
:1031200085EB9DE10C94F3170C94741821E0209327
:103130002A06FC0180819181A281B38180931201D2
:1031400090931301A0931401B093150120E040E087
:1031500070E060E080911706909118060C94F317C8
:10316000CF93DF9300D000D0CDB7DEB78DEC9CECD1
:10317000ACECBCE389839A83AB83BC83CE0101961C
:103180000E9496180F900F900F900F90DF91CF91A3
:103190000895CF93DF9300D000D0CDB7DEB78DEC8C
:1031A0009CECACECBDE389839A83AB83BC83CE01FA
:1031B00001960E9496180F900F900F900F90DF913C
:1031C000CF910895CF93DF9300D000D0CDB7DEB775
:1031D00080E090E0A0E8BFE389839A83AB83BC835F
:1031E000CE0101960E9496180F900F900F900F90AD
:1031F000DF91CF910895CF93DF9300D000D0CDB76A
:10320000DEB780E090E0A0E2B1E489839A83AB83EB
:10321000BC83CE0101960E9496180F900F900F90DC
:103220000F90DF91CF9108950F931F930E94A0C13B
:1032300000912704109128042091290430912A0438
:10324000601B710B820B930B97FD0CC089B183FB44
:10325000882780F991E089274A9B8260309B8460AF
:10326000809326048091260481709091260491FD1C
:10327000826090912504981749F0813009F148F057
:10328000823079F0833091F0809325041F910F9163
:103290000895913079F09230B9F7909124049150CB
:1032A0000CC0992339F09330C1F3EECF9130A9F3DC
:1032B000923051F7909124049F5F90932404E4CFBF
:1032C000992359F3933001F7F5CFCF92DF92EF9224
:1032D000FF92CF93C82F0E94A0C16B017C0124EA0A
:1032E00030E74DE75FE36091120170911301809127
:1032F0001401909115010E949DE087FD18C08AEF8E
:1033000090E0A0E0B0E08C0D9D1DAE1DBF1D809330
:10331000180490931904A0931A04B0931B04C0934B
:103320001001CF91FF90EF90DF90CF90089580E053
:1033300090E0DC01E8CFCF93DF93EC018D810E9418
:10334000FA7E60E08B81DF91CF910C94A9C0DF926F
:10335000EF92FF920F931F93CF93DF938C01C62FB1
:10336000D22FF32EE42ED52E0E949B190E941FC24D
:103370008C2F80640E94EE7E8D2D0E94EE7E8E2D1D
:103380000E94EE7E8F2D0E94EE7E8D2F0E94EE7E9B
:1033900087E8C11101C085E90E94EE7ECC3011F4AE
:1033A0000E94F37EC0E00E94F37EF801868387FFCF
:1033B00004C0CF3F11F0CF5FF6CFDF91CF911F91C7
:1033C0000F91FF90EF90DF90089561E0FC01838101
:1033D0000E94A9C08FEF0C94EE7E0F931F93CF93A2
:1033E0008C010E949B190E941FC2C82F882371F074
:1033F0008DEF0E94EE7E0E941FC2C82FC8010E945E
:10340000E5198C2FCF911F910F91089582E1F8015A
:103410008483F4CF8F929F92AF92BF92CF92DF922C
:10342000EF92FF920F931F93CF93DF93EC016A010A
:103430007B01590120E030E0A90167E30E94A71950
:10344000A501980167E1CE010E94A719811127C04B
:103450008F81833039F089E0CC0CDD1CEE1CFF1C21
:103460008A95D1F7A701960169E1CE010E94A719BB
:1034700011E0882319F010E087E08C83CE010E94D0
:10348000E519812FDF91CF911F910F91FF90EF9060
:10349000DF90CF90BF90AF909F908F90089589E07C
:1034A0008C8310E0EBCFCF93DF93EC016EBDFA017C
:1034B000CA019E5F0DB407FEFDCF20812EBD0DB465
:1034C00007FEFDCF21812EBD3296E817F90791F74F
:1034D0000DB407FEFDCF8FEF0E94EE7E8FEF0E94AE
:1034E000EE7E0E94F37E8E838F71853049F083E1FA
:1034F0008C83CE010E94E51980E0DF91CF91089581
:1035000081E0FBCF0F931F93CF93DF93EC018B01EF
:103510000E949B190E941FC281110CC085E18C83FF
:1035200010E0CE010E94E519812FDF91CF911F910C
:103530000F910895A8016CEFCE010E94531A182F25
:10354000882361F3EECF0F931F93CF93DF93EC01AA
:1035500089018F81833039F089E0440F551F661F40
:10356000771F8A95D1F79A01AB0168E1CE010E94DD
:10357000A71981112AC0A8016EEFCE010E94531A2B
:10358000182F8823B1F00E941FC2182F8823D1F072
:1035900020E030E0A9016DE0CE010E94A719882348
:1035A00021F086E18C8310E004C00E94F37E81113B
:1035B000F8CFCE010E94E519812FDF91CF911F91A5
:1035C0000F91089587E18C83F4CF86E0EBCF1F93B2
:1035D000CF93DF93EC010E949B1920E030E0A9011A
:1035E0006CE0CE010E94A71911E0882319F010E0C9
:1035F00083E08C83CE010E94E519812FDF91CF916A
:103600001F9108951F93CF93DF93EC018F81833037
:1036100039F089E0440F551F661F771F8A95D1F74F
:103620009A01AB0162E1CE010E94A71911E0882343
:1036300019F010E085E08C83CE010E94E519812FFE
:10364000DF91CF911F9108958F929F92AF92BF9279
:10365000EF92FF920F931F93CF93DF938C01EB01B7
:103660007A010E94A0C14B015C012CE2820E21E094
:10367000921EA11CB11C0E94F37EF80186838F3F2D
:1036800069F40E94A0C1681979098A099B0997FD0C
:10369000F2CF81E1F8018483C0E021C08E3F71F553
:1036A000F1E0EF1AF1088FEF8EBDFE012FEF0DB4A0
:1036B00007FEFDCF8EB581932EBDCF018C1B9D0BD8
:1036C0008E159F05A0F30DB407FEFDCF8EB5CE0D70
:1036D000DF1D88830E94F37E0E94F37EC1E0C80153
:1036E0000E94E5198C2FDF91CF911F910F91FF90D0
:1036F000EF90BF90AF909F908F9008958FE0CACFCA
:103700000F931F93CF93DF93EC018B010E949B19C2
:1037100040E052E0B801CE01DF91CF911F910F91AF
:103720000C94241B0F931F93CF93DF93EC0189011B
:103730008F81833039F089E0440F551F661F771F52
:103740008A95D1F79A01AB0161E1CE010E94A719D8
:1037500081110AC040E052E0B801CE01DF91CF9163
:103760001F910F910C94241B84E08C83CE010E9446
:10377000E51980E0DF91CF911F910F9108958F920D
:103780009F92AF92BF92CF92DF92EF92FF920F93F0
:103790001F93CF93DF93EC01162F1F821C824B8364
:1037A0000E94A0C16B017C0120EDC20E27E0D21E59
:1037B000E11CF11CA89561E08B810E94A9C08B815E
:1037C0000E9410B8249A2C9A279A2698259A81E06C
:1037D0000E94FA7E85E08D830E94FA7E0AE08FEFD8
:1037E0000E94EE7E0150D9F7A89520E030E0A901B3
:1037F00060E0CE010E94A7198E83813081F00E9483
:10380000A0C16C197D098E099F0997FDEECF81E05B
:103810008C83CE010E94E5191A8280E06AC0A895C7
:103820002AEA31E040E050E068E0CE010E94A719AA
:10383000853041F581E08F83A8958F81812C912C73
:103840005401823029F4812C912CA12C80E4B82ED3
:1038500020E030E0A90167E3CE010E94A719A5018D
:10386000940169E2CE010E94A7198E838823F1F0AA
:103870000E94A0C16C197D098E099F0997FDE8CFB0
:103880008AE0C6CF04E00E94F37E8E830150D9F710
:103890008A3A11F482E0CFCF0E94A0C16C197D0951
:1038A0008E099F0997FDBCCF82E0B2CF8F81823015
:1038B000C1F420E030E0A9016AE3CE010E94A7191B
:1038C000882311F088E0A4CF0E94F37E807C803CA6
:1038D00011F483E08F830E94F37E0E94F37E0E94A6
:1038E000F37ECE010E94E51981E08A83173070F4DF
:1038F0001D83DF91CF911F910F91FF90EF90DF908B
:10390000CF90BF90AF909F908F90089588E18C8367
:1039100084CF0F931F93CF93DF93EC018B0120E0B3
:1039200030E0A90169E00E94A71981110AC040E1B5
:1039300050E0B801CE01DF91CF911F910F910C940F
:10394000241B80E18C83CE010E94E51980E0DF9189
:10395000CF911F910F910895CF93C82FCB010E9453
:103960006A7A81EA96E00E946A7A82E996E0CC233C
:1039700011F087E996E00E946A7A8AE0CF910C9470
:10398000527A0C94ACC10C94ACC14091E50221E098
:1039900042276CE070E00C9452B94091E50221E0BE
:1039A000422764E070E00C9452B94091E50221E0B6
:1039B000422761E070E00C9452B94091E50221E0A9
:1039C000422762E070E00C9452B94091E50221E098
:1039D000422761E070E00C9452B94091E50221E089
:1039E000422768E070E00C9452B94091E50221E072
:1039F00042276CE070E00C9452B941E061E070E065
:103A00000C9452B94091E50221E042270C9452B93E
:103A100062E070E00C9438C16CE070E00C9438C146
:103A200064E070E00C9438C161E070E00C9438C13F
:103A300061E070E00C9438C16CE070E00C9438C127
:103A4000CF93DF938091B8159091B915891B80951C
:103A50008F7019F40E942F83F5CF8091B8158F5F76
:103A60008F70A091B8159BE4A99FD0011124FD018E
:103A7000E854F94FEF0119929A95E9F798E090838D
:103A8000A353B94F90E1EAEBF5E101900D929A95BD
:103A9000E1F72091B8159091B915291303C094E668
:103AA0009093B5158093B815DF91CF910C949377CF
:103AB000CF92DF92EF92FF920F931F93C12CD12CE4
:103AC00076018C0128E736E044E756E060E776E0CF
:103AD0008CE696E00E94AAB81F910F91FF90EF909C
:103AE000DF90CF900895CF93DF9300D000D0CDB773
:103AF000DEB784EF91E0A0E0B0E089839A83AB83E6
:103B0000BC83BE016F5F7F4F88E70E9408790F90EA
:103B10000F900F900F90DF91CF910895CF93DF9387
:103B2000CDB7DEB720E24F8158856E818D810E942E
:103B300023BDDF91CF9108956FEF8091FA050C942A
:103B40003CBF6FE17EE482E00C94C3D264E27EE489
:103B500081E00C94C3D269E27EE480E00C94C3D28D
:103B60006EE27EE483E00C94C3D20F931F9309EAC4
:103B700015E02BEA35E044E758E16BEB75E080ECAB
:103B800095E00E94BEC41F910F9108950F931F935B
:103B90000CED14E02EE535E04EEC5EE56EED74E0E4
:103BA00083EE94E00E94BEC41F910F910895CF92BE
:103BB000DF92EF92FF92CF93DF9300D000D0CDB78A
:103BC000DEB70E94A4E020E030E04AE754E40E941F
:103BD00017E820E030E0A9010E9494E76B017C0126
:103BE00020E030E0A9010E949DE02DEB37E346E0A4
:103BF00055E387FF04C02DEB37E346E055EBC701E3
:103C0000B6010E9494E769837A838B839C83CE01FB
:103C100001960E94DCBD0F900F900F900F90DF91E6
:103C2000CF91FF90EF90DF90CF90089580915B014E
:103C3000882341F0609168047091690441E081E05B
:103C40000C94C6BC0895CF93DF93EC010E94E6CBA1
:103C50001B82DF91CF910895CF93DF93EC01462F24
:103C600041706C857D858E859F850E94B3C88823B1
:103C700051F0888920E2829FC00111248C509D4E12
:103C8000DF91CF91089590E080E0FACFCF93DF935A
:103C9000EB01FC012381211104C080E0DF91CF9171
:103CA00008952250223028F48FE28883198281E01F
:103CB000F5CF60E00E942C1E009779F3DC0160E0F4
:103CC00080E09EE22D91203299F0883031F49E01FF
:103CD000260F311DF90190836F5F9E01260F311D64
:103CE000AD0141505109FA014081F90140836F5FF4
:103CF0008F5F8B3039F7FE01E60FF11D1082D7CFB1
:103D00003F924F925F926F927F928F929F92AF926B
:103D1000BF92CF92DF92EF92FF920F931F93CF93B8
:103D2000DF93CDB7DEB72C970FB6F894DEBF0FBE8A
:103D3000CDBF5C01DC0159968D909C90F40181858A
:103D40009285A385B4859C01AD012F5F3F4F4F4FF6
:103D50005F4F29873A874B875C87D50114964D9032
:103D60005D906D907C90179741145104610471042B
:103D700009F459C0BFEF4B1A5B0A6B0A7B0A312C5E
:103D8000730162011D821E821F821886F4018185E3
:103D90009285A385B4852D813E814F815885281752
:103DA00039074A075B0708F056C089859A85AB85B5
:103DB000BC858C159D05AE05BF0550F482E0C82E6C
:103DC000D12CE12CF12C92E0492E512C612C712C3C
:103DD0009E012F5F3F4FB701A601C4010E94EDCAAB
:103DE0008823C9F189819A81AB81BC81892B8A2B77
:103DF0008B2B01F1260137019FEF491A590A690AF5
:103E0000790A2D813E814F8158852F5F3F4F4F4F5B
:103E10005F4F2D833E834F8358873FEFC31AD30AEA
:103E2000E30AF30AB3CF4080518062807380332469
:103E30003394A6CFC414D504E604F70411F70FEFAA
:103E40001FEF2FEF3FE0B701A601C4010E945BCA3C
:103E5000782E81111AC0712C872D2C960FB6F894EC
:103E6000DEBF0FBECDBFDF91CF911F910F91FF90AD
:103E7000EF90DF90CF90BF90AF909F908F907F900A
:103E80006F905F904F903F900895F5014481558168
:103E900066817781411551056105710539F09701FA
:103EA0008601C4010E945BCA8823A9F2D501149639
:103EB000CD92DD92ED92FC921797332051F0D7010D
:103EC000C6010196A11DB11DF40180839183A283D7
:103ED000B383F50185899689A789B08D892B8A2BB3
:103EE0008B2B09F0B9CFC58AD68AE78AF08E8181FB
:103EF00080688183B1CF40E050E0BA010C9435CCAA
:103F00004F925F926F927F92AF92BF92CF92DF9269
:103F1000EF92FF920F931F93CF93DF931F92CDB732
:103F2000DEB78C017B015A01C22EDB0159968D91BF
:103F30009C91F801928F818FCB010E947B1F712C85
:103F4000F70180859185A285B3854189528963896E
:103F5000748984179507A607B70708F052C055E083
:103F6000B695A795979587955A95D1F7F82FFF7035
:103F7000DF2ED70113968C91823010F480E0DBC0E5
:103F800041E050E0BE016F5F7F4FC7010E945DCDF1
:103F90000197A1F7F70180859185A285B3854F969A
:103FA000A11DB11D80879187A287B387F0E2DF9EB4
:103FB000B00111246C507D4E61157105F9F2DB01E1
:103FC0008C91882341F0853E09F04CC0772029F080
:103FD00077247394B5CF71100EC08091F414909132
:103FE000F514A091F614B091F714F8018487958721
:103FF000A687B787D08ADB018C918111E9CF77241E
:1040000073948C2D8274823409F0B8CF772009F430
:10401000A2C0F801D08861E0C8010E942C1E009760
:1040200009F4ACCF20E2DC011D922A95E9F72BE0E0
:10403000F501DC0101900D922A95E1F721E238E2C9
:10404000FC01318B208B40E058E057874687338B4B
:10405000228B318F208F578B468B0E946AC881112B
:1040600009C08CCF4BE050E0C5010E94A9E9892B23
:1040700009F066CFF0E2DF9ED00111249D012C50A3
:104080003D4EF9018385817121F08C2D827109F0FB
:1040900001C1F801818D928D4091F4145091F51475
:1040A0006091F6147091F714448755876687778777
:1040B000D08AFD01EC50FD4E44885588712C612C4E
:1040C000320155244424D80155964D925D926D924B
:1040D0007C925897428D538D70E060E044295529B9
:1040E0006629772955964D935D936D937C935897E8
:1040F000D9011B962C91287109F0BEC0848D958D35
:10410000A68DB78DF801818B928BA38BB48B81E048
:1041100083838C2D8F70F80181831482158216821F
:104120001782108611861286138681E0C4FE03C0B2
:10413000C8010E94C9CC0F90DF91CF911F910F91C0
:10414000FF90EF90DF90CF90BF90AF907F906F90F7
:104150005F904F900895D70113968C9113978230FA
:1041600009F40CCF51968D919D910D90BC91A02D8D
:10417000803E9F4FAF41B10508F000CFC7010E94BC
:10418000801E882309F4FACE0E946AC8882309F4A5
:10419000F5CED7015996ED91FC915A9714964D9012
:1041A0005D906D907C901797B2E04B1A51086108B2
:1041B0007108858504C0440C551C661C771C8A95C3
:1041C000D2F786859785A089B189480E591E6A1E47
:1041D0007B1E81E08093F8144092F4145092F51401
:1041E0006092F6147092F714E4EFF2E180E092E04E
:1041F000DF019C011D9221503040E1F7DD24D39472
:10420000D7015996ED91FC918481D816C0F4809124
:10421000F9149091FA14DC01ED91FC910288F38974
:10422000E02D24EF32E1B301A2014D0D511D611DBE
:10423000711D0995882309F4A1CED394E1CF25857A
:1042400080E092E0A0E0B0E004C0880F991FAA1FB0
:10425000BB1F2A95D2F7F701418952896389748976
:10426000840F951FA61FB71F818B928BA38BB48BD6
:1042700084EF92E1D12CD6CE203161F498012F5EEB
:104280003F4F0E9470CB882329F084E0D801139619
:104290008C933FCFD80113961C9270CEFC012381E2
:1042A00021110C94231E08952F923F924F925F92FA
:1042B0006F927F928F929F92AF92BF92CF92DF9236
:1042C000EF92FF920F931F93CF93DF93CDB7DEB79B
:1042D000C354D1090FB6F894DEBF0FBECDBF4C0159
:1042E0005B016A01222E19821C821C8E1F8E6115B1
:1042F000710521F510E0CE014C960E944E21CE01B1
:1043000001960E944E21812FCD5BDF4F0FB6F894AE
:10431000DEBF0FBECDBFDF91CF911F910F91FF90F8
:10432000EF90DF90CF90BF90AF909F908F907F9055
:104330006F905F904F903F902F900895FC01838184
:104340008111D8CFFA0180818F32A1F18B01CE018A
:1043500001967C013C0180E2382E2E019CE1490E41
:10436000511C2396EFAE23972496FFAE24972296F6
:104370003FAE229721963FAE21973FAE3EAE3DAE77
:104380003CAE3BAE3AAE39AE38AE3FAA960190E0B5
:1043900047E0D9018D91882309F447C08F3209F491
:1043A00044C08E3209F54A3009F4A4CF98E04AE0BF
:1043B0009D01EFCFFB01838182508B01823060F041
:1043C000618D728DCE014C960E94A5D18E01045E46
:1043D0001F4F882309F48ECFC6016C010196F601A8
:1043E00020812F32D1F3B3CFEAE3F1E124912223EC
:1043F00021F031968213FACF7DCF491708F47ACF96
:10440000813208F477CF8F3709F474CF3FE9380F42
:104410003A3108F420EEE7E3F0E0EC0FFD1FE90F7E
:10442000F11D820F80839F5FC3CF8FA9803209F473
:1044300061CF6901F90180812F5F3F4F8F32C9F34E
:10444000882301F121E0AE01495C5F4FB801C7014B
:104450000E94801F882309F44DCF0A151B0519F00F
:10446000C8010E94231E942D852D6E147F0431F007
:1044700023969FAD239724968FAD24978701E92E2D
:10448000F82E75CF222DAE01495C5F4FB801C401F3
:104490000E94801F182F2FCF8F929F92AF92BF92B2
:1044A000CF92DF92EF92FF92CF936B017C01B42EFB
:1044B00020E030E0A9010E949DE087FF07C08DE267
:1044C0000E94527AF7FAF094F7F8F094C0E060E0B6
:1044D00070E080E09FE3CB1541F02DEC3CEC4CEC20
:1044E0005DE30E9403E1CF5FF6CFA70196010E9432
:1044F00094E76B017C010E9490E84B015C014AE06B
:104500000E9450C7CC2379F1C501B4010E94A2E0FA
:104510009B01AC01C701B6010E9493E76B017C01CE
:104520008EE20E94527AC150F0F020E030E040E28A
:1045300051E4C701B6010E9403E16B017C010E94B6
:1045400090E84B015C014AE00E9450C7C501B401EC
:104550000E94A2E09B01AC01C701B6010E9493E753
:104560006B017C01E0CFCF91FF90EF90DF90CF9077
:10457000BF90AF909F908F900895EF92FF920F930E
:104580001F93CF937C018B01C2E44F3F09F0C4E538
:1045900080E20E94527A8C2F0E94527A8AE30E9413
:1045A000527AF701608171818281938142E00E9499
:1045B0004C228EE291E10E946A7AF8016081718159
:1045C0008281938142E00E944C2262E070E080E0B0
:1045D00090E0CF911F910F91FF90EF900C9405C147
:1045E0001F93CF93DF93CDB7DEB728970FB6F8941C
:1045F000DEBF0FBECDBF182F60910B1570910C154B
:10460000072E000C880B990B0E94A4E06D837E831B
:104610008F8398876091091570910A15072E000CF9
:10462000880B990B0E94A4E069837A838B839C8317
:104630004AEFBE016B5F7F4FCE0101960E94BD2203
:104640006091040670910506072E000C880B990BEB
:104650000E94A4E06D837E838F8398876091020619
:1046600070910306072E000C880B990B0E94A4E0A2
:1046700069837A838B839C834FEFBE016B5F7F4F8F
:10468000CE0101960E94BD22609106061F3F39F0BF
:1046900085E11802F0011124EB5FFA4E608570E0AD
:1046A00086E391E10E94157B6091060670E081E34C
:1046B00091E10E94157B28960FB6F894DEBF0FBEDD
:1046C000CDBFDF91CF911F9108950F930FB70F9337
:1046D00000916E000B7F00936E0078940F930BB7E0
:1046E0000F930CB70F921F922F933F934F935F93AB
:1046F0006F937F938F939F93AF93BF93EF93FF93AA
:1047000011240E944F29FF91EF91BF91AF919F918A
:104710008F917F916F915F914F913F912F911F905A
:104720000F900CBF0F910BBF0F910460F894009392
:104730006E000F910FBF0F911895CF93DF93C5E0D7
:10474000D5E11F821E820E94ACC118865D98CEEF13
:10475000D5E01F821E820E94C61718865C98DF91E2
:10476000CF9108954F925F926F927F928F929F9216
:10477000AF92BF92EF92FF920F931F93CF93DF936D
:10478000B0E2A0E06A2F70E0AB014B0F511D5595D0
:104790004795411117C0E2E5F0E185919491282FEA
:1047A000822FDF91CF911F910F91FF90EF90BF90DB
:1047B000AF909F908F907F906F905F904F900895F3
:1047C000B42FE2CFA41711F0B41303C0EEECF0E164
:1047D000E4CF9A0121503109220F331F220F331FDA
:1047E000F901E05BFF4EE590F490F901EC5AFF4EC1
:1047F000059114918E159F051CF3A42F0817190716
:104800000CF4C0CFBC01F901EE5AFF4EC591D49112
:10481000F901EA5AFF4EA590B4906E197F09072E50
:10482000000C880B990B0E94A4E02B013C01B50100
:104830006C1B7D0B072E000C880B990B0E94A4E0CB
:104840009B01AC01C301B2010E9403E14B015C0179
:10485000B8016E197F09072E000C880B990B0E9476
:10486000A4E09B01AC01C501B4010E9417E84B0113
:104870005C01BE01DD0F880B990B0E94A4E09B0137
:10488000AC01C501B4010E9494E70E9489E8262F7B
:10489000972F86CFCF93DF93C5E0D5E18A819B81A7
:1048A0000E946EB69D838C83CEEFD5E08A819B817A
:1048B0000E94B2239D838C83A8951092E802DF9119
:1048C000CF910895EF92FF920F931F93CF93C82F2C
:1048D0007B018A018091F9058130A1F40E941F7B40
:1048E000C7010E946A7A86E090E10E946A7AC7FD59
:1048F00020C08C2F0C2E000C990B0E9406B78AE06A
:104900000E94527A0E949D23A8958091FF048111F4
:1049100015C081E08093FF0480E88093F9056BEF78
:104920007FE0CF3F11F06FEF7FE040E0C8010E94D1
:10493000A17D82E090E10E946A7AE1CFCF911F9140
:104940000F91FF90EF9008954F925F926F927F9238
:104950008F929F92AF92BF92CF92DF92EF92FF928F
:104960000F931F93CF93DF93EC016B014A01B22E9B
:10497000FA014080518062807380A30192016D81B1
:104980007E818F8198850E949DE08823A1F04D82D1
:104990005E826F827886AA24A39420E030E0A90189
:1049A000F40160817181828193810E9417E9181658
:1049B0000CF0A12CAC828C818230A1F0833009F400
:1049C0005AC08130C9F52D813E814F815885F6014D
:1049D00060817181828193810E949DE087FD2CC05E
:1049E00082E08C83B701FF0C880B990B0E94A4E036
:1049F0009B01AC016D817E818F8198850E9493E738
:104A00009B01AC01F60160817181828193810E94DA
:104A100017E987FD22C00E94A0C16B017C019801AB
:104A2000A8EEB3E00E9439E7C60ED71EE81EF91EB5
:104A3000C882D982EA82FB82DF91CF911F910F91C8
:104A4000FF90EF90DF90CF90BF90AF909F908F90AE
:104A50007F906F905F904F9008950E94A0C1088151
:104A600019812A813B81601B710B820B930B97FD8F
:104A7000E3CF83E08C8340ED50E160EE70E18B2D5D
:104A8000DF91CF911F910F91FF90EF90DF90CF902A
:104A9000BF90AF909F908F907F906F905F904F905E
:104AA0000C946224CF93DF93EC01488159816A8191
:104AB0007B8181EF9FE00E942C7F4C815D816E8124
:104AC0007F818DE296E20E942C7F488559856A8518
:104AD0007B8589E296E20E942C7F8AE0DF91CF916C
:104AE0000C94527ABC012091E0043091E104409191
:104AF000E0045091E1042417350731F481E02617D2
:104B0000370709F080E008959A01F1CF0F930FB7AE
:104B10000F9300916E000F930B7F00936E00009136
:104B20006F000D7F00936F000F930BB70F930CB7BF
:104B30000F921F922F933F934F935F936F937F93A7
:104B40008F939F93AF93BF93EF93FF9311240E9492
:104B5000DD2AFF91EF91BF91AF919F918F917F914E
:104B60006F915F914F913F912F911F900F900CBFCC
:104B70000F910BBF0F910260F89400936F000F919B
:104B800000936E000F910FBF0F9118950000000069
:104B9000000000008091E80580FF27C0459A8FEF54
:104BA000809396048091E805869580FF21C0479AFE
:104BB0008FEF809397048091E8058695869580FF16
:104BC0001AC02A988FEF809398048091E805869503
:104BD0008695869580FF12C0289A8FEF809399045E
:104BE00000000000000000000895459881E0D8CF43
:104BF000479881E0DECF2A9A81E0E5CF289881E0CE
:104C0000EDCFAF92BF92CF92DF92EF92FF920F93D0
:104C10001F93CF93DF93C9E6DBE00CE816E089E74A
:104C2000A82E8BE0B82EC12CD12C7601C3946991AB
:104C30007991899199910E94A2E0288939894A89BC
:104C40005B890E9403E10E9490E8F80161937193EF
:104C5000819391938F01C616D706E806F90610F4E2
:104C60006B017C01AC16BD0611F76FEF7FEFCB0136
:104C7000A70196010E94E5E620939C0630939D06CD
:104C800040939E0650939F06DF91CF911F910F9105
:104C9000FF90EF90DF90CF90BF90AF9008950F936B
:104CA0001F93CF93DF930DE71BE0C5EAD6E0F80131
:104CB00021913191419151918F0160E070E080E844
:104CC0009FE30E9417E86993799389939993F6E09B
:104CD000C53BDF0761F70E940CB9DF91CF911F91AF
:104CE0000F910C9401260C944F260C944F260C9493
:104CF0004F260C944F269091B8158091B9159813B2
:104D000006C08091B6069091B706892B19F00E94D3
:104D10002F83F1CF08959091B8158091B91598130C
:104D200008C08091B6069091B706892B11F40C94B7
:104D3000D4770E942F83EFCFCF93DF9320916B0224
:104D4000222379F0EC010E94B7749B01AC016885C5
:104D500079858A859B850E9493E7688779878A870A
:104D60009B87DF91CF910895CF93DF9320916B02C2
:104D7000222379F0EC010E94B7749B01AC01688595
:104D800079858A859B850E9494E7688779878A87D9
:104D90009B87DF91CF9108954F925F926F927F92A0
:104DA0008F929F92AF92BF92CF92DF92EF92FF923B
:104DB0000F931F93CF93DF93CDB7DEB76A970FB6EC
:104DC000F894DEBF0FBECDBF9A8F898F5B018A0139
:104DD000DC01D6966D917D918D919C91D9970E9421
:104DE000A2E06B017C01F501208131814281538178
:104DF0000E9403E10E9400E82B013C01D8012D91A3
:104E00003D914D915C91C701B6010E9403E10E9462
:104E100000E84B015C01C301B2010E9490E8698B7C
:104E20007A8B8B8B9C8B683771058105910540F4DB
:104E300028E730E040E050E0298B3A8B4B8B5C8BCD
:104E4000C501B4010E9490E86D877E878F87988B9B
:104E5000683771058105910540F488E790E0A0E08E
:104E6000B0E08D879E87AF87B88BE98DFA8DEE5BBA
:104E7000FF4F208131814281538129833A834B83C3
:104E80005C83CA01B9010E94A4E02B013C0169893D
:104E90007A898B899C890E94A2E069877A878B87AF
:104EA0009C8720E030E0A901C301B2010E949DE08F
:104EB000882309F43BC1A7019601C701B6010E94EE
:104EC00003E14B015C0129853A854B855C85CA016C
:104ED000B9010E9403E19B01AC01C501B4010E942C
:104EE00093E74B015C01A3019201C301B2010E944F
:104EF00094E79B01AC01C501B4010E9417E80E9430
:104F000000E80E9490E86D837E838F839887698193
:104F10007A818B819C8190958095709561957F4F6A
:104F20008F4F9F4F0E94A4E04B015C016D857E85F1
:104F30008F8598890E94A2E069837A838B839C8302
:104F400020E030E0A901C501B4010E949DE0882362
:104F500009F4F0C029813A814B815C81CA01B90111
:104F60000E9403E16D8B7E8B8F8B988FA70196013A
:104F7000C701B6010E9403E19B01AC016D897E89E6
:104F80008F89988D0E9493E76B017C01A5019401A4
:104F9000C501B4010E9494E79B01AC01C701B601B1
:104FA0000E9417E80E94BFE8A98DBA8D95968D9052
:104FB0009D90AD90BC909897750164012D813E81C4
:104FC0004F815885C21AD30AE40AF50A0E9490E874
:104FD000C61AD70AE80AF90AF7FE6EC020E030E0E8
:104FE000A901C301B2010E949DE0882309F4A6C073
:104FF000C501B4010E94A2E06B017C01A3019201F2
:10500000C301B2010E9494E79B01AC01C701B60144
:105010000E9403E16B017C0129853A854B855C8503
:10502000CA01B9010E9403E19B01AC01C701B601AD
:105030000E9493E76B017C0129813A814B815C815D
:10504000CA01B9010E9403E19B01AC01C701B6018D
:105050000E9494E76B017C0120E030E040E850E4DE
:10506000C301B2010E9403E19B01AC01C701B6017B
:105070000E9417E80E9400E86B017C0120E030E00C
:10508000A9010E9417E918161CF0C12CD12C760139
:10509000C701B6010E9490E86D837E838F83988755
:1050A00086169706A806B90620F48D829E82AF82E6
:1050B000B886C12CD12C76018D819E81AF81B885B7
:1050C000E98DFA8D81A792A7A3A7B4A7C80ED91E10
:1050D000EA1EFB1EC5A6D6A6E7A6F0AA29893A892C
:1050E0004B895C8922AF33AF44AF55AFFE962D8517
:1050F0003E854F85588920833183428353836A9646
:105100000FB6F894DEBF0FBECDBFDF91CF911F91D8
:105110000F91FF90EF90DF90CF90BF90AF909F9056
:105120008F907F906F905F904F90089560E070E057
:10513000CB01E5CE60E070E0CB0134CF60E070E001
:10514000CB0198CF90916F0081E091FD02C080E08B
:10515000089590916F009D7F90936F000895CF9375
:10516000C82F0E94A22894E0C99F90011124F90140
:10517000ED51FB4F21513B4FD9014D915D916D9107
:105180007C91408351836283738391E09093E20426
:10519000882319F0CF910C949377CF910895CF92F3
:1051A000DF92EF92FF928091E705811105C0809117
:1051B0004606882309F46EC080917504329B64C052
:1051C00081608093750480917504339B5FC0826019
:1051D0008093750480917504349B5AC084608093D9
:1051E0007504C090D304C0FE10C08091E80580FF14
:1051F0000CC08091750480FF08C08091F805816023
:105200008093F80580E00E94AF28D12CF12CE12C8E
:10521000D701C601B695A7959795879580FF11C0D0
:105220008091E805869580FF0CC08091750481FF10
:1052300008C08091F80582608093F80581E00E94A3
:10524000AF2882E0F694E794D794C7948A95D1F773
:10525000C0FE20C08091E8058695869580FF1AC023
:10526000809146068823B1F08091750482FF12C0B8
:105270008091F80584608093F80582E0FF90EF90BC
:10528000DF90CF900C94AF288E7F9BCF8D7FA0CFE7
:105290008B7FA5CFFF90EF90DF90CF9008950F9375
:1052A0001F93CF93DF9380913E018F3708F441C065
:1052B0008F5790910D15909322059923C1F15D9A16
:1052C00090910606909321059923E1F15C9A8F5FF6
:1052D00080933E018091200591E0892780932005ED
:1052E00081110E94141980913D01C1E0C80F8530E1
:1052F0000CF0C0E0823009F4CEC034F58823D1F13F
:10530000813009F4BDC0C0933D010E94CF28809137
:10531000B6069091B706009729F001979093B706CB
:105320008093B606DF91CF911F910F9108955D98FC
:10533000C7CF90912205891708F05D9890912105BB
:10534000891728F25C98C3CF843009F4BBC00CF4F1
:10535000B5C08530C1F690911F05911102C08093B0
:105360001F0580911F05815080931F05882359F2E6
:10537000C5E0C9CF80913C018F5F80311CF48093E0
:105380003C01C1CF10923C018091E802811113C011
:105390008091051590910615909308158093071537
:1053A0008091FE059091FF05909301068093000681
:1053B00081E08093E8021092061510920515109274
:1053C000FF051092FE0500910715109108158091B8
:1053D0000B1590910C15D1E0181619062CF0809140
:1053E0000D15811101C0D0E08091540190915501BB
:1053F000081719073CF440EF50E16DEF70E180E0D1
:105400000E946224DD2371F080915201909153013A
:10541000801791073CF44FE051E16CE171E180E0CD
:105420000E94622400910406109105062091000656
:10543000309101068091E4059091E5052817390720
:105440003CF440EF50E16DEF70E18FEF0E94622479
:10545000101611060CF057CF20910006309101066E
:105460008091500190915101821793070CF04BCF1E
:105470004FE051E16CE171E18FEF0E94622443CF74
:1054800010927B0087E480937C0080917A00806496
:1054900080937A0038CF80917A0086FD26C02091D3
:1054A0007800309179008091051590910615820F52
:1054B000931F909306158093051525CF10927B00BE
:1054C00086E4E1CF80917A0086FD11C020917800BA
:1054D000309179008091FE059091FF05820F931F16
:1054E0009093FF058093FE050ECFC2E00CCFC4E081
:1054F0000ACF0E94A2281092A0061092A106109234
:10550000A2061092A30681110C94937708950F932D
:105510001F938091B8159091B915891B8F7009F46C
:1055200049C09091B515992361F0833040F48FEF15
:10553000890F29F08093B51590E080E038C0109273
:10554000B5158091B9152BE4829FC00111248854B0
:10555000994FFC01208120FDEFCF4091A006509192
:10556000A1066091A2067091A306E95BFF4F00813E
:10557000118122813381401B510B620B730B4093CD
:10558000A0065093A1066093A2067093A3062091F3
:10559000B9152F5F2F702093B6153091B915209152
:1055A000B715321304C02091B6152093B7151F917B
:1055B0000F9108950E94792ABFCF2F923F924F9268
:1055C0005F926F927F928F929F92AF92BF92CF9293
:1055D000DF92EF92FF920F931F93CF93DF9300D050
:1055E00000D0CDB7DEB78FEF9FEF90938900809307
:1055F00088000AE00983312C212C78948091DC0406
:105600009091DD04A091DE04B091DF04892B8A2BF8
:105610008B2B09F0C4C18091E2048823E1F08091D2
:10562000E0049091E1041092E204892B09F4B7C1DF
:105630001092E1041092E0041092D3049091B815F6
:105640008091B915981709F4AAC18091B9158F5F97
:105650008F708093B9158091E0049091E104892BBB
:1056600009F49DC14091D8045091D9046091DA04A5
:105670007091DB048091D4049091D504A091D6045C
:10568000B091D7040091C60410E030E020E0841B04
:10569000950BA60BB70B081719072A073B0710F441
:1056A000D901C8018A83840F951FA61FB71F809355
:1056B000D8049093D904A093DA04B093DB04E1E01A
:1056C000C0909E04D0909F04E090A004F090A104AC
:1056D0008091AE049091AF04A091B004B091B10458
:1056E000C80ED91EEA1EFB1EC092AE04D092AF04B3
:1056F000E092B004F092B104F7FC33C040919604FC
:10570000042E000C550B660B770B8091EF049091E3
:10571000F004A091F104B091F204840F951FA61F2C
:10572000B71F8093EF049093F004A093F104B0931B
:10573000F20480919A0490919B04A0919C04B091F2
:105740009D04A7019601281B390B4A0B5B0BDA015C
:10575000C9018093AE049093AF04A093B004B093BA
:10576000B1040091A2041091A3042091A4043091EB
:10577000A5048091B2049091B304A091B404B091B7
:10578000B504080F191F2A1F3B1F0093B204109382
:10579000B3042093B4043093B50437FD33C0809133
:1057A0009704082E000C990BAA0BBB0B4091F30435
:1057B0005091F4046091F5047091F604840F951FE4
:1057C000A61FB71F8093F3049093F404A093F504ED
:1057D000B093F60480919A0490919B04A0919C044C
:1057E000B0919D04B901A801481B590B6A0B7B0BB2
:1057F000DB01CA018093B2049093B304A093B40474
:10580000B093B5044091A6045091A7046091A804F8
:105810007091A9048091B6049091B704A091B80446
:10582000B091B904480F591F6A1F7B1F4093B604FB
:105830005093B7046093B8047093B90477FD33C0F4
:1058400080919804082E000C990BAA0BBB0B80903A
:10585000F7049090F804A090F904B090FA04880D31
:10586000991DAA1DBB1D8093F7049093F804A09383
:10587000F904B093FA0480919A0490919B04A0914A
:105880009C04B0919D042A013B01481A590A6A0AF6
:105890007B0AD301C2018093B6049093B704A0930E
:1058A000B804B093B9048090AA049090AB04A0907F
:1058B000AC04B090AD048091BA049091BB04A09167
:1058C000BC04B091BD04880D991DAA1DBB1D809319
:1058D000BA049093BB04A093BC04B093BD04B7FD7D
:1058E00033C040909904042C000C550866087708D2
:1058F0008090FB049090FC04A090FD04B090FE0406
:10590000840C951CA61CB71C8092FB049092FC048E
:10591000A092FD04B092FE0480909A0490909B04A3
:10592000A0909C04B0909D042C013D01481859089A
:105930006A087B08530142018092BA049092BB042A
:10594000A092BC04B092BD04E11104C0E0918400B7
:10595000F0918500F7FE5F9A37FF469A77FF2B9A02
:10596000B7FF299AE0918400F0918500E0918400CE
:10597000F0918500F7FE5F9837FF469877FF2B98E8
:10598000B7FF29985A80552021F08091840090918A
:1059900085000A8101500A83E0E0011191CE8090D8
:1059A000600190906101A0906201B0906301811448
:1059B0009104A104B10409F047C080914B06909175
:1059C0004C06009709F42FC023B1247015980000ED
:1059D000000000000000181619060CF0D7C02A9A23
:1059E00000000000000000002B9A34E03A9500000F
:1059F000E9F72B980000000000000000222309F4C2
:105A0000C7C02A9A000000000000000018161906FE
:105A10000CF0C0C080914B0690914C06019790937A
:105A20004C0680934B060E949977882309F4B8C0EE
:105A300080ED97E0A0E0B0E0809360019093610179
:105A4000A0936201B09363018091DC049091DD0426
:105A5000A091DE04B091DF04892B8A2B8B2B09F0F7
:105A600050C4E091E004F091E104309709F424C5BA
:105A70008091D8049091D904A091DA04B091DB040C
:105A80004091D4045091D5046091D6047091D7040C
:105A900084179507A607B70708F486C01092E1049B
:105AA0001092E0041092D3049091B8158091B9152A
:105AB000981709F401C58091B9158F5F8F70809395
:105AC000B91580EDC82E87E0D82EE12CF12C8091FD
:105AD000E0049091E104892B09F00BC40E94872A0D
