:100000000C944A370C947B370C947B370C947B37D9
:100010000C947B370C947B370C947B370C947B3798
:100020000C947B370C947B370C947B370C947B3788
:100030000C947B370D9451A30C947B370C947B3735
:100040000C947B370C94C5E50C947B370C947B3770
:100050000C947B370C947B370C948CE20D9407A3A3
:100060000C947B370D94F67C0D94EC7C0C947B37D0
:100070000C947B370C947B370C947B370C947B3738
:100080000D9460450C947B370C947B370C947B3734
:100090000C947B370C947B370C947B370C947B3718
:1000A0000C947B370C947B370D9432450C947B3742
:1000B0000C947B370C947B370C947B370C947B37F8
:1000C0000C947B370C947B370C947B370C947B37E8
:1000D0000C947B370C947B370C947B370C947B37D8
:1000E0000C947B37084AD73B3BCE016E84BCBFFDE6
:1000F000C12F3D6C74319ABD56833DDA3D00C77FF8
:1001000011BED9E4BB4C3E916BAAAABE0000008090
:100110003F05A84CCDB2D44EB93836A9020C50B91F
:10012000918688083CA6AAAA2ABE000000803F0744
:10013000634236B79BD8A71A39685618AEBAAB5582
:100140008C1D3CB7CC5763BD6DEDFD753EF6177247
:1001500031BF000000803F08000000BE9224491219
:100160003EABAAAA2ABECDCCCC4C3E00000080BE3D
:10017000ABAAAAAA3E00000000BF000000803F001A
:1001800000000000084178D3BB4387D1133D190E0E
:100190003CC3BD4282AD2B3E68EC8276BED98FE176
:1001A000A93E4C80EFFFBE01C4FF7F3F000000006E
:1001B00000000C94F9480C94EA370C943DD20C944E
:1001C000FCD60D94342D0D94DF9D0D9449310C9483
:1001D0004F400C948E9B0C94488C0D94079E0D946C
:1001E000637D0C94C8630C9445770D94229D0C9408
:1001F00007400D94DF9C0C94BFD50C9477820C942F
:10020000024F0C9470560C94E84B0C94C74B0D9411
:10021000309D0D94717E0C9471820C94448C0C94DE
:100220003D520C947A820C94D1840C94FC4B0C9427
:100230009D580C94B94C0C949D3A0C94C0630D9449
:100240008E9D0D94009D0C9445560C94768D0D94C6
:10025000F39D0D949A7F0C943C3C0C943D890C9436
:100260008E450C949E510C94F24B0D94367B0C945D
:10027000CF570C94F0400D94987D0D94F99C0C94FC
:1002800082820C9413D40D94AE400C943D400C9497
:1002900091560C942B400C9449560C9466740C9413
:1002A00013400D94467B0C94553C0C94D6520D94FF
:1002B000B27D0C94A64F0C94AB370C94238F0C9406
:1002C000FE3E0C94C93A0D94057A0D94A07D0D94D0
:1002D0008C7D0C9474820C9405800D94C2780D94DE
:1002E000A77D0C94C6630C947D820D94B2460C9449
:1002F0000C380C94A3640C94957A0C94E0700D94D3
:100300000D790D94759D0C94D4840D94727D0C948C
:100310001D640C94A28E0C94603C0C941F400D94B0
:10032000DA9C0C9456450C94F7580C940D400D949F
:10033000149D0C943FD60D94A09D0D94347D0C9487
:10034000085B0C9476480C9415430C94EE580C946E
:10035000273D0C94433E0C9443400C94DB460C9494
:10036000433B0C94486A0C94BD3B0D94FC440D94A3
:100370003F7B0C946E820C949F890C9447D50C940F
:10038000408C0C94C0840D94E99D0C940A3C0C9410
:10039000823A0C9424D60C94D4500D94447E0C9440
:1003A000C0D20C94323A0C94C4630C94C5570C948C
:1003B000E0D50D94F7AE0C94286D0C94CC630D949D
:1003C000887D0D94817D0C9451560C94C2820C94BE
:1003D0005C3B0C94E7570C9415990D94F59C0C9488
:1003E0000C490C942AD50D94849D0C9487820C940E
:1003F000D1460D94AB320C94757B0D94189D0C94E2
:1004000073560C94DE8E0C94C2630D94F19C0D9483
:10041000989D0C94733B0C94FF7C0C9459560D944E
:10042000D9460D94C6440C94AF4A0C94C6D70D948B
:10043000B29D0C9438860C9401400D94BA7D0C94B6
:10044000BE630C94596B0D94907D0C94FE820C94B9
:1004500055560D94FD9C0D94947D0C949A640D94C6
:10046000BC9D0C941B4C0C94B74A0C9436590C94BC
:100470000E3B0C9469560C94FF6E0D94D9AE0C94FF
:10048000F13B0D94069D0C94444F0D9486AE0C9454
:10049000AF4F0D94D59D0C9476560C94DC3A0C9489
:1004A000963B0C944D560C94BFD20C9468820C94DD
:1004B000DF500C94FC430C9449400C9464850C94DC
:1004C00019400C94385F0C94B53B0C9425480C945F
:1004D000A9840C9463580D94109D0C945D560C9453
:1004E00032440C9465560D942C9D0C941D3B0C9439
:1004F000193A0C94A7990C94074F0C94AD4A0C949C
:1005000099660C94F53A0C946D560C942C6E0C94E0
:10051000EE9D0C94CF630C942D8D0C94ED4B0C94AC
:10052000B3720C94ABD40C94303B0C94CFD60C9497
:100530006F7F0C940C4F0C94534F0C94075E0C94EB
:100540006B820C94BDD60C94733A0C9484820C94F8
:1005500031400C94B63A0D94FD9D0C94DF580C94E8
:10056000F74B0C94233C0C949A4C0C940D830C94F4
:100570003A4C0C944B3A0C9461560C9437400D94C1
:1005800017450C9492840C94BC630D94C69D0C94F6
:10059000D6460D94A37E0C94BC4A0C942B480C9424
:1005A000D9680C9425400C948A3B0C945D820C9481
:1005B000B2400D94E1440C94B3530D941E9D0C94E1
:1005C0007B4C0C94F3370C94CA630C94A0370D94B5
:1005D000BB780C94E4420D940A9D0C9482750C94A3
:1005E0007D370C945A3A0C94B14A0D94269D0D9483
:1005F0006D9D0D949C7D0D94A89D0D947A9D0C94F9
:1006000029640D941E360C9414894E414E494E496E
:100610005459494E46CDCCCC3D0AD7233C17B7D1CF
:100620003877CC2B329595E6241FB14F0A00002075
:10063000410000C84200401C4620BCBE4CCA1B0EF4
:100640005AAEC59D7400407A10F35A00A0724E183D
:10065000090010A5D4E80000E87648170000E40B74
:1006600054020000CA9A3B000000E1F5050000803A
:10067000969800000040420F000000A08601000094
:1006800000102700000000E80300000000640000E4
:100690000000000A00000000000100000000002C23
:1006A00076D888DC674F0823DFC1DFAE59E1B1B7E8
:1006B00096E5E3E453C63AE651997696E8E6C284B5
:1006C00026EB898C9B62ED407C6FFCEFBC9C9F40CD
:1006D000F2BAA56FA5F490055A2AF75C936B6CF9F2
:1006E000676DC11BFCE0E40D47FEF520E6B500D0C8
:1006F000ED902E0300943577050080841E080000DD
:10070000204E0A000000C80C333333330F986E12AA
:10071000831141EF8D2114893BE65516CFFEE6DBB0
:1007200018D1844B381BF77C1D901DA4BBE42420FA
:100730003284725E228100C9F124ECA1E53D275587
:100740004E4C4F41442046494C414D454E54004C7F
:100750004F41442046494C414D454E540046494C7A
:10076000414D454E54204348414E47450050494471
:10077000204175746F74756E65202A005049442DB0
:1007800044202A005049442D49202A005049442D34
:1007900050202A0020082046616374002008204D64
:1007A0006178002008204D696E004F6666004F6E2C
:1007B000004175746F74656D7000565472617620D7
:1007C0004D696E00566D696E00566D61782045006A
:1007D000566D6178205A00566D6178205900566D2B
:1007E0006178205800416D6178204500416D617845
:1007F000205A00416D6178205900416D6178205880
:1008000000412D54726176656C00412D5265747201
:1008100061637400416363656C0056652D4A6572BF
:100820006B00565A2D4A65726B0056592D4A6572F7
:100830006B0056582D4A65726B0050726F626520CE
:100840005A204F66667365740050726F6265205956
:10085000204F66667365740050726F626520582081
:100860004F666673657400452073746570732F6DF1
:100870006D005A2053746570732F6D6D00592053AD
:10088000746570732F6D6D00582053746570732FED
:100890006D6D00416476616E6365642053657474A8
:1008A000696E6773003F0043616E63656C00496E5B
:1008B0006974004D34323800496E697469616C693D
:1008C0007A6520454550524F4D0046696C616D6513
:1008D0006E740054656D7065726174757265005355
:1008E000746570732F6D6D0050726F6265204F6676
:1008F0006673657473004A65726B00416363656C6F
:1009000065726174696F6E0056656C6F63697479A6
:100910000053657420486F6D65204F66667365747B
:100920007300436F6E66696775726174696F6E00FC
:100930003F004E65787420506F696E7400446F6E8E
:1009400065004E657874003F0043616E63656C20FE
:100950004F626A656374004E4F005945530043610E
:100960006E63656C204F626A656374203D004D6163
:10097000696E0053746F77004465706C6F79005333
:10098000572D4D6F64650053656C662D5465737407
:1009900000526573657400426564004E6F7A7A6C2C
:1009A000650046616E20537065656400436F6E6636
:1009B000696775726174696F6E00526573746F72E6
:1009C000652044656661756C7473004C6F616420CA
:1009D00053657474696E67730053746F7265205346
:1009E000657474696E677300507265686561742020
:1009F0002420436F6E6600506F776572204F7574C8
:100A0000616765004F6666004F6E0052756E6F75C8
:100A1000742053656E736F7200424C546F75636837
:100A20000050726F6265205A204F666673657400CD
:100A3000416476616E6365642053657474696E67A2
:100A400073004D61696E004D3730322054256400CB
:100A50004D36303020423020542564004D3730323E
:100A6000203B2564004D37303120542564004D373C
:100A70003032004D373031004D36303020423000BA
:100A80004D61696E00436F6E74696E7565004F66E7
:100A900066004F6E0052756E6F75742053656E73ED
:100AA0006F72005075726765206D6F7265005245F8
:100AB00053554D45204F5054494F4E533A005052D4
:100AC000494E54205041555345440020204E6F7AE2
:100AD0007A6C653A20005061726B696E672E2E2E1B
:100AE0000000005761697420666F720066696C616E
:100AF0006D656E74206368616E676500746F207346
:100B000074617274005761697420666F720066695F
:100B10006C616D656E7420756E6C6F616400004E63
:100B20006F7A7A6C652068656174696E6700506CD5
:100B30006561736520776169742E2E2E00005072F6
:100B400065737320627574746F6E00746F206865CE
:100B50006174206E6F7A7A6C650000496E736572FD
:100B6000742066696C616D656E7400616E642070DE
:100B70007265737320627574746F6E00746F206396
:100B80006F6E74696E7565005761697420666F7267
:100B90000066696C616D656E74206C6F6164000045
:100BA000507265737320427574746F6E00746F2099
:100BB000726573756D65207072696E74000057619F
:100BC000697420666F72207072696E7400746F2091
:100BD000726573756D652E2E2E0000576169742045
:100BE000666F720066696C616D656E7420707572F7
:100BF000676500003E2000256C642E25696D004568
:100C00007874727564656420546F74616C003E2062
:100C1000004C6F6E67657374204A6F622054696D73
:100C200065003E2000546F74616C205072696E74D0
:100C30002054696D6500436F6D706C657465640068
:100C40003A20005072696E7420436F756E74003ADA
:100C500020003135300035004245443A20415443AC
:100C60002031303447542D320052756E61776179EE
:100C70002057617463683A204F4E004D61782054CC
:100C8000656D7000343530004D696E2054656D70AF
:100C900000350045313A20536C696365456E672025
:100CA000343530C2B043005053550047656E65720D
:100CB00069630050726F746F636F6C00312E300087
:100CC0004261756400323530303030004372656106
:100CD0006C69747933442052414D505300556E690C
:100CE0006669656420426564204C6576656C696E52
:100CF00067004578747275646572730031007469B9
:100D00006E796D616368696E657333642E636F6DB0
:100D100000544D3344204352313056320032303289
:100D2000312D30342D313800322E302E375F44577C
:100D3000372E33004D61726C696E005072696E74AB
:100D4000657220537461747300546865726D6973C1
:100D5000746F727300426F61726420496E666F0037
:100D60005072696E74657220496E666F004D6169DC
:100D70006E004D313030300053746F702050726906
:100D80006E7400526573756D65205072696E7400E3
:100D9000506F776572204F7574616765004D31390A
:100DA000305335350A4732380A47323950310A470D
:100DB000323950330A47323953310A4732395330C6
:100DC0000A47323946302E300A473239410A4D310E
:100DD0003034533231350A4732380A4D31303953C5
:100DE0003231350A47315831353059313530463591
:100DF0003030300A47315A300A4D3530300A4D34E0
:100E000030300A4D31313720536574205A204F66F7
:100E100066736574004D313036533132380A4D33C4
:100E200030334338533231354530550A4D35303043
:100E30000A4D313137205049442054756E652044A5
:100E40006F6E65004D3139305335350A4D313034D0
:100E5000533231350A4732380A4732394C310A4762
:100E60003120583130305931303046353030300A49
:100E700047315A30004D3530300A4D31313720532B
:100E8000657474696E67732053746F726564005083
:100E900072657020666F72205A2041646A7573749F
:100EA000005049442054756E650053746F7265207C
:100EB00053657474696E6773005365747570004D83
:100EC00061696E003F004261636B0053746F700094
:100ED0005072696E742066726F6D204D6564696131
:100EE000004368616E6765204D65646961004D323D
:100EF000310041626F7574205072696E74657200C2
:100F00004368616E67652046696C616D656E74004B
:100F10004C6576656C696E6720546F6F6C73004327
:100F20006F6E66696775726174696F6E0054656D86
:100F30007065726174757265004D6F74696F6E00D3
:100F4000486F7374205374617274004E6F204D6546
:100F500064696100526573756D65205072696E74C5
:100F60000043616E63656C204F626A656374005470
:100F7000756E650053746F70205072696E74005006
:100F800061757365205072696E7400496E666F20DA
:100F900053637265656E003F005374617274205034
:100FA00072696E740043616E63656C005072696EA5
:100FB000740043616E6E6F7420656E746572207389
:100FC00075626469723A2000022E2E004D61696ECE
:100FD000002100486F74656E6420746F6F20636F2A
:100FE0006C64004261636B0050726F6365656400FE
:100FF0004F6666004F6E00536F667420456E6473D3
:10100000746F7073004D6F74696F6E004469736123
:10101000626C65205374657070657273004D38346E
:10102000004D34382050726F62652054657374002F
:101030004732384F0A4D343820503130004C6576F5
:10104000656C20436F726E65727300556E696669D8
:10105000656420426564204C6576656C696E670046
:10106000486F6D65205A004732385A00486F6D65E9
:101070002059004732385900486F6D6520580047A5
:10108000323858004175746F20486F6D65004D61AE
:10109000696E0050726568656174202420456E6435
:1010A00000507265686561742024204265640054B4
:1010B000656D706572617475726500436F6F6C6405
:1010C0006F776E0050726568656174202400466118
:1010D0006E205370656564207E00426564004E6F2B
:1010E0007A7A6C65004D61696E0050726F6265209E
:1010F0005A204F666673657400466C6F77004661D0
:101100006E205370656564207E00426564004E6FFA
:101110007A7A6C65005370656564004D61696E0094
:101120005A2056616C7565004732380A4D313930A6
:10113000205325690A4D313039205325690A473239
:1011400039205031004265642054656D7000486F4D
:1011500074656E642054656D70002E2569004732F9
:10116000395036432D0048656967687420416D6FBA
:10117000756E740041646A757374204D65736820E0
:101180004865696768740046696E652054756E65C8
:1011900020436C6F736573740047323950345400C8
:1011A00046696E652054756E6520416C6C0047324F
:1011B0003950345239393954004732380A473236B7
:1011C00043504825694225690056616C6964617421
:1011D0006520437573746F6D204D657368004732E9
:1011E000380A473236435049310056616C696461B0
:1011F0007465204D65736820282429004732380A19
:1012000047323643504930004732394A2569004C4D
:101210006576656C204D6573680053696465205080
:101220006F696E74730047726964204D657368203E
:101230004C6576656C696E6700332D506F696E740E
:10124000204C6576656C696E67004732394A30001C
:10125000473239503352432E2569004D616E756116
:101260006C2046696C6C2D696E00473239503242F1
:10127000543000536D6172742046696C6C2D696E38
:1012800000473239503354300046696C6C2D696E1A
:1012900020416D6F756E74004D65736820696E76C0
:1012A000616C6964617465642E0A00496E666F2022
:1012B00053637265656E00496E76616C6964617432
:1012C0006520436C6F736573740047323949004978
:1012D0006E76616C696461746520416C6C00436F6B
:1012E0006E74696E756520426564204D6573680093
:1012F0004732395031430046696C6C2D696E204D80
:10130000657368004275696C6420436F6C64204D9E
:10131000657368004732394E5031004275696C641C
:1013200020437573746F6D204D65736800473238C4
:101330000A4D31393049310A4D31303949310A4786
:10134000323950310A4D31303453300A4D31343056
:101350005330004275696C64204D65736820282401
:1013600029004732380A4D31393049300A4D313081
:101370003949300A47323950310A4D31303453300F
:101380000A4D313430533000473239256325690A1C
:101390004D31313720004D657368202569204C6F31
:1013A00061646564004D657368202569205361762A
:1013B0006564005361766520426564204D657368FD
:1013C000004C6F616420426564204D657368004D78
:1013D000656D6F727920536C6F74004E6F2053747B
:1013E0006F7261676500473239503458257359254B
:1013F0007352256900202D2D2D2D2D005A3A0059AC
:101400003A00486F6D696E672058595A0047323864
:10141000004F6666205072696E7465722042616387
:101420006B757000473239532D31004F75747075EC
:101430007420666F7220435356004732395431008E
:101440004F757470757420666F7220486F737400E6
:101450004732395430004D657368204C6576656CB1
:10146000696E670045646974204D65736800566154
:101470006C6964617465204D657368004D616E75BB
:10148000616C6C79204275696C64204D65736800ED
:10149000473239493939390A4732395032425430A2
:1014A000004275696C64204D65736800372E2053C7
:1014B00061766520426564204D65736800362E2094
:1014C00046696E652054756E6520416C6C0047322C
:1014D000395034523939395400352E2056616C69EF
:1014E00064617465204D65736800342E2046696E12
:1014F000652054756E6520416C6C0047323950345C
:10150000523939395400332E2056616C6964617444
:1015100065204D65736800322E20536D6172742012
:1015200046696C6C2D696E00473239503354300077
:10153000312E204275696C6420436F6C64204D65C8
:101540007368004732394E503100556E69666965DF
:101550006420426564204C6576656C696E67004660
:1015600061646520486569676874004F75747075BB
:10157000742055424C20496E666F0047323957003F
:1015800055424C20546F6F6C73004F7574707574B6
:10159000204D657368204D6170004D657368205360
:1015A000746F72616765004D657368204564697486
:1015B00000537465702D42792D5374657020554227
:1015C0004C0041637469766174652055424C004754
:1015D00032394100446561637469766174652055F0
:1015E000424C0047323944004D6F74696F6E0043BE
:1015F0004F4D4D554E49434154494F4E0044525969
:1016000052554E004552524F525300494E464F00DC
:101610004543484F004F46460A00466164652048EE
:1016200065696768742000426564204C6576656C66
:10163000696E6720004661696C656420746F20657F
:101640006E61626C6520426564204C6576656C69EC
:101650006E670A00496E76616C6964206D65736817
:101660002E0A0076616C69640A53746F7261676553
:1016700020736C6F743A2000696E004D65736820AA
:10168000697320003F557365203020746F20003F40
:10169000496E76616C69642073746F72616765204E
:1016A000736C6F742E0A003F454550524F4D2073A6
:1016B000746F72616765206E6F7420617661696C0A
:1016C00061626C652E0A004D65736820706F696EEB
:1016D00074206F7574206F662072616E67650A00F2
:1016E0004D34323120696E636F727265637420709D
:1016F0006172616D657465722075736167650A005A
:10170000446576696174696F6E0025533A202573CC
:101710000046696E6973686564210A003A207A3A66
:101720002000206F662000476F696E6720746F3A53
:1017300020580043570A00206469723A0020616E05
:10174000676C653A005374617274207261646975E4
:10175000733A004D343820506F696E740025533A47
:101760002025642F256400506F736974696F6E695A
:101770006E67207468652070726F62652E2E2E0A67
:10178000003F4C656773206F66206D6F76656D65F1
:101790006E7420696D706C61757369626C65202868
:1017A000302D3135292E0A003F2028582C59292068
:1017B0006F7574206F6620626F756E64732E0A00F9
:1017C00050726F6265206F7574206F6620626F754E
:1017D0006E6473003F53616D706C652073697A6548
:1017E000206E6F7420706C61757369626C6520285F
:1017F000342D3530292E0A004D3438205A2D5072A0
:101800006F6265205265706561746162696C6974AC
:101810007920546573740A003F2856296572626FF7
:101820007365206C6576656C20696D706C6175738D
:1018300069626C652028302D34292E0A00537461AA
:101840006E6461726420446576696174696F6E3A92
:1018500020002052616E67653A2000204D61783A81
:101860002000204D696E3A2000205369676D613A6F
:1018700020004D65616E3A20005741524E494E4757
:1018800021204C6F77205A204A65726B206D617958
:10189000206C65616420746F20756E77616E74656D
:1018A00064207061757365732E0A004F4646004FC1
:1018B0004E0020204D61783A2000200020204D6904
:1018C0006E3A2000536F667420656E6473746F7097
:1018D000733A20004D32342053256C642054256C1B
:1018E00064004739322E39204525730047312046A0
:1018F0002564004739322E39205A2573004731209C
:101900005A30204632303000473120582573205954
:101910002573204633303030004D3432302053258B
:1019200069205A2573004D313036205025692053E7
:101930002569004D3230302044257300473238523B
:10194000305859004739322E39204530205A300A54
:1019500047315A2573004D31303920532569004DE8
:1019600031393020532569004D3432302053302036
:101970005A300020496E76616C6964206578747213
:1019800075646572200047322F47332062616420FE
:10199000706172616D65746572730A00536C656580
:1019A000702E2E2E005A2050726F62652050617387
:1019B00074204265640A005A2050726F626520509C
:1019C0006173742042656400205A3A200020593A1D
:1019D000200042656420583A20004D6573682070ED
:1019E0006F696E74206F7574206F662072616E6708
:1019F000650A004D302053746F70004D31205374D0
:101A00006F7000436C69636B20746F20526573754F
:101A10006D652E2E2E004E6F204D6F76652E004583
:101A20006E642066696C65206C6973740A00426597
:101A300067696E2066696C65206C6973740A004E74
:101A40006F206D656469610A00526573756D696E1A
:101A50006720534400286E6F2066696C6529004337
:101A6000757272656E742066696C653A20005072FA
:101A7000696E742074696D653A20000A537461744C
:101A8000733A2046696C616D656E74207573656488
:101A90003A20002C204C6F6E67657374206A6F6269
:101AA0003A2000546F74616C2074696D653A2000AF
:101AB00053746174733A20002C204661696C65642C
:101AC0003A20002C2046696E69736865643A2000EC
:101AD0005072696E74733A200053746174733A20C3
:101AE00000436F6F6C696E672E2E2E00486561741F
:101AF000696E672E2E2E0045202553006F6B006FF8
:101B000066660010160B160416FD15EF15444542C7
:101B100055473A004D31313320530042656420432C
:101B20006F6F6C696E672E2E2E00426564204865CB
:101B30006174696E672E2E2E00544D33442043523B
:101B400031305632204F46462E002F2F004D313473
:101B50003520533C696E6465783E206F7574206F44
:101B6000662072616E67652028302D31290A0020B9
:101B70005200416363656C65726174696F6E3A20EF
:101B800050004D32303620580046523A0020466C04
:101B90006F773A20003A200020536572766F20005C
:101BA000206F7574206F662072616E67650A00533E
:101BB0006572766F200020643A0020693A00207038
:101BC0003A00496E76616C69642065787472756458
:101BD00065720A0020643A0020693A0020703A00D9
:101BE00064697300656E0043290A0061626C656474
:101BF00020286D696E2074656D702000436F6C64E1
:101C00002065787472756465732061726520004682
:101C1000696C616D656E742072756E6F7574206489
:101C2000697374616E636520286D6D293A200046E2
:101C3000696C616D656E742072756E6F75742000CD
:101C40004F666673657473204170706C69656400DB
:101C50004572723A20546F6F206661722100546F92
:101C60006F206661722066726F6D207265666572A4
:101C7000656E636520706F696E740A004545505249
:101C80004F4D204F4B0A00506F7765722D6C6F736C
:101C900073207265636F7665727920004D38340069
:101CA000446F6E65207072696E74696E6720666934
:101CB0006C650A004D3737004D3331004361703A8F
:101CC000004D4541545041434B00434F4F4C45520A
:101CD0005F54454D5045524154555245004348418B
:101CE0004D4245525F54454D504552415455524521
:101CF00000424142595354455050494E47004152C9
:101D00004353004D4F54494F4E5F4D4F4445530090
:101D1000544845524D414C5F50524F5445435449ED
:101D20004F4E004C4F4E475F46494C454E414D4546
:101D3000004155544F5245504F52545F53445F53E6
:101D400054415455530053445F575249544500522F
:101D50004550454154005344434152440050524F72
:101D60004D50545F535550504F525400454D4552BD
:101D700047454E43595F50415253455200434153EA
:101D8000455F4C494748545F4252494748544E4585
:101D9000535300544F47474C455F4C4947485453B1
:101DA00000534F4654574152455F504F57455200DC
:101DB0004255494C445F50455243454E54004C45B2
:101DC00056454C494E475F44415441005A5F50527A
:101DD0004F42450052554E4F5554004155544F4CBB
:101DE0004556454C005052494E545F4A4F420050B0
:101DF000524F4752455353004155544F5245504F4F
:101E000052545F54454D5000564F4C554D45545219
:101E1000494300454550524F4D0042494E415259A9
:101E20005F46494C455F5452414E5346455200531C
:101E3000455249414C5F584F4E5F584F4646004609
:101E400049524D574152455F4E414D453A4D6172A1
:101E50006C696E20322E302E375F4457372E332078
:101E6000544D33442053454D44425520284170720F
:101E700020323420323032312031383A31333A3066
:101E8000322920534F555243455F434F44455F55D8
:101E9000524C3A68747470733A2F2F67697468757E
:101EA000622E636F6D2F496E73616E69747941752F
:101EB000746F6D6174696F6E2F4D61726C696E2FF6
:101EC000747265652F437265616C697479447769D2
:101ED0006E5F322E302050524F544F434F4C5F565E
:101EE000455253494F4E3A312E30204D41434849D7
:101EF0004E455F545950453A544D33442043523176
:101F00003056322045585452554445525F434F5540
:101F10004E543A3120555549443A636564653261FF
:101F200032662D343161322D343734382D396231F7
:101F3000322D6335356336326633363766660A00CE
:101F400050726F6265204F6666736574205A005048
:101F5000726F6265204F6666736574205A00290AA5
:101F60000020746F20003F5A206F7574206F662028
:101F700072616E6765202800290A0020746F2000B6
:101F80003F59206F7574206F662072616E676520FF
:101F9000282D00290A0020746F20003F58206F75FB
:101FA00074206F662072616E676520282D00507264
:101FB0006F6265204F666673657420580043616EDA
:101FC0006E6F74206F70656E207375626469722025
:101FD000002569730025696D2025697300256968EE
:101FE0002025696D202569730025696420256968AD
:101FF0002025696D2025697300256979202569648C
:10200000202569682025696D202569730023646592
:1020100066696E652044454641554C545F006265D3
:1020200064004B6420004B6920004B702000504935
:1020300044204175746F74756E652066696E6973AE
:10204000686564212050757420746865206C617324
:1020500074204B702C204B6920616E64204B6420EF
:10206000636F6E7374616E74732066726F6D20623D
:10207000656C6F7720696E746F20436F6E66696759
:1020800075726174696F6E2E680A00504944204170
:1020900075746F74756E65206661696C6564212066
:1020A00074696D656F75740A0050494420417574F8
:1020B0006F74756E65206661696C65642120546576
:1020C0006D706572617475726520746F6F206869D8
:1020D00067680A00204B643A2000204B693A2000D0
:1020E000204B703A200020436C6173736963205069
:1020F0004944200A00204E6F206F76657273686F26
:102100006F740A002054753A2000204B753A200065
:10211000206D61783A2000206D696E3A20002064BD
:102120003A200020626961733A20005049442041FE
:1021300075746F74756E652073746172740A0050E3
:102140004944204175746F74756E65206661696CD1
:102150006564212054656D706572617475726520C7
:10216000746F6F20686967680A00504944204175A0
:10217000746F74756E6500504944204175746F74B6
:10218000756E65206661696C65642120426164201A
:102190006865617465722069640A004572723A204C
:1021A0007574663820666F6E74206E6F7420696E69
:1021B000697469616C697A65642E004572723A20AF
:1021C0007574663820666F6E74206E6F7420696E49
:1021D000697469616C697A65642E004572723A208F
:1021E0007574663820666F6E74206E6F7420696E29
:1021F000697469616C697A65642E0000FE0003FFF2
:102200008007C7C00701E00000E00000F000007098
:102210000400700E00701F00703F80F00E00E00F91
:1022200001E007C7C003FF8000FE0000FE0003FFBF
:102230008007C7C00F01E00E00E03F80F01F007074
:102240000E00700400700000700000F00000E00755
:1022500001E007C7C003FF8000FE000E000E000E65
:10226000000E000E000E000E000E007FC03F801F0B
:10227000000E00040004000E001F003F807FC00E0F
:10228000000E000E000E000E000E000E000E00FFED
:10229000FFFF7F80FFC0FFC0FFC07F807F80FFC047
:1022A000FFC0FFC03F001E000C0042656400456E89
:1022B000636C6F73757265002568753A25303268F6
:1022C000750025303268753A253032687500202057
:1022D00020202020200020202020001FE02010208F
:1022E0001020101020102020102010303008400442
:1022F0008003001FE03FF03FF03FF01FE01FE03F92
:10230000F03FF03FF00FC0078003003FFFF03800C0
:102310007030FC3020FC102078102030102C00D0C1
:102320002E31D02F7BD02F7BD02E31D02C00D0203F
:10233000301020781020FC1030FC303800703FFF47
:10234000F03FFFF0380070318630238710278790E8
:102350002F87D02F03D02030102078102078102025
:1023600030102F03D02F87D02787902387103186F6
:10237000303800703FFFF01FFFF81FFFF8041040D7
:10238000020820020820041040082080104100109C
:1023900041000820800410400000001FFFF81FFFCC
:1023A000F8FFFFFF8000018E00E19F01F19381396A
:1023B0009F81F99F81F99FB9F98F28F180380180B9
:1023C00000019FFFF99174999B06A99B54A99B5604
:1023D000A99B54999FFFF9FFFFFF544D33442043BD
:1023E00052313056322052656164792E0050726944
:1023F0006E74696E672E2E2E006E6F746966696347
:102400006174696F6E200063616E63656C00507269
:10241000696E742041626F72746564004469736D03
:102420006973730055492041626F72746564004D91
:10243000323520500A4D3234005072696E7420508B
:10244000617573656400526573756D65005549204B
:1024500050617573650050617573696E672E2E2E1D
:1024600000726573756D65004D32340050726F6295
:1024700065205A204F66667365740052756E6F75DD
:10248000742044697374206D6D004C6F6164206D1D
:102490006D00556E6C6F6164206D6D0046696C2E29
:1024A000204469612E004520696E206D6D5E330009
:1024B0004D3330332055312045256920532569009F
:1024C000000C0F00FE07022503BB017FFE08FE087B
:1024D000FE05080806000040F0C8888898781005B6
:1024E0000808060000C0F88888888888F80505056F
:1024F0000600012030F83020050808060000207092
:10250000F820202020E00509090600FF2070A8A877
:10251000B888887020070505070001D86C366CD88C
:102520000509090600FFF8A88888888888A8F805A2
:102530000A0A0600FE205050505088A8A888700350
:10254000030306000340A040FFFFFFFFFFFFFFFF64
:10255000FFFFFFFFFFFFFFFFFFFFFFFFFFFF000089
:10256000000605FF010707060200808080808000CA
:1025700080030303060105A0A0A0050606060000CF
:1025800050F85050F8500509090600FF2070A8A027
:102590007028A87020050707060000C8C810204052
:1025A000989805070706000040A0A040A890680181
:1025B00003030602058080800309090601FF20400D
:1025C000408080804040200309090601FF80404090
:1025D00020202040408005070706000020A870202A
:1025E00070A8200505050600012020F82020020320
:1025F000030601FFC04080050101060003F8020246
:1026000002060100C0C005070706000008101020E0
:10261000404080050707060000708898A8C88870A9
:1026200003070706010040C040404040E00507079F
:10263000060000708808102040F805070706000013
:10264000F8081030088870050707060000103050A1
:1026500090F81010050707060000F880F0080888B9
:1026600070050707060000304080F0888870050775
:1026700007060000F80810102020200507070600B4
:1026800000708888708888700507070600007088C9
:102690008878081060020505060100C0C000C0C0AF
:1026A0000206060601FFC0C000C040800305050603
:1026B00001012040804020050303060002F800F8D5
:1026C000030505060101804020408005070706003C
:1026D0000070881020200020050707060000708881
:1026E000B8A8B88070050707060000708888F888C9
:1026F0008888050707060000F04848704848F0053C
:10270000070706000070888080808870050707062C
:102710000000F04848484848F0050707060000F860
:102720008080F08080F8050707060000F88080F0C0
:102730008080800507070600007088808098887078
:10274000050707060000888888F888888803070737
:10275000060100E04040404040E005070706000059
:10276000381010101090600507070600008890A030
:10277000C0A09088050707060000808080808080C8
:10278000F805070706000088D8A888888888050704
:10279000070600008888C8A89888880507070600EB
:1027A0000070888888888870050707060000F08810
:1027B00088F080808005070706000070888888A858
:1027C0009068050707060000F08888F0A09088054B
:1027D00007070600007088807008887005070706E4
:1027E0000000F82020202020200507070600008890
:1027F0008888888888700507070600008888888888
:1028000050502005070706000088888888A8A8502F
:1028100005070706000088885020508888050707AC
:1028200006000088885020202020050707060000A9
:10283000F80810204080F80309090601FFE08080B5
:102840008080808080E005070706000080404020EF
:102850001010080309090601FFE020202020202095
:1028600020E005030306000520508805010106004D
:10287000FEF8030303060105804020050505060058
:102880000070087888780507070600008080F088C7
:102890008888F005050506000070808088700507AF
:1028A000070600000808788888887805050506006E
:1028B000007088F08070050707060000304840E08F
:1028C0004040400507070600FE7088888878087039
:1028D0000507070600008080F088888888030707BE
:1028E0000601004000C0404040E00409090601FE26
:1028F00010003010101010906005070706000080CF
:10290000808890E09088030707060100C04040409F
:102910004040E0050505060000D0A8A8A8A80505C8
:1029200005060000B0C88888880505050600007007
:10293000888888700507070600FEF0888888F08080
:10294000800507070600FE7888888878080805054E
:1029500005060000B0C880808005050506000078E7
:10296000807008F00507070600002020F8202020CE
:10297000180505050600008888889868050505067D
:10298000000088888850200505050600008888A872
:10299000A850050505060000885020508805070747
:1029A0000600FE8888885020408005050506000046
:1029B000F8102040F80309090601FF20404040803C
:1029C000404040200109090602FF8080808080800D
:1029D0008080800309090601FF804040402040407C
:1029E000408005030306000248A890FF486F6D6908
:1029F0006E67204661696C6564006F70656E005497
:102A00005249474745524544003A200066696C6187
:102A10006D656E74007A5F6D696E00795F6D696EC9
:102A200000785F6D696E005265706F7274696E67D1
:102A300020656E6473746F70207374617475730AAB
:102A40000020746F6F206C6F6E67206578747275EC
:102A500073696F6E2070726576656E7465640A00C6
:102A600020636F6C6420657874727573696F6E2073
:102A700070726576656E7465640A00486F6D6520D6
:102A8000257325732573204669727374005761722C
:102A90006E696E673A20486F6D696E672042756D8A
:102AA000702044697669736F72203C20310A0002FD
:102AB0000204000000000000000000000000008090
:102AC0009D4300009B430000C843000000410000FC
:102AD000004100000040FFFFFF0000000100000077
:102AE000010000800055555500000040003333338D
:102AF00000AAAA2A004992240000002000C7711CE5
:102B00000099991900D1451700555515003BB1138F
:102B1000002449120011111100000010000F0F0FC6
:102B200000E3380E0043790D00CCCC0C00C3300C10
:102B300000E8A20B0064210B00AAAA0A00703D0A5B
:102B4000009DD80900427B090092240900DCD308CB
:102B500000888808001042080000000800F0C10743
:102B6000008787070075500700711C07003EEB06C1
:102B700000A1BC06006990060066660600703E066D
:102B8000006118060017F4050074D105005BB0055C
:102B900000B29005006272050055550500783905B0
:102BA00000B81E0500050505004EEC040087D4049E
:102BB00000A1BD040090A7040049920400C17D0457
:102BC00000EE690400C7560400444404005C32046B
:102BD000000821040041100400000004003FF0033D
:102BE00000F8E0030026D20300C3C30300CCB50302
:102BF000003AA803000A9B0300388E0300C081033B
:102C0000009F750300D0690300505E03001D53034D
:102C10000034480300913D030033330300162903B9
:102C200000381F030097150300300C030003030353
:102C3000000BFA020049F10200BAE802005CE0026F
:102C4000002DD802002DD0020059C80200B0C002E9
:102C50000031B90200DAB10200AAAA0200A0A30260
:102C600000BC9C0200FA9502005C8F0200DF880223
:102C70000082820200457C02002776020027700253
:102C800000436A02007C640200D05E02003F5902E9
:102C900000C8530200FFFDFCFAF8F6F4F2F0EEEC87
:102CA000EAE9E7E5E3E1E0DEDCDAD9D7D5D4D2D052
:102CB000CFCDCBCAC8C7C5C3C2C0BFBDBCBAB9B7E8
:102CC000B6B4B3B2B0AFADACAAA9A8A6A5A4A2A150
:102CD000A09E9D9C9A99989795949392908F8E8D93
:102CE0008B8A8988878684838281807F7E7D7B7AB8
:102CF000797877767574737271706F6E6D6C6B6ABC
:102D0000696867666564636261605F5E5D5C5B5AAB
:102D10005958585756555453525150504F4E4D4C88
:102D20004B4A4A4948474646454443424241403F50
:102D30003E3E3D3C3B3B3A39383837363535343307
:102D400032323130302F2E2E2D2C2B2B2A292928B0
:102D5000272726252524232322212120201F1E1E4C
:102D60001D1C1C1B1B1A19191818171616151514DB
:102D7000131312121111100F0F0E0E0D0D0C0C0B60
:102D80000A0A0909080807070606050504040303DB
:102D9000020201000000809D4300009B430000C828
:102DA00043000000000000000000000000536574B4
:102DB00074696E67732053746F7265640045455083
:102DC000524F4D20496E697469616C697A65640A75
:102DD000003F556E61626C6520746F20736176658B
:102DE000206D65736820646174612E0A003F556E22
:102DF00061626C6520746F206C6F6164206D657317
:102E00006820646174612E0A00556E6966696564A4
:102E100020426564204C6576656C696E67003B20D6
:102E2000003A0A0020204D36303320002044002094
:102E3000204D34313220530046696C616D656E74EB
:102E40002072756E6F75742073656E736F723A00C1
:102E50002055004C0046696C616D656E74206C6F86
:102E600061642F756E6C6F6164206C656E67746849
:102E7000733A0020204D3835312058005A2D5072B9
:102E80006F6265204F66667365740020204D343193
:102E900033205300506F7765722D4C6F737320523F
:102EA00065636F766572793A0020440020490020FE
:102EB000204D333034205000204400204900202091
:102EC0004D3330312050005049442073657474698B
:102ED0006E67733A0020460020480020204D3134B0
:102EE000352053004D6174657269616C20686561BD
:102EF00074757020706172616D65746572733A00EB
:102F0000206D65736865732E0A0A00454550524F5F
:102F10004D2063616E20686F6C64200041637469AA
:102F20007665204D65736820536C6F743A200020DD
:102F3000204D34323020530020204D32303620587E
:102F400000486F6D65206F66667365743A0020589F
:102F50000020530020204D3230352042004164765D
:102F6000616E6365643A20423C6D696E5F736567AC
:102F70006D656E745F74696D655F75733E20533C5B
:102F80006D696E5F66656564726174653E20543C70
:102F90006D696E5F74726176656C5F66656564729B
:102FA0006174653E20583C6D61785F785F6A657238
:102FB0006B3E20593C6D61785F795F6A65726B3E4C
:102FC000205A3C6D61785F7A5F6A65726B3E20457E
:102FD0003C6D61785F655F6A65726B3E00205400EE
:102FE00020520020204D3230342050004163636570
:102FF0006C65726174696F6E2028756E6974732FC9
:103000007332293A20503C7072696E745F61636359
:10301000656C3E20523C726574726163745F6163DB
:1030200063656C3E20543C74726176656C5F6163CD
:1030300063656C3E0020204D3230312058004D61D8
:1030400078696D756D20416363656C657261746943
:103050006F6E2028756E6974732F7332293A0020C1
:10306000204D3230332058004D6178696D756D20E8
:103070006665656472617465732028756E69747322
:103080002F73293A00537465707320706572207530
:103090006E69743A0020440020204D3230302053B5
:1030A000002044697361626C65640A0046696C6162
:1030B0006D656E742073657474696E67733A002071
:1030C000204D3134392043203B20556E69747320E4
:1030D000696E2043656C736975730A0020286D6DF5
:1030E00029002020473231202020203B20556E69C6
:1030F000747320696E206D6D003F4D657368207498
:103100006F6F2062696720666F7220454550524F8D
:103110004D2E0A000000FA430000FA43000020414F
:10312000000096420000A0420000A0420000C843F8
:103130000000BA42DC050000DC050000640000006D
:103140004B00000024F4D43050C38E20C2A240179C
:10315000828B7011127A910D816CD90AA861E108F5
:10316000C7586607615143061E4B5D05C145A7045C
:103170001A411104093D9803713931034036DB02CD
:1031800065339102D4305402802E1D02632CEE016F
:10319000752AC501B028A001102781018F2564017F
:1031A0002B244B01E0223401AC211F018D200D01A5
:1031B000801FFC00841EED00971DDF00B81CD200AC
:1031C000E61BC600201BBC00641AB200B219A8009E
:1031D0000A19A0006A189900D117910040178B00B6
:1031E000B516840031167E00B31579003A157300C8
:1031F000C7146F0058146A00EE136600881363004A
:1032000025135E00C7125B006C12570015125400A4
:10321000C111510070114F0021114B00D61049000F
:103220008D1047004610440002104200C00F4000BD
:10323000800F3E00420F3C00060F3B00CB0E3800D3
:10324000930E37005C0E3500270E3400F30D32006C
:10325000C10D3100900D3000600D2E00320D2D009B
:10326000050D2C00D90C2B00AE0C2900850C290073
:103270005C0C2700350C27000E0C2600E80B240000
:10328000C40B2400A00B23007D0B23005A0B21004C
:10329000390B2100180B2000F80A1F00D90A1E0064
:1032A000BB0A1E009D0A1D00800A1D00630A1C0047
:1032B000470A1B002C0A1B00110A1A00F7091A0002
:1032C000DD091900C4091900AB091900920917009A
:1032D0007B091800630917004C091600360916000F
:1032E000200916000A091500F5081500E008140069
:1032F000CC081400B8081400A408140090081300A7
:103300007D0812006B0813005808120046081200CE
:1033100034081100230811001208110001081100DF
:10332000F0071000E0071000D0071000C0071000E1
:10333000B0070F00A107100091070E0083070F00D0
:1033400074070F0065070E0057070E0049070E00AF
:103350003B070D002E070E0020070D0013070D0080
:1033600006070D00F9060C00ED060D00E0060C0046
:10337000D4060C00C8060C00BC060C00B0060C00FD
:10338000A4060B0099060C008D060B0082060B00AC
:1033900077060B006C060B0061060A0057060B004F
:1033A0004C060A0042060A0038060A002E060A00E9
:1033B00024060A001A060A001006090007060A0079
:1033C000FD050900F4050900EB050900E205090007
:1033D000D9050900D0050900C7050900BE05090087
:1033E000B5050800AD050800A50509009C05080005
:1033F000940508008C050800840508007C05080079
:10340000740508006C050700650508005D050700E8
:10341000560508004E05070047050700400508004F
:1034200038050700310507002A05070023050700B6
:103430001C050600160507000F0507000805060015
:1034400002050700FB040600F5040700EE04060071
:10345000E8040600E2040700DB040600D5040600C9
:10346000CF040600C9040600C3040600BD0406001C
:10347000B7040600B1040500AC040600A60406006B
:10348000A00405009B0406009504050090040600B6
:103490008A04050085040500800406007A040500FE
:1034A00075040500700405006B0405006604050042
:1034B000610405005C040500570405005204050082
:1034C0004D04050048040500430405003E040400C3
:1034D0003A04050035040500300404002C040500FE
:1034E00027040400230405001E0404001A04040039
:1034F00016040500110404000D040400090405006D
:103500000404040000040400FC030400F8030400A5
:10351000F4030400F0030400EC030400E8030400D7
:10352000E4030400E0030400DC030400D803040007
:10353000D4030400D0030400CC030400C803030038
:10354000C503030024F404D9201BC40C5C0E9804AA
:10355000C4095F0265077101F405F900FB04B300BB
:1035600048048700C1036900580355000303450060
:10357000BE023A008402310053022A0029022500CB
:1035800004022000E4011C00C8011900AF0117006B
:1035900098011400840113007101100061011000F2
:1035A00051010E0043010D0036010B002B010B00F1
:1035B00020010B00150109000C010900030108009E
:1035C000FB000800F3000800EB000700E400060021
:1035D000DE000600D8000600D2000600CC00050080
:1035E000C7000500C2000500BD000400B9000400CA
:1035F000B5000400B1000400AD000400A9000400FF
:10360000A5000300A20003009F0004009B0003002C
:10361000980003009500020093000300900003004F
:103620008D0002008B00030088000200860002006B
:1036300084000300810002007F0002007D00020080
:103640007B00020079000200770001007600020092
:103650007400020072000100710002006F0002009D
:103660006D0001006C0002006A00010069000200A8
:1036700067000100660001006500010064000200AF
:103680006200010061000100600001005F000200B3
:103690005D0001005C0001005B0001005A000100B8
:1036A00059000100580001005700010056000100B8
:1036B00055000100540001005300000053000100B8
:1036C0005200010051000100500001004F000100B4
:1036D0004E0000004E0001004D0001004C000100B2
:1036E0004B0000004B0001004A00010049000100AE
:1036F00048000000480001004700010046000000AB
:1037000046000100450000004500010044000100A2
:10371000430000004300010042000000420001009D
:103720004100000041000100400001003F00000096
:103730003F0001003E0000003E0001003D0000008F
:103740003D0001003C0000003C0000003C00010086
:103750003B0000003B0001003A0000003A0001007D
:103760003900000039000100380000003800000076
:10377000380001003700000037000100360000006B
:103780003600000036000100350000003500000062
:103790003500010034000000340000003400010056
:1037A000330000003300000033000100320000004D
:1037B0003200000032000100310000003100000042
:1037C0003100010030000000300000003000010036
:1037D0002F0000002F0000002F0000002F0001002C
:1037E0002E0000002E0000002E0001002D00000021
:1037F0002D0000002D0000002D0001002C00000015
:103800002C0000002C0000002C0001002B00000008
:103810002B0000002B0000002B0001002A000000FC
:103820002A0000002A0000002A00010029000000F0
:1038300029000000290000002900000029000100E3
:1038400028000000280000002800000028000000D8
:1038500028000100270000002700000027000000CA
:1038600027000000270001002600000026000000BD
:1038700026000000260000002600010025000000B0
:1038800025000000250000002500000025000000A4
:103890002500010024000000240000002400000096
:1038A0002400000024000100230000002300000089
:1038B000230000002300000023000000230000007C
:1038C000230001002200000022000000220000006E
:1038D0002200000022000000220001002100000060
:1038E0002100000021000000210000002100000054
:1038F0002100000021000100200000002000000045
:103900002000000020000000200000002000000037
:1039100020000000200001001F0000001F00000028
:103920001F0000001F0000001F0000001F0000001B
:103930001F0001001E0000001E0000001E0000000D
:103940001E000000393000003325000087190000F8
:10395000B00F0000DB080000BD040000740200008E
:103960003F01000020436F756E7420583A00426595
:103970006400453100626564002C207379737465BE
:103980006D2073746F707065642120486561746583
:10399000725F49443A200048656174696E67204649
:1039A00061696C65640048656174696E6720666171
:1039B000696C6564004D3131322053687574646FF1
:1039C000776E001000C90210012C01400122017025
:1039D000011801B0010E01F00104015002FA00B01B
:1039E00002F0003003E600D003DC009004D2007047
:1039F00005C800A006BE000008B400B009AA00D0A7
:103A00000BA000600E960060118C00001582002053
:103A1000197800C01D6E00A0226400B0275A0090E3
:103A20002C500000314600E0343C00103832009049
:103A30003A2800603C1E00A03D1400803E0A002091
:103A40003F0000544845524D414C2052554E41577D
:103A5000415900546865726D616C2052756E6177D2
:103A60006179004572723A204D415854454D5000DD
:103A70004D415854454D50207472696767657265B1
:103A800064004572723A204D494E54454D50004DE8
:103A9000494E54454D50207472696767657265647C
:103AA00000202F002042403A0020403A0020573AA0
:103AB0000020573A00496E76616C6964206578741D
:103AC00072756465720A007C3C3E5E2B3D3F2F5B45
:103AD0005D3B2C2A225C0043616E6E6F74206F7018
:103AE000656E207375626469722000534420496ECC
:103AF0006974204661696C005344206361726420DC
:103B00006F6B0A006F70656E526F6F74206661692B
:103B10006C65640A00766F6C756D652E696E6974EC
:103B2000206661696C65640A004E6F20534420630F
:103B30006172640A00363726033C3D380E2E303E53
:103B4000131A1C180AFF4309070844000124F4044F
:103B5000D9201BC40C5C0E9804C4095F0265077170
:103B600001F405F900FB04B30048048700C10369B0
:103B7000005803550003034500BE023A0084023199
:103B80000053022A002902250004022000E4011C3F
:103B900000C8011900AF0117009801140084011337
:103BA00000710110006101100051010E0043010D70
:103BB0000036010B002B010B0020010B0015010941
:103BC000000C01090003010800FB000800F30008D5
:103BD00000EB000700E4000600DE000600D8000647
:103BE00000D2000600CC000500C7000500C2000599
:103BF00000BD000400B9000400B5000400B10004D9
:103C000000AD000400A9000400A5000300A2000309
:103C1000009F0004009B0003009800030095000231
:103C20000093000300900003008D0002008B00034E
:103C30000088000200860002008400030081000268
:103C4000007F0002007D0002007B0002007900027C
:103C5000007700010076000200740002007200018B
:103C600000710002006F0002006D0001006C000294
:103C7000006A00010069000200670001006600019F
:103C800000650001006400020062000100610001A3
:103C900000600001005F0002005D0001005C0001A7
:103CA000005B0001005A00010059000100580001AA
:103CB00000570001005600010055000100540001AA
:103CC00000530000005300010052000100510001A8
:103CD00000500001004F0001004E0000004E0001A6
:103CE000004D0001004C0001004B0000004B0001A2
:103CF000004A00010049000100480000004800019E
:103D00000047000100460000004600010045000099
:103D10000045000100440001004300000043000191
:103D2000004200000042000100410000004100018B
:103D300000400001003F0000003F0001003E000085
:103D4000003E0001003D0000003D0001003C00007D
:103D5000003C0000003C0001003B0000003B000173
:103D6000003A0000003A000100390000003900016B
:103D70000038000000380000003800010037000063
:103D80000037000100360000003600000036000158
:103D9000003500000035000000350001003400004F
:103DA0000034000000340001003300000033000044
:103DB0000033000100320000003200000032000138
:103DC000003100000031000000310001003000002F
:103DD0000030000000300001002F0000002F000024
:103DE000002F0000002F0001002E0000002E000018
:103DF000002E0001002D0000002D0000002D00000D
:103E0000002D0001002C0000002C0000002C000000
:103E1000002C0001002B0000002B0000002B0000F4
:103E2000002B0001002A0000002A0000002A0000E8
:103E3000002A0001002900000029000000290000DC
:103E400000290000002900010028000000280000CF
:103E500000280000002800000028000100270000C2
:103E600000270000002700000027000000270001B5
:103E700000260000002600000026000000260000AA
:103E8000002600010025000000250000002500009C
:103E9000002500000025000000250001002400008E
:103EA0000024000000240000002400000024000181
:103EB0000023000000230000002300000023000076
:103EC0000023000000230000002300010022000066
:103ED000002200000022000000220000002200005A
:103EE000002200010021000000210000002100004C
:103EF000002100000021000000210000002100013D
:103F00000020000000200000002000000020000031
:103F10000020000000200000002000000020000120
:103F2000001F0000001F0000001F0000001F000015
:103F3000001F0000001F0000001F0001001E000005
:103F4000001E0000001E0000001E00000024F4D42B
:103F50003050C38E20C2A24017828B7011127A910A
:103F60000D816CD90AA861E108C758660761514301
:103F7000061E4B5D05C145A7041A411104093D9871
:103F800003713931034036DB0265339102D430547A
:103F900002802E1D02632CEE01752AC501B028A0F7
:103FA00001102781018F2564012B244B01E022346D
:103FB00001AC211F018D200D01801FFC00841EED2E
:103FC00000971DDF00B81CD200E61BC600201BBCFA
:103FD00000641AB200B219A8000A19A0006A189960
:103FE00000D117910040178B00B516840031167E62
:103FF00000B31579003A157300C7146F0058146A9E
:1040000000EE1366008813630025135E00C7125B81
:10401000006C12570015125400C111510070114F5D
:104020000021114B00D61049008D10470046104466
:104030000002104200C00F4000800F3E00420F3CC3
:1040400000060F3B00CB0E3800930E37005C0E3598
:1040500000270E3400F30D3200C10D3100900D30F9
:1040600000600D2E00320D2D00050D2C00D90C2BFB
:1040700000AE0C2900850C29005C0C2700350C27AC
:10408000000E0C2600E80B2400C40B2400A00B2318
:10409000007D0B23005A0B2100390B2100180B2047
:1040A00000F80A1F00D90A1E00BB0A1E009D0A1D47
:1040B00000800A1D00630A1C00470A1B002C0A1B13
:1040C00000110A1A00F7091A00DD091900C40919BC
:1040D00000AB091900920917007B09180063091742
:1040E000004C09160036091600200916000A0915A9
:1040F00000F5081500E0081400CC081400B80814F6
:1041000000A4081400900813007D0812006B081327
:104110000058081200460812003408110023081144
:10412000001208110001081100F0071000E007104C
:1041300000D0071000C0071000B0070F00A1071043
:104140000091070E0083070F0074070F0065070E2C
:104150000057070E0049070E003B070D002E070E03
:104160000020070D0013070D0006070D00F9060CCF
:1041700000ED060D00E0060C00D4060C00C8060C8D
:1041800000BC060C00B0060C00A4060B0099060C3F
:10419000008D060B0082060B0077060B006C060BE9
:1041A0000061060A0057060B004C060A0042060A88
:1041B0000038060A002E060A0024060A001A060A1B
:1041C000001006090007060A00FD050900F40509AC
:1041D00000EB050900E2050900D9050900D0050931
:1041E00000C7050900BE050900B5050800AD0508B2
:1041F00000A50509009C050800940508008C050829
:1042000000840508007C050800740508006C05079B
:1042100000650508005D050700560508004E050706
:10422000004705070040050800380507003105076D
:10423000002A050700230507001C050600160507D0
:10424000000F0507000805060002050700FB04062D
:1042500000F5040700EE040600E8040600E2040787
:1042600000DB040600D5040600CF040600C90406DE
:1042700000C3040600BD040600B7040600B104052F
:1042800000AC040600A6040600A00405009B04067A
:104290000095040500900406008A040500850405C5
:1042A00000800406007A040500750405007004050A
:1042B000006B04050066040500610405005C04054C
:1042C0000057040500520405004D0405004804058C
:1042D00000430405003E0404003A040500350405CB
:1042E00000300404002C0405002704040023040506
:1042F000001E0404001A040400160405001104043E
:10430000000D040400090405000404040000040472
:1043100000FC030400F8030400F4030400F00304A9
:1043200000EC030400E8030400E4030400E00304D9
:1043300000DC030400D8030400D4030400D0030409
:1043400000CC030400C8030300C5030300726F74AC
:104350006174696F6E206D61747269783A0A002425
:10436000F404D9201BC40C5C0E9804C4095F0265D8
:10437000077101F405F900FB04B30048048700C18C
:104380000369005803550003034500BE023A008448
:1043900002310053022A002902250004022000E411
:1043A000011C00C8011900AF011700980114008416
:1043B000011300710110006101100051010E004352
:1043C000010D0036010B002B010B0020010B001525
:1043D0000109000C01090003010800FB000800F3BB
:1043E000000800EB000700E4000600DE000600D82D
:1043F000000600D2000600CC000500C7000500C280
:10440000000500BD000400B9000400B5000400B1BF
:10441000000400AD000400A9000400A5000300A2F0
:104420000003009F0004009B000300980003009518
:1044300000020093000300900003008D0002008B37
:10444000000300880002008600020084000300814F
:104450000002007F0002007D0002007B0002007964
:104460000002007700010076000200740002007272
:10447000000100710002006F0002006D0001006C7D
:104480000002006A00010069000200670001006686
:10449000000100650001006400020062000100618B
:1044A000000100600001005F0002005D0001005C8F
:1044B0000001005B0001005A000100590001005892
:1044C0000001005700010056000100550001005492
:1044D0000001005300000053000100520001005190
:1044E000000100500001004F0001004E0000004E8E
:1044F0000001004D0001004C0001004B0000004B8A
:104500000001004A00010049000100480000004885
:104510000001004700010046000000460001004580
:10452000000000450001004400010043000000437A
:104530000001004200000042000100410000004173
:10454000000100400001003F0000003F0001003E6C
:104550000000003E0001003D0000003D0001003C65
:104560000000003C0000003C0001003B0000003B5C
:104570000001003A0000003A000100390000003953
:10458000000100380000003800000038000100374A
:104590000000003700010036000000360000003641
:1045A0000001003500000035000000350001003436
:1045B000000000340000003400010033000000332C
:1045C0000000003300010032000000320000003221
:1045D0000001003100000031000000310001003016
:1045E00000000030000000300001002F0000002F0C
:1045F0000000002F0000002F0001002E0000002E00
:104600000000002E0001002D0000002D0000002DF4
:104610000000002D0001002C0000002C0000002CE8
:104620000000002C0001002B0000002B0000002BDC
:104630000000002B0001002A0000002A0000002AD0
:104640000000002A000100290000002900000029C4
:1046500000000029000000290001002800000028B7
:1046600000000028000000280000002800010027AA
:10467000000000270000002700000027000000279E
:104680000001002600000026000000260000002691
:104690000000002600010025000000250000002584
:1046A0000000002500000025000000250001002476
:1046B000000000240000002400000024000000246A
:1046C000000100230000002300000023000000235D
:1046D000000000230000002300000023000100224E
:1046E0000000002200000022000000220000002242
:1046F0000000002200010021000000210000002134
:104700000000002100000021000000210000002125
:104710000001002000000020000000200000002018
:104720000000002000000020000000200000002009
:104730000001001F0000001F0000001F0000001FFC
:104740000000001F0000001F0000001F0001001EED
:104750000000001E0000001E0000001E00000024DB
:10476000F4D43050C38E20C2A24017828B70111235
:104770007A910D816CD90AA861E108C75866076172
:104780005143061E4B5D05C145A7041A411104099A
:104790003D9803713931034036DB0265339102D411
:1047A000305402802E1D02632CEE01752AC501B023
:1047B00028A001102781018F2564012B244B01E0E3
:1047C000223401AC211F018D200D01801FFC0084CB
:1047D0001EED00971DDF00B81CD200E61BC60020AE
:1047E0001BBC00641AB200B219A8000A19A0006A22
:1047F000189900D117910040178B00B5168400312D
:10480000167E00B31579003A157300C7146F00586F
:10481000146A00EE1366008813630025135E00C758
:10482000125B006C12570015125400C11151007038
:10483000114F0021114B00D61049008D1047004642
:1048400010440002104200C00F4000800F3E0042A2
:104850000F3C00060F3B00CB0E3800930E37005C78
:104860000E3500270E3400F30D3200C10D310090DB
:104870000D3000600D2E00320D2D00050D2C00D9DD
:104880000C2B00AE0C2900850C29005C0C27003590
:104890000C27000E0C2600E80B2400C40B2400A0FB
:1048A0000B23007D0B23005A0B2100390B2100182C
:1048B0000B2000F80A1F00D90A1E00BB0A1E009D2B
:1048C0000A1D00800A1D00630A1C00470A1B002CF9
:1048D0000A1B00110A1A00F7091A00DD091900C4A1
:1048E000091900AB091900920917007B0918006328
:1048F0000917004C09160036091600200916000A8F
:10490000091500F5081500E0081400CC081400B8DB
:10491000081400A4081400900813007D0812006B0E
:10492000081300580812004608120034081100232A
:104930000811001208110001081100F0071000E032
:10494000071000D0071000C0071000B0070F00A12B
:1049500007100091070E0083070F0074070F006512
:10496000070E0057070E0049070E003B070D002EEB
:10497000070E0020070D0013070D0006070D00F9B4
:10498000060C00ED060D00E0060C00D4060C00C875
:10499000060C00BC060C00B0060C00A4060B009927
:1049A000060C008D060B0082060B0077060B006CD0
:1049B000060B0061060A0057060B004C060A00426F
:1049C000060A0038060A002E060A0024060A001A03
:1049D000060A001006090007060A00FD050900F492
:1049E000050900EB050900E2050900D9050900D019
:1049F000050900C7050900BE050900B5050800AD99
:104A0000050800A50509009C050800940508008C10
:104A1000050800840508007C050800740508006C82
:104A2000050700650508005D050700560508004EEE
:104A30000507004705070040050800380507003155
:104A40000507002A050700230507001C05060016B8
:104A50000507000F0507000805060002050700FB13
:104A6000040600F5040700EE040600E8040600E270
:104A7000040700DB040600D5040600CF040600C9C5
:104A8000040600C3040600BD040600B7040600B116
:104A9000040500AC040600A6040600A00405009B63
:104AA00004060095040500900406008A04050085AC
:104AB000040500800406007A0405007504050070F2
:104AC0000405006B04050066040500610405005C34
:104AD00004050057040500520405004D0405004874
:104AE000040500430405003E0404003A04050035B3
:104AF000040500300404002C0405002704040023EE
:104B00000405001E0404001A040400160405001124
:104B10000404000D0404000904050004040400005A
:104B2000040400FC030400F8030400F4030400F090
:104B3000030400EC030400E8030400E4030400E0C1
:104B4000030400DC030400D8030400D4030400D0F1
:104B5000030400CC030400C8030300C503030024BE
:104B6000F404D9201BC40C5C0E9804C4095F0265D0
:104B7000077101F405F900FB04B30048048700C184
:104B80000369005803550003034500BE023A008440
:104B900002310053022A002902250004022000E409
:104BA000011C00C8011900AF01170098011400840E
:104BB000011300710110006101100051010E00434A
:104BC000010D0036010B002B010B0020010B00151D
:104BD0000109000C01090003010800FB000800F3B3
:104BE000000800EB000700E4000600DE000600D825
:104BF000000600D2000600CC000500C7000500C278
:104C0000000500BD000400B9000400B5000400B1B7
:104C1000000400AD000400A9000400A5000300A2E8
:104C20000003009F0004009B000300980003009510
:104C300000020093000300900003008D0002008B2F
:104C40000003008800020086000200840003008147
:104C50000002007F0002007D0002007B000200795C
:104C6000000200770001007600020074000200726A
:104C7000000100710002006F0002006D0001006C75
:104C80000002006A0001006900020067000100667E
:104C90000001006500010064000200620001006183
:104CA000000100600001005F0002005D0001005C87
:104CB0000001005B0001005A00010059000100588A
:104CC000000100570001005600010055000100548A
:104CD0000001005300000053000100520001005188
:104CE000000100500001004F0001004E0000004E86
:104CF0000001004D0001004C0001004B0000004B82
:104D00000001004A0001004900010048000000487D
:104D10000001004700010046000000460001004578
:104D20000000004500010044000100430000004372
:104D3000000100420000004200010041000000416B
:104D4000000100400001003F0000003F0001003E64
:104D50000000003E0001003D0000003D0001003C5D
:104D60000000003C0000003C0001003B0000003B54
:104D70000001003A0000003A00010039000000394B
:104D80000001003800000038000000380001003742
:104D90000000003700010036000000360000003639
:104DA000000100350000003500000035000100342E
:104DB0000000003400000034000100330000003324
:104DC0000000003300010032000000320000003219
:104DD000000100310000003100000031000100300E
:104DE00000000030000000300001002F0000002F04
:104DF0000000002F0000002F0001002E0000002EF8
:104E00000000002E0001002D0000002D0000002DEC
:104E10000000002D0001002C0000002C0000002CE0
:104E20000000002C0001002B0000002B0000002BD4
:104E30000000002B0001002A0000002A0000002AC8
:104E40000000002A000100290000002900000029BC
:104E500000000029000000290001002800000028AF
:104E600000000028000000280000002800010027A2
:104E70000000002700000027000000270000002796
:104E80000001002600000026000000260000002689
:104E9000000000260001002500000025000000257C
:104EA000000000250000002500000025000100246E
:104EB0000000002400000024000000240000002462
:104EC0000001002300000023000000230000002355
:104ED0000000002300000023000000230001002246
:104EE000000000220000002200000022000000223A
:104EF000000000220001002100000021000000212C
:104F0000000000210000002100000021000000211D
:104F10000001002000000020000000200000002010
:104F20000000002000000020000000200000002001
:104F30000001001F0000001F0000001F0000001FF4
:104F40000000001F0000001F0000001F0001001EE5
:104F50000000001E0000001E0000001E00000024D3
:104F6000F4D43050C38E20C2A24017828B7011122D
:104F70007A910D816CD90AA861E108C7586607616A
:104F80005143061E4B5D05C145A7041A4111040992
:104F90003D9803713931034036DB0265339102D409
:104FA000305402802E1D02632CEE01752AC501B01B
:104FB00028A001102781018F2564012B244B01E0DB
:104FC000223401AC211F018D200D01801FFC0084C3
:104FD0001EED00971DDF00B81CD200E61BC60020A6
:104FE0001BBC00641AB200B219A8000A19A0006A1A
:104FF000189900D117910040178B00B51684003125
:10500000167E00B31579003A157300C7146F005867
:10501000146A00EE1366008813630025135E00C750
:10502000125B006C12570015125400C11151007030
:10503000114F0021114B00D61049008D104700463A
:1050400010440002104200C00F4000800F3E00429A
:105050000F3C00060F3B00CB0E3800930E37005C70
:105060000E3500270E3400F30D3200C10D310090D3
:105070000D3000600D2E00320D2D00050D2C00D9D5
:105080000C2B00AE0C2900850C29005C0C27003588
:105090000C27000E0C2600E80B2400C40B2400A0F3
:1050A0000B23007D0B23005A0B2100390B21001824
:1050B0000B2000F80A1F00D90A1E00BB0A1E009D23
:1050C0000A1D00800A1D00630A1C00470A1B002CF1
:1050D0000A1B00110A1A00F7091A00DD091900C499
:1050E000091900AB091900920917007B0918006320
:1050F0000917004C09160036091600200916000A87
:10510000091500F5081500E0081400CC081400B8D3
:10511000081400A4081400900813007D0812006B06
:105120000813005808120046081200340811002322
:105130000811001208110001081100F0071000E02A
:10514000071000D0071000C0071000B0070F00A123
:1051500007100091070E0083070F0074070F00650A
:10516000070E0057070E0049070E003B070D002EE3
:10517000070E0020070D0013070D0006070D00F9AC
:10518000060C00ED060D00E0060C00D4060C00C86D
:10519000060C00BC060C00B0060C00A4060B00991F
:1051A000060C008D060B0082060B0077060B006CC8
:1051B000060B0061060A0057060B004C060A004267
:1051C000060A0038060A002E060A0024060A001AFB
:1051D000060A001006090007060A00FD050900F48A
:1051E000050900EB050900E2050900D9050900D011
:1051F000050900C7050900BE050900B5050800AD91
:10520000050800A50509009C050800940508008C08
:10521000050800840508007C050800740508006C7A
:10522000050700650508005D050700560508004EE6
:10523000050700470507004005080038050700314D
:105240000507002A050700230507001C05060016B0
:105250000507000F0507000805060002050700FB0B
:10526000040600F5040700EE040600E8040600E268
:10527000040700DB040600D5040600CF040600C9BD
:10528000040600C3040600BD040600B7040600B10E
:10529000040500AC040600A6040600A00405009B5B
:1052A00004060095040500900406008A04050085A4
:1052B000040500800406007A0405007504050070EA
:1052C0000405006B04050066040500610405005C2C
:1052D00004050057040500520405004D040500486C
:1052E000040500430405003E0404003A04050035AB
:1052F000040500300404002C0405002704040023E6
:105300000405001E0404001A04040016040500111C
:105310000404000D04040009040500040404000052
:10532000040400FC030400F8030400F4030400F088
:10533000030400EC030400E8030400E4030400E0B9
:10534000030400DC030400D8030400D4030400D0E9
:10535000030400CC030400C8030300C503030010CA
:1053600000C90210012C014001220170011801B096
:10537000010E01F00104015002FA00B002F0003009
:1053800003E600D003DC009004D2007005C800A042
:1053900006BE000008B400B009AA00D00BA000604F
:1053A0000E960060118C000015820020197800C054
:1053B0001D6E00A0226400B0275A00902C500000FF
:1053C000314600E0343C0010383200903A2800604A
:1053D0003C1E00A03D1400803E0A00203F000060FB
:1053E00001F4017001EA019001E001B001D601D0A1
:1053F00001CC010002C2013002B8016002AE01908E
:1054000002A401D0029A012003900170038601C01A
:10541000037C0130047201A004680120055E01B024
:1054200005540160064A0120074001F0073601F0EB
:10543000082C01100A2201500B1801C00C0E01505B
:105440000E04013010FA002012F0005014E600C0E3
:1054500016DC007019D200501CC800501FBE00702E
:1054600022B400B025AA00F028A000202C9600301D
:105470002F8C0010328200A0347800F0366E00E0ED
:10548000386400803A5A00403B5500E03B5000F041
:105490003C4600C03D3C00603E3200E03E2800300B
:1054A0003F1E00503F1900703F1400A03F0A00C08B
:1054B0003F0000D03FF6FFE03FECFF5A5F6D6F7694
:1054C000655F636F6D700A004732385800473238A5
:1054D00059004732385A004732384F0A4D34382085
:1054E000503130004D383400473239503452393958
:1054F000395400473239503454004732380A473261
:105500003643504930004732380A47323643504913
:1055100031004732394A3000473239503354300075
:105520004732395032425430004732380A4D31390F
:105530003049300A4D31303949300A47323950311B
:105540000A4D31303453300A4D3134305330004736
:1055500032380A4D31393049310A4D31303949310B
:105560000A47323950310A4D31303453300A4D3107
:1055700034305330004732394E50310047323950C1
:1055800031430047323949004732395430004732FD
:1055900039543100473239532D31004732394939B6
:1055A00039390A4732395032425430004732394E85
:1055B000503100473239503354300047323950347B
:1055C0005239393954004732395034523939395403
:1055D00000473239440047323941004732395700D9
:1055E000417869732000206D696E3A00206D617802
:1055F0003A004641535400534C4F570005000006F3
:105600000100040006010006050000000600040079
:105610004572726F722077726974696E6720746F59
:1056200020454550524F4D210A0053544F5050458C
:10563000442E20005072696E7465722073746F700E
:105640007065642064756520746F206572726F7276
:10565000732E2046697820746865206572726F72B7
:1056600020616E6420757365204D39393920746F5F
:1056700020726573746172742E202854656D706594
:105680007261747572652069732072657365742E1A
:105690002053657420697420616674657220726598
:1056A0007374617274696E67290A004E6F204368D3
:1056B00065636B73756D2077697468206C696E65BE
:1056C000206E756D6265722C204C617374204C697C
:1056D0006E653A20004E6F20436865636B73756D8D
:1056E0002077697468206C696E65206E756D6265DF
:1056F000722C204C617374204C696E653A200063F3
:105700006865636B73756D206D69736D6174636833
:105710002C204C617374204C696E653A20004C69F2
:105720006E65204E756D626572206973206E6F74B0
:10573000204C617374204C696E65204E756D6265F6
:10574000722B312C204C617374204C696E653A20A9
:10575000004D3131300053657269616C20737461A2
:10576000747573206D69736D617463680A00776185
:1057700069740A0053442072656164206572726F17
:10578000720A00486F74656E642049646C65205429
:10579000696D656F757400486F74656E6420496447
:1057A0006C652054696D656F75740A002121204B6A
:1057B000494C4C20636175736564206279204B49C4
:1057C0004C4C20627574746F6E2F70696E0A0021E4
:1057D00021204B494C4C20636175736564206279CC
:1057E00020746F6F206D75636820696E61637469E2
:1057F00076652074696D65202D2063757272656E03
:105800007420636F6D6D616E643A20007061757312
:1058100065004D363030002066696C616D656E74D0
:105820005F72756E6F7574200066696C616D656E70
:10583000745F72756E6F757420540046696C616D8B
:10584000656E7452756E6F75742054004D65646991
:10585000612052656D6F766564004D6564696120F5
:10586000496E736572746564004D31303030530099
:10587000627573793A2070617573656420666F7222
:1058800020696E7075740A00627573793A207061D0
:105890007573656420666F7220757365720A0062A5
:1058A0007573793A2070726F63657373696E670AF6
:1058B00000506C65617365205265736574005052C9
:1058C000494E5445522048414C5445440025533AD2
:1058D00020255300706F7765726F6666004B494CE8
:1058E0004C45442E20005072696E746572206861C8
:1058F0006C7465642E206B696C6C28292063616C64
:105900006C6564210A0053544F505045442E2000CA
:105910005072696E7465722073746F707065642064
:1059200064756520746F206572726F72732E2046E5
:10593000697820746865206572726F7220616E6488
:1059400020757365204D39393920746F2072657365
:10595000746172742E202854656D7065726174755F
:1059600072652069732072657365742E20536574A7
:105970002069742061667465722072657374617247
:1059800074696E67290A006563686F3A0045727230
:105990006F723A00204A0020204D343231204900F5
:1059A000202047323920493939390A006163746946
:1059B00076650A00696E00002053797374656D2066
:1059C00076312E303120002020207C0A004E414EBE
:1059D0000020202E20202000207C004C43443A0A46
:1059E000004353563A0A0020666F7220003A0A0AB2
:1059F000000A42656420546F706F67726170687945
:105A0000205265706F72740050726F62696E672009
:105A10004661696C65640A0050726F62696E672046
:105A20004661696C656400205A3A200020593A208A
:105A30000042656420583A20004732384C30004418
:105A40006F6E652E0A003F496E76616C6964207343
:105A5000746F7261676520736C6F742E0A3F5573A3
:105A600065203020746F20003F454550524F4D2037
:105A700073746F72616765206E6F742061766169FF
:105A80006C61626C652E0A00446F6E652E0A003FE1
:105A9000496E76616C69642073746F72616765200A
:105AA000736C6F742E0A3F557365203020746F201D
:105AB000003F454550524F4D2073746F72616765CA
:105AC000206E6F7420617661696C61626C652E0A6C
:105AD000004732392050322066696E697368656408
