:100000000C94891A0C94BA1A0C94BA1A0C94BA1A51
:100010000C94BA1A0C94BA1A0C94BA1A0C94BA1A10
:100020000C94BA1A0C94BA1A0C94BA1A0C94BA1A00
:100030000C94BA1A0C94BA1A0C94BA1A0C94BA1AF0
:100040000C94BA1A0C94FED90C94BA1A0C94BA1ADD
:100050000C94BA1A0C94BA1A0C941CC10C94BCAC33
:100060000C94BA1A0C9448560C943E560C94BA1A36
:100070000C94BA1A0C94BA1A0C94BA1A0C94BA1AB0
:100080000C942A340C94BA1A0C94BA1A0C94BA1A16
:100090000C94BA1A0C94BA1A0C94BA1A0C94BA1A90
:1000A0000C94BA1A0C94BA1A0C94FC330C94BA1A25
:1000B0000C94BA1A0C94BA1A0C94BA1A0C94BA1A70
:1000C0000C94BA1A0C94BA1A0C94BA1A0C944537B8
:1000D0000C940F370C94BA1A0C94BA1A0C94BA1ADE
:1000E0000C94BA1A084AD73B3BCE016E84BCBFFDC4
:1000F000C12F3D6C74319ABD56833DDA3D00C77FF8
:1001000011BED9E4BB4C3E916BAAAABE0000008090
:100110003F05A84CCDB2D44EB93836A9020C50B91F
:10012000918688083CA6AAAA2ABE000000803F004B
:100130000C9486560C9405A90C9460A80C941DA8E8
:100140000C94D0370C94EF370D941F240D94D212D9
:100150000C94CFAB0C944EA80C946EA80C9464A88D
:100160000C94FBA80D94910C0D94760E0C9448A859
:100170000C9474A90D94FE130D9489120C9433A958
:100180000D94400E0C943DA90C947EA90D94CA02C6
:100190000C94F6A50C943E420D944B0B0C94B3AA10
:1001A0000D94CC0F0C94A2AB0D94B90F0D94580F75
:1001B0000D940C130C943BA80C94FE440D94EB127C
:1001C0000D94B9120D94FA040C94E2560D94D004D7
:1001D0000C9421A90C94C4560D94FF120D94ED13A8
:1001E0000C946AA80C94DF370C94DB370C94DE5621
:1001F0000C9419A90C9459440C94E3370D94B00D48
:100200000C94B2370C9452A80C9483370D94210FA0
:100210000C94EEA90C9488A90C9404570C94F2AB9E
:100220000C94EB370C9447A90C94F6A80C94F25656
:100230000C94C6440D94E40E0D943D240C94E737C1
:100240000D94E00C0C945CA80C940FA90D94E11291
:100250000C946AAA0C9433A80D94770F0C943EA8C2
:100260000C940BAA0C9412AB0D94B1080D94440F8E
:100270000C9456A80C9437A80C94F7AA0C948544B7
:100280000C9473A50C9456A90D94140D0C94DA5685
:100290000C9409380C9490AB0C948D420C94F63766
:1002A0000C9401380C940C570C94B5560C9460A91E
:1002B0000D94A1170C9418A80C94E6560C94EEA873
:1002C0000D94C1140D94B0120C94F5A50C94EE5637
:1002D0000D947C100C942FA80C94D3560D94C40C40
:1002E0000C9444A80C9491420D94EB030C94C137E8
:1002F0000C94EA560D940D0F0C94F9560C946AA9BF
:100300000D9462060D9433070C9429A90C94D737E9
:100310000D94B6124E414E494E495459494E46CD60
:10032000CCCC3D0AD7233C17B7D13877CC2B3295AC
:1003300095E6241FB14F0A000020410000C842008A
:10034000401C4620BCBE4CCA1B0E5AAEC59D740054
:10035000407A10F35A00A0724E18090010A5D4E894
:100360000000E87648170000E40B54020000CA9A27
:100370003B000000E1F50500008096980000004079
:10038000420F000000A086010000001027000000BE
:1003900000E803000000006400000000000A000004
:1003A0000000000100000000002C76D888DC674FB8
:1003B0000823DFC1DFAE59E1B1B796E5E3E453C6E8
:1003C0003AE651997696E8E6C28426EB898C9B62E0
:1003D000ED407C6FFCEFBC9C9F40F2BAA56FA5F48A
:1003E00090055A2AF75C936B6CF9676DC11BFCE0B2
:1003F000E40D47FEF520E6B500D0ED902E03009405
:100400003577050080841E080000204E0A00000099
:10041000C80C333333330F986E12831141EF8D21A3
:1004200014893BE65516CFFEE6DB18D1844B381B0A
:10043000F77C1D901DA4BBE424203284725E2281CF
:1004400000C9F124ECA1E53D27434F4D4D554E49E0
:10045000434154494F4E0044525952554E00455263
:10046000524F525300494E464F004543484F0045B6
:1004700072726F722077726974696E6720746F2070
:10048000454550524F4D210A0053544F505045445A
:100490002E20005072696E7465722073746F7070D4
:1004A00065642064756520746F206572726F727365
:1004B0002E2046697820746865206572726F7220FC
:1004C000616E6420757365204D39393920746F2051
:1004D000726573746172742E202854656D70657234
:1004E00061747572652069732072657365742E205E
:1004F0005365742069742061667465722072657337
:1005000074617274696E67290A004E6F20436865D2
:10051000636B73756D2077697468206C696E6520F4
:100520006E756D6265722C204C617374204C696E1F
:10053000653A20004E6F20436865636B73756D20CC
:1005400077697468206C696E65206E756D6265727E
:100550002C204C617374204C696E653A20006368EE
:1005600065636B73756D206D69736D617463682C61
:10057000204C617374204C696E653A20004C696EA2
:1005800065204E756D626572206973206E6F7420F0
:100590004C617374204C696E65204E756D62657296
:1005A0002B312C204C617374204C696E653A20000D
:1005B0004D3131300053657269616C207374617420
:1005C0007573206D69736D617463680A0077616982
:1005D000740A0053442072656164206572726F7200
:1005E0000A002121204B494C4C20636175736564DE
:1005F00020627920746F6F206D75636820696E6169
:1006000063746976652074696D65202D2063757249
:1006100072656E7420636F6D6D616E643A20004880
:100620006F74656E642049646C652054696D656FF4
:10063000757400486F74656E642049646C6520545D
:10064000696D656F75740A003D3D6F6E46696C613A
:100650006D656E7452756E6F75743D3D0070617599
:100660007365004D363030002066696C616D656ED3
:10067000745F72756E6F7574200066696C616D656C
:100680006E745F72756E6F757420540046696C618C
:100690006D656E7452756E6F75742054002A2A2A27
:1006A000496E6974696E67206361726420697320A2
:1006B0004F4B2A2A2A004D6564696120496E736593
:1006C00072746564004D656469612052656D6F7672
:1006D0006564004D313030305300627573793A20D3
:1006E00070617573656420666F7220696E707574D1
:1006F0000A00627573793A207061757365642066CB
:100700006F7220757365720A00627573793A207092
:10071000726F63657373696E670A002A2A2A6B69B0
:100720006C6C2A2A2A00706F7765726F6666004BC0
:10073000494C4C45442E20005072696E74657220FD
:1007400068616C7465642E206B696C6C2829206369
:10075000616C6C6564210A0053544F505045442E1F
:1007600020005072696E7465722073746F707065CA
:10077000642064756520746F206572726F72732EC9
:100780002046697820746865206572726F722061F6
:100790006E6420757365204D39393920746F20726D
:1007A0006573746172742E202854656D7065726172
:1007B000747572652069732072657365742E205399
:1007C0006574206974206166746572207265737443
:1007D000617274696E67290A006563686F3A004543
:1007E00072726F723A0042696C696E656172204C78
:1007F0006576656C696E6720477269643A0A002104
:10080000212053544F502063616C6C6564206265F5
:100810006361757365206F6620424C546F75636821
:10082000206572726F72202D20726573746172740C
:100830002077697468204D3939390A002121205305
:10084000544F502063616C6C656420626563617510
:100850007365206F6620424C546F75636820657223
:10086000726F72202D2072657374617274207769C3
:100870007468204D3939390A002F2F616374696F0C
:100880006E3A0070726F6D70745F00656E64005335
:10089000656E64204D31303820746F207265737539
:1008A0006D650A00496E736572742066696C616DCE
:1008B000656E7420616E642073656E64204D313006
:1008C000380A005265686561742066696E697368EC
:1008D00065642E0052656865617420446F6E650022
:1008E000526568656174696E672E2E2E00526568C8
:1008F000656174004865617465722054696D656F47
:1009000075740053656E64204D31303820746F204B
:1009100068656174206E6F7A7A6C650A004E6F7A32
:100920007A6C65205061726B656400486F74656E07
:100930006420746F6F20636F6C640A00706175735C
:1009400065640050617573650044697361626C652C
:1009500052756E6F75740050757267654D6F726574
:10096000005061757365640073686F770062757419
:10097000746F6E00626567696E004C6F616420463B
:10098000696C616D656E74004C6F61642046696CC2
:10099000616D656E74205400496E736572742066D3
:1009A000696C616D656E7420616E642073656E6440
:1009B000204D3130380A00726573756D65640052E0
:1009C0006573756D696E670057616974696E67203C
:1009D000666F72206865617475702E0A004C6561DF
:1009E00076696E6720473236003F537065636966EB
:1009F00069656420582C5920636F6F7264696E6159
:100A00007465206F7574206F6620626F756E6473F5
:100A10002E0A003F28522965706561742076616C4A
:100A20007565206E6F7420706C61757369626C659A
:100A30003B206D757374206265206174206C656164
:100A4000737420312E0A003F285229657065617445
:100A5000206D7573742062652073706563696669C3
:100A60006564207768656E206E6F74207573696E9B
:100A70006720616E204C43442E0A003F537065632B
:100A80006966696564206E6F7A7A6C652074656D3D
:100A90007065726174757265206E6F7420706C6120
:100AA000757369626C652E0A003F537065636966F1
:100AB0006965642066696C616D656E742073697A1E
:100AC00065206E6F7420706C61757369626C652E41
:100AD0000A003F53706563696669656420707269D6
:100AE0006D65206C656E677468206E6F7420706C25
:100AF00061757369626C652E0A003F5072696D659D
:100B0000206C656E677468206D7573742062652053
:100B1000737065636966696564207768656E206EC9
:100B20006F74207573696E6720616E204C43442E8C
:100B30000A003F537065636966696564206E6F7A69
:100B40007A6C652073697A65206E6F7420706C61B1
:100B5000757369626C652E0A003F52657472616339
:100B600074696F6E204D756C7469706C6965722064
:100B70006D7573742062652073706563696669655D
:100B8000642E0A003F53706563696669656420528C
:100B9000657472616374696F6E204D756C746970F1
:100BA0006C696572206E6F7420706C617573696218
:100BB0006C652E0A003F5370656369666965642041
:100BC0006C6179657220686569676874206E6F74FE
:100BD00020706C61757369626C652E0A0043292E62
:100BE0000A003F53706563696669656420626564E5
:100BF0002074656D7065726174757265206E6F74B6
:100C000020706C61757369626C65202834302D002A
:100C1000473236207374617274696E672E2E2E0A05
:100C2000004F46460A00466164652048656967686A
:100C3000742000426564204C6576656C696E67209F
:100C4000004661696C656420746F20656E61626C3A
:100C50006520426564204C6576656C696E670A00A4
:100C6000496E76616C6964206D6573682E0A005068
:100C7000726F62696E6720506F696E740025532031
:100C800025692F2569002E0A002F0050726F6269B6
:100C90006E67206D65736820706F696E7420002028
:100CA0002844525952554E29004732392041757413
:100CB0006F20426564204C6576656C696E67003F05
:100CC00020284C2C522C462C4229206F7574206F02
:100CD0006620626F756E64732E0A003F2856296580
:100CE00072626F7365206C6576656C20696D706CDF
:100CF00061757369626C652028302D34292E0A00D5
:100D0000426164205A2076616C75650A004E6F203E
:100D100062696C696E65617220677269640A004479
:100D20006576696174696F6E0025533A20257300FA
:100D300046696E6973686564210A003A207A3A2030
:100D400000206F662000476F696E6720746F3A203D
:100D5000580043570A00206469723A0020616E67A8
:100D60006C653A00537461727420726164697573C2
:100D70003A004D343820506F696E740025533A2084
:100D800025642F256400506F736974696F6E696EF6
:100D900067207468652070726F62652E2E2E0A00BF
:100DA0003F4C656773206F66206D6F76656D656E6D
:100DB0007420696D706C61757369626C6520283090
:100DC0002D3135292E0A003F2028582C5929206F13
:100DD0007574206F6620626F756E64732E0A005002
:100DE000726F6265206F7574206F6620626F756E1A
:100DF0006473003F53616D706C652073697A652080
:100E00006E6F7420706C61757369626C6520283434
:100E10002D3530292E0A004D3438205A2D50726F4E
:100E20006265205265706561746162696C6974798C
:100E300020546573740A003F2856296572626F73E7
:100E400065206C6576656C20696D706C6175736981
:100E5000626C652028302D34292E0A005374616E8F
:100E60006461726420446576696174696F6E3A20CA
:100E7000002052616E67653A2000204D61783A206B
:100E800000204D696E3A2000205369676D613A2059
:100E9000004D65616E3A20005741524E494E472140
:100EA000204C6F77205A204A65726B206D61792043
:100EB0006C65616420746F20756E77616E74656413
:100EC000207061757365732E0A004F4646004F4EC1
:100ED0000020204D61783A2000200020204D696ECE
:100EE0003A2000536F667420656E6473746F70737C
:100EF0003A20003D3D4F6E506F7765724C6F7373B3
:100F0000526573756D653D3D004D32342053256C3F
:100F1000642054256C64004739322E3920452573EE
:100F200000473120462564004739322E39205A25A2
:100F300073004731205A302046323030004731208C
:100F400058257320592573204633303030004D34F6
:100F5000323020532569205A2573004D3130362018
:100F600050256920532569004D32303020442573C7
:100F70000047323852305859004739322E3920450F
:100F800030205A300A47315A2573004D313039200C
:100F9000532569004D31393020532569004D3432D5
:100FA00030205330205A300020496E76616C6964DD
:100FB000206578747275646572200047322F47335C
:100FC0002062616420706172616D65746572730A7C
:100FD00000536C6565702E2E2E005A2050726F6281
:100FE000652050617374204265640A005A20507273
:100FF0006F62652050617374204265640047323827
:101000004C30004D3131372050726F62652066617F
:10101000696C65642E0A4732380A0070726F626527
:101020005F72657769706500473239205265747266
:1010300079696E670050726F62696E6720466169F8
:101040006C6564004D31313720426564206C6576F3
:10105000656C696E67206661696C65642E0A47304D
:10106000205A31300A4D3330302050323520533839
:1010700038300A4D333030205035302053300A4D4F
:101080003330302050323520533838300A4D333029
:1010900030205035302053300A4D3330302050321C
:1010A0003520533838300A4D333030205035302019
:1010B00053300A47342053310070726F62655F66A7
:1010C00061696C6564004D31313720426564206C84
:1010D0006576656C696E6720646F6E652E00205AB8
:1010E0003A200020593A200042656420583A2000F6
:1010F0004D65736820706F696E74206F7574206F12
:10110000662072616E67650A004D302053746F70FF
:10111000004D312053746F7000436F6E74696E75AB
:101120006500436C69636B20746F20526573756D45
:10113000652E2E2E004E6F204D6F76652E00456E6B
:10114000642066696C65206C6973740A0042656787
:10115000696E2066696C65206C6973740A004E6F55
:10116000206D656469610A00526573756D696E670B
:1011700020534400286E6F2066696C652900437512
:101180007272656E742066696C653A2000507269EF
:101190006E742074696D653A20000A53746174732B
:1011A0003A2046696C616D656E7420757365643AAA
:1011B00020002C204C6F6E67657374206A6F623A52
:1011C0002000546F74616C2074696D653A2000537F
:1011D000746174733A20002C204661696C65643A2E
:1011E00020002C2046696E69736865643A200050BF
:1011F00072696E74733A200053746174733A2000FC
:10120000436F6F6C696E672E2E2E0048656174699E
:101210006E672E2E2E0045202553006F6B006F66E3
:1012200066006A0465045E04570449044445425557
:10123000473A004D31313320530042656420436FFB
:101240006F6C696E672E2E2E0042656420486561C2
:1012500074696E672E2E2E00544D33442045352080
:10126000506C7573204F46462E002F2F00205200E1
:10127000416363656C65726174696F6E3A205000FA
:101280004D32303620580046523A0020466C6F7777
:101290003A20003A200020536572766F2000206FBC
:1012A0007574206F662072616E67650A00536572FF
:1012B000766F200020643A0020693A0020703A00DE
:1012C000496E76616C6964206578747275646572C4
:1012D0000A0020643A0020693A0020703A006469EC
:1012E0007300656E0043290A0061626C6564202802
:1012F0006D696E2074656D702000436F6C642065AD
:101300007874727564657320617265200050494479
:10131000204175746F74756E6500504944204175A5
:10132000746F74756E65206661696C656421204216
:101330006164206865617465722069640A004669A9
:101340006C616D656E742072756E6F757420646962
:101350007374616E636520286D6D293A20004669BB
:101360006C616D656E742072756E6F757420004DC2
:1013700034323120696E636F7272656374207061FC
:1013800072616D657465722075736167650A004DE1
:1013900065736820706F696E74206F7574206F6656
:1013A0002072616E67650A004F666673657473200C
:1013B0004170706C696564004572723A20546F6FB9
:1013C000206661722100546F6F2066617220667220
:1013D0006F6D207265666572656E636520706F69FA
:1013E0006E740A00454550524F4D204F4B0A002E57
:1013F0000A002028302D313029002076616C756577
:10140000206F7574206F662072616E67650041649D
:1014100076616E6365204B3D00506F7765722D6C71
:101420006F7373207265636F766572792000436114
:10143000703A004D4541545041434B00434F4F4C8F
:1014400045525F54454D5045524154555245004315
:1014500048414D4245525F54454D504552415455C7
:10146000524500424142595354455050494E47005D
:1014700041524353004D4F54494F4E5F4D4F4445E9
:101480005300544845524D414C5F50524F544543D0
:1014900054494F4E004C4F4E475F46494C454E41D4
:1014A0004D45004155544F5245504F52545F53449F
:1014B0005F5354415455530053445F575249544568
:1014C000005245504541540053444341524400505A
:1014D000524F4D50545F535550504F525400454D4C
:1014E000455247454E43595F504152534552004380
:1014F0004153455F4C494748545F4252494748541D
:101500004E45535300544F47474C455F4C4947485D
:10151000545300534F4654574152455F504F57451F
:1015200052004255494C445F50455243454E540089
:101530004C4556454C494E475F44415441005A5F23
:1015400050524F42450052554E4F5554004155544C
:101550004F4C4556454C005052494E545F4A4F42FD
:101560000050524F4752455353004155544F524536
:10157000504F52545F54454D5000564F4C554D45B9
:101580005452494300454550524F4D0042494E4147
:1015900052595F46494C455F5452414E534645525D
:1015A0000053455249414C5F584F4E5F584F464695
:1015B000004649524D574152455F4E414D453A4DC7
:1015C00061726C696E20322E302E375F4457372E91
:1015D0003320544D334420453550534D444242202E
:1015E0002841707220323420323032312031363A84
:1015F00030313A33322920534F555243455F434FE0
:1016000044455F55524C3A68747470733A2F2F6793
:1016100069746875622E636F6D2F496E73616E69B0
:1016200074794175746F6D6174696F6E2F4D61725D
:101630006C696E2F747265652F437265616C697495
:10164000794477696E5F322E302050524F544F43A9
:101650004F4C5F56455253494F4E3A312E30204D34
:10166000414348494E455F545950453A544D3344DF
:1016700020453520506C75732045585452554445CB
:10168000525F434F554E543A3120555549443A63C1
:10169000656465326132662D343161322D34373400
:1016A000382D396231322D63353563363266333643
:1016B0003766660A0050726F6265204F6666736512
:1016C00074205A0050726F6265204F6666736574AD
:1016D000205A00290A0020746F20003F5A206F759D
:1016E00074206F662072616E6765202800290A00E9
:1016F00020746F20003F59206F7574206F66207230
:10170000616E676520282D00290A0020746F200073
:101710003F58206F7574206F662072616E67652078
:10172000282D0050726F6265204F666673657420C5
:1017300058004D383400446F6E65207072696E74C5
:10174000696E672066696C650A004D3737004D3356
:10175000310043616E6E6F74206F70656E2073751B
:101760006264697220002569730025696D2025690E
:1017700073002569682025696D2025697300256936
:1017800064202569682025696D2025697300256915
:101790007920256964202569682025696D202569DF
:1017A00073003D3D4477696E20496E697420436F34
:1017B0006D706C6574653D3D002A2A2A4E6F7A7AF9
:1017C0006C6554656D705374617475735B325D2024
:1017D0003D003D3D48656174696E6720446F6E65EC
:1017E000204368616E67652046696C616D656E7443
:1017F0003D3D002020737461727470726F67726572
:10180000737320003D3D7761697477617920353DC0
:101810003D003D3D7761697477617920343D3D003D
:101820003D3D7761697477617920333D3D003D3DF1
:101830007761697477617920313D3D003D3D6F6E80
:101840005072696E7454696D657253746F7070650F
:10185000643D3D003D3D6F6E466163746F72795229
:10186000657365743D3D00270A0A000027202700A4
:101870002027002D006E6F74696669636174696F5B
:101880006E200063616E63656C005072696E742037
:1018900041626F72746564004469736D69737300AB
:1018A00055492041626F7274656400726573756D8D
:1018B00065004D3234002A2A2A43506C6179205445
:1018C0006F6E652A2A2A003D3D6F6E5072696E74F4
:1018D00054696D65725061757365643D3D00486F74
:1018E0006D696E67204661696C6564006F70656E36
:1018F00000545249474745524544003A2000666922
:101900006C616D656E74007A5F6D696E00795F6DF4
:10191000617800785F6D6178005265706F727469EC
:101920006E6720656E6473746F7020737461747574
:10193000730A0020746F6F206C6F6E672065787477
:10194000727573696F6E2070726576656E7465640A
:101950000A0020636F6C6420657874727573696F18
:101960006E2070726576656E7465640A00486F6DEE
:10197000652025732573257320466972737400579B
:1019800061726E696E673A20486F6D696E672042BA
:10199000756D702044697669736F72203C20310A3E
:1019A000000202040000B4430000B4430000000041
:1019B0000000B4430000B4430000C84300000041ED
:1019C00000000041000000400101FF000000010094
:1019D0000000010000800055555500000040003314
:1019E000333300AAAA2A004992240000002000C72D
:1019F000711C0099991900D1451700555515003BE8
:101A0000B113002449120011111100000010000F41
:101A10000F0F00E3380E0043790D00CCCC0C00C34F
:101A2000300C00E8A20B0064210B00AAAA0A007087
:101A30003D0A009DD80900427B090092240900DC80
:101A4000D30800888808001042080000000800F051
:101A5000C107008787070075500700711C07003E0B
:101A6000EB0600A1BC0600699006006666060070E1
:101A70003E06006118060017F4050074D105005BEE
:101A8000B00500B29005006272050055550500785A
:101A9000390500B81E0500050505004EEC04008759
:101AA000D40400A1BD040090A7040049920400C121
:101AB0007D0400EE690400C7560400444404005C41
:101AC0003204000821040041100400000004003F1B
:101AD000F00300F8E0030026D20300C3C30300CCE8
:101AE000B503003AA803000A9B0300388E0300C028
:101AF0008103009F750300D0690300505E03001D41
:101B000053030034480300913D03003333030016B0
:101B1000290300381F030097150300300C0300034E
:101B20000303000BFA020049F10200BAE802005C6C
:101B3000E002002DD802002DD0020059C80200B0EA
:101B4000C0020031B90200DAB10200AAAA0200A064
:101B5000A30200BC9C0200FA9502005C8F0200DF29
:101B600088020082820200457C020027760200275C
:101B7000700200436A02007C640200D05E02003FF3
:101B8000590200C8530200FFFDFCFAF8F6F4F2F027
:101B9000EEECEAE9E7E5E3E1E0DEDCDAD9D7D5D43B
:101BA000D2D0CFCDCBCAC8C7C5C3C2C0BFBDBCBAD7
:101BB000B9B7B6B4B3B2B0AFADACAAA9A8A6A5A444
:101BC000A2A1A09E9D9C9A99989795949392908F8C
:101BD0008E8D8B8A8988878684838281807F7E7DB3
:101BE0007B7A797877767574737271706F6E6D6CBD
:101BF0006B6A696867666564636261605F5E5D5CAD
:101C00005B5A5958585756555453525150504F4E8D
:101C10004D4C4B4A4A494847464645444342424157
:101C2000403F3E3E3D3C3B3B3A3938383736353510
:101C3000343332323130302F2E2E2D2C2B2B2A29BB
:101C40002928272726252524232322212120201F58
:101C50001E1E1D1C1C1B1B1A1919181817161615E9
:101C60001514131312121111100F0F0E0E0D0D0C6F
:101C70000C0B0A0A090908080707060605050404EB
:101C8000030302020100003D3D6F6E5072696E74E5
:101C900054696D6572537461727465643D3D0000F2
:101CA00000B4430000B4430000C84300000000003B
:101CB000000000000000003D3D6F6E53746F7265C0
:101CC00053657474696E67733D3D003D3D6F6E43AF
:101CD0006F6E66696775726174696F6E53746F7247
:101CE000655772697474656E3D3D0053657474691F
:101CF0006E67732053746F726564000A20696E69A1
:101D000074207A70726F62655F7A6F66667365744D
:101D1000203D20003D3D6F6E436F6E6669677572B2
:101D20006174696F6E53746F7265526561643D3D95
:101D300000454550524F4D20496E697469616C6988
:101D40007A65640A003B20003A0A0020204D3630B4
:101D500033200020440020204D34313220530046EF
:101D6000696C616D656E742072756E6F7574207329
:101D7000656E736F723A002055004C0046696C61C5
:101D80006D656E74206C6F61642F756E6C6F61642D
:101D9000206C656E677468733A0020204D393030CE
:101DA000204B004C696E65617220416476616E6300
:101DB000653A0020204D3835312058005A2D507298
:101DC0006F6265204F66667365740020204D343164
:101DD00033205300506F7765722D4C6F7373205210
:101DE00065636F766572793A0020440020490020CF
:101DF000204D333034205000204400204900202062
:101E00004D3330312050005049442073657474695B
:101E10006E67733A00204A0020204732392057204D
:101E2000490020204D3432302053004175746F201A
:101E3000426564204C6576656C696E673A002020C7
:101E40004D323036205800486F6D65206F666673DE
:101E500065743A0020580020530020204D32303560
:101E6000204200416476616E6365643A20423C6DB5
:101E7000696E5F7365676D656E745F74696D655FCC
:101E800075733E20533C6D696E5F66656564726173
:101E900074653E20543C6D696E5F74726176656C4A
:101EA0005F66656564726174653E20583C6D61785B
:101EB0005F785F6A65726B3E20593C6D61785F792F
:101EC0005F6A65726B3E205A3C6D61785F7A5F6A2B
:101ED00065726B3E20453C6D61785F655F6A657237
:101EE0006B3E0020540020520020204D3230342020
:101EF0005000416363656C65726174696F6E202880
:101F0000756E6974732F7332293A20503C70726970
:101F10006E745F616363656C3E20523C72657472DF
:101F20006163745F616363656C3E20543C747261ED
:101F300076656C5F616363656C3E0020204D3230D6
:101F4000312058004D6178696D756D20416363657E
:101F50006C65726174696F6E2028756E6974732F79
:101F60007332293A0020204D3230332058004D6121
:101F700078696D756D20666565647261746573203E
:101F800028756E6974732F73293A005374657073E2
:101F90002070657220756E69743A0020440020201C
:101FA0004D3230302053002044697361626C6564A7
:101FB0000A0046696C616D656E742073657474699E
:101FC0006E67733A0020286D6D290020204732315A
:101FD000202020203B20556E69747320696E206D8F
:101FE0006D003D3D6F6E4C6F616453657474696E36
:101FF00067733D3D0000803B4400803B440000206F
:1020000041000096420000A0420000A042000048AB
:10201000440000BE42D0070000D00700006400006A
:10202000004B00000024F4D43050C38E20C2A240E4
:1020300017828B7011127A910D816CD90AA861E117
:1020400008C7586607615143061E4B5D05C145A789
:10205000041A411104093D9803713931034036DBFC
:102060000265339102D4305402802E1D02632CEE9F
:1020700001752AC501B028A001102781018F2564B0
:10208000012B244B01E0223401AC211F018D200DD6
:1020900001801FFC00841EED00971DDF00B81CD2DC
:1020A00000E61BC600201BBC00641AB200B219A8CF
:1020B000000A19A0006A189900D117910040178BE7
:1020C00000B516840031167E00B31579003A1573F9
:1020D00000C7146F0058146A00EE1366008813637B
:1020E0000025135E00C7125B006C125700151254D6
:1020F00000C111510070114F0021114B00D6104941
:10210000008D1047004610440002104200C00F40EE
:1021100000800F3E00420F3C00060F3B00CB0E3804
:1021200000930E37005C0E3500270E3400F30D329D
:1021300000C10D3100900D3000600D2E00320D2DCC
:1021400000050D2C00D90C2B00AE0C2900850C29A4
:10215000005C0C2700350C27000E0C2600E80B2431
:1021600000C40B2400A00B23007D0B23005A0B217D
:1021700000390B2100180B2000F80A1F00D90A1E95
:1021800000BB0A1E009D0A1D00800A1D00630A1C78
:1021900000470A1B002C0A1B00110A1A00F7091A33
:1021A00000DD091900C4091900AB091900920917CB
:1021B000007B091800630917004C09160036091640
:1021C00000200916000A091500F5081500E008149A
:1021D00000CC081400B8081400A4081400900813D8
:1021E000007D0812006B0813005808120046081200
:1021F0000034081100230811001208110001081111
:1022000000F0071000E0071000D0071000C0071012
:1022100000B0070F00A107100091070E0083070F01
:102220000074070F0065070E0057070E0049070EE0
:10223000003B070D002E070E0020070D0013070DB1
:102240000006070D00F9060C00ED060D00E0060C77
:1022500000D4060C00C8060C00BC060C00B0060C2E
:1022600000A4060B0099060C008D060B0082060BDD
:102270000077060B006C060B0061060A0057060B80
:10228000004C060A0042060A0038060A002E060A1A
:102290000024060A001A060A001006090007060AAA
:1022A00000FD050900F4050900EB050900E2050938
:1022B00000D9050900D0050900C7050900BE0509B8
:1022C00000B5050800AD050800A50509009C050836
:1022D00000940508008C050800840508007C0508AA
:1022E00000740508006C050700650508005D05071A
:1022F00000560508004E0507004705070040050881
:102300000038050700310507002A050700230507E7
:10231000001C050600160507000F05070008050646
:102320000002050700FB040600F5040700EE0406A2
:1023300000E8040600E2040700DB040600D50406FA
:1023400000CF040600C9040600C3040600BD04064D
:1023500000B7040600B1040500AC040600A604069C
:1023600000A00405009B04060095040500900406E7
:10237000008A04050085040500800406007A04052F
:102380000075040500700405006B04050066040573
:1023900000610405005C04050057040500520405B3
:1023A000004D04050048040500430405003E0404F4
:1023B000003A04050035040500300404002C04052F
:1023C0000027040400230405001E0404001A04046A
:1023D0000016040500110404000D0404000904059E
:1023E000000404040000040400FC030400F80304D7
:1023F00000F4030400F0030400EC030400E8030409
:1024000000E4030400E0030400DC030400D8030438
:1024100000D4030400D0030400CC030400C8030369
:1024200000C503030024F404D9201BC40C5C0E98DF
:1024300004C4095F0265077101F405F900FB04B3E8
:102440000048048700C10369005803550003034591
:1024500000BE023A008402310053022A00290225FC
:102460000004022000E4011C00C8011900AF01179C
:102470000098011400840113007101100061011023
:102480000051010E0043010D0036010B002B010B22
:102490000020010B00150109000C010900030108CF
:1024A00000FB000800F3000800EB000700E4000652
:1024B00000DE000600D8000600D2000600CC0005B1
:1024C00000C7000500C2000500BD000400B90004FB
:1024D00000B5000400B1000400AD000400A9000430
:1024E00000A5000300A20003009F0004009B00035E
:1024F0000098000300950002009300030090000381
:10250000008D0002008B000300880002008600029C
:102510000084000300810002007F0002007D0002B1
:10252000007B0002007900020077000100760002C3
:10253000007400020072000100710002006F0002CE
:10254000006D0001006C0002006A000100690002D9
:1025500000670001006600010065000100640002E0
:10256000006200010061000100600001005F0002E4
:10257000005D0001005C0001005B0001005A0001E9
:1025800000590001005800010057000100560001E9
:1025900000550001005400010053000000530001E9
:1025A000005200010051000100500001004F0001E5
:1025B000004E0000004E0001004D0001004C0001E3
:1025C000004B0000004B0001004A000100490001DF
:1025D00000480000004800010047000100460000DC
:1025E00000460001004500000045000100440001D4
:1025F00000430000004300010042000000420001CF
:10260000004100000041000100400001003F0000C7
:10261000003F0001003E0000003E0001003D0000C0
:10262000003D0001003C0000003C0000003C0001B7
:10263000003B0000003B0001003A0000003A0001AE
:1026400000390000003900010038000000380000A7
:10265000003800010037000000370001003600009C
:102660000036000000360001003500000035000093
:102670000035000100340000003400000034000187
:10268000003300000033000000330001003200007E
:102690000032000000320001003100000031000073
:1026A0000031000100300000003000000030000167
:1026B000002F0000002F0000002F0000002F00015D
:1026C000002E0000002E0000002E0001002D000052
:1026D000002D0000002D0000002D0001002C000046
:1026E000002C0000002C0000002C0001002B00003A
:1026F000002B0000002B0000002B0001002A00002E
:10270000002A0000002A0000002A00010029000021
:102710000029000000290000002900000029000114
:102720000028000000280000002800000028000009
:1027300000280001002700000027000000270000FB
:1027400000270000002700010026000000260000EE
:1027500000260000002600000026000100250000E1
:1027600000250000002500000025000000250000D5
:1027700000250001002400000024000000240000C7
:1027800000240000002400010023000000230000BA
:1027900000230000002300000023000000230000AD
:1027A000002300010022000000220000002200009F
:1027B0000022000000220000002200010021000091
:1027C0000021000000210000002100000021000085
:1027D0000021000000210001002000000020000076
:1027E0000020000000200000002000000020000069
:1027F0000020000000200001001F0000001F00005A
:10280000001F0000001F0000001F0000001F00004C
:10281000001F0001001E0000001E0000001E00003E
:10282000001E000000232C0000B8220000561800F3
:10283000003A0F0000B8080000B104000071020067
:10284000003E01000020436F756E7420583A00234B
:10285000646566696E652044454641554C545F0089
:1028600000626564004B6420004B6920004B7020BF
:1028700000504944204175746F74756E6520666917
:102880006E697368656421205075742074686520D2
:102890006C617374204B702C204B6920616E642036
:1028A0004B6420636F6E7374616E74732066726F15
:1028B0006D2062656C6F7720696E746F20436F6E58
:1028C00066696775726174696F6E2E680A00504997
:1028D00044204175746F74756E65206661696C651E
:1028E00064212074696D656F75740A005049442035
:1028F0004175746F74756E65206661696C656421DD
:102900002054656D706572617475726520746F6FA7
:1029100020686967680A00204B643A2000204B69F0
:102920003A2000204B703A200020436C6173736999
:102930006320504944200A00204E6F206F76657254
:1029400073686F6F740A002054753A2000204B752D
:102950003A2000206D61783A2000206D696E3A209F
:102960000020643A200020626961733A20005049D7
:1029700044204175746F74756E6520737461727450
:102980000A00504944204175746F74756E65206665
:1029900061696C6564212054656D70657261747540
:1029A000726520746F6F20686967680A0042656409
:1029B00000453100626564002C2073797374656D85
:1029C0002073746F7070656421204865617465724E
:1029D0005F49443A200048656174696E672046612A
:1029E000696C65640048656174696E672066616939
:1029F0006C6564004D3131322053687574646F77B3
:102A00006E001000C90210012C014001220170016A
:102A10001801B0010E01F00104015002FA00B002E9
:102A2000F0003003E600D003DC009004D200700513
:102A3000C800A006BE000008B400B009AA00D00B70
:102A4000A000600E960060118C0000158200201915
:102A50007800C01D6E00A0226400B0275A00902CA0
:102A6000500000314600E0343C0010383200903A0B
:102A70002800603C1E00A03D1400803E0A00203F5C
:102A80000000544845524D414C2052554E4157414B
:102A90005900546865726D616C2052756E61776182
:102AA00079004572723A204D415854454D50004DC1
:102AB000415854454D50207472696767657265646A
:102AC000004572723A204D494E54454D50004D49D3
:102AD0004E54454D50207472696767657265640095
:102AE000202F002042403A0020403A0020573A0070
:102AF00020573A00496E76616C696420657874727B
:102B0000756465720A007C3C3E5E2B3D3F2F5B5D29
:102B10003B2C2A225C0043616E6E6F74206F7065DF
:102B20006E207375626469722000534420496E6997
:102B300074204661696C0053442063617264206FA5
:102B40006B0A006F70656E526F6F74206661696CFE
:102B500065640A00766F6C756D652E696E69742008
:102B60006661696C65640A004E6F2053442063619E
:102B700072640A000A4D3234004D3233202573004E
:102B80002E0A006F70656E206661696C65642C208A
:102B900046696C653A200046696C652073656C6512
:102BA000637465640A002053697A653A20004669B7
:102BB0006C65206F70656E65643A2000454E442058
:102BC000535542524F5554494E450A002220706FCA
:102BD00073002220706172656E743A220053554270
:102BE000524F5554494E452043414C4C207461721C
:102BF0006765743A220053756263616C6C204F768E
:102C00006572666C6F7700457863656564656420FE
:102C10006D617820535542524F5554494E452064BA
:102C2000657074683A002E0A0044656C6574696FBB
:102C30006E206661696C65642C2046696C653A207B
:102C40000046696C652064656C657465643A005380
:102C500044207072696E74696E67206279746520B1
:102C6000004E6F74205344207072696E74696E67F1
:102C70000A0057726974696E6720746F2066696C08
:102C8000653A2000667265736800646F696E67005C
:102C90002066696C653A20004E6F7720002F6175C1
:102CA000746F25632E67002020506C616E6E657214
:102CB00042756666657242797465733A20002046F3
:102CC000726565204D656D6F72793A2000436F6DB6
:102CD00070696C65643A2041707220323420323061
:102CE00032310A00204C6173742055706461746540
:102CF000643A20323032312D30342D3138207C206E
:102D0000417574686F723A2054696E794D616368D9
:102D1000696E657333440A00322E302E375F445794
:102D2000372E330A004D61726C696E0020536F6656
:102D300074776172652052657365740A002057616B
:102D4000746368646F672052657365740A0020427B
:102D5000726F776E206F75742052657365740A0008
:102D60002045787465726E616C2052657365740AD3
:102D700000506F77657255700A0073746172740A3F
:102D8000004732385859004D313030310065727289
:102D90006F722077726974696E6720746F2066693C
:102DA0006C650A00446F6E6520736176696E6720FA
:102DB00066696C652E0A004D323900456E64737485
:102DC0006F70730025532025632025632025632021
:102DD000256300205A3A0020593A0020583A0065ED
:102DE0006E6473746F7073206869743A2000000019
:102DF0000A0B02090C0D0E08070304010000000075
:102E000000000000000000000000000000000000C2
:102E1000000000000000000000001211100000007F
:102E200000000000000000000000000000000000A2
:102E3000000000006001F4017001EA019001E0016E
:102E4000B001D601D001CC010002C2013002B801AC
:102E50006002AE019002A401D0029A012003900109
:102E600070038601C0037C0130047201A004680174
:102E700020055E01B005540160064A0120074001AB
:102E8000F0073601F0082C01100A2201500B18013E
:102E9000C00C0E01500E04013010FA002012F00098
:102EA0005014E600C016DC007019D200501CC80097
:102EB000501FBE007022B400B025AA00F028A00068
:102EC000202C9600302F8C0010328200A034780025
:102ED000F0366E00E0386400803A5A00403B5500FE
:102EE000E03B5000F03C4600C03D3C00603E3200FC
:102EF000E03E2800303F1E00503F1900703F140094
:102F0000A03F0A00C03F0000D03FF6FFE03FECFFCB
:102F100050726F62696E67204661696C656400205B
:102F20005A3A200020593A200042656420583A203D
:102F3000003D3D6F6E55736572436F6E6669726DCD
:102F400052657175697265643D3D00220A00556ED7
:102F50006B6E6F776E20636F6D6D616E643A2022C9
:102F6000002042002050006F6B00204500205A00D6
:102F7000205900204D393220580020453A00205A6F
:102F80003A0020593A00583A0020746F6F206C6F55
:102F90006E6720657874727573696F6E20707265E4
:102FA00076656E7465640A0020636F6C64206578D2
:102FB00074727573696F6E2070726576656E746574
:102FC000640A0043616E6E6F7420656E74657220D2
:102FD0007375626469723A20004D323520500A4D93
:102FE000323400526573756D650055492050617526
:102FF0007365004E6F204D61746368203A0050671E
:103000005570005067446F776E0049732046696CB5
:103010006520004973204469722000476F55704451
:10302000697200486173204D656469610046696C8E
:10303000656E616D652053656C6563746564004DF4
:103040003130303043004D313030300046696C61F2
:103050006D656E7420537461742030202D20330010
:1030600046696C616D656E74205374617420302004
:103070002D20320046696C616D656E742053746159
:10308000742030202D2031002046696C616D656E02
:103090007420526573706F6E7365204E6F005265B9
:1030A00073756D652059657320647572696E67204C
:1030B0007072696E74000A204E6F2046696C616DF3
:1030C000656E7400496E76616C6964204F70746936
:1030D0006F6E004D3530300053746F72652053654C
:1030E0007474696E677300426564205049442053CC
:1030F000746172746564004D3939390A4D32383063
:1031000050305331363000424C546F756368205252
:1031100065736574004D3530320A4D3530300049E5
:103120006E697420454550524F4D00486F74656E6E
:103130006420504944205374617274656400456E84
:10314000676C69736820416C7265616479205365AE
:1031500074004368696E657365204E6F7420537503
:1031600070706F7274656400496E4C616E6743687D
:103170006F696365000A202A2A2A72656364617494
:103180002E646174615B305D203D004732380A4730
:1031900031204631303030205A313000556E737551
:1031A00070706F72746564204F7074696F6E205315
:1031B000656C65637465640047323652323535009C
:1031C0004D3139305335350A4732380A4732390ADA
:1031D0004D3430300A4D313034533231350A4732B4
:1031E000380A4D313039533231350A4D343230538B
:1031F000310A47315831303059313030463530306E
:10320000300A47315A300A4D3530300A4D313137A6
:1032100020536574205A204F6666736574004731E9
:10322000204631303030205A302E30004732380AB4
:103230004731204631303030205A302E30004D3565
:103240003030005A204F6666736574203A2025732B
:10325000004D353030005A204F6666736574203A51
:10326000202573004732380A473146313530305A0D
:10327000302E30004732385A0A4731463135303027
:103280005A302E30004D383400473146313030301E
:103290005A302E30004732380A473146313030300C
:1032A0005A302E30004D616E75616C5365745465F3
:1032B0006D70005A204F6666736574203A2025733E
:1032C0000053746F7020547269676765726564009B
:1032D00053746F70204E6F0053746F705072696E2C
:1032E000740048616E646C652044617461204164BF
:1032F0006A75737420322053657474696E67205345
:10330000637265656E200048616E646C652044617F
:103310007461205072696E7446696C652033205365
:10332000657474696E672053637265656E2000482A
:10333000616E646C652044617461205072696E74C2
:1033400046696C6520322053657474696E6720533A
:10335000637265656E20004D38340048616E646CA0
:10336000652044617461205072696E7446696C65B1
:1033700020506F73740048616E646C652044617402
:1033800061205072696E7446696C652050726500E8
:10339000426567696E537769746368003D3D2043F9
:1033A0006865636B6B65793D3D007265636461744C
:1033B0002E61646472203D3D007265636461742E09
:1033C000646174615B305D203D3D007761697477B5
:1033D0006179203D3D0020202A2A2A2A2A2A2A52C1
:1033E00054535F48616E646C65446174612A2A2A93
:1033F0002A2A2A2A2A2000526573656E643A200020
:1034000000002200250028002B002E00310034008F
:1034100002010000050108010B0100002100240049
:1034200027002A002D0030003300010100000401B4
:1034300007010A0105050505070508080808020235
:1034400002020A0A0808040404040101010101013E
:1034500001010303030303030303040707070C0C21
:103460000C0C0C0C0C0C02020202060606060606E8
:1034700006060B0B0B0B0B0B0B0B0102102020088D
:1034800008102040102040800201020108040201BF
:10349000010204081020408080402010080402012E
:1034A0008004020180402010080402010804020187
:1034B000010204081020408001020408102040800E
:1034C000544D334420453520506C7573205265614E
:1034D00064792E005072696E74696E672E2E2E000C
:1034E0005072696E7420506175736564006E6F74FC
:1034F000696669636174696F6E20005049442054A5
:10350000756E652046696E697368656400001C010C
:10351000A40011241FBECFEFD1E2DEBFCDBF00E07B
:103520000CBF14E0A0E0B2E0E0EAFAE602E00BBF74
:1035300002C007900D92A032B107D9F726E1A0E2B0
:10354000B4E001C01D92A33BB207E1F71AE1C8E85D
:10355000DAE100E006C021970109802FFE010F94F7
:103560007D31C738D10780E00807A9F70F94D51E31
:103570000D943E350C9400009F92AF92BF92CF9273
:10358000DF92EF92FF920F931F93CF93DF9300D0C0
:103590001F921F92CDB7DEB7E7E8FBE10027BB27FC
:1035A000462F572FA82FAA2341F4A52F542FB85FD9
:1035B000AA2319F4A52F5527B85FA03138F45295E6
:1035C000A295452F4F70507FA42BBC5FA03428F4E8
:1035D000550FAA1F550FAA1FBE5FA03818F4550F2C
:1035E000AA1FB395550FAA1FEA0FF01F449151E08F
:1035F000AA27B85081F1C8F0B0FF02C0440F551F90
:10360000B1FF04C0440F551F440F551FB2FF06C041
:1036100052954295142F1F70407F512BB3FF1BC052
:10362000A52F542F44270C942B1BB195B0FF02C03B
:1036300055954795B1FF04C05595479555954795C4
:10364000B2FF05C05295407F4295452B5F70B3FF96
:1036500002C0452F5527DD24CC24BB24B2E0649F53
:10366000D018C108B00AB00B749FC018B108B00BD5
:10367000849FB018B109659FC018B108B00B759F41
:10368000B018B109859FB0196A9FB018B1097A9F27
:10369000B0194D9DA12C99243327992722275D9D90
:1036A000A00C911C301F901F201FAD9D900C311D50
:1036B000901F201F4C9DA00C911C301F901F201F9D
:1036C0005C9D900C311D901F201FAC9D300D911DF5
:1036D000201F4B9D900C311D901F201F5B9D300DB6
:1036E000911D201FAB9D900D211D4B9F300D911DF5
:1036F000201F5B9F900D211DAB9F200DB1E0BB24CF
:10370000CC24DD24639FD018C108B00AB00B739F8E
:10371000C018B108B00B839FB018B109699FC018D9
:10372000B108B00B799FB018B109899FB019629F99
:10373000B018B109729FB019D61AC70AB80A20F09A
:10374000B1E03B0F901F201F1124792F632F90E0D1
:10375000822F0F900F900F900F900F90DF91CF91CD
:103760001F910F91FF90EF90DF90CF90BF90AF909F
:103770009F900895AF92BF92CF92DF92EF92FF9207
:103780000F931F93CF93DF93C1EBDCE004E019E0CC
:1037900081ECA82E8CE0B82EC12CD12C7601C394DC
:1037A00069917991899199910F94BB2A28893989D6
:1037B0004A895B890F941C2B0F94F932F8016193AD
:1037C0007193819391938F01C616D706E806F90687
:1037D00010F46B017C01AC16BD0611F76FEF7FEFA3
:1037E000CB01A70196010F94FA302093140930936E
:1037F00015094093160950931709DF91CF911F9136
:103800000F91FF90EF90DF90CF90BF90AF90089511
:10381000CF92DF92EF92FF9280912008882309F4E3
:1038200057C0C0901C08D0901D08E0901E08F09072
:103830001F0820E030E0A901C701B6010F94B62AA5
:10384000882309F445C020E030E040E05FE3C70191
:10385000B6010F941C2B9B01AC010F941C2B2BED7C
:103860003FE049E450E40F941C2B9B01AC0160E065
:1038700070E080E89FE30F9480326B017C01C0927E
:10388000AD0CD092AE0CE092AF0CF092B00C609107
:103890007D0270917E02072E000C880B990B0F940D
:1038A000BD2A2AE037ED43E25CE30F941C2BA7010D
:1038B00096010F941C2B6093790270937A02809387
:1038C0007B0290937C02FF90EF90DF90CF90089561
:1038D000C12CD12C80E8E82E8FE3F82ED0CF0F93A7
:1038E0001F93CF93DF9350E0FC01E40FF51F80811D
:1038F000440F551F440F551F42545A4FEA01882365
:1039000029F188819981AA81BB81EB010881198104
:103910002A813B810097A105B10569F40C591F4F1D
:103920002F4F3F4FDA010D931D932D933C93139727
:103930008FEF808306C0081B190B2A0B3B0B37FD4A
:10394000F7CFDF91CF911F910F91089518821982BF
:103950001A821B82F6CFCF93DF9324E0829FC001AF
:103960001124EC01C950D74FFC01E35DF74F8F5D87
:10397000974FDC012D913D914D915C91608171815A
:10398000828193810F948631688379838A839B83B4
:10399000DF91CF9108958091B9059091BA05A091DA
:1039A000BB05B091BC058093490290934A02A09355
:1039B0004B02B0934C028091B7059091B80590935B
:1039C000800280937F0208958091490290914A027B
:1039D000A0914B02B0914C028093B9059093BA0527
:1039E000A093BB05B093BC0580917F0290918002AB
:1039F0009093B8058093B70584E690E09093800299
:103A000080937F0208958091FC129091FD12891B92
:103A1000877089F48091040E81110DC08091F90C9A
:103A20009091FA0C892B39F481E09091C70691119D
:103A300003C080E0089581E00895CF93DF93DB0118
:103A4000F9019C919130C1F0943080F094509C9396
:103A50008830D1F480819181009771F00197918332
:103A60008083480F591FEA01188206C08C3539F44B
:103A70009C5F9C93943041F4DF91CF9108958B33F8
:103A800039F781E08C93F8CF20813181B9016F5FE4
:103A90007F4F71836083420F531FEA0188838081C7
:103AA00091818F3591056CF7E7CF0F931F9381E0DC
:103AB0000091B0141091B1142091B2143091B3144C
:103AC0004091AC145091AD146091AE147091AF144C
:103AD000041715072607370708F480E01F910F9198
:103AE000089590E080E00895282F90911B0883307E
:103AF00021F495FD0FC094FD0FC0892F90E0B0E038
:103B0000A0E004C0B695A795979587952A95D2F71A
:103B10008170089581E0089580E00895FC01659129
:103B200075918591949108958F929F92AF92BF92D3
:103B3000CF92DF92EF92FF92CF93DF93EC018090D0
:103B4000F3089090F408A090F508B090F60820E0F3
:103B500030E0A901C501B4010F94B62A882309F405
:103B600054C0C880D980EA80FB80A7019601C501B6
:103B7000B4010F94B62A18160CF04CC02091EB0833
:103B80003091EC084091ED085091EE08C701B60164
:103B90000F94B62A882331F1C092EB08D092EC083A
:103BA000E092ED08F092EE082091EF083091F008D5
:103BB0004091F1085091F208688179818A819B8156
:103BC0000F941C2B9B01AC0160E070E080E89FE348
:103BD0000F94853160930F0270931002809311024D
:103BE0009093120260910F02709110028091110265
:103BF00090911202DF91CF91FF90EF90DF90CF90E4
:103C0000BF90AF909F908F90089560E070E080E843
:103C10009FE3F0CF60E070E0CB01ECCFCF92DF927A
:103C2000EF92FF92CF93DF93EC01CC80DD80EE80AA
:103C3000FF8027E137EB41ED58EBC701B6010F9448
:103C4000E63387FD23C023E030E044EB53E4C701B3
:103C5000B6010F94B62A1816CCF0C880D980EA8035
:103C6000FB8027E137EB41ED58EBC701B6010F941C
:103C7000E63387FD0BC0C1E023E030E044EB53E4C2
:103C8000C701B6010F94B62A18160CF4C0E08C2FA9
:103C9000DF91CF91FF90EF90DF90CF9008952FEBC1
:103CA000280F2A3108F047C0E22FF0E08091530539
:103CB00090915405A0915505B091560504C0B69554
:103CC000A795979587952A95D2F780FD02C08170B8
:103CD0000895EB5CFA4FE081EE2341F18091AD074E
:103CE0009091AE07E80FF92FF11D808190ED980FAC
:103CF0009A3030F08E3251F4818180538A3098F4BA
:103D0000F0932405E093230581E008958D3211F0AE
:103D10008B3249F4818190ED980F9A3088F38E327E
:103D200011F48281EACFF0E0E0E0EACF10922405BE
:103D300010922305E9CF80E008950E944F1E88234A
:103D400041F081E02091230530912405232B09F4D3
:103D500080E008958F929F92AF92BF92CF92DF92B0
:103D6000EF92FF92C090F505D090F605E090F70530
:103D7000F090F80520E030E0A901C701B6010F94EA
:103D8000B62A8823E1F1A701960160E070E080E89F
:103D90009FE30F9480326B017C018090F905909035
:103DA000FA05A090FB05B090FC0520E030E0A901E9
:103DB000C501B4010F94B62A882329F1A501940105
:103DC00060E070E080E89FE30F948032C092FC04D2
:103DD000D092FD04E092FE04F092FF04609300058F
:103DE000709301058093020590930305FF90EF9077
:103DF000DF90CF90BF90AF909F908F900895C12C8F
:103E0000D12C7601CACF60E070E0CB01DFCF129AEF
:103E100008955F9A8091AB0C8E7F8093AB0C8A9A49
:103E20008091AB0C8D7F8093AB0C809108018095C5
:103E30008170809306018091AB0C8B7F8093AB0CDB
:103E40000C94071F269A2E9A0895833B21E092072F
:103E500014F083EB91E090936112809360120C94C4
:103E600076E9E1E3F6E01082118212821382148275
:103E70000C9476E94F925F926F927F928F929F920D
:103E8000AF92BF92CF92DF92EF92FF920F931F9368
:103E9000CF93DF93EC012091ED053091EE05409139
:103EA000EF055091F005688179818A819B810F949B
:103EB00085316B017C012091F1053091F205409133
:103EC000F3055091F4056C817D818E819F810F9463
:103ED00085314B015C01A70196016091030270914D
:103EE000040280910502909106020F94B62A88235D
:103EF00009F450C0C0920302D0920402E09205027D
:103F0000F09206022091FC043091FD044091FE04E1
:103F10005091FF04C701B6010F941C2B2B013C01EB
:103F20000F9428336B017C0120E030E0A9010F944D
:103F3000B62A87FD70C020E030E040E450E4C701BD
:103F4000B6010F94E63318162CF4C12CD12CC0E422
:103F5000EC2EFE2CA7019601C301B2010F9485310E
:103F60006093F4047093F5048093F6049093F7043F
:103F7000C701B6010F94F2326093F204062E000CD2
:103F8000770B6F5F7F4F6430710514F064E070E071
:103F90006093F004D09101021091F204A501940104
:103FA00060910702709108028091090290910A02C3
:103FB0000F94B62A811133C0D11381C02091D80447
:103FC0003091D9044091DA045091DB046091F404FB
:103FD0007091F5048091F6049091F7040F941C2BD6
:103FE0002091DC043091DD044091DE045091DF0427
:103FF0000F948631DF91CF911F910F91FF90EF9039
:10400000DF90CF90BF90AF909F908F907F906F90F8
:104010005F904F900895C12CD12C76019BCF809258
:10402000070290920802A0920902B0920A0220911F
:104030000005309101054091020550910305C5012D
:10404000B4010F941C2B4B015C010F9428336B01BE
:104050007C0120E030E0A9010F94B62A87FDF3C06F
:1040600020E030E040E450E4C701B6010F94E633AD
:1040700018162CF4C12CD12CB0E4EB2EFE2CA70189
:104080009601C501B4010F9485316093F8047093D3
:10409000F9048093FA049093FB04C701B6010F94CE
:1040A000F2326093F304062E000C770B6F5F7F4FA4
:1040B0006430710514F064E070E06093F104C09125
:1040C000F304D11305C0809102028C1709F470C06B
:1040D0008091F2049091F304909302028093010284
:1040E0000C2E000CDD0B25E01203C0011124FC0195
:1040F000EC0FFD1FEE0FFF1FEE0FFF1FE954F84FEF
:1041000020813181428153812093EC043093ED046E
:104110004093EE045093EF040091F104002E000C44
:10412000110BFC01E00FF11FEE0FFF1FEE0FFF1F41
:10413000E954F84F60817181828193810F948531B8
:104140006093E8047093E9048093EA049093EB048D
:104150002091F00435E02303F0011124CE0FDF1F7E
:10416000CC0FDD1FCC0FDD1FC954D84F28813981FA
:104170004A815B812093E4043093E5044093E60494
:104180005093E704E00FF11FEE0FFF1FEE0FFF1F2C
:10419000E954F84F60817181828193810F94853158
:1041A0006093E0047093E1048093E2049093E3044D
:1041B0008090F8049090F904A090FA04B090FB0469
:1041C0002091E8043091E9044091EA045091EB0415
:1041D000C501B4010F941C2B2091EC043091ED0427
:1041E0004091EE045091EF040F9486316B017C01F5
:1041F000C092DC04D092DD04E092DE04F092DF0491
:104200002091E0043091E1044091E2045091E304F4
:10421000C501B4010F941C2B2091E4043091E504F6
:104220004091E6045091E7040F948631A70196016E
:104230000F9485316093D8047093D9048093DA0485
:104240009093DB04BBCEC12CD12C760118CFCF923A
:10425000DF92EF92FF92CF93DF93EC0108960E94DA
:10426000941D6B017C0120E030E0A9010F94B62A77
:1042700020E030E0A901882359F0CE010E943A1FC6
:104280009B01AC01C701B6010F941C2B9B01AC0133
:10429000688579858A859B850F94853168877987BC
:1042A0008A879B87DF91CF91FF90EF90DF90CF902F
:1042B00008952F923F924F925F926F927F928F92CA
:1042C0009F92AF92BF92CF92DF92EF92FF920F93A5
:1042D0001F93CF93DF93D62FC72FFC01808091804F
:1042E000A280B380C501B40120E831E541E050E08F
:1042F0000F94FA30C9016DE671E00F9469316B01DA
:104300007C01C501B40120E13EE040E050E00F94A3
:10431000FA30CA01B90128E130E040E050E00F94E2
:10432000FA30362E272E062F172F8CE3482E512CCD
:10433000612C712CC501B401A30192010F94FA30D4
:10434000B62EA72ECA01B901A30192010F94FA302B
:10435000CB01C114D10479F1AF92BF927F936F93D7
:104360002F923F92FF92EF92DF92CF928EE897E1E9
:104370009F938F93CF93DF930F944D2A8DB79EB762
:104380000E960FB6F8949EBF0FBE8DBF8D2F9C2F3B
:10439000DF91CF911F910F91FF90EF90DF90CF9021
:1043A000BF90AF909F908F907F906F905F904F9055
:1043B0003F902F900895E114F104C9F0AF92BF929D
:1043C0007F936F932F923F92FF92EF928EE797E148
:1043D0009F938F93CF93DF930F944D2AEDB7FEB742
:1043E0003C960FB6F894FEBF0FBEEDBFCFCF012BAA
:1043F000B9F0AF92BF927F936F932F923F9282E773
:1044000097E19F938F93CF93DF930F944D2A8DB7AE
:104410009EB70A960FB6F8949EBF0FBE8DBFB6CF5B
:10442000892BA9F0AF92BF927F936F938AE697E1B1
:104430009F938F93CF93DF930F944D2AEDB7FEB7E1
:1044400038960FB6F894FEBF0FBEEDBF9FCFAF9268
:10445000BF9286E697E19F938F93CF93DF930F945C
:104460004D2A0F900F900F900F900F900F908ECFBE
:10447000EF92FF920F931F93CF93DF93CDB7DEB7E9
:104480008C01EDB6FEB60F94032A01962DB73EB708
:10449000281B390B0FB6F8943EBF0FBE2DBF8DB74A
:1044A0009EB70196B8010F94FC290F94DF1B0FB63D
:1044B000F894FEBE0FBEEDBEDF91CF911F910F911C
:1044C000FF90EF9008958C38910514F08CE890E0FF
:1044D0009093F6118093F5110C9454C1AB01BC017B
:1044E0004093B0145093B1146093B2147093B3140A
:1044F00088E196E10C940CB22F923F924F925F921A
:104500006F927F928F929F92AF92BF92CF92DF92E3
:10451000EF92FF920F931F93CF93DF93CDB7DEB748
:1045200060970FB6F894DEBF0FBECDBF8B876C8748
:10453000042F122F282F30E03E872D87462F50E082
:104540005A87498785E0982E929EC001939E900DD0
:104550001124988B8F87FA01E80FF91FEE0FFF1FC8
:10456000EE0FFF1FE954F84F6081718182819381C2
:104570009B01AC010F947834882309F445C14B8525
:10458000400F6C85610F949EC0011124E985FA8566
:10459000E80FF91FEE0FFF1FEE0FFF1FE954F84F52
:1045A000C080D180E280F380040F909EA00111248E
:1045B000E985FA85E40FF51FEE0FFF1FEE0FFF1FD1
:1045C000E954F84F0081918082807380262F30E07B
:1045D000EF85F889E20FF31FEE0FFF1FEE0FFF1FAD
:1045E000E954F84F20807181798372817A837381D5
:1045F0007B83610F70E0EF85F889E60FF71FEE0F00
:10460000FF1FEE0FFF1FE954F84FF88BEF87F08183
:10461000FC83EF85F889F181FD83EF85F889F281CC
:10462000FE83EF85F889F381FF83FC01E20FF31F1E
:10463000EE0FFF1FEE0FFF1FE954F84F2081288770
:10464000A180B2806380FA01E60FF71FEE0FFF1F13
:10465000EE0FFF1FE954F84F4080518032801381E4
:10466000202F392D482D572D602F792D882D972DEE
:104670000F947834882321F000E0912C812C712C48
:104680009601A701B601C7010F947834882321F061
:10469000C02ED92CE82CF72C2C813D814E815F81D6
:1046A0006C817D818E819F810F947834882321F0E5
:1046B0001C821D821E821F82222D39814A815B81CC
:1046C000622D79818A819B810F947834882339F017
:1046D0002C803D8139834E814A835F815B839201C7
:1046E000432D512FB201832D912F0F9478348823BD
:1046F00021F0412C512C312C10E028853A2D4B2DE6
:10470000562D68857A2D8B2D962D0F94783488231D
:1047100021F04886A52CB32C612E85E02D853E85A1
:10472000829FF001839FF00D112449855A85E40F83
:10473000F51FEE0FFF1FEE0FFF1FE954F84FFA872A
:10474000E9879601A701B601C7010F948631202F92
:10475000392D482D572D0F9485316B017C01222D69
:1047600039814A815B81622D79818A819B810F9495
:1047700086312C813D814E815F810F9485319B0173
:10478000AC01C701B6010F9486316B017C0128850D
:104790003A2D4B2D562D68857A2D8B2D962D0F9405
:1047A00086319201432D512F0F9485319B01AC012D
:1047B000C701B6010F94863120E030E040E450E4B8
:1047C0000F948032E985FA856083718382839383B5
:1047D0006C858B8560960FB6F894DEBF0FBECDBF9B
:1047E000DF91CF911F910F91FF90EF90DF90CF90CD
:1047F000BF90AF909F908F907F906F905F904F9001
:104800003F902F900D941F1A60960FB6F894DEBF5C
:104810000FBECDBFDF91CF911F910F91FF90EF9011
:10482000DF90CF90BF90AF909F908F907F906F90D0
:104830005F904F903F902F90089580912305909125
:104840002405009731F04AE050E070E060E00D94FC
:10485000D12860E070E0CB0108958091230590910C
:104860002405009731F04AE050E070E060E00D94DC
:10487000A32760E070E0CB010895CF93DF93EB01B5
:104880000E949D1E882319F00E942D24EB01CE0169
:10489000DF91CF9108950E942D2497FD0CC00E94B6
:1048A0002D246F3F71058105910509F034F40E94B4
:1048B0002D24862F089580E008958FEF0895CF93DB
:1048C000C62F0E949D1E882319F0CF910C944B2473
:1048D0008C2FCF9108958091230590912405892BE9
:1048E00041F00E944B2491E0811101C090E0892F9A
:1048F000089591E0FCCFCF93DF93C82FD62F0E946D
:104900009D1E882321F0DF91CF910C946B248C2F76
:104910000E944F1E811101C08D2FDF91CF9108950C
:104920000E942D24CB010895CF93DF93EB010E94C9
:104930009D1E882321F0DF91CF910C949024CE010D
:10494000DF91CF9108950F931F93CF93809123050B
:10495000909124050097E9F0FC018F01C1912C2F63
:104960002F7D81F0C53411F0C536B9F7F8011082FA
:1049700070E060E00F944526F801C083CF911F914D
:104980000F91089570E060E0CF911F910F910D9409
:10499000452660E070E0CB01F1CFCF92DF92EF923D
:1049A000FF926A017B010E949D1E882331F0FF90D7
:1049B000EF90DF90CF900C94A324C701B601FF9035
:1049C000EF90DF90CF9008954F925F926F927F9219
:1049D0008F929F92AF92BF92CF92DF92EF92FF920F
:1049E0001F93CF93DF9300D01F92CDB7DEB719820C
:1049F0001A821B821C82CE0101964C018BE9C82EC3
:104A000087E0D82E99E6E92E92E0F92E27EFA22E24
:104A100028E0B22E10E088E5810F0E949D1EF4016F
:104A200081934F01882309F4E0C00E94A3242B0145
:104A30003C01812F0E94741D882309F4CCC0F7012A
:104A40002081318142815381C301B2010F948631AB
:104A5000F60160837183828393831F5FF4E0CF0E3E
:104A6000D11C84E0E80EF11C94E0A90EB11C1330B7
:104A700091F685E40E949D1E8C83882309F4C0C0B2
:104A80000E94A3246B017C0183E00E94741D882393
:104A900071F0209175023091760240917702509129
:104AA0007802C701B6010F9486316B017C01C09278
:104AB000A707D092A807E092A907F092AA078091D1
:104AC000EC05882359F18091B41482FF27C08C81B2
:104AD000882321F18981811103C08A818823F1F023
:104AE0002DEC3CEC4CE45DE360914208709143088E
:104AF00080914408909145080F9486319B01AC0148
:104B000060917102709172028091730290917402AF
:104B10000F94E633181614F40F94651940E050E032
:104B2000BA0186E40E94CD2420E030E0A9010F9470
:104B3000E633181684F40E94A32420E030E040E716
:104B400052E40F9480326093490270934A0280933A
:104B50004B0290934C028091690C83FD28C0809198
:104B6000B206882321F1209175023091760240919E
:104B70007702509178026091A7077091A807809101
:104B8000A9079091AA070F9485312091BF06309113
:104B9000C0064091C1065091C2060F9486316093C1
:104BA000BF067093C0068093C1069093C2060F9013
:104BB0000F900F900F90DF91CF911F91FF90EF908A
:104BC000DF90CF90BF90AF909F908F907F906F902D
:104BD0005F904F900895F50120813181428153818A
:104BE000C301B2010F94853133CFF70180819181E8
:104BF000A281B381F60180839183A283B3832DCFF9
:104C00008091750290917602A0917702B09178021E
:104C10008093A7079093A807A093A907B093AA072A
:104C20004ECFCF92DF92EF92FF926B017C0183E334
:104C3000C816D104E104F10470F082E3C81AD10867
:104C4000E108F10862E370E080E090E00E948DA945
:104C50000E94CEC4ECCFC701B6010E948DA9FF907F
:104C6000EF90DF90CF900C94CEC4CF92DF92EF9272
:104C7000FF920F931F93CF93DF936B017A01EC01A7
:104C8000C854DB4F28813CE0389F8001399F100DCC
:104C9000112427FF24C0FB011182108288818F5FBD
:104CA000888388819801280F311D87FD3A95C901B5
:104CB0002091E712F6012817190629F024F08881BF
:104CC0008C300CF43CC080819181049680349C49E6
:104CD00008F475C0F60180819181049672C08881C4
:104CE0009801280F311D87FD3A95C9012091E712DF
:104CF0002817190699F294F28881A801480F511DCE
:104D000087FD5A95FA01EE0FFF1FE40FF51FE156DC
:104D1000FD4E808187FFC2CF8881F801E80FF11D29
:104D200087FDFA95CF01EE0FFF1FE80FF91FE1563F
:104D3000FD4E808160E08F770E94E8A7AFCF808131
:104D400091812881A801420F511D27FD5A959A0192
:104D5000FA01EE0FFF1FE20FF31FE156FD4E218116
:104D60003281820F931FF70191838083888198019C
:104D7000280F311D87FD3A95F901EE0FFF1FE20F55
:104D8000F31FE156FD4E808187FF20C08881080F08
:104D9000111D87FD1A95F801EE0FFF1FE00FF11F9F
:104DA000E156FD4E808161E08F77DF91CF911F91B9
:104DB0000F91FF90EF90DF90CF900C94E8A780E4E4
:104DC0009CE9F701918380838FEF8883DF91CF91F6
:104DD0001F910F91FF90EF90DF90CF9008950F9368
:104DE0001F93CF93DF9305EC1CE0C9EDD1E1F801EF
:104DF00021913191419151918F0160E070E080E803
:104E00009FE30F9480326993799389939993F1E1A9
:104E1000C93EDF0761F70F94A417DF91CF911F916F
:104E20000F910C94BA1BCF92DF92EF92FF92CF9327
:104E3000DF932091AC0C222329F1EC0108960E940B
:104E4000941D6B017C0120E030E0A9010F94B62A8B
:104E500020E030E0A901882359F0CE010E943A1FDA
:104E60009B01AC01C701B6010F941C2B9B01AC0147
:104E7000688579858A859B850F94863168877987CF
:104E80008A879B87DF91CF91FF90EF90DF90CF9043
:104E900008952F923F924F925F926F927F928F92DE
:104EA0009F92AF92BF92CF92DF92EF92FF920F93B9
:104EB0001F93CF93DF93CDB7DEB76C970FB6F894FF
:104EC000DEBF0FBECDBF8C015B015A834983FC015D
:104ED000EF5AFF4F208131814281538129873A87E0
:104EE0004B875C87CA01B9010F94BB2A6B017C0117
:104EF000D5012D913D914D915C910F941C2B0F94F8
:104F000064322B013C01E981FA81208131814281A7
:104F10005381C701B6010F941C2B0F9464324B01CF
:104F20005C01C301B2010F94F932698B7A8B8B8BD0
:104F30009C8B683771058105910540F428E730E0C6
:104F400040E050E0298B3A8B4B8B5C8BC501B40160
:104F50000F94F9326D877E878F87988B683771053C
:104F60008105910540F448E750E060E070E04D872E
:104F70005E876F87788BF801E35AFF4F408051803E
:104F800062807380C301B2010F94BD2A69837A8362
:104F90008B839C8369897A898B899C890F94BB2A2E
:104FA0006D8B7E8B8F8B988F20E030E0A90169811B
:104FB0007A818B819C810F94B62A882309F4E1C100
:104FC000A7019601C701B6010F941C2B4B015C0190
:104FD0002D893E894F89588DCA01B9010F941C2B28
:104FE0009B01AC01C501B4010F9485314B015C01FB
:104FF00029813A814B815C81CA01B9010F948631C4
:105000009B01AC01C501B4010F9480320F9464324E
:105010000F94F9326D837E838F8398876627772775
:10502000CB0164197509860997090F94BD2A4B01B4
:105030005C016D857E858F8598890F94BB2A2B0135
:105040003C0120E030E0A901C501B4010F94B62A6B
:10505000882309F49AC1A3019201C301B2010F94FC
:105060001C2B698F7A8F8B8F9C8FA7019601C701AC
:10507000B6010F941C2B9B01AC01698D7A8D8B8D31
:105080009C8D0F9485316B017C01A5019401C501B4
:10509000B4010F9486319B01AC01C701B6010F9496
:1050A00080320F942833D80195968D909D90AD90C5
:1050B000BC909897750164012D813E814F81588580
:1050C000C21AD30AE40AF50A0F94F932C61AD70AAB
:1050D000E80AF90AF7FE8EC02D893E894F89588D5E
:1050E000CA01B9010F941C2B6B017C0129813A8103
:1050F0004B815C81CA01B9010F94863169877A8737
:105100008B879C8720E030E0A90169817A818B81BF
:105110009C810F94B62A882309F43BC1C501B401D0
:105120000F94BB2A29853A854B855C850F941C2BEF
:10513000A70196010F9485316D837E838F839887B5
:10514000A3019201C301B2010F941C2B9B01AC017E
:105150006D817E818F8198850F9486312B013C0172
:1051600020E030E040E850E469817A818B819C81C5
:105170000F941C2B9B01AC01C301B2010F94803230
:105180000F9464322B013C0120E030E0A9010F9420
:10519000E63318161CF0412C512C3201C301B20128
:1051A0000F94F9326D837E838F83988786169706D6
:1051B000A806B90620F48D829E82AF82B8866D81E2
:1051C0007E818F8198850F94BB2A29853A854B85EE
:1051D0005C850F941C2BA70196010F9486310F94C8
:1051E00034340F94F93269877A878B879C87C12C76
:1051F000D12C760169857A858B859C8529893A89A8
:105200004B895C89621B730B840B950B0F94BB2A33
:1052100029813A814B815C810F94803220E034E215
:1052200044EF59E40F941C2B0F94F9324B015C01AD
:1052300069857A858B859C852D853E854F85588926
:10524000621B730B840B950B0F94BB2A29813A8147
:105250004B815C810F94803220E034E244EF59E4CA
:105260000F941C2B0F94F9322B013C013FE683165F
:105270009104A104B10408F090C0F401EE0FFF1FE7
:10528000EE0FFF1FE553F64E85919591A591B491D0
:105290008983292E3A2EBD8B4FE6441651046104B2
:1052A000710408F083C0F201EE0FFF1FEE0FFF1F25
:1052B000E553F64E45915591659174919A01CB0154
:1052C0004D815E816F817885D80199964D935D936C
:1052D0006D937C939C974C0D5D1D6E1D7F1DF80199
:1052E00045A756A767A770ABEB5AFF4F49895A8964
:1052F0006B897C894083518362837383D5968D92B9
:105300009D92AD92BC92D897F80141AE52AE63AE79
:1053100074AEFD9649814083218232825D89538338
:105320003496208331838283938369857A858B8544
:105330009C85D1966D937D938D939C93D49778960D
:105340002D853E854F855889208331834283538341
:105350006C960FB6F894DEBF0FBECDBFDF91CF9134
:105360001F910F91FF90EF90DF90CF90BF90AF9083
:105370009F908F907F906F905F904F903F902F9075
:10538000089560E070E0CB0141CE60E070E0CB01B9
:1053900088CE60E070E0CB01F3CEC501B4010E947D
:1053A000BC1A6983272E382E9D8B76CFC301B2019C
:1053B0000E94BC1A9B0184CF8091FC129091FD1237
:1053C000891B877019F490E080E008959091F9129C
:1053D000992351F0833030F48FEF890F19F08093C7
:1053E000F912F1CF1092F9128091FD1227E6829FF7
:1053F000C00111248F5C964FFC01208120FDE3CF7A
:105400002091FD122F5F27702093FA123091FD1228
:105410002091FB12321304C02091FA122093FB1248
:10542000089590916F0081E091FD02C080E00895A1
:1054300090916F009D7F90936F00089580FF04C04E
:105440009091AB0C90FD8E7F81FF05C09091AB0CCD
:10545000969590FD8D7F82FF06C09091AB0C96953E
:10546000969590FD8B7F08958F929F92AF92BF92F9
:10547000CF92DF92EF92FF92CF93DF9320914D0274
:10548000222309F49EC0EC018091BD05C82ED12CC9
:10549000F12CE12C80FF2CC080904F0290905002A4
:1054A000A0905102B0905202288139814A815B81DB
:1054B000C501B4010F94E633181624F4888299824A
:1054C000AA82BB8280905B0290905C02A0905D02F9
:1054D000B0905E02288139814A815B81C501B401A7
:1054E0000F94B62A87FF04C088829982AA82BB8261
:1054F000D701C601B695A7959795879580FF2CC0D3
:105500008090530290905402A0905502B0905602A1
:105510002C813D814E815F81C501B4010F94E6333A
:10552000181624F48C829D82AE82BF8280905F0226
:1055300090906002A0906102B09062022C813D8147
:105540004E815F81C501B4010F94B62A87FF04C064
:105550008C829D82AE82BF8282E0F694E794D794DB
:10556000C7948A95D1F7C0FE2CC0C0905702D09046
:105570005802E0905902F0905A02288539854A85F0
:105580005B85C701B6010F94E633181624F4C8866C
:10559000D986EA86FB86C0906302D0906402E090D0
:1055A0006502F0906602288539854A855B85C701CA
:1055B000B6010F94B62A87FF04C0C886D986EA864A
:1055C000FB86DF91CF91FF90EF90DF90CF90BF905F
:1055D000AF909F908F900895CF92DF92EF92FF92BD
:1055E0000F931F93C12CD12C76018C0125E732E05B
:1055F00041E752E06DE672E089E692E00F944500E3
:105600001F910F91FF90EF90DF90CF9008950D9430
:10561000A4178091AA05659B6EC080618093AA053E
:10562000909103018091AA0591FF67C080628093E9
:10563000AA058091AA054B9B62C084608093AA054D
:105640008091AA059091A905981709F45AC092E093
:105650009093A8058093A9058091C406811105C087
:105660008091AB07882309F459C08091110680FF0F
:1056700010C08091C50680FD0CC08091A70584FFF5
:1056800008C08091070780618093070780E00E942F
:1056900058CD80911106869580FF11C08091C50676
:1056A000869580FD0CC08091A70585FF08C080917C
:1056B000070780628093070781E00E9458CD8091A0
:1056C00011068695869580FF29C08091C50686952E
:1056D000869580FF23C08091AB078823F9F08091E5
:1056E000A70582FF1BC0809107078460809307078E
:1056F00082E00C9458CD8F7E91CF8F7D98CF8B7F99
:105700009DCF8091A805882309F4A6CF815080936E
:10571000A8058111A1CF9093A7059ECF08958091F0
:10572000C406811104C08091AB07882331F062E088
:1057300070E080E090E00C94112608950F931F9381
:1057400080919711813019F50E94C0A90091C6057A
:105750001091C7052091C8053091C905601B710BD8
:10576000820B930B28EE33E040E050E00F94FA30C8
:105770006091CA057091CB058091CC059091CD05C3
:10578000620F731F841F951F1F910F9108956091E1
:10579000CE057091CF058091D0059091D105D6CFDF
:1057A000109297111092C6051092C7051092C80565
:1057B0001092C9051092CE051092CF051092D00517
:1057C0001092D1051092CA051092CB051092CC050B
:1057D0001092CD050895CF92DF92EF92FF92CF9372
:1057E000DF93C62FFC01C080D180E280F38020E0EF
:1057F00030E0A901C701B6010F94B62A20E030E0DD
:10580000A90187FD14C020E030E048EC52E4C70154
:10581000B6010F94E63324E630E040E050E018167D
:1058200034F0C701B6010F94F2329B01AC01C230D3
:10583000A0F4D0E0C45DD64FAFEFB0E00F943B31A1
:1058400024E630E040E050E00F941C312F3F31055A
:1058500019F010F02FEF30E02883DF91CF91FF9007
:10586000EF90DF90CF9008958091090180FD06C0F0
:105870008091B41483FB882780F9089580E008950F
:10588000CF92DF92EF92FF92FC01C080D180E28044
:10589000F380663019F51092360610923706109292
:1058A00038061092390610923A060E9454C120E040
:1058B00030E0A901C701B6010F94B62A87FF1DC0C9
:1058C000C12CD12C7601C701B6010F94F333CB0163
:1058D000FF90EF90DF90CF900C9463220E94311FD5
:1058E00020E030E0A901C701B6010F94B62A87FF76
:1058F00015C0C12CD12C760122C020E030E04CE054
:1059000053E4C701B6010F94E6331816E4F6C12C30
:10591000D12C9CE0E92E93E4F92ED5CF20E030E89D
:1059200049ED53E4C701B6010F94E63318163CF471
:10593000C12C80E8D82E89EDE82E83E4F82EC7012B
:10594000B6010F94F333CB01FF90EF90DF90CF902F
:105950000C94251F9091AB0C977081E0973009F063
:1059600080E008952091A50520FF14C020E83EE3C3
:10597000629FA001639F500D729F500D1124CA01B8
:105980009695879596958795009731F08A950000B2
:10599000E9F708950C9411260895CF93DF931092A0
:1059A0006A0C1092FD0C1092FF0C1092FE0C1092DB
:1059B000A4051092A305CFEFDFEF8091B41485FD0D
:1059C00007C00E946DADD0933313C0933213F5CF4F
:1059D0008FEF9FEF9093331380933213DF91CF912A
:1059E00008958F929F92AF92BF92CF92DF92EF92E3
:1059F000FF920F931F93CF93DF931092580510924D
:105A000057052FE32093520510925105109250052F
:105A100010924F051092530510925405109255059F
:105A2000109256059C01F90190812F5F3F4F9032F3
:105A3000D1F39E34C9F4818190ED980F9A3020F013
:105A40008D3211F08B3281F432969F012F5F3F4FE0
:105A5000808180538A3008F47BC09F012F5F3F4FC5
:105A60008081803209F476C0F093AE07E093AD07F1
:105A70008F010F5F1F4FC0816AE270E0C8010F9471
:105A8000D434009731F0FC01319780818032E1F30A
:105A90001182CD3429F0C43519F0C73409F04BC058
:105AA000F80180810F5F1F4F8032D1F380538A301D
:105AB00008F041C0C093520530E020E04AE0DF0129
:105AC0001196429FC001439F900D11249C012053C9
:105AD00031098081280F311D87FD3A95818190ED34
