:100000000C946B2E0C949C2E0C949C2E0C949C2E79
:100010000C949C2E0C949C2E0C949C2E0C949C2E38
:100020000C949C2E0C949C2E0C949C2E0C949C2E28
:100030000C949C2E0C949C2E0C949C2E0C949C2E18
:100040000C949C2E0D94EB090C949C2E0C949C2EDD
:100050000C949C2E0C949C2E0C9433F50C94C6E1BD
:100060000C949C2E0C94E3DA0C94D9DA0C949C2E0C
:100070000C949C2E0C949C2E0C949C2E0C949C2ED8
:100080000C94709C0C949C2E0C949C2E0C949C2E86
:100090000C949C2E0C949C2E0C949C2E0C949C2EB8
:1000A0000C949C2E0C949C2E0C94429C0C949C2E94
:1000B0000C949C2E0C949C2E0C949C2E0C949C2E98
:1000C0000C949C2E0C949C2E0C949C2E0C94259D90
:1000D0000C94EF9C0C949C2E0C949C2E0C949C2EB7
:1000E0000C949C2E084AD73B3BCE016E84BCBFFDCE
:1000F000C12F3D6C74319ABD56833DDA3D00C77FF8
:1001000011BED9E4BB4C3E916BAAAABE0000008090
:100110003F05A84CCDB2D44EB93836A9020C50B91F
:10012000918688083CA6AAAA2ABE000000803F0744
:10013000634236B79BD8A71A39685618AEBAAB5582
:100140008C1D3CB7CC5763BD6DEDFD753EF6177247
:1001500031BF000000803F08000000BE9224491219
:100160003EABAAAA2ABECDCCCC4C3E00000080BE3D
:10017000ABAAAAAA3E00000000BF000000803F001A
:1001800000000000084178D3BB4387D1133D190E0E
:100190003CC3BD4282AD2B3E68EC8276BED98FE176
:1001A000A93E4C80EFFFBE01C4FF7F3F000000006E
:1001B00000000D94944A0D942C440D9487370C94B0
:1001C000D9E00D94DB450C94E19D0D94F6360D9429
:1001D00025370C947DDB0C9424DF0C9410D60D9401
:1001E000D8370D94AF440D94F9360C9489DB0C94F8
:1001F0006EDB0C9481DB0C9421DB0C94BED50D944A
:1002000067470D941F370D9454470D94EA360D94AB
:10021000A8460C941CE00C9458D70C9443970D946A
:10022000A1370D94B5370C94BF9D0C94C3DC0D948D
:1002300016480D94764A0D94BF370D94EC370D9403
:10024000D8360D944D4A0C948DDB0D940D370C94DB
:10025000BDDF0C94639D0D94FF360C9440DC0D942F
:10026000BC460D94C23E0D94F2360C94E99D0D945B
:10027000D3360C949AE00C94C2DC0D94CE370D94D6
:1002800012470D9429370C94CB9D0D94504C0C942F
:10029000A19D0C94BB9D0D94815A0C944A840C949E
:1002A000C5D50D947D370D947B440D94684A0C940C
:1002B0005A5C0C94A7DB0C94AD5C0C941A5F0C9404
:1002C00050DB0D9473370D94E2370D94F6370C9490
:1002D000A3E10D9403370C94ACE00D946E370D94AC
:1002E000204A0D94274F0C94A15E0D94F3460C9474
:1002F000E25E0C9485DB0D9411370C949CDF0C941A
:1003000075DB0D94804A0C9415D60D9400380D942D
:100310004B450D948D4B0D94635A0C949FDB0C94BC
:1003200094DB0D94B13D0C9407DF0D94313B0D949B
:1003300043400D94463C0C94755E0C9451D70D943B
:10034000504A0D94AB370C94CF9D0D9411460C94EC
:100350004CD70D94073A0D94A14A0D9499370D94FA
:100360005F440C9479DB0D941B370D94E6420D9499
:1003700009370D94474A0C94A95C0D94DF460D94FF
:1003800091370C94B79D0C94C79D0C94B09D0D941F
:1003900017370C94C39D0C94D69D0C94929D0D948C
:1003A000EE360D9466370C945FDB0C9401E00D94EF
:1003B0007D4B0D947F460D941B3C4E414E494E495A
:1003C0005459494E46CDCCCC3D0AD7233C17B7D122
:1003D0003877CC2B329595E6241FB14F0A000020C8
:1003E000410000C84200401C4620BCBE4CCA1B0E47
:1003F0005AAEC59D7400407A10F35A00A0724E1890
:10040000090010A5D4E80000E87648170000E40BC6
:1004100054020000CA9A3B000000E1F5050000808C
:10042000969800000040420F000000A086010000E6
:1004300000102700000000E8030000000064000036
:100440000000000A00000000000100000000002C75
:1004500076D888DC674F0823DFC1DFAE59E1B1B73A
:1004600096E5E3E453C63AE651997696E8E6C28407
:1004700026EB898C9B62ED407C6FFCEFBC9C9F401F
:10048000F2BAA56FA5F490055A2AF75C936B6CF944
:10049000676DC11BFCE0E40D47FEF520E6B500D01A
:1004A000ED902E0300943577050080841E0800002F
:1004B000204E0A000000C80C333333330F986E12FD
:1004C000831141EF8D2114893BE65516CFFEE6DB03
:1004D00018D1844B381BF77C1D901DA4BBE424204D
:1004E0003284725E228100C9F124ECA1E53D2743EC
:1004F0004F4D4D554E49434154494F4E004452597A
:1005000052554E004552524F525300494E464F00ED
:100510004543484F0020496E76616C6964206578D8
:10052000747275646572200047322F473320626110
:100530006420706172616D65746572730A00536C3A
:100540006565702E2E2E005A2050726F6265205005
:10055000617374204265640A005A2050726F6265AC
:1005600020506173742042656400205A3A200020B4
:10057000593A200042656420583A20004D6573685E
:1005800020706F696E74206F7574206F66207261C1
:100590006E67650A004D302053746F70004D312036
:1005A00053746F7000436F6E74696E756500436CB1
:1005B00069636B20746F20526573756D652E2E2EE6
:1005C000004E6F204D6F76652E00456E6420666983
:1005D0006C65206C6973740A00426567696E2066F9
:1005E000696C65206C6973740A004E6F206D6564D8
:1005F00069610A00526573756D696E672053440026
:10060000286E6F2066696C65290043757272656E8D
:10061000742066696C653A20005072696E742074AB
:10062000696D653A20000A53746174733A20466913
:100630006C616D656E7420757365643A20002C20C2
:100640004C6F6E67657374206A6F623A2000546F56
:1006500074616C2074696D653A2000537461747321
:100660003A20002C204661696C65643A20002C20F9
:1006700046696E69736865643A20005072696E74E9
:10068000733A200053746174733A2000436F6F6CA7
:10069000696E672E2E2E0048656174696E672E2E76
:1006A0002E0045202553006F6B006F666600100515
:1006B0000B050405FD04EF0444454255473A004D3F
:1006C00031313320530042656420436F6F6C696E93
:1006D000672E2E2E004265642048656174696E673E
:1006E0002E2E2E00544D334420453520506C75730A
:1006F000204F46462E002F2F002052004163636595
:100700006C65726174696F6E3A2050004D323036FC
:1007100020580046523A0020466C6F773A20003A43
:10072000200020536572766F2000206F7574206F53
:10073000662072616E67650A00536572766F2000ED
:1007400020643A0020693A0020703A00496E7661D0
:100750006C69642065787472756465720A0020643F
:100760003A0020693A0020703A0064697300656EAF
:100770000043290A0061626C656420286D696E205F
:1007800074656D702000436F6C64206578747275B9
:10079000646573206172652000504944204175747E
:1007A0006F74756E6500504944204175746F74759F
:1007B0006E65206661696C65642120426164206811
:1007C00065617465722069640A0046696C616D65D3
:1007D0006E742072756E6F75742064697374616EC7
:1007E000636520286D6D293A200046696C616D654E
:1007F0006E742072756E6F757420004F6666736537
:100800007473204170706C696564004572723A209F
:10081000546F6F206661722100546F6F20666172A1
:100820002066726F6D207265666572656E63652005
:10083000706F696E740A00454550524F4D204F4B02
:100840000A002E0A002028302D3130290020766140
:100850006C7565206F7574206F662072616E6765B8
:1008600000416476616E6365204B3D00506F776593
:10087000722D6C6F7373207265636F766572792069
:10088000004D383400446F6E65207072696E746973
:100890006E672066696C650A004D3737004D33314D
:1008A000004361703A004D4541545041434B004371
:1008B0004F4F4C45525F54454D504552415455524F
:1008C00045004348414D4245525F54454D504552C5
:1008D00041545552450042414259535445505049A4
:1008E0004E470041524353004D4F54494F4E5F4DC8
:1008F0004F44455300544845524D414C5F50524F70
:1009000054454354494F4E004C4F4E475F46494C67
:10091000454E414D45004155544F5245504F52545C
:100920005F53445F5354415455530053445F5752EF
:1009300049544500524550454154005344434152A7
:10094000440050524F4D50545F535550504F5254E5
:1009500000454D455247454E43595F50415253451E
:100960005200434153455F4C494748545F42524906
:100970004748544E45535300544F47474C455F4CEE
:10098000494748545300534F4654574152455F50CE
:100990004F574552004255494C445F5045524345DC
:1009A0004E54004C4556454C494E475F44415441D6
:1009B000005A5F50524F42450052554E4F55540019
:1009C0004155544F4C4556454C005052494E545F8A
:1009D0004A4F420050524F475245535300415554DD
:1009E0004F5245504F52545F54454D5000564F4C56
:1009F000554D455452494300454550524F4D0042D4
:100A0000494E4152595F46494C455F5452414E53FD
:100A10004645520053455249414C5F584F4E5F582E
:100A20004F4646004649524D574152455F4E414D53
:100A3000453A4D61726C696E20322E302E375F441C
:100A400057372E332E3120544D33442045355053E3
:100A50004D444255202841707220333020323032CC
:100A6000312030303A35323A30312920534F555207
:100A700043455F434F44455F55524C3A6874747028
:100A8000733A2F2F6769746875622E636F6D2F49F3
:100A90006E73616E6974794175746F6D6174696F9D
:100AA0006E2F4D61726C696E2F747265652F437283
:100AB00065616C6974794477696E5F322E302050BD
:100AC000524F544F434F4C5F56455253494F4E3A45
:100AD000312E30204D414348494E455F54595045D1
:100AE0003A544D334420453520506C757320455899
:100AF0005452554445525F434F554E543A31205558
:100B00005549443A63656465326132662D3431611A
:100B1000322D343734382D396231322D6335356317
:100B200036326633363766660A0050726F62652069
:100B30004F6666736574205A0050726F6265204F6D
:100B40006666736574205A00290A0020746F2000BD
:100B50003F5A206F7574206F662072616E67652042
:100B60002800290A0020746F20003F59206F7574F7
:100B7000206F662072616E676520282D00290A00AB
:100B800020746F20003F58206F7574206F662072AC
:100B9000616E676520282D0050726F6265204F6678
:100BA0006673657420580043616E6E6F74206F70B9
:100BB000656E207375626469722000256973002573
:100BC000696D20256973002569682025696D2025D8
:100BD000697300256964202569682025696D2025D1
:100BE00069730025697920256964202569682025B5
:100BF000696D20256973003D3D4477696E20496E1B
:100C0000697420436F6D706C6574653D3D002A2AE0
:100C10002A4E6F7A7A6C6554656D70537461747581
:100C2000735B325D203D003D3D48656174696E67D0
:100C300020446F6E65204368616E67652046696C6D
:100C4000616D656E743D3D00202073746172747037
:100C5000726F677265737320003D3D7761697477C9
:100C6000617920353D3D003D3D776169747761795B
:100C700020343D3D003D3D776169747761792033D3
:100C80003D3D003D3D7761697477617920313D3D9F
:100C9000003D3D6F6E5072696E7454696D6572539C
:100CA000746F707065643D3D003D3D6F6E466163DD
:100CB000746F727952657365743D3D00270A0A00AE
:100CC00000272027002027002D006E6F74696669B9
:100CD000636174696F6E200063616E63656C0050C0
:100CE00072696E742041626F727465640044697346
:100CF0006D6973730055492041626F7274656400B9
:100D0000726573756D65004D3234002A2A2A43508E
:100D10006C617920546F6E652A2A2A003D3D6F6E02
:100D20005072696E7454696D657250617573656453
:100D30003D3D00486F6D696E67204661696C656472
:100D4000006F70656E005452494747455245440054
:100D50003A200066696C616D656E74007A5F6D693A
:100D60006E00795F6D617800785F6D617800526523
:100D7000706F7274696E6720656E6473746F702033
:100D80007374617475730A0020746F6F206C6F6EDA
:100D90006720657874727573696F6E2070726576FE
:100DA000656E7465640A0020636F6C6420657874F6
:100DB000727573696F6E2070726576656E746564A6
:100DC0000A00486F6D6520257325732573204669D9
:100DD000727374005761726E696E673A20486F6D66
:100DE000696E672042756D702044697669736F7211
:100DF000203C20310A000202040000B4430000B489
:100E000043000000000000B4430000B4430000C8E9
:100E1000430000004100000041000000400101FFCC
:100E20000000000100000001000080005555550041
:100E30000000400033333300AAAA2A00499224005C
:100E400000002000C7711C0099991900D1451700B6
:100E5000555515003BB11300244912001111110022
:100E6000000010000F0F0F00E3380E0043790D0053
:100E7000CCCC0C00C3300C00E8A20B0064210B00AA
:100E8000AAAA0A00703D0A009DD80900427B090009
:100E900092240900DCD3080088880800104208006A
:100EA00000000800F0C107008787070075500700A1
:100EB000711C07003EEB0600A1BC0600699006000D
:100EC00066660600703E06006118060017F405000D
:100ED00074D105005BB00500B29005006272050098
:100EE0005555050078390500B81E050005050500B3
:100EF0004EEC040087D40400A1BD040090A70400B8
:100F000049920400C17D0400EE690400C756040044
:100F1000444404005C320400082104004110040031
:100F2000000004003FF00300F8E0030026D20300B5
:100F3000C3C30300CCB503003AA803000A9B030017
:100F4000388E0300C08103009F750300D069030041
:100F5000505E03001D53030034480300913D03001D
:100F60003333030016290300381F030097150300CD
:100F7000300C0300030303000BFA020049F10200E6
:100F8000BAE802005CE002002DD802002DD0020079
:100F900059C80200B0C0020031B90200DAB1020043
:100FA000AAAA0200A0A30200BC9C0200FA950200BB
:100FB0005C8F0200DF88020082820200457C020012
:100FC0002776020027700200436A02007C64020058
:100FD000D05E02003F590200C8530200FFFDFCFA38
:100FE000F8F6F4F2F0EEECEAE9E7E5E3E1E0DEDC66
:100FF000DAD9D7D5D4D2D0CFCDCBCAC8C7C5C3C212
:10100000C0BFBDBCBAB9B7B6B4B3B2B0AFADACAA8D
:10101000A9A8A6A5A4A2A1A09E9D9C9A99989795DF
:10102000949392908F8E8D8B8A8988878684838211
:1010300081807F7E7D7B7A79787776757473727123
:10104000706F6E6D6C6B6A69686766656463626118
:10105000605F5E5D5C5B5A59585857565554535201
:101060005150504F4E4D4C4B4A4A494847464645D1
:101070004443424241403F3E3E3D3C3B3B3A39388F
:101080003837363535343332323130302F2E2E2D3D
:101090002C2B2B2A292928272726252524232322E0
:1010A000212120201F1E1E1D1C1C1B1B1A19191874
:1010B00018171616151514131312121111100F0FFD
:1010C0000E0E0D0D0C0C0B0A0A090908080707067D
:1010D0000605050404030302020100003D3D6F6E96
:1010E0005072696E7454696D65725374617274657F
:1010F000643D3D000000B4430000B4430000C84319
:101100000000000000000000000000003D3D6F6E88
:1011100053746F726553657474696E67733D3D00F7
:101120003D3D6F6E436F6E66696775726174696F7E
:101130006E53746F72655772697474656E3D3D00CD
:1011400053657474696E67732053746F72656400BD
:10115000363726033C3D380E2E303E121A1C180A34
:10116000FF4309070844000124F404D9201BC40CE0
:101170005C0E9804C4095F0265077101F405F9006B
:10118000FB04B30048048700C103690058035500FD
:1011900003034500BE023A008402310053022A00D4
:1011A0002902250004022000E4011C00C8011900E6
:1011B000AF011700980114008401130071011000A1
:1011C0006101100051010E0043010D0036010B00BA
:1011D0002B010B0020010B00150109000C01090077
:1011E00003010800FB000800F3000800EB00070003
:1011F000E4000600DE000600D8000600D20006006B
:10120000CC000500C7000500C2000500BD000400B9
:10121000B9000400B5000400B1000400AD000400F2
:10122000A9000400A5000300A20003009F00040021
:101230009B00030098000300950002009300030048
:10124000900003008D0002008B0003008800020064
:101250008600020084000300810002007F0002007B
:101260007D0002007B00020079000200770001008F
:10127000760002007400020072000100710002009A
:101280006F0002006D0001006C0002006A000100A6
:1012900069000200670001006600010065000100AE
:1012A00064000200620001006100010060000100B2
:1012B0005F0002005D0001005C0001005B000100B6
:1012C0005A000100590001005800010057000100B8
:1012D00056000100550001005400010053000000B9
:1012E00053000100520001005100010050000100B4
:1012F0004F0001004E0000004E0001004D000100B3
:101300004C0001004B0000004B0001004A000100AE
:1013100049000100480000004800010047000100AA
:1013200046000000460001004500000045000100A5
:10133000440001004300000043000100420000009F
:101340004200010041000000410001004000010096
:101350003F0000003F0001003E0000003E00010091
:101360003D0000003D0001003C0000003C0000008A
:101370003C0001003B0000003B0001003A0000007F
:101380003A00010039000000390001003800000077
:10139000380000003800010037000000370001006D
:1013A0003600000036000000360001003500000065
:1013B000350000003500010034000000340000005A
:1013C000340001003300000033000000330001004E
:1013D0003200000032000000320001003100000045
:1013E000310000003100010030000000300000003A
:1013F000300001002F0000002F0000002F0000002F
:101400002F0001002E0000002E0000002E00010021
:101410002D0000002D0000002D0000002D00010017
:101420002C0000002C0000002C0000002C0001000B
:101430002B0000002B0000002B0000002B000100FF
:101440002A0000002A0000002A0000002A000100F3
:1014500029000000290000002900000029000000E8
:1014600029000100280000002800000028000000DA
:1014700028000000280001002700000027000000CD
:1014800027000000270000002700010026000000C0
:1014900026000000260000002600000026000100B3
:1014A00025000000250000002500000025000000A8
:1014B0002500000025000100240000002400000099
:1014C000240000002400000024000100230000008C
:1014D0002300000023000000230000002300000080
:1014E0002300000023000100220000002200000071
:1014F0002200000022000000220000002200010063
:101500002100000021000000210000002100000057
:101510002100000021000000210001002000000047
:10152000200000002000000020000000200000003B
:101530002000000020000000200001001F0000002B
:101540001F0000001F0000001F0000001F0000001F
:101550001F0000001F0001001E0000001E00000010
:101560001E0000001E00000024F4D43050C38E2062
:10157000C2A24017828B7011127A910D816CD90A28
:10158000A861E108C7586607615143061E4B5D0517
:10159000C145A7041A411104093D9803713931036B
:1015A0004036DB0265339102D4305402802E1D0296
:1015B000632CEE01752AC501B028A0011027810116
:1015C0008F2564012B244B01E0223401AC211F0143
:1015D0008D200D01801FFC00841EED00971DDF0093
:1015E000B81CD200E61BC600201BBC00641AB20067
:1015F000B219A8000A19A0006A189900D117910021
:1016000040178B00B516840031167E00B3157900A3
:101610003A157300C7146F0058146A00EE13660081
:101620008813630025135E00C7125B006C1257001D
:1016300015125400C111510070114F0021114B00BF
:10164000D61049008D104700461044000210420099
:10165000C00F4000800F3E00420F3C00060F3B00D1
:10166000CB0E3800930E37005C0E3500270E340089
:10167000F30D3200C10D3100900D3000600D2E00D1
:10168000320D2D00050D2C00D90C2B00AE0C2900BD
:10169000850C29005C0C2700350C27000E0C260059
:1016A000E80B2400C40B2400A00B23007D0B2300B7
:1016B0005A0B2100390B2100180B2000F80A1F00DB
:1016C000D90A1E00BB0A1E009D0A1D00800A1D00CB
:1016D000630A1C00470A1B002C0A1B00110A1A008F
:1016E000F7091A00DD091900C4091900AB0919002E
:1016F000920917007B091800630917004C091600AE
:1017000036091600200916000A091500F50815000B
:10171000E0081400CC081400B8081400A408140051
:10172000900813007D0812006B081300580812007F
:101730004608120034081100230811001208110095
:1017400001081100F0071000E0071000D00710009A
:10175000C0071000B0070F00A107100091070E008E
:1017600083070F0074070F0065070E0057070E0070
:1017700049070E003B070D002E070E0020070D0045
:1017800013070D0006070D00F9060C00ED060D000D
:10179000E0060C00D4060C00C8060C00BC060C00C9
:1017A000B0060C00A4060B0099060C008D060B0079
:1017B00082060B0077060B006C060B0061060A0020
:1017C00057060B004C060A0042060A0038060A00BB
:1017D0002E060A0024060A001A060A00100609004E
:1017E00007060A00FD050900F4050900EB050900DC
:1017F000E2050900D9050900D0050900C70509005F
:10180000BE050900B5050800AD050800A5050900DD
:101810009C050800940508008C0508008405080054
:101820007C050800740508006C05070065050800C4
:101830005D050700560508004E050700470507002F
:101840004005080038050700310507002A05070094
:10185000230507001C050600160507000F050700F5
:101860000805060002050700FB040600F504070052
:10187000EE040600E8040600E2040700DB040600AC
:10188000D5040600CF040600C9040600C304060000
:10189000BD040600B7040600B1040500AC04060050
:1018A000A6040600A00405009B040600950405009C
:1018B000900406008A0405008504050080040600E3
:1018C0007A04050075040500700405006B0405002A
:1018D00066040500610405005C040500570405006A
:1018E000520405004D0405004804050043040500AA
:1018F0003E0404003A0405003504050030040400E9
:101900002C04050027040400230405001E04040021
:101910001A04040016040500110404000D04040058
:10192000090405000404040000040400FC0304008E
:10193000F8030400F4030400F0030400EC030400C3
:10194000E8030400E4030400E0030400DC030400F3
:10195000D8030400D4030400D0030400CC03040023
:10196000C8030300C5030300726F746174696F6E6E
:10197000206D61747269783A0A0024F404D9201B3E
:10198000C40C5C0E9804C4095F0265077101F4057C
:10199000F900FB04B30048048700C1036900580341
:1019A000550003034500BE023A0084023100530291
:1019B0002A002902250004022000E4011C00C801BD
:1019C0001900AF0117009801140084011300710180
:1019D00010006101100051010E0043010D0036019D
:1019E0000B002B010B0020010B00150109000C015D
:1019F000090003010800FB000800F3000800EB00E9
:101A00000700E4000600DE000600D8000600D20051
:101A10000600CC000500C7000500C2000500BD009F
:101A20000400B9000400B5000400B1000400AD00DA
:101A30000400A9000400A5000300A20003009F0009
:101A400004009B000300980003009500020093002F
:101A50000300900003008D0002008B00030088004B
:101A600002008600020084000300810002007F0063
:101A700002007D0002007B00020079000200770076
:101A80000100760002007400020072000100710083
:101A900002006F0002006D0001006C0002006A008D
:101AA0000100690002006700010066000100650096
:101AB000010064000200620001006100010060009A
:101AC00001005F0002005D0001005C0001005B009E
:101AD00001005A00010059000100580001005700A0
:101AE00001005600010055000100540001005300A0
:101AF000000053000100520001005100010050009D
:101B000001004F0001004E0000004E0001004D009A
:101B100001004C0001004B0000004B0001004A0096
:101B20000100490001004800000048000100470092
:101B3000010046000000460001004500000045008D
:101B40000100440001004300000043000100420086
:101B5000000042000100410000004100010040007F
:101B600001003F0000003F0001003E0000003E0079
:101B700001003D0000003D0001003C0000003C0071
:101B800000003C0001003B0000003B0001003A0067
:101B900000003A000100390000003900010038005F
:101BA0000000380000003800010037000000370056
:101BB000010036000000360000003600010035004C
:101BC0000000350000003500010034000000340042
:101BD0000000340001003300000033000000330037
:101BE000010032000000320000003200010031002C
:101BF0000000310000003100010030000000300022
:101C00000000300001002F0000002F0000002F0016
:101C100000002F0001002E0000002E0000002E000A
:101C200001002D0000002D0000002D0000002D00FF
:101C300001002C0000002C0000002C0000002C00F3
:101C400001002B0000002B0000002B0000002B00E7
:101C500001002A0000002A0000002A0000002A00DB
:101C600001002900000029000000290000002900CF
:101C700000002900010028000000280000002800C2
:101C800000002800000028000100270000002700B5
:101C900000002700000027000000270001002600A8
:101CA000000026000000260000002600000026009C
:101CB000010025000000250000002500000025008F
:101CC0000000250000002500010024000000240081
:101CD0000000240000002400000024000100230074
:101CE0000000230000002300000023000000230068
:101CF0000000230000002300010022000000220059
:101D0000000022000000220000002200000022004B
:101D1000010021000000210000002100000021003E
:101D2000000021000000210000002100010020002F
:101D30000000200000002000000020000000200023
:101D400000002000000020000000200001001F0013
:101D500000001F0000001F0000001F0000001F0007
:101D600000001F0000001F0001001E0000001E00F8
:101D700000001E0000001E00000024F4D43050C3F8
:101D80008E20C2A24017828B7011127A910D816C45
:101D9000D90AA861E108C7586607615143061E4B7E
:101DA0005D05C145A7041A411104093D9803713925
:101DB00031034036DB0265339102D4305402802E69
:101DC0001D02632CEE01752AC501B028A001102761
:101DD00081018F2564012B244B01E0223401AC21C9
:101DE0001F018D200D01801FFC00841EED00971D3A
:101DF000DF00B81CD200E61BC600201BBC00641A22
:101E0000B200B219A8000A19A0006A189900D117E7
:101E1000910040178B00B516840031167E00B31573
:101E200079003A157300C7146F0058146A00EE1356
:101E300066008813630025135E00C7125B006C12F6
:101E4000570015125400C111510070114F0021119B
:101E50004B00D61049008D10470046104400021078
:101E60004200C00F4000800F3E00420F3C00060FB2
:101E70003B00CB0E3800930E37005C0E3500270E6A
:101E80003400F30D3200C10D3100900D3000600DB3
:101E90002E00320D2D00050D2C00D90C2B00AE0CA0
:101EA0002900850C29005C0C2700350C27000E0C3E
:101EB0002600E80B2400C40B2400A00B23007D0B9C
:101EC00023005A0B2100390B2100180B2000F80ABF
:101ED0001F00D90A1E00BB0A1E009D0A1D00800AB1
:101EE0001D00630A1C00470A1B002C0A1B00110A74
:101EF0001A00F7091A00DD091900C4091900AB0915
:101F00001900920917007B091800630917004C0992
:101F1000160036091600200916000A091500F508F2
:101F20001500E0081400CC081400B8081400A40838
:101F30001400900813007D0812006B081300580865
:101F4000120046081200340811002308110012087C
:101F5000110001081100F0071000E0071000D00781
:101F60001000C0071000B0070F00A1071000910774
:101F70000E0083070F0074070F0065070E00570758
:101F80000E0049070E003B070D002E070E0020072C
:101F90000D0013070D0006070D00F9060C00ED06F5
:101FA0000D00E0060C00D4060C00C8060C00BC06B0
:101FB0000C00B0060C00A4060B0099060C008D0660
:101FC0000B0082060B0077060B006C060B00610607
:101FD0000A0057060B004C060A0042060A003806A3
:101FE0000A002E060A0024060A001A060A00100635
:101FF000090007060A00FD050900F4050900EB05C4
:102000000900E2050900D9050900D0050900C70546
:102010000900BE050900B5050800AD050800A505C5
:1020200009009C050800940508008C05080084053B
:1020300008007C050800740508006C0507006505AC
:1020400008005D050700560508004E050700470516
:1020500007004005080038050700310507002A057C
:102060000700230507001C050600160507000F05DD
:1020700007000805060002050700FB040600F5043A
:102080000700EE040600E8040600E2040700DB0493
:102090000600D5040600CF040600C9040600C304E8
:1020A0000600BD040600B7040600B1040500AC0438
:1020B0000600A6040600A00405009B040600950483
:1020C0000500900406008A040500850405008004CC
:1020D00006007A04050075040500700405006B0411
:1020E000050066040500610405005C040500570452
:1020F0000500520405004D04050048040500430492
:1021000005003E0404003A040500350405003004CF
:1021100004002C04050027040400230405001E0409
:1021200004001A04040016040500110404000D0440
:102130000400090405000404040000040400FC0376
:102140000400F8030400F4030400F0030400EC03AB
:102150000400E8030400E4030400E0030400DC03DB
:102160000400D8030400D4030400D0030400CC030B
:102170000400C8030300C503030024F404D9201B92
:10218000C40C5C0E9804C4095F0265077101F40574
:10219000F900FB04B30048048700C1036900580339
:1021A000550003034500BE023A0084023100530289
:1021B0002A002902250004022000E4011C00C801B5
:1021C0001900AF0117009801140084011300710178
:1021D00010006101100051010E0043010D00360195
:1021E0000B002B010B0020010B00150109000C0155
:1021F000090003010800FB000800F3000800EB00E1
:102200000700E4000600DE000600D8000600D20049
:102210000600CC000500C7000500C2000500BD0097
:102220000400B9000400B5000400B1000400AD00D2
:102230000400A9000400A5000300A20003009F0001
:1022400004009B0003009800030095000200930027
:102250000300900003008D0002008B000300880043
:1022600002008600020084000300810002007F005B
:1022700002007D0002007B0002007900020077006E
:10228000010076000200740002007200010071007B
:1022900002006F0002006D0001006C0002006A0085
:1022A000010069000200670001006600010065008E
:1022B0000100640002006200010061000100600092
:1022C00001005F0002005D0001005C0001005B0096
:1022D00001005A0001005900010058000100570098
:1022E0000100560001005500010054000100530098
:1022F0000000530001005200010051000100500095
:1023000001004F0001004E0000004E0001004D0092
:1023100001004C0001004B0000004B0001004A008E
:10232000010049000100480000004800010047008A
:102330000100460000004600010045000000450085
:10234000010044000100430000004300010042007E
:102350000000420001004100000041000100400077
:1023600001003F0000003F0001003E0000003E0071
:1023700001003D0000003D0001003C0000003C0069
:1023800000003C0001003B0000003B0001003A005F
:1023900000003A0001003900000039000100380057
:1023A000000038000000380001003700000037004E
:1023B0000100360000003600000036000100350044
:1023C000000035000000350001003400000034003A
:1023D000000034000100330000003300000033002F
:1023E0000100320000003200000032000100310024
:1023F000000031000000310001003000000030001A
:102400000000300001002F0000002F0000002F000E
:1024100000002F0001002E0000002E0000002E0002
:1024200001002D0000002D0000002D0000002D00F7
:1024300001002C0000002C0000002C0000002C00EB
:1024400001002B0000002B0000002B0000002B00DF
:1024500001002A0000002A0000002A0000002A00D3
:1024600001002900000029000000290000002900C7
:1024700000002900010028000000280000002800BA
:1024800000002800000028000100270000002700AD
:1024900000002700000027000000270001002600A0
:1024A0000000260000002600000026000000260094
:1024B0000100250000002500000025000000250087
:1024C0000000250000002500010024000000240079
:1024D000000024000000240000002400010023006C
:1024E0000000230000002300000023000000230060
:1024F0000000230000002300010022000000220051
:102500000000220000002200000022000000220043
:102510000100210000002100000021000000210036
:102520000000210000002100000021000100200027
:10253000000020000000200000002000000020001B
:1025400000002000000020000000200001001F000B
:1025500000001F0000001F0000001F0000001F00FF
:1025600000001F0000001F0001001E0000001E00F0
:1025700000001E0000001E00000024F4D43050C3F0
:102580008E20C2A24017828B7011127A910D816C3D
:10259000D90AA861E108C7586607615143061E4B76
:1025A0005D05C145A7041A411104093D980371391D
:1025B00031034036DB0265339102D4305402802E61
:1025C0001D02632CEE01752AC501B028A001102759
:1025D00081018F2564012B244B01E0223401AC21C1
:1025E0001F018D200D01801FFC00841EED00971D32
:1025F000DF00B81CD200E61BC600201BBC00641A1A
:10260000B200B219A8000A19A0006A189900D117DF
:10261000910040178B00B516840031167E00B3156B
:1026200079003A157300C7146F0058146A00EE134E
:1026300066008813630025135E00C7125B006C12EE
:10264000570015125400C111510070114F00211193
:102650004B00D61049008D10470046104400021070
:102660004200C00F4000800F3E00420F3C00060FAA
:102670003B00CB0E3800930E37005C0E3500270E62
:102680003400F30D3200C10D3100900D3000600DAB
:102690002E00320D2D00050D2C00D90C2B00AE0C98
:1026A0002900850C29005C0C2700350C27000E0C36
:1026B0002600E80B2400C40B2400A00B23007D0B94
:1026C00023005A0B2100390B2100180B2000F80AB7
:1026D0001F00D90A1E00BB0A1E009D0A1D00800AA9
:1026E0001D00630A1C00470A1B002C0A1B00110A6C
:1026F0001A00F7091A00DD091900C4091900AB090D
:102700001900920917007B091800630917004C098A
:10271000160036091600200916000A091500F508EA
:102720001500E0081400CC081400B8081400A40830
:102730001400900813007D0812006B08130058085D
:102740001200460812003408110023081100120874
:10275000110001081100F0071000E0071000D00779
:102760001000C0071000B0070F00A107100091076C
:102770000E0083070F0074070F0065070E00570750
:102780000E0049070E003B070D002E070E00200724
:102790000D0013070D0006070D00F9060C00ED06ED
:1027A0000D00E0060C00D4060C00C8060C00BC06A8
:1027B0000C00B0060C00A4060B0099060C008D0658
:1027C0000B0082060B0077060B006C060B006106FF
:1027D0000A0057060B004C060A0042060A0038069B
:1027E0000A002E060A0024060A001A060A0010062D
:1027F000090007060A00FD050900F4050900EB05BC
:102800000900E2050900D9050900D0050900C7053E
:102810000900BE050900B5050800AD050800A505BD
:1028200009009C050800940508008C050800840533
:1028300008007C050800740508006C0507006505A4
:1028400008005D050700560508004E05070047050E
:1028500007004005080038050700310507002A0574
:102860000700230507001C050600160507000F05D5
:1028700007000805060002050700FB040600F50432
:102880000700EE040600E8040600E2040700DB048B
:102890000600D5040600CF040600C9040600C304E0
:1028A0000600BD040600B7040600B1040500AC0430
:1028B0000600A6040600A00405009B04060095047B
:1028C0000500900406008A040500850405008004C4
:1028D00006007A04050075040500700405006B0409
:1028E000050066040500610405005C04050057044A
:1028F0000500520405004D0405004804050043048A
:1029000005003E0404003A040500350405003004C7
:1029100004002C04050027040400230405001E0401
:1029200004001A04040016040500110404000D0438
:102930000400090405000404040000040400FC036E
:102940000400F8030400F4030400F0030400EC03A3
:102950000400E8030400E4030400E0030400DC03D3
:102960000400D8030400D4030400D0030400CC0303
:102970000400C8030300C50303001000C9021001CE
:102980002C014001220170011801B0010E01F0017B
:1029900004015002FA00B002F0003003E600D00358
:1029A000DC009004D2007005C800A006BE0000083C
:1029B000B400B009AA00D00BA000600E9600601110
:1029C0008C000015820020197800C01D6E00A02226
:1029D0006400B0275A00902C500000314600E034CB
:1029E0003C0010383200903A2800603C1E00A03DA8
:1029F0001400803E0A00203F00006001F4017001D5
:102A0000EA019001E001B001D601D001CC01000241
:102A1000C2013002B8016002AE019002A401D002EE
:102A20009A012003900170038601C0037C013004E9
:102A30007201A004680120055E01B0055401600622
:102A40004A0120074001F0073601F0082C01100A66
:102A50002201500B1801C00C0E01500E0401301061
:102A6000FA002012F0005014E600C016DC007019C5
:102A7000D200501CC800501FBE007022B400B02508
:102A8000AA00F028A000202C9600302F8C001032D5
:102A90008200A0347800F0366E00E0386400803A9E
:102AA0005A00403B5500E03B5000F03C4600C03D22
:102AB0003C00603E3200E03E2800303F1E00503FA8
:102AC0001900703F1400A03F0A00C03F0000D03F33
:102AD000F6FFE03FECFF5A5F6D6F76655F636F6DE9
:102AE000700A0024F404D9201BC40C5C0E9804C4A2
:102AF000095F0265077101F405F900FB04B30048A2
:102B0000048700C10369005803550003034500BE54
:102B1000023A008402310053022A002902250004EF
:102B2000022000E4011C00C8011900AF0117009841
:102B300001140084011300710110006101100051A3
:102B4000010E0043010D0036010B002B010B00208C
:102B5000010B00150109000C01090003010800FB2D
:102B6000000800F3000800EB000700E4000600DEA8
:102B7000000600D8000600D2000600CC000500C701
:102B8000000500C2000500BD000400B9000400B546
:102B9000000400B1000400AD000400A9000400A579
:102BA000000300A20003009F0004009B00030098A4
:102BB0000003009500020093000300900003008DC5
:102BC0000002008B000300880002008600020084DF
:102BD000000300810002007F0002007D0002007BF4
:102BE0000002007900020077000100760002007404
:102BF00000020072000100710002006F0002006D0F
:102C00000001006C0002006A000100690002006718
:102C1000000100660001006500010064000200621E
:102C200000010061000100600001005F0002005D22
:102C30000001005C0001005B0001005A0001005926
:102C40000001005800010057000100560001005526
:102C50000001005400010053000000530001005225
:102C600000010051000100500001004F0001004E22
:102C70000000004E0001004D0001004C0001004B1F
:102C80000000004B0001004A00010049000100481B
:102C90000000004800010047000100460000004617
:102CA0000001004500000045000100440001004310
:102CB000000000430001004200000042000100410A
:102CC00000000041000100400001003F0000003F03
:102CD0000001003E0000003E0001003D0000003DFC
:102CE0000001003C0000003C0000003C0001003BF3
:102CF0000000003B0001003A0000003A00010039EA
:102D000000000039000100380000003800000038E1
:102D100000010037000000370001003600000036D7
:102D200000000036000100350000003500000035CD
:102D300000010034000000340000003400010033C2
:102D400000000033000000330001003200000032B8
:102D500000000032000100310000003100000031AD
:102D60000001003000000030000000300001002FA2
:102D70000000002F0000002F0000002F0001002E97
:102D80000000002E0000002E0001002D0000002D8C
:102D90000000002D0000002D0001002C0000002C80
:102DA0000000002C0000002C0001002B0000002B74
:102DB0000000002B0000002B0001002A0000002A68
:102DC0000000002A0000002A00010029000000295C
:102DD000000000290000002900000029000100284F
:102DE0000000002800000028000000280000002843
:102DF0000001002700000027000000270000002736
:102E00000000002700010026000000260000002628
:102E1000000000260000002600010025000000251B
:102E2000000000250000002500000025000000250E
:102E30000001002400000024000000240000002401
:102E400000000024000100230000002300000023F4
:102E500000000023000000230000002300000023E6
:102E600000010022000000220000002200000022D9
:102E700000000022000000220001002100000021CB
:102E800000000021000000210000002100000021BE
:102E900000000021000100200000002000000020B0
:102EA00000000020000000200000002000000020A2
:102EB000000000200001001F0000001F0000001F94
:102EC0000000001F0000001F0000001F0000001F86
:102ED0000001001E0000001E0000001E0000001E79
:102EE00000000024F4D43050C38E20C2A2401782C8
:102EF0008B7011127A910D816CD90AA861E108C713
:102F0000586607615143061E4B5D05C145A7041A6B
:102F1000411104093D9803713931034036DB0265E4
:102F2000339102D4305402802E1D02632CEE0175C1
:102F30002AC501B028A001102781018F2564012B2B
:102F4000244B01E0223401AC211F018D200D0180B2
:102F50001FFC00841EED00971DDF00B81CD200E6A8
:102F60001BC600201BBC00641AB200B219A8000ADC
:102F700019A0006A189900D117910040178B00B56D
:102F800016840031167E00B31579003A157300C718
:102F9000146F0058146A00EE13660088136300254E
:102FA000135E00C7125B006C12570015125400C16B
:102FB00011510070114F0021114B00D61049008DA6
:102FC0001047004610440002104200C00F4000802D
:102FD0000F3E00420F3C00060F3B00CB0E38009323
:102FE0000E37005C0E3500270E3400F30D3200C1A1
:102FF0000D3100900D3000600D2E00320D2D0005BA
:103000000D2C00D90C2B00AE0C2900850C29005C7E
:103010000C2700350C27000E0C2600E80B2400C4FA
:103020000B2400A00B23007D0B23005A0B21003939
:103030000B2100180B2000F80A1F00D90A1E00BB44
:103040000A1E009D0A1D00800A1D00630A1C00471D
:103050000A1B002C0A1B00110A1A00F7091A00DDCE
:10306000091900C4091900AB091900920917007B5E
:10307000091800630917004C0916003609160020CC
:103080000916000A091500F5081500E0081400CC1F
:10309000081400B8081400A4081400900813007D58
:1030A0000812006B0813005808120046081200347A
:1030B000081100230811001208110001081100F086
:1030C000071000E0071000D0071000C0071000B084
:1030D000070F00A107100091070E0083070F00746F
:1030E000070F0065070E0057070E0049070E003B4B
:1030F000070D002E070E0020070D0013070D000618
:10310000070D00F9060C00ED060D00E0060C00D4DA
:10311000060C00C8060C00BC060C00B0060C00A48F
:10312000060B0099060C008D060B0082060B00773B
:10313000060B006C060B0061060A0057060B004CDC
:10314000060A0042060A0038060A002E060A002473
:10315000060A001A060A001006090007060A00FD02
:10316000050900F4050900EB050900E2050900D98D
:10317000050900D0050900C7050900BE050900B50D
:10318000050800AD050800A50509009C0508009488
:103190000508008C050800840508007C05080074FB
:1031A0000508006C050700650508005D0507005669
:1031B0000508004E050700470507004005080038D0
:1031C000050700310507002A050700230507001C35
:1031D000050600160507000F050700080506000292
:1031E000050700FB040600F5040700EE040600E8EE
:1031F000040600E2040700DB040600D5040600CF45
:10320000040600C9040600C3040600BD040600B796
:10321000040600B1040500AC040600A6040600A0E4
:103220000405009B04060095040500900406008A2E
:1032300004050085040500800406007A0405007575
:10324000040500700405006B0405006604050061B8
:103250000405005C04050057040500520405004DF8
:1032600004050048040500430405003E0404003A38
:1032700004050035040500300404002C0405002773
:10328000040400230405001E0404001A04040016AC
:10329000040500110404000D0404000904050004E1
:1032A00004040000040400FC030400F8030400F418
:1032B000030400F0030400EC030400E8030400E44A
:1032C000030400E0030400DC030400D8030400D47A
:1032D000030400D0030400CC030400C8030300C5AA
:1032E000030300256C642E25696D004D61726C69C5
:1032F0006E20322E302E375F4457372E332E31005A
:10330000417869732000206D696E3A00206D617804
:103310003A00416363656C65726174696F6E206C1D
:10332000696D697465642E0A004641535400534C1C
:103330004F570005000006010004000601000605C5
:10334000000000060004004572726F7220777269F7
:1033500074696E6720746F20454550524F4D210AA5
:103360000053544F505045442E20005072696E74E3
:1033700065722073746F7070656420647565207465
:103380006F206572726F72732E20466978207468A0
:1033900065206572726F7220616E6420757365209E
:1033A0004D39393920746F20726573746172742ECF
:1033B000202854656D70657261747572652069733B
:1033C0002072657365742E205365742069742061C2
:1033D000667465722072657374617274696E6729B0
:1033E0000A004E6F20436865636B73756D207769C3
:1033F0007468206C696E65206E756D6265722C2034
:103400004C617374204C696E653A20004E6F204306
:103410006865636B73756D2077697468206C696E7D
:1034200065206E756D6265722C204C617374204C42
:10343000696E653A2000636865636B73756D206D16
:1034400069736D617463682C204C617374204C69DE
:103450006E653A20004C696E65204E756D6265722E
:10346000206973206E6F74204C617374204C696EF8
:1034700065204E756D6265722B312C204C61737422
:10348000204C696E653A20004D3131300053657231
:1034900069616C20737461747573206D69736D61FB
:1034A0007463680A00776169740A00534420726586
:1034B0006164206572726F720A002121204B494CB1
:1034C0004C2063617573656420627920746F6F208E
:1034D0006D75636820696E616374697665207469CF
:1034E0006D65202D2063757272656E7420636F6D3B
:1034F0006D616E643A2000486F74656E64204964A3
:103500006C652054696D656F757400486F74656EE5
:10351000642049646C652054696D656F75740A0098
:103520003D3D6F6E46696C616D656E7452756E6F70
:1035300075743D3D007061757365004D3630300027
:103540002066696C616D656E745F72756E6F7574FF
:10355000200066696C616D656E745F72756E6F7563
:103560007420540046696C616D656E7452756E6F9F
:1035700075742054002A2A2A496E6974696E67207E
:1035800063617264206973204F4B2A2A2A004D65BB
:1035900064696120496E736572746564004D656489
:1035A00069612052656D6F766564004D3130303051
:1035B0005300627573793A20706175736564206693
:1035C0006F7220696E7075740A00627573793A20A3
:1035D00070617573656420666F7220757365720A19
:1035E00000627573793A2070726F63657373696EE8
:1035F000670A002A2A2A6B696C6C2A2A2A00706FD3
:103600007765726F6666004B494C4C45442E20002E
:103610005072696E7465722068616C7465642E20E6
:103620006B696C6C28292063616C6C6564210A00ED
:1036300053544F505045442E20005072696E7465AB
:10364000722073746F707065642064756520746F88
:10365000206572726F72732E2046697820746865D7
:10366000206572726F7220616E6420757365204DE3
:1036700039393920746F20726573746172742E2029
:103680002854656D70657261747572652069732068
:1036900072657365742E20536574206974206166A9
:1036A0007465722072657374617274696E67290A39
:1036B000006563686F3A004572726F723A00204A83
:1036C0000020204D3432312049002020473239205B
:1036D000493939390A006163746976650A00696E8F
:1036E00000002053797374656D2076312E303120BF
:1036F000002020207C0A004E414E0020202E202059
:103700002000207C004C43443A0A004353563A0AB6
:103710000020666F7220003A0A0A000A426564209F
:10372000546F706F677261706879205265706F7244
:10373000740050726F62696E67204661696C6564DF
:103740000A0050726F62696E67204661696C656439
:1037500000205A3A200020593A200042656420583F
:103760003A20004732384C300047323800446F6E00
:10377000652E0A003F496E76616C69642073746F30
:103780007261676520736C6F742E0A3F55736520F4
:103790003020746F20003F454550524F4D207374C8
:1037A0006F72616765206E6F7420617661696C610C
:1037B000626C652E0A00446F6E652E0A003F496EEA
:1037C00076616C69642073746F7261676520736CD5
:1037D0006F742E0A3F557365203020746F20003FB0
:1037E000454550524F4D2073746F72616765206E6E
:1037F0006F7420617661696C61626C652E0A003FAE
:103800005034206973206F6E6C7920617661696C29
:1038100061626C65207768656E20616E204C434460
:103820002069732070726573656E742E0A003F50B4
:1038300032206973206F6E6C7920617661696C61EA
:10384000626C65207768656E20616E204C43442071
:1038500069732070726573656E742E0A00292E0AD2
:103860000A0050726F62696E672061726F756E64D4
:103870002028004D65736820696E76616C6964610B
:103880007465642E2050726F62696E67206D657377
:10389000682E0A004D657368207A65726F65642E24
:1038A0000A0044656661756C742073746F72616799
:1038B0006520736C6F7420302073656C656374656C
:1038C000642E0A004C6F6164696E672074657374BE
:1038D0005F7061747465726E2076616C7565732EAD
:1038E0000A0A00496E76616C696420746573745FBE
:1038F0007061747465726E2076616C75652E202817
:103900002D3120746F2032290A0A0020696E7661F9
:103910006C6964617465642E0A0A004C6F6361749B
:10392000696F6E7300456E74697265204D657368CA
:10393000005374616E6461726420446576696174D9
:10394000696F6E3A20004D65616E204D6573682089
:103950004865696768743A200023206F66207361A8
:103960006D706C65733A200050726F62696E6720EB
:10397000506F696E740025532025692F2569002E2C
:103980000A002F0050726F62696E67206D65736860
:1039900020706F696E742000496E76616C696420D6
:1039A0006D617020747970652E0A0A003F284629DF
:1039B0006164652068656967687420666F7220427B
:1039C0006564204C6576656C20436F727265637424
:1039D000696F6E206E6F7420706C61757369626CB4
:1039E000652E0A0A003F43616E2774206163746983
:1039F0007661746520616E642064656163746976C4
:103A0000617465206174207468652073616D652040
:103A100074696D652E0A0A00426F7468205820266A
:103A20002059206C6F636174696F6E73206D7573BC
:103A300074206265207370656369666965642E0A27
:103A40000A003F496E76616C696420677269642080
:103A500073697A6520284A292073706563696669ED
:103A600065642028322D39292E0A0A003F28502962
:103A7000686173652076616C756520696E76616C2E
:103A800069642028302D36292E0A0A003F2856293D
:103A90006572626F7365206C6576656C20696D7008
:103AA0006C61757369626C652028302D34292E0A8B
:103AB0000A003F285229657065746974696F6E2029
:103AC000636F756E7420696E76616C69642028314D
:103AD0002B292E0A0A0042333D33383333335D0A33
:103AE0000062656420706C616E65206E6F726D613E
:103AF0006C203D205B00436F756C64206E6F7420FA
:103B0000636F6D706C657465204C53462100436F84
:103B1000727265637465645F5A3D002553202569A0
:103B20002F2569000A0A002F0054696C74696E67BA
:103B3000206D65736820706F696E7420003F457258
:103B4000726F722070726F62696E6720706F696E3B
:103B5000742E2041626F7274696E67206F70657297
:103B60006174696F6E2E0A00436F727265637465CB
:103B7000645F5A3D00255320332F330054696C7421
:103B8000696E67206D6573682028332F33290A001A
:103B9000436F727265637465645F5A3D00255320FC
:103BA000322F330054696C74696E67206D657368D9
:103BB0002028322F33290A00436F727265637465BF
:103BC000645F5A3D0054696C74696E6720506F6978
:103BD0006E7400255320312F330054696C74696E64
:103BE00067206D6573682028312F33290A00646FC0
:103BF0006E650A00496E73756666696369656E7401
:103C000020646174610A000000803F3333914233C5
:103C1000331043CCCC574333B38F430080B34300BE
:103C200000803F3333914233331043CCCC5743337E
:103C3000B38F430080B3434578747261706F6C61D9
:103C400074696E67206D6573682E2E2E0021212009
:103C500053544F502063616C6C65642062656361EE
:103C6000757365206F6620424C546F7563682065DC
:103C700072726F72202D2072657374617274207776
:103C8000697468204D3939390A0021212053544F75
:103C9000502063616C6C6564206265636175736557
:103CA000206F6620424C546F756368206572726F96
:103CB00072202D2072657374617274207769746844
:103CC000204D3939390A002F2F616374696F6E3ABC
:103CD0000070726F6D70745F00656E640053656E86
:103CE00064204D31303820746F20726573756D65B6
:103CF0000A00496E736572742066696C616D656E49
:103D00007420616E642073656E64204D3130380A12
:103D1000005265686561742066696E6973686564E0
:103D20002E0052656865617420446F6E65005265AF
:103D300068656174696E672E2E2E00526568656134
:103D400074004865617465722054696D656F75749F
:103D50000053656E64204D31303820746F206865E3
:103D60006174206E6F7A7A6C650A004E6F7A7A6C95
:103D700065205061726B656400486F74656E6420E5
:103D8000746F6F20636F6C640A0070617573656493
:103D90000050617573650044697361626C655275AA
:103DA0006E6F75740050757267654D6F7265005067
:103DB00061757365640073686F7700627574746F02
:103DC0006E00626567696E004C6F61642046696CC5
:103DD000616D656E74004C6F61642046696C616D45
:103DE000656E74205400496E736572742066696C48
:103DF000616D656E7420616E642073656E64204D24
:103E00003130380A00726573756D656400526573F0
:103E1000756D696E670057616974696E6720666FBA
:103E200072206865617475702E0A004C6561766950
:103E30006E6720473236003F537065636966696577
:103E40006420582C5920636F6F7264696E617465C9
:103E5000206F7574206F6620626F756E64732E0A12
:103E6000003F28522965706561742076616C756524
:103E7000206E6F7420706C61757369626C653B2095
:103E80006D757374206265206174206C6561737454
:103E900020312E0A003F2852296570656174206D1B
:103EA0007573742062652073706563696669656403
:103EB000207768656E206E6F74207573696E672059
:103EC000616E204C43442E0A003F5370656369665F
:103ED000696564206E6F7A7A6C652074656D7065B3
:103EE000726174757265206E6F7420706C61757389
:103EF00069626C652E0A003F537065636966696587
:103F0000642066696C616D656E742073697A6520E2
:103F10006E6F7420706C61757369626C652E0A0037
:103F20003F537065636966696564207072696D6589
:103F3000206C656E677468206E6F7420706C61759C
:103F40007369626C652E0A003F5072696D65206C62
:103F5000656E677468206D75737420626520737078
:103F600065636966696564207768656E206E6F7445
:103F7000207573696E6720616E204C43442E0A00E1
:103F80003F537065636966696564206E6F7A7A6C09
:103F9000652073697A65206E6F7420706C6175732B
:103FA00069626C652E0A003F5265747261637469C0
:103FB0006F6E204D756C7469706C696572206D75DB
:103FC0007374206265207370656369666965642E29
:103FD0000A003F53706563696669656420526574C1
:103FE00072616374696F6E204D756C7469706C6971
:103FF0006572206E6F7420706C61757369626C6598
:104000002E0A003F537065636966696564206C61C0
:1040100079657220686569676874206E6F742070B6
:104020006C61757369626C652E0A0043292E0A0063
:104030003F537065636966696564206265642074D6
:10404000656D7065726174757265206E6F74207035
:104050006C61757369626C65202834302D004732BD
:1040600036207374617274696E672E2E2E0A004FAB
:1040700046460A00466164652048656967687420A1
:1040800000426564204C6576656C696E6720004669
:1040900061696C656420746F20656E61626C652077
:1040A000426564204C6576656C696E670A00496EEE
:1040B00076616C6964206D6573682E0A0076616CA8
:1040C00069640A53746F7261676520736C6F743A28
:1040D0002000696E004D65736820697320003F55AC
:1040E0007365203020746F20003F496E76616C69E3
:1040F000642073746F7261676520736C6F742E0A2D
:10410000003F454550524F4D2073746F7261676593
:10411000206E6F7420617661696C61626C652E0A35
:10412000004D65736820706F696E74206F75742020
:104130006F662072616E67650A004D343231206906
:104140006E636F727265637420706172616D657405
:1041500065722075736167650A00446576696174EC
:10416000696F6E0025533A2025730046696E6973A6
:10417000686564210A003A207A3A2000206F6620A0
:1041800000476F696E6720746F3A20580043570AE2
:1041900000206469723A0020616E676C653A0053D2
:1041A00074617274207261646975733A004D3438B9
:1041B00020506F696E740025533A2025642F2564C2
:1041C00000506F736974696F6E696E6720746865FB
:1041D0002070726F62652E2E2E0A003F4C65677349
:1041E000206F66206D6F76656D656E7420696D70E9
:1041F0006C61757369626C652028302D3135292E0C
:104200000A003F2028582C5929206F7574206F66AA
:1042100020626F756E64732E0A0050726F626520A3
:104220006F7574206F6620626F756E6473003F5304
:10423000616D706C652073697A65206E6F74207093
:104240006C61757369626C652028342D3530292EB8
:104250000A004D3438205A2D50726F626520526525
:10426000706561746162696C6974792054657374F6
:104270000A003F2856296572626F7365206C657667
:10428000656C20696D706C61757369626C6520285E
:10429000302D34292E0A005374616E6461726420DB
:1042A000446576696174696F6E3A20002052616ED0
:1042B00067653A2000204D61783A2000204D696EF4
:1042C0003A2000205369676D613A20004D65616EA8
:1042D0003A20005741524E494E4721204C6F7720DB
:1042E0005A204A65726B206D6179206C656164208B
:1042F000746F20756E77616E74656420706175737C
:1043000065732E0A004F4646004F4E0020204D6137
:10431000783A2000200020204D696E3A2000536F2B
:10432000667420656E6473746F70733A20003D3D4F
:104330004F6E506F7765724C6F7373526573756D06
:10434000653D3D004D32342053256C642054256C6E
:1043500064004739322E3920452573004731204605
:104360002564004739322E39205A25730047312001
:104370005A302046323030004731205825732059BA
:104380002573204633303030004D343230205325F1
:1043900069205A2573004D3130362050256920534D
:1043A0002569004D323030204425730047323852A1
:1043B000305859004739322E39204530205A300ABA
:1043C00047315A2573004D31303920532569004D4E
:1043D00031393020532569004D343230205330209C
:1043E0005A30000A20696E6974207A70726F6265B3
:1043F0005F7A6F6666736574203D20003D3D6F6E89
:10440000436F6E66696775726174696F6E53746F1E
:104410007265526561643D3D00454550524F4D20E7
:10442000496E697469616C697A65640A003F556E0A
:1044300061626C6520746F2073617665206D6573B1
:104440006820646174612E0A003F556E61626C657C
:1044500020746F206C6F6164206D657368206461E7
:1044600074612E0A00556E69666965642042656450
:10447000204C6576656C696E67003B20003A0A0047
:1044800020204D363033200020440020204D343190
:104490003220530046696C616D656E742072756ED2
:1044A0006F75742073656E736F723A002055004CFF
:1044B0000046696C616D656E74206C6F61642F7568
:1044C0006E6C6F6164206C656E677468733A00206F
:1044D000204D393030204B004C696E6561722041AF
:1044E0006476616E63653A0020204D38353120587E
:1044F000005A2D50726F6265204F666673657400B6
:1045000020204D343133205300506F7765722D4C8D
:104510006F7373205265636F766572793A00204439
:104520000020490020204D3330342050002044002A
:1045300020490020204D3330312050005049442084
:1045400073657474696E67733A00206D657368658E
:10455000732E0A0A00454550524F4D2063616E206C
:10456000686F6C642000416374697665204D6573E3
:104570006820536C6F743A200020204D3432302074
:10458000530020204D323036205800486F6D652092
:104590006F66667365743A0020580020530020202F
:1045A0004D323035204200416476616E6365643A75
:1045B00020423C6D696E5F7365676D656E745F74F4
:1045C000696D655F75733E20533C6D696E5F66650E
:1045D0006564726174653E20543C6D696E5F7472EF
:1045E0006176656C5F66656564726174653E2058CE
:1045F0003C6D61785F785F6A65726B3E20593C6DF7
:1046000061785F795F6A65726B3E205A3C6D6178B4
:104610005F7A5F6A65726B3E20453C6D61785F65CD
:104620005F6A65726B3E0020540020520020204DCE
:10463000323034205000416363656C657261746987
:104640006F6E2028756E6974732F7332293A20506B
:104650003C7072696E745F616363656C3E20523CAE
:10466000726574726163745F616363656C3E20544C
:104670003C74726176656C5F616363656C3E0020BB
:10468000204D3230312058004D6178696D756D20B4
:10469000416363656C65726174696F6E2028756E25
:1046A0006974732F7332293A0020204D3230332041
:1046B00058004D6178696D756D206665656472613D
:1046C0007465732028756E6974732F73293A0053CB
:1046D000746570732070657220756E69743A00207D
:1046E000440020204D323030205300204469736153
:1046F000626C65640A0046696C616D656E74207356
:10470000657474696E67733A0020286D6D29002006
:1047100020473231202020203B20556E69747320C1
:10472000696E206D6D003F4D65736820746F6F205A
:1047300062696720666F7220454550524F4D2E0AC0
:10474000003D3D6F6E4C6F616453657474696E67B4
:10475000733D3D0000803B4400803B44000020410D
:10476000000096420000A0420000A0420000484421
:104770000000BE42D0070000D00700006400000027
:104780004B00000024F4D43050C38E20C2A2401746
:10479000828B7011127A910D816CD90AA861E1089F
:1047A000C7586607615143061E4B5D05C145A70406
:1047B0001A411104093D9803713931034036DB0277
:1047C00065339102D4305402802E1D02632CEE0119
:1047D000752AC501B028A001102781018F25640129
:1047E0002B244B01E0223401AC211F018D200D014F
:1047F000801FFC00841EED00971DDF00B81CD20056
:10480000E61BC600201BBC00641AB200B219A80047
:104810000A19A0006A189900D117910040178B005F
:10482000B516840031167E00B31579003A15730071
:10483000C7146F0058146A00EE13660088136300F3
:1048400025135E00C7125B006C125700151254004E
:10485000C111510070114F0021114B00D6104900B9
:104860008D1047004610440002104200C00F400067
:10487000800F3E00420F3C00060F3B00CB0E38007D
:10488000930E37005C0E3500270E3400F30D320016
:10489000C10D3100900D3000600D2E00320D2D0045
:1048A000050D2C00D90C2B00AE0C2900850C29001D
:1048B0005C0C2700350C27000E0C2600E80B2400AA
:1048C000C40B2400A00B23007D0B23005A0B2100F6
:1048D000390B2100180B2000F80A1F00D90A1E000E
:1048E000BB0A1E009D0A1D00800A1D00630A1C00F1
:1048F000470A1B002C0A1B00110A1A00F7091A00AC
:10490000DD091900C4091900AB0919009209170043
:104910007B091800630917004C09160036091600B8
:10492000200916000A091500F5081500E008140012
:10493000CC081400B8081400A40814009008130050
:104940007D0812006B081300580812004608120078
:104950003408110023081100120811000108110089
:10496000F0071000E0071000D0071000C00710008B
:10497000B0070F00A107100091070E0083070F007A
:1049800074070F0065070E0057070E0049070E0059
:104990003B070D002E070E0020070D0013070D002A
:1049A00006070D00F9060C00ED060D00E0060C00F0
:1049B000D4060C00C8060C00BC060C00B0060C00A7
:1049C000A4060B0099060C008D060B0082060B0056
:1049D00077060B006C060B0061060A0057060B00F9
:1049E0004C060A0042060A0038060A002E060A0093
:1049F00024060A001A060A001006090007060A0023
:104A0000FD050900F4050900EB050900E2050900B0
:104A1000D9050900D0050900C7050900BE05090030
:104A2000B5050800AD050800A50509009C050800AE
:104A3000940508008C050800840508007C05080022
:104A4000740508006C050700650508005D05070092
:104A5000560508004E0507004705070040050800F9
:104A600038050700310507002A0507002305070060
:104A70001C050600160507000F05070008050600BF
:104A800002050700FB040600F5040700EE0406001B
:104A9000E8040600E2040700DB040600D504060073
:104AA000CF040600C9040600C3040600BD040600C6
:104AB000B7040600B1040500AC040600A604060015
:104AC000A00405009B040600950405009004060060
:104AD0008A04050085040500800406007A040500A8
:104AE00075040500700405006B04050066040500EC
:104AF000610405005C04050057040500520405002C
:104B00004D04050048040500430405003E0404006C
:104B10003A04050035040500300404002C040500A7
:104B200027040400230405001E0404001A040400E2
:104B300016040500110404000D0404000904050016
:104B40000404040000040400FC030400F80304004F
:104B5000F4030400F0030400EC030400E803040081
:104B6000E4030400E0030400DC030400D8030400B1
:104B7000D4030400D0030400CC030400C8030300E2
:104B8000C503030024F404D9201BC40C5C0E980454
:104B9000C4095F0265077101F405F900FB04B30065
:104BA00048048700C103690058035500030345000A
:104BB000BE023A008402310053022A002902250075
:104BC00004022000E4011C00C8011900AF01170015
:104BD000980114008401130071011000610110009C
:104BE00051010E0043010D0036010B002B010B009B
:104BF00020010B00150109000C0109000301080048
:104C0000FB000800F3000800EB000700E4000600CA
:104C1000DE000600D8000600D2000600CC00050029
:104C2000C7000500C2000500BD000400B900040073
:104C3000B5000400B1000400AD000400A9000400A8
:104C4000A5000300A20003009F0004009B000300D6
:104C500098000300950002009300030090000300F9
:104C60008D0002008B000300880002008600020015
:104C700084000300810002007F0002007D0002002A
:104C80007B0002007900020077000100760002003C
:104C90007400020072000100710002006F00020047
:104CA0006D0001006C0002006A0001006900020052
:104CB0006700010066000100650001006400020059
:104CC0006200010061000100600001005F0002005D
:104CD0005D0001005C0001005B0001005A00010062
:104CE0005900010058000100570001005600010062
:104CF0005500010054000100530000005300010062
:104D00005200010051000100500001004F0001005D
:104D10004E0000004E0001004D0001004C0001005B
:104D20004B0000004B0001004A0001004900010057
:104D30004800000048000100470001004600000054
:104D4000460001004500000045000100440001004C
:104D50004300000043000100420000004200010047
:104D60004100000041000100400001003F00000040
:104D70003F0001003E0000003E0001003D00000039
:104D80003D0001003C0000003C0000003C00010030
:104D90003B0000003B0001003A0000003A00010027
:104DA0003900000039000100380000003800000020
:104DB0003800010037000000370001003600000015
:104DC000360000003600010035000000350000000C
:104DD0003500010034000000340000003400010000
:104DE00033000000330000003300010032000000F7
:104DF00032000000320001003100000031000000EC
:104E000031000100300000003000000030000100DF
:104E10002F0000002F0000002F0000002F000100D5
:104E20002E0000002E0000002E0001002D000000CA
:104E30002D0000002D0000002D0001002C000000BE
:104E40002C0000002C0000002C0001002B000000B2
:104E50002B0000002B0000002B0001002A000000A6
:104E60002A0000002A0000002A000100290000009A
:104E7000290000002900000029000000290001008D
:104E80002800000028000000280000002800000082
:104E90002800010027000000270000002700000074
:104EA0002700000027000100260000002600000067
:104EB000260000002600000026000100250000005A
:104EC000250000002500000025000000250000004E
:104ED0002500010024000000240000002400000040
:104EE0002400000024000100230000002300000033
:104EF0002300000023000000230000002300000026
:104F00002300010022000000220000002200000017
:104F10002200000022000000220001002100000009
:104F200021000000210000002100000021000000FD
:104F300021000000210001002000000020000000EE
:104F400020000000200000002000000020000000E1
:104F500020000000200001001F0000001F000000D2
:104F60001F0000001F0000001F0000001F000000C5
:104F70001F0001001E0000001E0000001E000000B7
:104F80001E000000232C0000B8220000561800006C
:104F90003A0F0000B8080000B104000071020000E0
:104FA0003E01000020436F756E7420583A00236460
:104FB0006566696E652044454641554C545F000066
:104FC000626564004B6420004B6920004B70200038
:104FD000504944204175746F74756E652066696E22
:104FE0006973686564212050757420746865206C4D
:104FF000617374204B702C204B6920616E64204BD0
:105000006420636F6E7374616E74732066726F6D6B
:105010002062656C6F7720696E746F20436F6E66D7
:10502000696775726174696F6E2E680A0050494431
:10503000204175746F74756E65206661696C656476
:10504000212074696D656F75740A005049442041D0
:1050500075746F74756E65206661696C6564212076
:1050600054656D706572617475726520746F6F2020
:10507000686967680A00204B643A2000204B693A4F
:105080002000204B703A200020436C6173736963E9
:1050900020504944200A00204E6F206F76657273BD
:1050A000686F6F740A002054753A2000204B753ADF
:1050B0002000206D61783A2000206D696E3A200052
:1050C00020643A200020626961733A20005049440C
:1050D000204175746F74756E652073746172740A03
:1050E00000504944204175746F74756E6520666187
:1050F000696C6564212054656D70657261747572A8
:105100006520746F6F20686967680A0042656400F3
:10511000453100626564002C2073797374656D20DD
:1051200073746F7070656421204865617465725F87
:1051300049443A200048656174696E672046616998
:105140006C65640048656174696E67206661696CAE
:105150006564004D3131322053687574646F776E29
:10516000001000C90210012C014001220170011839
:1051700001B0010E01F00104015002FA00B002F08A
:10518000003003E600D003DC009004D2007005C8B4
:1051900000A006BE000008B400B009AA00D00BA011
:1051A00000600E960060118C0000158200201978B6
:1051B00000C01D6E00A0226400B0275A00902C5041
:1051C0000000314600E0343C0010383200903A28AC
:1051D00000603C1E00A03D1400803E0A00203F00FD
:1051E00000544845524D414C2052554E415741596B
:1051F00000546865726D616C2052756E61776179DB
:10520000004572723A204D415854454D50004D4171
:105210005854454D50207472696767657265640023
:105220004572723A204D494E54454D50004D494EFD
:1052300054454D502074726967676572656400203B
:105240002F002042403A0020403A0020573A0020E8
:10525000573A00496E76616C69642065787472759E
:105260006465720A007C3C3E5E2B3D3F2F5B5D3BDC
:105270002C2A225C0043616E6E6F74206F70656E25
:10528000207375626469722000534420496E69740A
:10529000204661696C0053442063617264206F6B27
:1052A0000A006F70656E526F6F74206661696C657D
:1052B000640A00766F6C756D652E696E6974206680
:1052C00061696C65640A004E6F205344206361720B
:1052D000640A000A4D3234004D3233202573002E0B
:1052E0000A006F70656E206661696C65642C2046EB
:1052F000696C653A200046696C652073656C65636E
:105300007465640A002053697A653A200046696C26
:1053100065206F70656E65643A2000454E442053E9
:105320005542524F5554494E450A002220706F7322
:10533000002220706172656E743A22005355425209
:105340004F5554494E452043414C4C20746172677F
:1053500065743A220053756263616C6C204F766508
:1053600072666C6F77004578636565646564206D6F
:10537000617820535542524F5554494E452064653B
:105380007074683A002E0A0044656C6574696F6E2B
:10539000206661696C65642C2046696C653A200062
:1053A00046696C652064656C657465643A005344B5
:1053B000207072696E74696E67206279746520006E
:1053C0004E6F74205344207072696E74696E670A60
:1053D0000057726974696E6720746F2066696C6526
:1053E0003A2000667265736800646F696E6700201A
:1053F00066696C653A20004E6F7720002F617574E6
:105400006F25632E67002020506C616E6E657242BE
:10541000756666657242797465733A20002046723B
:105420006565204D656D6F72793A2000436F6D7030
:10543000696C65643A20417072203330203230321A
:10544000310A00204C617374205570646174656486
:105450003A20323032312D30342D3138207C204109
:105460007574686F723A2054696E794D616368692A
:105470006E657333440A00322E302E375F4457373F
:105480002E332E310A004D61726C696E0020536F0D
:105490006674776172652052657365740A002057DF
:1054A00061746368646F672052657365740A0020D5
:1054B00042726F776E206F75742052657365740A3F
:1054C000002045787465726E616C20526573657456
:1054D0000A00506F77657255700A007374617274B8
:1054E0000A004739310A47315A350A4739300A4DDF
:1054F00038340A4D31303453300A4D313430533062
:10550000004D31303031006572726F7220777269F0
:1055100074696E6720746F2066696C650A00446F59
:105520006E6520736176696E672066696C652E0A08
:10553000004D323900456E6473746F7073002553EB
:1055400020256320256320256320256300205A3A07
:105550000020593A0020583A00656E6473746F70E9
:1055600073206869743A20006001F4017001EA0157
:105570009001E001B001D601D001CC010002C201CE
:105580003002B8016002AE019002A401D0029A017B
:105590002003900170038601C0037C013004720176
:1055A000A004680120055E01B005540160064A01AF
:1055B00020074001F0073601F0082C01100A2201F3
:1055C000500B1801C00C0E01500E04013010FA00EF
:1055D0002012F0005014E600C016DC007019D20052
:1055E000501CC800501FBE007022B400B025AA0095
:1055F000F028A000202C9600302F8C001032820062
:10560000A0347800F0366E00E0386400803A5A002A
:10561000403B5500E03B5000F03C4600C03D3C00A4
:10562000603E3200E03E2800303F1E00503F19002F
:10563000703F1400A03F0A00C03F0000D03FF6FFBB
:10564000E03FECFF00000A0B02090C0D0E080703F7
:105650000401000000000000000000000000000045
:10566000000000000000000000000000000000003A
:1056700012111000000000000000000000000000F7
:10568000000000000000000000003D3D6F6E5573FB
:105690006572436F6E6669726D5265717569726588
:1056A000643D3D00220A00556E6B6E6F776E20637D
:1056B0006F6D6D616E643A20220020420020500020
:1056C0006F6B00204500205A00205900204D3932D0
:1056D00020580020453A00205A3A0020593A0058F4
:1056E0003A0020746F6F206C6F6E6720657874725B
:1056F0007573696F6E2070726576656E7465640A85
:105700000020636F6C6420657874727573696F6EC6
:105710002070726576656E7465640A0043616E6E12
:105720006F7420656E746572207375626469723A75
:1057300020004D323520500A4D32340052657375C9
:105740006D65005549205061757365004E6F204DA1
:1057500061746368203A004D32320A4D3231005292
:105760006566726573680050675570005067446FD6
:10577000776E0049732046696C65200049732044A8
:1057800069722000476F5570446972004861732048
:105790004D656469610046696C656E616D65205395
:1057A000656C6563746564004D3130303043004D85
:1057B000313030300046696C616D656E7420537411
:1057C00061742030202D20330046696C616D656E58
:1057D0007420537461742030202D20320046696C8F
:1057E000616D656E7420537461742030202D2031FA
:1057F000002046696C616D656E7420526573706F30
:105800006E7365204E6F00526573756D6520596526
:105810007320647572696E67207072696E74000A15
:10582000204E6F2046696C616D656E7400496E761E
:10583000616C6964204F7074696F6E004D35303053
:105840000053746F72652053657474696E677300DA
:105850004265642050494420537461727465640049
:105860004D3939390A4D32383050305331363000E5
:10587000424C546F756368205265736574004D35F2
:1058800030320A4D35303000496E6974204545503C
:10589000524F4D00486F74656E6420504944205348
:1058A00074617274656400456E676C697368204149
:1058B0006C726561647920536574004368696E6534
:1058C0007365204E6F7420537570706F72746564C9
:1058D00000496E4C616E6743686F696365000A201A
:1058E0002A2A2A7265636461742E646174615B3074
:1058F0005D203D004732380A473120463130303094
:10590000205A313000556E737570706F7274656413
:10591000204F7074696F6E2053656C6563746564A5
:105920000047323652323535004D31393053353536
:105930000A4732380A47323950310A473239503330
:105940000A47323953310A47323953300A4732391C
:1059500046302E300A473239410A4D313034533205
:1059600031350A4732380A4D313039533231350A30
:105970004731583135305931353046353030300ABD
:1059800047315A300A4D3530300A4D3430300A4DE7
:1059900031313720536574205A204F666673657421
:1059A000004731204631303030205A302E30004709
:1059B00032380A4731204631303030205A302E30CC
:1059C000004D353030005A204F6666736574203ABA
:1059D000202573004D353030005A204F66667365C0
:1059E00074203A202573004732380A473146313552
:1059F00030305A302E30004732385A0A473146315B
:105A00003530305A302E30004D3834004731463171
:105A10003030305A302E30004732380A4731463164
:105A20003030305A302E30004D616E75616C5365E8
:105A30007454656D7000526571756573746564208A
:105A40004F6666736574204265796F6E64204C6999
:105A50006D697473005A204F6666736574203A202E
:105A6000257300526F756E64696E6720746F2073C2
:105A700074657000526571756573746564204F6656
:105A800066736574200053746F7020547269676781
:105A9000657265640053746F70204E6F0053746FAD
:105AA000705072696E740048616E646C6520446168
:105AB00074612041646A7573742032205365747474
:105AC000696E672053637265656E200048616E647D
:105AD0006C652044617461205072696E7446696C13
