:100000000C94F71E0C94281F0C94281F0C94281F86
:100010000C94281F0C94281F0C94281F0C94281F44
:100020000C94281F0C94281F0C94281F0C94281F34
:100030000C94281F0D9486220C94281F0C94281FC2
:100040000C94281F0C9409B90C94281F0C94281F99
:100050000C94281F0C94281F0C94CAB50D943C22B4
:100060000C94281F0C940F790C9405790C94281F7C
:100070000C94281F0C94281F0C94281F0C94281FE4
:100080000C94281F0C94281F0C94281F0C94281FD4
:100090000C94281F0C94281F0C94281F0C94281FC4
:1000A0000C94281F0C94281F0C94281F0C94281FB4
:1000B0000C94281F0C94281F0C94281F0C94281FA4
:1000C0000C94281F0C94281F0C94281F0C94281F94
:1000D0000C94281F0C94281F0C94281F0C94281F84
:1000E0000C94281F084AD73B3BCE016E84BCBFFD51
:1000F000C12F3D6C74319ABD56833DDA3D00C77FF8
:1001000011BED9E4BB4C3E916BAAAABE0000008090
:100110003F05A84CCDB2D44EB93836A9020C50B91F
:10012000918688083CA6AAAA2ABE000000803F004B
:100130000C9444410C9405390C942A220C94D42438
:100140000C9448210C94FF380C9413220C94C0ADED
:100150000C9408AA0C94F7360C94C23C0D94631BC3
:100160000C9435210C94C54A0C948D360C9406AA37
:100170000D94121B0C9413210C94F72B0C94253125
:100180000D941F1C0C947A2C0C94E1200C94742A6E
:100190000C94052C0C947F5C0D940A000C942BA8F5
:1001A0000C9488A20C94C5260C9482AB0C9469AB79
:1001B0000C9403E40C943B390C94FC210C94022C19
:1001C0000C94BD260C9406A20C94B4AB0C94ABA773
:1001D0000C94B6AD0C94C1210D94331B0C94431FA9
:1001E0000D94891C0D947B350D94931C0D9428352A
:1001F0000C944E320D944A1C0C94BBAD0C94A23757
:100200000C942A1F0D945C1C0C940E2C0C94D35A45
:100210000C94E9AD0C9471360C9433A70D94591BD2
:100220000C9485360C94C3260C94D0FF0C945C3B44
:100230000C94BBAC0C947B550C94B3EE0C94192528
:100240000C94E6320C945B220C94982C0C94A179BB
:100250000C94FEE30C9426480D94471B0C94D63660
:100260000D9435230C94D0210C94142C0C9408E498
:100270000C941DB60C948E790D94391B0C94BE36DB
:100280000D94A71C0C942F530C948C5E0C94AD7998
:100290000C9458540C94CB3A0C94212C0C94B6AC7E
:1002A0000C949BAB0D949F1B0D940B130C9458EC6A
:1002B0000C94C1260C94FE390D940B000D94381C3F
:1002C0000C9408AE0C94E8A80D942C1B0C94C779E0
:1002D0000C9411250C94A9790C941CAB0C9497A642
:1002E0000C94A4360D94241B0C949F260D947F1C13
:1002F0000C948F210C94FDFF0C94511F0C94E3215E
:100300000C9404AB0C947C210C9416A70C942165DE
:100310000C94A5790C94BF260C94732B0C94B2A961
:100320000C94C2250C9489360C9450AB0D940D1B83
:100330000D945F1B0C94C9260D944B1B0C94D1F2A9
:100340000C94204A0C94C7260C946E3E0C941739DA
:100350000D94431B0C9447390C9458A60C942AA670
:100360000C94082C0C9435390C949D790D94993586
:100370000C94172C0D94421C0C94CAAD0D94701C57
:100380000C94BF790C9481360C9437540C944DA680
:100390000C945B650C9463210C9426660C94E92400
:1003A0000C940A430C941D390C941D250C9496262C
:1003B0000C94B4790C9406310C94D12B0C94113913
:1003C0000D94511B0C9458220C9404260C940B3958
:1003D0000C940B2C0C94C5300C94DBA30C94FA20D9
:1003E0000D943D1B0C9470790C94CCA70D94171CA4
:1003F0000C9475360C947F790C9473F00C94BE6455
:100400000C94C5AD0C94D0F10C940DFE0C94ECE45E
:100410000C94242C0C9441220C94112C0C947D36B9
:100420000C9422210D94281B0D949D1C0D942E1CC0
:100430000C94DD240C9495790D94241C0C94C333F6
:100440000C946D360D94B11C0C9415250C94A821B8
:100450000C94AF310C9429250C942D250C94BBA839
:100460000C9423390C9413260C94B9E10C9447791D
:100470000C9469360C9410A80C9429390D94551BD2
:100480000C94AE260C944F260C9499790C946536F6
:100490000C941C2C0D94301B0C942F390C94802A36
:1004A0000C944E550C94BFAB0D94661C0C94CB264B
:1004B0000C945BAE0C945C370C9441390C9414ABE7
:1004C0000D94521C0C941E440C941E2C0D94B21BC3
:1004D0000C94A9A80C9424530C947D2C0C9479367C
:1004E0004E414E494E495459494E46CDCCCC3D0A19
:1004F000D7233C17B7D13877CC2B329595E6241FFC
:10050000B14F0A000020410000C84200401C4620B4
:10051000BCBE4CCA1B0E5AAEC59D7400407A10F387
:100520005A00A0724E18090010A5D4E80000E87621
:1005300048170000E40B54020000CA9A3B00000078
:10054000E1F505000080969800000040420F000091
:1005500000A08601000000102700000000E8030052
:100560000000006400000000000A0000000000011C
:1005700000000000002C76D888DC674F0823DFC11C
:10058000DFAE59E1B1B796E5E3E453C63AE65199D7
:100590007696E8E6C28426EB898C9B62ED407C6F00
:1005A000FCEFBC9C9F40F2BAA56FA5F490055A2AB7
:1005B000F75C936B6CF9676DC11BFCE0E40D47FEC3
:1005C000F520E6B500D0ED902E03009435770500B8
:1005D00080841E080000204E0A000000C80C33333F
:1005E00033330F986E12831141EF8D2114893BE64E
:1005F0005516CFFEE6DB18D1844B381BF77C1D90D7
:100600001DA4BBE424203284725E228100C9F1243F
:10061000ECA1E53D27434F4D4D554E4943415449CB
:100620004F4E0044525952554E004552524F52536C
:1006300000494E464F004543484F00554E4C4F41F0
:10064000442046494C414D454E54004C4F414420B6
:1006500046494C414D454E540046494C414D454E4E
:1006600054204348414E4745004572726F722077CF
:10067000726974696E6720746F20454550524F4D02
:10068000210A0053544F505045442E2000507269A7
:100690006E7465722073746F707065642064756524
:1006A00020746F206572726F72732E2046697820F5
:1006B000746865206572726F7220616E6420757354
:1006C00065204D39393920746F20726573746172F9
:1006D000742E202854656D70657261747572652082
:1006E00069732072657365742E2053657420697474
:1006F0002061667465722072657374617274696ECC
:1007000067290A004E6F20436865636B73756D201F
:1007100077697468206C696E65206E756D626572AC
:100720002C204C617374204C696E653A20004E6F2A
:1007300020436865636B73756D2077697468206CFE
:10074000696E65206E756D6265722C204C617374E4
:10075000204C696E653A2000636865636B73756D44
:10076000206D69736D617463682C204C6173742013
:100770004C696E653A20004C696E65204E756D625D
:100780006572206973206E6F74204C617374204C05
:10079000696E65204E756D6265722B312C204C613F
:1007A0007374204C696E653A20004D31313000532E
:1007B000657269616C20737461747573206D6973FF
:1007C0006D617463680A00776169740A005344209C
:1007D00072656164206572726F720A00486F746599
:1007E0006E642049646C652054696D656F75740092
:1007F000486F74656E642049646C652054696D654A
:100800006F75740A002121204B494C4C206361759F
:10081000736564206279204B494C4C206275747476
:100820006F6E2F70696E0A002121204B494C4C20BD
:1008300063617573656420627920746F6F206D75D4
:10084000636820696E6163746976652074696D659B
:10085000202D2063757272656E7420636F6D6D61FB
:100860006E643A20004D656469612052656D6F7653
:100870006564004D6564696120496E7365727465D5
:1008800064004D313030305300627573793A207016
:10089000617573656420666F7220696E7075740A85
:1008A00000627573793A2070617573656420666FB4
:1008B0007220757365720A00627573793A207072DE
:1008C0006F63657373696E670A00506C6561736569
:1008D000205265736574005052494E544552204869
:1008E000414C5445440025533A20255300706F77FE
:1008F00065726F6666004B494C4C45442E20005093
:1009000072696E7465722068616C7465642E206B08
:10091000696C6C28292063616C6C6564210A006530
:1009200063686F3A004572726F723A000A4D6561F2
:10093000737572656420706F696E74733A0A00355E
:100940007835206D6573682E205A206F6666736552
:10095000743A20005072696E74696E67204F626A43
:10096000656374002553202569002F2F6163746926
:100970006F6E3A00737461727400656E6400486F44
:1009800074656E6420746F6F20636F6C640A00532B
:10099000656E64204D31303820746F207265737538
:1009A0006D650A00496E736572742066696C616DCD
:1009B000656E7420616E642073656E64204D313005
:1009C000380A0052656865617420446F6E65005294
:1009D0006568656174696E672E2E2E0052656865C4
:1009E0006174004865617465722054696D656F7546
:1009F000740053656E64204D31303820746F206868
:100A0000656174206E6F7A7A6C650A004E6F7A7A2F
:100A10006C65205061726B6564007061757365640C
:100A200000506175736500726573756D6564007063
:100A3000726F6D70745F0073686F770062757474A5
:100A40006F6E00626567696E0050757267654D6F05
:100A5000726500506175736564004C6F6164204677
:100A6000696C616D656E74205400496E73657274B3
:100A70002066696C616D656E7420616E64207365BB
:100A80006E64204D3130380A00526573756D696EA1
:100A900067004732362043616E63656C65640047CA
:100AA00032362048656174696E67204E6F7A7A6CC1
:100AB00065004732362048656174696E672042657B
:100AC000640057616974696E6720666F722068659B
:100AD000617475702E0A004669786564204C656EF5
:100AE000677468205072696D6500446F6E652050B0
:100AF00072696D696E67004D616E75616C20707210
:100B0000696D696E672E2E2E004C656176696E6781
:100B100020473236003F537065636966696564201B
:100B2000582C5920636F6F7264696E617465206F11
:100B30007574206F6620626F756E64732E0A003FB5
:100B400028522965706561742076616C7565206E28
:100B50006F7420706C61757369626C653B206D7594
:100B60007374206265206174206C65617374203138
:100B70002E0A003F537065636966696564206E6F75
:100B80007A7A6C652074656D7065726174757265D2
:100B9000206E6F7420706C61757369626C652E0ACB
:100BA000003F5370656369666965642066696C61BE
:100BB0006D656E742073697A65206E6F7420706C39
:100BC00061757369626C652E0A003F5370656369D5
:100BD00066696564207072696D65206C656E677406
:100BE00068206E6F7420706C61757369626C652E1D
:100BF0000A003F537065636966696564206E6F7AA9
:100C00007A6C652073697A65206E6F7420706C61F0
:100C1000757369626C652E0A003F52657472616378
:100C200074696F6E204D756C7469706C69657220A3
:100C30006D7573742062652073706563696669659C
:100C4000642E0A003F5370656369666965642052CB
:100C5000657472616374696F6E204D756C74697030
:100C60006C696572206E6F7420706C617573696257
:100C70006C652E0A003F5370656369666965642080
:100C80006C6179657220686569676874206E6F743D
:100C900020706C61757369626C652E0A0043292EA1
:100CA0000A003F5370656369666965642062656424
:100CB0002074656D7065726174757265206E6F74F5
:100CC00020706C61757369626C65202834302D006A
:100CD000473236207374617274696E672E2E2E0A45
:100CE000004F46460A0046616465204865696768AA
:100CF000742000426564204C6576656C696E6720DF
:100D0000004661696C656420746F20656E61626C79
:100D10006520426564204C6576656C696E670A00E3
:100D20004D65736820426564204C6576656C20646F
:100D30006174613A0A00496E76616C6964206D6580
:100D400073682E0A00206E6F7420656E746572657C
:100D5000642E0A0050726F62696E6720506F696E70
:100D6000740025532025692F256900206F66200017
:100D70004D424C2047323920706F696E7420002933
:100D80000A004A206F7574206F662072616E676575
:100D90002028302D00290A0049206F7574206F66C5
:100DA0002072616E67652028302D004732384C3044
:100DB000004D6573682070726F62696E6720646FA2
:100DC0006E65004D6573682070726F62696E672092
:100DD000646F6E652E0A005374617274206D6573C2
:100DE000682070726F62696E67207769746820226C
:100DF000473239205331222066697273742E0A00FB
:100E00004732395332004732384C300A473239536F
:100E10003200686173206E6F20646174612E0A0075
:100E20004D65736820426564204C6576656C696E1B
:100E300067200053206F7574206F662072616E67A3
:100E4000652028302D35292E0A004D6573682070E5
:100E50006F696E74206F7574206F662072616E67A3
:100E6000650A004D34323120696E636F72726563BA
:100E70007420706172616D6574657220757361674D
:100E8000650A004D32342053256C642054256C646F
:100E9000004739322E392045257300473120462539
:100EA00064004739322E39205A2573004731205AC1
:100EB00030204632303000473120582573205925E4
:100EC00073204633303030004D34323020532569A2
:100ED000205A2573004D3130362050256920532586
:100EE00069004D323030204425730047323852308B
:100EF0005859004739322E39204530205A300A4798
:100F0000315A2573004D31303920532569004D3158
:100F1000393020532569004D343230205330205A67
:100F2000300020496E76616C696420657874727552
:100F3000646572200047322F47332062616420705D
:100F40006172616D65746572730A00536C656570DA
:100F50002E2E2E004D65736820706F696E74206FA1
:100F60007574206F662072616E67650A004D3020CF
:100F700053746F70004D312053746F7000436F6E67
:100F800074696E756500436C69636B20746F2052E1
:100F90006573756D652E2E2E004E6F204D6F766534
:100FA0002E00456E642066696C65206C6973740A56
:100FB00000426567696E2066696C65206C697374B0
:100FC0000A004E6F206D656469610A005265737591
:100FD0006D696E6720534400286E6F2066696C65EA
:100FE000290043757272656E742066696C653A20DB
:100FF000005072696E742074696D653A20000A535E
:10100000746174733A2046696C616D656E74207505
:101010007365643A20002C204C6F6E6765737420F2
:101020006A6F623A2000546F74616C2074696D6558
:101030003A200053746174733A20002C2046616991
:101040006C65643A20002C2046696E69736865649B
:101050003A20005072696E74733A200053746174C0
:10106000733A2000436F6F6C696E672E2E2E004816
:10107000656174696E672E2E2E0045202553006F22
:101080006B006F666600360631062A0623061506D3
:1010900044454255473A004D3131332053004265B3
:1010A0006420436F6F6C696E672E2E2E004265645C
:1010B0002048656174696E672E2E2E00544D3344AE
:1010C00020456E64657234204F46462E002F2F0057
:1010D0004D31343520533C696E6465783E206F7520
:1010E00074206F662072616E67652028302D31296B
:1010F0000A00205200416363656C65726174696F18
:101100006E3A2050005741524E494E4721204C6FB5
:1011100077205A204A65726B206D6179206C656179
:101120006420746F20756E77616E746564207061E1
:10113000757365732E0A004D3230362058004F46C5
:1011400046004F4E0020204D61783A2000200020BC
:10115000204D696E3A2000536F667420656E64738B
:10116000746F70733A200046523A0020466C6F77D5
:101170003A20004D424C2041646A757374205A0035
:1011800020643A0020693A0020703A00496E766186
:101190006C69642065787472756465720A002064F5
:1011A0003A0020693A0020703A0064697300656E65
:1011B0000043290A0061626C656420286D696E2015
:1011C00074656D702000436F6C642065787472756F
:1011D0006465732061726520004F66667365747381
:1011E000204170706C696564004572723A20546FDA
:1011F0006F206661722100546F6F206661722066F5
:10120000726F6D207265666572656E636520706FC2
:10121000696E740A00454550524F4D204F4B0A00ED
:101220002E0A002028302D313029002076616C757F
:1012300065206F7574206F662072616E676500416E
:101240006476616E6365204B3D00506F7765722D4B
:101250006C6F7373207265636F7665727920004DD1
:10126000383400446F6E65207072696E74696E6701
:101270002066696C650A004D3737004D33310043F5
:1012800061703A004D4541545041434B00434F4F2C
:101290004C45525F54454D504552415455524500BE
:1012A0004348414D4245525F54454D50455241548B
:1012B00055524500424142595354455050494E47BA
:1012C0000041524353004D4F54494F4E5F4D4F44E0
:1012D000455300544845524D414C5F50524F544580
:1012E0004354494F4E004C4F4E475F46494C454E84
:1012F000414D45004155544F5245504F52545F5354
:10130000445F5354415455530053445F575249541A
:101310004500524550454154005344434152440016
:1013200050524F4D50545F535550504F52540045FA
:101330004D455247454E43595F5041525345520027
:10134000434153455F4C494748545F4252494748DF
:10135000544E45535300544F47474C455F4C494703
:1013600048545300534F4654574152455F504F57CE
:101370004552004255494C445F50455243454E54F6
:10138000004C4556454C494E475F44415441005A34
:101390005F50524F42450052554E4F5554004155F3
:1013A000544F4C4556454C005052494E545F4A4F9D
:1013B000420050524F4752455353004155544F52EB
:1013C00045504F52545F54454D5000564F4C554D6B
:1013D000455452494300454550524F4D0042494EF5
:1013E0004152595F46494C455F5452414E53464520
:1013F000520053455249414C5F584F4E5F584F463B
:1014000046004649524D574152455F4E414D453A7F
:101410004D61726C696E20322E302E375F44573723
:101420002E332E3120544D3344204534534D444EF9
:101430004E20284170722032392032303231203132
:10144000333A35373A34302920534F555243455FAC
:10145000434F44455F55524C3A68747470733A2F49
:101460002F6769746875622E636F6D2F496E7361A3
:101470006E6974794175746F6D6174696F6E2F4D0B
:1014800061726C696E2F747265652F437265616C51
:101490006974794477696E5F322E302050524F5410
:1014A0004F434F4C5F56455253494F4E3A312E30C1
:1014B000204D414348494E455F545950453A544D9B
:1014C000334420456E646572342045585452554467
:1014D00045525F434F554E543A3120555549443A91
:1014E00063656465326132662D343161322D343783
:1014F00034382D396231322D6335356336326633F7
:10150000363766660A0043616E6E6F74206F7065D1
:101510006E20737562646972200025697300256905
:101520006D20256973002569682025696D2025696E
:101530007300256964202569682025696D20256967
:10154000730025697920256964202569682025694B
:101550006D202569730023646566696E65204445C6
:101560004641554C545F00626564004B6420004B5B
:101570006920004B702000504944204175746F74FD
:10158000756E652066696E697368656421205075A3
:101590007420746865206C617374204B702C204B30
:1015A0006920616E64204B6420636F6E7374616E9A
:1015B00074732066726F6D2062656C6F7720696E40
:1015C000746F20436F6E66696775726174696F6EC0
:1015D0002E680A00504944204175746F74756E6519
:1015E000206661696C6564212074696D656F75742E
:1015F0000A00504944204175746F74756E65206609
:1016000061696C6564212054656D706572617475E3
:10161000726520746F6F20686967680A00204B64E8
:101620003A2000204B693A2000204B703A200020DD
:10163000436C617373696320504944200A00204E53
:101640006F206F76657273686F6F740A002054752F
:101650003A2000204B753A2000206D61783A200036
:10166000206D696E3A200020643A20002062696192
:10167000733A2000504944204175746F74756E654B
:101680002073746172740A00504944204175746F6C
:1016900074756E65206661696C6564212054656DA2
:1016A000706572617475726520746F6F2068696708
:1016B000680A00504944204175746F74756E650066
:1016C000504944204175746F74756E652066616978
:1016D0006C656421204261642068656174657220D4
:1016E00069640A00A10000006900A2000000630014
:1016F000B00000000900C10000004100C20000006D
:101700004100C30000004100C40000004100C500CA
:1017100000004100C60000004145C7000000430032
:10172000C80000004500C90000004500CD000000D1
:101730004900D10000004E00D50000004F00D60047
:1017400000004F00D70000007800DC0000005500CA
:10175000DD0000005900E00000006100E100000031
:101760006100E20000006100E30000006100E400AD
:1017700000006100E50000006100E6000000616516
:10178000E70000006300E80000006500E9000000D9
:101790006500EA0000006500EB0000006500EC0059
:1017A00000006900ED0000006900EE000000690023
:1017B000EF0000006900F10000006E00F200000080
:1017C0006F00F30000006F00F40000006F00F500F0
:1017D00000006F00F60000006F00F80000006F00CE
:1017E000F90000007500FA0000007500FB00000021
:1017F0007500FC0000007500FD0000007900FF008E
:1018000000007900040100004100050100006100B2
:101810000601000043000701000063000C01000006
:1018200043000D01000063000E01000044000F01A1
:10183000000064001101000064001901000065004F
:101840001A01000045001B01000065001F01000097
:1018500067003001000049003101000069004101CA
:1018600000004C00420100006C00430100004E00EB
:10187000440100006E00480100006E0058010000A5
:1018800052005901000072005A01000053005B0130
:10189000000073005F01000073006001000053004E
:1018A0006101000073006501000074006F01000019
:1018B00075007C0100007A007D0100005A007E0165
:1018C00000007A00920100006600E3020000780048
:1018D000222000002E001E2100005078222100004E
:1018E000544D902100003C2D922100002D3EB0214E
:1018F00000000300BB21000004003C2200007E0029
:10190000482200007E3D60220000213D612200004F
:101910003D00642200003C3D652200003E3DF12375
:1019200000000700A03000003D0021F3010002008C
:10193000C2F401000500A2000000EC00B0000000AD
:10194000DF00E4000000E100F6000000EF00F70017
:101950000000FD00FC000000F500E3020000EB00C9
:1019600087030000A5008F030000F4009803000027
:10197000F2009E030000E300A3030000F600A903A9
:101980000000F400AC030000E000AD030000E30041
:10199000B1030000E000B2030000E200B503000064
:1019A000E300B8030000F200BC030000E400BE0343
:1019B0000000E300C0030000F700C1030000E600E0
:1019C000C3030000E500902100007F009221000089
:1019D0007E001A220000E8001E220000F300882585
:1019E0000000FF0002300000A1000C300000A20047
:1019F0000D300000A3009B300000DE009C30000092
:101A0000DF00A03000003D00A1300000A700A230A0
:101A10000000B100A3300000A800A4300000B20014
:101A2000A5300000A900A6300000B300A7300000D8
:101A3000AA00A8300000B400A9300000AB00AA3012
:101A40000000B500AB300000B600AC300000B6DEE0
:101A5000AD300000B700AE300000B7DEAF300000A0
:101A6000B800B0300000B8DEB1300000B900B230CC
:101A70000000B9DEB3300000BA00B4300000BADEB6
:101A8000B5300000BB00B6300000BBDEB730000050
:101A9000BC00B8300000BCDEB9300000BD00BA3078
:101AA0000000BDDEBB300000BE00BC300000BEDE6A
:101AB000BD300000BF00BE300000BFDEBF30000000
:101AC000C000C0300000C0DEC1300000C100C23024
:101AD0000000C1DEC3300000AF00C4300000C2000F
:101AE000C5300000C2DEC6300000C300C7300000B1
:101AF000C3DEC8300000C400C9300000C4DECA30F4
:101B00000000C500CB300000C600CC300000C7008C
:101B1000CD300000C800CE300000C900CF3000003A
:101B2000CA00D0300000CADED1300000CADFD23097
:101B30000000CB00D3300000CBDED4300000CBDF80
:101B4000D5300000CC00D6300000CCDED73000000D
:101B5000CCDFD8300000CD00D9300000CDDEDA3047
:101B60000000CDDFDB300000CE00DC300000CEDE38
:101B7000DD300000CEDFDE300000CF00DF300000BF
:101B8000D000E0300000D100E1300000D200E230AF
:101B90000000D300E3300000AC00E4300000D400CB
:101BA000E5300000AD00E6300000D500E730000071
:101BB000AE00E8300000D600E9300000D700EA307F
:101BC0000000D800EB300000D900EC300000DA0053
:101BD000ED300000DB00EF300000DC00F2300000F0
:101BE000A600F3300000DD00F4300000B3DEF73073
:101BF0000000DCDEFA300000A6DEFB300000A500AD
:101C0000FC300000B000FD300000A400074E0000D2
:101C1000FB0086510000FC0043530000FA0064FF03
:101C20000000A40065FF0000A50066FF0000A600FC
:101C300067FF0000A70068FF0000A80069FF000020
:101C4000A9006AFF0000AA006BFF0000AB006CFF58
:101C50000000AC006DFF0000AD006EFF0000AE00A4
:101C60006FFF0000AF0070FF0000B00071FF0000C8
:101C7000B10072FF0000B20073FF0000B30074FFF8
:101C80000000B40075FF0000B50076FF0000B6004C
:101C900077FF0000B70078FF0000B80079FF000070
:101CA000B9007AFF0000BA007BFF0000BB007CFF98
:101CB0000000BC007DFF0000BD007EFF0000BE00F4
:101CC0007FFF0000BF0080FF0000C00081FF000018
:101CD000C10082FF0000C20083FF0000C30084FF38
:101CE0000000C40085FF0000C50086FF0000C6009C
:101CF00087FF0000C70088FF0000C80089FF0000C0
:101D0000C9008AFF0000CA008BFF0000CB008CFFD7
:101D10000000CC008DFF0000CD008EFF0000CE0043
:101D20008FFF0000CF0090FF0000D00091FF000067
:101D3000D10092FF0000D20093FF0000D30094FF77
:101D40000000D40095FF0000D50096FF0000D600EB
:101D500097FF0000D70098FF0000D80099FF00000F
:101D6000D9009AFF0000DA009BFF0000DB009CFF17
:101D70000000DC009DFF0000DD009EFF0000DE0093
:101D80009FFF0000DF00E5FF00005C00001C1F114A
:101D9000111F00000006191803130C00040E1F0485
:101DA0001C0000000010101010101000001414147B
:101DB000141414000015151515151500000E131533
:101DC000110E00001C10181705060500040A0A0A67
:101DD0000A11110E0C12120C00000000001F151148
:101DE000151F000042656400456E636C6F73757269
:101DF00065002568753A25303268750025303268EF
:101E0000753A2530326875002D2D2D005344002081
:101E10002020202020200020202020006E6F7469C8
:101E20006669636174696F6E20006E6F74696669BC
:101E3000636174696F6E200063616E63656C00504E
:101E400072696E742041626F7274656400446973D4
:101E50006D6973730055492041626F727465640047
:101E60004D323520500A4D323400526573756D6520
:101E70000055492050617573650050617573696E36
:101E8000672E2E2E00726573756D65004D3234001D
:101E90004C6F6164206D6D00556E6C6F6164206DD8
:101EA0006D0046696C2E204469612E004520696EE4
:101EB000206D6D5E3300416476616E6365204B007A
:101EC0004D33303320553120452569205325690095
:101ED000504944204175746F74756E65202A005016
:101EE00049442D44202A005049442D49202A0050BD
:101EF00049442D50202A00200220466163740020AE
:101F000002204D6178002002204D696E004F666608
:101F1000004F6E004175746F74656D700056547299
:101F20006176204D696E00566D696E00566D617860
:101F3000204500566D6178205A00566D6178205911
:101F400000566D6178205800416D61782045004150
:101F50006D6178205A00416D6178205900416D61B2
:101F600078205800412D54726176656C00412D52E5
:101F700065747261637400416363656C0056652D1E
:101F80004A65726B00565A2D4A65726B0056592D80
:101F90004A65726B0056582D4A65726B0045207376
:101FA000746570732F6D6D005A2053746570732FB4
:101FB0006D6D00592053746570732F6D6D0058203E
:101FC00053746570732F6D6D00416476616E636547
:101FD000642053657474696E6773003F0043616EDB
:101FE00063656C00496E6974004D34323800496E87
:101FF000697469616C697A6520454550524F4D009E
:1020000046696C616D656E740054656D70657261D2
:10201000747572650053746570732F6D6D004A6539
:10202000726B00416363656C65726174696F6E0009
:1020300056656C6F636974790053657420486F6DE1
:1020400065204F66667365747300436F6E666967DB
:1020500075726174696F6E003F004E657874205030
:102060006F696E7400446F6E65004E657874004C45
:102070006576656C696E6720446F6E6521004D6FF3
:102080007665205A004732395332004E6578742005
:10209000506F696E74002569202F20257500473226
:1020A00039533100473239533200436C69636B2036
:1020B000746F20426567696E00486F6D696E6720B6
:1020C00058595A005A2056616C756500496E64650E
:1020D00078205900496E64657820580053746F72F7
:1020E000652053657474696E6773004C6F6164207A
:1020F00053657474696E6773004C6576656C204334
:102100006F726E65727300426564205A00466164A6
:102110006520486569676874004F6666004F6E0009
:10212000426564204C6576656C696E67004564693C
:1021300074204D657368004C6576656C204265645B
:10214000004D6F74696F6E003F0043616E63656C94
:10215000204F626A656374004E4F00594553004337
:10216000616E63656C204F626A656374203D004D4B
:1021700061696E00426564004E6F7A7A6C65004654
:10218000616E20537065656400436F6E66696775A4
:10219000726174696F6E00526573746F726520446A
:1021A000656661756C7473004C6F6164205365746F
:1021B00074696E67730053746F726520536574742D
:1021C000696E6773005072656865617420242043EE
:1021D0006F6E66004F6666004F6E00506F776572D7
:1021E000204F757461676500416476616E63656454
:1021F0002053657474696E6773004D61696E004D9C
:1022000037303220542564004D36303020423020A3
:10221000542564004D373032203B2564004D373063
:10222000312054256400436F6E74696E75650050EB
:1022300075726765206D6F726500524553554D4547
:10224000204F5054494F4E533A005052494E54205B
:102250005041555345440020204E6F7A7A6C653AC0
:1022600020005061726B696E672E2E2E00000057A1
:1022700061697420666F720066696C616D656E7469
:10228000206368616E676500746F20737461727497
:10229000005761697420666F720066696C616D65D4
:1022A0006E7420756E6C6F616400004E6F7A7A6C8C
:1022B000652068656174696E6700506C656173655F
:1022C00020776169742E2E2E000050726573732082
:1022D000627574746F6E00746F2068656174206E2F
:1022E0006F7A7A6C650000496E7365727420666956
:1022F0006C616D656E7400616E64207072657373DD
:1023000020627574746F6E00746F20636F6E7469F1
:102310006E7565005761697420666F720066696C3E
:10232000616D656E74206C6F61640000507265733E
:102330007320427574746F6E00746F2072657375CC
:102340006D65207072696E74000057616974206653
:102350006F72207072696E7400746F20726573758D
:102360006D652E2E2E00005761697420666F720015
:1023700066696C616D656E742070757267650000CA
:102380003E2000256C642E25696D004578747275B9
:1023900064656420546F74616C003E20004C6F6E65
:1023A00067657374204A6F622054696D65003E2032
:1023B00000546F74616C205072696E742054696DA2
:1023C0006500436F6D706C65746564003A20005061
:1023D00072696E7420436F756E74003A2000313557
:1023E000300035004245443A2041544320313034D6
:1023F00047542D320052756E6177617920576174B0
:1024000063683A204F4E004D61782054656D70002E
:10241000333135004D696E2054656D7000350045CF
:10242000313A204550434F53203130304B00505308
:10243000550047656E657269630050726F746F6313
:102440006F6C00312E3000426175640032353030DF
:10245000303000437265616C6974793344205241B5
:102460004D5053004D657368204C6576656C696E00
:102470006700457874727564657273003100746921
:102480006E796D616368696E657333642E636F6D19
:1024900000544D334420456E64657234003230324E
:1024A000312D30342D313800322E302E375F4457E5
:1024B000372E332E31004D61726C696E0050726997
:1024C0006E74657220537461747300546865726D24
:1024D0006973746F727300426F61726420496E6633
:1024E0006F005072696E74657220496E666F004DA0
:1024F00061696E004D313030300053746F70205080
:1025000072696E7400526573756D65205072696EE4
:102510007400506F776572204F7574616765004174
:10252000425300504C41003F004261636B005374C2
:102530006F70004368616E67652046696C616D6508
:102540006E74005072656865617420437573746FB2
:102550006D00507265686561742024004261636B90
:10256000005072696E742066726F6D204D656469EB
:1025700061004368616E6765204D65646961004D67
:1025800032310041626F7574205072696E746572E9
:10259000004368616E67652046696C616D656E74A5
:1025A000004D36303020423000436F6E66696775EB
:1025B000726174696F6E0054656D706572617475D7
:1025C0007265004D6F74696F6E00486F73742053AD
:1025D0007461727400526573756D65205072696E16
:1025E00074004E6F204D656469610043616E6365E0
:1025F0006C204F626A6563740054756E6500537495
:102600006F70205072696E74005061757365205050
:1026100072696E7400496E666F2053637265656EF1
:10262000003F005374617274205072696E740043ED
:10263000616E63656C005072696E740043616E6E0A
:102640006F7420656E746572207375626469723A86
:102650002000052E2E004D61696E002100486F7428
:10266000656E6420746F6F20636F6C6400426163F9
:102670006B0050726F63656564004F6666004F6E55
:1026800000536F667420456E6473746F7073004DF1
:102690006F74696F6E0044697361626C6520537476
:1026A000657070657273004D383400426564204C6B
:1026B0006576656C696E6700486F6D65205A0047E6
:1026C00032385A00486F6D6520590047323859003A
:1026D000486F6D6520580047323858004175746F57
:1026E00020486F6D6500473238004D61696E0050BB
:1026F000726568656174202420456E6400507265BF
:10270000686561742024204265640054656D7065BD
:102710007261747572650023251F25436F6F6C64A9
:102720006F776E00507265686561742024004661A1
:102730006E205370656564207E00426564004E6FB4
:102740007A7A6C65004D61696E00426162797374DA
:102750006570205A00416476616E6365204B0046C7
:102760006C6F770046616E205370656564207E0053
:10277000426564004E6F7A7A6C6500426564205A47
:10278000005370656564004D61696E00486F6D6946
:102790006E67204661696C6564006F70656E0054F9
:1027A0005249474745524544003A20007A5F6D69D7
:1027B0006E00795F6D696E00785F6D696E005265BD
:1027C000706F7274696E6720656E6473746F7020C9
:1027D0007374617475730A0020746F6F206C6F6E70
:1027E0006720657874727573696F6E207072657694
:1027F000656E7465640A0020636F6C64206578748C
:10280000727573696F6E2070726576656E7465643B
:102810000A000000000000000000000000005761F6
:10282000726E696E673A20486F6D696E67204275F7
:102830006D702044697669736F72203C20310A0004
:10284000020204000066430000614300009643005A
:1028500000004100000041000000400000000100B5
:102860000000010000800055555500000040003375
:10287000333300AAAA2A004992240000002000C78E
:10288000711C0099991900D1451700555515003B49
:10289000B113002449120011111100000010000FA3
:1028A0000F0F00E3380E0043790D00CCCC0C00C3B1
:1028B000300C00E8A20B0064210B00AAAA0A0070E9
:1028C0003D0A009DD80900427B090092240900DCE2
:1028D000D30800888808001042080000000800F0B3
:1028E000C107008787070075500700711C07003E6D
:1028F000EB0600A1BC060069900600666606007043
:102900003E06006118060017F4050074D105005B4F
:10291000B00500B2900500627205005555050078BB
:10292000390500B81E0500050505004EEC040087BA
:10293000D40400A1BD040090A7040049920400C182
:102940007D0400EE690400C7560400444404005CA2
:102950003204000821040041100400000004003F7C
:10296000F00300F8E0030026D20300C3C30300CC49
:10297000B503003AA803000A9B0300388E0300C089
:102980008103009F750300D0690300505E03001DA2
:1029900053030034480300913D0300333303001612
:1029A000290300381F030097150300300C030003B0
:1029B0000303000BFA020049F10200BAE802005CCE
:1029C000E002002DD802002DD0020059C80200B04C
:1029D000C0020031B90200DAB10200AAAA0200A0C6
:1029E000A30200BC9C0200FA9502005C8F0200DF8B
:1029F00088020082820200457C02002776020027BE
:102A0000700200436A02007C640200D05E02003F54
:102A1000590200C8530200FFFDFCFAF8F6F4F2F088
:102A2000EEECEAE9E7E5E3E1E0DEDCDAD9D7D5D49C
:102A3000D2D0CFCDCBCAC8C7C5C3C2C0BFBDBCBA38
:102A4000B9B7B6B4B3B2B0AFADACAAA9A8A6A5A4A5
:102A5000A2A1A09E9D9C9A99989795949392908FED
:102A60008E8D8B8A8988878684838281807F7E7D14
:102A70007B7A797877767574737271706F6E6D6C1E
:102A80006B6A696867666564636261605F5E5D5C0E
:102A90005B5A5958585756555453525150504F4EEF
:102AA0004D4C4B4A4A4948474646454443424241B9
:102AB000403F3E3E3D3C3B3B3A3938383736353572
:102AC000343332323130302F2E2E2D2C2B2B2A291D
:102AD0002928272726252524232322212120201FBA
:102AE0001E1E1D1C1C1B1B1A19191818171616154B
:102AF0001514131312121111100F0F0E0E0D0D0CD1
:102B00000C0B0A0A0909080807070606050504044C
:102B1000030302020100000000664300006143005D
:102B20000096430000000000000000000000005379
:102B3000657474696E67732053746F7265640045C1
:102B40004550524F4D20496E697469616C697A65D0
:102B5000640A003B200020204D36303320002055F1
:102B6000004C0046696C616D656E74206C6F616429
:102B70002F756E6C6F6164206C656E677468733A54
:102B80000020204D393030204B004C696E65617259
:102B900020416476616E63653A0020204D34313304
:102BA000205300506F7765722D4C6F737320526500
:102BB000636F766572793A00204400204900202036
:102BC0004D33303420500020440020490020204D57
:102BD0003330312050005049442073657474696E5D
:102BE00067733A0020460020480020204D313435DC
:102BF0002053004D6174657269616C206865617471
:102C0000757020706172616D65746572733A002031
:102C100020473239205334205A00204A00202047D0
:102C2000323920533320490020204D343230205394
:102C3000004D65736820426564204C6576656C695B
:102C40006E673A0020204D323036205800486F6DB4
:102C500065206F66667365743A0020580020530043
:102C600020204D323035204200416476616E63652C
:102C7000643A20423C6D696E5F7365676D656E7482
:102C80005F74696D655F75733E20533C6D696E5F5F
:102C900066656564726174653E20543C6D696E5F63
:102CA00074726176656C5F66656564726174653EB9
:102CB00020583C6D61785F785F6A65726B3E205981
:102CC0003C6D61785F795F6A65726B3E205A3C6D3E
:102CD00061785F7A5F6A65726B3E20453C6D617812
:102CE0005F655F6A65726B3E0020540020520020D1
:102CF000204D323034205000416363656C65726151
:102D000074696F6E2028756E6974732F7332293A57
:102D100020503C7072696E745F616363656C3E2025
:102D2000523C726574726163745F616363656C3E8B
:102D300020543C74726176656C5F616363656C3EC0
:102D40000020204D3230312058004D6178696D757A
:102D50006D20416363656C65726174696F6E2028D4
:102D6000756E6974732F7332293A0020204D32300A
:102D7000332058004D6178696D756D206665656416
:102D800072617465732028756E6974732F73293AA4
:102D90000053746570732070657220756E69743AA3
:102DA0000020440020204D32303020530020446960
:102DB0007361626C65640A0046696C616D656E746E
:102DC0002073657474696E67733A0020204D313446
:102DD000392043203B20556E69747320696E20436F
:102DE000656C736975730A0020286D6D29002020B9
:102DF000473231202020203B20556E6974732069B2
:102E00006E206D6D0000803B4400803B440000203C
:102E100041000096420000A0420000A0420000C80D
:102E2000430000BE42D0070000D00700006400004D
:102E3000004B00000024F4D43050C38E20C2A240C6
:102E400017828B7011127A910D816CD90AA861E1F9
:102E500008C7586607615143061E4B5D05C145A76B
:102E6000041A411104093D9803713931034036DBDE
:102E70000265339102D4305402802E1D02632CEE81
:102E800001752AC501B028A001102781018F256492
:102E9000012B244B01E0223401AC211F018D200DB8
:102EA00001801FFC00841EED00971DDF00B81CD2BE
:102EB00000E61BC600201BBC00641AB200B219A8B1
:102EC000000A19A0006A189900D117910040178BC9
:102ED00000B516840031167E00B31579003A1573DB
:102EE00000C7146F0058146A00EE1366008813635D
:102EF0000025135E00C7125B006C125700151254B8
:102F000000C111510070114F0021114B00D6104922
:102F1000008D1047004610440002104200C00F40D0
:102F200000800F3E00420F3C00060F3B00CB0E38E6
:102F300000930E37005C0E3500270E3400F30D327F
:102F400000C10D3100900D3000600D2E00320D2DAE
:102F500000050D2C00D90C2B00AE0C2900850C2986
:102F6000005C0C2700350C27000E0C2600E80B2413
:102F700000C40B2400A00B23007D0B23005A0B215F
:102F800000390B2100180B2000F80A1F00D90A1E77
:102F900000BB0A1E009D0A1D00800A1D00630A1C5A
:102FA00000470A1B002C0A1B00110A1A00F7091A15
:102FB00000DD091900C4091900AB091900920917AD
:102FC000007B091800630917004C09160036091622
:102FD00000200916000A091500F5081500E008147C
:102FE00000CC081400B8081400A4081400900813BA
:102FF000007D0812006B08130058081200460812E2
:1030000000340811002308110012081100010811F2
:1030100000F0071000E0071000D0071000C00710F4
:1030200000B0070F00A107100091070E0083070FE3
:103030000074070F0065070E0057070E0049070EC2
:10304000003B070D002E070E0020070D0013070D93
:103050000006070D00F9060C00ED060D00E0060C59
:1030600000D4060C00C8060C00BC060C00B0060C10
:1030700000A4060B0099060C008D060B0082060BBF
:103080000077060B006C060B0061060A0057060B62
:10309000004C060A0042060A0038060A002E060AFC
:1030A0000024060A001A060A001006090007060A8C
:1030B00000FD050900F4050900EB050900E205091A
:1030C00000D9050900D0050900C7050900BE05099A
:1030D00000B5050800AD050800A50509009C050818
:1030E00000940508008C050800840508007C05088C
:1030F00000740508006C050700650508005D0507FC
:1031000000560508004E0507004705070040050862
:103110000038050700310507002A050700230507C9
:10312000001C050600160507000F05070008050628
:103130000002050700FB040600F5040700EE040684
:1031400000E8040600E2040700DB040600D50406DC
:1031500000CF040600C9040600C3040600BD04062F
:1031600000B7040600B1040500AC040600A604067E
:1031700000A00405009B04060095040500900406C9
:10318000008A04050085040500800406007A040511
:103190000075040500700405006B04050066040555
:1031A00000610405005C0405005704050052040595
:1031B000004D04050048040500430405003E0404D6
:1031C000003A04050035040500300404002C040511
:1031D0000027040400230405001E0404001A04044C
:1031E0000016040500110404000D04040009040580
:1031F000000404040000040400FC030400F80304B9
:1032000000F4030400F0030400EC030400E80304EA
:1032100000E4030400E0030400DC030400D803041A
:1032200000D4030400D0030400CC030400C803034B
:1032300000C503030024F404D9201BC40C5C0E98C1
:1032400004C4095F0265077101F405F900FB04B3CA
:103250000048048700C10369005803550003034573
:1032600000BE023A008402310053022A00290225DE
:103270000004022000E4011C00C8011900AF01177E
:103280000098011400840113007101100061011005
:103290000051010E0043010D0036010B002B010B04
:1032A0000020010B00150109000C010900030108B1
:1032B00000FB000800F3000800EB000700E4000634
:1032C00000DE000600D8000600D2000600CC000593
:1032D00000C7000500C2000500BD000400B90004DD
:1032E00000B5000400B1000400AD000400A9000412
:1032F00000A5000300A20003009F0004009B000340
:103300000098000300950002009300030090000362
:10331000008D0002008B000300880002008600027E
:103320000084000300810002007F0002007D000293
:10333000007B0002007900020077000100760002A5
:10334000007400020072000100710002006F0002B0
:10335000006D0001006C0002006A000100690002BB
:1033600000670001006600010065000100640002C2
:10337000006200010061000100600001005F0002C6
:10338000005D0001005C0001005B0001005A0001CB
:1033900000590001005800010057000100560001CB
:1033A00000550001005400010053000000530001CB
:1033B000005200010051000100500001004F0001C7
:1033C000004E0000004E0001004D0001004C0001C5
:1033D000004B0000004B0001004A000100490001C1
:1033E00000480000004800010047000100460000BE
:1033F00000460001004500000045000100440001B6
:1034000000430000004300010042000000420001B0
:10341000004100000041000100400001003F0000A9
:10342000003F0001003E0000003E0001003D0000A2
:10343000003D0001003C0000003C0000003C000199
:10344000003B0000003B0001003A0000003A000190
:103450000039000000390001003800000038000089
:10346000003800010037000000370001003600007E
:103470000036000000360001003500000035000075
:103480000035000100340000003400000034000169
:103490000033000000330000003300010032000060
:1034A0000032000000320001003100000031000055
:1034B0000031000100300000003000000030000149
:1034C000002F0000002F0000002F0000002F00013F
:1034D000002E0000002E0000002E0001002D000034
:1034E000002D0000002D0000002D0001002C000028
:1034F000002C0000002C0000002C0001002B00001C
:10350000002B0000002B0000002B0001002A00000F
:10351000002A0000002A0000002A00010029000003
:1035200000290000002900000029000000290001F6
:1035300000280000002800000028000000280000EB
:1035400000280001002700000027000000270000DD
:1035500000270000002700010026000000260000D0
:1035600000260000002600000026000100250000C3
:1035700000250000002500000025000000250000B7
:1035800000250001002400000024000000240000A9
:10359000002400000024000100230000002300009C
:1035A000002300000023000000230000002300008F
:1035B0000023000100220000002200000022000081
:1035C0000022000000220000002200010021000073
:1035D0000021000000210000002100000021000067
:1035E0000021000000210001002000000020000058
:1035F000002000000020000000200000002000004B
:103600000020000000200001001F0000001F00003B
:10361000001F0000001F0000001F0000001F00002E
:10362000001F0001001E0000001E0000001E000020
:10363000001E000000232C0000B8220000561800D5
:10364000003A0F0000B8080000B104000071020049
:10365000003E01000020423A0020436F756E742046
:10366000413A0042656400453100626564002C20E7
:1036700073797374656D2073746F70706564212045
:103680004865617465725F49443A20004865617419
:10369000696E67204661696C65640048656174699C
:1036A0006E67206661696C6564004D31313220536C
:1036B000687574646F776E001000C90210012C01E8
:1036C0004001220170011801B0010E01F001040156
:1036D0005002FA00B002F0003003E600D003DC0034
:1036E0009004D2007005C800A006BE000008B40017
:1036F000B009AA00D00BA000600E960060118C00EB
:103700000015820020197800C01D6E00A022640000
:10371000B0275A00902C500000314600E0343C00A5
:1037200010383200903A2800603C1E00A03D140082
:10373000803E0A00203F0000544845524D414C2035
:1037400052554E4157415900546865726D616C2065
:1037500052756E61776179004572723A204D415819
:1037600054454D50004D415854454D502074726998
:10377000676765726564004572723A204D494E5420
:10378000454D50004D494E54454D50207472696767
:10379000676572656400202F002042403A00204097
:1037A0003A0020573A0020573A00496E76616C691A
:1037B000642065787472756465720A007C3C3E5EB4
:1037C0002B3D3F2F5B5D3B2C2A225C0043616E6EDC
:1037D0006F74206F70656E2073756264697220006B
:1037E000534420496E6974204661696C005344203B
:1037F00063617264206F6B0A006F70656E526F6F49
:1038000074206661696C65640A00766F6C756D651D
:103810002E696E6974206661696C65640A004E6F7A
:1038200020534420636172640A000A4D3234004D13
:103830003233202573002E0A006F70656E2066619A
:10384000696C65642C2046696C653A200046696C99
:10385000652073656C65637465640A002053697A3A
:10386000653A200046696C65206F70656E65643A44
:103870002000454E4420535542524F5554494E4521
:103880000A002220706F73002220706172656E74CE
:103890003A2200535542524F5554494E4520434118
:1038A0004C4C207461726765743A220053756263F0
:1038B000616C6C204F766572666C6F77004578633B
:1038C0006565646564206D617820535542524F559B
:1038D00054494E452064657074683A002E0A0044CD
:1038E000656C6574696F6E206661696C65642C2017
:1038F00046696C653A200046696C652064656C65B4
:103900007465643A005344207072696E74696E671E
:10391000206279746520004E6F74205344207072C9
:10392000696E74696E670A002F6175746F25632E66
:10393000670057726974696E6720746F2066696CDE
:10394000653A2000667265736800646F696E67008F
:103950002066696C653A20004E6F77200002700186
:103960002C0190012701B0012201C0011D01F001CD
:1039700018011002130130020E01600209019002C9
:103980000401C002FF000003FA004003F5008003B9
:10399000F000D003EB002004E6007004E100E00436
:1039A000DC004005D700C005D2004006CD00D0069F
:1039B000C8008007C3003008BE00F008B900C00985
:1039C000B400B00AAF00B00BAA00D00CA500000EE6
:1039D000A000500F9B00C0109600501291000014E0
:1039E0008C00C0158700B0178200B0197D00D01B75
:1039F0007800001E730040206E0090226900F024C1
:103A0000640040275F0090295A00E02B5500102EDB
:103A1000500020304B0010324600E033410090351A
:103A20003C001037370070383200A0392D00B03A12
:103A30002800A03B2300603C1E00103D1900903D73
:103A40001400103E0F00703E0A00C03E0500003F0B
:103A50000000403FFBFF803FF6FFC03FF1FF20200A
:103A6000506C616E6E6572427566666572427974FD
:103A700065733A20002046726565204D656D6F7252
:103A8000793A2000436F6D70696C65643A2041702B
:103A90007220323920323032310A00204C61737486
:103AA00020557064617465643A20323032312D30B3
:103AB000342D3138207C20417574686F723A20545F
:103AC000696E794D616368696E657333440A0032CB
:103AD0002E302E375F4457372E332E310A004D617A
:103AE000726C696E0020536F667477617265205244
:103AF000657365740A00205761746368646F67209A
:103B000052657365740A002042726F776E206F757C
:103B1000742052657365740A002045787465726E6E
:103B2000616C2052657365740A00506F7765725539
:103B3000700A0073746172740A004739310A4731A0
:103B40005A350A4739300A4D38340A4D313034532A
:103B5000300A4D3134305330004D31303031006552
:103B600072726F722077726974696E6720746F2049
:103B700066696C650A00446F6E6520736176696ED4
:103B8000672066696C652E0A004D323900456E6407
:103B900073746F70730025532025632025632025DF
:103BA0006320256300205A3A0020593A0020583AF1
:103BB00000656E6473746F7073206869743A2000D6
:103BC00000000A0B02090C0D0E0807030401000097
:103BD00000000000000000000000000000000000E5
:103BE00000000000000000000000000012111000A2
:103BF00000000000000000000000000000000000C5
:103C0000000000000000004D6F76652025736D6D8B
:103C1000004D6F766520302E316D6D004D6F7665ED
:103C200020316D6D004D6F76652031306D6D004D2A
:103C30006F766520417869730045787472756465A4
:103C400072004D6F7665205A004D6F7665205900E1
:103C50004D6F76652058005072696E742066726FE1
:103C60006D204D6564696100FFFFFF486F6D652041
:103C700025732573257320466972737400220A0028
:103C8000556E6B6E6F776E20636F6D6D616E643A0B
:103C90002022002042002050006F6B00544D33441E
:103CA00020456E646572342052656164792E00503F
:103CB00072696E74696E672E2E2E005072696E7472
:103CC0002050617573656400204500205A0020591A
:103CD00000204D393220580020453A00205A3A0041
:103CE00020593A00583A0020746F6F206C6F6E674D
:103CF00020657874727573696F6E20707265766571
:103D00006E7465640A0020636F6C64206578747259
:103D10007573696F6E2070726576656E7465640A7E
:103D200000526573656E643A200000002200250091
:103D300028002B002E003100340002010000050194
:103D400008010B0100002100240027002A002D009B
:103D50003000330001010000040107010A010505DC
:103D60000505070508080808020202020A0A0808F1
:103D7000040404040101010101010101030303031F
:103D800003030303040707070C0C0C0C0C0C0C0CAE
:103D90000202020206060606060606060B0B0B0BBF
:103DA0000B0B0B0B010210202008081020401020E4
:103DB00040800201020108040201010204081020EF
:103DC00040808040201008040201800402018040ED
:103DD0002010080402010804020101020408102056
:103DE00040800102040810204080B601F200112436
:103DF0001FBECFEFD1E2DEBFCDBF00E00CBF13E0AE
:103E0000A0E0B2E0ECE8F7E902E00BBF02C00790E7
:103E10000D92A836B107D9F727E1A8E6B3E001C0B3
:103E20001D92A837B207E1F71EE1C6EFDEE100E020
:103E300006C021970109802FFE010F941E48C53F3F
:103E4000D10780E00807A9F70F9439370D94B44BD8
:103E50000C940000CF93DF93EC01CB01BA010F94D7
:103E60003C4129EC38EC48EC5EE30F94214920E01A
:103E700030E040E05FE30F9427480F949A4968834D
:103E8000DF91CF910895E091BD0486E0E802F00152
:103E90001124E25EF84F8091340790E0958384838B
:103EA0000895CF93DF93EC01CB01BA010F943C410D
:103EB00020E030E0A9010F9427480F949A496883C5
:103EC000DF91CF9108958F929F92AF92BF92CF9240
:103ED000DF92EF92FF92CF936B017C0120E030E004
:103EE000A9010F94354187FD9FC06DEB77E386E014
:103EF00095E3A70196010F9427486B017C0120E010
:103F000030E040E251E40F949B4120E030E048EC87
:103F100052E40F949B414B015C0120E030E0A90189
:103F2000C701B6010F94354120E030E040EA50E48B
:103F300087FF04C020E030E040EA50ECC501B40146
:103F40000F94274820E030E040E251E40F942149EB
:103F50000F9493496B017C018BE2F7FE09C0F0944A
:103F6000E094D094C094C11CD11CE11CF11C8DE2E2
:103F70008093BE04C701B60120E137E240E050E083
:103F80000F949B478AE0882E912CA12CB12CCA015A
:103F9000B901A50194010F949B47605D6093BF0434
:103FA000C701B60128EE33E040E050E00F949B4794
:103FB000CA01B901A50194010F949B47605D60930C
:103FC000C004C701B60124E630E040E050E00F94A1
:103FD0009B47CA01B901A50194010F949B47605DFD
:103FE0006093C1048EE28093C204C701B601A501AB
:103FF00094010F949B47C62FCA01B901A5019401F2
:104000000F949B47605D6093C304C05DC093C4047C
:104010008EEB94E0CF91FF90EF90DF90CF90BF9028
:10402000AF909F908F9008956DEB77E386E095EBCE
:1040300060CF8F929F92AF92BF92CF92DF92EF921A
:10404000FF92CF936B017C0120E030E0A9010F9437
:10405000354187FDAAC06DEB77E386E095E3A701C4
:1040600096010F9427486B017C0120E030E0A90104
:104070000F94354187FF9EC0C701B601905820E0DC
:1040800030E040E251E40F949B4120E030E040E218
:1040900051E40F949B4120E030E040EA50E40F945B
:1040A000274820E030E040E251E40F9421490F948A
:1040B00093496B017C0180E28093BE0460E280E161
:1040C000C81687E2D806E104F1048CF0C701B601F6
:1040D00020E137E240E050E00F949B47CA01B9016C
:1040E0002AE030E040E050E00F949B47605D609331
:1040F000BF0460E288EEC81683E0D806E104F1044C
:104100008CF0C701B60128EE33E040E050E00F9498
:104110009B47CA01B9012AE030E040E050E00F942B
:104120009B47605D6093C00460E284E6C816D104DA
:10413000E104F1048CF0C701B60124E630E040E070
:1041400050E00F949B47CA01B9012AE030E040E0FB
:1041500050E00F949B47605D6093C1048AE0882E15
:10416000912CA12CB12CC701B601A50194010F948B
:104170009B47C62FCA01B901A50194010F949B4723
:10418000605D6093C2048EE28093C304C05DC093FF
:10419000C4048EEB94E0CF91FF90EF90DF90CF902E
:1041A000BF90AF909F908F9008956DEB77E386E07E
:1041B00095EB55CF20E030E040E251E4C701B60175
:1041C00062CFCF93DF93EC01CB01BA010F943C4156
:1041D00020E030E040E251E40F94214920E030E05B
:1041E000A9010F942748688379838A839B83DF9191
:1041F000CF910895CF93DF93EC01CB01BA010F94D7
:104200003C4120E030E040E251E40F94214920E0BD
:1042100030E0A9010F942748688379838A839B83C0
:10422000DF91CF9108950F943C4120E030E040E2CF
:1042300051E40F94214920E030E0A9010F94274870
:104240000C941920CF93DF93EC01CB01BA010F94AA
:104250003C4120E030E0A9010F942748688379832E
:104260008A839B83DF91CF910895CF93DF93EC01F5
:10427000CB01BA010F943C4120E030E0A9010F943A
:104280002748688379838A839B83DF91CF91089540
:10429000CF93DF93EC01CB01BA010F943C412AE0AC
:1042A00037ED43E25DE30F94214920E030E0A901BE
:1042B0000F9427480F949A49688379838A839B8354
:1042C000DF91CF910895CF93DF93EC01CB01BA0139
:1042D0000F943C412AE037ED43E25DE30F9421491E
:1042E00020E030E0A9010F942748688379838A830E
:1042F0009B83DF91CF910895CF93DF93EC01CB01A6
:10430000BA010F943C4120E030E0A9010F94274806
:10431000688379838A839B83DF91CF910895CF93BC
:10432000DF93EC01CB01BA010F943C4120E030E077
:1043300048EC52E40F94214920E030E0A9010F94A9
:104340002748688379838A839B83DF91CF9108957F
:10435000CF93DF93EC01CB01BA010F943C4120E0F5
:1043600030E048EC52E40F94214920E030E0A9010C
:104370000F942748688379838A839B83DF91CF9149
:1043800008950F943C4120E030E048EC52E40F9453
:10439000214920E030E0A9010F9427480C94631FC5
:1043A000CF93DF93EC01CB01BA010F943C4120E0A5
:1043B00030E0A9010F9427480F94934979836883CB
:1043C000DF91CF910895CF93DF93EC01CB01BA0138
:1043D0000F943C4120E030E04AE754E40F94214937
:1043E00020E030E0A9010F942748688379838A830D
:1043F0009B83DF91CF9108952CEA35EC47E25EE391
:104400006091A2047091A3048091A4049091A504EA
:104410000F9421496093A5147093A6148093A71458
:104420009093A81408952CEA35EC47E25EE360917E
:10443000A6047091A7048091A8049091A9040F94F8
:104440009B416093A1147093A2148093A314909342
:10445000A41408952CEA35EC47E25EE36091A204CF
:104460007091A3048091A4049091A5040F94214914
:104470006093A5147093A6148093A7149093A81426
:1044800008952CEA35EC47E25EE36091A604709152
:10449000A7048091A8049091A9040F949B41609374
:1044A000A1147093A2148093A3149093A41408955C
:1044B000FC0184910895FC0180810895FC0180E055
:1044C0009491992331F0907C903809F08F5F319668
:1044D000F7CF0895AF92BF92CF92DF92EF92FF9203
:1044E0000F931F93CF93DF93EC015B018A01FB01D4
:1044F000199587FD16C0C82ED12CF12CE12C2196E0
:10450000F801C082D182E282F382CE01DF91CF91A5
:104510001F910F91FF90EF90DF90CF90BF90AF90E1
:104520000895982F907E903CA9F48F7190E0B0E0B0
:10453000A0E06C017D0156E0CC0CDD1CEE1CFF1CE4
:104540005A95D1F7CE010196F50119958F73C82AB6
:104550002296D6CF982F907F903E11F58F7090E0E5
:10456000B0E0A0E06C017D0136E0CC0CDD1CEE1C5F
:10457000FF1C3A95D1F7CE010196F50119958F737D
:10458000C82A46E0CC0CDD1CEE1CFF1C4A95D1F776
:10459000CE010296F50119958F73C82A2396B0CFE4
:1045A000982F987F903F79F5877090E0B0E0A0E079
:1045B0006C017D0186E0CC0CDD1CEE1CFF1C8A9595
:1045C000D1F7CE010196F50119958F73C82A96E0AF
:1045D000CC0CDD1CEE1CFF1C9A95D1F7CE01029687
:1045E000F50119958F73C82A26E0CC0CDD1CEE1C52
:1045F000FF1C2A95D1F7CE010396F50119958F730B
:10460000C82A24967DCF982F907C903841F4807CE6
:10461000803869F42196CE01F5011995F8CF8E7F87
:104620008D3F28F02196CE01F5011995F8CFC12CC8
:10463000D12C760165CFCF93DF93DB01F9019C91FB
:104640009130C1F0943080F094509C938830D1F434
:1046500080819181009771F0019791838083480F49
:10466000591FEA01188206C08C3539F49C5F9C936F
:10467000943041F4DF91CF9108958B3339F781E085
:104680008C93F8CF20813181B9016F5F7F4F7183A7
:104690006083420F531FEA018883808191818F35A7
:1046A00091056CF7E7CF0F931F9381E000913D15C3
:1046B00010913E1520913F153091401540913915CC
:1046C00050913A1560913B1570913C1504171507F0
:1046D0002607370708F480E01F910F91089590E0B6
:1046E00080E00895282F90918507833021F495FD6F
:1046F0000FC094FD0FC0892F90E0B0E0A0E004C08F
:10470000B695A795979587952A95D2F781700895C4
:1047100081E0089580E008950F931F9301E010E079
:1047200020E030E0082E04C0000F111F221F331FAD
:104730000A94D2F74091B1045091B2046091B3044D
:104740007091B404402B512B622B732B4093B10416
:104750005093B2046093B3047093B4049091130225
:10476000891303C081E08093710F1F910F91089509
:10477000129A0895269A2E9A08952F923F924F9258
:104780005F926F927F928F929F92AF92BF92CF92E1
:10479000DF92EF92FF920F931F93CF93DF93D62F69
:1047A000C72FFC0180809180A280B380C501B40135
:1047B00020E831E541E050E00F947947C9016DE60A
:1047C00071E00F94F6476B017C01C501B40120E153
:1047D0003EE040E050E00F947947CA01B90128E17A
:1047E00030E040E050E00F947947362E272E062F18
:1047F000172F8CE3482E512C612C712CC501B4016C
:10480000A30192010F947947B62EA72ECA01B901D0
:10481000A30192010F947947CB01C114D10479F11E
:10482000AF92BF927F936F932F923F92FF92EF923E
:10483000DF92CF9282E495E19F938F93CF93DF93A2
:104840000F94CC408DB79EB70E960FB6F8949EBFCE
:104850000FBE8DBF8D2F9C2FDF91CF911F910F9198
:10486000FF90EF90DF90CF90BF90AF909F908F9090
:104870007F906F905F904F903F902F900895E1143C
:10488000F104C9F0AF92BF927F936F932F923F9242
:10489000FF92EF9282E395E19F938F93CF93DF9303
:1048A0000F94CC40EDB7FEB73C960FB6F894FEBF20
:1048B0000FBEEDBFCFCF012BB9F0AF92BF927F9368
:1048C0006F932F923F9286E295E19F938F93CF93C0
:1048D000DF930F94CC408DB79EB70A960FB6F8942D
:1048E0009EBF0FBE8DBFB6CF892BA9F0AF92BF92EE
:1048F0007F936F938EE195E19F938F93CF93DF9397
:104900000F94CC40EDB7FEB738960FB6F894FEBFC3
:104910000FBEEDBF9FCFAF92BF928AE195E19F930B
:104920008F93CF93DF930F94CC400F900F900F9005
:104930000F900F900F908ECFCF92DF92EF92FF9259
:104940006B017C0120E030E0A9010F94354187FD27
:1049500026C06DEB77E386E095E3A70196010F94FF
:1049600027486B017C0120E030E0A9010F9435411C
:1049700020E030E040E05FE387FF04C020E030E06B
:1049800040E05FEBC701B6010F9427480F949349AD
:10499000CB01FF90EF90DF90CF900C94B7E46DEBDC
:1049A00077E386E095EBD9CF0F943C4120E030E0EF
:1049B000A9010F9427480C949C240F943C4120E0BB
:1049C00030E0A9010F9427480F949349CB010C9430
:1049D000B7E40F943C4129EC38EC48EC5EE30F94CB
:1049E000214920E030E040E05FE30F9427480F9436
:1049F0009A49862F0C9420E663E972E084E690E001
:104A00000E949EEA6AEB72E084E690E00C949EEAD3
:104A100081110C94FC2468EB71E084E190E00C942B
:104A20009EEA0E947FB90C9408250E94FFFC0C941A
:104A300008250E94A5DD0C94FC240F943C4120E045
:104A400030E0A9010F9427480F949A49862F0C94BF
:104A5000FEE50F9490130C94EED380E090E0A0E874
:104A6000B0E48093C40F9093C50FA093C60FB0938A
:104A7000C70F8AEC92E00E94D3D2E091AB0480E0B1
:104A800090E0ACEDB2E4E43009F44AC080E090E09C
:104A9000A0EBB1E48093BC0F9093BD0FA093BE0F29
:104AA000B093BF0F8093C00F9093C10FA093C20F1C
:104AB000B093C30FEE0FFF0BE655FD4F8081918140
:104AC0008330910549F184309105D9F1029761F461
:104AD00080E090E0A6E4B3E48093BC0F9093BD0F18
:104AE000A093BE0FB093BF0F82EB92E00E94D3D28F
:104AF0001092C40F1092C50F1092C60F1092C70FDC
:104B00008AEC92E00E94D3D28091AB048F5F853013
:104B1000ECF48093AB04089580E090E0A6E4B3E465
:104B20008093BC0F9093BD0FA093BE0FB093BF0FA7
:104B30008093C00F9093C10FA093C20FB093C30F87
:104B4000D3CF80E090E0A6E4B3E4F2CF1092AB04C0
:104B50000895CF93DF9300D01F92CDB7DEB70F94A7
:104B60009A490F943A4169837A838B839C83CE015F
:104B700001960E941EE00F900F900F900F90DF9112
:104B8000CF9108950F943C412AE037ED43E25DE375
:104B90000F94214920E030E0A9010F9427480C949C
:104BA000A925CF92DF92EF92FF92CF93DF9300D0AF
:104BB0001F92CDB7DEB76B017C0120E030E0A90188
:104BC0000F94354187FD1BC06DEB77E386E095E3DD
:104BD000A70196010F94274869837A838B839C836E
:104BE000CE0101960E941EE00F900F900F900F9043
:104BF000DF91CF91FF90EF90DF90CF9008956DEB14
:104C000077E386E095EBE4CF0F943C412AE037ED63
:104C100043E25DE30F94214920E030E0A9010F94C5
:104C200027480C94D1250F943C4120E030E0A901A5
:104C30000F9427480C94D125CF92DF92EF92FF92E8
:104C4000CF93DF9300D01F92CDB7DEB76B017C010D
:104C500020E030E0A9010F94354187FD1BC06DEBCA
:104C600077E386E095E3A70196010F9427486983CF
:104C70007A838B839C83CE0101960E943DE10F9045
:104C80000F900F900F90DF91CF91FF90EF90DF90FA
:104C9000CF9008956DEB77E386E095EBE4CF0F942A
:104CA0003C4120E030E040E251E40F94214920E013
:104CB00030E0A9010F9427480C941C26CF92DF9274
:104CC000EF92FF926B017C0120E030E0A9010F948C
:104CD000354187FD26C06DEB77E386E095E3A701BC
:104CE00096010F9427486B017C0120E030E0A90178
:104CF0000F94354120E030E040E05FE387FF04C0DF
:104D000020E030E040E05FEBC701B6010F94274898
:104D10000F949349CB01FF90EF90DF90CF900C94CC
:104D20000DE46DEB77E386E095EBD9CF0F943C4132
:104D300020E030E0A9010F9427480C945E260F94E0
:104D40003C4120E030E04AE754E40F94214920E060
:104D500030E0A9010F9427480C94CBEA0F943C4112
:104D600020E030E048EC52E40F94214920E030E0AC
:104D7000A9010F9427480C94FFEA0C9487BD0C946A
:104D800087BD0C9487BD0C9487BD0C9439BD0C94E1
:104D900039BD0C9439BD0C9439BDCF92DF92EF929E
:104DA000FF920F931F930F94E91C0091F70310914A
:104DB000F8032091F9033091FA036B017C01C01ACA
:104DC000D10AE20AF30A9701860137FD11C020914A
:104DD000F60320952093F6036A547C4F8F4F9F4F24
:104DE0006093F7037093F8038093F9039093FA03A9
:104DF00081E09091F603911101C080E01F910F9125
:104E0000FF90EF90DF90CF900895CF92DF92EF92D6
:104E1000FF920F931F93CF9390911402913009F456
:104E200061C0662351F010929E0310929A03109273
:104E30009B0310929C0310929D03C82F0F94E91CB2
:104E4000C0909A03D0909B03E0909C03F0909D0348
:104E50009B01AC012C193D094E095F0969017A01DA
:104E6000F7FC40C020919E03C7FD15C04C2F0C2EAF
:104E7000000C550B4C5F5F4FE22F022E000CFF0B16
:104E80004E175F077CF144EFC42EDD24D394E12C50
:104E9000F12C2C1734F438EEC32E33E0D32EE12C52
:104EA000F12CC60ED71EE81EF91EC0929A03D092AE
:104EB0009B03E0929C03F0929D03022F017010E08F
:104EC00084E2809FB001819F700D701B1124605996
:104ED0007C4F82E390E00E949EEA80919E038F5F68
:104EE00080939E03CF911F910F91FF90EF90DF90E1
:104EF000CF900895CF92DF92EF92FF920F931F937E
:104F0000CF93DF9300D000D01F921F92CDB7DEB7B2
:104F10008E010F5F1F4FD80130E020E0FB01E20F50
:104F2000F31FE491ED932F5F3F4F28303105B1F728
:104F3000877098E0899FB0011124606486EF94E146
:104F40000F94252383E790E00197F1F77801E8E0DB
:104F5000EE0EF11C8BE9C82ED12CF80161918F0166
:104F600086EF94E10E94FDFFC6010197F1F7E0167C
:104F7000F10699F728960FB6F894DEBF0FBECDBFA5
:104F8000DF91CF911F910F91FF90EF90DF90CF9025
:104F90000895CF93C82F6CED7DE180E00E947A27C1
:104FA00064ED7DE181E00E947A276CEC7DE182E096
:104FB0000E947A2764EC7DE186E00E947A276CEB00
:104FC0007DE187E00E947A27C13081F464EB7DE1C6
:104FD00085E00E947A276CEA7DE184E00E947A27CE
:104FE00064EA7DE183E0CF910C947A276CE97DE15E
:104FF00083E00E947A2764E97DE184E00E947A27B9
:105000006CE87DE185E0EFCF20E044E064E186EFED
:1050100094E10F94352381E02091F4143091F5143C
:105020002C583E4509F080E00E94C92786EF94E1A4
:105030000D942D23CF92DF92EF92FF920F931F9347
:10504000CF93DF9300D000D0CDB7DEB78A0146E022
:10505000469F9001479F300D1124BC01620F731FC2
:1050600046E050E0CE0101960F945C40C980DA80A2
:10507000EB80FC80F80140815181628173818FEF68
:105080009FEFC416D506E606F70640F081E090E0F3
:105090004C155D056E057F0508F080E026960FB67D
:1050A000F894DEBF0FBECDBFDF91CF911F910F915E
:1050B000FF90EF90DF90CF9008950F931F93CF93C1
:1050C000DF93CDB7DEB72E970FB6F894DEBF0FBED5
:1050D000CDBF8A011E861D866F83788789879A8750
:1050E0002FEF2B87603871058105910538F486EF25
:1050F00094E10E94FDFF81E090E02FC09E01235FBC
:105100003F4FAE01495F5F4F69EB70E086E399E185
:105110000F94F91197FD2CC08D859E8526E0289F60
:10512000B001299F700D11246A5C764E46E050E074
:10513000CE0101960F945C406D8186EF94E10E9450
:10514000FDFF01301105B9F26E816623A1F286EFF1
:1051500094E10E94FDFF82E090E02E960FB6F89455
:10516000DEBF0FBECDBFDF91CF911F910F9108958C
:105170009E01235F3F4FAE01495F5F4F63E670E0E2
:1051800084EE96E10F94F91197FD0BC08D859E85F5
:1051900026E0289FB001299F700D11246C51794E93
:1051A000C5CF6FE3A4CFAB01BC0140933D15509335
:1051B0003E1560933F157093401584EA96E10D9477
:1051C00076292F923F924F925F926F927F928F92A9
:1051D0009F92AF92BF92CF92DF92EF92FF921F9376
:1051E000CF93DF93CDB7DEB72C970FB6F894DEBF21
:1051F0000FBECDBF7A011901DC012D913D914D917A
:105200005C912D833E834F835887FB014080518002
:10521000628073808090BC0F9090BD0FA090BE0FF5
:10522000B090BF0FA50194016D817E818F8198851B
:105230000F94354181110EC011E0A30192016091DC
:10524000C00F7091C10F8091C20F9091C30F0F9446
:105250003541811110E0D1012D913D914D915C912D
:1052600029873A874B875C87F701C080D180E2802D
:10527000F38020910102309102024091030250918B
:105280000402C701B6010F943541882309F44EC0CA
:10529000C0920102D0920202E0920302F092040254
:1052A0008091C80F9091C90FA091CA0FB091CB0FF8
:1052B0004091C00F5091C10F6091C20F7091C30F08
:1052C0008092530790925407A0925507B0925607C8
:1052D00040935707509358076093590770935A07A4
:1052E000C0925B07D0925C07E0925D07F0925E0788
:1052F00080935F0790936007A0936107B093620764
:1053000020E030E040E05FE360919F0F7091A00FDC
:105310008091A10F9091A20F0F949B4169837A8392
:105320008B839C83CE0101960E94DEDA2D813E8123
:105330004F81588520935307309354074093550766
:10534000509356074092570750925807609259075A
:1053500070925A07D1012D913D914D915C916091D0
:105360005F077091600780916107909162070F94C9
:10537000274860935F07709360078093610790935D
:10538000620711112FC020E030E0A90169857A85FC
:105390008B859C850F943541811133C060E070E0AE
:1053A00088EC92E469837A838B839C83CE01019697
:1053B0000E94DEDA2C960FB6F894DEBF0FBECDBF8A
:1053C000DF91CF911F91FF90EF90DF90CF90BF9032
:1053D000AF909F908F907F906F905F904F903F9095
:1053E0002F9008952AEF3EE74AE25FE36091A30F12
:1053F0007091A40F8091A50F9091A60F0F949B41DF
:10540000D1CF60E070E080EA91E4CCCF8091BB0323
:105410009091BC03009731F04AE050E070E060E00A
:105420000D94503F60E070E0CB0108958091BB0384
:105430009091BC03009731F04AE050E070E060E0EA
:105440000D94223E60E070E0CB010895EF92FF9250
:105450000F931F93CF93DF9300D000D000D01F9203
:105460001F92CDB7DEB77C012091B804422F022EE7
:10547000000C550B8091B904833099F1843051F1BF
:1054800088E092E25F932F939F938F938E010F5F3B
:105490001F4F1F930F930F94CC40C7010E942DBD47
:1054A0004FE350E0B8018CED96E00F949A4B0F90CB
:1054B0000F900F900F900F900F902B960FB6F894BF
:1054C000DEBF0FBECDBFDF91CF911F910F91FF9037
:1054D000EF90089584E192E227FDD4CF8FEF91E21F
:1054E000D1CF8DE192E2CECFE091BD0485E1E8021B
:1054F000F0011124EC56FB4E868197810C94262AEC
:10550000E091BD0486E0E802F0011124E25EF84F6C
:10551000808191810C94262A382F10925007809117
:105520003B0790913C07A0913D07B0913E07B7FF24
:1055300008C010923B0710923C0710923D07109252
:105540003E0720913B072093300710924B07809134
:105550002B071816ECF4082E000C990B831B9109ED
:10556000022E000C330B2817390794F097FF02C066
:1055700090E080E080933007092E000CAA0BBB0B53
:1055800080933B0790933C07A0933D07B0933E0761
:10559000809130076623A9F090913107891714F4A0
:1055A0008093310720913107022E000C330B2D5FC1
:1055B0003F4F482F082E000C550B241735071CF4BD
:1055C00083508093310708958F929F92AF92BF923C
:1055D000EF92FF920F931F93CF93DF93EC018B0118
:1055E000E42EF22E8091F4149091F5148C179D07FF
:1055F00009F44BC020919A0427FD10929A0422EFDF
:10560000C13DD20709F04CC08C589E4571F40F94EF
:10561000E91C6E517B4F8F4F9F4F60939C0470939A
:105620009D0480939E0490939F04D093F514C0939F
:10563000F41430E020E000933B0710933C072093E4
:105640003D0730933E07E0923107F0922B07CC588C
:10565000DE4521F41092BC0410929B0486EF94E185
:105660000F942D2381E02091F4143091F5142C58DF
:105670003E4509F080E00E94C92782E080936B02DA
:1056800081E080934B071092AA04DF91CF911F9184
:105690000F91FF90EF90BF90AF909F908F900895E3
:1056A0002EE5CC38D20709F0C0CF815D924F19F0BA
:1056B000CCE8DEE5BACF0F94E91C80909C04909072
:1056C0009D04A0909E04B0909F04681979098A09EE
:1056D0009B0997FFEDCF8091D8068770873041F7FF
:1056E000C4E0DBEAA2CF81E08093BC041092D8062C
:1056F0001092C60420E040E070E060E084EA96E3A7
:105700000E94E42A86EE96E29093DB068093DA0606
:10571000089520E040E070E060E08CE597E30E94AF
:10572000E42A81E08093AD048091AE04811107C02A
:105730008EE990E29093DB068093DA06089584EA7E
:1057400090E2F8CFE0919B04E63010F581E08E0FF7
:1057500080939B0440913B0750913C0760913D072B
:1057600070913E079091310780912B0728E0E29FCE
:10577000F0011124E659FB4F2091F4143091F514F7
:105780003183208342835383648375839683878325
:10579000089520E040E070E060E08CE89EE50C9425
:1057A000E42A0E94C92B84EF94E29093DB06809355
:1057B000DA0608956111609314024093B7048C30A7
:1057C00008F03AC0E82F880FFF0B8827E551F44D09
:1057D0008F4F0D941E481E2CF72B022C212C052CCC
:1057E000082C0B2C172C0E2C1C2C112C142C89E69D
:1057F00096E321E02093BC0420E040E070E060E00C
:105800000C94E42A81E796E3F4CF85E796E3F1CFA1
:1058100089E796E3EECF8DE796E3EBCF81E896E359
:10582000E8CF85E896E3E5CF89E896E3E2CF1092EA
:10583000B60480E29AE4DDCF0C94C92B85E696E3AA
:10584000D8CF8DE696E3D5CFCF930E94A5DD0E94F9
:105850007FB9C82F882319F080E00E94F5F58C2FBE
:105860000E940825CF910C94C92B0F931F93CF93BF
:10587000DF93CDB7DEB76E970FB6F894DEBF0FBEDD
:10588000CDBF282F082E000C330B90910F024091B2
:1058900010028F3F39F0F901EE0FFF1FEF5EFD4F51
:1058A000908141814F939F933F938F9380EC9EE132
:1058B0009F938F938E010F5F1F4F1F930F930F9432
:1058C000CC404FE350E0B8018CED96E00F949A4B3A
:1058D0000E94C92B0FB6F894DEBF0FBECDBF6E96E7
:1058E0000FB6F894DEBF0FBECDBFDF91CF911F91F1
:1058F0000F9108958FEF0C94352C8091BD040C947A
:10590000352CE0919B04EE2389F0E150E0939B0459
:1059100088E0E89FF0011124E659FB4F6281738112
:1059200027814681808191810C94E42A0C94C92BB3
:105930008091BD04803210F40E948C230E94FC24CC
:105940000C94812C1092BC040C94812CCF93DF9387
:10595000CDB7DEB78E8190916004891778F080937F
:1059600060049E01275F3F4F4F81588560E570E0DE
:105970008FE094E00F94FC400F94221DDF91CF91B3
:105980000895809313028032B8F59091B504891779
:1059900024F091E0980F9093B5044091B104509198
:1059A000B2046091B3047091B404082E04C07695DB
:1059B0006795579547950A94D2F741704093710FB8
:1059C00087FD1DC0282F082E000C330B3F938F93AB
:1059D00084E599E09F938F9384E699E09F938F935A
:1059E0001F920E94A62C8DB79EB707960FB6F8940B
:1059F0009EBF0FBE8DBF08951092710FE1CF0D9421
:105A000048150F931F930F94E91C00917A08109189
:105A10007B0820917C0830917D08601B710B820B04
:105A2000930B97FD0CC086B186FB882780F991E027
:105A30008927349B8260329B846080937E088091AA
:105A40007E08817090917E0891FD826090910E0495
:105A5000981749F0813009F148F0823079F08330AD
:105A600091F080930E041F910F910895913079F079
:105A70009230B9F790910D0491500CC0992339F0F0
:105A80009330C1F3EECF9130A9F3923051F790915A
:105A90000D049F5F90930D04E4CF992359F3933045
:105AA00001F7F5CFCF92DF92EF92FF92CF93C82FFD
:105AB0000F94E91C6B017C0124EA30E74DE75FE3BA
:105AC0006091150270911602809117029091180250
:105AD0000F94354187FD18C08AEF90E0A0E0B0E058
