:100000000C9409350C943A350C943A350C943A35E5
:100010000C943A350C943A350C943A350C943A35A4
:100020000C943A350C943A350C943A350C943A3594
:100030000C943A350D94698E0C943A350C943A35FB
:100040000C943A350D946F280C943A350C943A354B
:100050000C943A350C943A350D9436250D941F8E38
:100060000C943A350C94D28B0C94C88B0C943A3582
:100070000C943A350C943A350C943A350C943A3544
:100080000C94B0660C943A350C943A350C943A358D
:100090000C943A350C943A350C943A350C943A3524
:1000A0000C943A350C943A350C9482660C943A359B
:1000B0000C943A350C943A350C943A350C943A3504
:1000C0000C943A350C943A350C943A350C943A35F4
:1000D0000C943A350C943A350C943A350C943A35E4
:1000E0000C943A35084AD73B3BCE016E84BCBFFD29
:1000F000C12F3D6C74319ABD56833DDA3D00C77FF8
:1001000011BED9E4BB4C3E916BAAAABE0000008090
:100110003F05A84CCDB2D44EB93836A9020C50B91F
:10012000918688083CA6AAAA2ABE000000803F0744
:10013000634236B79BD8A71A39685618AEBAAB5582
:100140008C1D3CB7CC5763BD6DEDFD753EF6177247
:1001500031BF000000803F08000000BE9224491219
:100160003EABAAAA2ABECDCCCC4C3E00000080BE3D
:10017000ABAAAAAA3E00000000BF000000803F001A
:1001800000000000084178D3BB4387D1133D190E0E
:100190003CC3BD4282AD2B3E68EC8276BED98FE176
:1001A000A93E4C80EFFFBE01C4FF7F3F000000006E
:1001B00000000D94BC150C9454EE0D9413880C940F
:1001C0008A8C0C94C6D50C94D5410D94FC040D94E6
:1001D000E90B0C94ECDE0D94741B0D9471150D94C9
:1001E00099880C94A0500C945DE70C9431660D94A2
:1001F0005D020D940C150C940BE30C9422CF0D941E
:10020000D1880C94C0D50D948C080C9486EF0C9476
:1002100049E30D9426150D94D8100C94AED50C948A
:10022000F0CF0D94BA870D94C0870C943FE60C94E0
:100230004BD10C9437DF0D94B6870C9487CE0C9479
:100240000FDA0C9420F50C9424CE0D94B3880C9402
:100250009D690C946EEF0D949E870C9428F50C9478
:100260002DDB0C94EDFE0C9436E60C944ECF0C94E2
:100270009B400C9429FE0C94F2EE0D94AD150C9459
:100280006E4A0D94AB880C94EDEC0C94B7DD0C9495
:1002900081CA0C947ACA0C94C9DF0C9416660C942B
:1002A000B2DD0C94F5EC0D9489870C9482E20C94E9
:1002B0000BCE0D9408890D947BA10C9413CF0D9453
:1002C0006E870C942CF50C940A8C0C94CECE0D9465
:1002D00059090C9465CE0C948AD50D94C4870C945E
:1002E000A8D50D9491870C9476EE0C941CF50C9483
:1002F00067D60C94DED90D9462190C94B4D50D9484
:1003000033150D94E1190C94FDEC0C942AF50D9421
:10031000FE880C94F1EC0C94E2F60C94BDCF0D9495
:10032000B31B0C9424D00D9400880D9499A10D94C6
:10033000A3880C949ACE0C946E6B0C94A2D50C945A
:10034000E1CE0D9429150C9432F10C94648C0C942C
:1003500001ED0C94D9690C9420ED0D9436150C9494
:1003600056D00D94F61A0C948CE20C947DEF0D94FB
:10037000861B0C9448C80C946A350C9457E10C9475
:10038000326A0C9492CB0C94B5CE0D94AD000C94C3
:1003900089F50C9457E20C94B2D30C947DF50C942F
:1003A0005C8C0C944FE10C9422F50C945EEE0C9452
:1003B0000DD30C9405ED0C94E8CF0D941A150C9404
:1003C000C9CF0C949E360C9478E20D94A4870C94BB
:1003D000E5CB0D9426170C94C6E80C94F6C70C9444
:1003E000966A0C9487E20C9408F40C9468E70D94D8
:1003F00031150C9435CF0D942C150C9490D50D948B
:10040000906C0C94DDEC0C9467660C94CAE20C942E
:100410002CEF0D94DB1A0D94761A0D94C7880C946A
:100420009BF60C94688C0C947DE20C94518C0D948A
:100430009D6C0C9426F50C9492E50C945EE90C945A
:100440006FD00D94A8870C9493D00C94E6DE0C9496
:10045000338C0C94828C0D94E0880C949DCB0C947E
:10046000B6DF0D945E030C94FACE0C9493400C947A
:1004700027E80C94EE5A0C94FDC70C94ADDD0C9457
:10048000F7DA0C9465FB0D941D150D9412890C94EC
:1004900071CA0C949CE50C94DCCB0D94E7100D9480
:1004A0007D1C0D94FB180C946C8C0C9478D50C94DA
:1004B000E1EC0C9451D20C9424F50D9428A10C94E9
:1004C000608C0D9478880C94BAD50D94EA880D94BC
:1004D000458F0C94ABE20D94971A0C9496480C94AB
:1004E0006CFA0D94580B0D9423150C9488D00C9431
:1004F00096D50D94EA0E0C9453350C9497E50D9413
:100500009E6C0D94BD880C949CD50C94D4E50D94F0
:100510008F880C944C660C94428C0C94588C0C94E0
:1005200047DC0C941EF50C9497400C94E3E50D9475
:1005300094870C948C410C94E5EC0D94A8170C94C2
:1005400051E10C94778C0C946D350D94AC870C9420
:10055000956B0D94376F0C947ED50C9484D50C94C8
:10056000B4CF0D9485870C9438FD0D9417150C9419
:10057000E9EC0C94FDF80C945CE10C94EA460C94C4
:10058000FECB0C94D95F0C943C350C944DE10C944B
:1005900065CF0C943DD00C943DCE0C9429D60C9490
:1005A000708C0D9480880D949A870D9473870D94A8
:1005B000FE190C942FF50C946FCB0C9440C90C943D
:1005C0002AE30C947FDC0C944CCE0D94B2870D94EE
:1005D000636C0C9474CE0D9420150D94F4880C94D7
:1005E0003BEA0C94F9EC0D948D870D9485884E416F
:1005F0004E494E495459494E46CDCCCC3D0AD7239D
:100600003C17B7D13877CC2B329595E6241FB14FE4
:100610000A000020410000C84200401C4620BCBE29
:100620004CCA1B0E5AAEC59D7400407A10F35A0096
:10063000A0724E18090010A5D4E80000E87648170B
:100640000000E40B54020000CA9A3B000000E1F5F0
:1006500005000080969800000040420F000000A0B6
:100660008601000000102700000000E803000000E1
:10067000006400000000000A00000000000100000B
:100680000000002C76D888DC674F0823DFC1DFAE7E
:1006900059E1B1B796E5E3E453C63AE65199769647
:1006A000E8E6C28426EB898C9B62ED407C6FFCEF10
:1006B000BC9C9F40F2BAA56FA5F490055A2AF75C3E
:1006C000936B6CF9676DC11BFCE0E40D47FEF520F0
:1006D000E6B500D0ED902E030094357705008084B8
:1006E0001E080000204E0A000000C80C33333333CC
:1006F0000F986E12831141EF8D2114893BE6551638
:10070000CFFEE6DB18D1844B381BF77C1D901DA46F
:10071000BBE424203284725E228100C9F124ECA162
:10072000E53D27363726033C3D380E2E303E121A63
:100730001C180AFF4309070844000124F404D920C7
:100740001BC40C5C0E9804C4095F0265077101F4B8
:1007500005F900FB04B30048048700C10369005891
:1007600003550003034500BE023A008402310053E2
:10077000022A002902250004022000E4011C00C80E
:10078000011900AF011700980114008401130071D2
:100790000110006101100051010E0043010D0036EF
:1007A000010B002B010B0020010B00150109000CAF
:1007B00001090003010800FB000800F3000800EB3A
:1007C000000700E4000600DE000600D8000600D2A4
:1007D000000600CC000500C7000500C2000500BDF2
:1007E000000400B9000400B5000400B1000400AD2D
:1007F000000400A9000400A5000300A20003009F5C
:100800000004009B00030098000300950002009381
:10081000000300900003008D0002008B000300889D
:100820000002008600020084000300810002007FB5
:100830000002007D0002007B0002007900020077C8
:1008400000010076000200740002007200010071D5
:100850000002006F0002006D0001006C0002006ADF
:1008600000010069000200670001006600010065E8
:1008700000010064000200620001006100010060EC
:100880000001005F0002005D0001005C0001005BF0
:100890000001005A000100590001005800010057F2
:1008A00000010056000100550001005400010053F2
:1008B00000000053000100520001005100010050EF
:1008C0000001004F0001004E0000004E0001004DED
:1008D0000001004C0001004B0000004B0001004AE9
:1008E00000010049000100480000004800010047E5
:1008F00000010046000000460001004500000045E0
:1009000000010044000100430000004300010042D8
:1009100000000042000100410000004100010040D1
:100920000001003F0000003F0001003E0000003ECB
:100930000001003D0000003D0001003C0000003CC3
:100940000000003C0001003B0000003B0001003AB9
:100950000000003A000100390000003900010038B1
:1009600000000038000000380001003700000037A8
:10097000000100360000003600000036000100359E
:100980000000003500000035000100340000003494
:100990000000003400010033000000330000003389
:1009A000000100320000003200000032000100317E
:1009B0000000003100000031000100300000003074
:1009C000000000300001002F0000002F0000002F69
:1009D0000000002F0001002E0000002E0000002E5D
:1009E0000001002D0000002D0000002D0000002D52
:1009F0000001002C0000002C0000002C0000002C46
:100A00000001002B0000002B0000002B0000002B39
:100A10000001002A0000002A0000002A0000002A2D
:100A20000001002900000029000000290000002921
:100A30000000002900010028000000280000002814
:100A40000000002800000028000100270000002707
:100A500000000027000000270000002700010026FA
:100A600000000026000000260000002600000026EE
:100A700000010025000000250000002500000025E1
:100A800000000025000000250001002400000024D3
:100A900000000024000000240000002400010023C6
:100AA00000000023000000230000002300000023BA
:100AB00000000023000000230001002200000022AB
:100AC000000000220000002200000022000000229E
:100AD0000001002100000021000000210000002191
:100AE0000000002100000021000000210001002082
:100AF0000000002000000020000000200000002076
:100B00000000002000000020000000200001001F65
:100B10000000001F0000001F0000001F0000001F59
:100B20000000001F0000001F0001001E0000001E4A
:100B30000000001E0000001E00000024F4D430500D
:100B4000C38E20C2A24017828B7011127A910D8140
:100B50006CD90AA861E108C7586607615143061EAF
:100B60004B5D05C145A7041A411104093D98037165
:100B70003931034036DB0265339102D430540280B0
:100B80002E1D02632CEE01752AC501B028A00110AC
:100B90002781018F2564012B244B01E0223401AC15
:100BA000211F018D200D01801FFC00841EED009788
:100BB0001DDF00B81CD200E61BC600201BBC006471
:100BC0001AB200B219A8000A19A0006A189900D137
:100BD00017910040178B00B516840031167E00B3C4
:100BE0001579003A157300C7146F0058146A00EEA7
:100BF0001366008813630025135E00C7125B006C48
:100C000012570015125400C111510070114F0021EC
:100C1000114B00D61049008D1047004610440002C9
:100C2000104200C00F4000800F3E00420F3C000603
:100C30000F3B00CB0E3800930E37005C0E350027BB
:100C40000E3400F30D3200C10D3100900D30006004
:100C50000D2E00320D2D00050D2C00D90C2B00AEF1
:100C60000C2900850C29005C0C2700350C27000E90
:100C70000C2600E80B2400C40B2400A00B23007DED
:100C80000B23005A0B2100390B2100180B2000F810
:100C90000A1F00D90A1E00BB0A1E009D0A1D008003
:100CA0000A1D00630A1C00470A1B002C0A1B0011C6
:100CB0000A1A00F7091A00DD091900C4091900AB66
:100CC000091900920917007B091800630917004CE5
:100CD00009160036091600200916000A091500F544
:100CE000081500E0081400CC081400B8081400A48B
:100CF000081400900813007D0812006B08130058B8
:100D000008120046081200340811002308110012CE
:100D100008110001081100F0071000E0071000D0D2
:100D2000071000C0071000B0070F00A107100091C6
:100D3000070E0083070F0074070F0065070E0057AA
:100D4000070E0049070E003B070D002E070E00207E
:100D5000070D0013070D0006070D00F9060C00ED46
:100D6000060D00E0060C00D4060C00C8060C00BC02
:100D7000060C00B0060C00A4060B0099060C008DB2
:100D8000060B0082060B0077060B006C060B006159
:100D9000060A0057060B004C060A0042060A0038F5
:100DA000060A002E060A0024060A001A060A001087
:100DB00006090007060A00FD050900F4050900EB15
:100DC000050900E2050900D9050900D0050900C799
:100DD000050900BE050900B5050800AD050800A518
:100DE0000509009C050800940508008C050800848E
:100DF0000508007C050800740508006C05070065FF
:100E00000508005D050700560508004E0507004768
:100E10000507004005080038050700310507002ACE
:100E2000050700230507001C050600160507000F2F
:100E30000507000805060002050700FB040600F58B
:100E4000040700EE040600E8040600E2040700DBE5
:100E5000040600D5040600CF040600C9040600C33A
:100E6000040600BD040600B7040600B1040500AC8A
:100E7000040600A6040600A00405009B04060095D5
:100E8000040500900406008A04050085040500801E
:100E90000406007A04050075040500700405006B63
:100EA00004050066040500610405005C04050057A4
:100EB000040500520405004D0405004804050043E4
:100EC0000405003E0404003A040500350405003022
:100ED0000404002C04050027040400230405001E5C
:100EE0000404001A04040016040500110404000D93
:100EF000040400090405000404040000040400FCC8
:100F0000030400F8030400F4030400F0030400ECFD
:100F1000030400E8030400E4030400E0030400DC2D
:100F2000030400D8030400D4030400D0030400CC5D
:100F3000030400C8030300C5030300726F746174E7
:100F4000696F6E206D61747269783A0A0024F40446
:100F5000D9201BC40C5C0E9804C4095F026507719C
:100F600001F405F900FB04B30048048700C10369DC
:100F7000005803550003034500BE023A00840231C5
:100F80000053022A002902250004022000E4011C6B
:100F900000C8011900AF0117009801140084011363
:100FA00000710110006101100051010E0043010D9C
:100FB0000036010B002B010B0020010B001501096D
:100FC000000C01090003010800FB000800F3000801
:100FD00000EB000700E4000600DE000600D8000673
:100FE00000D2000600CC000500C7000500C20005C5
:100FF00000BD000400B9000400B5000400B1000405
:1010000000AD000400A9000400A5000300A2000335
:10101000009F0004009B000300980003009500025D
:101020000093000300900003008D0002008B00037A
:101030000088000200860002008400030081000294
:10104000007F0002007D0002007B000200790002A8
:1010500000770001007600020074000200720001B7
:1010600000710002006F0002006D0001006C0002C0
:10107000006A0001006900020067000100660001CB
:1010800000650001006400020062000100610001CF
:1010900000600001005F0002005D0001005C0001D3
:1010A000005B0001005A00010059000100580001D6
:1010B00000570001005600010055000100540001D6
:1010C00000530000005300010052000100510001D4
:1010D00000500001004F0001004E0000004E0001D2
:1010E000004D0001004C0001004B0000004B0001CE
:1010F000004A0001004900010048000000480001CA
:1011000000470001004600000046000100450000C5
:1011100000450001004400010043000000430001BD
:1011200000420000004200010041000000410001B7
:1011300000400001003F0000003F0001003E0000B1
:10114000003E0001003D0000003D0001003C0000A9
:10115000003C0000003C0001003B0000003B00019F
:10116000003A0000003A0001003900000039000197
:10117000003800000038000000380001003700008F
:101180000037000100360000003600000036000184
:10119000003500000035000000350001003400007B
:1011A0000034000000340001003300000033000070
:1011B0000033000100320000003200000032000164
:1011C000003100000031000000310001003000005B
:1011D0000030000000300001002F0000002F000050
:1011E000002F0000002F0001002E0000002E000044
:1011F000002E0001002D0000002D0000002D000039
:10120000002D0001002C0000002C0000002C00002C
:10121000002C0001002B0000002B0000002B000020
:10122000002B0001002A0000002A0000002A000014
:10123000002A000100290000002900000029000008
:1012400000290000002900010028000000280000FB
:1012500000280000002800000028000100270000EE
:1012600000270000002700000027000000270001E1
:1012700000260000002600000026000000260000D6
:1012800000260001002500000025000000250000C8
:1012900000250000002500000025000100240000BA
:1012A00000240000002400000024000000240001AD
:1012B00000230000002300000023000000230000A2
:1012C0000023000000230000002300010022000092
:1012D0000022000000220000002200000022000086
:1012E0000022000100210000002100000021000078
:1012F0000021000000210000002100000021000169
:10130000002000000020000000200000002000005D
:10131000002000000020000000200000002000014C
:10132000001F0000001F0000001F0000001F000041
:10133000001F0000001F0000001F0001001E000031
:10134000001E0000001E0000001E00000024F4D457
:101350003050C38E20C2A24017828B7011127A9136
:101360000D816CD90AA861E108C75866076151432D
:10137000061E4B5D05C145A7041A411104093D989D
:1013800003713931034036DB0265339102D43054A6
:1013900002802E1D02632CEE01752AC501B028A023
:1013A00001102781018F2564012B244B01E0223499
:1013B00001AC211F018D200D01801FFC00841EED5A
:1013C00000971DDF00B81CD200E61BC600201BBC26
:1013D00000641AB200B219A8000A19A0006A18998C
:1013E00000D117910040178B00B516840031167E8E
:1013F00000B31579003A157300C7146F0058146ACA
:1014000000EE1366008813630025135E00C7125BAD
:10141000006C12570015125400C111510070114F89
:101420000021114B00D61049008D10470046104492
:101430000002104200C00F4000800F3E00420F3CEF
:1014400000060F3B00CB0E3800930E37005C0E35C4
:1014500000270E3400F30D3200C10D3100900D3025
:1014600000600D2E00320D2D00050D2C00D90C2B27
:1014700000AE0C2900850C29005C0C2700350C27D8
:10148000000E0C2600E80B2400C40B2400A00B2344
:10149000007D0B23005A0B2100390B2100180B2073
:1014A00000F80A1F00D90A1E00BB0A1E009D0A1D73
:1014B00000800A1D00630A1C00470A1B002C0A1B3F
:1014C00000110A1A00F7091A00DD091900C40919E8
:1014D00000AB091900920917007B0918006309176E
:1014E000004C09160036091600200916000A0915D5
:1014F00000F5081500E0081400CC081400B8081422
:1015000000A4081400900813007D0812006B081353
:101510000058081200460812003408110023081170
:10152000001208110001081100F0071000E0071078
:1015300000D0071000C0071000B0070F00A107106F
:101540000091070E0083070F0074070F0065070E58
:101550000057070E0049070E003B070D002E070E2F
:101560000020070D0013070D0006070D00F9060CFB
:1015700000ED060D00E0060C00D4060C00C8060CB9
:1015800000BC060C00B0060C00A4060B0099060C6B
:10159000008D060B0082060B0077060B006C060B15
:1015A0000061060A0057060B004C060A0042060AB4
:1015B0000038060A002E060A0024060A001A060A47
:1015C000001006090007060A00FD050900F40509D8
:1015D00000EB050900E2050900D9050900D005095D
:1015E00000C7050900BE050900B5050800AD0508DE
:1015F00000A50509009C050800940508008C050855
:1016000000840508007C050800740508006C0507C7
:1016100000650508005D050700560508004E050732
:101620000047050700400508003805070031050799
:10163000002A050700230507001C050600160507FC
:10164000000F0507000805060002050700FB040659
:1016500000F5040700EE040600E8040600E20407B3
:1016600000DB040600D5040600CF040600C904060A
:1016700000C3040600BD040600B7040600B104055B
:1016800000AC040600A6040600A00405009B0406A6
:101690000095040500900406008A040500850405F1
:1016A00000800406007A0405007504050070040536
:1016B000006B04050066040500610405005C040578
:1016C0000057040500520405004D040500480405B8
:1016D00000430405003E0404003A040500350405F7
:1016E00000300404002C0405002704040023040532
:1016F000001E0404001A040400160405001104046A
:10170000000D04040009040500040404000004049E
:1017100000FC030400F8030400F4030400F00304D5
:1017200000EC030400E8030400E4030400E0030405
:1017300000DC030400D8030400D4030400D0030435
:1017400000CC030400C8030300C503030024F40411
:10175000D9201BC40C5C0E9804C4095F0265077194
:1017600001F405F900FB04B30048048700C10369D4
:10177000005803550003034500BE023A00840231BD
:101780000053022A002902250004022000E4011C63
:1017900000C8011900AF011700980114008401135B
:1017A00000710110006101100051010E0043010D94
:1017B0000036010B002B010B0020010B0015010965
:1017C000000C01090003010800FB000800F30008F9
:1017D00000EB000700E4000600DE000600D800066B
:1017E00000D2000600CC000500C7000500C20005BD
:1017F00000BD000400B9000400B5000400B10004FD
:1018000000AD000400A9000400A5000300A200032D
:10181000009F0004009B0003009800030095000255
:101820000093000300900003008D0002008B000372
:10183000008800020086000200840003008100028C
:10184000007F0002007D0002007B000200790002A0
:1018500000770001007600020074000200720001AF
:1018600000710002006F0002006D0001006C0002B8
:10187000006A0001006900020067000100660001C3
:1018800000650001006400020062000100610001C7
:1018900000600001005F0002005D0001005C0001CB
:1018A000005B0001005A00010059000100580001CE
:1018B00000570001005600010055000100540001CE
:1018C00000530000005300010052000100510001CC
:1018D00000500001004F0001004E0000004E0001CA
:1018E000004D0001004C0001004B0000004B0001C6
:1018F000004A0001004900010048000000480001C2
:1019000000470001004600000046000100450000BD
:1019100000450001004400010043000000430001B5
:1019200000420000004200010041000000410001AF
:1019300000400001003F0000003F0001003E0000A9
:10194000003E0001003D0000003D0001003C0000A1
:10195000003C0000003C0001003B0000003B000197
:10196000003A0000003A000100390000003900018F
:101970000038000000380000003800010037000087
:10198000003700010036000000360000003600017C
:101990000035000000350000003500010034000073
:1019A0000034000000340001003300000033000068
:1019B000003300010032000000320000003200015C
:1019C0000031000000310000003100010030000053
:1019D0000030000000300001002F0000002F000048
:1019E000002F0000002F0001002E0000002E00003C
:1019F000002E0001002D0000002D0000002D000031
:101A0000002D0001002C0000002C0000002C000024
:101A1000002C0001002B0000002B0000002B000018
:101A2000002B0001002A0000002A0000002A00000C
:101A3000002A000100290000002900000029000000
:101A400000290000002900010028000000280000F3
:101A500000280000002800000028000100270000E6
:101A600000270000002700000027000000270001D9
:101A700000260000002600000026000000260000CE
:101A800000260001002500000025000000250000C0
:101A900000250000002500000025000100240000B2
:101AA00000240000002400000024000000240001A5
:101AB000002300000023000000230000002300009A
:101AC000002300000023000000230001002200008A
:101AD000002200000022000000220000002200007E
:101AE0000022000100210000002100000021000070
:101AF0000021000000210000002100000021000161
:101B00000020000000200000002000000020000055
:101B10000020000000200000002000000020000144
:101B2000001F0000001F0000001F0000001F000039
:101B3000001F0000001F0000001F0001001E000029
:101B4000001E0000001E0000001E00000024F4D44F
:101B50003050C38E20C2A24017828B7011127A912E
:101B60000D816CD90AA861E108C758660761514325
:101B7000061E4B5D05C145A7041A411104093D9895
:101B800003713931034036DB0265339102D430549E
:101B900002802E1D02632CEE01752AC501B028A01B
:101BA00001102781018F2564012B244B01E0223491
:101BB00001AC211F018D200D01801FFC00841EED52
:101BC00000971DDF00B81CD200E61BC600201BBC1E
:101BD00000641AB200B219A8000A19A0006A189984
:101BE00000D117910040178B00B516840031167E86
:101BF00000B31579003A157300C7146F0058146AC2
:101C000000EE1366008813630025135E00C7125BA5
:101C1000006C12570015125400C111510070114F81
:101C20000021114B00D61049008D1047004610448A
:101C30000002104200C00F4000800F3E00420F3CE7
:101C400000060F3B00CB0E3800930E37005C0E35BC
:101C500000270E3400F30D3200C10D3100900D301D
:101C600000600D2E00320D2D00050D2C00D90C2B1F
:101C700000AE0C2900850C29005C0C2700350C27D0
:101C8000000E0C2600E80B2400C40B2400A00B233C
:101C9000007D0B23005A0B2100390B2100180B206B
:101CA00000F80A1F00D90A1E00BB0A1E009D0A1D6B
:101CB00000800A1D00630A1C00470A1B002C0A1B37
:101CC00000110A1A00F7091A00DD091900C40919E0
:101CD00000AB091900920917007B09180063091766
:101CE000004C09160036091600200916000A0915CD
:101CF00000F5081500E0081400CC081400B808141A
:101D000000A4081400900813007D0812006B08134B
:101D10000058081200460812003408110023081168
:101D2000001208110001081100F0071000E0071070
:101D300000D0071000C0071000B0070F00A1071067
:101D40000091070E0083070F0074070F0065070E50
:101D50000057070E0049070E003B070D002E070E27
:101D60000020070D0013070D0006070D00F9060CF3
:101D700000ED060D00E0060C00D4060C00C8060CB1
:101D800000BC060C00B0060C00A4060B0099060C63
:101D9000008D060B0082060B0077060B006C060B0D
:101DA0000061060A0057060B004C060A0042060AAC
:101DB0000038060A002E060A0024060A001A060A3F
:101DC000001006090007060A00FD050900F40509D0
:101DD00000EB050900E2050900D9050900D0050955
:101DE00000C7050900BE050900B5050800AD0508D6
:101DF00000A50509009C050800940508008C05084D
:101E000000840508007C050800740508006C0507BF
:101E100000650508005D050700560508004E05072A
:101E20000047050700400508003805070031050791
:101E3000002A050700230507001C050600160507F4
:101E4000000F0507000805060002050700FB040651
:101E500000F5040700EE040600E8040600E20407AB
:101E600000DB040600D5040600CF040600C9040602
:101E700000C3040600BD040600B7040600B1040553
:101E800000AC040600A6040600A00405009B04069E
:101E90000095040500900406008A040500850405E9
:101EA00000800406007A040500750405007004052E
:101EB000006B04050066040500610405005C040570
:101EC0000057040500520405004D040500480405B0
:101ED00000430405003E0404003A040500350405EF
:101EE00000300404002C040500270404002304052A
:101EF000001E0404001A0404001604050011040462
:101F0000000D040400090405000404040000040496
:101F100000FC030400F8030400F4030400F00304CD
:101F200000EC030400E8030400E4030400E00304FD
:101F300000DC030400D8030400D4030400D003042D
:101F400000CC030400C8030300C503030070012C88
:101F50000190012701B0012201C0011D01F001180B
:101F6000011002130130020E016002090190020407
:101F700001C002FF000003FA004003F5008003F0F7
:101F800000D003EB002004E6007004E100E004DC74
:101F9000004005D700C005D2004006CD00D006C8DD
:101FA000008007C3003008BE00F008B900C009B4C3
:101FB00000B00AAF00B00BAA00D00CA500000EA024
:101FC00000500F9B00C01096005012910000148C1E
:101FD00000C0158700B0178200B0197D00D01B78B3
:101FE00000001E730040206E0090226900F02464FF
:101FF0000040275F0090295A00E02B5500102E501A
:102000000020304B0010324600E033410090353C58
:10201000001037370070383200A0392D00B03A2850
:1020200000A03B2300603C1E00103D1900903D14B1
:1020300000103E0F00703E0A00C03E0500003F0049
:1020400000403FFBFF803FF6FFC03FF1FF1000C99B
:102050000210012C014001220170011801B0010E93
:1020600001F00104015002FA00B002F0003003E672
:1020700000D003DC009004D2007005C800A006BEAA
:10208000000008B400B009AA00D00BA000600E96B2
:102090000060118C000015820020197800C01D6EB0
:1020A00000A0226400B0275A00902C500000314656
:1020B00000E0343C0010383200903A2800603C1EAA
:1020C00000A03D1400803E0A00203F00005A5F6DD2
:1020D0006F76655F636F6D700A004732385800474E
:1020E000323859004732385A004732384F0A4D3497
:1020F0003820503130004D38340047323950345296
:102100003939395400473239503454004732380A8B
:1021100047323643504930004732380A4732364357
:10212000504931004732394A300047323950335430
:1021300030004732395032425430004732380A4D6D
:1021400031393049300A4D31303949300A47323956
:1021500050310A4D31303453300A4D313430533020
:10216000004732380A4D31393049310A4D31303962
:1021700049310A47323950310A4D31303453300A2F
:102180004D3134305330004732394E5031004732F0
:102190003950314300473239490047323954300011
:1021A000473239543100473239532D3100473239E3
:1021B000493939390A4732395032425430004732AE
:1021C000394E50310047323950335430004732399C
:1021D0005034523939395400473239503452393930
:1021E00039540047323944004732394100473239C7
:1021F0005700417869732000206D696E3A00206DA8
:1022000061783A00416363656C65726174696F6EF1
:10221000206C696D697465642E0A00464153540050
:10222000534C4F5700050000060100040006010052
:10223000060500000006000400434F4D4D554E4971
:10224000434154494F4E0044525952554E00455255
:10225000524F525300494E464F004543484F0045A8
:1022600072726F722077726974696E6720746F2062
:10227000454550524F4D210A0053544F505045444C
:102280002E20005072696E7465722073746F7070C6
:1022900065642064756520746F206572726F727357
:1022A0002E2046697820746865206572726F7220EE
:1022B000616E6420757365204D39393920746F2043
:1022C000726573746172742E202854656D70657226
:1022D00061747572652069732072657365742E2050
:1022E0005365742069742061667465722072657329
:1022F00074617274696E67290A004E6F20436865C5
:10230000636B73756D2077697468206C696E6520E6
:102310006E756D6265722C204C617374204C696E11
:10232000653A20004E6F20436865636B73756D20BE
:1023300077697468206C696E65206E756D62657270
:102340002C204C617374204C696E653A20006368E0
:1023500065636B73756D206D69736D617463682C53
:10236000204C617374204C696E653A20004C696E94
:1023700065204E756D626572206973206E6F7420E2
:102380004C617374204C696E65204E756D62657288
:102390002B312C204C617374204C696E653A2000FF
:1023A0004D3131300053657269616C207374617412
:1023B0007573206D69736D617463680A0077616974
:1023C000740A0053442072656164206572726F72F2
:1023D0000A00486F74656E642049646C6520546916
:1023E0006D656F757400486F74656E642049646C28
:1023F000652054696D656F75740A002121204B4971
:102400004C4C20636175736564206279204B494CA4
:102410004C20627574746F6E2F70696E0A002121F2
:10242000204B494C4C2063617573656420627920B0
:10243000746F6F206D75636820696E61637469766F
:10244000652074696D65202D2063757272656E74E8
:1024500020636F6D6D616E643A20004D6564696143
:102460002052656D6F766564004D65646961204931
:102470006E736572746564004D31303030530062A4
:102480007573793A2070617573656420666F722088
:10249000696E7075740A00627573793A207061759F
:1024A00073656420666F7220757365720A006275C9
:1024B00073793A2070726F63657373696E670A008F
:1024C000506C6561736520526573657400505249A4
:1024D0004E5445522048414C5445440025533A201F
:1024E000255300706F7765726F6666004B494C4CE0
:1024F00045442E20005072696E7465722068616CCC
:102500007465642E206B696C6C28292063616C6C87
:102510006564210A0053544F505045442E2000500A
:1025200072696E7465722073746F70706564206474
:10253000756520746F206572726F72732E20466904
:102540007820746865206572726F7220616E6420F5
:10255000757365204D39393920746F207265737435
:102560006172742E202854656D7065726174757285
:10257000652069732072657365742E20536574201D
:102580006974206166746572207265737461727417
:10259000696E67290A006563686F3A004572726F59
:1025A000723A00204A0020204D3432312049002068
:1025B0002047323920493939390A00616374697614
:1025C000650A00696E00002053797374656D20768A
:1025D000312E303120002020207C0A004E414E0058
:1025E00020202E20202000207C004C43443A0A006A
:1025F0004353563A0A0020666F7220003A0A0A00D6
:102600000A42656420546F706F6772617068792048
:102610005265706F72740050726F62696E67204607
:1026200061696C65640A0050726F62696E6720466A
:1026300061696C656400205A3A200020593A2000F4
:1026400042656420583A20004732384C3000446FCD
:102650006E652E0A003F496E76616C696420737462
:102660006F7261676520736C6F742E0A3F557365D6
:10267000203020746F20003F454550524F4D20734D
:10268000746F72616765206E6F7420617661696C2A
:1026900061626C652E0A00446F6E652E0A003F4928
:1026A0006E76616C69642073746F72616765207304
:1026B0006C6F742E0A3F557365203020746F2000B4
:1026C0003F454550524F4D2073746F7261676520CE
:1026D0006E6F7420617661696C61626C652E0A00B0
:1026E0004732392050322066696E69736865642EFE
:1026F0000A005859206F7574736964652070726997
:102700006E7461626C65207261646975732E0A0073
:102710003F4572726F7220696E20427573696E65F3
:1027200073732043617264206D6561737572656DAA
:10273000656E742E0A004D616E75616C6C79207047
:10274000726F62696E6720756E726561636861623F
:102750006C6520706F696E74732E0A00292E0A0A48
:102760000050726F62696E672061726F756E6420CF
:1027700028004D65736820696E76616C69646174C8
:1027800065642E2050726F62696E67206D65736894
:102790002E0A004D657368207A65726F65642E0A93
:1027A0000044656661756C742073746F726167654F
:1027B00020736C6F7420302073656C65637465647E
:1027C0002E0A004C6F6164696E6720746573745FD4
:1027D0007061747465726E2076616C7565732E0A13
:1027E0000A00496E76616C696420746573745F7069
:1027F00061747465726E2076616C75652E20282D6B
:102800003120746F2032290A0A0020696E76616CCB
:102810006964617465642E0A0A004C6F63617469AF
:102820006F6E7300456E74697265204D6573680044
:102830005374616E64617264204465766961746981
:102840006F6E3A20004D65616E204D6573682048BB
:1028500065696768743A200023206F662073616D94
:10286000706C65733A20000A4D657368206F6E6C5A
:1028700079207061727469616C6C7920706F707509
:102880006C617465642E0A0A0050726F62696E672B
:1028900020506F696E740025532025692F2569002B
:1028A0002E0A002F0050726F62696E67206D65738B
:1028B0006820706F696E74200020616E64207461FE
:1028C0006B652061206D6561737572656D656E74F1
:1028D0002E0A006D6D20746869636B2E0A004275C4
:1028E00073696E657373204361726420697320009D
:1028F00052656D6F76652026204D65617375726532
:10290000204265640052656D6F7665207368696D5D
:1029100000506C616365207368696D20756E646535
:1029200072206E6F7A7A6C65000A4D657368206F4D
:102930006E6C79207061727469616C6C7920706F53
:1029400070756C617465642E0A004D657368205063
:102950006F696E74204D6561737572656420617472
:102960003A20004D65617375726500506C61636556
:10297000205368696D2026204D656173757265006E
:102980004D6F76696E6720746F206E657874004DA8
:102990006573682045646974696E672053746F704D
:1029A00070656400446F6E652045646974696E6784
:1029B000204D6573680A00446F6E65204564697434
:1029C000696E67204D6573680046696E65205475B1
:1029D0006E696E67204D6573680028582C59292050
:1029E0006F757473696465207072696E7461626C6E
:1029F00065207261646975732E0A004F666673659F
:102A000074206F7574206F6620626F756E64732E0C
:102A100020283020746F2031306D6D290A0A00495A
:102A20006E76616C6964206D617020747970652EBA
:102A30000A0A003F2846296164652068656967685D
:102A40007420666F7220426564204C6576656C2048
:102A5000436F7272656374696F6E206E6F7420705D
:102A60006C61757369626C652E0A0A003F43616E82
:102A7000277420616374697661746520616E6420D7
:102A8000646561637469766174652061742074683B
:102A9000652073616D652074696D652E0A0A0042B8
:102AA0006F7468205820262059206C6F6361746908
:102AB0006F6E73206D75737420626520737065632B
:102AC00069666965642E0A0A003F496E76616C6921
:102AD0006420677269642073697A6520284A292016
:102AE0007370656369666965642028322D39292E03
:102AF0000A0A003F285029686173652076616C7569
:102B00006520696E76616C69642028302D36292E27
:102B10000A0A003F2856296572626F7365206C654A
:102B200076656C20696D706C61757369626C652087
:102B300028302D34292E0A0A003F28522965706555
:102B4000746974696F6E20636F756E7420696E7638
:102B5000616C69642028312B292E0A0A00446F69B0
:102B60006E67204732390034222F222A2225225D27
:102B70000A0062656420706C616E65206E6F726D14
:102B8000616C203D205B00436F756C64206E6F7438
:102B900020636F6D706C657465204C534621004353
:102BA0006F727265637465645F5A3D00255320251A
:102BB000692F2569000A0A002F0054696C74696E38
:102BC00067206D65736820706F696E7420003F45E3
:102BD00072726F722070726F62696E6720706F69B7
:102BE0006E742E2041626F7274696E67206F70651B
:102BF000726174696F6E2E0A00436F72726563743E
:102C000065645F5A3D00255320332F330054696CAF
:102C100074696E67206D6573682028332F33290A25
:102C200000436F727265637465645F5A3D0025539B
:102C300020322F330054696C74696E67206D6573A0
:102C4000682028322F33290A00436F72726563743B
:102C500065645F5A3D0054696C74696E6720506FFB
:102C6000696E7400255320312F330054696C7469E8
:102C70006E67206D6573682028312F33290A006440
:102C80006F6E650A00496E73756666696369656E85
:102C90007420646174610A000000803F66663242FD
:102CA0006666B042CCCC034366662F4300005B43AC
:102CB0000000803F666632426666B042CCCC034379
:102CC00066662F4300005B434578747261706F6CD9
:102CD0006174696E67206D6573682E2E2E00212148
:102CE0002053544F502063616C6C656420626563AF
:102CF00061757365206F6620424C546F7563682060
:102D00006572726F72202D20726573746172742007
:102D100077697468204D3939390A002121205354CC
:102D20004F502063616C6C656420626563617573EC
:102D300065206F6620424C546F756368206572721F
:102D40006F72202D207265737461727420776974BC
:102D500068204D3939390A005072696E74696E679E
:102D6000204F626A656374002553202569002F2F68
:102D7000616374696F6E3A00737461727400656E9A
:102D80006400486F74656E6420746F6F20636F6CAD
:102D9000640A0053656E64204D31303820746F2012
:102DA000726573756D650A00496E7365727420668D
:102DB000696C616D656E7420616E642073656E640C
:102DC000204D3130380A0052656865617420446FC7
:102DD0006E6500526568656174696E672E2E2E00FF
:102DE0005265686561740048656174657220546954
:102DF0006D656F75740053656E64204D31303820F9
:102E0000746F2068656174206E6F7A7A6C650A0051
:102E10004E6F7A7A6C65205061726B6564007061E8
:102E20007573656400506175736500726573756DC7
:102E300065640070726F6D70745F0073686F770007
:102E4000627574746F6E00626567696E00507572AA
:102E500067654D6F726500506175736564004C6FF6
:102E600061642046696C616D656E74205400496E22
:102E7000736572742066696C616D656E7420616E35
:102E8000642073656E64204D3130380A00526573DA
:102E9000756D696E67004732362043616E63656CFD
:102EA0006564004732362048656174696E67204E5C
:102EB0006F7A7A6C65004732362048656174696EB6
:102EC00067204265640057616974696E6720666FA8
:102ED00072206865617475702E0A004669786564B1
:102EE000204C656E677468205072696D6500446F90
:102EF0006E65205072696D696E67004D616E756117
:102F00006C207072696D696E672E2E2E004C6561A3
:102F100076696E6720473236003F53706563696695
:102F200069656420582C5920636F6F7264696E6103
:102F30007465206F7574206F6620626F756E6473A0
:102F40002E0A003F28522965706561742076616CF5
:102F50007565206E6F7420706C61757369626C6545
:102F60003B206D757374206265206174206C65610F
:102F7000737420312E0A003F53706563696669657A
:102F800064206E6F7A7A6C652074656D706572610D
:102F900074757265206E6F7420706C6175736962F0
:102FA0006C652E0A003F537065636966696564202D
:102FB00066696C616D656E742073697A65206E6FE9
:102FC0007420706C61757369626C652E0A003F53E2
:102FD0007065636966696564207072696D65206CEF
:102FE000656E677468206E6F7420706C61757369AC
:102FF000626C652E0A003F5370656369666965649B
:10300000206E6F7A7A6C652073697A65206E6F74B2
:1030100020706C61757369626C652E0A003F5265A1
:103020007472616374696F6E204D756C7469706C35
:10303000696572206D7573742062652073706563B5
:1030400069666965642E0A003F5370656369666945
:1030500065642052657472616374696F6E204D758A
:103060006C7469706C696572206E6F7420706C612D
:10307000757369626C652E0A003F537065636966FB
:10308000696564206C617965722068656967687438
:10309000206E6F7420706C61757369626C652E0AA6
:1030A0000043292E0A003F537065636966696564B1
:1030B000206265642074656D7065726174757265F7
:1030C000206E6F7420706C61757369626C65202866
:1030D00034302D00473236207374617274696E6724
:1030E0002E2E2E0A004F46460A004661646520488F
:1030F00065696768742000426564204C6576656C7C
:10310000696E6720004661696C656420746F206594
:103110006E61626C6520426564204C6576656C6901
:103120006E670A00496E76616C6964206D6573682C
:103130002E0A0076616C69640A53746F7261676568
:1031400020736C6F743A2000696E004D65736820BF
:10315000697320003F557365203020746F20003F55
:10316000496E76616C69642073746F726167652063
:10317000736C6F742E0A003F454550524F4D2073BB
:10318000746F72616765206E6F7420617661696C1F
:1031900061626C652E0A00446576696174696F6EC0
:1031A0000025533A2025730046696E69736865648B
:1031B000210A003A207A3A2000206F662000476FEB
:1031C000696E6720746F3A20580043570A002064E4
:1031D00069723A0020616E676C653A0053746172DF
:1031E00074207261646975733A004D343820506FF1
:1031F000696E740025533A2025642F256400506FB2
:10320000736974696F6E696E672074686520707287
:103210006F62652E2E2E0A003F4C656773206F6625
:10322000206D6F76656D656E7420696D706C61756B
:103230007369626C652028302D3135292E0A003FD4
:103240002028582C5929206F7574206F6620626FD2
:10325000756E64732E0A0050726F6265206F75740C
:10326000206F6620626F756E6473003F53616D70EE
:103270006C652073697A65206E6F7420706C61755F
:103280007369626C652028342D3530292E0A004D73
:103290003438205A2D50726F626520526570656116
:1032A000746162696C69747920546573740A003FB3
:1032B0002856296572626F7365206C6576656C208F
:1032C000696D706C61757369626C652028302D348E
:1032D000292E0A005374616E64617264204465761D
:1032E000696174696F6E3A20002052616E67653AB9
:1032F0002000204D61783A2000204D696E3A200070
:10330000205369676D613A20004D65616E3A200077
:103310005741524E494E4721204C6F77205A204A40
:1033200065726B206D6179206C65616420746F201B
:10333000756E77616E746564207061757365732E48
:103340000A0020204D61783A2000200020204D699D
:103350006E3A2000536F667420656E6473746F70EC
:10336000733A20004D32342053256C642054256C70
:1033700064004739322E39204525730047312046F5
:103380002564004739322E39205A257300473120F1
:103390005A302046323030004731205825732059AA
:1033A0002573204633303030004D343230205325E1
:1033B00069205A2573004D3130362050256920533D
:1033C0002569004D32303020442573004732385291
:1033D000305859004739322E39204530205A300AAA
:1033E00047315A2573004D31303920532569004D3E
:1033F00031393020532569004D343230205330208C
:103400005A300020496E76616C6964206578747268
:1034100075646572200047322F4733206261642053
:10342000706172616D65746572730A00536C6565D5
:10343000702E2E2E005A2050726F626520506173DC
:1034400074204265640A005A2050726F62652050F1
:103450006173742042656400205A3A200020593A72
:10346000200042656420583A20004D657368207042
:103470006F696E74206F7574206F662072616E675D
:10348000650A004D302053746F70004D3120537425
:103490006F7000436F6E74696E756500436C69638D
:1034A0006B20746F20526573756D652E2E2E004E45
:1034B0006F204D6F76652E00456E642066696C65E1
:1034C000206C6973740A00426567696E2066696CD6
:1034D00065206C6973740A004E6F206D65646961C4
:1034E0000A00526573756D696E6720534400286E3B
:1034F0006F2066696C65290043757272656E742071
:1035000066696C653A20005072696E742074696D4A
:10351000653A20000A53746174733A2046696C61FD
:103520006D656E7420757365643A20002C204C6FB5
:103530006E67657374206A6F623A2000546F74611D
:103540006C2074696D653A200053746174733A207D
:10355000002C204661696C65643A20002C20466985
:103560006E69736865643A20005072696E74733ACC
:10357000200053746174733A2000436F6F6C696E5E
:10358000672E2E2E0048656174696E672E2E2E0000
:1035900045202553006F6B006F6666005A22552246
:1035A0004E224722392244454255473A004D313197
:1035B0003320530042656420436F6F6C696E672E41
:1035C0002E2E004265642048656174696E672E2E58
:1035D0002E00544D334420456E64657234204F46AE
:1035E000462E002F2F004D31343520533C696E6438
:1035F00065783E206F7574206F662072616E676516
:103600002028302D31290A00205200416363656C67
:1036100065726174696F6E3A2050004D3230362009
:10362000580046523A0020466C6F773A20003A2004
:103630000020536572766F2000206F7574206F66CE
:103640002072616E67650A00536572766F200020F4
:10365000643A0020693A0020703A00496E76616C45
:1036600069642065787472756465720A0020643A32
:103670000020693A0020703A0064697300656E00AA
:1036800043290A0061626C656420286D696E2074AC
:10369000656D702000436F6C64206578747275648A
:1036A00065732061726520004D65736820706F69D5
:1036B0006E74206F7574206F662072616E67650A84
:1036C000004D34323120696E636F7272656374200D
:1036D000706172616D657465722075736167650AEA
:1036E000004F666673657473204170706C69656421
:1036F000004572723A20546F6F2066617221005447
:103700006F6F206661722066726F6D2072656665EC
:1037100072656E636520706F696E740A004545506E
:10372000524F4D204F4B0A002E0A002028302D31D9
:103730003029002076616C7565206F7574206F6686
:103740002072616E676500416476616E6365204B2F
:103750003D004F4646004F4E00506F7765722D6C0E
:103760006F7373207265636F7665727920004D38D0
:103770003400446F6E65207072696E74696E6720E4
:1037800066696C650A004D3737004D33310043617F
:10379000703A004D4541545041434B00434F4F4C0C
:1037A00045525F54454D5045524154555245004392
:1037B00048414D4245525F54454D50455241545544
:1037C000524500424142595354455050494E4700DA
:1037D00041524353004D4F54494F4E5F4D4F444566
:1037E0005300544845524D414C5F50524F5445434D
:1037F00054494F4E004C4F4E475F46494C454E4151
:103800004D45004155544F5245504F52545F53441B
:103810005F5354415455530053445F5752495445E4
:1038200000524550454154005344434152440050D6
:10383000524F4D50545F535550504F525400454DC8
:10384000455247454E43595F5041525345520043FC
:103850004153455F4C494748545F42524947485499
:103860004E45535300544F47474C455F4C494748DA
:10387000545300534F4654574152455F504F57459C
:1038800052004255494C445F50455243454E540006
:103890004C4556454C494E475F44415441005A5FA0
:1038A00050524F42450052554E4F555400415554C9
:1038B0004F4C4556454C005052494E545F4A4F427A
:1038C0000050524F4752455353004155544F5245B3
:1038D000504F52545F54454D5000564F4C554D4536
:1038E0005452494300454550524F4D0042494E41C4
:1038F00052595F46494C455F5452414E53464552DA
:103900000053455249414C5F584F4E5F584F464611
:10391000004649524D574152455F4E414D453A4D43
:1039200061726C696E20322E302E375F4457372E0D
:10393000332E3120544D3344204534534D444255A9
:103940002028417072203239203230323120323317
:103950003A30373A31322920534F555243455F436D
:103960004F44455F55524C3A68747470733A2F2F28
:103970006769746875622E636F6D2F496E73616E2F
:103980006974794175746F6D6174696F6E2F4D61E3
:10399000726C696E2F747265652F437265616C6914
:1039A00074794477696E5F322E302050524F544FF5
:1039B000434F4C5F56455253494F4E3A312E3020BB
:1039C0004D414348494E455F545950453A544D3353
:1039D0004420456E64657234204558545255444520
:1039E000525F434F554E543A3120555549443A633E
:1039F000656465326132662D343161322D3437347D
:103A0000382D396231322D633535633632663336BF
:103A10003766660A0050726F6265204F666673658E
:103A200074205A0050726F6265204F666673657429
:103A3000205A00290A0020746F20003F5A206F7519
:103A400074206F662072616E6765202800290A0065
:103A500020746F20003F59206F7574206F662072AC
:103A6000616E676520282D00290A0020746F2000F0
:103A70003F58206F7574206F662072616E676520F5
:103A8000282D0050726F6265204F66667365742042
:103A9000580043616E6E6F74206F70656E20737591
:103AA0006264697220002569730025696D202569AB
:103AB00073002569682025696D20256973002569D3
:103AC00064202569682025696D20256973002569B2
:103AD0007920256964202569682025696D2025697C
:103AE000730023646566696E652044454641554C04
:103AF000545F00626564004B6420004B6920004BFA
:103B0000702000504944204175746F74756E6520B3
:103B100066696E69736865642120507574207468E5
:103B200065206C617374204B702C204B6920616E92
:103B300064204B6420636F6E7374616E74732066CF
:103B4000726F6D2062656C6F7720696E746F2043B1
:103B50006F6E66696775726174696F6E2E680A00B0
:103B6000504944204175746F74756E6520666169B3
:103B70006C6564212074696D656F75740A00504925
:103B800044204175746F74756E65206661696C655B
:103B900064212054656D706572617475726520745E
:103BA0006F6F20686967680A00204B643A20002024
:103BB0004B693A2000204B703A200020436C61731F
:103BC00073696320504944200A00204E6F206F76AD
:103BD000657273686F6F740A002054753A20002074
:103BE0004B753A2000206D61783A2000206D696E97
:103BF0003A200020643A200020626961733A200074
:103C0000504944204175746F74756E6520737461FA
:103C100072740A00504944204175746F74756E6562
:103C2000206661696C6564212054656D7065726100
:103C30007475726520746F6F20686967680A005038
:103C40004944204175746F74756E65005049442075
:103C50004175746F74756E65206661696C65642169
:103C600020426164206865617465722069640A009D
:103C7000A10000006900A20000006300B000000085
:103C80000900C10000004100C20000004100C30063
:103C900000004100C40000004100C50000004100D8
:103CA000C60000004145C70000004300C8000000F6
:103CB0004500C90000004500CD0000004900D100CA
:103CC00000004E00D50000004F00D60000004F005D
:103CD000D70000007800DC0000005500DD00000087
:103CE0005900E00000006100E10000006100E20016
:103CF00000006100E30000006100E40000006100DA
:103D0000E50000006100E60000006165E7000000DA
:103D10006300E80000006500E90000006500EA00BB
:103D200000006500EB0000006500EC000000690089
:103D3000ED0000006900EE0000006900EF000000E7
:103D40006900F10000006E00F20000006F00F30057
:103D500000006F00F40000006F00F50000006F002D
:103D6000F60000006F00F80000006F00F90000008E
:103D70007500FA0000007500FB0000007500FC00F3
:103D800000007500FD0000007900FF0000007900D0
:103D9000040100004100050100006100060100006F
:103DA00043000701000063000C01000043000D0107
:103DB000000063000E01000044000F0100006400D9
:103DC0001101000064001901000065001A010000E3
:103DD00045001B01000065001F0100006700300165
:103DE00000004900310100006900410100004C0061
:103DF000420100006C00430100004E00440100003D
:103E00006E00480100006E00580100005200590188
:103E1000000072005A01000053005B0100007300B3
:103E20005F010000730060010000530061010000A9
:103E300073006501000074006F01000075007C01D3
:103E400000007A007D0100005A007E0100007A0027
:103E5000920100006600E3020000780022200000CA
:103E60002E001E210000507822210000544D902188
:103E700000003C2D922100002D3EB02100000300E7
:103E8000BB21000004003C2200007E00482200000C
:103E90007E3D60220000213D612200003D00642241
:103EA00000003C3D652200003E3DF123000007007C
:103EB000A03000003D0021F301000200C2F4010027
:103EC0000500A2000000EC00B0000000DF00E400EC
:103ED0000000E100F6000000EF00F7000000FD0028
:103EE000FC000000F500E3020000EB008703000087
:103EF000A5008F030000F40098030000F2009E0369
:103F00000000E300A3030000F600A9030000F40092
:103F1000AC030000E000AD030000E300B1030000CB
:103F2000E000B2030000E200B5030000E300B803C4
:103F30000000F200BC030000E400BE030000E30048
:103F4000C0030000F700C1030000E600C303000047
:103F5000E500902100007F00922100007E001A22DF
:103F60000000E8001E220000F30088250000FF008A
:103F700002300000A1000C300000A2000D30000053
:103F8000A3009B300000DE009C300000DF00A0306A
:103F900000003D00A1300000A700A2300000B100E9
:103FA000A3300000A800A4300000B200A53000003B
:103FB000A900A6300000B300A7300000AA00A83076
:103FC0000000B400A9300000AB00AA300000B5002A
:103FD000AB300000B600AC300000B6DEAD30000003
:103FE000B700AE300000B7DEAF300000B800B03030
:103FF0000000B8DEB1300000B900B2300000B9DE18
:10400000B3300000BA00B4300000BADEB5300000B2
:10401000BB00B6300000BBDEB7300000BC00B830DB
:104020000000BCDEB9300000BD00BA300000BDDECB
:10403000BB300000BE00BC300000BEDEBD30000062
:10404000BF00BE300000BFDEBF300000C000C03087
:104050000000C0DEC1300000C100C2300000C1DE7F
:10406000C3300000AF00C4300000C200C530000003
:10407000C2DEC6300000C300C7300000C3DEC83057
:104080000000C400C9300000C4DECA300000C50012
:10409000CB300000C600CC300000C700CD3000009F
:1040A000C800CE300000C900CF300000CA00D030B8
:1040B0000000CADED1300000CADFD2300000CB00E1
:1040C000D3300000CBDED4300000CBDFD530000091
:1040D000CC00D6300000CCDED7300000CCDFD830AA
:1040E0000000CD00D9300000CDDEDA300000CDDF99
:1040F000DB300000CE00DC300000CEDEDD30000022
:10410000CEDFDE300000CF00DF300000D000E03036
:104110000000D100E1300000D200E2300000D30006
:10412000E3300000AC00E4300000D400E5300000D3
:10413000AD00E6300000D500E7300000AE00E8300A
:104140000000D600E9300000D700EA300000D800B7
:10415000EB300000D900EC300000DA00ED30000058
:10416000DB00EF300000DC00F2300000A600F3308E
:104170000000DD00F4300000B3DEF7300000DCDECC
:10418000FA300000A6DEFB300000A500FC30000085
:10419000B000FD300000A400074E0000FB00865177
:1041A0000000FC0043530000FA0064FF0000A4007C
:1041B00065FF0000A50066FF0000A60067FF000085
:1041C000A70068FF0000A80069FF0000A9006AFFBF
:1041D0000000AA006BFF0000AB006CFF0000AC0009
:1041E0006DFF0000AD006EFF0000AE006FFF00002D
:1041F000AF0070FF0000B00071FF0000B10072FF5F
:104200000000B20073FF0000B30074FF0000B400B0
:1042100075FF0000B50076FF0000B60077FF0000D4
:10422000B70078FF0000B80079FF0000B9007AFFFE
:104230000000BA007BFF0000BB007CFF0000BC0058
:104240007DFF0000BD007EFF0000BE007FFF00007C
:10425000BF0080FF0000C00081FF0000C10082FF9E
:104260000000C20083FF0000C30084FF0000C40000
:1042700085FF0000C50086FF0000C60087FF000024
:10428000C70088FF0000C80089FF0000C9008AFF3E
:104290000000CA008BFF0000CB008CFF0000CC00A8
:1042A0008DFF0000CD008EFF0000CE008FFF0000CC
:1042B000CF0090FF0000D00091FF0000D10092FFDE
:1042C0000000D20093FF0000D30094FF0000D40050
:1042D00095FF0000D50096FF0000D60097FF000074
:1042E000D70098FF0000D80099FF0000D9009AFF7E
:1042F0000000DA009BFF0000DB009CFF0000DC00F8
:104300009DFF0000DD009EFF0000DE009FFF00001B
:10431000DF00E5FF00005C00001C1F11111F000002
:104320000006191803130C00040E1F041C000000E3
:1043300000101010101010000014141414141400A5
:104340000015151515151500000E1315110E00009A
:104350001C10181705060500040A0A0A0A11110E96
:104360000C12120C00000000001F1511151F000098
:1043700042656400456E636C6F73757265002568F5
:10438000753A25303268750025303268753A253027
:10439000326875002D2D2D00534400202020202050
:1043A00020200020202020006E6F74696669636100
:1043B00074696F6E2000544D334420456E646572FD
:1043C000342052656164792E005072696E74696E92
:1043D000672E2E2E006E6F74696669636174696F53
:1043E0006E200063616E63656C005072696E7420AC
:1043F00041626F72746564004469736D6973730020
:1044000055492041626F72746564004D3235205009
:104410000A4D3234005072696E74205061757365B4
:104420006400526573756D65005549205061757360
:10443000650050617573696E672E2E2E007265736C
:10444000756D65004D32340050726F6265205A20E0
:104450004F6666736574004C6F6164206D6D005526
:104460006E6C6F6164206D6D0046696C2E2044692E
:10447000612E004520696E206D6D5E3300416476CB
:10448000616E6365204B004D33303320553120453C
:1044900025692053256900554E4C4F41442046491B
:1044A0004C414D454E54004C4F41442046494C41EF
:1044B0004D454E540046494C414D454E54204348CD
:1044C000414E47450041425300504C410050494441
:1044D000204175746F74756E65202A005049442D13
:1044E00044202A005049442D49202A005049442D97
:1044F00050202A0020022046616374002002204DD3
:104500006178002002204D696E004F6666004F6E94
:10451000004175746F74656D700056547261762039
:104520004D696E00566D696E00566D6178204500CC
:10453000566D6178205A00566D6178205900566D8D
:104540006178205800416D6178204500416D6178A7
:10455000205A00416D6178205900416D61782058E2
:1045600000412D54726176656C00412D5265747264
:1045700061637400416363656C0056652D4A657222
:104580006B00565A2D4A65726B0056592D4A65725A
:104590006B0056582D4A65726B0050726F62652031
:1045A0005A204F66667365740050726F62652059B9
:1045B000204F66667365740050726F6265205820E4
:1045C0004F666673657400452073746570732F6D54
:1045D0006D005A2053746570732F6D6D0059205310
:1045E000746570732F6D6D00582053746570732F50
:1045F0006D6D00416476616E63656420536574740B
:10460000696E6773003F0043616E63656C00496EBD
:104610006974004D34323800496E697469616C699F
:104620007A6520454550524F4D0046696C616D6575
:104630006E740054656D70657261747572650053B7
:10464000746570732F6D6D0050726F6265204F66D8
:104650006673657473004A65726B00416363656CD1
:1046600065726174696F6E0056656C6F6369747909
:104670000053657420486F6D65204F6666736574DE
:104680007300436F6E66696775726174696F6E005F
:104690003F004E65787420506F696E7400446F6EF1
:1046A00065004E657874003F0043616E63656C2061
:1046B0004F626A656374004E4F0059455300436171
:1046C0006E63656C204F626A656374203D004D61C6
:1046D000696E0053746F77004465706C6F79005396
:1046E000572D4D6F64650053656C662D546573746A
:1046F00000526573657400426564004E6F7A7A6C8F
:10470000650046616E20537065656400436F6E6698
:10471000696775726174696F6E00526573746F7248
:10472000652044656661756C7473004C6F6164202C
:1047300053657474696E67730053746F72652053A8
:10474000657474696E677300507265686561742082
:104750002420436F6E66004F6666004F6E00506FF8
:10476000776572204F757461676500424C546F75B0
:1047700063680050726F6265205A204F66667365E9
:104780007400416476616E63656420536574746976
:104790006E6773004D61696E004D373032205425CD
:1047A00064004D36303020423020542564004D37AF
:1047B0003032203B2564004D3730312054256400D1
:1047C000436F6E74696E7565005075726765206D14
:1047D0006F726500524553554D45204F5054494F17
:1047E0004E533A005052494E54205041555345447F
:1047F0000020204E6F7A7A6C653A20005061726B0F
:10480000696E672E2E2E0000005761697420666F56
:10481000720066696C616D656E74206368616E67B5
:104820006500746F2073746172740057616974203D
:10483000666F720066696C616D656E7420756E6C72
:104840006F616400004E6F7A7A6C652068656174F0
:10485000696E6700506C6561736520776169742EBD
:104860002E2E0000507265737320627574746F6E23
:1048700000746F2068656174206E6F7A7A6C6500D1
:1048800000496E736572742066696C616D656E7443
:1048900000616E6420707265737320627574746F4A
:1048A0006E00746F20636F6E74696E75650057617A
:1048B000697420666F720066696C616D656E742044
:1048C0006C6F61640000507265737320427574747C
:1048D0006F6E00746F20726573756D6520707269FC
:1048E0006E7400005761697420666F72207072697F
:1048F0006E7400746F20726573756D652E2E2E00B8
:10490000005761697420666F720066696C616D653D
:104910006E7420707572676500003E2000256C641F
:104920002E25696D00457874727564656420546F36
:1049300074616C003E20004C6F6E67657374204A92
:104940006F622054696D65003E2000546F74616C85
:10495000205072696E742054696D6500436F6D70EC
:104960006C65746564003A20005072696E7420436F
:104970006F756E74003A20003135300035004245C5
:10498000443A204154432031303447542D320052B0
:10499000756E617761792057617463683A204F4E74
:1049A000004D61782054656D7000333135004D69DC
:1049B0006E2054656D7000350045313A20455043F6
:1049C0004F53203130304B005053550047656E65D2
:1049D0007269630050726F746F636F6C00312E30B8
:1049E000004261756400323530303030004372650A
:1049F000616C69747933442052414D505300556EB7
:104A0000696669656420426564204C6576656C69F9
:104A10006E67004578747275646572730031007456
:104A2000696E796D616368696E657333642E636F57
:104A30006D00544D334420456E646572340032304D
:104A400032312D30342D313800322E302E375F4444
:104A500057372E332E31004D61726C696E005072E3
:104A6000696E746572205374617473005468657262
:104A70006D6973746F727300426F61726420496E66
:104A8000666F005072696E74657220496E666F00C1
:104A90004D61696E004D313030300053746F7020BD
:104AA0005072696E7400526573756D65205072693D
:104AB0006E7400506F776572204F75746167650082
:104AC0004D3139305335350A4732380A473239507B
:104AD000310A47323950330A47323953310A4732A3
:104AE0003953300A47323946302E300A473239417D
:104AF0000A4D313034533231350A4732380A4D319C
:104B00003039533231350A47315831353059313522
:104B10003046353030300A47315A300A4D35303062
:104B20000A4D3430300A4D31313720536574205AE4
:104B3000204F6666736574004D313036533132381C
:104B40000A4D3330334338533231354530550A4DF1
:104B50003530300A4D313137205049442054756E7C
:104B60006520446F6E65004D3139305335350A4D3F
:104B7000313034533231350A4732380A4732394CF2
:104B8000310A4731205831303059313030463530D4
:104B900030300A47315A30004D3530300A4D31310E
:104BA000372053657474696E67732053746F726530
:104BB00064005072657020666F72205A2041646AEA
:104BC000757374005049442054756E650053746FBA
:104BD00072652053657474696E67730053657475EC
:104BE00070004D61696E003F004261636B00537459
:104BF0006F70004368616E67652046696C616D6522
:104C00006E74005072656865617420437573746FCB
:104C10006D00507265686561742024004261636BA9
:104C2000005072696E742066726F6D204D65646904
:104C300061004368616E6765204D65646961004D80
:104C400032310041626F7574205072696E74657202
:104C5000004368616E67652046696C616D656E74BE
:104C6000004D363030204230004C6576656C696E00
:104C70006720546F6F6C7300436F6E66696775725F
:104C80006174696F6E0054656D70657261747572E0
:104C900065004D6F74696F6E00486F7374205374B4
:104CA000617274004E6F204D6564696100526573D6
:104CB000756D65205072696E740043616E63656C3A
:104CC000204F626A6563740054756E650053746F9B
:104CD00070205072696E7400506175736520507257
:104CE000696E7400496E666F2053637265656E006D
:104CF0003F005374617274205072696E7400436196
:104D00006E63656C005072696E740043616E6E6F05
:104D10007420656E746572207375626469723A20DE
:104D200000052E2E004D61696E002100486F7465EC
:104D30006E6420746F6F20636F6C64004261636BFC
:104D40000050726F63656564004F6666004F6E00C9
:104D5000536F667420456E6473746F7073004D6F8B
:104D600074696F6E0044697361626C652053746589
:104D70007070657273004D3834004D3438205072B5
:104D80006F62652054657374004732384F0A4D34A2
:104D90003820503130004C6576656C20436F726E60
:104DA00065727300556E69666965642042656420AA
:104DB0004C6576656C696E6700486F6D65205A00BA
:104DC0004732385A00486F6D6520590047323859CC
:104DD00000486F6D6520580047323858004175749F
:104DE0006F20486F6D65004D61696E005072656897
:104DF00065617420242042656400507265686561B5
:104E000074202420456E640054656D706572617471
:104E100075726500436F6F6C646F776E00507265DA
:104E20006865617420240046616E20537065656476
:104E3000207E00426564004E6F7A7A6C65004D6199
:104E4000696E0050726F6265205A204F6666736506
:104E50007400416476616E6365204B00466C6F7729
:104E60000046616E205370656564207E0042656473
:104E7000004E6F7A7A6C65005370656564004D6111
:104E8000696E005A2056616C7565004732380A4DCC
:104E9000313930205325690A4D3130392053256985
:104EA0000A473239205031004265642054656D70E4
:104EB00000486F74656E642054656D70002E25691E
:104EC000004732395036432D0048656967687420C1
:104ED000416D6F756E740041646A757374204D6521
:104EE0007368204865696768740046696E65205478
:104EF000756E6520436C6F7365737400473239506B
:104F000034540046696E652054756E6520416C6CA2
:104F10000047323950345239393954004732380A4F
:104F200047323643504825694225690056616C690D
:104F30006461746520437573746F6D204D6573688B
:104F4000004732380A473236435049310056616CC7
:104F50006964617465204D657368202824290047C1
:104F600032380A47323643504930004732394A25F1
:104F700069004C6576656C204D6573680053696403
:104F80006520506F696E74730047726964204D65C7
:104F90007368204C6576656C696E6700332D506FC1
:104FA000696E74204C6576656C696E6700473239AE
:104FB0004A3000473239503352432E2569004D6143
:104FC0006E75616C2046696C6C2D696E00473239D4
:104FD000503242543000536D6172742046696C6CDB
:104FE0002D696E00473239503354300046696C6C7D
:104FF0002D696E20416D6F756E74004D657368206C
:10500000696E76616C6964617465642E0A00C944D6
:10501000C544496E666F2053637265656E00496EC4
:1050200076616C696461746520436C6F7365737439
:10503000004732394900496E76616C696461746574
:1050400020416C6C00436F6E74696E75652042651B
:1050500064204D657368004732395031430046691A
:105060006C6C2D696E204D657368004275696C64C7
:1050700020436F6C64204D657368004732394E5091
:1050800031004275696C6420437573746F6D204DF7
:10509000657368004732380A4D31393049310A4D5D
:1050A00031303949310A47323950310A4D313034C3
:1050B00053300A4D3134305330004275696C6420EE
:1050C0004D65736820282429004732380A4D31394C
:1050D0003049300A4D31303949300A473239503180
:1050E0000A4D31303453300A4D313430533000479B
:1050F0003239256325690A4D31313720004D6573FA
:1051000068202569204C6F61646564004D65736893
:1051100020256920536176656400536176652042DD
:105120006564204D657368004C6F6164204265645E
:10513000204D657368004D656D6F727920536C6FFB
:1051400074004E6F2053746F726167650047323987
:10515000503458257359257352256900202D2D2D63
:105160002D2D005A3A00593A00486F6D696E67203C
:1051700058595A00473238004F6666205072696E9F
:10518000746572204261636B757000473239532D2C
:1051900031004F757470757420666F7220435356DA
:1051A000004732395431004F757470757420666F42
:1051B0007220486F7374004732395430004D657364
:1051C00068204C6576656C696E670045646974207B
:1051D0004D6573680056616C6964617465204D6546
:1051E0007368004D616E75616C6C79204275696CF5
:1051F00064204D65736800473239493939390A47A7
:1052000032395032425430004275696C64204D6529
:10521000736800372E205361766520426564204D07
:1052200065736800362E2046696E652054756E657C
:1052300020416C6C004732395034523939395400AE
:10524000352E2056616C6964617465204D65736804
:1052500000342E2046696E652054756E6520416CC1
:105260006C004732395034523939395400332E20CA
:1052700056616C6964617465204D65736800322EF7
:1052800020536D6172742046696C6C2D696E004705
:1052900032395033543000312E204275696C64200D
:1052A000436F6C64204D657368004732394E50314E
:1052B00000556E696669656420426564204C6576B8
:1052C000656C696E6700466164652048656967685A
:1052D00074004F75747075742055424C20496E6689
:1052E0006F00473239570055424C20546F6F6C7332
:1052F000004F7574707574204D657368204D617032
:10530000004D6573682053746F72616765004D6569
:105310007368204564697400537465702D42792D5B
:10532000537465702055424C004163746976617412
:10533000652055424C004732394100446561637431
:1053400069766174652055424C0047323944004DFE
:105350006F74696F6E00486F6D696E672046616992
:105360006C6564006F70656E005452494747455242
:105370004544003A20007A5F6D696E00795F6D697F
:105380006E00785F6D696E005265706F7274696E41
:105390006720656E6473746F7020737461747573C5
:1053A0000A0020746F6F206C6F6E672065787472CE
:1053B0007573696F6E2070726576656E7465640AC8
:1053C0000020636F6C6420657874727573696F6E0A
:1053D0002070726576656E7465640A00486F6D654D
:1053E00020257325732573204669727374005761F5
:1053F000726E696E673A20486F6D696E67204275FC
:105400006D702044697669736F72203C20310A0008
:105410000202040000000000000000000000000084
:105420000066430000614300009643000000410015
:1054300000004100000040FFFFFF000000010000ED
:105440000001000080005555550000004000333336
:105450003300AAAA2A004992240000002000C77144
:105460001C0099991900D1451700555515003BB1FD
:1054700013002449120011111100000010000F0F39
:105480000F00E3380E0043790D00CCCC0C00C33084
:105490000C00E8A20B0064210B00AAAA0A00703DD0
:1054A0000A009DD80900427B090092240900DCD340
:1054B0000800888808001042080000000800F0C1B9
:1054C00007008787070075500700711C07003EEB37
:1054D0000600A1BC06006990060066660600703EE4
:1054E00006006118060017F4050074D105005BB0D2
:1054F0000500B29005006272050055550500783927
:105500000500B81E0500050505004EEC040087D413
:105510000400A1BD040090A7040049920400C17DCD
:105520000400EE690400C7560400444404005C32E1
:1055300004000821040041100400000004003FF0B2
:105540000300F8E0030026D20300C3C30300CCB578
:1055500003003AA803000A9B0300388E0300C081B1
:1055600003009F750300D0690300505E03001D53C4
:10557000030034480300913D030033330300162930
:105580000300381F030097150300300C03000303CA
:1055900003000BFA020049F10200BAE802005CE0E5
:1055A00002002DD802002DD0020059C80200B0C060
:1055B000020031B90200DAB10200AAAA0200A0A3D7
:1055C0000200BC9C0200FA9502005C8F0200DF889A
:1055D000020082820200457C0200277602002770CA
:1055E0000200436A02007C640200D05E02003F5960
:1055F0000200C8530200FFFDFCFAF8F6F4F2F0EEE8
:10560000ECEAE9E7E5E3E1E0DEDCDAD9D7D5D4D2AC
:10561000D0CFCDCBCAC8C7C5C3C2C0BFBDBCBAB945
:10562000B7B6B4B3B2B0AFADACAAA9A8A6A5A4A2B0
:10563000A1A09E9D9C9A99989795949392908F8EF5
:105640008D8B8A8988878684838281807F7E7D7B1B
:105650007A797877767574737271706F6E6D6C6B22
:105660006A696867666564636261605F5E5D5C5B12
:105670005A5958585756555453525150504F4E4DF1
:105680004C4B4A4A494847464645444342424140BA
:105690003F3E3E3D3C3B3B3A393838373635353472
:1056A0003332323130302F2E2E2D2C2B2B2A29291C
:1056B00028272726252524232322212120201F1EB9
:1056C0001E1D1C1C1B1B1A19191818171616151548
:1056D00014131312121111100F0F0E0E0D0D0C0CCE
:1056E0000B0A0A090908080707060605050404034A
:1056F0000302020100000000664300006143000055
:105700009643000000000000000000000000536508
:105710007474696E67732053746F726564004545D5
:1057200050524F4D20496E697469616C697A6564A5
:105730000A003F556E61626C6520746F207361765C
:1057400065206D65736820646174612E0A003F55A1
:105750006E61626C6520746F206C6F6164206D6592
:10576000736820646174612E0A00556E696669650C
:105770006420426564204C6576656C696E67003B09
:1057800020003A0A0020204D3630332000205500FA
:105790004C0046696C616D656E74206C6F61642F9E
:1057A000756E6C6F6164206C656E677468733A0027
:1057B00020204D393030204B004C696E65617220DD
:1057C000416476616E63653A0020204D38353120A2
:1057D00058005A2D50726F6265204F66667365746B
:1057E0000020204D343133205300506F7765722DE7
:1057F0004C6F7373205265636F766572793A00203F
:10580000440020490020204D3330342050002044F3
:105810000020490020204D333031205000504944B1
:105820002073657474696E67733A002046002048DF
:105830000020204D3134352053004D61746572696C
:10584000616C2068656174757020706172616D654E
:10585000746572733A00206D65736865732E0A0A69
:1058600000454550524F4D2063616E20686F6C6457
:105870002000416374697665204D65736820536C20
:105880006F743A200020204D343230205300202005
:105890004D323036205800486F6D65206F66667354
:1058A00065743A0020580020530020204D323035D6
:1058B000204200416476616E6365643A20423C6D2B
:1058C000696E5F7365676D656E745F74696D655F42
:1058D00075733E20533C6D696E5F666565647261E9
:1058E00074653E20543C6D696E5F74726176656CC0
:1058F0005F66656564726174653E20583C6D6178D1
:105900005F785F6A65726B3E20593C6D61785F79A4
:105910005F6A65726B3E205A3C6D61785F7A5F6AA0
:1059200065726B3E20453C6D61785F655F6A6572AC
:105930006B3E0020540020520020204D3230342095
:105940005000416363656C65726174696F6E2028F5
:10595000756E6974732F7332293A20503C707269E6
:105960006E745F616363656C3E20523C7265747255
:105970006163745F616363656C3E20543C74726163
:1059800076656C5F616363656C3E0020204D32304C
:10599000312058004D6178696D756D2041636365F4
:1059A0006C65726174696F6E2028756E6974732FEF
:1059B0007332293A0020204D3230332058004D6197
:1059C00078696D756D2066656564726174657320B4
:1059D00028756E6974732F73293A00537465707358
:1059E0002070657220756E69743A00204400202092
:1059F0004D3230302053002044697361626C65641D
:105A00000A0046696C616D656E7420736574746913
:105A10006E67733A0020204D3134392043203B20FB
:105A2000556E69747320696E2043656C7369757374
:105A30000A0020286D6D29002020473231202020C7
:105A4000203B20556E69747320696E206D6D003F98
:105A50004D65736820746F6F2062696720666F728E
:105A600020454550524F4D2E0A0000803B44008097
:105A70003B4400002041000096420000A04200008C
:105A8000A0420000C8430000BE42D0070000D0077B
:105A90000000640000004B00000024F4D43050C328
:105AA0008E20C2A24017828B7011127A910D816CE8
:105AB000D90AA861E108C7586607615143061E4B21
:105AC0005D05C145A7041A411104093D98037139C8
:105AD00031034036DB0265339102D4305402802E0C
