:100000000C945D210C948E210C948E210C948E21E5
:100010000C948E210C948E210C948E210C948E21A4
:100020000C948E210C948E210C948E210C948E2194
:100030000C948E210D94763E0C948E210C948E217E
:100040000C948E210C94CEDA0C948E210C948E217B
:100050000C948E210C948E210C9495D70D942C3EEB
:100060000C948E210C94094D0C94FF4C0C948E2111
:100070000C948E210C948E210C948E210C948E2144
:100080000C948E210C948E210C948E210C948E2134
:100090000C948E210C948E210C948E210C948E2124
:1000A0000C948E210C948E210C948E210C948E2114
:1000B0000C948E210C948E210C948E210C948E2104
:1000C0000C948E210C948E210C948E210C948E21F4
:1000D0000C948E210C948E210C948E210C948E21E4
:1000E0000C948E21084AD73B3BCE016E84BCBFFDE9
:1000F000C12F3D6C74319ABD56833DDA3D00C77FF8
:1001000011BED9E4BB4C3E916BAAAABE0000008090
:100110003F05A84CCDB2D44EB93836A9020C50B91F
:10012000918688083CA6AAAA2ABE000000803F004B
:100130000D949C370C94A34D0D9421380C94877E1C
:100140000C945C7D0C94F6870C94F0BE0D944738AB
:100150000C9495780C9441830C94ABCA0C94D09673
:100160000D9459380D94AE380D9486370C9416CAF8
:100170000C94DFB10C94EE870C94E8870C9454B582
:100180000C9493210C94607D0C9490BE0C9413B24B
:100190000D949B160C94C7C50C94D9860C94DC87DF
:1001A0000C948B840C9440AA0C943DBE0D946D3835
:1001B0000C949E250C9453800C940FBF0D94CD3756
:1001C0000C949A7E0C94FDB10D949A380C94474D82
:1001D0000C94C17A0C9419850C943A990D94AD370E
:1001E0000C940B930C9430850C944E7B0C94467EAF
:1001F0000C944C7A0C9445830C94EBB50C94944D70
:100200000C94A4840D94A4370C94E5B10C94A9CB60
:100210000C9481220C948D7B0C94137D0C94DB7CCC
:100220000C944D830C94987E0C9409B20C943B7BF7
:100230000C94D7A00D9463380C94577D0C94C37C18
:100240000C9400260C9469900D94C9370D942B38AA
:100250000C9476B50D946E160C9459830C941981F8
:100260000C949E7E0C94BC780C94DF870C94E8CBA5
:100270000C940C8B0C941AC70C94764D0C9439BFCB
:100280000C9437860C942C9F0C9444B90C943C7DB0
:100290000D943F380C94F1870C9457880C940FA957
:1002A0000C9461830C94B34D0C9427A70C942BCB26
:1002B0000C943D830C9455830C94CCCA0C94A98067
:1002C0000C94C54D0C94C5840C9456A20C949922A0
:1002D0000C94A5800C9459840C94569D0C944D8FCD
:1002E0000C9491AE0C94D3B10C945D830C94A47BCC
:1002F0000C94AFBE0D94C5370D9486380D94624AA8
:100300000C94D3860C94E77A0C94B2CC0C9476853A
:100310000C9456780C94287B0D94A4380C94AF84DC
:100320000C94CD4D0D9414380C943F7D0C94728434
:100330000C94F5860C94197B0C94967E0C94F1B178
:100340000D944F380C9440840C9428A40C94D67CC3
:100350000D94C4170C94F57D0C94E6840C94E587F9
:100360000C94D9B10C94D1870C9449830D94903896
:100370000C94677B0D94BB370D94444A0C946F9A90
:100380000C94CE940C94A74D0C94377E0C9451830E
:100390000C941EBE0C94C57C0C940D220C94F88712
:1003A0000C945A980C94C77C0C94EBB10C94AF4D00
:1003B0000C94547C0C9444C50D941C380D947C38DA
:1003C0000C94907E0C94BA4D0C9428390C9433CA3A
:1003D0000C94AB4D0C949F4D0D94A0370C94CDA074
:1003E0000C940C840C94F4830C94D27B0C9472883F
:1003F0000D9481370C9459B50C94D0990C943434E5
:100400000C9447800C94089B0C94D47A0C94007B39
:100410000C94B07C0C94EA8D0C94767B0C94902117
:100420000C949B7C0C944FB50C94927E0C94C7B1A9
:100430000D94F1490C94E2870C945EB50D94A737A6
:100440000C949C7E0C9475250C9410CB0D94B737AE
:100450000C947E7A0C94DF8C0C94AE780C940E7F06
:100460000C9404840D94B1370C94CC7C0D943538E5
:100470000C948D7A0C94C6C50C94FB870C94A180C7
:100480000C94E1860C94FE870C942D7D0C94C1B1E4
:100490000C94F7B10C94947E0C94BB7B0D9498371C
:1004A0000C94A47C0C9403B20C9454880C94A87AF9
:1004B0000C9497C90C9428780C94E59B0D94D7372D
:1004C0000C94427D0C94457D0D94D3370C94EB87AE
:1004D0000C94854D0C94D17C0C94EA860C9425B632
:1004E0000C94657A0D94CD160C94BBCB0C940AB386
:1004F0000C94CDB10D94BF370C944B780C949B4D5C
:100500004E414E494E495459494E46CDCCCC3D0AF8
:10051000D7233C17B7D13877CC2B329595E6241FDB
:10052000B14F0A000020410000C84200401C462094
:10053000BCBE4CCA1B0E5AAEC59D7400407A10F367
:100540005A00A0724E18090010A5D4E80000E87601
:1005500048170000E40B54020000CA9A3B00000058
:10056000E1F505000080969800000040420F000071
:1005700000A08601000000102700000000E8030032
:100580000000006400000000000A000000000001FC
:1005900000000000002C76D888DC674F0823DFC1FC
:1005A000DFAE59E1B1B796E5E3E453C63AE65199B7
:1005B0007696E8E6C28426EB898C9B62ED407C6FE0
:1005C000FCEFBC9C9F40F2BAA56FA5F490055A2A97
:1005D000F75C936B6CF9676DC11BFCE0E40D47FEA3
:1005E000F520E6B500D0ED902E0300943577050098
:1005F00080841E080000204E0A000000C80C33331F
:1006000033330F986E12831141EF8D2114893BE62D
:100610005516CFFEE6DB18D1844B381BF77C1D90B6
:100620001DA4BBE424203284725E228100C9F1241F
:10063000ECA1E53D27434F4D4D554E4943415449AB
:100640004F4E0044525952554E004552524F52534C
:1006500000494E464F004543484F004572726F7245
:100660002077726974696E6720746F204545505217
:100670004F4D210A0053544F505045442E200050F6
:1006800072696E7465722073746F70706564206433
:10069000756520746F206572726F72732E204669C3
:1006A0007820746865206572726F7220616E6420B4
:1006B000757365204D39393920746F2072657374F4
:1006C0006172742E202854656D7065726174757244
:1006D000652069732072657365742E2053657420DC
:1006E00069742061667465722072657374617274D6
:1006F000696E67290A004E6F20436865636B7375E6
:100700006D2077697468206C696E65206E756D6206
:1007100065722C204C617374204C696E653A200020
:100720004E6F20436865636B73756D2077697468DD
:10073000206C696E65206E756D6265722C204C614F
:100740007374204C696E653A2000636865636B734F
:10075000756D206D69736D617463682C204C6173D5
:1007600074204C696E653A20004C696E65204E75A8
:100770006D626572206973206E6F74204C617374B2
:10078000204C696E65204E756D6265722B312C2090
:100790004C617374204C696E653A20004D313130E4
:1007A0000053657269616C20737461747573206D98
:1007B00069736D617463680A00776169740A005334
:1007C000442072656164206572726F720A00486F1E
:1007D00074656E642049646C652054696D656F753D
:1007E0007400486F74656E642049646C65205469B8
:1007F0006D656F75740A002121204B494C4C2063B4
:100800006175736564206279204B494C4C20627598
:1008100074746F6E2F70696E0A002121204B494C51
:100820004C2063617573656420627920746F6F205A
:100830006D75636820696E6163746976652074699B
:100840006D65202D2063757272656E7420636F6D07
:100850006D616E643A20007061757365004D3630CD
:1008600030002066696C616D656E745F72756E6FC5
:100870007574200066696C616D656E745F72756E6B
:100880006F757420540046696C616D656E745275A5
:100890006E6F75742054004D656469612052656DFA
:1008A0006F766564004D6564696120496E73657299
:1008B000746564004D313030305300627573793A9D
:1008C0002070617573656420666F7220696E707543
:1008D000740A00627573793A2070617573656420DB
:1008E000666F7220757365720A00627573793A20BB
:1008F00070726F63657373696E670A00506C65612F
:100900007365205265736574005052494E544552C8
:100910002048414C5445440025533A20255300704B
:100920006F7765726F6666004B494C4C45442E20CC
:10093000005072696E7465722068616C7465642E13
:10094000206B696C6C28292063616C6C6564210ADA
:10095000006563686F3A004572726F723A000A4D23
:100960006561737572656420706F696E74733A0A9D
:1009700000387838206D6573682E205A206F6666BF
:100980007365743A20005072696E74696E67204F07
:10099000626A656374002553202569002F2F616307
:1009A00074696F6E3A0073746172740070726F6D67
:1009B00070745F00656E6400486F74656E642074C7
:1009C0006F6F20636F6C640A0053656E64204D3155
:1009D000303820746F20726573756D650A00496E3A
:1009E000736572742066696C616D656E7420616EEA
:1009F000642073656E64204D3130380A005265689A
:100A000065617420446F6E65005265686561746944
:100A10006E672E2E2E005265686561740048656110
:100A20007465722054696D656F75740053656E64EA
:100A3000204D31303820746F2068656174206E6FEE
:100A40007A7A6C650A004E6F7A7A6C652050617212
:100A50006B656400706175736564005061757365E2
:100A600000726573756D656400526573756D696EAE
:100A700067004732362043616E63656C65640047EA
:100A800032362048656174696E67204E6F7A7A6CE1
:100A900065004732362048656174696E672042659B
:100AA000640057616974696E6720666F72206865BB
:100AB000617475702E0A004669786564204C656E15
:100AC000677468205072696D6500446F6E652050D0
:100AD00072696D696E67004D616E75616C20707230
:100AE000696D696E672E2E2E004C656176696E67A2
:100AF00020473236003F537065636966696564203C
:100B0000582C5920636F6F7264696E617465206F31
:100B10007574206F6620626F756E64732E0A003FD5
:100B200028522965706561742076616C7565206E48
:100B30006F7420706C61757369626C653B206D75B4
:100B40007374206265206174206C65617374203158
:100B50002E0A003F537065636966696564206E6F95
:100B60007A7A6C652074656D7065726174757265F2
:100B7000206E6F7420706C61757369626C652E0AEB
:100B8000003F5370656369666965642066696C61DE
:100B90006D656E742073697A65206E6F7420706C59
:100BA00061757369626C652E0A003F5370656369F5
:100BB00066696564207072696D65206C656E677426
:100BC00068206E6F7420706C61757369626C652E3D
:100BD0000A003F537065636966696564206E6F7AC9
:100BE0007A6C652073697A65206E6F7420706C6111
:100BF000757369626C652E0A003F52657472616399
:100C000074696F6E204D756C7469706C69657220C3
:100C10006D757374206265207370656369666965BC
:100C2000642E0A003F5370656369666965642052EB
:100C3000657472616374696F6E204D756C74697050
:100C40006C696572206E6F7420706C617573696277
:100C50006C652E0A003F53706563696669656420A0
:100C60006C6179657220686569676874206E6F745D
:100C700020706C61757369626C652E0A0043292EC1
:100C80000A003F5370656369666965642062656444
:100C90002074656D7065726174757265206E6F7415
:100CA00020706C61757369626C65202834302D008A
:100CB000473236207374617274696E672E2E2E0A65
:100CC000004F46460A0046616465204865696768CA
:100CD000742000426564204C6576656C696E6720FF
:100CE000004661696C656420746F20656E61626C9A
:100CF0006520426564204C6576656C696E670A0004
:100D00004D65736820426564204C6576656C20648F
:100D10006174613A0A00496E76616C6964206D65A0
:100D200073682E0A00206E6F7420656E746572659C
:100D3000642E0A0050726F62696E6720506F696E90
:100D4000740025532025692F256900206F66200037
:100D50004D424C2047323920706F696E7420002953
:100D60000A004A206F7574206F662072616E676595
:100D70002028302D00290A0049206F7574206F66E5
:100D80002072616E67652028302D004732384C3064
:100D9000004D6573682070726F62696E6720646FC2
:100DA0006E65004D6573682070726F62696E6720B2
:100DB000646F6E652E0A005374617274206D6573E2
:100DC000682070726F62696E67207769746820228C
:100DD000473239205331222066697273742E0A001B
:100DE0004732395332004732384C300A4732395390
:100DF0003200686173206E6F20646174612E0A0096
:100E00004D65736820426564204C6576656C696E3B
:100E100067200053206F7574206F662072616E67C3
:100E2000652028302D35292E0A004D657368207005
:100E30006F696E74206F7574206F662072616E67C3
:100E4000650A004D34323120696E636F72726563DA
:100E50007420706172616D6574657220757361676D
:100E6000650A005741524E494E4721204C6F77206A
:100E70005A204A65726B206D6179206C656164202F
:100E8000746F20756E77616E746564207061757320
:100E900065732E0A004F4646004F4E0020204D61DC
:100EA000783A2000200020204D696E3A2000536FD0
:100EB000667420656E6473746F70733A20004D32EF
:100EC000342053256C642054256C64004739322E3D
:100ED00039204525730047312046256400473932C3
:100EE0002E39205A2573004731205A30204632309F
:100EF0003000473120582573205925732046333060
:100F00003030004D34323020532569205A2573008B
:100F10004D3130362050256920532569004D32303F
:100F20003020442573004732385230585900473931
:100F3000322E39204530205A300A47315A25730065
:100F40004D31303920532569004D3139302053253A
:100F500069004D343230205330205A300020496E21
:100F600076616C69642065787472756465722000BE
:100F700047322F47332062616420706172616D6572
:100F8000746572730A00536C6565702E2E2E004DC9
:100F900065736820706F696E74206F7574206F665A
:100FA0002072616E67650A004D302053746F7000C7
:100FB0004D312053746F7000436C69636B20746F04
:100FC00020526573756D652E2E2E004E6F204D6F6D
:100FD00076652E00456E642066696C65206C6973C9
:100FE000740A00426567696E2066696C65206C69E9
:100FF00073740A004E6F206D656469610A00526562
:1010000073756D696E6720534400286E6F206669A2
:101010006C65290043757272656E742066696C6533
:101020003A20005072696E742074696D653A200030
:101030000A53746174733A2046696C616D656E740D
:1010400020757365643A20002C204C6F6E676573C1
:1010500074206A6F623A2000546F74616C20746966
:101060006D653A200053746174733A20002C204659
:1010700061696C65643A20002C2046696E6973686A
:1010800065643A20005072696E74733A200053749C
:101090006174733A2000436F6F6C696E672E2E2E59
:1010A0000048656174696E672E2E2E004520255319
:1010B000006F6B006F666600560651064A064306CF
:1010C000350644454255473A004D313133205300EF
:1010D00042656420436F6F6C696E672E2E2E00424E
:1010E00065642048656174696E672E2E2E00343069
:1010F00030205375506552204F46462E002F2F004A
:101100004D31343520533C696E6465783E206F75EF
:1011100074206F662072616E67652028302D31293A
:101120000A00205200416363656C65726174696FE7
:101130006E3A2050004D32303620580046523A0068
:1011400020466C6F773A20004D424C2041646A750E
:101150007374205A0020643A0020693A0020703AE3
:1011600000496E76616C6964206578747275646597
:10117000720A0020643A0020693A0020703A006444
:10118000697300656E0043290A0061626C65642022
:10119000286D696E2074656D702000436F6C64204B
:1011A00065787472756465732061726520004669A4
:1011B0006C616D656E742072756E6F7574206469F4
:1011C0007374616E636520286D6D293A200046694D
:1011D0006C616D656E742072756E6F757420004F52
:1011E000666673657473204170706C696564004550
:1011F00072723A20546F6F206661722100546F6FD3
:10120000206661722066726F6D2072656665726518
:101210006E636520706F696E740A00454550524FC9
:101220004D204F4B0A002E0A002028302D31302946
:10123000002076616C7565206F7574206F66207272
:10124000616E676500416476616E6365204B3D00A9
:10125000506F7765722D6C6F7373207265636F7654
:1012600065727920004D383400446F6E65207072CD
:10127000696E74696E672066696C650A004D373760
:10128000004D3331004361703A004D4541545041A7
:10129000434B00434F4F4C45525F54454D504552D0
:1012A0004154555245004348414D4245525F5445D3
:1012B0004D504552415455524500424142595354B4
:1012C000455050494E470041524353004D4F5449F9
:1012D0004F4E5F4D4F44455300544845524D414C8D
:1012E0005F50524F54454354494F4E004C4F4E4768
:1012F0005F46494C454E414D45004155544F52457E
:10130000504F52545F53445F53544154555300530C
:10131000445F57524954450052455045415400538B
:1013200044434152440050524F4D50545F53555026
:10133000504F525400454D455247454E43595F501A
:10134000415253455200434153455F4C494748542D
:101350005F4252494748544E45535300544F474704
:101360004C455F4C494748545300534F46545741EE
:1013700052455F504F574552004255494C445F50CB
:10138000455243454E54004C4556454C494E475FE7
:1013900044415441005A5F50524F42450052554E0D
:1013A0004F5554004155544F4C4556454C005052F2
:1013B000494E545F4A4F420050524F475245535393
:1013C000004155544F5245504F52545F54454D5073
:1013D00000564F4C554D45545249430045455052D7
:1013E0004F4D0042494E4152595F46494C455F546A
:1013F00052414E534645520053455249414C5F5865
:101400004F4E5F584F4646004649524D5741524550
:101410005F4E414D453A4D61726C696E20322E30FF
:101420002E375F4457372E332E3120544D3344200E
:1014300034454D414E4E20284170722032392032C1
:101440003032312032323A30313A34342920534F5D
:10145000555243455F434F44455F55524C3A68747B
:101460007470733A2F2F6769746875622E636F6D9D
:101470002F496E73616E6974794175746F6D617413
:10148000696F6E2F4D61726C696E2F747265652F76
:10149000437265616C6974794477696E5F322E308E
:1014A0002050524F544F434F4C5F56455253494F73
:1014B0004E3A312E30204D414348494E455F5459F4
:1014C00050453A34303020537550655220455854B9
:1014D00052554445525F434F554E543A312055556D
:1014E00049443A63656465326132662D3431613254
:1014F0002D343734382D396231322D63353563362A
:10150000326633363766660A0043616E6E6F74204A
:101510006F70656E2073756264697220002569734F
:101520000025696D20256973002569682025696D8E
:101530002025697300256964202569682025696D67
:10154000202569730025697920256964202569684B
:101550002025696D202569730023646566696E65C1
:101560002044454641554C545F00626564004B641D
:1015700020004B6920004B702000504944204175E9
:10158000746F74756E652066696E69736865642131
:101590002050757420746865206C617374204B70E2
:1015A0002C204B6920616E64204B6420636F6E7346
:1015B00074616E74732066726F6D2062656C6F77F4
:1015C00020696E746F20436F6E666967757261740F
:1015D000696F6E2E680A00504944204175746F741B
:1015E000756E65206661696C6564212074696D653E
:1015F0006F75740A00504944204175746F74756E9C
:1016000065206661696C6564212054656D70657242
:10161000617475726520746F6F20686967680A006D
:10162000204B643A2000204B693A2000204B703A4E
:10163000200020436C617373696320504944200A81
:1016400000204E6F206F76657273686F6F740A00AA
:101650002054753A2000204B753A2000206D6178A7
:101660003A2000206D696E3A200020643A20002064
:10167000626961733A2000504944204175746F7467
:10168000756E652073746172740A0050494420417C
:1016900075746F74756E65206661696C6564212070
:1016A00054656D706572617475726520746F6F201A
:1016B000686967680A00504944204175746F747501
:1016C0006E6500504944204175746F74756E6520D5
:1016D0006661696C6564212042616420686561749B
:1016E00065722069640A004572723A207574663822
:1016F00020666F6E74206E6F7420696E6974696104
:101700006C697A65642E004572723A207574663889
:1017100020666F6E74206E6F7420696E69746961E3
:101720006C697A65642E004572723A207574663869
:1017300020666F6E74206E6F7420696E69746961C3
:101740006C697A65642E00000C0F00FE0702250309
:10175000BB017FFE08FE08FE05080806000040F0F9
:10176000C88888987810050808060000C0F888889E
:10177000888888F80505050600012030F830200526
:1017800008080600002070F820202020E005090944
:101790000600FF2070A8A8B88888702007050507F4
:1017A0000001D86C366CD80509090600FFF8A88836
:1017B00088888888A8F8050A0A0600FE205050503C
:1017C0005088A8A8887003030306000340A040FFC8
:1017D000FFFFFFFFFFFFFFFFFFFFFFFFFFFFFFFF19
:1017E000FFFFFFFFFF0000000605FF0107070602DD
:1017F0000080808080800080030303060105A0A094
:10180000A005060606000050F85050F850050909DA
:101810000600FF2070A8A07028A870200507070602
:101820000000C8C81020409898050707060000402F
:10183000A0A040A8906801030306020580808003F1
:1018400009090601FF2040408080804040200309B4
:10185000090601FF80404020202040408005070706
:1018600006000020A8702070A820050505060001CC
:101870002020F820200203030601FFC0408005015C
:1018800001060003F8020202060100C0C0050707B6
:1018900006000008101020404080050707060000E1
:1018A000708898A8C8887003070706010040C040E8
:1018B000404040E0050707060000708808102040FF
:1018C000F8050707060000F80810300888700507BB
:1018D0000706000010305090F810100507070600AA
:1018E00000F880F0080888700507070600003040FF
:1018F00080F0888870050707060000F8081010209F
:101900002020050707060000708888708888700509
:101910000707060000708888780810600205050631
:101920000100C0C000C0C00206060601FFC0C00022
:10193000C0408003050506010120408040200503CA
:1019400003060002F800F8030505060101804020A7
:101950004080050707060000708810202000200541
:1019600007070600007088B8A8B88070050707064A
:101970000000708888F8888888050707060000F04E
:101980004848704848F005070706000070888080C6
:10199000808870050707060000F04848484848F06E
:1019A000050707060000F88080F08080F80507072B
:1019B000060000F88080F0808080050707060000A0
:1019C00070888080988870050707060000888888DE
:1019D000F8888888030707060100E040404040403F
:1019E000E00507070600003810101010906005078A
:1019F000070600008890A0C0A09088050707060091
:101A000000808080808080F805070706000088D865
:101A1000A8888888880507070600008888C8A898CD
:101A20008888050707060000708888888888700500
:101A30000707060000F08888F08080800507070609
:101A4000000070888888A89068050707060000F0E5
:101A50008888F0A0908805070706000070888070CD
:101A6000088870050707060000F8202020202020A5
:101A7000050707060000888888888888700507079A
:101A80000600008888888850502005070706000057
:101A900088888888A8A8500507070600008888500D
:101AA00020508888050707060000888850202020DD
:101AB00020050707060000F80810204080F80309F9
:101AC000090601FFE080808080808080E0050707B4
:101AD000060000804040201010080309090601FF9D
:101AE000E020202020202020E00503030600052020
:101AF00050880501010600FEF80303030601058076
:101B0000402005050506000070087888780507075D
:101B10000600008080F0888888F005050506000032
:101B2000708080887005070706000008087888889C
:101B300088780505050600007088F08070050707A5
:101B4000060000304840E04040400507070600FE20
:101B5000708888887808700507070600008080F084
:101B6000888888880307070601004000C04040407D
:101B7000E00409090601FE100030101010109060FA
:101B800005070706000080808890E090880307071B
:101B9000060100C04040404040E005050506000049
:101BA000D0A8A8A8A8050505060000B0C8888888A0
:101BB000050505060000708888887005070706007F
:101BC000FEF0888888F080800507070600FE788888
:101BD0008888780808050505060000B0C880808060
:101BE00005050506000078807008F0050707060067
:101BF000002020F820202018050505060000888810
:101C00008898680505050600008888885020050525
:101C1000050600008888A8A850050505060000886C
:101C2000502050880507070600FE8888885020400D
:101C300080050505060000F8102040F80309090694
:101C400001FF204040408040404020010909060239
:101C5000FF8080808080808080800309090601FFEA
:101C60008040404020404040800503030600024879
:101C7000A890FF554E4C4F41442046494C414D459C
:101C80004E54004C4F41442046494C414D454E5422
:101C90000046494C414D454E54204348414E47452E
:101CA0000042656400456E636C6F73757265002554
:101CB00068753A25303268750025303268753A25E6
:101CC0003032687500202020202020200020202095
:101CD00020001FE0201020102010102010202010C5
:101CE000201030300840048003001FE03FF03FF038
:101CF0003FF01FE01FE03FF03FF03FF00FC00780D4
:101D000003003FFFF038007030FC3020FC102078DA
:101D1000102030102C00D02E31D02F7BD02F7BD034
:101D20002E31D02C00D020301020781020FC103024
:101D3000FC303800703FFFF03FFFF0380070318614
:101D4000302387102787902F87D02F03D020301083
:101D50002078102078102030102F03D02F87D02724
:101D600087902387103186303800703FFFF01FFFC7
:101D7000F81FFFF804104002082002082004104059
:101D8000082080104100104100082080041040000D
:101D900000001FFFF81FFFF8FFFFFF8000018E000B
:101DA000E19F01F19381399F81F99F81F99FB9F9F1
:101DB0008F28F18038018000019FFFF99174999B71
:101DC00006A99B54A99B56A99B54999FFFF9FFFF15
:101DD000FF6E6F74696669636174696F6E2000637A
:101DE000616E63656C005072696E742041626F723F
:101DF000746564004469736D6973730055492041CB
:101E0000626F72746564004D323520500A4D323471
:101E100000526573756D6500554920506175736595
:101E20000050617573696E672E2E2E007265737592
:101E30006D65004D32340052756E6F7574204469C3
:101E40007374206D6D004C6F6164206D6D00556E74
:101E50006C6F6164206D6D0046696C2E2044696171
:101E60002E004520696E206D6D5E33004164766101
:101E70006E6365204B004D333033205531204525AE
:101E8000692053256900504944204175746F747569
:101E90006E65202A005049442D44202A00504944B0
:101EA0002D49202A005049442D50202A0020082086
:101EB00046616374002008204D6178002008204DA1
:101EC000696E004F6666004F6E004175746F7465F1
:101ED0006D70005654726176204D696E00566D69C2
:101EE0006E00566D6178204500566D6178205A006D
:101EF000566D6178205900566D6178205800416D0B
:101F00006178204500416D6178205A00416D61780B
:101F1000205900416D6178205800412D547261763E
:101F2000656C00412D526574726163740041636396
:101F3000656C0056652D4A65726B00565A2D4A65D0
:101F4000726B0056592D4A65726B0056582D4A65C2
:101F5000726B00452073746570732F6D6D005A208D
:101F600053746570732F6D6D0059205374657073D1
:101F70002F6D6D00582053746570732F6D6D004187
:101F80006476616E6365642053657474696E67730B
:101F9000003F0043616E63656C00496E6974004DDB
:101FA00034323800496E697469616C697A6520451C
:101FB0004550524F4D0046696C616D656E7400541A
:101FC000656D7065726174757265005374657073C8
:101FD0002F6D6D004A65726B00416363656C6572BD
:101FE0006174696F6E0056656C6F63697479005334
:101FF000657420486F6D65204F6666736574730065
:10200000436F6E66696775726174696F6E003F0039
:102010004E65787420506F696E7400446F6E650071
:102020004E657874004C6576656C696E6720446F08
:102030006E6521004D6F7665205A00473239533264
:10204000004E65787420506F696E74002569202FEA
:102050002025750047323953310047323953320059
:10206000436C69636B20746F20426567696E00483A
:102070006F6D696E672058595A005A2056616C7509
:102080006500496E646578205900496E6465782062
:10209000580053746F72652053657474696E67736A
:1020A000004C6F61642053657474696E6773004CF3
:1020B0006576656C20436F726E657273004265646D
:1020C000205A004661646520486569676874004F5E
:1020D0006666004F6E00426564204C6576656C69EB
:1020E0006E670045646974204D657368004C6576C1
:1020F000656C20426564004D6F74696F6E003F002F
:1021000043616E63656C204F626A656374004E4F75
:10211000005945530043616E63656C204F626A65E8
:102120006374203D004D61696E00426564004E6F2E
:102130007A7A6C650046616E205370656564004371
:102140006F6E66696775726174696F6E0052657350
:10215000746F72652044656661756C7473004C6FB2
:1021600061642053657474696E67730053746F7291
:10217000652053657474696E677300507265686595
:102180006174202420436F6E6600506F7765722063
:102190004F7574616765004F6666004F6E0052753B
:1021A0006E6F75742053656E736F72004164766153
:1021B0006E6365642053657474696E6773004D6166
:1021C000696E004D37303220542564004D36303072
:1021D00020423020542564004D373032203B2564A6
:1021E000004D37303120542564004D373032004DDA
:1021F000373031004D363030204230004D61696E4D
:10220000004F6666004F6E0052756E6F75742053F6
:10221000656E736F72005075726765206D6F7265C1
:1022200000436F6E74696E756500524553554D4598
:10223000204F5054494F4E533A005052494E54206B
:102240005041555345440020204E6F7A7A6C653AD0
:1022500020005061726B696E672E2E2E00000057B1
:1022600061697420666F720066696C616D656E7479
:10227000206368616E676500746F207374617274A7
:10228000005761697420666F720066696C616D65E4
:102290006E7420756E6C6F616400004E6F7A7A6C9C
:1022A000652068656174696E6700506C656173656F
:1022B00020776169742E2E2E000050726573732092
:1022C000627574746F6E00746F2068656174206E3F
:1022D0006F7A7A6C650000496E7365727420666966
:1022E0006C616D656E7400616E64207072657373ED
:1022F00020627574746F6E00746F20636F6E746902
:102300006E7565005761697420666F720066696C4E
:10231000616D656E74206C6F61640000507265734E
:102320007320427574746F6E00746F2072657375DC
:102330006D65207072696E74000057616974206663
:102340006F72207072696E7400746F20726573759D
:102350006D652E2E2E00005761697420666F720025
:1023600066696C616D656E742070757267650000DA
:102370003E2000256C642E25696D004578747275C9
:1023800064656420546F74616C003E20004C6F6E75
:1023900067657374204A6F622054696D65003E2042
:1023A00000546F74616C205072696E742054696DB2
:1023B0006500436F6D706C65746564003A20005071
:1023C00072696E7420436F756E74003A2000313567
:1023D000300035004245443A203125206265746161
:1023E00020333935300052756E617761792057613D
:1023F0007463683A204F4E004D61782054656D70CB
:1024000000343530004D696E2054656D7000350024
:1024100045313A20536C696365456E672034353029
:10242000C2B043005053550047656E657269630042
:1024300050726F746F636F6C00312E3000426175A3
:10244000640032353030303000437265616C69743D
:102450007933442052414D5053004D657368204CF0
:102460006576656C696E670045787472756465722F
:102470007300310074696E796D616368696E6573AC
:1024800033642E636F6D00343030205375506552C5
:1024900000323032312D30342D313800322E302E92
:1024A000375F4457372E332E31004D61726C696EA1
:1024B000005072696E7465722053746174730054B5
:1024C0006865726D6973746F727300426F617264D4
:1024D00020496E666F005072696E74657220496E95
:1024E000666F004D61696E004D31303030005374BD
:1024F0006F70205072696E7400526573756D65203F
:102500005072696E7400506F776572204F757461F8
:102510006765003F004261636B0053746F70005049
:1025200072696E742066726F6D204D65646961001A
:102530004368616E6765204D65646961004D3231A5
:102540000041626F7574205072696E746572004349
:1025500068616E67652046696C616D656E740043E5
:102560006F6E66696775726174696F6E0054656D30
:102570007065726174757265004D6F74696F6E007D
:10258000486F737420537461727400526573756D73
:1025900065205072696E74004E6F204D65646961EC
:1025A0000043616E63656C204F626A65637400541A
:1025B000756E650053746F70205072696E740050B0
:1025C00061757365205072696E7400496E666F2084
:1025D00053637265656E003F0053746172742050DE
:1025E00072696E740043616E63656C005072696E4F
:1025F000740043616E6E6F7420656E746572207333
:1026000075626469723A2000022E2E004D61696E77
:10261000002100486F74656E6420746F6F20636FD3
:102620006C64004261636B0050726F6365656400A7
:102630004F6666004F6E00536F667420456E64737C
:10264000746F7073004D6F74696F6E0044697361CD
:10265000626C65205374657070657273004D383418
:1026600000426564204C6576656C696E6700486F52
:102670006D65205A004732385A00486F6D65205901
:10268000004732385900486F6D652058004732388E
:1026900058004175746F20486F6D650047323800EF
:1026A0004D61696E00507265686561742024204533
:1026B0006E64005072656865617420242042656410
:1026C0000054656D706572617475726500436F6F5B
:1026D0006C646F776E0050726568656174202400C9
:1026E00046616E205370656564207E00426564001B
:1026F0004E6F7A7A6C65004D61696E004261627955
:1027000073746570205A00416476616E6365204B76
:1027100000466C6F770046616E20537065656420DB
:102720007E00426564004E6F7A7A6C650042656493
:10273000205A005370656564004D61696E00486FF2
:102740006D696E67204661696C6564006F70656EC7
:1027500000545249474745524544003A20006669B3
:102760006C616D656E74007A5F6D696E00795F6D86
:10277000696E00785F6D696E005265706F72746982
:102780006E6720656E6473746F7020737461747506
:10279000730A0020746F6F206C6F6E672065787409
:1027A000727573696F6E2070726576656E7465649C
:1027B0000A0020636F6C6420657874727573696FAA
:1027C0006E2070726576656E7465640A00000000A4
:1027D0000000000000000000005761726E696E6723
:1027E0003A20486F6D696E672042756D70204469AC
:1027F0007669736F72203C20310A000202040000E7
:10280000CD430000C8430000C84300000041000061
:102810000041000000400000000100000001000035
:102820008000555555000000400033333300AAAAFC
:102830002A004992240000002000C7711C009999C9
:102840001900D1451700555515003BB11300244917
:10285000120011111100000010000F0F0F00E338DB
:102860000E0043790D00CCCC0C00C3300C00E8A264
:102870000B0064210B00AAAA0A00703D0A009DD833
:102880000900427B090092240900DCD308008888F3
:1028900008001042080000000800F0C10700878708
:1028A000070075500700711C07003EEB0600A1BC35
:1028B00006006990060066660600703E0600611814
:1028C000060017F4050074D105005BB00500B29056
:1028D0000500627205005555050078390500B81EDF
:1028E0000500050505004EEC040087D40400A1BDD9
:1028F000040090A7040049920400C17D0400EE6921
:102900000400C7560400444404005C32040008215B
:10291000040041100400000004003FF00300F8E050
:10292000030026D20300C3C30300CCB503003AA8BA
:1029300003000A9B0300388E0300C08103009F75CB
:102940000300D0690300505E03001D5303003448A8
:102950000300913D03003333030016290300381FA1
:10296000030097150300300C0300030303000BFA68
:10297000020049F10200BAE802005CE002002DD832
:1029800002002DD0020059C80200B0C0020031B9C7
:102990000200DAB10200AAAA0200A0A30200BC9CB5
:1029A0000200FA9502005C8F0200DF88020082823A
:1029B0000200457C02002776020027700200436A6D
:1029C00002007C640200D05E02003F590200C8533E
:1029D0000200FFFDFCFAF8F6F4F2F0EEECEAE9E7AB
:1029E000E5E3E1E0DEDCDAD9D7D5D4D2D0CFCDCB68
:1029F000CAC8C7C5C3C2C0BFBDBCBAB9B7B6B4B3F5
:102A0000B2B0AFADACAAA9A8A6A5A4A2A1A09E9D54
:102A10009C9A99989795949392908F8E8D8B8A8992
:102A200088878684838281807F7E7D7B7A797877B0
:102A3000767574737271706F6E6D6C6B6A696867AE
:102A4000666564636261605F5E5D5C5B5A5958589D
:102A50005756555453525150504F4E4D4C4B4A4A75
:102A60004948474646454443424241403F3E3E3D39
:102A70003C3B3B3A393838373635353433323231EE
:102A800030302F2E2E2D2C2B2B2A29292827272694
:102A9000252524232322212120201F1E1E1D1C1C2E
:102AA0001B1B1A19191818171616151514131312BB
:102AB000121111100F0F0E0E0D0D0C0C0B0A0A093E
:102AC00009080807070606050504040303020201B6
:102AD00000000000CD430000C8430000C8430000D0
:102AE0000000000000000000000053657474696E6F
:102AF00067732053746F72656400454550524F4DA3
:102B000020496E697469616C697A65640A003B20CA
:102B10000020204D363033200020440020204D344A
:102B2000313220530046696C616D656E7420727598
:102B30006E6F75742073656E736F723A0020550066
:102B40004C0046696C616D656E74206C6F61642F1A
:102B5000756E6C6F6164206C656E677468733A00A3
:102B600020204D393030204B004C696E6561722059
:102B7000416476616E63653A0020204D3431332024
:102B80005300506F7765722D4C6F737320526563DD
:102B90006F766572793A0020440020490020204D6C
:102BA00033303420500020440020490020204D3391
:102BB00030312050005049442073657474696E6749
:102BC000733A0020460020480020204D3134352043
:102BD00053004D6174657269616C2068656174753C
:102BE0007020706172616D65746572733A002020A7
:102BF000473239205334205A00204A0020204732DF
:102C00003920533320490020204D343230205300E6
:102C10004D65736820426564204C6576656C696E0D
:102C2000673A0020204D323036205800486F6D65DD
:102C3000206F66667365743A0020580020530020A8
:102C4000204D323035204200416476616E63656408
:102C50003A20423C6D696E5F7365676D656E745FA7
:102C600074696D655F75733E20533C6D696E5F6678
:102C7000656564726174653E20543C6D696E5F7475
:102C8000726176656C5F66656564726174653E202D
:102C9000583C6D61785F785F6A65726B3E20593C85
:102CA0006D61785F795F6A65726B3E205A3C6D6139
:102CB000785F7A5F6A65726B3E20453C6D61785F34
:102CC000655F6A65726B3E00205400205200202030
:102CD0004D323034205000416363656C657261741D
:102CE000696F6E2028756E6974732F7332293A20CC
:102CF000503C7072696E745F616363656C3E205214
:102D00003C726574726163745F616363656C3E20DD
:102D1000543C74726176656C5F616363656C3E0000
:102D200020204D3230312058004D6178696D756D2D
:102D300020416363656C65726174696F6E202875EC
:102D40006E6974732F7332293A0020204D3230336C
:102D50002058004D6178696D756D206665656472F7
:102D6000617465732028756E6974732F73293A0036
:102D700053746570732070657220756E69743A00C3
:102D800020440020204D323030205300204469730D
:102D900061626C65640A0046696C616D656E7420E1
:102DA00073657474696E67733A0020204D3134394D
:102DB0002043203B20556E69747320696E20436563
:102DC0006C736975730A0020286D6D2900202047F7
:102DD0003231202020203B20556E69747320696EAB
:102DE000206D6D000000FA430000C8430000204140
:102DF000000096420000A0420000A0420000C8432C
:102E00000000BE42E8030000EE0200006400000083
:102E10004B00000024F4D43050C38E20C2A24017CF
:102E2000828B7011127A910D816CD90AA861E10828
:102E3000C7586607615143061E4B5D05C145A7048F
:102E40001A411104093D9803713931034036DB0200
:102E500065339102D4305402802E1D02632CEE01A2
:102E6000752AC501B028A001102781018F256401B2
:102E70002B244B01E0223401AC211F018D200D01D8
:102E8000801FFC00841EED00971DDF00B81CD200DF
:102E9000E61BC600201BBC00641AB200B219A800D1
:102EA0000A19A0006A189900D117910040178B00E9
:102EB000B516840031167E00B31579003A157300FB
:102EC000C7146F0058146A00EE136600881363007D
:102ED00025135E00C7125B006C12570015125400D8
:102EE000C111510070114F0021114B00D610490043
:102EF0008D1047004610440002104200C00F4000F1
:102F0000800F3E00420F3C00060F3B00CB0E380006
:102F1000930E37005C0E3500270E3400F30D32009F
:102F2000C10D3100900D3000600D2E00320D2D00CE
:102F3000050D2C00D90C2B00AE0C2900850C2900A6
:102F40005C0C2700350C27000E0C2600E80B240033
:102F5000C40B2400A00B23007D0B23005A0B21007F
:102F6000390B2100180B2000F80A1F00D90A1E0097
:102F7000BB0A1E009D0A1D00800A1D00630A1C007A
:102F8000470A1B002C0A1B00110A1A00F7091A0035
:102F9000DD091900C4091900AB09190092091700CD
:102FA0007B091800630917004C0916003609160042
:102FB000200916000A091500F5081500E00814009C
:102FC000CC081400B8081400A408140090081300DA
:102FD0007D0812006B081300580812004608120002
:102FE0003408110023081100120811000108110013
:102FF000F0071000E0071000D0071000C007100015
:10300000B0070F00A107100091070E0083070F0003
:1030100074070F0065070E0057070E0049070E00E2
:103020003B070D002E070E0020070D0013070D00B3
:1030300006070D00F9060C00ED060D00E0060C0079
:10304000D4060C00C8060C00BC060C00B0060C0030
:10305000A4060B0099060C008D060B0082060B00DF
:1030600077060B006C060B0061060A0057060B0082
:103070004C060A0042060A0038060A002E060A001C
:1030800024060A001A060A001006090007060A00AC
:10309000FD050900F4050900EB050900E20509003A
:1030A000D9050900D0050900C7050900BE050900BA
:1030B000B5050800AD050800A50509009C05080038
:1030C000940508008C050800840508007C050800AC
:1030D000740508006C050700650508005D0507001C
:1030E000560508004E050700470507004005080083
:1030F00038050700310507002A05070023050700EA
:103100001C050600160507000F0507000805060048
:1031100002050700FB040600F5040700EE040600A4
:10312000E8040600E2040700DB040600D5040600FC
:10313000CF040600C9040600C3040600BD0406004F
:10314000B7040600B1040500AC040600A60406009E
:10315000A00405009B0406009504050090040600E9
:103160008A04050085040500800406007A04050031
:1031700075040500700405006B0405006604050075
:10318000610405005C0405005704050052040500B5
:103190004D04050048040500430405003E040400F6
:1031A0003A04050035040500300404002C04050031
:1031B00027040400230405001E0404001A0404006C
:1031C00016040500110404000D04040009040500A0
:1031D0000404040000040400FC030400F8030400D9
:1031E000F4030400F0030400EC030400E80304000B
:1031F000E4030400E0030400DC030400D80304003B
:10320000D4030400D0030400CC030400C80303006B
:10321000C503030024F404D9201BC40C5C0E9804DD
:10322000C4095F0265077101F405F900FB04B300EE
:1032300048048700C1036900580355000303450093
:10324000BE023A008402310053022A0029022500FE
:1032500004022000E4011C00C8011900AF0117009E
:103260009801140084011300710110006101100025
:1032700051010E0043010D0036010B002B010B0024
:1032800020010B00150109000C01090003010800D1
:10329000FB000800F3000800EB000700E400060054
:1032A000DE000600D8000600D2000600CC000500B3
:1032B000C7000500C2000500BD000400B9000400FD
:1032C000B5000400B1000400AD000400A900040032
:1032D000A5000300A20003009F0004009B00030060
:1032E0009800030095000200930003009000030083
:1032F0008D0002008B00030088000200860002009F
:1033000084000300810002007F0002007D000200B3
:103310007B000200790002007700010076000200C5
:103320007400020072000100710002006F000200D0
:103330006D0001006C0002006A00010069000200DB
:1033400067000100660001006500010064000200E2
:103350006200010061000100600001005F000200E6
:103360005D0001005C0001005B0001005A000100EB
:1033700059000100580001005700010056000100EB
:1033800055000100540001005300000053000100EB
:103390005200010051000100500001004F000100E7
:1033A0004E0000004E0001004D0001004C000100E5
:1033B0004B0000004B0001004A00010049000100E1
:1033C00048000000480001004700010046000000DE
:1033D00046000100450000004500010044000100D6
:1033E00043000000430001004200000042000100D1
:1033F0004100000041000100400001003F000000CA
:103400003F0001003E0000003E0001003D000000C2
:103410003D0001003C0000003C0000003C000100B9
:103420003B0000003B0001003A0000003A000100B0
:1034300039000000390001003800000038000000A9
:10344000380001003700000037000100360000009E
:103450003600000036000100350000003500000095
:103460003500010034000000340000003400010089
:103470003300000033000000330001003200000080
:103480003200000032000100310000003100000075
:103490003100010030000000300000003000010069
:1034A0002F0000002F0000002F0000002F0001005F
:1034B0002E0000002E0000002E0001002D00000054
:1034C0002D0000002D0000002D0001002C00000048
:1034D0002C0000002C0000002C0001002B0000003C
:1034E0002B0000002B0000002B0001002A00000030
:1034F0002A0000002A0000002A0001002900000024
:103500002900000029000000290000002900010016
:10351000280000002800000028000000280000000B
:1035200028000100270000002700000027000000FD
:1035300027000000270001002600000026000000F0
:1035400026000000260000002600010025000000E3
:1035500025000000250000002500000025000000D7
:1035600025000100240000002400000024000000C9
:1035700024000000240001002300000023000000BC
:1035800023000000230000002300000023000000AF
:1035900023000100220000002200000022000000A1
:1035A0002200000022000000220001002100000093
:1035B0002100000021000000210000002100000087
:1035C0002100000021000100200000002000000078
:1035D000200000002000000020000000200000006B
:1035E00020000000200001001F0000001F0000005C
:1035F0001F0000001F0000001F0000001F0000004F
:103600001F0001001E0000001E0000001E00000040
:103610001E000000232C0000B822000056180000F5
:103620003A0F0000B8080000B10400007102000069
:103630003E01000020436F756E7420583A004265C9
:103640006400453100626564002C207379737465F1
:103650006D2073746F7070656421204865617465B6
:10366000725F49443A200048656174696E6720467C
:1036700061696C65640048656174696E67206661A4
:10368000696C6564004D3131322053687574646F24
:10369000776E001000AA03F0013A01900222013077
:1036A000031001D00302017004F7001005ED00B013
:1036B00005E5005006DD00F006D7009007D1003088
:1036C00008CC00D008C7007009C300100ABE00B0C3
:1036D0000ABB00500BB700F00BB300900CB000D049
:1036E0000DAA00100FA5005010A00090119B00D053
:1036F000129600B014900090168B00701885005040
:103700001A8000301C7B00B01E750030216F00B0A5
:103710002369003026640010285F00902A5A007048
:103720002C5500F02E4F0070314800B0324500F0AB
:10373000334100703639001037370050383300906D
:10374000392D00D03A2700B03C1C00503D1700F046
:103750003D1100903E0900D03FE5FF544845524DD1
:10376000414C2052554E4157415900546865726D85
:10377000616C2052756E61776179004572723A20F2
:103780004D415854454D50004D415854454D5020E1
:10379000747269676765726564004572723A204D9C
:1037A000494E54454D50004D494E54454D5020749E
:1037B000726967676572656400202F002042403A95
:1037C0000020403A0020573A0020573A00496E76D0
:1037D000616C69642065787472756465720A007C36
:1037E0003C3E5E2B3D3F2F5B5D3B2C2A225C004321
:1037F000616E6E6F74206F70656E207375626469A0
:10380000722000534420496E6974204661696C003F
:1038100053442063617264206F6B0A006F70656EA1
:10382000526F6F74206661696C65640A00766F6C14
:10383000756D652E696E6974206661696C65640AD0
:10384000004E6F20534420636172640A004142536A
:1038500000504C41000A4D3234004D323320257364
:10386000002E0A006F70656E206661696C65642CBD
:103870002046696C653A200046696C652073656C6A
:1038800065637465640A002053697A653A200046CE
:10389000696C65206F70656E65643A2000454E4422
:1038A00020535542524F5554494E450A002220702C
:1038B0006F73002220706172656E743A2200535556
:1038C00042524F5554494E452043414C4C2074615F
:1038D000726765743A220053756263616C6C204FA5
:1038E000766572666C6F77004578636565646564BC
:1038F000206D617820535542524F5554494E452012
:1039000064657074683A002E0A0044656C657469D9
:103910006F6E206661696C65642C2046696C653A3F
:10392000200046696C652064656C657465643A00C6
:103930005344207072696E74696E67206279746591
:1039400020004E6F74205344207072696E74696E4B
:10395000670A002F6175746F25632E6700577269BF
:1039600074696E6720746F2066696C653A20006622
:103970007265736800646F696E67002066696C65C4
:103980003A20004E6F77200002FD55555555555F82
:10399000FFFFFFFFFFFFFFFFFFFE00000000003FF3
:1039A000FFFFFFFFFFFFFFFFFFFD000007FFFFFF1F
:1039B000FFFFFFFFFFFFFFFFFFFE07C00555555547
:1039C00055555FFFFFFFFFFFFFFC0A2006000000C8
:1039D00000003FFFFFFFFFFFFFFE14100500000780
:1039E000FFFFFFFFFFFFFFFFFFFC28080607C005E2
:1039F00055555555555FFFFFFFFE5404040A200638
:103A000000000000003FFFFFFFFC600406141005EB
:103A1000000007FFFFFFFFFFFFFE50040428080619
:103A200007C00555555555555FFC60040654040400
:103A30000A200600000000003FFE54041C6004063B
:103A400014100500000000001FFC28082E5004047C
:103A500028080607C00001F03FFE14105460040659
:103A60005404040A200002081FFC0A206654041CA7
:103A700060040614100005043FFE07C05428082EF9
:103A80005004042808000A021FFC00002E141054E1
:103A900060040654040015013FFE00001C0A206665
:103AA00054041C60040018011FFC00000607C054E9
:103AB00028082E50040014013FFE00000400002ED0
:103AC00014105460040018011FFCFFFFFE00001CCE
:103AD0000A206654041C15013FFED555540000060B
:103AE00007C05428082A0A021FFC8410460000045C
:103AF00000002E14105105043FFEC41044FFFFFEC9
:103B000000001C0A206102881FFC841046D5555411
:103B100000000607C05101F03FFE841044841046A7
:103B200000000400002A00001FFCC41046C410441A
:103B3000FFFFFE00001C00003FFE8410448410467E
:103B4000D5555400000000001FFCD5555684104484
:103B500084104600000000003FFCFFFFFCC410463C
:103B6000C41044FFFFFFFFFF9FFE000006841044C7
:103B7000841046D555555555BFFD555554D5555608
:103B800084104484104104109FFFFFFFFCFFFFFCE2
:103B9000C41046C410410411BFFFFFFFFE00000621
:103BA00084104484104104109FFFFFFFFD555554BD
:103BB000D5555684104104109FFFFFFFFFFFFFFC07
:103BC000FFFFFCC410410411BFFFFFFFFFFFFFFE1A
:103BD00000000684104104109FFFFFFFFFFFFFFD60
:103BE000555554D555555555BFFFFFFFFFFFFFFFF6
:103BF000FFFFFCFFFFFFFFFF9FFFFFFFFFFFFFFF38
:103C0000FFFFFE00000000003FFFFFFFFFFFFFFF80
:103C1000FFFFFD55555555555FFFFFFFFFFFFFFFA8
:103C2000FFFFFFFFFFFFFFFFFFFFFFFFFFFFFFFFA4
:103C3000FFFFFFFFFFFFFFFFFFFFFFFFFFFFFFFF94
:103C4000FFFFFFFFFFFFFFFFFFFFFFFFFFFFFFFF84
:103C5000FFFFFFFFFFFFFFFFFFE02EFB7DFBFBCF22
:103C6000C1DFBB3EC0E1FE3C1FFDEE7B39F9F3CF67
:103C70009EDFBB3EDFDEFCDDE7FDEE3BBBF9EBD7B5
:103C8000BF5FBB5EDFDEFDEDF7FDEEBBD3FAEBB74A
:103C90003FDFBB4EDFDFFFCDF3FDEEDBC7FAEBBB53
:103CA0007FC03B6EC0E3FF1DF3FDEECBEFFADBBB45
:103CB0007FDFBB66DFF8FFCDF3FDEEEBEFFB5B03D1
:103CC0003F5FBB76DFFE7FEDF3FDEEF3EFFB5B794D
:103CD000BEDFBB7ADFDE7DEDF7FDEEF3EFFBBAFD75
:103CE0009EDFBB7CDFDEFDCDE7FDEEFBEFFBBAFD2B
:103CF000C1DFBB7EC0E0FE1C1F6D61726C696E6629
:103D0000772E6F726700322E302E375F4457372E72
:103D1000332E31001FFFFFFFFFFFFF600000000098
:103D200001FF400000000000FF8000000000007F55
:103D300083CF00000C303F87FF80000C301F867956
:103D400080000C000F8C30C7838C30E78C30CFC7DD
:103D5000CC31F38C30DCECEC33B98C30D86C6C3378
:103D6000198C30D06C0C33198C30D86C0C33198C06
:103D700030DC6C0E3B198C30CF7C079F198C30C720
:103D80007C038F194000000000000260000000006A
:103D900000061FFFFFFFFFFFF86001F4017001EA5A
:103DA000019001E001B001D601D001CC010002C2B6
:103DB000013002B8016002AE019002A401D0029A63
:103DC000012003900170038601C0037C013004725E
:103DD00001A004680120055E01B005540160064A97
:103DE0000120074001F0073601F0082C01100A22DB
:103DF00001500B1801C00C0E01500E04013010FAD6
:103E0000002012F0005014E600C016DC007019D239
:103E100000501CC800501FBE007022B400B025AA7C
:103E200000F028A000202C9600302F8C0010328249
:103E300000A0347800F0366E00E0386400803A5A12
:103E400000403B5500E03B5000F03C4600C03D3C8C
:103E500000603E3200E03E2800303F1E00503F1917
:103E600000703F1400A03F0A00C03F0000D03FF6A2
:103E7000FFE03FECFF2020506C616E6E6572427572
:103E80006666657242797465733A200020467265F1
:103E900065204D656D6F72793A2000436F6D7069D2
:103EA0006C65643A204170722032392032303231F0
:103EB0000A00204C61737420557064617465643A23
:103EC00020323032312D30342D3138207C20417574
:103ED00074686F723A2054696E794D616368696ED7
:103EE000657333440A00322E302E375F4457372E25
:103EF000332E310A004D61726C696E0020536F667B
:103F000074776172652052657365740A0020576189
:103F1000746368646F672052657365740A00204299
:103F2000726F776E206F75742052657365740A0026
:103F30002045787465726E616C2052657365740AF1
:103F400000506F77657255700A0073746172740A5D
:103F5000004739310A47315A350A4739300A4D3856
:103F6000340A4D31303453300A4D3134305330003F
:103F70004D31303031006572726F72207772697422
:103F8000696E6720746F2066696C650A00446F6E05
:103F90006520736176696E672066696C652E0A001C
:103FA0004D323900456E6473746F70730025532071
:103FB000256320256320256320256300205A3A00CD
:103FC00020593A0020583A00656E6473746F70731C
:103FD000206869743A200000000A0B02090C0D0EDB
:103FE00008070304010000000000000000000000BA
:103FF00000000000000000000000000000000000C1
:10400000000000121110000000000000000000007D
:1040100000000000000000000000000000004D6FE4
:1040200076652025736D6D004D6F766520302E31DD
:104030006D6D004D6F766520316D6D004D6F76654D
:104040002031306D6D004D6F7665204178697300C9
:104050004578747275646572004D6F7665205A00FC
:104060004D6F76652059004D6F76652058005138A8
:104070004D384368616E67652046696C616D656E99
:104080007400556E6C6F61642046696C616D656E7D
:1040900074004C6F61642046696C616D656E7400DC
:1040A0005072656865617420437573746F6D00505C
:1040B0007265686561742024004261636B00FFFFD4
:1040C000FF486F6D6520257325732573204669723F
:1040D00073740073686F7700627574746F6E00623A
:1040E0006567696E0044697361626C6552756E6FD5
:1040F00075740050757267654D6F7265005061751B
:1041000073656400436F6E74696E7565004C6F6112
:10411000642046696C616D656E74205400496E734D
:104120006572742066696C616D656E7420616E6481
:104130002073656E64204D3130380A00220A005524
:104140006E6B6E6F776E20636F6D6D616E643A207B
:1041500022002042002050006F6B0034303020538A
:10416000755065522052656164792E005072696EF7
:1041700074696E672E2E2E005072696E7420506125
:104180007573656400204500205A00205900204DB9
:10419000393220580020453A00205A3A0020593A36
:1041A00000583A0020746F6F206C6F6E672065783E
:1041B00074727573696F6E2070726576656E746562
:1041C000640A0020636F6C6420657874727573698B
:1041D0006F6E2070726576656E7465640A00526554
:1041E00073656E643A20006E6F746966696361740A
:1041F000696F6E200000002200250028002B002E91
:10420000003100340002010000050108010B01002B
:10421000002100240027002A002D00300033000177
:10422000010000040107010A01050505050705084D
:10423000080808020202020A0A0808040404040129
:10424000010101010101010303030303030303044B
:104250000707070C0C0C0C0C0C0C0C0202020206DB
:10426000060606060606060B0B0B0B0B0B0B0B01CB
:104270000210202008081020401020408002010277
:10428000010804020101020408102040808040203F
:10429000100804020180040201804020100804027A
:1042A00001080402010102040810204080010204F8
:1042B0000810204080007E01BC0111241FBECFEFFA
:1042C000D1E2DEBFCDBF00E00CBF13E0A0E0B2E062
:1042D000EAE5F1EC02E00BBF02C007900D92A037B7
:1042E000B107D9F729E1A0E7B3E001C01D92AA39CF
:1042F000B207E1F711E2CCE5D1E200E006C0219778
:104300000109802FFE010F94035DCB35D10780E0BA
:104310000807A9F70F94B54B0D949B600C9400000F
:10432000FC0184910895FC0180810895119800009A
:1043300000009091020187FD90959170909300018B
:10434000119A000000000000000011980000000019
:104350009091020186FD9095917090930001119AC1
:104360000000000000000000119800000000909183
:10437000020185FD9095917090930001119A0000C3
:104380000000000000001198000000009091020160
:1043900084FD9095917090930001119A00000000A7
:1043A000000000001198000000009091020183FDC0
:1043B0009095917090930001119A00000000000008
:1043C00000001198000000009091020182FD90957C
:1043D000917090930001119A00000000000000000D
:1043E0001198000000009091020181FD909591705C
:1043F00090930001119A0000000000000000119845
:104400000000000080910201817080930001119AE8
:104410000000000000000000089590E080E0089592
:10442000CF93DF93DB01F9019C919130C1F094307F
:1044300080F094509C938830D1F4808191810097D2
:1044400071F0019791838083480F591FEA01188208
:1044500006C08C3539F49C5F9C93943041F4DF9115
:10446000CF9108958B3339F781E08C93F8CF208179
:104470003181B9016F5F7F4F71836083420F531F9A
:10448000EA018883808191818F3591056CF7E7CFB0
:104490000F931F9381E00091811710918217209153
:1044A00083173091841740917D1750917E1760914A
:1044B0007F1770918017041715072607370708F430
:1044C00080E01F910F91089590E080E00895282FDB
:1044D00090911209833021F495FD0FC094FD0FC017
:1044E000892F90E0B0E0A0E004C0B695A79597951D
:1044F00087952A95D2F78170089581E0089580E02C
:1045000008951092F9088091510290915202A09161
:104510005302B09154028093E0069093E106A09379
:10452000E206B093E3060895129A0895269A2E9A09
:104530000895AF92BF92CF92DF92EF92FF920F93C6
:104540001F93CF93DF936B01E9014A3009F4C1C097
:10455000453109F073C0DB011296ED91FC91F280B8
:10456000C681D7818091020180958270809300017D
:1045700088E28A950000E9F7BF2CB29420EFB222BE
:1045800030E1A32EAF0C48E2E42E88EF0E94962182
:104590008E2D8A950000E9F7BFE1BF1508F485C0AC
:1045A0008F2D807780680E9496218B2D0E94962106
:1045B0008E2D8A950000E9F780E80E94962180E020
:1045C0000E9496218E2D8A950000E9F78AEF0E94BD
:1045D00096218E2D8A950000E9F78E01005F1F4F0E
:1045E0008881807F0E94962189918295807F0E9498
:1045F0009621C017D107A1F78E2D8A950000E9F703
:10460000F394E0E1BE0EFA10C0CF809102018270F7
:1046100080930001D6011296CD91DC91CE010F94CA
:10462000153F811147C2DF91CF911F910F91FF90EC
:10463000EF90DF90CF90BF90AF900895FB01028183
:104640001381423309F4F1C108F4F5C1463409F489
:10465000E2C1473409F4E5C14B3329F589812B8147
:10466000D80112966C91129713964C91213009F44F
:1046700038C2233009F002C238EF380F582F91E0CA
:10468000431708F490E041E0531708F040E031E0B0
:10469000561708F430E0592F542B352309F016C271
:1046A000942309F013C281E0BECF80EE8F0D8068A5
:1046B000807F0E9496218F2D8295807F0E94962177
:1046C0008E2D8A950000E9F780E80E94962180E807
:1046D00077CF809101018260809301018091020176
:1046E00082708093000180910101816080930101BB
:1046F00080910201817080930001099A119A809142
:104700000201809582708093000188E28A95000002
:10471000E9F788E790E0CEE9DFE0FE013197F1F7B5
:104720000197D9F788EF0E94962118E2812F8A9588
:104730000000E9F780E20E94962180E00E94962125
:10474000812F8A950000E9F780E00E94962180E899
:104750000E949621812F8A950000E9F780E00E944F
:10476000962180E10E949621812F8A950000E9F729
:10477000CE010197F1F7CE010197F1F7CE01019734
:10478000F1F7CE010197F1F7CE010197F1F7CE01D4
:104790000197F1F7CE010197F1F7CE010197F1F7FB
:1047A000CE010197F1F7CE010197F1F7CE01019704
:1047B000F1F7CE010197F1F7CE010197F1F7CE01A4
:1047C0000197F1F72197F1F780E20E94962180E4AA
:1047D0000E949621812F8A950000E9F780E20E94CD
:1047E000962180E60E9496211A950000E9F710E0D4
:1047F000D0E0C8E28D2F807780680E949621812FBB
:104800000E9496218C2F8A950000E9F780E80E948B
:10481000962180E00E9496218C2F8A950000E9F76E
:104820008AEF0E9496218C2F8A950000E9F790E28A
:1048300011980000000080910201817080930001B6
:10484000119A000000000000000011980000000014
:1048500080910201817080930001119A0000000094
:10486000000000001198000000008091020181709A
:1048700080930001119A00000000000000001198D0
:104880000000000080910201817080930001119A64
:10489000000000000000000011980000000080915E
:1048A0000201817080930001119A00000000000055
:1048B0000000119800000000809102018170809337
:1048C0000001119A00000000000000001198000093
:1048D000000080910201817080930001119A000014
:1048E000000000000000119800000000809102010B
:1048F000817080930001119A000000000000000008
:1049000011980000000080910201817080930001E5
:10491000119A000000000000000011980000000043
:1049200080910201817080930001119A00000000C3
:1049300000000000119800000000809102018170C9
:1049400080930001119A00000000000000001198FF
:104950000000000080910201817080930001119A93
:10496000000000000000000011980000000080918D
:104970000201817080930001119A00000000000084
:104980000000119800000000809102018170809366
:104990000001119A000000000000000011980000C2
:1049A000000080910201817080930001119A000043
:1049B000000000000000119800000000809102013A
:1049C000817080930001119A000000000000000037
:1049D0008C2F8A950000E9F7915009F029CF88EFD4
:1049E0000E9496218C2F8A950000E9F7DF5F105F07
:1049F000D03209F0FFCE80E00E94962180EC0E9428
:104A00009621CA950000E9F7809102018270809397
:104A1000000181E008CED80115968C91888381E051
:104A200002CEF80181818883FACFB901C8010F94C1
:104A3000323F81E0F8CD443171F0473109F033CE97
:104A40001882F80182818983858181508A838381DC
:104A50008B8381E0E8CDD80115964C91159750E0F5
:104A6000440F551F70E060E016968D919C910F9455
:104A70003C60C8010F942B3F81E0D5CD481708F466
:104A800012CE861708F40FCEFA80E12CD12C2430F8
:104A900070F41DC0BE01C8010F94323F8981988116
:104AA0009D0D98838E0D8983FF0C09F4FCCDF7FED4
:104AB000F6CFF0CF4D8150E0440F551F70E060E01D
:104AC0008E819F810F943C6081E0ADCDFA8030E013
:104AD000F901E555FD4FD08029553D4FF901E080A2
:104AE000E6CF58E0580F382FCACDEF92FF920F93C0
:104AF0001F93CF93DF93EC018B017A018A859B850D
:104B00008617970731F0888199810F940B411B8795
:104B10000A87B701888199810F94B4322E813F8131
:104B2000820F932F911D9F838E8390E080E0DF9111
:104B3000CF911F910F91FF90EF9008959F92AF92A8
:104B4000BF92CF92DF92EF92FF920F931F93CF937A
:104B5000DF93EC018B01942EA52E8A859B85861709
:104B6000970731F0888199810F940B411B870A8741
:104B700088859985019649F5BC800A818E81080F48
:104B8000C880D980D6015596ED91FC91C601199542
:104B9000B80EE92CFA2C10E0F70121917F012111C8
:104BA00027C08E819F81810F911D9F838E8390E00E
:104BB00080E0DF91CF911F910F91FF90EF90DF90F8
:104BC000CF90BF90AF909F9008950E811F81692D67
:104BD0007A2D888199810F94B432800F912F911D85
:104BE000288539852817390738F681E090E0E1CF2C
:104BF0004B2D602FC6010F946341080F180FCCCFC7
:104C0000DF92EF92FF920F931F93CF93DF93EC010C
:104C1000D62E1CAD0BAD7C0184E0E80EF11CE98DB5
:104C2000FA8DC7011995412F480F2D2D602FC7010F
:104C30000F9463419BAD890F8BAF81E090E0DF91D2
:104C4000CF911F910F91FF90EF90DF900895AB01EE
:104C5000BC01409381175093821760938317709320
:104C600084178AEE98E10C94ABD1809323028032B2
:104C7000B8F590910F05891724F091E0980F909363
:104C80000F0540910B0550910C0560910D05709139
:104C90000E05082E04C076956795579547950A949A
:104CA000D2F741704093FE1087FD1DC0282F082EBB
:104CB000000C330B3F938F9386E899E09F938F937B
:104CC00086E999E09F938F931F920E948CB58DB7D0
:104CD0009EB707960FB6F8949EBF0FBE8DBF08957E
:104CE0001092FE10E1CF0D941B460F931F93CF93AC
:104CF000DF9300D01F92CDB7DEB79C0100EE18E025
:104D000090E1E9E4F1E1D80101900D929A95E1F783
:104D1000F9012081318142815381F80160857185DB
:104D2000828593850F940C5DF80160877187828777
:104D3000938780E090E0A0EAB0E489839A83AB8314
:104D4000BC83CE0101960E946BFC0F900F900F90D8
:104D50000F90DF91CF911F910F9108952F923F9265
:104D60004F925F926F927F928F929F92AF92BF927B
:104D7000CF92DF92EF92FF921F93CF93DF93CDB745
:104D8000DEB72C970FB6F894DEBF0FBECDBF7A0109
:104D90001901DC012D913D914D915C912D833E8354
:104DA0004F835887FB0140805180628073808090E0
:104DB000491190904A11A0904B11B0904C11A5014F
:104DC00094016D817E818F8198850F941A5681118F
:104DD0000EC011E0A301920160914D1170914E112E
:104DE00080914F11909150110F941A56811110E03B
:104DF000D1012D913D914D915C9129873A874B8747
:104E00005C87F701C080D180E280F38020910902A5
:104E100030910A0240910B0250910C02C701B60179
:104E20000F941A56882309F44EC0C0920902D092FA
:104E30000A02E0920B02F0920C02809155119091BF
:104E40005611A0915711B091581140914D115091A8
:104E50004E1160914F11709150118092E008909224
:104E6000E108A092E208B092E3084093E40850936E
:104E7000E5086093E6087093E708C092E808D092CE
:104E8000E908E092EA08F092EB088093EC0890932E
:104E9000ED08A093EE08B093EF0820E030E040E08A
:104EA0005FE360912C1170912D1180912E119091E2
:104EB0002F110F94805669837A838B839C83CE0154
:104EC00001960E946BFC2D813E814F815885209375
:104ED000E0083093E1084093E2085093E3084092E1
:104EE000E4085092E5086092E6087092E708D10164
:104EF0002D913D914D915C916091EC087091ED0880
:104F00008091EE089091EF080F940C5D6093EC088F
:104F10007093ED088093EE089093EF0811112FC065
:104F200020E030E0A90169857A858B859C850F9406
:104F30001A56811133C060E070E088EC92E4698316
:104F40007A838B839C83CE0101960E946BFC2C9606
:104F50000FB6F894DEBF0FBECDBFDF91CF911F918A
:104F6000FF90EF90DF90CF90BF90AF909F908F9089
:104F70007F906F905F904F903F902F9008952AEF11
:104F80003EE74AE25FE36091301170913111809108
:104F90003211909133110F948056D1CF60E070E0C0
:104FA00080EA91E4CCCF8091C6049091C704009729
:104FB00031F04AE050E070E060E00D94355460E07C
:104FC00070E0CB01089580910B0A82FF0BC063E66D
:104FD00082E79AE00E94A7B50F941F390E9472BC25
:104FE00081E0089580E008958091C6049091C704FF
:104FF000009731F04AE050E070E060E00D94075314
:1050000060E070E0CB010895AF92BF92CF92DF9243
:10501000EF92FF920F931F93CF93DF93EC015B010D
:105020008A01FB01199587FD16C0C82ED12CF12CE1
:10503000E12C2196F801C082D182E282F382CE0176
:10504000DF91CF911F910F91FF90EF90DF90CF9064
:10505000BF90AF900895982F907E903CA9F48F71E7
:1050600090E0B0E0A0E06C017D0156E0CC0CDD1CCE
:10507000EE1CFF1C5A95D1F7CE010196F50119954A
:105080008F73C82A2296D6CF982F907F903E11F525
:105090008F7090E0B0E0A0E06C017D0136E0CC0CB8
:1050A000DD1CEE1CFF1C3A95D1F7CE010196F501EF
:1050B00019958F73C82A46E0CC0CDD1CEE1CFF1C32
:1050C0004A95D1F7CE010296F50119958F73C82A3A
:1050D0002396B0CF982F987F903F79F5877090E016
:1050E000B0E0A0E06C017D0186E0CC0CDD1CEE1C84
:1050F000FF1C8A95D1F7CE010196F50119958F73A2
:10510000C82A96E0CC0CDD1CEE1CFF1C9A95D1F74A
:10511000CE010296F50119958F73C82A26E0CC0CB2
:10512000DD1CEE1CFF1C2A95D1F7CE010396F5017C
:1051300019958F73C82A24967DCF982F907C90382C
:1051400041F4807C803869F42196CE01F5011995EF
:10515000F8CF8E7F8D3F28F02196CE01F50119956D
:10516000F8CFC12CD12C760165CF9CE0899F802D92
:10517000112491E0980F909310052CE0280F2093B4
:10518000DA0830E02E5F3F4F409133174217130685
:1051900019F014F080E00895209135179217D0F798
:1051A000662341F08E5F0F9425408091DA088E5F70
:1051B0000F9425408091DA0890913317891750F3A6
:1051C0002091351790911005291720F3109236176A
:1051D0008093371781E00895CF9380910205811164
:1051E00054C0109236171092371710923817109239
:1051F00004171092031710920617109205171092B9
:10520000081781E08093071782E2809309171092B4
:105210000E1710920D17E2E2F7E120E337E18FEF6E
:1052200081932E173F07E1F7C1E0C0931F1722E7D4
:1052300032E03093151720931417C093161710926D
:1052400017171092181790E49093191710921A17C5
:1052500028EC30E0309331172093301726E132E00C
:10526000309302172093011797E19093261791E14D
:105270009093271790E1909324178093231780939E
:1052800022170F944C3FC093020581E080930305E1
:1052900087E497E1909372168093711610927416BA
:1052A00010927316CF91089520910105022E000CE3
:1052B000330B8217130641F08093010567E477E111
:1052C0008FEF96E10D940B410895CF92DF92EF920C
:1052D000FF920F931F93CF93DF93CDB7DEB72C9739
:1052E0000FB6F894DEBF0FBECDBF6F3F71058105CD
:1052F000910509F0D0F48BEF96E10E940026E09131
:105300000317F09104173196849190E02C960FB614
:10531000F894DEBF0FBECDBFDF91CF911F910F91EB
:10532000FF90EF90DF90CF900895F0903617E090C7
:1053300037172091030521110FC047E257E16E2D69
:105340008F2D0F94CF4190E080E0F80EF092361749
:10535000E09237179927DACFC0900317D09004173F
:105360002FEF36E13A8329832F2D30E03C832B83C6
:105370002E2D30E03E832D8318861F822FEF3FEFC6
:105380003A8729871C861B860EE915E29E012F5F4E
:105390003F4FAB01BC01C6010F94F128B6018FEF5E
:1053A00096E10F940B418F819885CFCFCF93DF93F8
:1053B000FC0125AD211104C021E025AF0F944C3F25
:1053C000C0910117D0910217E0913017F091311779
:1053D00082E01995E0913017F091311781E019952D
:1053E00030E020E044E1BE018FEF96E10F94483FAA
:1053F00022E337E147E1BE018FEF96E10F94483F8A
:10540000E0913017F091311780E0DF91CF9119943E
:10541000CF92DF92EF92FF920F931F93CF93DF9380
:10542000CDB7DEB72C970FB6F894DEBF0FBECDBF59
:10543000F0903617E09037172091030521111DC019
:1054400047E057E16E2D8F2D0F94CF4190E080E023
:10545000F80EF0923617E092371799272C960FB670
:10546000F894DEBF0FBECDBFDF91CF911F910F919A
:10547000FF90EF90DF90CF900895C0900317D090E9
:1054800004172FEF36E13A8329832F2D30E03C8338
:105490002B832E2D30E03E832D8318861F827A8742
:1054A00069871C861B860EE915E29E012F5F3F4F20
:1054B00040E951E2BC01C6010F94B529B6018FEF56
:1054C00096E10F940B418F819885C2CF6FEF7FEFEC
:1054D0000C94082ACF92DF92EF92FF920F931F93C2
:1054E000CF93DF93CDB7DEB72C970FB6F894DEBF1E
:1054F0000FBECDBFF0903617E0903717209103050F
:1055000021111DC047EE56E16E2D8F2D0F94CF4116
:1055100090E080E0F80EF0923617E0923717992766
:105520002C960FB6F894DEBF0FBECDBFDF91CF91A2
:105530001F910F91FF90EF90DF90CF900895C09052
:105540000317D09004172FEF36E13A8329832F2DCC
:1055500030E03C832B832E2D30E03E832D83188654
:105560001F827A8769871C861B860EE915E29E01D9
:105570002F5F3F4F43E951E2BC01C6010F94B529AB
:10558000B6018FEF96E10F940B418F819885C2CFC2
:10559000BF92CF92DF92EF92FF920F931F93CF9320
:1055A000DF938B01F42EE90141FB662760F90E942D
:1055B000B528882309F45AC0B12C0115110521F032
:1055C000C8010E9443BDB82EE12C209721F0CE01E6
:1055D0000E942EBFE82E80E8C82ED12CF0FE1EC0FF
:1055E00085E190E08B199109B7FC93958E1991098B
:1055F000E7FC939597FD019695958795F82E30E8F1
:10560000C32ED12CFA94F7FC09C060E270E080E070
:1056100090E00E946529C81AD90AF4CFBB2099F0FE
:10562000C60166E070E00F94DB5C262F4091DC0839
:105630005091DD086091DB08C8010E9483BC96E0B0
:10564000899F60011124EE2031F0B601CE010E9445
:105650006A2AC81AD90A87E0C816D10438F060E26D
:1056600070E080E090E00E946529F3CFDF91CF9158
:105670001F910F91FF90EF90DF90CF90BF90089512
:105680006FEF7FEF0C946A2AAF92BF92CF92DF92B6
:10569000EF92FF920F931F93CF93DF935C016B0107
:1056A0000E9443BDE82EC6010E942EBFF12C03E1EB
:1056B00010E0081B1109C5E20E151F050CF4CFE11F
:1056C0008C2F90E09C012E5F3F4F40913317421783
:1056D000130609F0CCF509972091351728171906FC
:1056E0009CF14091DC085091DD086091DB0810923C
:1056F0003617C093371725E1C5010E9483BCD1E05E
:10570000C114D104B1F06AE370E080E090E00E943F
:1057100065290E151F05D4F4C45F80913317C8178F
:1057200040F0209135174C2F4950550B2417150682
:105730007CF4DF91CF911F910F91FF90EF90DF905C
:10574000CF90BF90AF900895D0E0DACFDD2389F3FA
:10575000802F880F080F000F00933617C09337175C
:1057600060E270E080E090E00E946529C601DF9170
:10577000CF911F910F91FF90EF90DF90CF90BF904E
:10578000AF900C94402B8F929F92AF92BF92CF928A
:10579000DF92EF92FF920F931F93CF93DF93CDB7DA
:1057A000DEB72C970FB6F894DEBF0FBECDBF982F93
:1057B000862F5A017901D02E692F0E94B52888239F
:1057C00009F489C0C701002391F10E9443BDC82E8E
:1057D000809003179090041780910305811145C0B4
:1057E0001FEF23E12C194091DC085091DD086091F6
:1057F000DB08C5010E9483BCCC2009F46CC0B6E074
:105800008B9F500111246AE370E080E090E00E94D9
:10581000652957E0A516B10408F444C060E270E0C1
:1058200080E090E00E946529A81AB90AF2CF0E9490
:105830002EBFC82E80900317909004178091030507
:10584000882371F2FE0133968AE0DF011D928A956A
:10585000E9F78FEF96E19A83898305E715E29E01C8
:105860002F5F3F4F43E951E212C0FE0133968AE0B9
:10587000DF011D928A95E9F78FEF96E19A8389837C
:1058800005E715E29E012F5F3F4F40E951E2B70166
:10589000C4010F94B529B4018FEF96E10F940B4129
:1058A0001F819FCF4091DA08212F30E0A6E0CA9EE9
:1058B000C00111242E5F3F4F281739070CF49C01BB
:1058C00080E8821B8093361740933717C701DD208D
:1058D000A9F00E94662A2C960FB6F894DEBF0FBE80
:1058E000CDBFDF91CF911F910F91FF90EF90DF908F
:1058F000CF90BF90AF909F908F9008950E94402BC3
:10590000EACFEBEFF6E183AF64AFCA010C94402B12
:105910002F923F924F925F926F927F928F929F92BF
:10592000AF92BF92CF92DF92EF92FF920F931F93AD
:10593000CF93DF93D62FC72FFC0180809180A28068
:10594000B380C501B40120E831E541E050E00F9497
:105950005E5CC9016DE671E00F94DB5C6B017C015C
:10596000C501B40120E13EE040E050E00F945E5CF0
:10597000CA01B90128E130E040E050E00F945E5CDC
:10598000362E272E062F172F8CE3482E512C612CF4
:10599000712CC501B401A30192010F945E5CB62E77
:1059A000A72ECA01B901A30192010F945E5CCB013D
:1059B000C114D10479F1AF92BF927F936F932F926C
:1059C0003F92FF92EF92DF92CF9285E495E19F9311
:1059D0008F93CF93DF930F94B1558DB79EB70E96EB
:1059E0000FB6F8949EBF0FBE8DBF8D2F9C2FDF91F9
:1059F000CF911F910F91FF90EF90DF90CF90BF90CC
:105A0000AF909F908F907F906F905F904F903F905E
:105A10002F900895E114F104C9F0AF92BF927F93E3
:105A20006F932F923F92FF92EF9285E395E19F93C0
:105A30008F93CF93DF930F94B155EDB7FEB73C969C
:105A40000FB6F894FEBF0FBEEDBFCFCF012BB9F05C
:105A5000AF92BF927F936F932F923F9289E295E12D
:105A60009F938F93CF93DF930F94B1558DB79EB7CC
:105A70000A960FB6F8949EBF0FBE8DBFB6CF892B86
:105A8000A9F0AF92BF927F936F9381E295E19F93CC
:105A90008F93CF93DF930F94B155EDB7FEB7389640
:105AA0000FB6F894FEBF0FBEEDBF9FCFAF92BF926F
:105AB0008DE195E19F938F93CF93DF930F94B15531
:105AC0000F900F900F900F900F900F908ECF8F929E
:105AD0009F92AF92BF92CF92DF92EF92FF920F937D
