:100000000C9425240C9456240C9456240C945624B9
:100010000C9456240C9456240C9456240C94562478
:100020000C9456240C9456240C9456240C94562468
:100030000C9456240D94015A0C9456240C94562476
:100040000C9456240C94B6F10C9456240C9456241B
:100050000C9456240C9456240C947DEE0D94B759B0
:100060000C9456240C94715F0C94675F0C94562486
:100070000C9456240C9456240C9456240C94562418
:100080000C9430430C9456240C9456240C9456240F
:100090000C9456240C9456240C9456240C945624F8
:1000A0000C9456240C9456240C9402430C9456241D
:1000B0000C9456240C9456240C9456240C945624D8
:1000C0000C9456240C9456240C9456240C945624C8
:1000D0000C9456240C9456240C9456240C945624B8
:1000E0000C945624084AD73B3BCE016E84BCBFFD1E
:1000F000C12F3D6C74319ABD56833DDA3D00C77FF8
:1001000011BED9E4BB4C3E916BAAAABE0000008090
:100110003F05A84CCDB2D44EB93836A9020C50B91F
:10012000918688083CA6AAAA2ABE000000803F004B
:100130000C94BFBF0C94559B0C944C920C948196DC
:100140000C94CA920C943DD70C9413D70C941B605A
:100150000D94EE530C94DD920C9457940C94969657
:100160000C9471E00C94F4D60C9457AE0D94325369
:100170000C9483920C94F6920C9492960D943C53AA
:100180000D940C530C94F0E20C9441D60D946253F0
:100190000C94749E0D9450530D94AC530C940D27F5
:1001A0000C94E9E00C94779E0C940B600C942D60F9
:1001B0000C94819E0C945C9D0C9407600D941153DB
:1001C0000C9453980D94D2530C9425270C9433928D
:1001D0000C94659E0C9425CD0C94EADD0C9413CD03
:1001E0000C9494940C94419B0C94ECA30C94DE5FBF
:1001F0000C94E9DD0C944E940C94F4CD0C9463941F
:100200000C94B4B30C940EA10C946E9E0D94F63025
:100210000D9425540D942F530C94E1A20C94E742B5
:100220000C9417600D94CC640C941A920C9458247E
:100230000C945DC40C945A9E0C94F9E10C9406B194
:100240000C94F5950C94459B0C94B1420C94AFA979
:100250000C9435600C940F600C94AAA90C94C0BC4B
:100260000C9444D10C94EEBA0C9426E20D943954BB
:100270000C94C8930C9454E00C941BB30C94519BB5
:100280000C9437CD0C942BCD0D941F320C94B1935C
:100290000C9445960C9474920C947CB20C94D5DF1B
:1002A0000C94619B0C949E920D945C640C941D9C28
:1002B0000C9404960C946A9C0C94759D0C94964234
:1002C0000C9476940C943D9B0C9419990D94C05306
:1002D0000C940F930C9483930D945E530C947F9E17
:1002E0000C94F48F0C94519C0D9458530C943DCD68
:1002F0000D944A530C94E7AB0C94E7E10D94CA5368
:100300000D9423530C94FD3B0C9422600C94E54512
:100310000C94849E0C944FCD0C943DDF0C94AEC88D
:100320000C9403600C942A2A0C94839C0C94479898
:100330000C947A940D9454530C94D1940C94A0A9D9
:100340000C94B3D60D94E4530C945D9B0C9449CD5E
:100350000C94159C0C9403950D94B6530D942B534B
:100360000C949A960C940E970C940DCD0C9491B419
:100370000C949A930D94F8530C942BB90C94B0A64A
:100380000C94599B0C94E09E0C94B7920C9494D6C8
:100390000C9485940C9467DD0C94B58F0C949E9608
:1003A0000D94A7530C9424AA0C947A9E0C94878FD6
:1003B0000C94CCBA0C9402B60C94719E0C947E9D55
:1003C0000C94499B0C9413600C9422D60C949C962C
:1003D0000C944EE10C94FA940C9442CB0C94629DD4
:1003E0000D9427530C942CC30C9444930C94EB94CD
:1003F0000C9478940C94689E0C9431CD0C948A944F
:100400000C946C930D9442530C94012A0C940D900F
:100410000C941E930C9431930C94C09C0C9499945E
:100420000C94B3950C94B59C0C94D6BA0C94A7C1BB
:100430000D949F530C94FD940C94F49B0C945B24AA
:100440000C940AE10D9407540D941B540C9443CD65
:100450000C946B9E0D9428310C9498960D944653F1
:100460000C9494960C945D930C94AF5F0D94385358
:100470000C94879E0C9455CD0C94A5A90C94ED5F1B
:100480000D942F540C945B920D94AE640C947CAF3D
:100490000C94A1980C9400950C941FCD0C94E6B18B
:1004A0000D94DA530C944D9B0C94BACD0C948C2A79
:1004B0000D94C9300C946A9D0C9490960C94AA8F5C
:1004C0000C94FB9E0C9419CD0C94FC5F0C9469E188
:1004D0000D9411540C948F940C941E950C94D52467
:1004E0000C94A9980C94CC420C94A5980C94F7B752
:1004F0000C949C9C0C94DD9E4E414E494E4954599F
:10050000494E46CDCCCC3D0AD7233C17B7D13877DE
:10051000CC2B329595E6241FB14F0A0000204100F4
:1005200000C84200401C4620BCBE4CCA1B0E5AAE3E
:10053000C59D7400407A10F35A00A0724E1809004D
:1005400010A5D4E80000E87648170000E40B540238
:100550000000CA9A3B000000E1F505000080969873
:1005600000000040420F000000A0860100000010C3
:100570002700000000E80300000000640000000005
:10058000000A00000000000100000000002C76D8E6
:1005900088DC674F0823DFC1DFAE59E1B1B796E5CC
:1005A000E3E453C63AE651997696E8E6C28426EB30
:1005B000898C9B62ED407C6FFCEFBC9C9F40F2BA43
:1005C000A56FA5F490055A2AF75C936B6CF9676DDB
:1005D000C11BFCE0E40D47FEF520E6B500D0ED9030
:1005E0002E0300943577050080841E080000204EFD
:1005F0000A000000C80C333333330F986E12831196
:1006000041EF8D2114893BE65516CFFEE6DB18D16C
:10061000844B381BF77C1D901DA4BBE4242032843E
:10062000725E228100C9F124ECA1E53D27434F4DC4
:100630004D554E49434154494F4E0044525952552D
:100640004E004552524F525300494E464F004543CB
:10065000484F004572726F722077726974696E67D5
:1006600020746F20454550524F4D210A0053544F7E
:10067000505045442E20005072696E74657220738C
:10068000746F707065642064756520746F20657286
:10069000726F72732E2046697820746865206572C7
:1006A000726F7220616E6420757365204D3939391F
:1006B00020746F20726573746172742E20285465E3
:1006C0006D706572617475726520697320726573EF
:1006D00065742E2053657420697420616674657298
:1006E0002072657374617274696E67290A004E6FB7
:1006F00020436865636B73756D2077697468206C3F
:10070000696E65206E756D6265722C204C61737424
:10071000204C696E653A20004E6F20436865636B1C
:1007200073756D2077697468206C696E65206E75CD
:100730006D6265722C204C617374204C696E653A51
:100740002000636865636B73756D206D69736D61FF
:100750007463682C204C617374204C696E653A2078
:10076000004C696E65204E756D626572206973205C
:100770006E6F74204C617374204C696E65204E75E9
:100780006D6265722B312C204C617374204C696E44
:10079000653A20004D3131300053657269616C203B
:1007A000737461747573206D69736D617463680A25
:1007B00000776169740A00534420726561642065A2
:1007C00072726F720A00486F74656E642049646CBF
:1007D000652054696D656F757400486F74656E644B
:1007E0002049646C652054696D656F75740A002139
:1007F00021204B494C4C20636175736564206279FC
:10080000204B494C4C20627574746F6E2F70696E6A
:100810000A002121204B494C4C20636175736564AB
:1008200020627920746F6F206D75636820696E6136
:1008300063746976652074696D65202D2063757217
:1008400072656E7420636F6D6D616E643A20007026
:1008500061757365004D363030002066696C616DDE
:10086000656E745F72756E6F7574200066696C6179
:100870006D656E745F72756E6F7574205400466995
:100880006C616D656E7452756E6F75742054004D99
:10089000656469612052656D6F766564004D6564BD
:1008A000696120496E736572746564004D31303042
:1008B000305300627573793A2070617573656420F6
:1008C000666F7220696E7075740A00627573793A8A
:1008D0002070617573656420666F72207573657230
:1008E0000A00627573793A2070726F636573736979
:1008F0006E670A00506C656173652052657365749C
:10090000005052494E5445522048414C54454400F1
:1009100025533A20255300706F7765726F66660025
:100920004B494C4C45442E20005072696E746572E0
:100930002068616C7465642E206B696C6C282920BA
:1009400063616C6C6564210A0053544F50504544F8
:100950002E20005072696E7465722073746F70700F
:1009600065642064756520746F206572726F7273A0
:100970002E2046697820746865206572726F722037
:10098000616E6420757365204D39393920746F208C
:10099000726573746172742E202854656D7065726F
:1009A00061747572652069732072657365742E2099
:1009B0005365742069742061667465722072657372
:1009C00074617274696E67290A006563686F3A0022
:1009D0004572726F723A0042696C696E656172208D
:1009E0004C6576656C696E6720477269643A0A00E7
:1009F00021212053544F502063616C6C6564206248
:100A0000656361757365206F6620424C546F756332
:100A100068206572726F72202D2072657374617226
:100A2000742077697468204D3939390A00212120F2
:100A300053544F502063616C6C6564206265636140
:100A4000757365206F6620424C546F75636820652E
:100A500072726F72202D20726573746172742077C8
:100A6000697468204D3939390A005072696E7469A9
:100A70006E67204F626A6563740025532025690004
:100A80002F2F616374696F6E3A0073746172740022
:100A900070726F6D70745F00656E6400486F74658E
:100AA0006E6420746F6F20636F6C640A0053656E10
:100AB00064204D31303820746F20726573756D6518
:100AC0000A00496E736572742066696C616D656EAB
:100AD0007420616E642073656E64204D3130380A75
:100AE0000052656865617420446F6E6500526568E8
:100AF000656174696E672E2E2E005265686561749B
:100B0000004865617465722054696D656F75740085
:100B100053656E64204D31303820746F20686561F4
:100B200074206E6F7A7A6C650A004E6F7A7A6C6503
:100B3000205061726B65640070617573656400506C
:100B40006175736500726573756D656400526573D8
:100B5000756D696E67004732362043616E63656C60
:100B60006564004732362048656174696E67204EBF
:100B70006F7A7A6C65004732362048656174696E19
:100B800067204265640057616974696E6720666F0B
:100B900072206865617475702E0A00466978656414
:100BA000204C656E677468205072696D6500446FF3
:100BB0006E65205072696D696E67004D616E75617A
:100BC0006C207072696D696E672E2E2E004C656107
:100BD00076696E6720473236003F537065636966F9
:100BE00069656420582C5920636F6F7264696E6167
:100BF0007465206F7574206F6620626F756E647304
:100C00002E0A003F28522965706561742076616C58
:100C10007565206E6F7420706C61757369626C65A8
:100C20003B206D757374206265206174206C656172
:100C3000737420312E0A003F5370656369666965DD
:100C400064206E6F7A7A6C652074656D7065726170
:100C500074757265206E6F7420706C617573696253
:100C60006C652E0A003F5370656369666965642090
:100C700066696C616D656E742073697A65206E6F4C
:100C80007420706C61757369626C652E0A003F5345
:100C90007065636966696564207072696D65206C52
:100CA000656E677468206E6F7420706C617573690F
:100CB000626C652E0A003F537065636966696564FE
:100CC000206E6F7A7A6C652073697A65206E6F7416
:100CD00020706C61757369626C652E0A003F526505
:100CE0007472616374696F6E204D756C7469706C99
:100CF000696572206D757374206265207370656319
:100D000069666965642E0A003F53706563696669A8
:100D100065642052657472616374696F6E204D75ED
:100D20006C7469706C696572206E6F7420706C6190
:100D3000757369626C652E0A003F5370656369665E
:100D4000696564206C61796572206865696768749B
:100D5000206E6F7420706C61757369626C652E0A09
:100D60000043292E0A003F53706563696669656414
:100D7000206265642074656D70657261747572655A
:100D8000206E6F7420706C61757369626C652028C9
:100D900034302D00473236207374617274696E6787
:100DA0002E2E2E0A004F46460A00466164652048F2
:100DB00065696768742000426564204C6576656CDF
:100DC000696E6720004661696C656420746F2065F8
:100DD0006E61626C6520426564204C6576656C6965
:100DE0006E670A00496E76616C6964206D65736890
:100DF0002E0A0050726F62696E6720506F696E74C0
:100E00000025532025692F2569002E0A002F005048
:100E1000726F62696E67206D65736820706F696EAE
:100E2000742000202844525952554E290047323927
:100E3000204175746F20426564204C6576656C694D
:100E40006E67003F20284C2C522C462C4229206FE4
:100E50007574206F6620626F756E64732E0A003F92
:100E60002856296572626F7365206C6576656C2003
:100E7000696D706C61757369626C652028302D3402
:100E8000292E0A00426164205A2076616C75650A39
:100E9000004E6F2062696C696E65617220677269CD
:100EA000640A00446576696174696F6E0025533A7F
:100EB0002025730046696E6973686564210A003AEB
:100EC000207A3A2000206F662000476F696E672005
:100ED000746F3A20580043570A00206469723A0040
:100EE00020616E676C653A005374617274207261A0
:100EF000646975733A004D343820506F696E740020
:100F000025533A2025642F256400506F7369746956
:100F10006F6E696E67207468652070726F62652EEF
:100F20002E2E0A003F4C656773206F66206D6F762A
:100F3000656D656E7420696D706C61757369626C46
:100F4000652028302D3135292E0A003F2028582CC5
:100F50005929206F7574206F6620626F756E6473F7
:100F60002E0A0050726F6265206F7574206F6620C4
:100F7000626F756E6473003F53616D706C652073B2
:100F8000697A65206E6F7420706C61757369626C2C
:100F9000652028342D3530292E0A004D3438205A4A
:100FA0002D50726F6265205265706561746162696F
:100FB0006C69747920546573740A003F285629655A
:100FC00072626F7365206C6576656C20696D706CFC
:100FD00061757369626C652028302D34292E0A00F2
:100FE0005374616E646172642044657669617469EA
:100FF0006F6E3A20002052616E67653A2000204DE6
:1010000061783A2000204D696E3A200020536967CC
:101010006D613A20004D65616E3A2000205200411A
:101020006363656C65726174696F6E3A2050005736
:1010300041524E494E4721204C6F77205A204A6535
:10104000726B206D6179206C65616420746F20750E
:101050006E77616E746564207061757365732E0AB6
:10106000004F4646004F4E0020204D61783A200048
:10107000200020204D696E3A2000536F6674206571
:101080006E6473746F70733A20004D3234205325B0
:101090006C642054256C64004739322E3920452574
:1010A0007300473120462564004739322E39205AD3
:1010B0002573004731205A30204632303000473106
:1010C0002058257320592573204633303030004D89
:1010D00034323020532569205A2573004D31303683
:1010E0002050256920532569004D32303020442599
:1010F000730047323852305859004739322E392060
:101100004530205A300A47315A2573004D31303965
:1011100020532569004D31393020532569004D3465
:101120003230205330205A300020496E76616C698D
:1011300064206578747275646572200047322F47A9
:10114000332062616420706172616D6574657273D1
:101150000A00536C6565702E2E2E005A2050726F57
:1011600062652050617374204265640A005A205001
:10117000726F62652050617374204265640047326B
:10118000384C30004D3131372050726F6265206627
:1011900061696C65642E0A4732380A0070726F62AA
:1011A000655F7265776970650047323920526574F2
:1011B0007279696E670050726F62696E672046616E
:1011C000696C6564004D31313720426564206C657F
:1011D00076656C696E67206661696C65642E0A4786
:1011E00030205A31300A4D333030205032352053C0
:1011F0003838300A4D333030205035302053300AE3
:101200004D3330302050323520533838300A4D338A
:101210003030205035302053300A4D33303020509C
:10122000323520533838300A4D3330302050353085
:101230002053300A47342053310070726F62655F6B
:101240006661696C6564004D313137204265642008
:101250006C6576656C696E6720646F6E652E002024
:101260005A3A200020593A200042656420583A201A
:10127000004D65736820706F696E74206F757420FF
:101280006F662072616E67650A004D302053746F7F
:1012900070004D312053746F7000436C69636B2094
:1012A000746F20526573756D652E2E2E004E6F2063
:1012B0004D6F76652E00456E642066696C65206C06
:1012C0006973740A00426567696E2066696C6520FF
:1012D0006C6973740A004E6F206D656469610A0061
:1012E000526573756D696E6720534400286E6F20D8
:1012F00066696C65290043757272656E7420666953
:101300006C653A20005072696E742074696D653A9C
:101310002000436F6F6C696E672E2E2E004865614A
:1013200074696E672E2E2E0045202553006F6B00CA
:101330006F6666004E06490642063B062D0644458A
:101340004255473A004D3131332053004265642005
:10135000436F6F6C696E672E2E2E004265642048C5
:10136000656174696E672E2E2E00343030205375FF
:10137000506552204F46462E002F2F004D313435F8
:1013800020533C696E6465783E206F7574206F66EB
:101390002072616E67652028302D31290A004D3298
:1013A000303620580046523A0020466C6F773A207B
:1013B000003A200020536572766F2000206F75740C
:1013C000206F662072616E67650A00536572766FE2
:1013D000200020643A0020693A0020703A00496EEB
:1013E00076616C69642065787472756465720A0050
:1013F00020643A0020693A0020703A006469730062
:10140000656E0043290A0061626C656420286D697D
:101410006E2074656D702000436F6C642065787475
:10142000727564657320617265200046696C616D38
:10143000656E742072756E6F757420646973746163
:101440006E636520286D6D293A200046696C616DD8
:10145000656E742072756E6F757420004D34323174
:1014600020696E636F727265637420706172616D62
:10147000657465722075736167650A004D657368F0
:1014800020706F696E74206F7574206F66207261B2
:101490006E67650A004F66667365747320417070ED
:1014A0006C696564004572723A20546F6F20666102
:1014B000722100546F6F206661722066726F6D201A
:1014C0007265666572656E636520706F696E740A19
:1014D00000454550524F4D204F4B0A002E0A002028
:1014E00028302D313029002076616C7565206F75AC
:1014F00074206F662072616E676500416476616E6C
:101500006365204B3D00506F7765722D6C6F737370
:10151000207265636F7665727920004D383400441F
:101520006F6E65207072696E74696E672066696C93
:10153000650A004D3737004D3331004361703A0082
:101540004D4541545041434B00434F4F4C45525F32
:1015500054454D5045524154555245004348414D24
:101560004245525F54454D504552415455524500F5
:10157000424142595354455050494E47004152430D
:1015800053004D4F54494F4E5F4D4F444553005407
:101590004845524D414C5F50524F54454354494F7A
:1015A0004E004C4F4E475F46494C454E414D45001D
:1015B0004155544F5245504F52545F53445F53541A
:1015C000415455530053445F5752495445005245C6
:1015D00050454154005344434152440050524F4DF2
:1015E00050545F535550504F525400454D4552474B
:1015F000454E43595F504152534552004341534574
:101600005F4C494748545F4252494748544E4553FE
:101610005300544F47474C455F4C4947485453008B
:10162000534F4654574152455F504F574552004221
:1016300055494C445F50455243454E54004C455625
:10164000454C494E475F44415441005A5F50524F08
:1016500042450052554E4F5554004155544F4C454C
:1016600056454C005052494E545F4A4F420050522A
:101670004F4752455353004155544F5245504F52D6
:10168000545F54454D5000564F4C554D45545249AA
:101690004300454550524F4D0042494E4152595F1B
:1016A00046494C455F5452414E53464552005345BE
:1016B0005249414C5F584F4E5F584F46460046498D
:1016C000524D574152455F4E414D453A4D61726C06
:1016D000696E20322E302E375F4457372E33205418
:1016E0004D33442034534D414242202841707220F2
:1016F000323420323032312032323A32363A3431DA
:101700002920534F555243455F434F44455F55523F
:101710004C3A68747470733A2F2F676974687562F5
:101720002E636F6D2F496E73616E697479417574A4
:101730006F6D6174696F6E2F4D61726C696E2F747D
:101740007265652F437265616C6974794477696E5F
:101750005F322E302050524F544F434F4C5F56450E
:101760005253494F4E3A312E30204D414348494E55
:10177000455F545950453A343030205375506552C6
:101780002045585452554445525F434F554E543AA4
:101790003120555549443A63656465326132662D9E
:1017A000343161322D343734382D396231322D6382
:1017B00035356336326633363766660A0050726FE7
:1017C0006265204F6666736574205A0050726F62BE
:1017D00065204F6666736574205A00290A002074DC
:1017E0006F20003F5A206F7574206F662072616E03
:1017F0006765202800290A0020746F20003F5920C7
:101800006F7574206F662072616E676520282D00E9
:10181000290A0020746F20003F58206F7574206FD4
:10182000662072616E676520282D0050726F6265B8
:10183000204F666673657420580043616E6E6F7446
:10184000206F70656E20737562646972200025696F
:10185000730025696D202569730025696820256955
:101860006D20256973002569642025696820256934
:101870006D20256973002569792025696420256913
:10188000682025696D20256973000A53746174739B
:101890003A2046696C616D656E7420757365643AB3
:1018A00020002C204C6F6E67657374206A6F623A5B
:1018B0002000546F74616C2074696D653A20005388
:1018C000746174733A20002C204661696C65643A37
:1018D00020002C2046696E69736865643A200050C8
:1018E00072696E74733A200053746174733A200005
:1018F00023646566696E652044454641554C545FD6
:1019000000626564004B6420004B6920004B70202E
:1019100000504944204175746F74756E6520666986
:101920006E69736865642120507574207468652041
:101930006C617374204B702C204B6920616E6420A5
:101940004B6420636F6E7374616E74732066726F84
:101950006D2062656C6F7720696E746F20436F6EC7
:1019600066696775726174696F6E2E680A00504906
:1019700044204175746F74756E65206661696C658D
:1019800064212074696D656F75740A0050494420A4
:101990004175746F74756E65206661696C6564214C
:1019A0002054656D706572617475726520746F6F17
:1019B00020686967680A00204B643A2000204B6960
:1019C0003A2000204B703A200020436C6173736909
:1019D0006320504944200A00204E6F206F766572C4
:1019E00073686F6F740A002054753A2000204B759D
:1019F0003A2000206D61783A2000206D696E3A200F
:101A00000020643A200020626961733A2000504946
:101A100044204175746F74756E65207374617274BF
:101A20000A00504944204175746F74756E652066D4
:101A300061696C6564212054656D706572617475AF
:101A4000726520746F6F20686967680A00504944A6
:101A5000204175746F74756E65005049442041755E
:101A6000746F74756E65206661696C6564212042CF
:101A70006164206865617465722069640A0045725A
:101A8000723A207574663820666F6E74206E6F74BB
:101A900020696E697469616C697A65642E004572AB
:101AA000723A207574663820666F6E74206E6F749B
:101AB00020696E697469616C697A65642E0045728B
:101AC000723A207574663820666F6E74206E6F747B
:101AD00020696E697469616C697A65642E00000C16
:101AE0000F00FE07022503BB017FFE08FE08FE056E
:101AF000080806000040F0C8888898781005080893
:101B0000060000C0F88888888888F8050505060062
:101B1000012030F830200508080600002070F82069
:101B2000202020E00509090600FF2070A8A8B88839
:101B3000887020070505070001D86C366CD80509A8
:101B4000090600FFF8A88888888888A8F8050A0A86
:101B50000600FE205050505088A8A8887003030348
:101B600006000340A040FFFFFFFFFFFFFFFFFFFF56
:101B7000FFFFFFFFFFFFFFFFFFFFFFFF000000066B
:101B800005FF010707060200808080808000800337
:101B90000303060105A0A0A005060606000050F8F4
:101BA0005050F8500509090600FF2070A8A07028C1
:101BB000A87020050707060000C8C81020409898A4
:101BC00005070706000040A0A040A8906801030395
:101BD0000602058080800309090601FF204040803D
:101BE00080804040200309090601FF8040402020FA
:101BF0002040408005070706000020A8702070A83C
:101C0000200505050600012020F820200203030618
:101C100001FFC04080050101060003F80202020630
:101C20000100C0C005070706000008101020404052
:101C300080050707060000708898A8C88870030709
:101C40000706010040C040404040E005070706008D
:101C500000708808102040F8050707060000F80803
:101C6000103008887005070706000010305090F803
:101C70001010050707060000F880F00808887005B6
:101C80000707060000304080F088887005070706C7
:101C90000000F8081010202020050707060000703B
:101CA0008888708888700507070600007088887823
:101CB000081060020505060100C0C000C0C0020691
:101CC000060601FFC0C000C04080030505060101F3
:101CD0002040804020050303060002F800F80305B9
:101CE00005060101804020408005070706000070BE
:101CF0008810202000200507070600007088B8A87B
:101D0000B88070050707060000708888F888888802
:101D1000050707060000F04848704848F005070727
:101D20000600007088808080887005070706000024
:101D3000F04848484848F0050707060000F880804A
:101D4000F08080F8050707060000F88080F08080AA
:101D50008005070706000070888080988870050756
:101D600007060000888888F8888888030707060126
:101D700000E04040404040E0050707060000381002
:101D800010101090600507070600008890A0C0A002
:101D90009088050707060000808080808080F80515
:101DA000070706000088D8A88888888805070706DE
:101DB00000008888C8A89888880507070600007072
:101DC000888888888870050707060000F08888F0F2
:101DD00080808005070706000070888888A89068C2
:101DE000050707060000F08888F0A090880507071F
:101DF00006000070888070088870050707060000DC
:101E0000F820202020202005070706000088888869
:101E100088888870050707060000888888885050E1
:101E20002005070706000088888888A8A8500507AD
:101E3000070600008888502050888805070706009C
:101E40000088885020202020050707060000F80899
:101E500010204080F80309090601FFE0808080809F
:101E6000808080E0050707060000804040201010B9
:101E7000080309090601FFE020202020202020E09F
:101E80000503030600052050880501010600FEF841
:101E900003030306010580402005050506000070C8
:101EA000087888780507070600008080F088888811
:101EB000F00505050600007080808870050707069C
:101EC00000000808788888887805050506000070F5
:101ED00088F08070050707060000304840E0404069
:101EE000400507070600FE70888888780870050797
:101EF000070600008080F0888888880307070601AD
:101F0000004000C0404040E00409090601FE100006
:101F100030101010109060050707060000808088C0
:101F200090E09088030707060100C0404040404011
:101F3000E0050505060000D0A8A8A8A80505050627
:101F40000000B0C8888888050505060000708888EC
:101F500088700507070600FEF0888888F0808005F5
:101F600007070600FE7888888878080805050506B2
:101F70000000B0C8808080050505060000788070EC
:101F800008F00507070600002020F820202018058B
:101F90000505060000888888986805050506000084
:101FA00088888850200505050600008888A8A85064
:101FB0000505050600008850205088050707060023
:101FC000FE88888850204080050505060000F8102E
:101FD0002040F80309090601FF20404040804040AE
:101FE00040200109090602FF808080808080808077
:101FF000800309090601FF804040402040404080A6
:1020000005030306000248A890FF554E4C4F41447B
:102010002046494C414D454E54004C4F41442046CA
:10202000494C414D454E540046494C414D454E5456
:10203000204348414E47450042656400456E636C4D
:102040006F73757265002568753A253032687500C2
:1020500025303268753A25303268750020202020FE
:102060002020200020202020001FE0201020102011
:102070001010201020201020103030084004800361
:10208000001FE03FF03FF03FF01FE01FE03FF03F58
:10209000F03FF00FC0078003003FFFF038007030C2
:1020A000FC3020FC102078102030102C00D02E3175
:1020B000D02F7BD02F7BD02E31D02C00D0203010D1
:1020C00020781020FC1030FC303800703FFFF03FCB
:1020D000FFF03800703186302387102787902F87D4
:1020E000D02F03D02030102078102078102030100E
:1020F0002F03D02F87D02787902387103186303841
:1021000000703FFFF01FFFF81FFFF80410400208A7
:1021100020020820041040082080104100104100D7
:102120000820800410400000001FFFF81FFFF8FF88
:10213000FFFF8000018E00E19F01F19381399F81B3
:10214000F99F81F99FB9F98F28F18038018000014A
:102150009FFFF99174999B06A99B54A99B56A99B33
:1021600054999FFFF9FFFFFF6E6F746966696361A1
:1021700074696F6E200063616E63656C00507269F4
:102180006E742041626F72746564004469736D6996
:1021900073730055492041626F72746564004D325B
:1021A0003520500A4D323400526573756D65005507
:1021B000492050617573650050617573696E672EB3
:1021C0002E2E00726573756D65004D32340000FE71
:1021D0000003FF8007C7C00701E00000E00000F037
:1021E0000000700400700E00701F00703F80F00E41
:1021F00000E00F01E007C7C003FF8000FE0000FE03
:102200000003FF8007C7C00F01E00E00E03F80F031
:102210001F00700E00700400700000700000F000DD
:1022200000E00701E007C7C003FF8000FE000E00CA
:102230000E000E000E000E000E000E000E007FC0FD
:102240003F801F000E00040004000E001F003F80AE
:102250007FC00E000E000E000E000E000E000E00DD
:102260000E00FFFFFF7F80FFC0FFC0FFC07F807FA9
:1022700080FFC0FFC0FFC03F001E000C0050726F07
:102280006265205A204F66667365740052756E6FE2
:1022900075742044697374206D6D004C6F61642007
:1022A0006D6D00556E6C6F6164206D6D0046696CDC
:1022B0002E204469612E004520696E206D6D5E33CD
:1022C00000416476616E6365204B004D33303320EE
:1022D0005531204525692053256900504944204146
:1022E00075746F74756E65202A005049442D442022
:1022F0002A005049442D49202A005049442D50209D
:102300002A0020082046616374002008204D61786F
:10231000002008204D696E004F6666004F6E004138
:1023200075746F74656D70005654726176204D69D6
:102330006E00566D696E00566D6178204500566DD1
:102340006178205A00566D6178205900566D617889
:10235000205800416D6178204500416D6178205A18
:1023600000416D6178205900416D6178205800412D
:102370002D54726176656C00412D526574726163F3
:102380007400416363656C0056652D4A65726B008D
:10239000565A2D4A65726B0056592D4A65726B006C
:1023A00056582D4A65726B0050726F6265205A2034
:1023B0004F66667365740050726F62652059204FD6
:1023C00066667365740050726F62652058204F66B0
:1023D0006673657400452073746570732F6D6D00AE
:1023E0005A2053746570732F6D6D005920537465B6
:1023F00070732F6D6D00582053746570732F6D6D61
:1024000000416476616E6365642053657474696E1F
:102410006773003F0043616E63656C00496E6974C9
:10242000004D34323800496E697469616C697A65AF
:1024300020454550524F4D0046696C616D656E7484
:102440000054656D706572617475726500537465D2
:1024500070732F6D6D0050726F6265204F666673EA
:10246000657473004A65726B00416363656C6572E5
:102470006174696F6E0056656C6F6369747900539F
:10248000657420486F6D65204F66667365747300D0
:10249000436F6E66696775726174696F6E003F00A5
:1024A0004E65787420506F696E7400446F6E6500DD
:1024B0004E65787400486F6D696E672058595A00F0
:1024C0003F0043616E63656C204F626A6563740010
:1024D0004E4F005945530043616E63656C204F6257
:1024E0006A656374203D004D61696E0053746F77B7
:1024F000004465706C6F790053656C662D5465738C
:10250000740053572D4D6F646500526573657400F8
:10251000426564004E6F7A7A6C650046616E2053A6
:102520007065656400436F6E666967757261746992
:102530006F6E00526573746F7265204465666175D5
:102540006C7473004C6F61642053657474696E67BA
:10255000730053746F72652053657474696E67738A
:102560000050726568656174202420436F6E6600B8
:10257000506F776572204F7574616765004F6666AE
:10258000004F6E0052756E6F75742053656E736FD9
:102590007200424C546F7563680050726F62652020
:1025A0005A204F666673657400416476616E636598
:1025B000642053657474696E6773004D61696E00C1
:1025C0004D37303220542564004D363030204230B3
:1025D00020542564004D373032203B2564004D37B0
:1025E000303120542564004D373032004D373031C2
:1025F000004D363030204230004D61696E00436F2F
:102600006E74696E7565004F6666004F6E00527598
:102610006E6F75742053656E736F720050757267BC
:1026200065206D6F726500524553554D45204F50E2
:1026300054494F4E533A005052494E542050415540
:102640005345440020204E6F7A7A6C653A20005042
:1026500061726B696E672E2E2E00000057616974DF
:1026600020666F720066696C616D656E74206368C8
:10267000616E676500746F207374617274005761D6
:10268000697420666F720066696C616D656E742096
:10269000756E6C6F616400004E6F7A7A6C652068AD
:1026A000656174696E6700506C6561736520776160
:1026B00069742E2E2E00005072657373206275743B
:1026C000746F6E00746F2068656174206E6F7A7A23
:1026D0006C650000496E736572742066696C616D8B
:1026E000656E7400616E642070726573732062752C
:1026F00074746F6E00746F20636F6E74696E7565AD
:10270000005761697420666F720066696C616D655F
:102710006E74206C6F6164000050726573732042A8
:102720007574746F6E00746F20726573756D6520BB
:102730007072696E7400005761697420666F722050
:102740007072696E7400746F20726573756D652E9A
:102750002E2E00005761697420666F720066696CE6
:10276000616D656E7420707572676500003E2000B3
:10277000256C642E25696D004578747275646564F6
:1027800020546F74616C003E20004C6F6E6765735F
:1027900074204A6F622054696D65003E2000546FBA
:1027A00074616C205072696E742054696D650043C9
:1027B0006F6D706C65746564003A20005072696ECC
:1027C0007420436F756E74003A2000313530003547
:1027D000004245443A203125206265746120333936
:1027E00035300052756E6177617920576174636886
:1027F0003A204F4E004D61782054656D70003331A2
:1028000035004D696E2054656D7000350045313AD4
:10281000204550434F53203130304B00505355002A
:1028200047656E657269630050726F746F636F6C99
:1028300000312E3000426175640032353030303066
:1028400000437265616C69747933442052414D5084
:10285000530042696C696E656172204C6576656CE7
:10286000696E670045787472756465727300310033
:1028700074696E796D616368696E657333642E6324
:102880006F6D003430302053755065520032303255
:10289000312D30342D313800322E302E375F4457F1
:1028A000372E33004D61726C696E005072696E7420
:1028B000657220537461747300546865726D697336
:1028C000746F727300426F61726420496E666F00AC
:1028D0005072696E74657220496E666F004D616951
:1028E0006E004D313030300053746F70205072697B
:1028F0006E7400526573756D65205072696E740058
:10290000506F776572204F7574616765004D31397E
:10291000305337350A4732380A4732390A4D343096
:10292000300A4D313034533231350A4732380A4D8E
:10293000313039533231350A4D34323053310A4750
:1029400031583130305931303046353030300A4727
:10295000315A300A4D3530300A4D31313720536508
:1029600074205A204F6666736574004D31303653BB
:102970003132380A4D3330334338533231354530F4
:10298000550A4D3530300A4D3131372050494420F9
:1029900054756E6520446F6E65004D313930533784
:1029A000350A4D313034533231350A4732380A470F
:1029B00032394C310A4731205831303059313030BA
:1029C00046353030300A47315A30004D3530300A04
:1029D0004D3131372053657474696E6773205374B9
:1029E0006F726564005072657020666F72205A20A5
:1029F00041646A757374005049442054756E6500D3
:102A000053746F72652053657474696E67730053F5
:102A100065747570004D61696E003F004261636BC3
:102A20000053746F70005072696E742066726F6D1F
:102A3000204D65646961004368616E6765204D657E
:102A4000646961004D32310041626F7574205072CB
:102A5000696E746572004368616E67652046696CD3
:102A6000616D656E74004C6576656C696E672054A7
:102A70006F6F6C7300436F6E66696775726174691E
:102A80006F6E0054656D7065726174757265004D8E
:102A90006F74696F6E00486F737420537461727441
:102AA00000526573756D65205072696E74004E6FCB
:102AB000204D656469610043616E63656C204F62FF
:102AC0006A6563740054756E650053746F702050AE
:102AD00072696E74005061757365205072696E740E
:102AE00000496E666F2053637265656E003F005348
:102AF00074617274205072696E740043616E636514
:102B00006C005072696E740043616E6E6F74206564
:102B10006E746572207375626469723A2000022EC9
:102B20002E004D61696E002100486F74656E64204F
:102B3000746F6F20636F6C64004261636B0050724E
:102B40006F6365656400536F667420456E647374CB
:102B50006F7073004D6F74696F6E004469736162CA
:102B60006C65205374657070657273004D38340065
:102B70004D34382050726F6265205465737400477D
:102B800032384F0A4D343820503130004C6576656C
:102B90006C20436F726E65727300466164652048F5
:102BA0006569676874004F6666004F6E0042656431
:102BB000204C6576656C696E67004C6576656C20A7
:102BC000426564004732394E00486F6D65205A00F7
:102BD0004732385A00486F6D6520590047323859DE
:102BE00000486F6D652058004732385800417574B1
:102BF0006F20486F6D6500473238004D61696E0087
:102C000050726568656174202420456E64005072BE
:102C100065686561742024204265640054656D70A8
:102C20006572617475726500436F6F6C646F776E67
:102C3000005072656865617420240046616E2053FF
:102C400070656564207E00426564004E6F7A7A6C20
:102C500065004D61696E0050726F6265205A204FA9
:102C6000666673657400416476616E6365204B002F
:102C7000466C6F770046616E205370656564207EF8
:102C800000426564004E6F7A7A6C6500537065652A
:102C900064004D61696E00486F6D696E6720466122
:102CA000696C6564006F70656E0054524947474512
:102CB000524544003A200066696C616D656E74008F
:102CC0007A5F6D696E00795F6D696E00785F6D691E
:102CD0006E005265706F7274696E6720656E647302
:102CE000746F70207374617475730A0020746F6F51
:102CF000206C6F6E6720657874727573696F6E20D3
:102D000070726576656E7465640A0020636F6C642A
:102D100020657874727573696F6E20707265766560
:102D20006E7465640A00486F6D65202573257325F0
:102D300073204669727374005761726E696E673AE8
:102D400020486F6D696E672042756D70204469760A
:102D500069736F72203C20310A00020204000000F7
:102D60000000000000000000000000CD430000C88B
:102D7000430000C843000000410000004100000083
:102D800040FFFFFF00000001000000010000800084
:102D9000555555000000400033333300AAAA2A00DD
:102DA0004992240000002000C7711C009999190065
:102DB000D1451700555515003BB1130024491200A9
:102DC00011111100000010000F0F0F00E3380E006A
:102DD00043790D00CCCC0C00C3300C00E8A20B00F2
:102DE00064210B00AAAA0A00703D0A009DD80900C0
:102DF000427B090092240900DCD30800888808007F
:102E00001042080000000800F0C107008787070093
:102E100075500700711C07003EEB0600A1BC0600C0
:102E20006990060066660600703E0600611806009E
:102E300017F4050074D105005BB00500B2900500E1
:102E4000627205005555050078390500B81E050069
:102E5000050505004EEC040087D40400A1BD040064
:102E600090A7040049920400C17D0400EE690400AB
:102E7000C7560400444404005C32040008210400E6
:102E800041100400000004003FF00300F8E00300DC
:102E900026D20300C3C30300CCB503003AA8030045
:102EA0000A9B0300388E0300C08103009F75030056
:102EB000D0690300505E03001D5303003448030033
:102EC000913D03003333030016290300381F03002C
:102ED00097150300300C0300030303000BFA0200F4
:102EE00049F10200BAE802005CE002002DD80200BD
:102EF0002DD0020059C80200B0C0020031B9020052
:102F0000DAB10200AAAA0200A0A30200BC9C02003F
:102F1000FA9502005C8F0200DF88020082820200C4
:102F2000457C02002776020027700200436A0200F7
:102F30007C640200D05E02003F590200C8530200C8
:102F4000FFFDFCFAF8F6F4F2F0EEECEAE9E7E5E36F
:102F5000E1E0DEDCDAD9D7D5D4D2D0CFCDCBCAC828
:102F6000C7C5C3C2C0BFBDBCBAB9B7B6B4B3B2B0AF
:102F7000AFADACAAA9A8A6A5A4A2A1A09E9D9C9A0B
:102F800099989795949392908F8E8D8B8A89888744
:102F90008684838281807F7E7D7B7A79787776755F
:102FA00074737271706F6E6D6C6B6A696867666559
:102FB00064636261605F5E5D5C5B5A595858575646
:102FC000555453525150504F4E4D4C4B4A4A49481C
:102FD000474646454443424241403F3E3E3D3C3BDE
:102FE0003B3A393838373635353433323231303090
:102FF0002F2E2E2D2C2B2B2A292928272726252535
:1030000024232322212120201F1E1E1D1C1C1B1BCC
:103010001A19191818171616151514131312121158
:1030200011100F0F0E0E0D0D0C0C0B0A0A090908DA
:103030000807070606050504040303020201000051
:103040000000CD430000C8430000C843000000005A
:10305000000000000000000053657474696E67731F
:103060002053746F72656400454550524F4D20499E
:103070006E697469616C697A65640A003B20003A84
:103080000A0020204D363033200020440020204DFF
:1030900034313220530046696C616D656E74207264
:1030A000756E6F75742073656E736F723A0020557C
:1030B000004C0046696C616D656E74206C6F6164D4
:1030C0002F756E6C6F6164206C656E677468733AFF
:1030D0000020204D393030204B004C696E65617204
:1030E00020416476616E63653A0020204D383531A9
:1030F0002058005A2D50726F6265204F66667365C6
:10310000740020204D343133205300506F776572A6
:103110002D4C6F7373205265636F766572793A0038
:1031200020440020490020204D333034205000201E
:10313000440020490020204D3330312050005049B8
:10314000442073657474696E67733A0020460020EA
:10315000480020204D3134352053004D6174657294
:1031600069616C2068656174757020706172616D51
:1031700065746572733A00204A0020204732392076
:103180005720490020204D343230205300417574BF
:103190006F20426564204C6576656C696E673A0005
:1031A00020204D323036205800486F6D65206F6604
:1031B000667365743A0020580020530020204D3279
:1031C0003035204200416476616E6365643A204286
:1031D0003C6D696E5F7365676D656E745F74696D74
:1031E000655F75733E20533C6D696E5F666565640F
:1031F000726174653E20543C6D696E5F74726176D5
:10320000656C5F66656564726174653E20583C6DEF
:1032100061785F785F6A65726B3E20593C6D6178BA
:103220005F795F6A65726B3E205A3C6D61785F7AA8
:103230005F6A65726B3E20453C6D61785F655F6AD1
:1032400065726B3E0020540020520020204D323029
:1032500034205000416363656C65726174696F6E00
:103260002028756E6974732F7332293A20503C7090
:1032700072696E745F616363656C3E20523C726577
:1032800074726163745F616363656C3E20543C7467
:10329000726176656C5F616363656C3E0020204DF2
:1032A0003230312058004D6178696D756D20416371
:1032B00063656C65726174696F6E2028756E6974E0
:1032C000732F7332293A0020204D323033205800BA
:1032D0004D6178696D756D206665656472617465B0
:1032E000732028756E6974732F73293A00537465BF
:1032F00070732070657220756E69743A0020440006
:1033000020204D3230302053002044697361626CBC
:1033100065640A0046696C616D656E74207365743E
:1033200074696E67733A0020204D31343920432090
:103330003B20556E69747320696E2043656C736918
:1033400075730A0020286D6D290020204732312036
:103350002020203B20556E69747320696E206D6DAE
:10336000000000FA430000C843000020410000961E
:10337000420000A0420000A0420000C8430000BE7E
:1033800042E8030000EE020000640000004B000071
:103390000024F4D43050C38E20C2A24017828B7018
:1033A00011127A910D816CD90AA861E108C758669B
:1033B00007615143061E4B5D05C145A7041A411123
:1033C00004093D9803713931034036DB02653391BE
:1033D00002D4305402802E1D02632CEE01752AC5E2
:1033E00001B028A001102781018F2564012B244BF7
:1033F00001E0223401AC211F018D200D01801FFC52
:1034000000841EED00971DDF00B81CD200E61BC62D
:1034100000201BBC00641AB200B219A8000A19A04F
:10342000006A189900D117910040178B00B51684D7
:103430000031167E00B31579003A157300C7146F7A
:103440000058146A00EE1366008813630025135EAB
:1034500000C7125B006C12570015125400C11151C5
:103460000070114F0021114B00D61049008D1047FC
:10347000004610440002104200C00F4000800F3E82
:1034800000420F3C00060F3B00CB0E3800930E3776
:10349000005C0E3500270E3400F30D3200C10D31F3
:1034A00000900D3000600D2E00320D2D00050D2C0A
:1034B00000D90C2B00AE0C2900850C29005C0C27D0
:1034C00000350C27000E0C2600E80B2400C40B244A
:1034D00000A00B23007D0B23005A0B2100390B2188
:1034E00000180B2000F80A1F00D90A1E00BB0A1E94
:1034F000009D0A1D00800A1D00630A1C00470A1B6C
:10350000002C0A1B00110A1A00F7091A00DD09191C
:1035100000C4091900AB091900920917007B0918AA
:1035200000630917004C0916003609160020091619
:10353000000A091500F5081500E0081400CC08146D
:1035400000B8081400A4081400900813007D0812A5
:10355000006B0813005808120046081200340811C6
:1035600000230811001208110001081100F00710D3
:1035700000E0071000D0071000C0071000B0070FD0
:1035800000A107100091070E0083070F0074070FBA
:103590000065070E0057070E0049070E003B070D98
:1035A000002E070E0020070D0013070D0006070D63
:1035B00000F9060C00ED060D00E0060C00D4060C28
:1035C00000C8060C00BC060C00B0060C00A4060BDC
:1035D0000099060C008D060B0082060B0077060B87
:1035E000006C060B0061060A0057060B004C060A29
:1035F0000042060A0038060A002E060A0024060ABF
:10360000001A060A001006090007060A00FD05094F
:1036100000F4050900EB050900E2050900D90509D8
:1036200000D0050900C7050900BE050900B5050859
:1036300000AD050800A50509009C050800940508D3
:10364000008C050800840508007C05080074050846
:10365000006C050700650508005D050700560508B4
:10366000004E05070047050700400508003805071C
:1036700000310507002A050700230507001C050681
:1036800000160507000F05070008050600020507DC
:1036900000FB040600F5040700EE040600E804063B
:1036A00000E2040700DB040600D5040600CF040690
:1036B00000C9040600C3040600BD040600B70406E2
:1036C00000B1040500AC040600A6040600A0040531
:1036D000009B04060095040500900406008A04057A
:1036E0000085040500800406007A040500750405C1
:1036F00000700405006B0405006604050061040504
:10370000005C04050057040500520405004D040543
:103710000048040500430405003E0404003A040583
:103720000035040500300404002C040500270404BF
:1037300000230405001E0404001A040400160405F6
:1037400000110404000D040400090405000404042D
:103750000000040400FC030400F8030400F4030464
:1037600000F0030400EC030400E8030400E4030495
:1037700000E0030400DC030400D8030400D40304C5
:1037800000D0030400CC030400C8030300C50303F6
:103790000024F404D9201BC40C5C0E9804C4095FF7
:1037A0000265077101F405F900FB04B300480487C2
:1037B00000C10369005803550003034500BE023AE7
:1037C000008402310053022A00290225000402204D
:1037D00000E4011C00C8011900AF01170098011492
:1037E0000084011300710110006101100051010EED
:1037F0000043010D0036010B002B010B0020010BD3
:1038000000150109000C01090003010800FB000874
:1038100000F3000800EB000700E4000600DE0006ED
:1038200000D8000600D2000600CC000500C7000545
:1038300000C2000500BD000400B9000400B500048A
:1038400000B1000400AD000400A9000400A50003BD
:1038500000A20003009F0004009B000300980003E7
:10386000009500020093000300900003008D000209
:10387000008B000300880002008600020084000321
:1038800000810002007F0002007D0002007B000238
:103890000079000200770001007600020074000247
:1038A0000072000100710002006F0002006D000153
:1038B000006C0002006A000100690002006700015C
:1038C0000066000100650001006400020062000162
:1038D0000061000100600001005F0002005D000166
:1038E000005C0001005B0001005A0001005900016A
:1038F000005800010057000100560001005500016A
:103900000054000100530000005300010052000168
:103910000051000100500001004F0001004E000066
:10392000004E0001004D0001004C0001004B000062
:10393000004B0001004A000100490001004800005E
:103940000048000100470001004600000046000159
:103950000045000000450001004400010043000054
:10396000004300010042000000420001004100004D
:103970000041000100400001003F0000003F000145
:10398000003E0000003E0001003D0000003D00013F
:10399000003C0000003C0000003C0001003B000037
:1039A000003B0001003A0000003A0001003900002D
:1039B0000039000100380000003800000038000124
:1039C000003700000037000100360000003600001C
:1039D0000036000100350000003500000035000110
:1039E0000034000000340000003400010033000007
:1039F00000330000003300010032000000320000FC
:103A000000320001003100000031000000310001EF
:103A1000003000000030000000300001002F0000E6
:103A2000002F0000002F0000002F0001002E0000DA
:103A3000002E0000002E0001002D0000002D0000CF
:103A4000002D0000002D0001002C0000002C0000C3
:103A5000002C0000002C0001002B0000002B0000B7
:103A6000002B0000002B0001002A0000002A0000AB
:103A7000002A0000002A000100290000002900009F
:103A80000029000000290000002900010028000092
:103A90000028000000280000002800000028000185
:103AA000002700000027000000270000002700007A
:103AB000002700010026000000260000002600006C
:103AC000002600000026000100250000002500005F
:103AD0000025000000250000002500000025000151
:103AE0000024000000240000002400000024000046
:103AF0000024000100230000002300000023000038
:103B00000023000000230000002300000023000128
:103B1000002200000022000000220000002200001D
:103B2000002200000022000100210000002100000E
:103B30000021000000210000002100000021000001
:103B400000210001002000000020000000200000F3
:103B500000200000002000000020000000200000E5
:103B600000200001001F0000001F0000001F0000D7
:103B7000001F0000001F0000001F0000001F0001C8
:103B8000001E0000001E0000001E0000001E0000BD
:103B900000232C0000B8220000561800003A0F0045
:103BA00000B8080000B1040000710200003E0100EE
:103BB0000020436F756E7420583A004265640045DA
:103BC0003100626564002C2073797374656D207315
:103BD000746F7070656421204865617465725F4917
:103BE000443A200048656174696E67204661696CDB
:103BF00065640048656174696E67206661696C651B
:103C000064004D3131322053687574646F776E00F3
:103C10001000AA03F0013A019002220130031001C2
:103C2000D00302017004F7001005ED00B005E500B7
:103C30005006DD00F006D7009007D1003008CC0018
:103C4000D008C7007009C300100ABE00B00ABB004C
:103C5000500BB700F00BB300900CB000D00DAA00D1
:103C6000100FA5005010A00090119B00D0129600DC
:103C7000B014900090168B0070188500501A8000C8
:103C8000301C7B00B01E750030216F00B02369002E
:103C90003026640010285F00902A5A00702C5500CE
:103CA000F02E4F0070314800B0324500F033410033
:103CB00070363900103737005038330090392D00F6
:103CC000D03A2700B03C1C00503D1700F03D1100D9
:103CD000903E0900D03FE5FF544845524D414C20ED
:103CE00052554E4157415900546865726D616C20C0
:103CF00052756E61776179004572723A204D415874
:103D000054454D50004D415854454D5020747269F2
:103D1000676765726564004572723A204D494E547A
:103D2000454D50004D494E54454D502074726967C1
:103D3000676572656400202F002042403A002040F1
:103D40003A0020573A0020573A00496E76616C6974
:103D5000642065787472756465720A007C3C3E5E0E
:103D60002B3D3F2F5B5D3B2C2A225C0043616E6E36
:103D70006F74206F70656E207375626469722000C5
:103D8000534420496E6974204661696C0053442095
:103D900063617264206F6B0A006F70656E526F6FA3
:103DA00074206661696C65640A00766F6C756D6578
:103DB0002E696E6974206661696C65640A004E6FD5
:103DC00020534420636172640A000A4D3234004D6E
:103DD00032332025730041425300504C41002E0ADB
:103DE000006F70656E206661696C65642C204669A1
:103DF0006C653A200046696C652073656C65637478
:103E000065640A002053697A653A200046696C654A
:103E1000206F70656E65643A2000454E442053550E
:103E200042524F5554494E450A002220706F73008C
:103E30002220706172656E743A2200535542524FCF
:103E40005554494E452043414C4C2074617267657E
:103E5000743A220053756263616C6C204F76657210
:103E6000666C6F77004578636565646564206D6195
:103E70007820535542524F5554494E452064657041
:103E800074683A002E0A0044656C6574696F6E2090
:103E90006661696C65642C2046696C653A20004651
:103EA000696C652064656C657465643A00534420F0
:103EB0007072696E74696E67206279746520004E55
:103EC0006F74205344207072696E74696E670A00C3
:103ED0002F6175746F25632E670057726974696E60
:103EE0006720746F2066696C653A2000667265739E
:103EF0006800646F696E67002066696C653A20002F
:103F00004E6F77200002FD55555555555FFFFFFF59
:103F1000FFFFFFFFFFFFFE00000000003FFFFFFF6D
:103F2000FFFFFFFFFFFFFD000007FFFFFFFFFFFF99
:103F3000FFFFFFFFFFFFFE07C00555555555555FB5
:103F4000FFFFFFFFFFFFFC0A200600000000003F0C
:103F5000FFFFFFFFFFFFFE141005000007FFFFFF3C
:103F6000FFFFFFFFFFFFFC28080607C0055555555A
:103F700055555FFFFFFFFE5404040A2006000000B1
:103F800000003FFFFFFFFC6004061410050000075F
:103F9000FFFFFFFFFFFFFE50040428080607C005CF
:103FA00055555555555FFC6004065404040A200617
:103FB00000000000003FFE54041C600406141005BD
:103FC00000000000001FFC28082E500404280806EA
:103FD00007C00001F03FFE141054600406540404AE
:103FE0000A200002081FFC0A206654041C60040614
:103FF00014100005043FFE07C05428082E50040486
:104000002808000A021FFC00002E14105460040649
:1040100054040015013FFE00001C0A206654041CD5
:1040200060040018011FFC00000607C05428082E79
:1040300050040014013FFE00000400002E14105430
:1040400060040018011FFCFFFFFE00001C0A206630
:1040500054041C15013FFED5555400000607C054FA
:1040600028082A0A021FFC84104600000400002EC3
:1040700014105105043FFEC41044FFFFFE00001C55
:104080000A206102881FFC841046D55554000006A2
:1040900007C05101F03FFE84104484104600000424
:1040A00000002A00001FFCC41046C41044FFFFFE9D
:1040B00000001C00003FFE841044841046D5555477
:1040C00000000000001FFCD55556841044841046A3
:1040D00000000000003FFCFFFFFCC41046C4104479
:1040E000FFFFFFFFFF9FFE00000684104484104680
:1040F000D555555555BFFD555554D5555684104485
:1041000084104104109FFFFFFFFCFFFFFCC410461A
:10411000C410410411BFFFFFFFFE000006841044DD
:1041200084104104109FFFFFFFFD555554D555568F
:1041300084104104109FFFFFFFFFFFFFFCFFFFFC07
:10414000C410410411BFFFFFFFFFFFFFFE00000688
:1041500084104104109FFFFFFFFFFFFFFD555554E2
:10416000D555555555BFFFFFFFFFFFFFFFFFFFFC74
:10417000FFFFFFFFFF9FFFFFFFFFFFFFFFFFFFFEB0
:1041800000000000003FFFFFFFFFFFFFFFFFFFFDFC
:1041900055555555555FFFFFFFFFFFFFFFFFFFFF21
:1041A000FFFFFFFFFFFFFFFFFFFFFFFFFFFFFFFF1F
:1041B000FFFFFFFFFFFFFFFFFFFFFFFFFFFFFFFF0F
:1041C000FFFFFFFFFFFFFFFFFFFFFFFFFFFFFFFFFF
:1041D000FFFFFFFFFFFFE02EFB7DFBFBCFC1DFBB3F
:1041E0003EC0E1FE3C1FFDEE7B39F9F3CF9EDFBB05
:1041F0003EDFDEFCDDE7FDEE3BBBF9EBD7BF5FBB8F
:104200005EDFDEFDEDF7FDEEBBD3FAEBB73FDFBBC4
:104210004EDFDFFFCDF3FDEEDBC7FAEBBB7FC03B2C
:104220006EC0E3FF1DF3FDEECBEFFADBBB7FDFBB20
:1042300066DFF8FFCDF3FDEEEBEFFB5B033F5FBB0B
:1042400076DFFE7FEDF3FDEEF3EFFB5B79BEDFBBC8
:104250007ADFDE7DEDF7FDEEF3EFFBBAFD9EDFBB0F
:104260007CDFDEFDCDE7FDEEFBEFFBBAFDC1DFBB82
:104270007EC0E0FE1C1F6D61726C696E66772E6FEA
:10428000726700322E302E375F4457372E33001FAF
:10429000FFFFFFFFFFFF600000000001FF40000084
:1042A000000000FF8000000000007F83CF00000CB2
:1042B000303F87FF80000C301F867980000C000F94
:1042C0008C30C7838C30E78C30CFC7CC31F38C3047
:1042D000DCECEC33B98C30D86C6C33198C30D06C8E
:1042E0000C33198C30D86C0C33198C30DC6C0E3BD1
:1042F000198C30CF7C079F198C30C77C038F1940F5
:10430000000000000002600000000000061FFFFF28
:10431000FFFFFFF870012C0190012701B00122017D
:10432000C0011D01F00118011002130130020E013D
:104330006002090190020401C002FF000003FA00BC
:104340004003F5008003F000D003EB002004E600FA
:104350007004E100E004DC004005D700C005D20095
:104360004006CD00D006C8008007C3003008BE005C
:10437000F008B900C009B400B00AAF00B00BAA0041
:10438000D00CA500000EA000500F9B00C01096009E
:104390005012910000148C00C0158700B0178200E5
:1043A000B0197D00D01B7800001E730040206E0005
:1043B00090226900F024640040275F0090295A0091
:1043C000E02B5500102E500020304B0010324600DC
:1043D000E033410090353C00103737007038320030
:1043E000A0392D00B03A2800A03B2300603C1E00FD
:1043F000103D1900903D1400103E0F00703E0A0061
:10440000C03E0500003F0000403FFBFF803FF6FF3D
:10441000C03FF1FF2020506C616E6E657242756680
:1044200066657242797465733A200020467265654C
:10443000204D656D6F72793A2000436F6D70696C25
:1044400065643A2041707220323420323032310AB1
:1044500000204C61737420557064617465643A2067
:10446000323032312D30342D3138207C204175747A
:10447000686F723A2054696E794D616368696E6540
:104480007333440A00322E302E375F4457372E33B1
:104490000A004D61726C696E0020536F667477611B
:1044A00072652052657365740A00205761746368F1
:1044B000646F672052657365740A002042726F77DB
:1044C0006E206F75742052657365740A00204578FC
:1044D0007465726E616C2052657365740A00506F6A
:1044E00077657255700A0073746172740A004732FE
:1044F000385859004D31303031006572726F72207A
:1045000077726974696E6720746F2066696C650ADA
:1045100000446F6E6520736176696E672066696C12
:10452000652E0A004D323900456E6473746F7073E6
:104530000025532025632025632025632025630063
:10454000205A3A0020593A0020583A00656E6473A8
:10455000746F7073206869743A200000000A0B02BF
:10456000090C0D0E08070304010000000000000004
:10457000000000000000000000000000000000003B
:1045800000000000000000121110000000000000F8
:10459000000000000000000000000000000000001B
:1045A00000004D6F76652025736D6D004D6F76654B
:1045B00020302E316D6D004D6F766520316D6D00B0
:1045C0004D6F76652031306D6D004D6F7665204101
:1045D000786973004578747275646572004D6F7602
:1045E00065205A004D6F76652059004D6F76652025
:1045F0005800DA3DD63D4368616E67652046696CB8
:10460000616D656E7400556E6C6F61642046696CF7
:10461000616D656E74004C6F61642046696C616DFC
:10462000656E7400507265686561742043757374BB
:104630006F6D00507265686561742024004261638B
:104640006B0050726F62696E67204661696C6564C9
:1046500000205A3A200020593A2000426564205830
:104660003A200073686F7700627574746F6E006231
:104670006567696E0044697361626C6552756E6F3F
:1046800075740050757267654D6F72650050617585
:1046900073656400436F6E74696E7565004C6F617D
:1046A000642046696C616D656E74205400496E73B8
:1046B0006572742066696C616D656E7420616E64EC
:1046C0002073656E64204D3130380A00220A00558F
:1046D0006E6B6E6F776E20636F6D6D616E643A20E6
:1046E00022002042002050006F6B003430302053F5
:1046F000755065522052656164792E005072696E62
:1047000074696E672E2E2E005072696E742050618F
:104710007573656400204500205A00205900204D23
:10472000393220580020453A00205A3A0020593AA0
:1047300000583A0020746F6F206C6F6E67206578A8
:1047400074727573696F6E2070726576656E7465CC
:10475000640A0020636F6C642065787472757369F5
:104760006F6E2070726576656E7465640A005265BE
:1047700073656E643A20006E6F7469666963617474
:10478000696F6E200000002200250028002B002EFB
:10479000003100340002010000050108010B010096
:1047A000002100240027002A002D003000330001E2
:1047B000010000040107010A0105050505070508B8
:1047C000080808020202020A0A0808040404040194
:1047D00001010101010101030303030303030304B6
:1047E0000707070C0C0C0C0C0C0C0C020202020646
:1047F000060606060606060B0B0B0B0B0B0B0B0136
:1048000002102020080810204010204080020102E1
:1048100001080402010102040810204080804020A9
:1048200010080402018004020180402010080402E4
:104830000108040201010204081020408001020462
:104840000810204080001201440211241FBECFEF47
:10485000D1E2DEBFCDBF00E00CBF13E0A0E0B2E0CC
:10486000EEEDF6EF02E00BBF02C007900D92A03A0A
:10487000B107D9F72AE1A0EAB3E001C01D92A13245
:10488000B207E1F714E2C4E2D4E200E006C02197E7
:104890000109802FFE010F94C577C332D10780E054
:1048A0000807A9F70F94F3650D945D7B0C94000045
:1048B000FC0184910895FC01808108951198000005
:1048C00000009091020187FD9095917090930001F6
:1048D000119A000000000000000011980000000084
:1048E0009091020186FD9095917090930001119A2C
:1048F00000000000000000001198000000009091EE
:10490000020185FD9095917090930001119A00002D
:1049100000000000000011980000000090910201CA
:1049200084FD9095917090930001119A0000000011
:10493000000000001198000000009091020183FD2A
:104940009095917090930001119A00000000000072
:1049500000001198000000009091020182FD9095E6
:10496000917090930001119A000000000000000077
:104970001198000000009091020181FD90959170C6
:1049800090930001119A00000000000000001198AF
:104990000000000080910201817080930001119A53
:1049A0000000000000000000089590E080E00895FD
:1049B000CF93DF93DB01F9019C919130C1F09430EA
:1049C00080F094509C938830D1F48081918100973D
:1049D00071F0019791838083480F591FEA01188273
:1049E00006C08C3539F49C5F9C93943041F4DF9180
:1049F000CF9108958B3339F781E08C93F8CF2081E4
:104A00003181B9016F5F7F4F71836083420F531F04
:104A1000EA018883808191818F3591056CF7E7CF1A
:104A20000F931F9381E00091121810911318209199
:104A300014183091151840910E1850910F1860916C
:104A4000101870911118041715072607370708F476
:104A500080E01F910F91089590E080E00895282F45
:104A600090918909833021F495FD0FC094FD0FC00A
:104A7000892F90E0B0E0A0E004C0B695A795979587
:104A800087952A95D2F78170089581E0089580E096
:104A90000895CF92DF92EF92FF92CF93DF93EC01D4
:104AA000CC80DD80EE80FF8027E137EB41ED58EBD5
:104AB000C701B6010F942E7A87FD23C023E030E0B2
:104AC00048EC53E4C701B6010F94DC701816CCF023
:104AD000C880D980EA80FB8027E137EB41ED58EBB5
:104AE000C701B6010F942E7A87FD0BC0C1E023E009
:104AF00030E04DEC53E4C701B6010F94DC7018169A
:104B00000CF4C0E08C2FDF91CF91FF90EF90DF90FD
:104B1000CF9008952F923F924F925F926F927F9223
:104B20008F929F92AF92BF92CF92DF92EF92FF92BD
:104B30000F931F93CF93DF93CDB7DEB72E970FB6AA
:104B4000F894DEBF0FBECDBF8A83162F4983822E15
:104B5000262F30E03A872987E8E08E9FC001112494
:104B60009C878B87FC01E20FF31FEE0FFF1FEE0FF8
:104B7000FF1FEB5DF94F60817181828193819B0101
:104B8000AC010F94C07A882309F42EC19A81E9817F
:104B90009E0F882D810F28E0929FF0011124A98596
:104BA000BA85AE0FBF1FAA0FBB1FAA0FBB1FAB5DFD
:104BB000B94FAC901196BC9011971296CC90129769
:104BC0001396DC903981930F28E0929FA001112465
:104BD000A985BA85A40FB51FAA0FBB1FAA0FBB1FBB
:104BE000AB5DB94FEC901196FC90119712960C9119
:104BF000129713961C91282F30E0AB85BC85A20F2D
:104C0000B31FAA0FBB1FAA0FBB1FAB5DB94F9C9070
:104C100011967C90119712966C90129713965C9057
:104C2000880D90E0AB85BC85A80FB91FAA0FBB1FEC
:104C3000AA0FBB1FAB5DB94F8C9011964C9011978A
:104C400012963C90129713962C90E20FF31FEE0FE2
:104C5000FF1FEE0FFF1FEB5DF94F3081398321817C
:104C60002A8332813B8323812C83FA01E80FF91FC9
:104C7000EE0FFF1FEE0FFF1FEB5DF94F30813D83FD
:104C800081818E8392819F83238128879701A80148
:104C9000B701C8010F94C07A882321F0E12CF12CD0
:104CA00000E010E09501A601B501C6010F94C07A9D
:104CB000882311F057016801282D342D432D522DE2
:104CC000682D742D832D922D0F94C07A882321F0A6
:104CD000812C412C312C212C292D372D462D552D61
:104CE000692D772D862D952D0F94C07A882321F07C
:104CF000982C742C632C522C2D813E814F81588529
:104D00006D817E818F8198850F94C07A882321F0F0
:104D10001D821E821F82188629813A814B815C8107
:104D200069817A818B819C810F94C07A882341F0BC
:104D30003D8139838E818A839F819B83E885EC83C3
:104D40002B853C8589859A85280F391F220F331FB3
:104D5000220F331F2B5D394F3A8729879501A60112
:104D6000B501C6010F94CE779701A8010F94CD77B6
:104D70006B017C01292D372D462D552D692D772D61
:104D8000862D952D0F94CE77282D342D432D522D21
:104D90000F94CD779B01AC01C701B6010F94CE777C
:104DA0006B017C0129813A814B815C8169817A8127
:104DB0008B819C810F94CE772D813E814F815885C8
:104DC0000F94CD779B01AC01C701B6010F94CE774C
:104DD00020E030E040E450E40F94C878E985FA859B
:104DE00060837183828393832E960FB6F894DEBF1F
:104DF0000FBECDBFDF91CF911F910F91FF90EF902C
:104E0000DF90CF90BF90AF909F908F907F906F90EA
:104E10005F904F903F902F90089510926C09809171
:104E2000590290915A02A0915B02B0915C0280936A
:104E30003A0790933B07A0933C07B0933D07089532
:104E4000129A0895269A2E9A0895AF92BF92CF9201
:104E5000DF92EF92FF920F931F93CF93DF936B013B
:104E6000E9014A3009F4C1C0453109F073C0DB01E2
:104E70001296ED91FC91F280C681D781809102015A
:104E8000809582708093000188E28A950000E9F79E
:104E9000BF2CB29420EFB22230E1A32EAF0C48E237
:104EA000E42E88EF0E945E248E2D8A950000E9F79B
:104EB000BFE1BF1508F485C08F2D807780680E9400
:104EC0005E248B2D0E945E248E2D8A950000E9F7CA
:104ED00080E80E945E2480E00E945E248E2D8A95E8
:104EE0000000E9F78AEF0E945E248E2D8A9500006B
:104EF000E9F78E01005F1F4F8881807F0E945E244A
:104F000089918295807F0E945E24C017D107A1F706
:104F10008E2D8A950000E9F7F394E0E1BE0EFA10B9
:104F2000C0CF80910201827080930001D601129659
:104F3000CD91DC91CE010F94A05A811147C2DF912F
:104F4000CF911F910F91FF90EF90DF90CF90BF9086
:104F5000AF900895FB0102811381423309F4F1C13E
:104F600008F4F5C1463409F4E2C1473409F4E5C157
:104F70004B3329F589812B81D80112966C911297B8
:104F800013964C91213009F438C2233009F002C243
:104F900038EF380F582F91E0431708F490E041E0C4
:104FA000531708F040E031E0561708F430E0592F6D
:104FB000542B352309F016C2942309F013C281E063
:104FC000BECF80EE8F0D8068807F0E945E248F2D83
:104FD0008295807F0E945E248E2D8A950000E9F7DD
:104FE00080E80E945E2480E877CF80910101826092
:104FF0008093010180910201827080930001809171
:105000000101816080930101809102018170809390
:105010000001099A119A8091020180958270809313
:10502000000188E28A950000E9F788E790E0CEE980
:10503000DFE0FE013197F1F70197D9F788EF0E9481
:105040005E2418E2812F8A950000E9F780E20E9431
:105050005E2480E00E945E24812F8A950000E9F79B
:1050600080E00E945E2480E80E945E24812F8A9561
:105070000000E9F780E00E945E2480E10E945E2447
:10508000812F8A950000E9F7CE010197F1F7CE0153
:105090000197F1F7CE010197F1F7CE010197F1F7F2
:1050A000CE010197F1F7CE010197F1F7CE010197FB
:1050B000F1F7CE010197F1F7CE010197F1F7CE019B
:1050C0000197F1F7CE010197F1F7CE010197F1F7C2
:1050D000CE010197F1F7CE010197F1F72197F1F792
:1050E00080E20E945E2480E40E945E24812F8A95E3
:1050F0000000E9F780E20E945E2480E60E945E24C0
:105100001A950000E9F710E0D0E0C8E28D2F807713
:1051100080680E945E24812F0E945E248C2F8A95D5
:105120000000E9F780E80E945E2480E00E945E248F
:105130008C2F8A950000E9F78AEF0E945E248C2F5D
:105140008A950000E9F790E2119800000000809134
:105150000201817080930001119A0000000000009C
:10516000000011980000000080910201817080937E
:105170000001119A000000000000000011980000DA
:10518000000080910201817080930001119A00005B
:105190000000000000001198000000008091020152
:1051A000817080930001119A00000000000000004F
:1051B000119800000000809102018170809300012D
:1051C000119A00000000000000001198000000008B
:1051D00080910201817080930001119A000000000B
:1051E0000000000011980000000080910201817011
:1051F00080930001119A0000000000000000119847
:105200000000000080910201817080930001119ADA
:1052100000000000000000001198000000008091D4
:105220000201817080930001119A000000000000CB
:1052300000001198000000008091020181708093AD
:105240000001119A00000000000000001198000009
:10525000000080910201817080930001119A00008A
:105260000000000000001198000000008091020181
:10527000817080930001119A00000000000000007E
:10528000119800000000809102018170809300015C
:10529000119A0000000000000000119800000000BA
:1052A00080910201817080930001119A000000003A
:1052B0000000000011980000000080910201817040
:1052C00080930001119A0000000000000000119876
:1052D0000000000080910201817080930001119A0A
:1052E00000000000000000008C2F8A950000E9F704
:1052F000915009F029CF88EF0E945E248C2F8A9567
:105300000000E9F7DF5F105FD03209F0FFCE80E0E8
:105310000E945E2480EC0E945E24CA950000E9F79A
:105320008091020182708093000181E008CED80153
:1053300015968C91888381E002CEF8018181888363
:10534000FACFB901C8010F94BD5A81E0F8CD4431BC
:1053500071F0473109F033CE1882F80182818983D8
:10536000858181508A8383818B8381E0E8CDD80158
:1053700015964C91159750E0440F551F70E060E072
:1053800016968D919C910F94FE7AC8010F94B65A8F
:1053900081E0D5CD481708F412CE861708F40FCE59
:1053A000FA80E12CD12C243070F41DC0BE01C8015C
:1053B0000F94BD5A898198819D0D98838E0D8983A4
:1053C000FF0C09F4FCCDF7FEF6CFF0CF4D8150E095
:1053D000440F551F70E060E08E819F810F94FE7A2C
:1053E00081E0ADCDFA8030E0F901ED53FD4FD08082
:1053F00021543D4FF901E080E6CF58E0580F382F97
:10540000CACDEF92FF920F931F93CF93DF93EC01DE
:105410008B017A018A859B858617970731F08881F1
:1054200099810F94965C1B870A87B70188819981BF
:105430000F94A44D2E813F81820F932F911D9F8346
:105440008E8390E080E0DF91CF911F910F91FF90CC
:10545000EF9008959F92AF92BF92CF92DF92EF921A
:10546000FF920F931F93CF93DF93EC018B01942E48
:10547000A52E8A859B858617970731F088819981AB
:105480000F94965C1B870A8788859985019649F554
:10549000BC800A818E81080FC880D980D6015596BC
:1054A000ED91FC91C6011995B80EE92CFA2C10E08B
:1054B000F70121917F01211127C08E819F81810FEA
:1054C000911D9F838E8390E080E0DF91CF911F91AB
:1054D0000F91FF90EF90DF90CF90BF90AF909F9093
:1054E00008950E811F81692D7A2D888199810F94ED
:1054F000A44D800F912F911D2885398528173907D4
:1055000038F681E090E0E1CF4B2D602FC6010F947B
:10551000EE5C080F180FCCCFDF92EF92FF920F9343
:105520001F93CF93DF93EC01D62E1CAD0BAD7C0106
:1055300084E0E80EF11CE98DFA8DC7011995412F21
:10554000480F2D2D602FC7010F94EE5C9BAD890F86
:105550008BAF81E090E0DF91CF911F910F91FF9091
:10556000EF90DF900895AB01BC0140931218509367
:10557000131860931418709315188BE799E10C9425
:105580003EE880932F028032B8F590916B05891721
:1055900024F091E0980F90936B054091670550912E
:1055A00068056091690570916A05082E04C07695BA
:1055B0006795579547950A94D2F7417040938611A5
:1055C00087FD1DC0282F082E000C330B3F938F93AF
:1055D0008AE69AE09F938F938AE79AE09F938F934E
:1055E0001F920E945BCD8DB79EB707960FB6F894B9
:1055F0009EBF0FBE8DBF089510928611E1CF0D940E
:105600006E490F931F93CF93DF9300D01F92CDB7B6
:10561000DEB79C0103E519E090E1EFE7FAE0D8017D
:1056200001900D929A95E1F7F90120813181428133
:105630005381F80160857185828593850F94CE77BB
:10564000F801608771878287938780E090E0A0EA05
:10565000B0E489839A83AB83BC83CE0101960F9417
:1056600086140F900F900F900F90DF91CF911F91A4
:105670000F9108952F923F924F925F926F927F9277
:105680008F929F92AF92BF92CF92DF92EF92FF9252
:105690001F93CF93DF93CDB7DEB72C970FB6F89457
:1056A000DEBF0FBECDBF7A011901DC012D913D9106
:1056B0004D915C912D833E834F835887FB01408041
:1056C00051806280738080907F0A9090800AA090C1
:1056D000810AB090820AA50194016D817E818F813B
:1056E00098850F94DC7081110EC011E0A301920126
:1056F0006091830A7091840A8091850A9091860A4C
:105700000F94DC70811110E0D1012D913D914D91EC
:105710005C9129873A874B875C87F701C080D180ED
:10572000E280F3802091130230911402409115021F
:1057300050911602C701B6010F94DC70882309F45A
:105740004EC0C0921302D0921402E0921502F09261
:10575000160280918B0A90918C0AA0918D0AB091CB
:105760008E0A4091830A5091840A6091850A709153
:10577000860A8092530990925409A0925509B092DA
:1057800056094093570950935809609359097093EB
:105790005A09C0925B09D0925C09E0925D09F092CF
:1057A0005E0980935F0990936009A0936109B093AB
:1057B000620920E030E040E05FE36091B411709155
:1057C000B5118091B6119091B7110F944271698310
:1057D0007A838B839C83CE0101960F9486142D814E
:1057E0003E814F815885209353093093540940934B
:1057F00055095093560940925709509258096092A2
:10580000590970925A09D1012D913D914D915C91A8
:1058100060915F09709160098091610990916209BE
:105820000F94CE7760935F0970936009809361094C
:105830009093620911112FC020E030E0A901698521
:105840007A858B859C850F94DC70811133C060E074
:1058500070E088EC92E469837A838B839C83CE0129
:1058600001960F9486142C960FB6F894DEBF0FBEE7
:10587000CDBFDF91CF911F91FF90EF90DF90CF9040
:10588000BF90AF909F908F907F906F905F904F9060
:105890003F902F9008952AEF3EE74AE25FE3609140
:1058A000B8117091B9118091BA119091BB110F94F8
:1058B0004271D1CF60E070E080EA91E4CCCFCF9329
:1058C000DF9300D01F92CDB7DEB780E090E0A0EA72
:1058D000B0E489839A83AB83BC8361E0CE010196F7
:1058E0000F94890C0F900F900F900F90DF91CF9134
:1058F00008958091290590912A05009731F04AE09A
:1059000050E070E060E00D94F76E60E070E0CB0175
:1059100008958091930A82FF0BC063E686E59BE0C1
:105920000E9476CD0F94AA540E9476D481E0089507
:1059300080E008958091290590912A05009731F023
:105940004AE050E070E060E00D94C96D60E070E006
:10595000CB0108950E949A2C97FD0CC00E949A2CAE
:105960006F3F71058105910509F034F40E949A2C6E
:10597000862F089580E008958FEF0895809129057E
:1059800090912A05892B41F00E94AA2C91E0811167
:1059900001C090E0892F089591E0FCCFCF92DF9273
:1059A000EF92FF920F931F93CF93DF936B017A01D6
:1059B000EC01CE54DB4F28813CE0389F8001399FB9
:1059C000100D112427FF24C0FB0111821082888151
:1059D0008F5F888388819801280F311D87FD3A9554
:1059E000C90120917F17F6012817190629F024F024
:1059F00088818C300CF43CC0808191810496803485
:105A00009C4908F475C0F60180819181049672C0AA
:105A100088819801280F311D87FD3A95C901209191
:105A20007F172817190699F294F28881A801480F68
:105A3000511D87FD5A95FA01EE0FFF1FE40FF51F68
:105A4000E95CF84E808187FFC2CF8881F801E80FBA
:105A5000F11D87FDFA95CF01EE0FFF1FE80FF91F2B
:105A6000E95CF84E808160E08F770F94DC52AFCF15
:105A7000808191812881A801420F511D27FD5A95EF
:105A80009A01FA01EE0FFF1FE20FF31FE95CF84ED7
:105A900021813281820F931FF70191838083888156
:105AA0009801280F311D87FD3A95F901EE0FFF1F70
:105AB000E20FF31FE95CF84E808187FF20C08881E8
:105AC000080F111D87FD1A95F801EE0FFF1FE00F5B
:105AD000F11FE95CF84E808161E08F77DF91CF9113
