:100000000C9415240C9446240C9446240C944624F9
:100010000C9446240C9446240C9446240C944624B8
:100020000C9446240C9446240C9446240C944624A8
:100030000C9446240D94F1590C9446240C944624B7
:100040000C9446240C94A6F10C9446240C9446245B
:100050000C9446240C9446240C946DEE0D94A759F0
:100060000C9446240C94615F0C94575F0C944624C6
:100070000C9446240C9446240C9446240C94462458
:100080000C9420430C9446240C9446240C9446244F
:100090000C9446240C9446240C9446240C94462438
:1000A0000C9446240C9446240C94F2420C9446245E
:1000B0000C9446240C9446240C9446240C94462418
:1000C0000C9446240C9446240C9446240C94462408
:1000D0000C9446240C9446240C9446240C944624F8
:1000E0000C944624084AD73B3BCE016E84BCBFFD2E
:1000F000C12F3D6C74319ABD56833DDA3D00C77FF8
:1001000011BED9E4BB4C3E916BAAAABE0000008090
:100110003F05A84CCDB2D44EB93836A9020C50B91F
:10012000918688083CA6AAAA2ABE000000803F004B
:100130000C94AFBF0C94459B0C943C920C9471961C
:100140000C94BA920C942DD70C9403D70C940B609A
:100150000D94DE530C94CD920C9447940C94869697
:100160000C9461E00C94E4D60C9447AE0D942253A9
:100170000C9473920C94E6920C9482960D942C53EA
:100180000D94FC520C94E0E20C9431D60D94525331
:100190000C94649E0D9440530D949C530C94FD2636
:1001A0000C94D9E00C94679E0C94FB5F0C941D603A
:1001B0000C94719E0C944C9D0C94F75F0D9401531C
:1001C0000C9443980D94C2530C9415270C942392CD
:1001D0000C94559E0C9415CD0C94DADD0C9403CD43
:1001E0000C9484940C94319B0C94DCA30C94CE5FFF
:1001F0000C94D9DD0C943E940C94E4CD0C9453945F
:100200000C94A4B30C94FEA00C945E9E0D94E63066
:100210000D9415540D941F530C94D1A20C94D742F5
:100220000C9407600D94BC640C940A920C944824BE
:100230000C944DC40C944A9E0C94E9E10C94F6B0D5
:100240000C94E5950C94359B0C94A1420C949FA9B9
:100250000C9425600C94FF5F0C949AA90C94B0BC8C
:100260000C9434D10C94DEBA0C9416E20D942954FB
:100270000C94B8930C9444E00C940BB30C94419BF5
:100280000C9427CD0C941BCD0D940F320C94A1939C
:100290000C9435960C9464920C946CB20C94C5DF5B
:1002A0000C94519B0C948E920D944C640C940D9C68
:1002B0000C94F4950C945A9C0C94659D0C94864275
:1002C0000C9466940C942D9B0C9409990D94B05346
:1002D0000C94FF920C9473930D944E530C946F9E58
:1002E0000C94E48F0C94419C0D9448530C942DCDA8
:1002F0000D943A530C94D7AB0C94D7E10D94BA53A8
:100300000D9413530C94ED3B0C9412600C94D54552
:100310000C94749E0C943FCD0C942DDF0C949EC8CD
:100320000C94F35F0C941A2A0C94739C0C943798D9
:100330000C946A940D9444530C94C1940C9490A919
:100340000C94A3D60D94D4530C944D9B0C9439CD9E
:100350000C94059C0C94F3940D94A6530D941B538C
:100360000C948A960C94FE960C94FDCC0C9481B45B
:100370000C948A930D94E8530C941BB90C94A0A68A
:100380000C94499B0C94D09E0C94A7920C9484D608
:100390000C9475940C9457DD0C94A58F0C948E9648
:1003A0000D9497530C9414AA0C946A9E0C94778F16
:1003B0000C94BCBA0C94F2B50C94619E0C946E9D96
:1003C0000C94399B0C9403600C9412D60C948C966C
:1003D0000C943EE10C94EA940C9432CB0C94529D14
:1003E0000D9417530C941CC30C9434930C94DB940D
:1003F0000C9468940C94589E0C9421CD0C947A948F
:100400000C945C930D9432530C94F1290C94FD8F51
:100410000C940E930C9421930C94B09C0C9489949E
:100420000C94A3950C94A59C0C94C6BA0C9497C1FB
:100430000D948F530C94ED940C94E49B0C944B24EA
:100440000C94FAE00D94F7530D940B540C9433CDA7
:100450000C945B9E0D9418310C9488960D94365331
:100460000C9484960C944D930C949F5F0D94285398
:100470000C94779E0C9445CD0C9495A90C94DD5F5B
:100480000D941F540C944B920D949E640C946CAF7D
:100490000C9491980C94F0940C940FCD0C94D6B1CC
:1004A0000D94CA530C943D9B0C94AACD0C947C2AB9
:1004B0000D94B9300C945A9D0C9480960C949A8F9C
:1004C0000C94EB9E0C9409CD0C94EC5F0C9459E1C8
:1004D0000D9401540C947F940C940E950C94C524A7
:1004E0000C9499980C94BC420C9495980C94E7B792
:1004F0000C948C9C0C94CD9E4E414E494E495459BF
:10050000494E46CDCCCC3D0AD7233C17B7D13877DE
:10051000CC2B329595E6241FB14F0A0000204100F4
:1005200000C84200401C4620BCBE4CCA1B0E5AAE3E
:10053000C59D7400407A10F35A00A0724E1809004D
:1005400010A5D4E80000E87648170000E40B540238
:100550000000CA9A3B000000E1F505000080969873
:1005600000000040420F000000A0860100000010C3
:100570002700000000E80300000000640000000005
:10058000000A00000000000100000000002C76D8E6
:1005900088DC674F0823DFC1DFAE59E1B1B796E5CC
:1005A000E3E453C63AE651997696E8E6C28426EB30
:1005B000898C9B62ED407C6FFCEFBC9C9F40F2BA43
:1005C000A56FA5F490055A2AF75C936B6CF9676DDB
:1005D000C11BFCE0E40D47FEF520E6B500D0ED9030
:1005E0002E0300943577050080841E080000204EFD
:1005F0000A000000C80C333333330F986E12831196
:1006000041EF8D2114893BE65516CFFEE6DB18D16C
:10061000844B381BF77C1D901DA4BBE4242032843E
:10062000725E228100C9F124ECA1E53D27434F4DC4
:100630004D554E49434154494F4E0044525952552D
:100640004E004552524F525300494E464F004543CB
:10065000484F004572726F722077726974696E67D5
:1006600020746F20454550524F4D210A0053544F7E
:10067000505045442E20005072696E74657220738C
:10068000746F707065642064756520746F20657286
:10069000726F72732E2046697820746865206572C7
:1006A000726F7220616E6420757365204D3939391F
:1006B00020746F20726573746172742E20285465E3
:1006C0006D706572617475726520697320726573EF
:1006D00065742E2053657420697420616674657298
:1006E0002072657374617274696E67290A004E6FB7
:1006F00020436865636B73756D2077697468206C3F
:10070000696E65206E756D6265722C204C61737424
:10071000204C696E653A20004E6F20436865636B1C
:1007200073756D2077697468206C696E65206E75CD
:100730006D6265722C204C617374204C696E653A51
:100740002000636865636B73756D206D69736D61FF
:100750007463682C204C617374204C696E653A2078
:10076000004C696E65204E756D626572206973205C
:100770006E6F74204C617374204C696E65204E75E9
:100780006D6265722B312C204C617374204C696E44
:10079000653A20004D3131300053657269616C203B
:1007A000737461747573206D69736D617463680A25
:1007B00000776169740A00534420726561642065A2
:1007C00072726F720A00486F74656E642049646CBF
:1007D000652054696D656F757400486F74656E644B
:1007E0002049646C652054696D656F75740A002139
:1007F00021204B494C4C20636175736564206279FC
:10080000204B494C4C20627574746F6E2F70696E6A
:100810000A002121204B494C4C20636175736564AB
:1008200020627920746F6F206D75636820696E6136
:1008300063746976652074696D65202D2063757217
:1008400072656E7420636F6D6D616E643A20007026
:1008500061757365004D363030002066696C616DDE
:10086000656E745F72756E6F7574200066696C6179
:100870006D656E745F72756E6F7574205400466995
:100880006C616D656E7452756E6F75742054004D99
:10089000656469612052656D6F766564004D6564BD
:1008A000696120496E736572746564004D31303042
:1008B000305300627573793A2070617573656420F6
:1008C000666F7220696E7075740A00627573793A8A
:1008D0002070617573656420666F72207573657230
:1008E0000A00627573793A2070726F636573736979
:1008F0006E670A00506C656173652052657365749C
:10090000005052494E5445522048414C54454400F1
:1009100025533A20255300706F7765726F66660025
:100920004B494C4C45442E20005072696E746572E0
:100930002068616C7465642E206B696C6C282920BA
:1009400063616C6C6564210A0053544F50504544F8
:100950002E20005072696E7465722073746F70700F
:1009600065642064756520746F206572726F7273A0
:100970002E2046697820746865206572726F722037
:10098000616E6420757365204D39393920746F208C
:10099000726573746172742E202854656D7065726F
:1009A00061747572652069732072657365742E2099
:1009B0005365742069742061667465722072657372
:1009C00074617274696E67290A006563686F3A0022
:1009D0004572726F723A0042696C696E656172208D
:1009E0004C6576656C696E6720477269643A0A00E7
:1009F00021212053544F502063616C6C6564206248
:100A0000656361757365206F6620424C546F756332
:100A100068206572726F72202D2072657374617226
:100A2000742077697468204D3939390A00212120F2
:100A300053544F502063616C6C6564206265636140
:100A4000757365206F6620424C546F75636820652E
:100A500072726F72202D20726573746172742077C8
:100A6000697468204D3939390A005072696E7469A9
:100A70006E67204F626A6563740025532025690004
:100A80002F2F616374696F6E3A0073746172740022
:100A900070726F6D70745F00656E6400486F74658E
:100AA0006E6420746F6F20636F6C640A0053656E10
:100AB00064204D31303820746F20726573756D6518
:100AC0000A00496E736572742066696C616D656EAB
:100AD0007420616E642073656E64204D3130380A75
:100AE0000052656865617420446F6E6500526568E8
:100AF000656174696E672E2E2E005265686561749B
:100B0000004865617465722054696D656F75740085
:100B100053656E64204D31303820746F20686561F4
:100B200074206E6F7A7A6C650A004E6F7A7A6C6503
:100B3000205061726B65640070617573656400506C
:100B40006175736500726573756D656400526573D8
:100B5000756D696E67004732362043616E63656C60
:100B60006564004732362048656174696E67204EBF
:100B70006F7A7A6C65004732362048656174696E19
:100B800067204265640057616974696E6720666F0B
:100B900072206865617475702E0A00466978656414
:100BA000204C656E677468205072696D6500446FF3
:100BB0006E65205072696D696E67004D616E75617A
:100BC0006C207072696D696E672E2E2E004C656107
:100BD00076696E6720473236003F537065636966F9
:100BE00069656420582C5920636F6F7264696E6167
:100BF0007465206F7574206F6620626F756E647304
:100C00002E0A003F28522965706561742076616C58
:100C10007565206E6F7420706C61757369626C65A8
:100C20003B206D757374206265206174206C656172
:100C3000737420312E0A003F5370656369666965DD
:100C400064206E6F7A7A6C652074656D7065726170
:100C500074757265206E6F7420706C617573696253
:100C60006C652E0A003F5370656369666965642090
:100C700066696C616D656E742073697A65206E6F4C
:100C80007420706C61757369626C652E0A003F5345
:100C90007065636966696564207072696D65206C52
:100CA000656E677468206E6F7420706C617573690F
:100CB000626C652E0A003F537065636966696564FE
:100CC000206E6F7A7A6C652073697A65206E6F7416
:100CD00020706C61757369626C652E0A003F526505
:100CE0007472616374696F6E204D756C7469706C99
:100CF000696572206D757374206265207370656319
:100D000069666965642E0A003F53706563696669A8
:100D100065642052657472616374696F6E204D75ED
:100D20006C7469706C696572206E6F7420706C6190
:100D3000757369626C652E0A003F5370656369665E
:100D4000696564206C61796572206865696768749B
:100D5000206E6F7420706C61757369626C652E0A09
:100D60000043292E0A003F53706563696669656414
:100D7000206265642074656D70657261747572655A
:100D8000206E6F7420706C61757369626C652028C9
:100D900034302D00473236207374617274696E6787
:100DA0002E2E2E0A004F46460A00466164652048F2
:100DB00065696768742000426564204C6576656CDF
:100DC000696E6720004661696C656420746F2065F8
:100DD0006E61626C6520426564204C6576656C6965
:100DE0006E670A00496E76616C6964206D65736890
:100DF0002E0A0050726F62696E6720506F696E74C0
:100E00000025532025692F2569002E0A002F005048
:100E1000726F62696E67206D65736820706F696EAE
:100E2000742000202844525952554E290047323927
:100E3000204175746F20426564204C6576656C694D
:100E40006E67003F20284C2C522C462C4229206FE4
:100E50007574206F6620626F756E64732E0A003F92
:100E60002856296572626F7365206C6576656C2003
:100E7000696D706C61757369626C652028302D3402
:100E8000292E0A00426164205A2076616C75650A39
:100E9000004E6F2062696C696E65617220677269CD
:100EA000640A00446576696174696F6E0025533A7F
:100EB0002025730046696E6973686564210A003AEB
:100EC000207A3A2000206F662000476F696E672005
:100ED000746F3A20580043570A00206469723A0040
:100EE00020616E676C653A005374617274207261A0
:100EF000646975733A004D343820506F696E740020
:100F000025533A2025642F256400506F7369746956
:100F10006F6E696E67207468652070726F62652EEF
:100F20002E2E0A003F4C656773206F66206D6F762A
:100F3000656D656E7420696D706C61757369626C46
:100F4000652028302D3135292E0A003F2028582CC5
:100F50005929206F7574206F6620626F756E6473F7
:100F60002E0A0050726F6265206F7574206F6620C4
:100F7000626F756E6473003F53616D706C652073B2
:100F8000697A65206E6F7420706C61757369626C2C
:100F9000652028342D3530292E0A004D3438205A4A
:100FA0002D50726F6265205265706561746162696F
:100FB0006C69747920546573740A003F285629655A
:100FC00072626F7365206C6576656C20696D706CFC
:100FD00061757369626C652028302D34292E0A00F2
:100FE0005374616E646172642044657669617469EA
:100FF0006F6E3A20002052616E67653A2000204DE6
:1010000061783A2000204D696E3A200020536967CC
:101010006D613A20004D65616E3A2000205200411A
:101020006363656C65726174696F6E3A2050005736
:1010300041524E494E4721204C6F77205A204A6535
:10104000726B206D6179206C65616420746F20750E
:101050006E77616E746564207061757365732E0AB6
:10106000004F4646004F4E0020204D61783A200048
:10107000200020204D696E3A2000536F6674206571
:101080006E6473746F70733A20004D3234205325B0
:101090006C642054256C64004739322E3920452574
:1010A0007300473120462564004739322E39205AD3
:1010B0002573004731205A30204632303000473106
:1010C0002058257320592573204633303030004D89
:1010D00034323020532569205A2573004D31303683
:1010E0002050256920532569004D32303020442599
:1010F000730047323852305859004739322E392060
:101100004530205A300A47315A2573004D31303965
:1011100020532569004D31393020532569004D3465
:101120003230205330205A300020496E76616C698D
:1011300064206578747275646572200047322F47A9
:10114000332062616420706172616D6574657273D1
:101150000A00536C6565702E2E2E005A2050726F57
:1011600062652050617374204265640A005A205001
:10117000726F62652050617374204265640047326B
:10118000384C30004D3131372050726F6265206627
:1011900061696C65642E0A4732380A0070726F62AA
:1011A000655F7265776970650047323920526574F2
:1011B0007279696E670050726F62696E672046616E
:1011C000696C6564004D31313720426564206C657F
:1011D00076656C696E67206661696C65642E0A4786
:1011E00030205A31300A4D333030205032352053C0
:1011F0003838300A4D333030205035302053300AE3
:101200004D3330302050323520533838300A4D338A
:101210003030205035302053300A4D33303020509C
:10122000323520533838300A4D3330302050353085
:101230002053300A47342053310070726F62655F6B
:101240006661696C6564004D313137204265642008
:101250006C6576656C696E6720646F6E652E002024
:101260005A3A200020593A200042656420583A201A
:10127000004D65736820706F696E74206F757420FF
:101280006F662072616E67650A004D302053746F7F
:1012900070004D312053746F7000436C69636B2094
:1012A000746F20526573756D652E2E2E004E6F2063
:1012B0004D6F76652E00456E642066696C65206C06
:1012C0006973740A00426567696E2066696C6520FF
:1012D0006C6973740A004E6F206D656469610A0061
:1012E000526573756D696E6720534400286E6F20D8
:1012F00066696C65290043757272656E7420666953
:101300006C653A20005072696E742074696D653A9C
:101310002000436F6F6C696E672E2E2E004865614A
:1013200074696E672E2E2E0045202553006F6B00CA
:101330006F6666004E06490642063B062D0644458A
:101340004255473A004D3131332053004265642005
:10135000436F6F6C696E672E2E2E004265642048C5
:10136000656174696E672E2E2E00343030205375FF
:10137000506552204F46462E002F2F004D313435F8
:1013800020533C696E6465783E206F7574206F66EB
:101390002072616E67652028302D31290A004D3298
:1013A000303620580046523A0020466C6F773A207B
:1013B000003A200020536572766F2000206F75740C
:1013C000206F662072616E67650A00536572766FE2
:1013D000200020643A0020693A0020703A00496EEB
:1013E00076616C69642065787472756465720A0050
:1013F00020643A0020693A0020703A006469730062
:10140000656E0043290A0061626C656420286D697D
:101410006E2074656D702000436F6C642065787475
:10142000727564657320617265200046696C616D38
:10143000656E742072756E6F757420646973746163
:101440006E636520286D6D293A200046696C616DD8
:10145000656E742072756E6F757420004D34323174
:1014600020696E636F727265637420706172616D62
:10147000657465722075736167650A004D657368F0
:1014800020706F696E74206F7574206F66207261B2
:101490006E67650A004F66667365747320417070ED
:1014A0006C696564004572723A20546F6F20666102
:1014B000722100546F6F206661722066726F6D201A
:1014C0007265666572656E636520706F696E740A19
:1014D00000454550524F4D204F4B0A002E0A002028
:1014E00028302D313029002076616C7565206F75AC
:1014F00074206F662072616E676500416476616E6C
:101500006365204B3D00506F7765722D6C6F737370
:10151000207265636F7665727920004D383400441F
:101520006F6E65207072696E74696E672066696C93
:10153000650A004D3737004D3331004361703A0082
:101540004D4541545041434B00434F4F4C45525F32
:1015500054454D5045524154555245004348414D24
:101560004245525F54454D504552415455524500F5
:10157000424142595354455050494E47004152430D
:1015800053004D4F54494F4E5F4D4F444553005407
:101590004845524D414C5F50524F54454354494F7A
:1015A0004E004C4F4E475F46494C454E414D45001D
:1015B0004155544F5245504F52545F53445F53541A
:1015C000415455530053445F5752495445005245C6
:1015D00050454154005344434152440050524F4DF2
:1015E00050545F535550504F525400454D4552474B
:1015F000454E43595F504152534552004341534574
:101600005F4C494748545F4252494748544E4553FE
:101610005300544F47474C455F4C4947485453008B
:10162000534F4654574152455F504F574552004221
:1016300055494C445F50455243454E54004C455625
:10164000454C494E475F44415441005A5F50524F08
:1016500042450052554E4F5554004155544F4C454C
:1016600056454C005052494E545F4A4F420050522A
:101670004F4752455353004155544F5245504F52D6
:10168000545F54454D5000564F4C554D45545249AA
:101690004300454550524F4D0042494E4152595F1B
:1016A00046494C455F5452414E53464552005345BE
:1016B0005249414C5F584F4E5F584F46460046498D
:1016C000524D574152455F4E414D453A4D61726C06
:1016D000696E20322E302E375F4457372E33205418
:1016E0004D33442034454D41424220284170722000
:1016F000323420323032312032333A30303A3236DE
:101700002920534F555243455F434F44455F55523F
:101710004C3A68747470733A2F2F676974687562F5
:101720002E636F6D2F496E73616E697479417574A4
:101730006F6D6174696F6E2F4D61726C696E2F747D
:101740007265652F437265616C6974794477696E5F
:101750005F322E302050524F544F434F4C5F56450E
:101760005253494F4E3A312E30204D414348494E55
:10177000455F545950453A343030205375506552C6
:101780002045585452554445525F434F554E543AA4
:101790003120555549443A63656465326132662D9E
:1017A000343161322D343734382D396231322D6382
:1017B00035356336326633363766660A0050726FE7
:1017C0006265204F6666736574205A0050726F62BE
:1017D00065204F6666736574205A00290A002074DC
:1017E0006F20003F5A206F7574206F662072616E03
:1017F0006765202800290A0020746F20003F5920C7
:101800006F7574206F662072616E676520282D00E9
:10181000290A0020746F20003F58206F7574206FD4
:10182000662072616E676520282D0050726F6265B8
:10183000204F666673657420580043616E6E6F7446
:10184000206F70656E20737562646972200025696F
:10185000730025696D202569730025696820256955
:101860006D20256973002569642025696820256934
:101870006D20256973002569792025696420256913
:10188000682025696D20256973000A53746174739B
:101890003A2046696C616D656E7420757365643AB3
:1018A00020002C204C6F6E67657374206A6F623A5B
:1018B0002000546F74616C2074696D653A20005388
:1018C000746174733A20002C204661696C65643A37
:1018D00020002C2046696E69736865643A200050C8
:1018E00072696E74733A200053746174733A200005
:1018F00023646566696E652044454641554C545FD6
:1019000000626564004B6420004B6920004B70202E
:1019100000504944204175746F74756E6520666986
:101920006E69736865642120507574207468652041
:101930006C617374204B702C204B6920616E6420A5
:101940004B6420636F6E7374616E74732066726F84
:101950006D2062656C6F7720696E746F20436F6EC7
:1019600066696775726174696F6E2E680A00504906
:1019700044204175746F74756E65206661696C658D
:1019800064212074696D656F75740A0050494420A4
:101990004175746F74756E65206661696C6564214C
:1019A0002054656D706572617475726520746F6F17
:1019B00020686967680A00204B643A2000204B6960
:1019C0003A2000204B703A200020436C6173736909
:1019D0006320504944200A00204E6F206F766572C4
:1019E00073686F6F740A002054753A2000204B759D
:1019F0003A2000206D61783A2000206D696E3A200F
:101A00000020643A200020626961733A2000504946
:101A100044204175746F74756E65207374617274BF
:101A20000A00504944204175746F74756E652066D4
:101A300061696C6564212054656D706572617475AF
:101A4000726520746F6F20686967680A00504944A6
:101A5000204175746F74756E65005049442041755E
:101A6000746F74756E65206661696C6564212042CF
:101A70006164206865617465722069640A0045725A
:101A8000723A207574663820666F6E74206E6F74BB
:101A900020696E697469616C697A65642E004572AB
:101AA000723A207574663820666F6E74206E6F749B
:101AB00020696E697469616C697A65642E0045728B
:101AC000723A207574663820666F6E74206E6F747B
:101AD00020696E697469616C697A65642E00000C16
:101AE0000F00FE07022503BB017FFE08FE08FE056E
:101AF000080806000040F0C8888898781005080893
:101B0000060000C0F88888888888F8050505060062
:101B1000012030F830200508080600002070F82069
:101B2000202020E00509090600FF2070A8A8B88839
:101B3000887020070505070001D86C366CD80509A8
:101B4000090600FFF8A88888888888A8F8050A0A86
:101B50000600FE205050505088A8A8887003030348
:101B600006000340A040FFFFFFFFFFFFFFFFFFFF56
:101B7000FFFFFFFFFFFFFFFFFFFFFFFF000000066B
:101B800005FF010707060200808080808000800337
:101B90000303060105A0A0A005060606000050F8F4
:101BA0005050F8500509090600FF2070A8A07028C1
:101BB000A87020050707060000C8C81020409898A4
:101BC00005070706000040A0A040A8906801030395
:101BD0000602058080800309090601FF204040803D
:101BE00080804040200309090601FF8040402020FA
:101BF0002040408005070706000020A8702070A83C
:101C0000200505050600012020F820200203030618
:101C100001FFC04080050101060003F80202020630
:101C20000100C0C005070706000008101020404052
:101C300080050707060000708898A8C88870030709
:101C40000706010040C040404040E005070706008D
:101C500000708808102040F8050707060000F80803
:101C6000103008887005070706000010305090F803
:101C70001010050707060000F880F00808887005B6
:101C80000707060000304080F088887005070706C7
:101C90000000F8081010202020050707060000703B
:101CA0008888708888700507070600007088887823
:101CB000081060020505060100C0C000C0C0020691
:101CC000060601FFC0C000C04080030505060101F3
:101CD0002040804020050303060002F800F80305B9
:101CE00005060101804020408005070706000070BE
:101CF0008810202000200507070600007088B8A87B
:101D0000B88070050707060000708888F888888802
:101D1000050707060000F04848704848F005070727
:101D20000600007088808080887005070706000024
:101D3000F04848484848F0050707060000F880804A
:101D4000F08080F8050707060000F88080F08080AA
:101D50008005070706000070888080988870050756
:101D600007060000888888F8888888030707060126
:101D700000E04040404040E0050707060000381002
:101D800010101090600507070600008890A0C0A002
:101D90009088050707060000808080808080F80515
:101DA000070706000088D8A88888888805070706DE
:101DB00000008888C8A89888880507070600007072
:101DC000888888888870050707060000F08888F0F2
:101DD00080808005070706000070888888A89068C2
:101DE000050707060000F08888F0A090880507071F
:101DF00006000070888070088870050707060000DC
:101E0000F820202020202005070706000088888869
:101E100088888870050707060000888888885050E1
:101E20002005070706000088888888A8A8500507AD
:101E3000070600008888502050888805070706009C
:101E40000088885020202020050707060000F80899
:101E500010204080F80309090601FFE0808080809F
:101E6000808080E0050707060000804040201010B9
:101E7000080309090601FFE020202020202020E09F
:101E80000503030600052050880501010600FEF841
:101E900003030306010580402005050506000070C8
:101EA000087888780507070600008080F088888811
:101EB000F00505050600007080808870050707069C
:101EC00000000808788888887805050506000070F5
:101ED00088F08070050707060000304840E0404069
:101EE000400507070600FE70888888780870050797
:101EF000070600008080F0888888880307070601AD
:101F0000004000C0404040E00409090601FE100006
:101F100030101010109060050707060000808088C0
:101F200090E09088030707060100C0404040404011
:101F3000E0050505060000D0A8A8A8A80505050627
:101F40000000B0C8888888050505060000708888EC
:101F500088700507070600FEF0888888F0808005F5
:101F600007070600FE7888888878080805050506B2
:101F70000000B0C8808080050505060000788070EC
:101F800008F00507070600002020F820202018058B
:101F90000505060000888888986805050506000084
:101FA00088888850200505050600008888A8A85064
:101FB0000505050600008850205088050707060023
:101FC000FE88888850204080050505060000F8102E
:101FD0002040F80309090601FF20404040804040AE
:101FE00040200109090602FF808080808080808077
:101FF000800309090601FF804040402040404080A6
:1020000005030306000248A890FF554E4C4F41447B
:102010002046494C414D454E54004C4F41442046CA
:10202000494C414D454E540046494C414D454E5456
:10203000204348414E47450042656400456E636C4D
:102040006F73757265002568753A253032687500C2
:1020500025303268753A25303268750020202020FE
:102060002020200020202020001FE0201020102011
:102070001010201020201020103030084004800361
:10208000001FE03FF03FF03FF01FE01FE03FF03F58
:10209000F03FF00FC0078003003FFFF038007030C2
:1020A000FC3020FC102078102030102C00D02E3175
:1020B000D02F7BD02F7BD02E31D02C00D0203010D1
:1020C00020781020FC1030FC303800703FFFF03FCB
:1020D000FFF03800703186302387102787902F87D4
:1020E000D02F03D02030102078102078102030100E
:1020F0002F03D02F87D02787902387103186303841
:1021000000703FFFF01FFFF81FFFF80410400208A7
:1021100020020820041040082080104100104100D7
:102120000820800410400000001FFFF81FFFF8FF88
:10213000FFFF8000018E00E19F01F19381399F81B3
:10214000F99F81F99FB9F98F28F18038018000014A
:102150009FFFF99174999B06A99B54A99B56A99B33
:1021600054999FFFF9FFFFFF6E6F746966696361A1
:1021700074696F6E200063616E63656C00507269F4
:102180006E742041626F72746564004469736D6996
:1021900073730055492041626F72746564004D325B
:1021A0003520500A4D323400526573756D65005507
:1021B000492050617573650050617573696E672EB3
:1021C0002E2E00726573756D65004D32340000FE71
:1021D0000003FF8007C7C00701E00000E00000F037
:1021E0000000700400700E00701F00703F80F00E41
:1021F00000E00F01E007C7C003FF8000FE0000FE03
:102200000003FF8007C7C00F01E00E00E03F80F031
:102210001F00700E00700400700000700000F000DD
:1022200000E00701E007C7C003FF8000FE000E00CA
:102230000E000E000E000E000E000E000E007FC0FD
:102240003F801F000E00040004000E001F003F80AE
:102250007FC00E000E000E000E000E000E000E00DD
:102260000E00FFFFFF7F80FFC0FFC0FFC07F807FA9
:1022700080FFC0FFC0FFC03F001E000C0050726F07
:102280006265205A204F66667365740052756E6FE2
:1022900075742044697374206D6D004C6F61642007
:1022A0006D6D00556E6C6F6164206D6D0046696CDC
:1022B0002E204469612E004520696E206D6D5E33CD
:1022C00000416476616E6365204B004D33303320EE
:1022D0005531204525692053256900504944204146
:1022E00075746F74756E65202A005049442D442022
:1022F0002A005049442D49202A005049442D50209D
:102300002A0020082046616374002008204D61786F
:10231000002008204D696E004F6666004F6E004138
:1023200075746F74656D70005654726176204D69D6
:102330006E00566D696E00566D6178204500566DD1
:102340006178205A00566D6178205900566D617889
:10235000205800416D6178204500416D6178205A18
:1023600000416D6178205900416D6178205800412D
:102370002D54726176656C00412D526574726163F3
:102380007400416363656C0056652D4A65726B008D
:10239000565A2D4A65726B0056592D4A65726B006C
:1023A00056582D4A65726B0050726F6265205A2034
:1023B0004F66667365740050726F62652059204FD6
:1023C00066667365740050726F62652058204F66B0
:1023D0006673657400452073746570732F6D6D00AE
:1023E0005A2053746570732F6D6D005920537465B6
:1023F00070732F6D6D00582053746570732F6D6D61
:1024000000416476616E6365642053657474696E1F
:102410006773003F0043616E63656C00496E6974C9
:10242000004D34323800496E697469616C697A65AF
:1024300020454550524F4D0046696C616D656E7484
:102440000054656D706572617475726500537465D2
:1024500070732F6D6D0050726F6265204F666673EA
:10246000657473004A65726B00416363656C6572E5
:102470006174696F6E0056656C6F6369747900539F
:10248000657420486F6D65204F66667365747300D0
:10249000436F6E66696775726174696F6E003F00A5
:1024A0004E65787420506F696E7400446F6E6500DD
:1024B0004E65787400486F6D696E672058595A00F0
:1024C0003F0043616E63656C204F626A6563740010
:1024D0004E4F005945530043616E63656C204F6257
:1024E0006A656374203D004D61696E0053746F77B7
:1024F000004465706C6F790053656C662D5465738C
:10250000740053572D4D6F646500526573657400F8
:10251000426564004E6F7A7A6C650046616E2053A6
:102520007065656400436F6E666967757261746992
:102530006F6E00526573746F7265204465666175D5
:102540006C7473004C6F61642053657474696E67BA
:10255000730053746F72652053657474696E67738A
:102560000050726568656174202420436F6E6600B8
:10257000506F776572204F7574616765004F6666AE
:10258000004F6E0052756E6F75742053656E736FD9
:102590007200424C546F7563680050726F62652020
:1025A0005A204F666673657400416476616E636598
:1025B000642053657474696E6773004D61696E00C1
:1025C0004D37303220542564004D363030204230B3
:1025D00020542564004D373032203B2564004D37B0
:1025E000303120542564004D373032004D373031C2
:1025F000004D363030204230004D61696E00436F2F
:102600006E74696E7565004F6666004F6E00527598
:102610006E6F75742053656E736F720050757267BC
:1026200065206D6F726500524553554D45204F50E2
:1026300054494F4E533A005052494E542050415540
:102640005345440020204E6F7A7A6C653A20005042
:1026500061726B696E672E2E2E00000057616974DF
:1026600020666F720066696C616D656E74206368C8
:10267000616E676500746F207374617274005761D6
:10268000697420666F720066696C616D656E742096
:10269000756E6C6F616400004E6F7A7A6C652068AD
:1026A000656174696E6700506C6561736520776160
:1026B00069742E2E2E00005072657373206275743B
:1026C000746F6E00746F2068656174206E6F7A7A23
:1026D0006C650000496E736572742066696C616D8B
:1026E000656E7400616E642070726573732062752C
:1026F00074746F6E00746F20636F6E74696E7565AD
:10270000005761697420666F720066696C616D655F
:102710006E74206C6F6164000050726573732042A8
:102720007574746F6E00746F20726573756D6520BB
:102730007072696E7400005761697420666F722050
:102740007072696E7400746F20726573756D652E9A
:102750002E2E00005761697420666F720066696CE6
:10276000616D656E7420707572676500003E2000B3
:10277000256C642E25696D004578747275646564F6
:1027800020546F74616C003E20004C6F6E6765735F
:1027900074204A6F622054696D65003E2000546FBA
:1027A00074616C205072696E742054696D650043C9
:1027B0006F6D706C65746564003A20005072696ECC
:1027C0007420436F756E74003A2000313530003547
:1027D000004245443A203125206265746120333936
:1027E00035300052756E6177617920576174636886
:1027F0003A204F4E004D61782054656D700034359D
:1028000030004D696E2054656D7000350045313AD9
:1028100020536C696365456E6720343530C2B04320
:10282000005053550047656E657269630050726FC2
:10283000746F636F6C00312E30004261756400323A
:10284000353030303000437265616C6974793344DF
:102850002052414D50530042696C696E656172208F
:102860004C6576656C696E67004578747275646551
:10287000727300310074696E796D616368696E65A9
:102880007333642E636F6D003430302053755065A0
:102890005200323032312D30342D313800322E306A
:1028A0002E375F4457372E33004D61726C696E00CE
:1028B0005072696E74657220537461747300546849
:1028C00065726D6973746F727300426F6172642018
:1028D000496E666F005072696E74657220496E664B
:1028E0006F004D61696E004D313030300053746FB0
:1028F00070205072696E7400526573756D6520505A
:1029000072696E7400506F776572204F75746167DD
:1029100065004D3139305337350A4732380A47326E
:10292000390A4D3430300A4D313034533231350AA2
:102930004732380A4D313039533231350A4D34324D
:102940003053310A47315831303059313030463503
:102950003030300A47315A300A4D3530300A4D3167
:10296000313720536574205A204F666673657400B2
:102970004D313036533132380A4D333033433853CA
:102980003231354530550A4D3530300A4D31313709
:10299000205049442054756E6520446F6E65004D8B
:1029A0003139305337350A4D313034533231350AED
:1029B0004732380A4732394C310A473120583130D2
:1029C000305931303046353030300A47315A3000D6
:1029D0004D3530300A4D3131372053657474696E8E
:1029E00067732053746F726564005072657020665F
:1029F0006F72205A2041646A7573740050494420F4
:102A000054756E650053746F7265205365747469F4
:102A10006E6773005365747570004D61696E003F99
:102A2000004261636B0053746F70005072696E7482
:102A30002066726F6D204D65646961004368616E48
:102A40006765204D65646961004D32310041626FF8
:102A50007574205072696E746572004368616E67A8
:102A6000652046696C616D656E74004C6576656CB9
:102A7000696E6720546F6F6C7300436F6E66696791
:102A800075726174696F6E0054656D706572617402
:102A9000757265004D6F74696F6E00486F737420B6
:102AA000537461727400526573756D65205072695C
:102AB0006E74004E6F204D656469610043616E6302
:102AC000656C204F626A6563740054756E650053CF
:102AD000746F70205072696E740050617573652058
:102AE0005072696E7400496E666F2053637265653B
:102AF0006E003F005374617274205072696E7400EE
:102B000043616E63656C005072696E740043616E60
:102B10006E6F7420656E746572207375626469727D
:102B20003A2000022E2E004D61696E002100486F90
:102B300074656E6420746F6F20636F6C6400426113
:102B4000636B0050726F6365656400536F66742039
:102B5000456E6473746F7073004D6F74696F6E00AF
:102B600044697361626C652053746570706572733B
:102B7000004D3834004D34382050726F6265205457
:102B8000657374004732384F0A4D34382050313065
:102B9000004C6576656C20436F726E6572730046FB
:102BA00061646520486569676874004F6666004F18
:102BB0006E00426564204C6576656C696E67004CFA
:102BC0006576656C20426564004732394E00486F77
:102BD0006D65205A004732385A00486F6D6520599C
:102BE000004732385900486F6D6520580047323829
:102BF00058004175746F20486F6D6500473238008A
:102C00004D61696E005072656865617420242045CD
:102C10006E640050726568656174202420426564AA
:102C20000054656D706572617475726500436F6FF5
:102C30006C646F776E005072656865617420240063
:102C400046616E205370656564207E0042656400B5
:102C50004E6F7A7A6C65004D61696E0050726F62DA
:102C600065205A204F666673657400416476616E14
:102C70006365204B00466C6F770046616E20537091
:102C8000656564207E00426564004E6F7A7A6C65EB
:102C9000005370656564004D61696E00486F6D6931
:102CA0006E67204661696C6564006F70656E0054E4
:102CB0005249474745524544003A200066696C61D5
:102CC0006D656E74007A5F6D696E00795F6D696E17
:102CD00000785F6D696E005265706F7274696E671F
:102CE00020656E6473746F70207374617475730AF9
:102CF0000020746F6F206C6F6E672065787472753A
:102D000073696F6E2070726576656E7465640A0013
:102D100020636F6C6420657874727573696F6E20C0
:102D200070726576656E7465640A00486F6D652023
:102D30002573257325732046697273740057617279
:102D40006E696E673A20486F6D696E672042756DD7
:102D5000702044697669736F72203C20310A00024A
:102D6000020400000000000000000000000000005D
:102D7000CD430000C8430000C843000000410000EC
:102D8000004100000040FFFFFF00000001000000C4
:102D900001000080005555550000004000333333DA
:102DA00000AAAA2A004992240000002000C7711C32
:102DB0000099991900D1451700555515003BB113DD
:102DC000002449120011111100000010000F0F0F14
:102DD00000E3380E0043790D00CCCC0C00C3300C5E
:102DE00000E8A20B0064210B00AAAA0A00703D0AA9
:102DF000009DD80900427B090092240900DCD30819
:102E000000888808001042080000000800F0C10790
:102E1000008787070075500700711C07003EEB060E
:102E200000A1BC06006990060066660600703E06BA
:102E3000006118060017F4050074D105005BB005A9
:102E400000B29005006272050055550500783905FD
:102E500000B81E0500050505004EEC040087D404EB
:102E600000A1BD040090A7040049920400C17D04A4
:102E700000EE690400C7560400444404005C3204B8
:102E8000000821040041100400000004003FF0038A
:102E900000F8E0030026D20300C3C30300CCB5034F
:102EA000003AA803000A9B0300388E0300C0810388
:102EB000009F750300D0690300505E03001D53039B
:102EC0000034480300913D03003333030016290307
:102ED00000381F030097150300300C0300030303A1
:102EE000000BFA020049F10200BAE802005CE002BD
:102EF000002DD802002DD0020059C80200B0C00237
:102F00000031B90200DAB10200AAAA0200A0A302AD
:102F100000BC9C0200FA9502005C8F0200DF880270
:102F20000082820200457C020027760200277002A0
:102F300000436A02007C640200D05E02003F590236
:102F400000C8530200FFFDFCFAF8F6F4F2F0EEECD4
:102F5000EAE9E7E5E3E1E0DEDCDAD9D7D5D4D2D09F
:102F6000CFCDCBCAC8C7C5C3C2C0BFBDBCBAB9B735
:102F7000B6B4B3B2B0AFADACAAA9A8A6A5A4A2A19D
:102F8000A09E9D9C9A99989795949392908F8E8DE0
:102F90008B8A8988878684838281807F7E7D7B7A05
:102FA000797877767574737271706F6E6D6C6B6A09
:102FB000696867666564636261605F5E5D5C5B5AF9
:102FC0005958585756555453525150504F4E4D4CD6
:102FD0004B4A4A4948474646454443424241403F9E
:102FE0003E3E3D3C3B3B3A39383837363535343355
:102FF00032323130302F2E2E2D2C2B2B2A292928FE
:10300000272726252524232322212120201F1E1E99
:103010001D1C1C1B1B1A1919181817161615151428
:10302000131312121111100F0F0E0E0D0D0C0C0BAD
:103030000A0A090908080707060605050404030328
:1030400002020100000000CD430000C8430000C898
:103050004300000000000000000000000053657401
:1030600074696E67732053746F72656400454550D0
:10307000524F4D20496E697469616C697A65640AC2
:10308000003B20003A0A0020204D3630332000203B
:10309000440020204D34313220530046696C616D6C
:1030A000656E742072756E6F75742073656E736FC4
:1030B000723A002055004C0046696C616D656E7473
:1030C000206C6F61642F756E6C6F6164206C656E2F
:1030D000677468733A0020204D393030204B004C23
:1030E000696E65617220416476616E63653A0020A5
:1030F000204D3835312058005A2D50726F626520AE
:103100004F66667365740020204D343133205300C0
:10311000506F7765722D4C6F7373205265636F76B5
:103120006572793A0020440020490020204D333058
:103130003420500020440020490020204D333031FD
:103140002050005049442073657474696E67733A67
:103150000020460020480020204D31343520530007
:103160004D6174657269616C206865617475702069
:10317000706172616D65746572733A00204A002057
:1031800020473239205720490020204D343230204A
:1031900053004175746F20426564204C6576656C00
:1031A000696E673A0020204D323036205800486F53
:1031B0006D65206F66667365743A00205800205371
:1031C0000020204D323035204200416476616E632C
:1031D00065643A20423C6D696E5F7365676D656E2C
:1031E000745F74696D655F75733E20533C6D696EE5
:1031F0005F66656564726174653E20543C6D696EFE
:103200005F74726176656C5F666565647261746532
:103210003E20583C6D61785F785F6A65726B3E2036
:10322000593C6D61785F795F6A65726B3E205A3CEC
:103230006D61785F7A5F6A65726B3E20453C6D61B7
:10324000785F655F6A65726B3E0020540020520013
:1032500020204D323034205000416363656C65722C
:103260006174696F6E2028756E6974732F733229CB
:103270003A20503C7072696E745F616363656C3EA6
:1032800020523C726574726163745F616363656C44
:103290003E20543C74726176656C5F616363656C5B
:1032A0003E0020204D3230312058004D6178696D4C
:1032B000756D20416363656C65726174696F6E2022
:1032C00028756E6974732F7332293A0020204D32AD
:1032D00030332058004D6178696D756D20666565E5
:1032E0006472617465732028756E6974732F732915
:1032F0003A0053746570732070657220756E69743E
:103300003A0020440020204D323030205300204429
:10331000697361626C65640A0046696C616D656E13
:10332000742073657474696E67733A0020204D31A0
:1033300034392043203B20556E69747320696E2018
:1033400043656C736975730A0020286D6D29002030
:1033500020473231202020203B20556E6974732095
:10336000696E206D6D000000FA430000C843000044
:103370002041000096420000A0420000A042000050
:10338000C8430000BE42E8030000EE0200006400F3
:1033900000004B00000024F4D43050C38E20C2A2A1
:1033A0004017828B7011127A910D816CD90AA86135
:1033B000E108C7586607615143061E4B5D05C145CC
:1033C000A7041A411104093D9803713931034036AD
:1033D000DB0265339102D4305402802E1D02632C2F
:1033E000EE01752AC501B028A001102781018F25A3
:1033F00064012B244B01E0223401AC211F018D20FC
:103400000D01801FFC00841EED00971DDF00B81C1D
:10341000D200E61BC600201BBC00641AB200B21921
:10342000A8000A19A0006A189900D1179100401746
:103430008B00B516840031167E00B31579003A155D
:103440007300C7146F0058146A00EE1366008813E7
:10345000630025135E00C7125B006C125700151243
:103460005400C111510070114F0021114B00D610B2
:1034700049008D1047004610440002104200C00F62
:103480004000800F3E00420F3C00060F3B00CB0E79
:103490003800930E37005C0E3500270E3400F30D14
:1034A0003200C10D3100900D3000600D2E00320D44
:1034B0002D00050D2C00D90C2B00AE0C2900850C1D
:1034C00029005C0C2700350C27000E0C2600E80BA9
:1034D0002400C40B2400A00B23007D0B23005A0BF7
:1034E0002100390B2100180B2000F80A1F00D90A0F
:1034F0001E00BB0A1E009D0A1D00800A1D00630AF3
:103500001C00470A1B002C0A1B00110A1A00F709AD
:103510001A00DD091900C4091900AB091900920944
:1035200017007B091800630917004C0916003609BB
:103530001600200916000A091500F5081500E00814
:103540001400CC081400B8081400A4081400900853
:1035500013007D0812006B0813005808120046087B
:10356000120034081100230811001208110001088C
:103570001100F0071000E0071000D0071000C0078E
:103580001000B0070F00A107100091070E0083077D
:103590000F0074070F0065070E0057070E0049075C
:1035A0000E003B070D002E070E0020070D0013072D
:1035B0000D0006070D00F9060C00ED060D00E006F3
:1035C0000C00D4060C00C8060C00BC060C00B006AB
:1035D0000C00A4060B0099060C008D060B00820659
:1035E0000B0077060B006C060B0061060A005706FD
:1035F0000B004C060A0042060A0038060A002E0696
:103600000A0024060A001A060A0010060900070626
:103610000A00FD050900F4050900EB050900E205B3
:103620000900D9050900D0050900C7050900BE0534
:103630000900B5050800AD050800A50509009C05B1
:103640000800940508008C050800840508007C0526
:103650000800740508006C050700650508005D0595
:103660000700560508004E050700470507004005FE
:10367000080038050700310507002A050700230563
:1036800007001C050600160507000F0507000805C2
:10369000060002050700FB040600F5040700EE041F
:1036A0000600E8040600E2040700DB040600D50477
:1036B0000600CF040600C9040600C3040600BD04CA
:1036C0000600B7040600B1040500AC040600A60419
:1036D0000600A00405009B04060095040500900464
:1036E00006008A04050085040500800406007A04AB
:1036F000050075040500700405006B0405006604F0
:103700000500610405005C0405005704050052042F
:1037100005004D04050048040500430405003E046F
:1037200004003A04050035040500300404002C04AC
:10373000050027040400230405001E0404001A04E5
:10374000040016040500110404000D04040009041B
:1037500005000404040000040400FC030400F80352
:103760000400F4030400F0030400EC030400E80385
:103770000400E4030400E0030400DC030400D803B5
:103780000400D4030400D0030400CC030400C803E5
:103790000300C503030024F404D9201BC40C5C0EF1
:1037A0009804C4095F0265077101F405F900FB0480
:1037B000B30048048700C1036900580355000303A0
:1037C0004500BE023A008402310053022A00290259
:1037D000250004022000E4011C00C8011900AF010B
:1037E0001700980114008401130071011000610199
:1037F000100051010E0043010D0036010B002B019A
:103800000B0020010B00150109000C010900030148
:103810000800FB000800F3000800EB000700E400CC
:103820000600DE000600D8000600D2000600CC002C
:103830000500C7000500C2000500BD000400B90076
:103840000400B5000400B1000400AD000400A900AC
:103850000400A5000300A20003009F0004009B00D9
:1038600003009800030095000200930003009000FD
:1038700003008D0002008B00030088000200860018
:10388000020084000300810002007F0002007D002E
:1038900002007B0002007900020077000100760040
:1038A00002007400020072000100710002006F004B
:1038B00002006D0001006C0002006A000100690056
:1038C000020067000100660001006500010064005D
:1038D00002006200010061000100600001005F0061
:1038E00002005D0001005C0001005B0001005A0065
:1038F0000100590001005800010057000100560066
:103900000100550001005400010053000000530065
:1039100001005200010051000100500001004F0061
:1039200001004E0000004E0001004D0001004C005F
:1039300001004B0000004B0001004A00010049005B
:103940000100480000004800010047000100460057
:103950000000460001004500000045000100440051
:10396000010043000000430001004200000042004B
:1039700001004100000041000100400001003F0043
:1039800000003F0001003E0000003E0001003D003D
:1039900000003D0001003C0000003C0000003C0035
:1039A00001003B0000003B0001003A0000003A002B
:1039B0000100390000003900010038000000380023
:1039C0000000380001003700000037000100360019
:1039D0000000360000003600010035000000350010
:1039E0000000350001003400000034000000340005
:1039F00001003300000033000000330001003200FA
:103A000000003200000032000100310000003100EF
:103A100000003100010030000000300000003000E4
:103A200001002F0000002F0000002F0000002F00D9
:103A300001002E0000002E0000002E0001002D00CD
:103A400000002D0000002D0000002D0001002C00C2
:103A500000002C0000002C0000002C0001002B00B6
:103A600000002B0000002B0000002B0001002A00AA
:103A700000002A0000002A0000002A00010029009E
:103A80000000290000002900000029000000290092
:103A90000100280000002800000028000000280085
:103AA0000000280001002700000027000000270078
:103AB000000027000000270001002600000026006B
:103AC000000026000000260000002600010025005E
:103AD0000000250000002500000025000000250052
:103AE0000000250001002400000024000000240044
:103AF0000000240000002400010023000000230037
:103B00000000230000002300000023000000230029
:103B1000000023000100220000002200000022001B
:103B2000000022000000220000002200010021000D
:103B30000000210000002100000021000000210001
:103B400000002100000021000100200000002000F2
:103B500000002000000020000000200000002000E5
:103B6000000020000000200001001F0000001F00D6
:103B700000001F0000001F0000001F0000001F00C9
:103B800000001F0001001E0000001E0000001E00BB
:103B900000001E000000232C0000B8220000561870
:103BA00000003A0F0000B8080000B10400007102E4
:103BB00000003E01000020436F756E7420583A00EB
:103BC00042656400453100626564002C207379739E
:103BD00074656D2073746F70706564212048656131
:103BE0007465725F49443A200048656174696E6784
:103BF000204661696C65640048656174696E672080
:103C00006661696C6564004D3131322053687574AA
:103C1000646F776E001000AA03F0013A019002224F
:103C20000130031001D00302017004F7001005ED0C
:103C300000B005E5005006DD00F006D7009007D182
:103C4000003008CC00D008C7007009C300100ABEBD
:103C500000B00ABB00500BB700F00BB300900CB0E3
:103C600000D00DAA00100FA5005010A00090119BCD
:103C700000D0129600B014900090168B007018853A
:103C800000501A8000301C7B00B01E750030216F80
:103C900000B02369003026640010285F00902A5A83
:103CA00000702C5500F02E4F0070314800B03245A6
:103CB00000F0334100703639001037370050383388
:103CC0000090392D00D03A2700B03C1C00503D1721
:103CD00000F03D1100903E0900D03FE5FF544845FB
:103CE000524D414C2052554E415741590054686540
:103CF000726D616C2052756E6177617900457272E8
:103D00003A204D415854454D50004D415854454D71
:103D10005020747269676765726564004572723A13
:103D2000204D494E54454D50004D494E54454D503F
:103D30002074726967676572656400202F002042F5
:103D4000403A0020403A0020573A0020573A0049B4
:103D50006E76616C69642065787472756465720A48
:103D6000007C3C3E5E2B3D3F2F5B5D3B2C2A225C62
:103D70000043616E6E6F74206F70656E20737562A4
:103D80006469722000534420496E69742046616959
:103D90006C0053442063617264206F6B0A006F7083
:103DA000656E526F6F74206661696C65640A007697
:103DB0006F6C756D652E696E6974206661696C65DE
:103DC000640A004E6F20534420636172640A000A43
:103DD0004D3234004D3233202573004142530050A0
:103DE0004C41002E0A006F70656E206661696C653B
:103DF000642C2046696C653A200046696C65207326
:103E0000656C65637465640A002053697A653A20BD
:103E10000046696C65206F70656E65643A200045E8
:103E20004E4420535542524F5554494E450A0022A4
:103E300020706F73002220706172656E743A2200E8
:103E4000535542524F5554494E452043414C4C2006
:103E50007461726765743A220053756263616C6CB9
:103E6000204F766572666C6F770045786365656490
:103E70006564206D617820535542524F5554494E28
:103E8000452064657074683A002E0A0044656C65CC
:103E900074696F6E206661696C65642C2046696C7C
:103EA000653A200046696C652064656C65746564DC
:103EB0003A005344207072696E74696E67206279AB
:103EC000746520004E6F74205344207072696E74C4
:103ED000696E670A002F6175746F25632E6700573E
:103EE000726974696E6720746F2066696C653A2028
:103EF00000667265736800646F696E6700206669AA
:103F00006C653A20004E6F77200002FD55555555DF
:103F1000555FFFFFFFFFFFFFFFFFFFFE00000000F8
:103F2000003FFFFFFFFFFFFFFFFFFFFD000007FF58
:103F3000FFFFFFFFFFFFFFFFFFFFFFFE07C005556D
:103F4000555555555FFFFFFFFFFFFFFC0A20060098
:103F5000000000003FFFFFFFFFFFFFFE1410050001
:103F60000007FFFFFFFFFFFFFFFFFFFC280806071A
:103F7000C00555555555555FFFFFFFFE5404040A13
:103F8000200600000000003FFFFFFFFC6004061455
:103F90001005000007FFFFFFFFFFFFFE500404288D
:103FA000080607C00555555555555FFC6004065475
:103FB00004040A200600000000003FFE54041C60B8
:103FC000040614100500000000001FFC28082E50F5
:103FD000040428080607C00001F03FFE14105460D6
:103FE00004065404040A200002081FFC0A20665438
:103FF000041C60040614100005043FFE07C054288A
:10400000082E5004042808000A021FFC00002E1489
:10401000105460040654040015013FFE00001C0A01
:10402000206654041C60040018011FFC00000607F1
:10403000C05428082E50040014013FFE0000040064
:10404000002E14105460040018011FFCFFFFFE0036
:10405000001C0A206654041C15013FFED55554006F
:10406000000607C05428082A0A021FFC84104600D4
:10407000000400002E14105105043FFEC41044FF3C
:10408000FFFE00001C0A206102881FFC841046D538
:10409000555400000607C05101F03FFE84104484CF
:1040A000104600000400002A00001FFCC41046C493
:1040B0001044FFFFFE00001C00003FFE84104484FB
:1040C0001046D5555400000000001FFCD5555684FD
:1040D000104484104600000000003FFCFFFFFCC4B9
:1040E0001046C41044FFFFFFFFFF9FFE0000068440
:1040F0001044841046D555555555BFFD555554D5DA
:10410000555684104484104104109FFFFFFFFCFFAC
:10411000FFFCC41046C410410411BFFFFFFFFE00A6
:10412000000684104484104104109FFFFFFFFD55DA
:104130005554D5555684104104109FFFFFFFFFFFD3
:10414000FFFCFFFFFCC410410411BFFFFFFFFFFF96
:10415000FFFE00000684104104109FFFFFFFFFFFD9
:10416000FFFD555554D555555555BFFFFFFFFFFF72
:10417000FFFFFFFFFCFFFFFFFFFF9FFFFFFFFFFFB2
:10418000FFFFFFFFFE00000000003FFFFFFFFFFFFB
:10419000FFFFFFFFFD55555555555FFFFFFFFFFF23
:1041A000FFFFFFFFFFFFFFFFFFFFFFFFFFFFFFFF1F
:1041B000FFFFFFFFFFFFFFFFFFFFFFFFFFFFFFFF0F
:1041C000FFFFFFFFFFFFFFFFFFFFFFFFFFFFFFFFFF
:1041D000FFFFFFFFFFFFFFFFFFFFFFE02EFB7DFB69
:1041E000FBCFC1DFBB3EC0E1FE3C1FFDEE7B39F9DA
:1041F000F3CF9EDFBB3EDFDEFCDDE7FDEE3BBBF930
:10420000EBD7BF5FBB5EDFDEFDEDF7FDEEBBD3FAA4
:10421000EBB73FDFBB4EDFDFFFCDF3FDEEDBC7FAD1
:10422000EBBB7FC03B6EC0E3FF1DF3FDEECBEFFAAF
:10423000DBBB7FDFBB66DFF8FFCDF3FDEEEBEFFB13
:104240005B033F5FBB76DFFE7FEDF3FDEEF3EFFB3D
:104250005B79BEDFBB7ADFDE7DEDF7FDEEF3EFFBD2
:10426000BAFD9EDFBB7CDFDEFDCDE7FDEEFBEFFBA5
:10427000BAFDC1DFBB7EC0E0FE1C1F6D61726C69C0
:104280006E66772E6F726700322E302E375F44577E
:10429000372E33001FFFFFFFFFFFFF60000000000D
:1042A00001FF400000000000FF8000000000007FD0
:1042B00083CF00000C303F87FF80000C301F8679D1
:1042C00080000C000F8C30C7838C30E78C30CFC758
:1042D000CC31F38C30DCECEC33B98C30D86C6C33F3
:1042E000198C30D06C0C33198C30D86C0C33198C81
:1042F00030DC6C0E3B198C30CF7C079F198C30C79B
:104300007C038F19400000000000026000000000E4
:1043100000061FFFFFFFFFFFF86001F4017001EAD4
:10432000019001E001B001D601D001CC010002C230
:10433000013002B8016002AE019002A401D0029ADD
:10434000012003900170038601C0037C01300472D8
:1043500001A004680120055E01B005540160064A11
:104360000120074001F0073601F0082C01100A2255
:1043700001500B1801C00C0E01500E04013010FA50
:10438000002012F0005014E600C016DC007019D2B4
:1043900000501CC800501FBE007022B400B025AAF7
:1043A00000F028A000202C9600302F8C00103282C4
:1043B00000A0347800F0366E00E0386400803A5A8D
:1043C00000403B5500E03B5000F03C4600C03D3C07
:1043D00000603E3200E03E2800303F1E00503F1992
:1043E00000703F1400A03F0A00C03F0000D03FF61D
:1043F000FFE03FECFF2020506C616E6E65724275ED
:104400006666657242797465733A2000204672656B
:1044100065204D656D6F72793A2000436F6D70694C
:104420006C65643A2041707220323420323032316F
:104430000A00204C61737420557064617465643A9D
:1044400020323032312D30342D3138207C204175EE
:1044500074686F723A2054696E794D616368696E51
:10446000657333440A00322E302E375F4457372E9F
:10447000330A004D61726C696E0020536F66747769
:104480006172652052657365740A00205761746318
:1044900068646F672052657365740A002042726F0A
:1044A000776E206F75742052657365740A0020451D
:1044B000787465726E616C2052657365740A005081
:1044C0006F77657255700A0073746172740A0047E1
:1044D00032385859004D31303031006572726F7288
:1044E0002077726974696E6720746F2066696C65E5
:1044F0000A00446F6E6520736176696E6720666995
:104500006C652E0A004D323900456E6473746F700D
:104510007300255320256320256320256320256310
:1045200000205A3A0020593A0020583A00656E643B
:1045300073746F7073206869743A200000000A0B6E
:1045400002090C0D0E080703040100000000000022
:10455000000000000000000000000000000000005B
:104560000000000000000000121110000000000018
:10457000000000000000000000000000000000003B
:104580000000004D6F76652025736D6D004D6F76D0
:104590006520302E316D6D004D6F766520316D6D6B
:1045A000004D6F76652031306D6D004D6F76652062
:1045B00041786973004578747275646572004D6F57
:1045C0007665205A004D6F76652059004D6F7665EF
:1045D000205800DF3DDB3D4368616E67652046691A
:1045E0006C616D656E7400556E6C6F616420466918
:1045F0006C616D656E74004C6F61642046696C611E
:104600006D656E74005072656865617420437573E2
:10461000746F6D005072656865617420240042619A
:10462000636B0050726F62696E67204661696C65EA
:104630006400205A3A200020593A20004265642044
:10464000583A200073686F7700627574746F6E005B
:10465000626567696E0044697361626C6552756E6C
:104660006F75740050757267654D6F7265005061AB
:104670007573656400436F6E74696E7565004C6F89
:1046800061642046696C616D656E74205400496EEA
:10469000736572742066696C616D656E7420616EFD
:1046A000642073656E64204D3130380A00220A00A0
:1046B000556E6B6E6F776E20636F6D6D616E643AD1
:1046C0002022002042002050006F6B003430302048
:1046D00053755065522052656164792E005072699D
:1046E0006E74696E672E2E2E005072696E742050A3
:1046F000617573656400204500205A002059002030
:104700004D393220580020453A00205A3A002059AD
:104710003A00583A0020746F6F206C6F6E67206506
:104720007874727573696F6E2070726576656E74D9
:1047300065640A0020636F6C642065787472757319
:10474000696F6E2070726576656E7465640A0052DA
:104750006573656E643A20006E6F746966696361A3
:1047600074696F6E200000002200250028002B00D5
:104770002E003100340002010000050108010B0188
:1047800000002100240027002A002D003000330003
:1047900001010000040107010A01050505050705DF
:1047A00008080808020202020A0A080804040404AD
:1047B00001010101010101010303030303030303D9
:1047C000040707070C0C0C0C0C0C0C0C0202020268
:1047D00006060606060606060B0B0B0B0B0B0B0B51
:1047E0000102102020080810204010204080020103
:1047F00002010804020101020408102040808040E8
:1048000020100804020180040201804020100804E6
:104810000201080402010102040810204080010284
:104820000408102040801201440211241FBECFEF63
:10483000D1E2DEBFCDBF00E00CBF13E0A0E0B2E0EC
:10484000EEEBF6EF02E00BBF02C007900D92A03A2C
:10485000B107D9F72AE1A0EAB3E001C01D92A13265
:10486000B207E1F714E2C4E1D4E200E006C0219708
:104870000109802FFE010F94B577C331D10780E085
:104880000807A9F70F94E3650D944D7B0C94000085
:10489000FC0184910895FC01808108951198000025
:1048A00000009091020187FD909591709093000116
:1048B000119A0000000000000000119800000000A4
:1048C0009091020186FD9095917090930001119A4C
:1048D000000000000000000011980000000090910E
:1048E000020185FD9095917090930001119A00004E
:1048F00000000000000011980000000090910201EB
:1049000084FD9095917090930001119A0000000031
:10491000000000001198000000009091020183FD4A
:104920009095917090930001119A00000000000092
:1049300000001198000000009091020182FD909506
:10494000917090930001119A000000000000000097
:104950001198000000009091020181FD90959170E6
:1049600090930001119A00000000000000001198CF
:104970000000000080910201817080930001119A73
:104980000000000000000000089590E080E008951D
:10499000CF93DF93DB01F9019C919130C1F094300A
:1049A00080F094509C938830D1F48081918100975D
:1049B00071F0019791838083480F591FEA01188293
:1049C00006C08C3539F49C5F9C93943041F4DF91A0
:1049D000CF9108958B3339F781E08C93F8CF208104
:1049E0003181B9016F5F7F4F71836083420F531F25
:1049F000EA018883808191818F3591056CF7E7CF3B
:104A00000F931F9381E000911218109113182091B9
:104A100014183091151840910E1850910F1860918C
:104A2000101870911118041715072607370708F496
:104A300080E01F910F91089590E080E00895282F65
:104A400090918909833021F495FD0FC094FD0FC02A
:104A5000892F90E0B0E0A0E004C0B695A7959795A7
:104A600087952A95D2F78170089581E0089580E0B6
:104A70000895CF92DF92EF92FF92CF93DF93EC01F4
:104A8000CC80DD80EE80FF8027E137EB41ED58EBF5
:104A9000C701B6010F941E7A87FD23C023E030E0E2
:104AA00048EC53E4C701B6010F94CC701816CCF053
:104AB000C880D980EA80FB8027E137EB41ED58EBD5
:104AC000C701B6010F941E7A87FD0BC0C1E023E039
:104AD00030E04DEC53E4C701B6010F94CC701816CA
:104AE0000CF4C0E08C2FDF91CF91FF90EF90DF901E
:104AF000CF9008952F923F924F925F926F927F9244
:104B00008F929F92AF92BF92CF92DF92EF92FF92DD
:104B10000F931F93CF93DF93CDB7DEB72E970FB6CA
:104B2000F894DEBF0FBECDBF8A83162F4983822E35
:104B3000262F30E03A872987E8E08E9FC0011124B4
:104B40009C878B87FC01E20FF31FEE0FFF1FEE0F18
:104B5000FF1FEB5DF94F60817181828193819B0121
:104B6000AC010F94B07A882309F42EC19A81E981AF
:104B70009E0F882D810F28E0929FF0011124A985B6
:104B8000BA85AE0FBF1FAA0FBB1FAA0FBB1FAB5D1D
:104B9000B94FAC901196BC9011971296CC90129789
:104BA0001396DC903981930F28E0929FA001112485
:104BB000A985BA85A40FB51FAA0FBB1FAA0FBB1FDB
:104BC000AB5DB94FEC901196FC90119712960C9139
:104BD000129713961C91282F30E0AB85BC85A20F4D
:104BE000B31FAA0FBB1FAA0FBB1FAB5DB94F9C9091
:104BF00011967C90119712966C90129713965C9078
:104C0000880D90E0AB85BC85A80FB91FAA0FBB1F0C
:104C1000AA0FBB1FAB5DB94F8C9011964C901197AA
:104C200012963C90129713962C90E20FF31FEE0F02
:104C3000FF1FEE0FFF1FEB5DF94F3081398321819C
:104C40002A8332813B8323812C83FA01E80FF91FE9
:104C5000EE0FFF1FEE0FFF1FEB5DF94F30813D831D
:104C600081818E8392819F83238128879701A80168
:104C7000B701C8010F94B07A882321F0E12CF12C00
:104C800000E010E09501A601B501C6010F94B07ACD
:104C9000882311F057016801282D342D432D522D02
:104CA000682D742D832D922D0F94B07A882321F0D6
:104CB000812C412C312C212C292D372D462D552D81
:104CC000692D772D862D952D0F94B07A882321F0AC
:104CD000982C742C632C522C2D813E814F81588549
:104CE0006D817E818F8198850F94B07A882321F021
:104CF0001D821E821F82188629813A814B815C8128
:104D000069817A818B819C810F94B07A882341F0EC
:104D10003D8139838E818A839F819B83E885EC83E3
:104D20002B853C8589859A85280F391F220F331FD3
:104D3000220F331F2B5D394F3A8729879501A60132
:104D4000B501C6010F94BE779701A8010F94BD77F6
:104D50006B017C01292D372D462D552D692D772D81
:104D6000862D952D0F94BE77282D342D432D522D51
:104D70000F94BD779B01AC01C701B6010F94BE77BC
:104D80006B017C0129813A814B815C8169817A8147
:104D90008B819C810F94BE772D813E814F815885F8
:104DA0000F94BD779B01AC01C701B6010F94BE778C
:104DB00020E030E040E450E40F94B878E985FA85CB
:104DC00060837183828393832E960FB6F894DEBF3F
:104DD0000FBECDBFDF91CF911F910F91FF90EF904C
:104DE000DF90CF90BF90AF909F908F907F906F900B
:104DF0005F904F903F902F90089510926C09809192
:104E0000590290915A02A0915B02B0915C0280938A
:104E10003A0790933B07A0933C07B0933D07089552
:104E2000129A0895269A2E9A0895AF92BF92CF9221
:104E3000DF92EF92FF920F931F93CF93DF936B015B
:104E4000E9014A3009F4C1C0453109F073C0DB0102
:104E50001296ED91FC91F280C681D781809102017A
:104E6000809582708093000188E28A950000E9F7BE
:104E7000BF2CB29420EFB22230E1A32EAF0C48E257
:104E8000E42E88EF0E944E248E2D8A950000E9F7CB
:104E9000BFE1BF1508F485C08F2D807780680E9420
:104EA0004E248B2D0E944E248E2D8A950000E9F70A
:104EB00080E80E944E2480E00E944E248E2D8A9528
:104EC0000000E9F78AEF0E944E248E2D8A9500009B
:104ED000E9F78E01005F1F4F8881807F0E944E247A
:104EE00089918295807F0E944E24C017D107A1F737
:104EF0008E2D8A950000E9F7F394E0E1BE0EFA10DA
:104F0000C0CF80910201827080930001D601129679
:104F1000CD91DC91CE010F94905A811147C2DF915F
:104F2000CF911F910F91FF90EF90DF90CF90BF90A6
:104F3000AF900895FB0102811381423309F4F1C15E
:104F400008F4F5C1463409F4E2C1473409F4E5C177
:104F50004B3329F589812B81D80112966C911297D8
:104F600013964C91213009F438C2233009F002C263
:104F700038EF380F582F91E0431708F490E041E0E4
:104F8000531708F040E031E0561708F430E0592F8D
:104F9000542B352309F016C2942309F013C281E083
:104FA000BECF80EE8F0D8068807F0E944E248F2DB3
:104FB0008295807F0E944E248E2D8A950000E9F70D
:104FC00080E80E944E2480E877CF809101018260C2
:104FD0008093010180910201827080930001809191
:104FE00001018160809301018091020181708093B1
:104FF0000001099A119A8091020180958270809334
:10500000000188E28A950000E9F788E790E0CEE9A0
:10501000DFE0FE013197F1F70197D9F788EF0E94A1
:105020004E2418E2812F8A950000E9F780E20E9461
:105030004E2480E00E944E24812F8A950000E9F7DB
:1050400080E00E944E2480E80E944E24812F8A95A1
:105050000000E9F780E00E944E2480E10E944E2487
:10506000812F8A950000E9F7CE010197F1F7CE0173
:105070000197F1F7CE010197F1F7CE010197F1F712
:10508000CE010197F1F7CE010197F1F7CE0101971B
:10509000F1F7CE010197F1F7CE010197F1F7CE01BB
:1050A0000197F1F7CE010197F1F7CE010197F1F7E2
:1050B000CE010197F1F7CE010197F1F72197F1F7B2
:1050C00080E20E944E2480E40E944E24812F8A9523
:1050D0000000E9F780E20E944E2480E60E944E2400
:1050E0001A950000E9F710E0D0E0C8E28D2F807734
:1050F00080680E944E24812F0E944E248C2F8A9516
:105100000000E9F780E80E944E2480E00E944E24CF
:105110008C2F8A950000E9F78AEF0E944E248C2F8D
:105120008A950000E9F790E2119800000000809154
:105130000201817080930001119A000000000000BC
:10514000000011980000000080910201817080939E
:105150000001119A000000000000000011980000FA
:10516000000080910201817080930001119A00007B
:105170000000000000001198000000008091020172
:10518000817080930001119A00000000000000006F
:10519000119800000000809102018170809300014D
:1051A000119A0000000000000000119800000000AB
:1051B00080910201817080930001119A000000002B
:1051C0000000000011980000000080910201817031
:1051D00080930001119A0000000000000000119867
:1051E0000000000080910201817080930001119AFB
:1051F00000000000000000001198000000008091F5
:105200000201817080930001119A000000000000EB
:1052100000001198000000008091020181708093CD
:105220000001119A00000000000000001198000029
:10523000000080910201817080930001119A0000AA
:1052400000000000000011980000000080910201A1
:10525000817080930001119A00000000000000009E
:10526000119800000000809102018170809300017C
:10527000119A0000000000000000119800000000DA
:1052800080910201817080930001119A000000005A
:105290000000000011980000000080910201817060
:1052A00080930001119A0000000000000000119896
:1052B0000000000080910201817080930001119A2A
:1052C00000000000000000008C2F8A950000E9F724
:1052D000915009F029CF88EF0E944E248C2F8A9597
:1052E0000000E9F7DF5F105FD03209F0FFCE80E009
:1052F0000E944E2480EC0E944E24CA950000E9F7DB
:105300008091020182708093000181E008CED80173
:1053100015968C91888381E002CEF8018181888383
:10532000FACFB901C8010F94AD5A81E0F8CD4431EC
:1053300071F0473109F033CE1882F80182818983F8
:10534000858181508A8383818B8381E0E8CDD80178
:1053500015964C91159750E0440F551F70E060E092
:1053600016968D919C910F94EE7AC8010F94A65ACF
:1053700081E0D5CD481708F412CE861708F40FCE79
:10538000FA80E12CD12C243070F41DC0BE01C8017C
:105390000F94AD5A898198819D0D98838E0D8983D4
:1053A000FF0C09F4FCCDF7FEF6CFF0CF4D8150E0B5
:1053B000440F551F70E060E08E819F810F94EE7A5C
:1053C00081E0ADCDFA8030E0F901ED53FD4FD080A2
:1053D00021543D4FF901E080E6CF58E0580F382FB7
:1053E000CACDEF92FF920F931F93CF93DF93EC01FF
:1053F0008B017A018A859B858617970731F0888112
:1054000099810F94865C1B870A87B70188819981EF
:105410000F94944D2E813F81820F932F911D9F8376
:105420008E8390E080E0DF91CF911F910F91FF90EC
:10543000EF9008959F92AF92BF92CF92DF92EF923A
:10544000FF920F931F93CF93DF93EC018B01942E68
:10545000A52E8A859B858617970731F088819981CB
:105460000F94865C1B870A8788859985019649F584
:10547000BC800A818E81080FC880D980D6015596DC
:10548000ED91FC91C6011995B80EE92CFA2C10E0AB
:10549000F70121917F01211127C08E819F81810F0A
:1054A000911D9F838E8390E080E0DF91CF911F91CB
:1054B0000F91FF90EF90DF90CF90BF90AF909F90B3
:1054C00008950E811F81692D7A2D888199810F940D
:1054D000944D800F912F911D288539852817390704
:1054E00038F681E090E0E1CF4B2D602FC6010F949C
:1054F000DE5C080F180FCCCFDF92EF92FF920F9374
:105500001F93CF93DF93EC01D62E1CAD0BAD7C0126
:1055100084E0E80EF11CE98DFA8DC7011995412F41
:10552000480F2D2D602FC7010F94DE5C9BAD890FB6
:105530008BAF81E090E0DF91CF911F910F91FF90B1
:10554000EF90DF900895AB01BC0140931218509387
:10555000131860931418709315188BE799E10C9445
:105560002EE880932F028032B8F590916B05891751
:1055700024F091E0980F90936B054091670550914E
:1055800068056091690570916A05082E04C07695DA
:105590006795579547950A94D2F7417040938611C5
:1055A00087FD1DC0282F082E000C330B3F938F93CF
:1055B0008AE69AE09F938F938AE79AE09F938F936E
:1055C0001F920E944BCD8DB79EB707960FB6F894E9
:1055D0009EBF0FBE8DBF089510928611E1CF0D942E
:1055E0005E490F931F93CF93DF9300D01F92CDB7E7
:1055F000DEB79C0103E519E090E1EFE7FAE0D8019E
:1056000001900D929A95E1F7F90120813181428153
:105610005381F80160857185828593850F94BE77EB
:10562000F801608771878287938780E090E0A0EA25
:10563000B0E489839A83AB83BC83CE0101960F9437
:1056400076140F900F900F900F90DF91CF911F91D4
:105650000F9108952F923F924F925F926F927F9297
:105660008F929F92AF92BF92CF92DF92EF92FF9272
:105670001F93CF93DF93CDB7DEB72C970FB6F89477
:10568000DEBF0FBECDBF7A011901DC012D913D9126
:105690004D915C912D833E834F835887FB01408061
:1056A00051806280738080907F0A9090800AA090E1
:1056B000810AB090820AA50194016D817E818F815B
:1056C00098850F94CC7081110EC011E0A301920156
:1056D0006091830A7091840A8091850A9091860A6C
:1056E0000F94CC70811110E0D1012D913D914D911D
:1056F0005C9129873A874B875C87F701C080D1800E
:10570000E280F3802091130230911402409115023F
:1057100050911602C701B6010F94CC70882309F48A
:105720004EC0C0921302D0921402E0921502F09281
:10573000160280918B0A90918C0AA0918D0AB091EB
:105740008E0A4091830A5091840A6091850A709173
:10575000860A8092530990925409A0925509B092FA
:10576000560940935709509358096093590970930B
:105770005A09C0925B09D0925C09E0925D09F092EF
:105780005E0980935F0990936009A0936109B093CB
:10579000620920E030E040E05FE36091B411709175
:1057A000B5118091B6119091B7110F943271698340
:1057B0007A838B839C83CE0101960F9476142D817E
:1057C0003E814F815885209353093093540940936B
:1057D00055095093560940925709509258096092C2
:1057E000590970925A09D1012D913D914D915C91C9
:1057F00060915F09709160098091610990916209DF
:105800000F94BE7760935F0970936009809361097C
:105810009093620911112FC020E030E0A901698541
:105820007A858B859C850F94CC70811133C060E0A4
:1058300070E088EC92E469837A838B839C83CE0149
:1058400001960F9476142C960FB6F894DEBF0FBE17
:10585000CDBFDF91CF911F91FF90EF90DF90CF9060
:10586000BF90AF909F908F907F906F905F904F9080
:105870003F902F9008952AEF3EE74AE25FE3609160
:10588000B8117091B9118091BA119091BB110F9418
:105890003271D1CF60E070E080EA91E4CCCFCF9359
:1058A000DF9300D01F92CDB7DEB780E090E0A0EA92
:1058B000B0E489839A83AB83BC8361E0CE01019617
:1058C0000F94790C0F900F900F900F90DF91CF9164
:1058D00008958091290590912A05009731F04AE0BA
:1058E00050E070E060E00D94E76E60E070E0CB01A6
:1058F00008958091930A82FF0BC063E686E59BE0E2
:105900000E9466CD0F949A540E9466D481E0089557
:1059100080E008958091290590912A05009731F043
:105920004AE050E070E060E00D94B96D60E070E036
:10593000CB0108950E948A2C97FD0CC00E948A2CEE
:105940006F3F71058105910509F034F40E948A2C9E
:10595000862F089580E008958FEF0895809129059E
:1059600090912A05892B41F00E949A2C91E0811197
:1059700001C090E0892F089591E0FCCFCF92DF9293
:10598000EF92FF920F931F93CF93DF936B017A01F6
:10599000EC01CE54DB4F28813CE0389F8001399FD9
:1059A000100D112427FF24C0FB0111821082888171
:1059B0008F5F888388819801280F311D87FD3A9574
:1059C000C90120917F17F6012817190629F024F044
:1059D00088818C300CF43CC08081918104968034A5
:1059E0009C4908F475C0F60180819181049672C0CB
:1059F00088819801280F311D87FD3A95C9012091B2
:105A00007F172817190699F294F28881A801480F88
:105A1000511D87FD5A95FA01EE0FFF1FE40FF51F88
:105A2000E95CF84E808187FFC2CF8881F801E80FDA
:105A3000F11D87FDFA95CF01EE0FFF1FE80FF91F4B
:105A4000E95CF84E808160E08F770F94CC52AFCF45
:105A5000808191812881A801420F511D27FD5A950F
:105A60009A01FA01EE0FFF1FE20FF31FE95CF84EF7
:105A700021813281820F931FF70191838083888176
:105A80009801280F311D87FD3A95F901EE0FFF1F90
:105A9000E20FF31FE95CF84E808187FF20C0888108
:105AA000080F111D87FD1A95F801EE0FFF1FE00F7B
:105AB000F11FE95CF84E808161E08F77DF91CF9133
:105AC0001F910F91FF90EF90DF90CF900D94CC52EB
:105AD00080E49CE9F701918380838FEF8883DF91D5
