:100000000C9428210C9459210C9459210C945921B9
:100010000C9459210C9459210C9459210C94592178
:100020000C9459210C9459210C9459210C94592168
:100030000C9459210D949B3E0C9459210C945921F8
:100040000C9459210C9408DB0C9459210C945921DF
:100050000C9459210C9459210C94CFD70D94513EF6
:100060000C9459210C94434D0C94394D0C94592106
:100070000C9459210C9459210C9459210C94592118
:100080000C9459210C9459210C9459210C94592108
:100090000C9459210C9459210C9459210C945921F8
:1000A0000C9459210C9459210C9459210C945921E8
:1000B0000C9459210C9459210C9459210C945921D8
:1000C0000C9459210C9459210C9459210C945921C8
:1000D0000C9459210C9459210C9459210C945921B8
:1000E0000C945921084AD73B3BCE016E84BCBFFD1E
:1000F000C12F3D6C74319ABD56833DDA3D00C77FF8
:1001000011BED9E4BB4C3E916BAAAABE0000008090
:100110003F05A84CCDB2D44EB93836A9020C50B91F
:10012000918688083CA6AAAA2ABE000000803F004B
:100130000D94C1370D9446380C94C17E0C94967D75
:100140000C9430880C942ABF0D946C380C94CF78A2
:100150000C947B830C94E5CA0C940A970D947E381A
:100160000D94D3380D94AB370C94CE4D0C9450CAEB
:100170000C9419B20C9428880C9422880C948EB597
:100180000C94DD4D0C945E210C949A7D0C94CABEA7
:100190000C944DB20D94C0160C9401C60C941387A8
:1001A0000C9416880C94C5840C947AAA0C9477BE8F
:1001B0000D9492380C9469250C948D800C9449BF51
:1001C0000D94F2370C94D47E0C9437B20D94BF3852
:1001D0000C94FB7A0C9453850C9474990D94D2373B
:1001E0000C9445930C946A850C94887B0C94807EC7
:1001F0000C94867A0C947F830C9425B60C94DE8440
:100200000D94C9370C941FB20C94E3CB0C944C2280
:100210000C94C77B0C944D7D0C94157D0C948783B6
:100220000C94D27E0C9443B20C94757B0C9411A167
:100230000D9488380C94917D0C94FD7C0C94CB2506
:100240000C94A3900D94EE370D9450380C94B0B5E7
:100250000D9493160C9493830C94D54D0C94538168
:100260000C94D87E0C94F6780C9419880C94B04DAC
:100270000C9422CC0C94468B0C9454C70C9473BFF2
:100280000C9471860C94669F0C947EB90C94767DC8
:100290000D9464380C942B880C9491880C9449A983
:1002A0000C949B830C9461A70C9465CB0C9477837E
:1002B0000C948F830C9406CB0C94E3800C94FF84F5
:1002C0000C9490A20C9464220C94DF800C94938480
:1002D0000C94909D0C94878F0C94CBAE0C94F44DA1
:1002E0000C940DB20C9497830C94DE7B0C94E9BEB5
:1002F0000D94EA370D94AB380D94874A0C940D8712
:100300000C94217B0C94ECCC0C94B0850C949078DC
:100310000C94627B0D94C9380C94E9840D9439389F
:100320000C94797D0C94AC840C942F870C94537BA3
:100330000C94D07E0C942BB20D9474380C94E94D2F
:100340000C947A840C9462A40C94107D0D94E9179B
:100350000C942F7E0C9420850C941F880C94ED4DEA
:100360000C9413B20C940B880C9483830D94B538C1
:100370000C94A17B0C94814D0D94E0370D94694A47
:100380000C94A99A0C9408950C94717E0C948B8310
:100390000C9458BE0C94FF7C0C94D8210C94328899
:1003A0000C9494980C94017D0C9425B20C94E14D1E
:1003B0000C94FF4D0C948E7C0C947EC50D944138AA
:1003C0000D94A1380C94CA7E0C94F3380C946DCA29
:1003D0000D94C5370C9407A10C9446840C94074ED9
:1003E0000C942E840C940C7C0C94AC880D94A63741
:1003F0000C9493B50C94E54D0C940A9A0C94FF332D
:100400000C9481800C94429B0C940E7B0C943A7B50
:100410000C94EA7C0C94248E0C94B07B0C945B219D
:100420000C94D57C0C9489B50C94CC7E0C9401B2C0
:100430000D94164A0C941C880C9498B50D94CC37E6
:100440000C94D67E0C9440250C944ACB0D94DC374A
:100450000C94B87A0C94198D0C94E8780C94487F1D
:100460000C943E840D94D6370C94067D0D945A3826
:100470000C94C77A0C9400C60C9435880C94DB80DD
:100480000C941B870C94BF4D0C9438880C94677D9A
:100490000C94FBB10C9431B20C94D94D0C94CE7EDB
:1004A0000C94F57B0D94BD370C94DE7C0C943DB21E
:1004B0000C948E880C94E27A0C94D1C90C946278D6
:1004C0000C941F9C0D94FC370C947C7D0C947F7DC8
:1004D0000D94F8370C9425880C940B7D0C9424878C
:1004E0000C945FB60C949F7A0D94F2160C94F5CB95
:1004F0000C9444B30C9407B20D94E4370C948578B3
:100500004E414E494E495459494E46CDCCCC3D0AF8
:10051000D7233C17B7D13877CC2B329595E6241FDB
:10052000B14F0A000020410000C84200401C462094
:10053000BCBE4CCA1B0E5AAEC59D7400407A10F367
:100540005A00A0724E18090010A5D4E80000E87601
:1005500048170000E40B54020000CA9A3B00000058
:10056000E1F505000080969800000040420F000071
:1005700000A08601000000102700000000E8030032
:100580000000006400000000000A000000000001FC
:1005900000000000002C76D888DC674F0823DFC1FC
:1005A000DFAE59E1B1B796E5E3E453C63AE65199B7
:1005B0007696E8E6C28426EB898C9B62ED407C6FE0
:1005C000FCEFBC9C9F40F2BAA56FA5F490055A2A97
:1005D000F75C936B6CF9676DC11BFCE0E40D47FEA3
:1005E000F520E6B500D0ED902E0300943577050098
:1005F00080841E080000204E0A000000C80C33331F
:1006000033330F986E12831141EF8D2114893BE62D
:100610005516CFFEE6DB18D1844B381BF77C1D90B6
:100620001DA4BBE424203284725E228100C9F1241F
:10063000ECA1E53D27434F4D4D554E4943415449AB
:100640004F4E0044525952554E004552524F52534C
:1006500000494E464F004543484F004572726F7245
:100660002077726974696E6720746F204545505217
:100670004F4D210A0053544F505045442E200050F6
:1006800072696E7465722073746F70706564206433
:10069000756520746F206572726F72732E204669C3
:1006A0007820746865206572726F7220616E6420B4
:1006B000757365204D39393920746F2072657374F4
:1006C0006172742E202854656D7065726174757244
:1006D000652069732072657365742E2053657420DC
:1006E00069742061667465722072657374617274D6
:1006F000696E67290A004E6F20436865636B7375E6
:100700006D2077697468206C696E65206E756D6206
:1007100065722C204C617374204C696E653A200020
:100720004E6F20436865636B73756D2077697468DD
:10073000206C696E65206E756D6265722C204C614F
:100740007374204C696E653A2000636865636B734F
:10075000756D206D69736D617463682C204C6173D5
:1007600074204C696E653A20004C696E65204E75A8
:100770006D626572206973206E6F74204C617374B2
:10078000204C696E65204E756D6265722B312C2090
:100790004C617374204C696E653A20004D313130E4
:1007A0000053657269616C20737461747573206D98
:1007B00069736D617463680A00776169740A005334
:1007C000442072656164206572726F720A00486F1E
:1007D00074656E642049646C652054696D656F753D
:1007E0007400486F74656E642049646C65205469B8
:1007F0006D656F75740A002121204B494C4C2063B4
:100800006175736564206279204B494C4C20627598
:1008100074746F6E2F70696E0A002121204B494C51
:100820004C2063617573656420627920746F6F205A
:100830006D75636820696E6163746976652074699B
:100840006D65202D2063757272656E7420636F6D07
:100850006D616E643A20007061757365004D3630CD
:1008600030002066696C616D656E745F72756E6FC5
:100870007574200066696C616D656E745F72756E6B
:100880006F757420540046696C616D656E745275A5
:100890006E6F75742054004D656469612052656DFA
:1008A0006F766564004D6564696120496E73657299
:1008B000746564004D313030305300627573793A9D
:1008C0002070617573656420666F7220696E707543
:1008D000740A00627573793A2070617573656420DB
:1008E000666F7220757365720A00627573793A20BB
:1008F00070726F63657373696E670A00506C65612F
:100900007365205265736574005052494E544552C8
:100910002048414C5445440025533A20255300704B
:100920006F7765726F6666004B494C4C45442E20CC
:10093000005072696E7465722068616C7465642E13
:10094000206B696C6C28292063616C6C6564210ADA
:10095000006563686F3A004572726F723A000A4D23
:100960006561737572656420706F696E74733A0A9D
:1009700000387838206D6573682E205A206F6666BF
:100980007365743A20005072696E74696E67204F07
:10099000626A656374002553202569002F2F616307
:1009A00074696F6E3A0073746172740070726F6D67
:1009B00070745F00656E6400486F74656E642074C7
:1009C0006F6F20636F6C640A0053656E64204D3155
:1009D000303820746F20726573756D650A00496E3A
:1009E000736572742066696C616D656E7420616EEA
:1009F000642073656E64204D3130380A005265689A
:100A000065617420446F6E65005265686561746944
:100A10006E672E2E2E005265686561740048656110
:100A20007465722054696D656F75740053656E64EA
:100A3000204D31303820746F2068656174206E6FEE
:100A40007A7A6C650A004E6F7A7A6C652050617212
:100A50006B656400706175736564005061757365E2
:100A600000726573756D656400526573756D696EAE
:100A700067004732362043616E63656C65640047EA
:100A800032362048656174696E67204E6F7A7A6CE1
:100A900065004732362048656174696E672042659B
:100AA000640057616974696E6720666F72206865BB
:100AB000617475702E0A004669786564204C656E15
:100AC000677468205072696D6500446F6E652050D0
:100AD00072696D696E67004D616E75616C20707230
:100AE000696D696E672E2E2E004C656176696E67A2
:100AF00020473236003F537065636966696564203C
:100B0000582C5920636F6F7264696E617465206F31
:100B10007574206F6620626F756E64732E0A003FD5
:100B200028522965706561742076616C7565206E48
:100B30006F7420706C61757369626C653B206D75B4
:100B40007374206265206174206C65617374203158
:100B50002E0A003F537065636966696564206E6F95
:100B60007A7A6C652074656D7065726174757265F2
:100B7000206E6F7420706C61757369626C652E0AEB
:100B8000003F5370656369666965642066696C61DE
:100B90006D656E742073697A65206E6F7420706C59
:100BA00061757369626C652E0A003F5370656369F5
:100BB00066696564207072696D65206C656E677426
:100BC00068206E6F7420706C61757369626C652E3D
:100BD0000A003F537065636966696564206E6F7AC9
:100BE0007A6C652073697A65206E6F7420706C6111
:100BF000757369626C652E0A003F52657472616399
:100C000074696F6E204D756C7469706C69657220C3
:100C10006D757374206265207370656369666965BC
:100C2000642E0A003F5370656369666965642052EB
:100C3000657472616374696F6E204D756C74697050
:100C40006C696572206E6F7420706C617573696277
:100C50006C652E0A003F53706563696669656420A0
:100C60006C6179657220686569676874206E6F745D
:100C700020706C61757369626C652E0A0043292EC1
:100C80000A003F5370656369666965642062656444
:100C90002074656D7065726174757265206E6F7415
:100CA00020706C61757369626C65202834302D008A
:100CB000473236207374617274696E672E2E2E0A65
:100CC000004F46460A0046616465204865696768CA
:100CD000742000426564204C6576656C696E6720FF
:100CE000004661696C656420746F20656E61626C9A
:100CF0006520426564204C6576656C696E670A0004
:100D00004D65736820426564204C6576656C20648F
:100D10006174613A0A00496E76616C6964206D65A0
:100D200073682E0A00206E6F7420656E746572659C
:100D3000642E0A0050726F62696E6720506F696E90
:100D4000740025532025692F256900206F66200037
:100D50004D424C2047323920706F696E7420002953
:100D60000A004A206F7574206F662072616E676595
:100D70002028302D00290A0049206F7574206F66E5
:100D80002072616E67652028302D004732384C3064
:100D9000004D6573682070726F62696E6720646FC2
:100DA0006E65004D6573682070726F62696E6720B2
:100DB000646F6E652E0A005374617274206D6573E2
:100DC000682070726F62696E67207769746820228C
:100DD000473239205331222066697273742E0A001B
:100DE0004732395332004732384C300A4732395390
:100DF0003200686173206E6F20646174612E0A0096
:100E00004D65736820426564204C6576656C696E3B
:100E100067200053206F7574206F662072616E67C3
:100E2000652028302D35292E0A004D657368207005
:100E30006F696E74206F7574206F662072616E67C3
:100E4000650A004D34323120696E636F72726563DA
:100E50007420706172616D6574657220757361676D
:100E6000650A005741524E494E4721204C6F77206A
:100E70005A204A65726B206D6179206C656164202F
:100E8000746F20756E77616E746564207061757320
:100E900065732E0A004F4646004F4E0020204D61DC
:100EA000783A2000200020204D696E3A2000536FD0
:100EB000667420656E6473746F70733A20004D32EF
:100EC000342053256C642054256C64004739322E3D
:100ED00039204525730047312046256400473932C3
:100EE0002E39205A2573004731205A30204632309F
:100EF0003000473120582573205925732046333060
:100F00003030004D34323020532569205A2573008B
:100F10004D3130362050256920532569004D32303F
:100F20003020442573004732385230585900473931
:100F3000322E39204530205A300A47315A25730065
:100F40004D31303920532569004D3139302053253A
:100F500069004D343230205330205A300020496E21
:100F600076616C69642065787472756465722000BE
:100F700047322F47332062616420706172616D6572
:100F8000746572730A00536C6565702E2E2E004DC9
:100F900065736820706F696E74206F7574206F665A
:100FA0002072616E67650A004D302053746F7000C7
:100FB0004D312053746F7000436C69636B20746F04
:100FC00020526573756D652E2E2E004E6F204D6F6D
:100FD00076652E00456E642066696C65206C6973C9
:100FE000740A00426567696E2066696C65206C69E9
:100FF00073740A004E6F206D656469610A00526562
:1010000073756D696E6720534400286E6F206669A2
:101010006C65290043757272656E742066696C6533
:101020003A20005072696E742074696D653A200030
:101030000A53746174733A2046696C616D656E740D
:1010400020757365643A20002C204C6F6E676573C1
:1010500074206A6F623A2000546F74616C20746966
:101060006D653A200053746174733A20002C204659
:1010700061696C65643A20002C2046696E6973686A
:1010800065643A20005072696E74733A200053749C
:101090006174733A2000436F6F6C696E672E2E2E59
:1010A0000048656174696E672E2E2E004520255319
:1010B000006F6B006F666600560651064A064306CF
:1010C000350644454255473A004D313133205300EF
:1010D00042656420436F6F6C696E672E2E2E00424E
:1010E00065642048656174696E672E2E2E00353068
:1010F00030205375506552204F46462E002F2F004A
:101100004D31343520533C696E6465783E206F75EF
:1011100074206F662072616E67652028302D31293A
:101120000A00205200416363656C65726174696FE7
:101130006E3A2050004D32303620580046523A0068
:1011400020466C6F773A20004D424C2041646A750E
:101150007374205A0020643A0020693A0020703AE3
:1011600000496E76616C6964206578747275646597
:10117000720A0020643A0020693A0020703A006444
:10118000697300656E0043290A0061626C65642022
:10119000286D696E2074656D702000436F6C64204B
:1011A00065787472756465732061726520004669A4
:1011B0006C616D656E742072756E6F7574206469F4
:1011C0007374616E636520286D6D293A200046694D
:1011D0006C616D656E742072756E6F757420004F52
:1011E000666673657473204170706C696564004550
:1011F00072723A20546F6F206661722100546F6FD3
:10120000206661722066726F6D2072656665726518
:101210006E636520706F696E740A00454550524FC9
:101220004D204F4B0A002E0A002028302D31302946
:10123000002076616C7565206F7574206F66207272
:10124000616E676500416476616E6365204B3D00A9
:10125000506F7765722D6C6F7373207265636F7654
:1012600065727920004D383400446F6E65207072CD
:10127000696E74696E672066696C650A004D373760
:10128000004D3331004361703A004D4541545041A7
:10129000434B00434F4F4C45525F54454D504552D0
:1012A0004154555245004348414D4245525F5445D3
:1012B0004D504552415455524500424142595354B4
:1012C000455050494E470041524353004D4F5449F9
:1012D0004F4E5F4D4F44455300544845524D414C8D
:1012E0005F50524F54454354494F4E004C4F4E4768
:1012F0005F46494C454E414D45004155544F52457E
:10130000504F52545F53445F53544154555300530C
:10131000445F57524954450052455045415400538B
:1013200044434152440050524F4D50545F53555026
:10133000504F525400454D455247454E43595F501A
:10134000415253455200434153455F4C494748542D
:101350005F4252494748544E45535300544F474704
:101360004C455F4C494748545300534F46545741EE
:1013700052455F504F574552004255494C445F50CB
:10138000455243454E54004C4556454C494E475FE7
:1013900044415441005A5F50524F42450052554E0D
:1013A0004F5554004155544F4C4556454C005052F2
:1013B000494E545F4A4F420050524F475245535393
:1013C000004155544F5245504F52545F54454D5073
:1013D00000564F4C554D45545249430045455052D7
:1013E0004F4D0042494E4152595F46494C455F546A
:1013F00052414E534645520053455249414C5F5865
:101400004F4E5F584F4646004649524D5741524550
:101410005F4E414D453A4D61726C696E20322E30FF
:101420002E375F4457372E3320544D3344203553E5
:101430004D444E4E202841707220323420323032DA
:10144000312032313A30393A35312920534F555213
:1014500043455F434F44455F55524C3A687474703E
:10146000733A2F2F6769746875622E636F6D2F4909
:101470006E73616E6974794175746F6D6174696FB3
:101480006E2F4D61726C696E2F747265652F437299
:1014900065616C6974794477696E5F322E302050D3
:1014A000524F544F434F4C5F56455253494F4E3A5B
:1014B000312E30204D414348494E455F54595045E7
:1014C0003A353030205375506552204558545255A6
:1014D0004445525F434F554E543A31205555494487
:1014E0003A63656465326132662D343161322D3480
:1014F0003734382D396231322D63353563363266F3
:1015000033363766660A0043616E6E6F74206F7003
:10151000656E207375626469722000256973002509
:10152000696D20256973002569682025696D20256E
:10153000697300256964202569682025696D202567
:10154000697300256979202569642025696820254B
:10155000696D202569730023646566696E652044A2
:10156000454641554C545F00626564004B64200061
:101570004B6920004B702000504944204175746F26
:1015800074756E652066696E6973686564212050A4
:10159000757420746865206C617374204B702C2006
:1015A0004B6920616E64204B6420636F6E737461BD
:1015B0006E74732066726F6D2062656C6F77206940
:1015C0006E746F20436F6E66696775726174696FC0
:1015D0006E2E680A00504944204175746F74756E10
:1015E00065206661696C6564212074696D656F753D
:1015F000740A00504944204175746F74756E6520FB
:101600006661696C6564212054656D7065726174F2
:1016100075726520746F6F20686967680A00204BD7
:10162000643A2000204B693A2000204B703A200099
:1016300020436C617373696320504944200A002081
:101640004E6F206F76657273686F6F740A00205456
:10165000753A2000204B753A2000206D61783A20C1
:1016600000206D696E3A200020643A2000206269F3
:1016700061733A2000504944204175746F74756E4F
:10168000652073746172740A005049442041757476
:101690006F74756E65206661696C656421205465A0
:1016A0006D706572617475726520746F6F20686902
:1016B00067680A00504944204175746F74756E65FF
:1016C00000504944204175746F74756E65206661E1
:1016D000696C65642120426164206865617465728B
:1016E0002069640A004572723A2075746638206673
:1016F0006F6E74206E6F7420696E697469616C69B5
:101700007A65642E004572723A20757466382066D8
:101710006F6E74206E6F7420696E697469616C6994
:101720007A65642E004572723A20757466382066B8
:101730006F6E74206E6F7420696E697469616C6974
:101740007A65642E00000C0F00FE07022503BB0122
:101750007FFE08FE08FE05080806000040F0C88865
:1017600088987810050808060000C0F888888888DE
:1017700088F80505050600012030F8302005080826
:101780000600002070F820202020E005090906004E
:10179000FF2070A8A8B888887020070505070001F9
:1017A000D86C366CD80509090600FFF8A888888827
:1017B0008888A8F8050A0A0600FE20505050508874
:1017C000A8A8887003030306000340A040FFFFFFA2
:1017D000FFFFFFFFFFFFFFFFFFFFFFFFFFFFFFFF19
:1017E000FFFFFF0000000605FF010707060200805B
:1017F000808080800080030303060105A0A0A0056F
:10180000060606000050F85050F850050909060079
:10181000FF2070A8A07028A8702005070706000008
:10182000C8C8102040989805070706000040A0A0EF
:1018300040A890680103030602058080800309091F
:101840000601FF20404080808040402003090906B7
:1018500001FF80404020202040408005070706000F
:101860000020A8702070A820050505060001202092
:10187000F820200203030601FFC040800501010695
:101880000003F8020202060100C0C00507070600B7
:1018900000081010204040800507070600007088EF
:1018A00098A8C8887003070706010040C040404060
:1018B00040E0050707060000708808102040F80582
:1018C0000707060000F808103008887005070706AB
:1018D000000010305090F81010050707060000F8BF
:1018E00080F008088870050707060000304080F087
:1018F000888870050707060000F8081010202020CF
:10190000050707060000708888708888700507073B
:10191000060000708888780810600205050601003E
:10192000C0C000C0C00206060601FFC0C000C04023
:1019300080030505060101204080402005030306C1
:101940000002F800F80305050601018040204080F0
:1019500005070706000070881020200020050707F3
:101960000600007088B8A8B8807005070706000058
:10197000708888F8888888050707060000F04848BE
:10198000704848F00507070600007088808080884E
:1019900070050707060000F04848484848F005076A
:1019A00007060000F88080F08080F8050707060031
:1019B00000F88080F08080800507070600007088AE
:1019C0008080988870050707060000888888F88856
:1019D0008888030707060100E04040404040E005DA
:1019E0000707060000381010101090600507070662
:1019F00000008890A0C0A09088050707060000801E
:101A00008080808080F805070706000088D8A888B5
:101A10008888880507070600008888C8A8988888ED
:101A20000507070600007088888888887005070702
:101A3000060000F08888F080808005070706000017
:101A400070888888A89068050707060000F08888D5
:101A5000F0A090880507070600007088807008884D
:101A600070050707060000F8202020202020050729
:101A700007060000888888888888700507070600A0
:101A8000008888888850502005070706000088884D
:101A90008888A8A8500507070600008888502050AD
:101AA0008888050707060000888850202020200528
:101AB0000707060000F80810204080F8030909060F
:101AC00001FFE080808080808080E00507070600BD
:101AD00000804040201010080309090601FFE020A3
:101AE000202020202020E005030306000520508848
:101AF0000501010600FEF8030303060105804020EE
:101B000005050506000070087888780507070600B7
:101B1000008080F0888888F0050505060000708048
:101B2000808870050707060000080878888888788C
:101B30000505050600007088F0807005070706009F
:101B400000304840E04040400507070600FE70882E
:101B500088887808700507070600008080F088886C
:101B600088880307070601004000C0404040E004A9
:101B700009090601FE1000301010101090600507D2
:101B80000706000080808890E09088030707060120
:101B900000C04040404040E0050505060000D0A8D8
:101BA000A8A8A8050505060000B0C888888805050E
:101BB0000506000070888888700507070600FEF09B
:101BC000888888F080800507070600FE7888888866
:101BD000780808050505060000B0C8808080050566
:101BE0000506000078807008F00507070600002051
:101BF00020F8202020180505050600008888889810
:101C0000680505050600008888885020050505063A
:101C100000008888A8A85005050506000088502007
:101C200050880507070600FE8888885020408005F8
:101C30000505060000F8102040F80309090601FF19
:101C40002040404080404040200109090602FF80BA
:101C500080808080808080800309090601FF8040A9
:101C60004040204040408005030306000248A89001
:101C7000FF554E4C4F41442046494C414D454E5432
:101C8000004C4F41442046494C414D454E5400467E
:101C9000494C414D454E54204348414E4745004232
:101CA000656400456E636C6F7375726500256875B9
:101CB0003A25303268750025303268753A25303261
:101CC00068750020202020202020002020202000D7
:101CD0001FE02010201020101020102020102010B5
:101CE00030300840048003001FE03FF03FF03FF039
:101CF0001FE01FE03FF03FF03FF00FC00780030000
:101D00003FFFF038007030FC3020FC1020781020AD
:101D100030102C00D02E31D02F7BD02F7BD02E3105
:101D2000D02C00D020301020781020FC1030FC3057
:101D30003800703FFFF03FFFF038007031863023ED
:101D400087102787902F87D02F03D020301020783E
:101D5000102078102030102F03D02F87D0278790A5
:101D60002387103186303800703FFFF01FFFF81FC7
:101D7000FFF8041040020820020820041040082048
:101D80008010410010410008208004104000000035
:101D90001FFFF81FFFF8FFFFFF8000018E00E19F8B
:101DA00001F19381399F81F99F81F99FB9F98F28BA
:101DB000F18038018000019FFFF99174999B06A979
:101DC0009B54A99B56A99B54999FFFF9FFFFFF6E57
:101DD0006F74696669636174696F6E200063616E18
:101DE00063656C005072696E742041626F72746535
:101DF00064004469736D6973730055492041626FD3
:101E000072746564004D323520500A4D32340052F0
:101E10006573756D65005549205061757365005097
:101E2000617573696E672E2E2E00726573756D6510
:101E3000004D32340052756E6F75742044697374AE
:101E4000206D6D004C6F6164206D6D00556E6C6F80
:101E50006164206D6D0046696C2E204469612E001E
:101E60004520696E206D6D5E3300416476616E635E
:101E700065204B004D3330332055312045256920F6
:101E800053256900504944204175746F74756E651F
:101E9000202A005049442D44202A005049442D490D
:101EA000202A005049442D50202A00200820466155
:101EB0006374002008204D6178002008204D696E71
:101EC000004F6666004F6E004175746F74656D70EB
:101ED000005654726176204D696E00566D696E0031
:101EE000566D6178204500566D6178205A00566D18
:101EF0006178205900566D6178205800416D6178F5
:101F0000204500416D6178205A00416D617820596B
:101F100000416D6178205800412D54726176656CE6
:101F200000412D5265747261637400416363656C96
:101F30000056652D4A65726B00565A2D4A65726BC4
:101F40000056592D4A65726B0056582D4A65726BC2
:101F500000452073746570732F6D6D005A205374A3
:101F60006570732F6D6D00592053746570732F6DFC
:101F70006D00582053746570732F6D6D0041647649
:101F8000616E6365642053657474696E6773003FA6
:101F90000043616E63656C00496E6974004D3432B4
:101FA0003800496E697469616C697A6520454550ED
:101FB000524F4D0046696C616D656E740054656DDD
:101FC00070657261747572650053746570732F6DFE
:101FD0006D004A65726B00416363656C6572617484
:101FE000696F6E0056656C6F636974790053657430
:101FF00020486F6D65204F66667365747300436F8C
:102000006E66696775726174696F6E003F004E6538
:10201000787420506F696E7400446F6E65004E6571
:102020007874004C6576656C696E6720446F6E65E8
:1020300021004D6F7665205A004732395332004EE9
:1020400065787420506F696E74002569202F2025F3
:102050007500473239533100473239533200436CEF
:1020600069636B20746F20426567696E00486F6D0D
:10207000696E672058595A005A2056616C75650080
:10208000496E646578205900496E6465782058006F
:1020900053746F72652053657474696E6773004C76
:1020A0006F61642053657474696E6773004C657664
:1020B000656C20436F726E65727300426564205ACE
:1020C000004661646520486569676874004F66660C
:1020D000004F6E00426564204C6576656C696E67E2
:1020E0000045646974204D657368004C6576656CC5
:1020F00020426564004D6F74696F6E003F0043615C
:102100006E63656C204F626A656374004E4F0059C0
:1021100045530043616E63656C204F626A6563746A
:10212000203D004D61696E00426564004E6F7A7A11
:102130006C650046616E20537065656400436F6E88
:1021400066696775726174696F6E00526573746F4A
:1021500072652044656661756C7473004C6F6164D0
:102160002053657474696E67730053746F726520D1
:1021700053657474696E6773005072656865617445
:10218000202420436F6E6600506F776572204F7574
:1021900074616765004F6666004F6E0052756E6F22
:1021A00075742053656E736F7200416476616E635F
:1021B00065642053657474696E6773004D61696E60
:1021C000004D37303220542564004D3630302042E7
:1021D0003020542564004D373032203B2564004DBB
:1021E00037303120542564004D373032004D3730C0
:1021F00031004D363030204230004D61696E004371
:102200006F6E74696E7565004F6666004F6E0052A2
:10221000756E6F75742053656E736F7200507572B2
:102220006765206D6F726500524553554D45204FCF
:102230005054494F4E533A005052494E5420504149
:10224000555345440020204E6F7A7A6C653A200041
:102250005061726B696E672E2E2E00000057616907
:102260007420666F720066696C616D656E742063C0
:1022700068616E676500746F2073746172740057D3
:1022800061697420666F720066696C616D656E7459
:1022900020756E6C6F616400004E6F7A7A6C6520F9
:1022A00068656174696E6700506C6561736520775D
:1022B0006169742E2E2E0000507265737320627552
:1022C00074746F6E00746F2068656174206E6F7A2D
:1022D0007A6C650000496E736572742066696C6182
:1022E0006D656E7400616E64207072657373206238
:1022F0007574746F6E00746F20636F6E74696E75A1
:1023000065005761697420666F720066696C616D63
:10231000656E74206C6F6164000050726573732089
:10232000427574746F6E00746F20726573756D659D
:10233000207072696E7400005761697420666F7254
:10234000207072696E7400746F20726573756D65AC
:102350002E2E2E00005761697420666F7200666928
:102360006C616D656E7420707572676500003E204B
:1023700000256C642E25696D00457874727564655E
:102380006420546F74616C003E20004C6F6E676572
:102390007374204A6F622054696D65003E200054BA
:1023A0006F74616C205072696E742054696D6500A1
:1023B000436F6D706C65746564003A2000507269FB
:1023C0006E7420436F756E74003A20003135300012
:1023D00035004245443A204154432031303447547B
:1023E0002D320052756E6177617920576174636890
:1023F0003A204F4E004D61782054656D70003435A1
:1024000030004D696E2054656D7000350045313ADD
:1024100020536C696365456E6720343530C2B04324
:10242000005053550047656E657269630050726FC6
:10243000746F636F6C00312E30004261756400323E
:10244000353030303000437265616C6974793344E3
:102450002052414D5053004D657368204C657665A0
:102460006C696E67004578747275646572730031CB
:102470000074696E796D616368696E657333642E8B
:10248000636F6D0035303020537550655200323027
:1024900032312D30342D313800322E302E375F441A
:1024A00057372E33004D61726C696E005072696E41
:1024B00074657220537461747300546865726D6939
:1024C00073746F727300426F61726420496E666F3D
:1024D000005072696E74657220496E666F004D61BE
:1024E000696E004D313030300053746F702050727F
:1024F000696E7400526573756D65205072696E74F3
:1025000000506F776572204F7574616765003F00FA
:102510004261636B0053746F70005072696E742077
:1025200066726F6D204D65646961004368616E6716
:1025300065204D65646961004D32310041626F75FF
:1025400074205072696E746572004368616E6765CD
:102550002046696C616D656E7400436F6E666967D5
:1025600075726174696F6E0054656D706572617427
:10257000757265004D6F74696F6E00486F737420DB
:10258000537461727400526573756D652050726981
:102590006E74004E6F204D656469610043616E6327
:1025A000656C204F626A6563740054756E650053F4
:1025B000746F70205072696E74005061757365207D
:1025C0005072696E7400496E666F20536372656560
:1025D0006E003F005374617274205072696E740013
:1025E00043616E63656C005072696E740043616E86
:1025F0006E6F7420656E74657220737562646972A3
:102600003A2000022E2E004D61696E002100486FB5
:1026100074656E6420746F6F20636F6C6400426138
:10262000636B0050726F63656564004F6666004FB0
:102630006E00536F667420456E6473746F70730020
:102640004D6F74696F6E0044697361626C652053ED
:1026500074657070657273004D3834004265642093
:102660004C6576656C696E6700486F6D65205A0031
:102670004732385A00486F6D652059004732385943
:1026800000486F6D65205800473238580041757416
:102690006F20486F6D6500473238004D61696E00EC
:1026A00050726568656174202420456E6400507224
:1026B00065686561742024204265640054656D700E
:1026C0006572617475726500436F6F6C646F776ECD
:1026D000005072656865617420240046616E205365
:1026E00070656564207E00426564004E6F7A7A6C86
:1026F00065004D61696E0042616279737465702096
:102700005A00416476616E6365204B00466C6F77BA
:102710000046616E205370656564207E00426564EA
:10272000004E6F7A7A6C6500426564205A005370DF
:10273000656564004D61696E00486F6D696E672064
:102740004661696C6564006F70656E00545249475C
:102750004745524544003A200066696C616D656EDC
:1027600074007A5F6D696E00795F6D696E00785FE5
:102770006D696E005265706F7274696E6720656E68
:102780006473746F70207374617475730A002074BD
:102790006F6F206C6F6E6720657874727573696FE8
:1027A0006E2070726576656E7465640A0020636FD2
:1027B0006C6420657874727573696F6E20707265D1
:1027C00076656E7465640A00000000000000000079
:1027D000000000005761726E696E673A20486F6DA5
:1027E000696E672042756D702044697669736F72F7
:1027F000203C20310A000202040000FF430000FADE
:10280000430000FA430000004100000041000000C6
:1028100040000000010000000100008000555555F7
:10282000000000400033333300AAAA2A0049922452
:102830000000002000C7711C0099991900D14517AC
:1028400000555515003BB113002449120011111118
:1028500000000010000F0F0F00E3380E0043790D49
:1028600000CCCC0C00C3300C00E8A20B0064210BA0
:1028700000AAAA0A00703D0A009DD80900427B09FF
:102880000092240900DCD308008888080010420860
:102890000000000800F0C107008787070075500797
:1028A00000711C07003EEB0600A1BC060069900603
:1028B0000066660600703E06006118060017F40503
:1028C0000074D105005BB00500B29005006272058E
:1028D000005555050078390500B81E0500050505A9
:1028E000004EEC040087D40400A1BD040090A704AE
:1028F0000049920400C17D0400EE690400C756043B
:1029000000444404005C3204000821040041100427
:1029100000000004003FF00300F8E0030026D203AB
:1029200000C3C30300CCB503003AA803000A9B030D
:1029300000388E0300C08103009F750300D0690337
:1029400000505E03001D53030034480300913D0313
:10295000003333030016290300381F0300971503C3
:1029600000300C0300030303000BFA020049F102DC
:1029700000BAE802005CE002002DD802002DD0026F
:102980000059C80200B0C0020031B90200DAB10239
:1029900000AAAA0200A0A30200BC9C0200FA9502B1
:1029A000005C8F0200DF88020082820200457C0208
:1029B000002776020027700200436A02007C64024E
:1029C00000D05E02003F590200C8530200FFFDFC28
:1029D000FAF8F6F4F2F0EEECEAE9E7E5E3E1E0DE3E
:1029E000DCDAD9D7D5D4D2D0CFCDCBCAC8C7C5C3EE
:1029F000C2C0BFBDBCBAB9B7B6B4B3B2B0AFADAC6C
:102A0000AAA9A8A6A5A4A2A1A09E9D9C9A999897C0
:102A100095949392908F8E8D8B8A898887868483F4
:102A20008281807F7E7D7B7A797877767574737208
:102A300071706F6E6D6C6B6A6968676665646362FE
:102A400061605F5E5D5C5B5A5958585756555453E8
:102A5000525150504F4E4D4C4B4A4A4948474646BA
:102A6000454443424241403F3E3E3D3C3B3B3A3978
:102A7000383837363535343332323130302F2E2E28
:102A80002D2C2B2B2A2929282727262525242323CB
:102A900022212120201F1E1E1D1C1C1B1B1A191960
:102AA0001818171616151514131312121111100FEA
:102AB0000F0E0E0D0D0C0C0B0A0A0909080807076A
:102AC000060605050404030302020100000000FFDE
:102AD000430000FA430000FA430000000000000039
:102AE000000000000053657474696E6773205374AE
:102AF0006F72656400454550524F4D20496E6974B0
:102B000069616C697A65640A003B200020204D36BB
:102B10003033200020440020204D34313220530037
:102B200046696C616D656E742072756E6F75742088
:102B300073656E736F723A002055004C0046696CE5
:102B4000616D656E74206C6F61642F756E6C6F6162
:102B500064206C656E677468733A0020204D3930CC
:102B600030204B004C696E65617220416476616E65
:102B700063653A0020204D343133205300506F7785
:102B800065722D4C6F7373205265636F7665727931
:102B90003A0020440020490020204D33303420509A
:102BA0000020440020490020204D333031205000C7
:102BB0005049442073657474696E67733A00204607
:102BC0000020480020204D3134352053004D6174E1
:102BD000657269616C2068656174757020706172DE
:102BE000616D65746572733A002020473239205355
:102BF00034205A00204A0020204732392053332005
:102C0000490020204D3432302053004D6573682038
:102C1000426564204C6576656C696E673A002020D9
:102C20004D323036205800486F6D65206F666673F0
:102C300065743A0020580020530020204D32303572
:102C4000204200416476616E6365643A20423C6DC7
:102C5000696E5F7365676D656E745F74696D655FDE
:102C600075733E20533C6D696E5F66656564726185
:102C700074653E20543C6D696E5F74726176656C5C
:102C80005F66656564726174653E20583C6D61786D
:102C90005F785F6A65726B3E20593C6D61785F7941
:102CA0005F6A65726B3E205A3C6D61785F7A5F6A3D
:102CB00065726B3E20453C6D61785F655F6A657249
:102CC0006B3E0020540020520020204D3230342032
:102CD0005000416363656C65726174696F6E202892
:102CE000756E6974732F7332293A20503C70726983
:102CF0006E745F616363656C3E20523C72657472F2
:102D00006163745F616363656C3E20543C747261FF
:102D100076656C5F616363656C3E0020204D3230E8
:102D2000312058004D6178696D756D204163636590
:102D30006C65726174696F6E2028756E6974732F8B
:102D40007332293A0020204D3230332058004D6133
:102D500078696D756D206665656472617465732050
:102D600028756E6974732F73293A005374657073F4
:102D70002070657220756E69743A0020440020202E
:102D80004D3230302053002044697361626C6564B9
:102D90000A0046696C616D656E74207365747469B0
:102DA0006E67733A0020204D3134392043203B2098
:102DB000556E69747320696E2043656C7369757311
:102DC0000A0020286D6D2900202047323120202064
:102DD000203B20556E69747320696E206D6D000074
:102DE00000FA430000C84300007041000096420012
:102DF00000A0420000A0420000C8430000BE42E81C
:102E0000030000BC020000640000004B000000242E
:102E1000F4D43050C38E20C2A24017828B7011129E
:102E20007A910D816CD90AA861E108C758660761DB
:102E30005143061E4B5D05C145A7041A4111040903
:102E40003D9803713931034036DB0265339102D47A
:102E5000305402802E1D02632CEE01752AC501B08C
:102E600028A001102781018F2564012B244B01E04C
:102E7000223401AC211F018D200D01801FFC008434
:102E80001EED00971DDF00B81CD200E61BC6002017
:102E90001BBC00641AB200B219A8000A19A0006A8B
:102EA000189900D117910040178B00B51684003196
:102EB000167E00B31579003A157300C7146F0058D9
:102EC000146A00EE1366008813630025135E00C7C2
:102ED000125B006C12570015125400C111510070A2
:102EE000114F0021114B00D61049008D10470046AC
:102EF00010440002104200C00F4000800F3E00420C
:102F00000F3C00060F3B00CB0E3800930E37005CE1
:102F10000E3500270E3400F30D3200C10D31009044
:102F20000D3000600D2E00320D2D00050D2C00D946
:102F30000C2B00AE0C2900850C29005C0C270035F9
:102F40000C27000E0C2600E80B2400C40B2400A064
:102F50000B23007D0B23005A0B2100390B21001895
:102F60000B2000F80A1F00D90A1E00BB0A1E009D94
:102F70000A1D00800A1D00630A1C00470A1B002C62
:102F80000A1B00110A1A00F7091A00DD091900C40A
:102F9000091900AB091900920917007B0918006391
:102FA0000917004C09160036091600200916000AF8
:102FB000091500F5081500E0081400CC081400B845
:102FC000081400A4081400900813007D0812006B78
:102FD0000813005808120046081200340811002394
:102FE0000811001208110001081100F0071000E09C
:102FF000071000D0071000C0071000B0070F00A195
:1030000007100091070E0083070F0074070F00657B
:10301000070E0057070E0049070E003B070D002E54
:10302000070E0020070D0013070D0006070D00F91D
:10303000060C00ED060D00E0060C00D4060C00C8DE
:10304000060C00BC060C00B0060C00A4060B009990
:10305000060C008D060B0082060B0077060B006C39
:10306000060B0061060A0057060B004C060A0042D8
:10307000060A0038060A002E060A0024060A001A6C
:10308000060A001006090007060A00FD050900F4FB
:10309000050900EB050900E2050900D9050900D082
:1030A000050900C7050900BE050900B5050800AD02
:1030B000050800A50509009C050800940508008C7A
:1030C000050800840508007C050800740508006CEC
:1030D000050700650508005D050700560508004E58
:1030E00005070047050700400508003805070031BF
:1030F0000507002A050700230507001C0506001622
:103100000507000F0507000805060002050700FB7C
:10311000040600F5040700EE040600E8040600E2D9
:10312000040700DB040600D5040600CF040600C92E
:10313000040600C3040600BD040600B7040600B17F
:10314000040500AC040600A6040600A00405009BCC
:1031500004060095040500900406008A0405008515
:10316000040500800406007A04050075040500705B
:103170000405006B04050066040500610405005C9D
:1031800004050057040500520405004D04050048DD
:10319000040500430405003E0404003A040500351C
:1031A000040500300404002C040500270404002357
:1031B0000405001E0404001A04040016040500118E
:1031C0000404000D040400090405000404040000C4
:1031D000040400FC030400F8030400F4030400F0FA
:1031E000030400EC030400E8030400E4030400E02B
:1031F000030400DC030400D8030400D4030400D05B
:10320000030400CC030400C8030300C50303002427
:10321000F404D9201BC40C5C0E9804C4095F026539
:10322000077101F405F900FB04B30048048700C1ED
:103230000369005803550003034500BE023A0084A9
:1032400002310053022A002902250004022000E472
:10325000011C00C8011900AF011700980114008477
:10326000011300710110006101100051010E0043B3
:10327000010D0036010B002B010B0020010B001586
:103280000109000C01090003010800FB000800F31C
:10329000000800EB000700E4000600DE000600D88E
:1032A000000600D2000600CC000500C7000500C2E1
:1032B000000500BD000400B9000400B5000400B121
:1032C000000400AD000400A9000400A5000300A252
:1032D0000003009F0004009B00030098000300957A
:1032E00000020093000300900003008D0002008B99
:1032F00000030088000200860002008400030081B1
:103300000002007F0002007D0002007B00020079C5
:1033100000020077000100760002007400020072D3
:10332000000100710002006F0002006D0001006CDE
:103330000002006A000100690002006700010066E7
:1033400000010065000100640002006200010061EC
:10335000000100600001005F0002005D0001005CF0
:103360000001005B0001005A0001005900010058F3
:1033700000010057000100560001005500010054F3
:1033800000010053000000530001005200010051F1
:10339000000100500001004F0001004E0000004EEF
:1033A0000001004D0001004C0001004B0000004BEB
:1033B0000001004A000100490001004800000048E7
:1033C00000010047000100460000004600010045E2
:1033D00000000045000100440001004300000043DC
:1033E00000010042000000420001004100000041D5
:1033F000000100400001003F0000003F0001003ECE
:103400000000003E0001003D0000003D0001003CC6
:103410000000003C0000003C0001003B0000003BBD
:103420000001003A0000003A0001003900000039B4
:1034300000010038000000380000003800010037AB
:1034400000000037000100360000003600000036A2
:103450000001003500000035000000350001003497
:10346000000000340000003400010033000000338D
:103470000000003300010032000000320000003282
:103480000001003100000031000000310001003077
:1034900000000030000000300001002F0000002F6D
:1034A0000000002F0000002F0001002E0000002E61
:1034B0000000002E0001002D0000002D0000002D56
:1034C0000000002D0001002C0000002C0000002C4A
:1034D0000000002C0001002B0000002B0000002B3E
:1034E0000000002B0001002A0000002A0000002A32
:1034F0000000002A00010029000000290000002926
:103500000000002900000029000100280000002818
:10351000000000280000002800000028000100270B
:1035200000000027000000270000002700000027FF
:1035300000010026000000260000002600000026F2
:1035400000000026000100250000002500000025E5
:1035500000000025000000250000002500010024D7
:1035600000000024000000240000002400000024CB
:1035700000010023000000230000002300000023BE
:1035800000000023000000230000002300010022AF
:1035900000000022000000220000002200000022A3
:1035A0000000002200010021000000210000002195
:1035B0000000002100000021000000210000002187
:1035C000000100200000002000000020000000207A
:1035D000000000200000002000000020000000206B
:1035E0000001001F0000001F0000001F0000001F5E
:1035F0000000001F0000001F0000001F0001001E4F
:103600000000001E0000001E0000001E000000233D
:103610002C0000B8220000561800003A0F0000B835
:10362000080000B1040000710200003E010000200B
:10363000436F756E7420583A00426564004531004E
:10364000626564002C2073797374656D2073746FE8
:103650007070656421204865617465725F49443A01
:10366000200048656174696E67204661696C656415
:103670000048656174696E67206661696C65640005
:103680004D3131322053687574646F776E001000CD
:10369000C90210012C014001220170011801B00182
:1036A0000E01F00104015002FA00B002F0003003F4
:1036B000E600D003DC009004D2007005C800A0062C
:1036C000BE000008B400B009AA00D00BA000600E34
:1036D000960060118C000015820020197800C01D32
:1036E0006E00A0226400B0275A00902C50000031D8
:1036F0004600E0343C0010383200903A2800603C2C
:103700001E00A03D1400803E0A00203F00005448E7
:1037100045524D414C2052554E4157415900546835
:1037200065726D616C2052756E61776179004572CA
:10373000723A204D415854454D50004D4158544522
:103740004D502074726967676572656400457272D6
:103750003A204D494E54454D50004D494E54454D2B
:10376000502074726967676572656400202F0020BD
:1037700042403A0020403A0020573A0020573A0091
:10378000496E76616C6964206578747275646572DF
:103790000A007C3C3E5E2B3D3F2F5B5D3B2C2A228A
:1037A0005C0043616E6E6F74206F70656E20737580
:1037B000626469722000534420496E697420466136
:1037C000696C0053442063617264206F6B0A006F60
:1037D00070656E526F6F74206661696C65640A0073
:1037E000766F6C756D652E696E6974206661696CA3
:1037F00065640A004E6F20534420636172640A00BE
:1038000041425300504C41000A4D3234004D323396
:10381000202573002E0A006F70656E206661696C4A
:1038200065642C2046696C653A200046696C652009
:1038300073656C65637465640A002053697A653A40
:10384000200046696C65206F70656E65643A2000E3
:10385000454E4420535542524F5554494E450A0057
:103860002220706F73002220706172656E743A229C
:1038700000535542524F5554494E452043414C4CFC
:10388000207461726765743A220053756263616CDB
:103890006C204F766572666C6F770045786365655E
:1038A000646564206D617820535542524F555449E8
:1038B0004E452064657074683A002E0A0044656CB9
:1038C0006574696F6E206661696C65642C20466959
:1038D0006C653A200046696C652064656C657465AA
:1038E000643A005344207072696E74696E67206296
:1038F00079746520004E6F74205344207072696E95
:1039000074696E670A002F6175746F25632E6700F6
:1039100057726974696E6720746F2066696C653AC6
:103920002000667265736800646F696E67002066C8
:10393000696C653A20004E6F77200002FD555555A1
:1039400055555FFFFFFFFFFFFFFFFFFFFE00000079
:1039500000003FFFFFFFFFFFFFFFFFFFFD0000072D
:10396000FFFFFFFFFFFFFFFFFFFFFFFFFE07C00599
:1039700055555555555FFFFFFFFFFFFFFC0A200619
:1039800000000000003FFFFFFFFFFFFFFE141005D7
:10399000000007FFFFFFFFFFFFFFFFFFFC280806F7
:1039A00007C00555555555555FFFFFFFFE540404EC
:1039B0000A200600000000003FFFFFFFFC60040635
:1039C000141005000007FFFFFFFFFFFFFE50040477
:1039D00028080607C00555555555555FFC60040677
:1039E0005404040A200600000000003FFE54041C9A
:1039F00060040614100500000000001FFC28082EBB
:103A000050040428080607C00001F03FFE141054BB
:103A10006004065404040A200002081FFC0A206601
:103A200054041C60040614100005043FFE07C05433
:103A300028082E5004042808000A021FFC00002E4B
:103A400014105460040654040015013FFE00001CCD
:103A50000A206654041C60040018011FFC000006C4
:103A600007C05428082E50040014013FFE00000433
:103A700000002E14105460040018011FFCFFFFFE0C
:103A800000001C0A206654041C15013FFED5555445
:103A900000000607C05428082A0A021FFC841046AA
:103AA00000000400002E14105105043FFEC4104411
:103AB000FFFFFE00001C0A206102881FFC841046E4
:103AC000D5555400000607C05101F03FFE84104454
:103AD00084104600000400002A00001FFCC41046A9
:103AE000C41044FFFFFE00001C00003FFE84104491
:103AF000841046D5555400000000001FFCD55556D3
:103B000084104484104600000000003FFCFFFFFCCE
:103B1000C41046C41044FFFFFFFFFF9FFE000006D5
:103B2000841044841046D555555555BFFD55555400
:103B3000D5555684104484104104109FFFFFFFFCAC
:103B4000FFFFFCC41046C410410411BFFFFFFFFE7D
:103B500000000684104484104104109FFFFFFFFD05
:103B6000555554D5555684104104109FFFFFFFFF53
:103B7000FFFFFCFFFFFCC410410411BFFFFFFFFF6C
:103B8000FFFFFE00000684104104109FFFFFFFFFAF
:103B9000FFFFFD555554D555555555BFFFFFFFFF48
:103BA000FFFFFFFFFFFCFFFFFFFFFF9FFFFFFFFF88
:103BB000FFFFFFFFFFFE00000000003FFFFFFFFFD1
:103BC000FFFFFFFFFFFD55555555555FFFFFFFFFF9
:103BD000FFFFFFFFFFFFFFFFFFFFFFFFFFFFFFFFF5
:103BE000FFFFFFFFFFFFFFFFFFFFFFFFFFFFFFFFE5
:103BF000FFFFFFFFFFFFFFFFFFFFFFFFFFFFFFFFD5
:103C0000FFFFFFFFFFFFFFFFFFFFFFFFE02EFB7D3A
:103C1000FBFBCFC1DFBB3EC0E1FE3C1FFDEE7B39AD
:103C2000F9F3CF9EDFBB3EDFDEFCDDE7FDEE3BBB05
:103C3000F9EBD7BF5FBB5EDFDEFDEDF7FDEEBBD37B
:103C4000FAEBB73FDFBB4EDFDFFFCDF3FDEEDBC7A7
:103C5000FAEBBB7FC03B6EC0E3FF1DF3FDEECBEF85
:103C6000FADBBB7FDFBB66DFF8FFCDF3FDEEEBEFEA
:103C7000FB5B033F5FBB76DFFE7FEDF3FDEEF3EF13
:103C8000FB5B79BEDFBB7ADFDE7DEDF7FDEEF3EFA8
:103C9000FBBAFD9EDFBB7CDFDEFDCDE7FDEEFBEF7B
:103CA000FBBAFDC1DFBB7EC0E0FE1C1F6D61726C04
:103CB000696E66772E6F726700322E302E375F4442
:103CC00057372E33001FFFFFFFFFFFFF600000008C
:103CD0000001FF400000000000FF80000000000025
:103CE0007F83CF00000C303F87FF80000C301F86A1
:103CF0007980000C000F8C30C7838C30E78C30CF7C
:103D0000C7CC31F38C30DCECEC33B98C30D86C6C34
:103D100033198C30D06C0C33198C30D86C0C3319AF
:103D20008C30DC6C0E3B198C30CF7C079F198C30AB
:103D3000C77C038F194000000000000260000000F3
:103D40000000061FFFFFFFFFFFF86001F401700194
:103D5000EA019001E001B001D601D001CC010002DE
:103D6000C2013002B8016002AE019002A401D0028B
:103D70009A012003900170038601C0037C01300486
:103D80007201A004680120055E01B00554016006BF
:103D90004A0120074001F0073601F0082C01100A03
:103DA0002201500B1801C00C0E01500E04013010FE
:103DB000FA002012F0005014E600C016DC00701962
:103DC000D200501CC800501FBE007022B400B025A5
:103DD000AA00F028A000202C9600302F8C00103272
:103DE0008200A0347800F0366E00E0386400803A3B
:103DF0005A00403B5500E03B5000F03C4600C03DBF
:103E00003C00603E3200E03E2800303F1E00503F44
:103E10001900703F1400A03F0A00C03F0000D03FCF
:103E2000F6FFE03FECFF2020506C616E6E65724241
:103E3000756666657242797465733A200020467231
:103E40006565204D656D6F72793A2000436F6D7026
:103E5000696C65643A20417072203234203230320D
:103E6000310A00204C61737420557064617465647C
:103E70003A20323032312D30342D3138207C2041FF
:103E80007574686F723A2054696E794D6163686920
:103E90006E657333440A00322E302E375F44573735
:103EA0002E330A004D61726C696E0020536F667488
:103EB000776172652052657365740A0020576174DA
:103EC0006368646F672052657365740A00204272EC
:103ED0006F776E206F75742052657365740A0020C9
:103EE00045787465726E616C2052657365740A0062
:103EF000506F77657255700A0073746172740A00AE
:103F00004732385859004D31303031006572726F88
:103F1000722077726974696E6720746F2066696CAD
:103F2000650A00446F6E6520736176696E6720666E
:103F3000696C652E0A004D323900456E6473746FEA
:103F400070730025532025632025632025632025D9
:103F50006300205A3A0020593A0020583A00656E12
:103F60006473746F7073206869743A200000000AEB
:103F70000B02090C0D0E08070304010000000000ED
:103F80000000000000000000000000000000000031
:103F900000000000000000000012111000000000EE
:103FA0000000000000000000000000000000000011
:103FB000000000004D6F76652025736D6D004D6F1C
:103FC000766520302E316D6D004D6F766520316D38
:103FD0006D004D6F76652031306D6D004D6F7665EB
:103FE0002041786973004578747275646572004D7C
:103FF0006F7665205A004D6F76652059004D6F76BB
:1040000065205800043800384368616E67652046B3
:10401000696C616D656E7400556E6C6F61642046ED
:10402000696C616D656E74004C6F61642046696CEB
:10403000616D656E740050726568656174204375CA
:1040400073746F6D0050726568656174202400425E
:1040500061636B00FFFFFF486F6D6520257325735B
:1040600025732046697273740073686F77006275F8
:1040700074746F6E00626567696E00446973616293
:104080006C6552756E6F75740050757267654D6F13
:1040900072650050617573656400436F6E74696E7C
:1040A0007565004C6F61642046696C616D656E7466
:1040B000205400496E736572742066696C616D6589
:1040C0006E7420616E642073656E64204D313038EB
:1040D0000A00220A00556E6B6E6F776E20636F6D5B
:1040E0006D616E643A2022002042002050006F6B08
:1040F0000035303020537550655220526561647927
:104100002E005072696E74696E672E2E2E005072EA
:10411000696E742050617573656400204500205AF3
:1041200000205900204D393220580020453A002007
:104130005A3A0020593A00583A0020746F6F206CA8
:104140006F6E6720657874727573696F6E20707218
:104150006576656E7465640A0020636F6C64206523
:104160007874727573696F6E2070726576656E749F
:1041700065640A00526573656E643A20006E6F7460
:10418000696669636174696F6E2000000022002512
:104190000028002B002E0031003400020100000531
:1041A0000108010B0100002100240027002A002D36
:1041B000003000330001010000040107010A01057D
:1041C000050505070508080808020202020A0A0890
:1041D00008040404040101010101010101030303B6
:1041E0000303030303040707070C0C0C0C0C0C0C53
:1041F0000C0202020206060606060606060B0B0B5A
:104200000B0B0B0B0B010210202008081020401094
:10421000204080020102010804020101020408108A
:1042200020408080402010080402018004020180A8
:1042300040201008040201080402010102040810D1
:104240002040800102040810204080007C01BE0153
:1042500011241FBECFEFD1E2DEBFCDBF00E00CBF07
:1042600013E0A0E0B2E0E4EAF1EC02E00BBF02C030
:1042700007900D92A037B107D9F729E1A0E7B3E085
:1042800001C01D92A739B207E1F711E2C7E2D1E2FE
:1042900000E006C021970109802FFE010F94285DE0
:1042A000C632D10780E00807A9F70F94DA4B0D94C6
:1042B000C0600C940000FC0184910895FC01808191
:1042C00008951198000000009091020187FD9095DB
:1042D000917090930001119A00000000000000000E
:1042E0001198000000009091020186FD9095917058
:1042F00090930001119A0000000000000000119846
:10430000000000009091020185FD909591709093BE
:104310000001119A00000000000000001198000048
:1043200000009091020184FD90959170909300019E
:10433000119A000000000000000011980000000029
:104340009091020183FD9095917090930001119AD4
:104350000000000000000000119800000000909193
:10436000020182FD9095917090930001119A0000D6
:104370000000000000001198000000009091020170
:1043800081FD9095917090930001119A00000000BA
:10439000000000001198000000008091020181706F
:1043A00080930001119A00000000000000000895B1
:1043B00090E080E00895CF93DF93DB01F9019C91B9
:1043C0009130C1F0943080F094509C938830D1F4B7
:1043D00080819181009771F0019791838083480FCC
:1043E000591FEA01188206C08C3539F49C5F9C93F2
:1043F000943041F4DF91CF9108958B3339F781E008
:104400008C93F8CF20813181B9016F5F7F4F718329
:104410006083420F531FEA018883808191818F3529
:1044200091056CF7E7CF0F931F9381E000917E1702
:1044300010917F17209180173091811740917A1742
:1044400050917B1760917C1770917D1704171507A9
:104450002607370708F480E01F910F91089590E038
:1044600080E00895282F90910F09833021F495FD65
:104470000FC094FD0FC0892F90E0B0E0A0E004C011
:10448000B695A795979587952A95D2F78170089547
:1044900081E0089580E008951092F608809151021D
:1044A00090915202A0915302B09154028093E00681
:1044B0009093E106A093E206B093E3060895129A62
:1044C0000895269A2E9A0895AF92BF92CF92DF92C6
:1044D000EF92FF920F931F93CF93DF936B01E9014C
:1044E0004A3009F4C1C0453109F073C0DB011296AE
:1044F000ED91FC91F280C681D78180910201809577
:1045000082708093000188E28A950000E9F7BF2C51
:10451000B29420EFB22230E1A32EAF0C48E2E42E99
:1045200088EF0E9461218E2D8A950000E9F7BFE196
:10453000BF1508F485C08F2D807780680E946121A7
:104540008B2D0E9461218E2D8A950000E9F780E86D
:104550000E94612180E00E9461218E2D8A950000D9
:10456000E9F78AEF0E9461218E2D8A950000E9F714
:104570008E01005F1F4F8881807F0E946121899199
:104580008295807F0E946121C017D107A1F78E2DEF
:104590008A950000E9F7F394E0E1BE0EFA10C0CF6F
:1045A00080910201827080930001D6011296CD9114
:1045B000DC91CE010F943A3F811147C2DF91CF9138
:1045C0001F910F91FF90EF90DF90CF90BF90AF9031
:1045D0000895FB0102811381423309F4F1C108F40B
:1045E000F5C1463409F4E2C1473409F4E5C14B335F
:1045F00029F589812B81D80112966C911297139617
:104600004C91213009F438C2233009F002C238EF4E
:10461000380F582F91E0431708F490E041E053170A
:1046200008F040E031E0561708F430E0592F542BE1
:10463000352309F016C2942309F013C281E0BECFDE
:1046400080EE8F0D8068807F0E9461218F2D829582
:10465000807F0E9461218E2D8A950000E9F780E815
:104660000E94612180E877CF809101018260809370
:10467000010180910201827080930001809101010B
:10468000816080930101809102018170809300011B
:10469000099A119A8091020180958270809300019D
:1046A00088E28A950000E9F788E790E0CEE9DFE04C
:1046B000FE013197F1F70197D9F788EF0E94612148
:1046C00018E2812F8A950000E9F780E20E946121BB
:1046D00080E00E946121812F8A950000E9F780E047
:1046E0000E94612180E80E946121812F8A9500004B
:1046F000E9F780E00E94612180E10E946121812F21
:104700008A950000E9F7CE010197F1F7CE010197F4
:10471000F1F7CE010197F1F7CE010197F1F7CE0144
:104720000197F1F7CE010197F1F7CE010197F1F76B
:10473000CE010197F1F7CE010197F1F7CE01019774
:10474000F1F7CE010197F1F7CE010197F1F7CE0114
:104750000197F1F7CE010197F1F72197F1F780E288
:104760000E94612180E40E946121812F8A950000CE
:10477000E9F780E20E94612180E60E9461211A959A
:104780000000E9F710E0D0E0C8E28D2F8077806864
:104790000E946121812F0E9461218C2F8A95000047
:1047A000E9F780E80E94612180E00E9461218C2F5E
:1047B0008A950000E9F78AEF0E9461218C2F8A9583
:1047C0000000E9F790E211980000000080910201DA
:1047D000817080930001119A000000000000000029
:1047E0001198000000008091020181708093000107
:1047F000119A000000000000000011980000000065
:1048000080910201817080930001119A00000000E4
:1048100000000000119800000000809102018170EA
:1048200080930001119A0000000000000000119820
:104830000000000080910201817080930001119AB4
:1048400000000000000000001198000000008091AE
:104850000201817080930001119A000000000000A5
:104860000000119800000000809102018170809387
:104870000001119A000000000000000011980000E3
:10488000000080910201817080930001119A000064
:10489000000000000000119800000000809102015B
:1048A000817080930001119A000000000000000058
:1048B0001198000000008091020181708093000136
:1048C000119A000000000000000011980000000094
:1048D00080910201817080930001119A0000000014
:1048E000000000001198000000008091020181701A
:1048F00080930001119A0000000000000000119850
:104900000000000080910201817080930001119AE3
:1049100000000000000000001198000000008091DD
:104920000201817080930001119A000000000000D4
:1049300000001198000000008091020181708093B6
:104940000001119A00000000000000001198000012
:10495000000080910201817080930001119A000093
:104960000000000000008C2F8A950000E9F79150AC
:1049700009F029CF88EF0E9461218C2F8A950000D1
:10498000E9F7DF5F105FD03209F0FFCE80E00E94D0
:10499000612180EC0E946121CA950000E9F78091B5
:1049A000020182708093000181E008CED801159643
:1049B0008C91888381E002CEF80181818883FACFCF
:1049C000B901C8010F94573F81E0F8CD443171F02F
:1049D000473109F033CE1882F801828189838581BD
:1049E00081508A8383818B8381E0E8CDD80115963D
:1049F0004C91159750E0440F551F70E060E01696FB
:104A00008D919C910F946160C8010F94503F81E09B
:104A1000D5CD481708F412CE861708F40FCEFA80C9
:104A2000E12CD12C243070F41DC0BE01C8010F94BC
:104A3000573F898198819D0D98838E0D8983FF0C46
:104A400009F4FCCDF7FEF6CFF0CF4D8150E0440FD6
:104A5000551F70E060E08E819F810F94616081E05E
:104A6000ADCDFA8030E0F901E555FD4FD0802955F4
:104A70003D4FF901E080E6CF58E0580F382FCACDFE
:104A8000EF92FF920F931F93CF93DF93EC018B0173
:104A90007A018A859B858617970731F088819981ED
:104AA0000F9430411B870A87B701888199810F9441
:104AB000D9322E813F81820F932F911D9F838E8348
:104AC00090E080E0DF91CF911F910F91FF90EF90E8
:104AD00008959F92AF92BF92CF92DF92EF92FF9292
:104AE0000F931F93CF93DF93EC018B01942EA52E90
:104AF0008A859B858617970731F0888199810F9465
:104B000030411B870A8788859985019649F5BC80C5
:104B10000A818E81080FC880D980D6015596ED9103
:104B2000FC91C6011995B80EE92CFA2C10E0F7019A
:104B300021917F01211127C08E819F81810F911DBD
:104B40009F838E8390E080E0DF91CF911F910F9142
:104B5000FF90EF90DF90CF90BF90AF909F9008951F
:104B60000E811F81692D7A2D888199810F94D93208
:104B7000800F912F911D288539852817390738F620
:104B800081E090E0E1CF4B2D602FC6010F9488416A
:104B9000080F180FCCCFDF92EF92FF920F931F9365
:104BA000CF93DF93EC01D62E1CAD0BAD7C0184E0DE
:104BB000E80EF11CE98DFA8DC7011995412F480FB8
:104BC0002D2D602FC7010F9488419BAD890F8BAFAE
:104BD00081E090E0DF91CF911F910F91FF90EF90D6
:104BE000DF900895AB01BC0140937E1750937F176F
:104BF000609380177093811787EE98E10C94E5D14C
:104C0000809323028032B8F590910F05891724F024
:104C100091E0980F90930F0540910B0550910C0572
:104C200060910D0570910E05082E04C0769567956C
:104C3000579547950A94D2F741704093FB1087FD32
:104C40001DC0282F082E000C330B3F938F9386E84E
:104C500099E09F938F9386E999E09F938F931F929A
:104C60000E94C6B58DB79EB707960FB6F8949EBF43
:104C70000FBE8DBF08951092FB10E1CF0D944046FA
:104C80000F931F93CF93DF9300D01F92CDB7DEB762
:104C90009C010DED18E090E1E6E4F1E1D80101900E
:104CA0000D929A95E1F7F90120813181428153817A
:104CB000F80160857185828593850F94315DF801D7
:104CC000608771878287938780E090E0A0EAB0E4F4
:104CD00089839A83AB83BC83CE0101960E9490FCAA
:104CE0000F900F900F900F90DF91CF911F910F9128
:104CF00008952F923F924F925F926F927F928F9280
:104D00009F92AF92BF92CF92DF92EF92FF921F934A
:104D1000CF93DF93CDB7DEB72C970FB6F894DEBFF5
:104D20000FBECDBF7A011901DC012D913D914D914E
:104D30005C912D833E834F835887FB0140805180D7
:104D4000628073808090461190904711A090481126
:104D5000B0904911A50194016D817E818F81988564
:104D60000F943F5681110EC011E0A3019201609192
:104D70004A1170914B1180914C1190914D110F94EB
:104D80003F56811110E0D1012D913D914D915C91E3
:104D900029873A874B875C87F701C080D180E28002
:104DA000F3802091090230910A0240910B02509148
:104DB0000C02C701B6010F943F56882309F44EC078
:104DC000C0920902D0920A02E0920B02F0920C0209
:104DD0008091521190915311A0915411B09155119D
:104DE00040914A1150914B1160914C1170914D11AD
:104DF0008092DD089092DE08A092DF08B092E00871
:104E00004093E1085093E2086093E3087093E4084C
:104E1000C092E508D092E608E092E708F092E80830
:104E20008093E9089093EA08A093EB08B093EC080C
:104E300020E030E040E05FE36091291170912A1199
:104E400080912B1190912C110F94A55669837A8330
:104E50008B839C83CE0101960E9490FC2D813E8124
:104E60004F8158852093DD083093DE084093DF089A
:104E70005093E0084092E1085092E2086092E30803
:104E80007092E408D1012D913D914D915C9160911A
:104E9000E9087091EA088091EB089091EC080F9472
:104EA000315D6093E9087093EA088093EB08909372
:104EB000EC0811112FC020E030E0A90169857A8546
:104EC0008B859C850F943F56811133C060E070E064
:104ED00088EC92E469837A838B839C83CE0101966C
:104EE0000E9490FC2C960FB6F894DEBF0FBECDBF8B
:104EF000DF91CF911F91FF90EF90DF90CF90BF9007
:104F0000AF909F908F907F906F905F904F903F9069
:104F10002F9008952AEF3EE74AE25FE360912D115A
:104F200070912E1180912F11909130110F94A556F0
:104F3000D1CF60E070E080EA91E4CCCF8091C604EC
:104F40009091C704009731F04AE050E070E060E0D3
:104F50000D945A5460E070E0CB0108958091080AE6
:104F600082FF0BC063E682E79AE00E94E1B50F94EE
:104F700044390E94ACBC81E0089580E0089580919E
:104F8000C6049091C704009731F04AE050E070E009
:104F900060E00D942C5360E070E0CB010895AF9277
:104FA000BF92CF92DF92EF92FF920F931F93CF9316
:104FB000DF93EC015B018A01FB01199587FD16C0A7
:104FC000C82ED12CF12CE12C2196F801C082D1827F
:104FD000E282F382CE01DF91CF911F910F91FF907A
:104FE000EF90DF90CF90BF90AF900895982F907E74
:104FF000903CA9F48F7190E0B0E0A0E06C017D01DD
:1050000056E0CC0CDD1CEE1CFF1C5A95D1F7CE01EE
:105010000196F50119958F73C82A2296D6CF982F3D
:10502000907F903E11F58F7090E0B0E0A0E06C01B1
:105030007D0136E0CC0CDD1CEE1CFF1C3A95D1F74F
:10504000CE010196F50119958F73C82A46E0CC0C64
:10505000DD1CEE1CFF1C4A95D1F7CE010296F5012E
:1050600019958F73C82A2396B0CF982F987F903FB9
:1050700079F5877090E0B0E0A0E06C017D0186E0FA
:10508000CC0CDD1CEE1CFF1C8A95D1F7CE010196DD
:10509000F50119958F73C82A96E0CC0CDD1CEE1C27
:1050A000FF1C9A95D1F7CE010296F50119958F73E1
:1050B000C82A26E0CC0CDD1CEE1CFF1C2A95D1F77B
:1050C000CE010396F50119958F73C82A24967DCFDA
:1050D000982F907C903841F4807C803869F4219638
:1050E000CE01F5011995F8CF8E7F8D3F28F02196DE
:1050F000CE01F5011995F8CFC12CD12C760165CFE1
:105100009CE0899F802D112491E0980F90931005C9
:105110002CE0280F2093D70830E02E5F3F4F4091BE
:1051200030174217130619F014F080E0089520910B
:1051300032179217D0F7662341F08E5F0F944A40E2
:105140008091D7088E5F0F944A408091D708909144
:105150003017891750F320913217909110052917B5
:1051600020F3109233178093341781E00895CF9382
:1051700080910205811154C0109233171092341798
:105180001092351710920117109200171092031702
:10519000109202171092051781E08093041782E2A3
:1051A0008093061710920B1710920A17EFE1F7E1A0
:1051B0002DE237E18FEF81932E173F07E1F7C1E032
:1051C000C0931C1724E732E0309312172093111775
:1051D000C0931317109214171092151790E4909320
:1051E0001617109217172AEC30E030932E172093E1
:1051F0002D1726E132E03093FF162093FE1697E13B
:105200009093231791E19093241790E190932117A5
:105210008093201780931F170F94713FC09302054E
:1052200081E08093030585E497E190936F16809366
:105230006E161092711610927016CF9108952091EB
:105240000105022E000C330B8217130641F08093E8
:10525000010565E477E18CEF96E10D943041089506
:10526000CF92DF92EF92FF920F931F93CF93DF9332
:10527000CDB7DEB72C970FB6F894DEBF0FBECDBF0B
:105280006F3F71058105910509F0D0F488EF96E133
:105290000E94CB25E0910017F0910117319684917F
:1052A00090E02C960FB6F894DEBF0FBECDBFDF9115
:1052B000CF911F910F91FF90EF90DF90CF900895C5
:1052C000F0903317E09034172091030521110FC09F
:1052D00045E257E16E2D8F2D0F94F44190E080E070
:1052E000F80EF0923317E09234179927DACFC09076
:1052F0000017D09001172CEF36E13A8329832F2D28
:1053000030E03C832B832E2D30E03E832D831886A6
:105310001F822FEF3FEF3A8729871C861B8609E6FD
:1053200015E29E012F5F3F4FAB01BC01C6010F94F8
:105330001629B6018CEF96E10F9430418F81988544
:10534000CFCFCF93DF93FC0125AD211104C021E025
:1053500025AF0F94713FC091FE16D091FF16E091DA
:105360002D17F0912E1782E01995E0912D17F091ED
:105370002E1781E0199530E020E044E1BE018CEF6A
:1053800096E10F946D3F2FE237E147E1BE018CEFCC
:1053900096E10F946D3FE0912D17F0912E1780E06C
:1053A000DF91CF911994CF92DF92EF92FF920F93FA
:1053B0001F93CF93DF93CDB7DEB72C970FB6F8943A
:1053C000DEBF0FBECDBFF0903317E09034172091B1
:1053D000030521111DC045E057E16E2D8F2D0F945F
:1053E000F44190E080E0F80EF0923317E092341729
:1053F00099272C960FB6F894DEBF0FBECDBFDF9174
:10540000CF911F910F91FF90EF90DF90CF90089573
:10541000C0900017D09001172CEF36E13A83298312
:105420002F2D30E03C832B832E2D30E03E832D83C7
:1054300018861F827A8769871C861B8609E615E213
:105440009E012F5F3F4F4BE551E2BC01C6010F9417
:10545000DA29B6018CEF96E10F9430418F8198855F
:10546000C2CF6FEF7FEF0C94D329CF92DF92EF92F0
:10547000FF920F931F93CF93DF93CDB7DEB72C9797
:105480000FB6F894DEBF0FBECDBFF0903317E0909B
:1054900034172091030521111DC045EE56E16E2DF4
:1054A0008F2D0F94F44190E080E0F80EF0923317C6
:1054B000E092341799272C960FB6F894DEBF0FBEF2
:1054C000CDBFDF91CF911F910F91FF90EF90DF90B3
:1054D000CF900895C0900017D09001172CEF36E1BF
:1054E0003A8329832F2D30E03C832B832E2D30E00F
:1054F0003E832D8318861F827A8769871C861B86C8
:1055000009E615E29E012F5F3F4F4EE551E2BC01D7
:10551000C6010F94DA29B6018CEF96E10F94304161
:105520008F819885C2CFBF92CF92DF92EF92FF9288
:105530000F931F93CF93DF938B01F42EE90141FB6F
:10554000662760F90E948028882309F45AC0B12C8C
:105550000115110521F0C8010E947DBDB82EE12C76
:10556000209721F0CE010E9468BFE82E80E8C82E67
:10557000D12CF0FE1EC085E190E08B199109B7FC9B
:1055800093958E199109E7FC939597FD0196959552
:105590008795F82E30E8C32ED12CFA94F7FC09C079
:1055A00060E270E080E090E00E943029C81AD90AD9
:1055B000F4CFBB2099F0C60166E070E00F94005D67
:1055C000262F4091D9085091DA086091D808C80177
:1055D0000E94BDBC96E0899F60011124EE2031F04D
:1055E000B601CE010E94352AC81AD90A87E0C8162A
:1055F000D10438F060E270E080E090E00E94302951
:10560000F3CFDF91CF911F910F91FF90EF90DF903B
:10561000CF90BF9008956FEF7FEF0C94352AAF9233
:10562000BF92CF92DF92EF92FF920F931F93CF938F
:10563000DF935C016B010E947DBDE82EC6010E94D4
:1056400068BFF12C03E110E0081B1109C5E20E153B
:105650001F050CF4CFE18C2F90E09C012E5F3F4F93
:10566000409130174217130609F0CCF509972091A5
:105670003217281719069CF14091D9085091DA0881
:105680006091D80810923317C093341725E1C501F3
:105690000E94BDBCD1E0C114D104B1F06AE370E056
:1056A00080E090E00E9430290E151F05D4F4C45FFD
:1056B00080913017C81740F0209132174C2F495075
:1056C000550B241715067CF4DF91CF911F910F9194
:1056D000FF90EF90DF90CF90BF90AF900895D0E013
:1056E000DACFDD2389F3802F880F080F000F009396
:1056F0003317C093341760E270E080E090E00E94BE
:105700003029C601DF91CF911F910F91FF90EF904B
:10571000DF90CF90BF90AF900C940B2B8F929F9205
:10572000AF92BF92CF92DF92EF92FF920F931F93AF
:10573000CF93DF93CDB7DEB72C970FB6F894DEBFCB
:105740000FBECDBF982F862F5A017901D02E692F19
:105750000E948028882309F489C0C701002391F1A1
:105760000E947DBDC82E80900017909001178091F7
:105770000305811145C01FEF23E12C194091D90881
:105780005091DA086091D808C5010E94BDBCCC20B8
:1057900009F46CC0B6E08B9F500111246AE370E0FD
:1057A00080E090E00E94302957E0A516B10408F48B
:1057B00044C060E270E080E090E00E943029A81AC6
:1057C000B90AF2CF0E9468BFC82E8090001790904F
:1057D000011780910305882371F2FE0133968AE058
:1057E000DF011D928A95E9F78CEF96E19A83898310
:1057F00000E415E29E012F5F3F4F4EE551E212C0DB
:10580000FE0133968AE0DF011D928A95E9F78CEF5D
:1058100096E19A83898300E415E29E012F5F3F4F52
:105820004BE551E2B701C4010F94DA29B4018CEFC2
:1058300096E10F9430411F819FCF4091D708212FCF
:1058400030E0A6E0CA9EC00111242E5F3F4F28170A
:1058500039070CF49C0180E8821B80933317409336
:105860003417C701DD20A9F00E94312A2C960FB60B
:10587000F894DEBF0FBECDBFDF91CF911F910F9186
:10588000FF90EF90DF90CF90BF90AF909F908F9060
:1058900008950E940B2BEACFE8EFF6E183AF64AFE7
:1058A000CA010C940B2B2F923F924F925F926F92F2
:1058B0007F928F929F92AF92BF92CF92DF92EF92A0
:1058C000FF920F931F93CF93DF93D62FC72FFC0127
:1058D00080809180A280B380C501B40120E831E5C9
:1058E00041E050E00F94835CC9016DE671E00F94D4
:1058F000005D6B017C01C501B40120E13EE040E0A8
:1059000050E00F94835CCA01B90128E130E040E027
:1059100050E00F94835C362E272E062F172F8CE332
:10592000482E512C612C712CC501B401A3019201A8
:105930000F94835CB62EA72ECA01B901A301920170
:105940000F94835CCB01C114D10479F1AF92BF9263
:105950007F936F932F923F92FF92EF92DF92CF92BD
:1059600083E495E19F938F93CF93DF930F94D65564
:105970008DB79EB70E960FB6F8949EBF0FBE8DBF23
:105980008D2F9C2FDF91CF911F910F91FF90EF9062
:10599000DF90CF90BF90AF909F908F907F906F904F
:1059A0005F904F903F902F900895E114F104C9F05B
:1059B000AF92BF927F936F932F923F92FF92EF929D
:1059C00083E395E19F938F93CF93DF930F94D65505
:1059D000EDB7FEB73C960FB6F894FEBF0FBEEDBF15
:1059E000CFCF012BB9F0AF92BF927F936F932F92DD
:1059F0003F9287E295E19F938F93CF93DF930F942C
:105A0000D6558DB79EB70A960FB6F8949EBF0FBEB7
:105A10008DBFB6CF892BA9F0AF92BF927F936F93C2
:105A20008FE195E19F938F93CF93DF930F94D6559A
:105A3000EDB7FEB738960FB6F894FEBF0FBEEDBFB8
:105A40009FCFAF92BF928BE195E19F938F93CF93BE
:105A5000DF930F94D6550F900F900F900F900F90EB
:105A60000F908ECF8F929F92AF92BF92CF92DF9284
:105A7000EF92FF920F931F93CF93DF931092000545
:105A80001092FF042FE32093FE041092FD04109265
:105A9000FC041092FB041092F7041092F804109288
:105AA000F9041092FA049C01F90190812F5F3F4F95
:105AB0009032D1F39E34C9F4818190ED980F9A30E1
:105AC00020F08D3211F08B3281F432969F012F5FDE
:105AD0003F4F808180538A3008F47BC09F012F5F45
